:020000040800F2
:10000000301A002005030008A5360008A9360008AC
:10001000AD360008B1360008B53600080000000013
:10002000000000000000000000000000B9360008D9
:10003000BD36000800000000C1360008C5360008C3
:100040001F0300081F0300081F0300081F03000808
:100050001F0300081F0300081F0300081F030008F8
:100060001F0300081F0300081F0300081F030008E8
:100070001F0300081F0300081F0300081F030008D8
:100080001F0300081F030008993B00081F03000816
:10009000D5360008D93600081F0300081F030008E2
:1000A0001F0300081F0300081F0300081F030008A8
:1000B0001F0300081F0300081F0300081F03000898
:1000C0001F0300081F0300081F0300081F03000888
:1000D0001F030008DD3600081F0300081F03000887
:1000E0001F0300081F0300081F0300081F03000868
:1000F0001F0300081F0300081F0300081F03000858
:100100001F0300081F0300081F0300081F03000847
:100110001F0300081F0300081F0300081F03000837
:100120001F0300081F0300081F0300081F03000827
:100130001F03000800000000000000001F0300086B
:100140001F0300081F0300081F0300081F03000807
:100150001F0300081F030008B53900081F0300082B
:100160001F0300081F0300081F0300081F030008E7
:100170001F0300081F0300081F0300080000000001
:10018000000000001F030008000000000000000045
:100190001F03000800000000000000001F0300080B
:1001A0000000000000000000000000001F03000825
:1001B0001F0300081F0300081F0300081F03000897
:1001C0001F03000800F002F800F08DF80AA090E884
:1001D000000C82448344AAF10107DA4501D100F002
:1001E00082F8AFF2090EBAE80F0013F0010F18BF42
:1001F000FB1A43F001031847A0870000C0870000E6
:10020000103A24BF78C878C1FAD8520724BF30C842
:1002100030C144BF04680C60704700000023002414
:1002200000250026103A28BF78C1FBD8520728BF06
:1002300030C148BF0B6070476E2900F045817029BE
:1002400000F087826629AFF300806529AFF3008054
:100250006729AFF300806129AFF3008003681B0AB0
:1002600028BF41F08001692900F0F280642900F084
:10027000EF80752900F0EC806F2900F01582782955
:1002800000F05382E92900F0AF81E42900F0AC814D
:10029000F52900F0A981EF2900F01282F82900F079
:1002A00052820368DB0928BF41F08001632900F016
:1002B000CB83732900F0D083E32900F0DB83F3299B
:1002C00000F0E083002070471FB507F018FF00F032
:1002D0003DFC04000020002107F05EFC401C606033
:1002E0001FBD10B510BD00F0F9FB1146FFF7ECFF84
:1002F00000F07AFC00F020FC03B4FFF7F2FF03BC2F
:1003000000F068FC0948804709480047FEE7FEE71F
:10031000FEE7FEE7FEE7FEE7FEE7FEE7FEE7FEE7B5
:1003200004480549054A064B70470000CD7900088E
:10033000C501000830140020301A002030160020BB
:10034000301600200FB41CB5084B06AA7B44694642
:100350000090059800F0D1F804460020694600F0AE
:10036000DFF820461CBC5DF814FB0000D101000042
:1003700070477047704710B500F0BAFA006810BDBA
:1003800010B5044600F0B4FA046010BD70B5044620
:1003900085690068C10601D5302600E02026C00727
:1003A00007D070BDD4E9012130469047206A401C37
:1003B00020626D1EF6D570BD70B504468569007863
:1003C000C00707D170BDD4E9012120209047206AE1
:1003D000401C20626D1EF6D570BD09684A0501D526
:1003E00040B27047C905FCD500B2704709684A059C
:1003F00001D5C0B27047C905FCD580B2704770B551
:100400000C460546012A05D02878800600D5EA6901
:10041000002302E0012305E05B1C934202D2E05C72
:100420000028F9D1A869E618C01AA861286A1844FA
:1004300028622846FFF7AAFF04E0D5E9012114F855
:10044000010B9047B442F8D32846FFF7B5FF70BDC3
:100450002DE9F0410646002410687529314616A59D
:1004600010D0FFF7BAFF002802DA404213A507E0D8
:1004700031688A0701D512A502E0490704D511A504
:10048000012401E0FFF7B2FF00210A2206F1240750
:1004900009E0B0FBF2FCB0FBF2F302FB1C003030D1
:1004A00078541846491C0028F3D123462A46304682
:1004B000BDE8F04100F065BA000000002D0000002A
:1004C0002B0000002000000011680268006A53053C
:1004D00001D508700AE0D30501D5088006E01306AF
:1004E00003D5C217C1E9000200E00860012070478F
:1004F00001694A1C02610878704700B58FB0CDE9E8
:1005000001310021059105497944CDE903101146D7
:10051000684600F029F90FB000BD0000E5FFFFFFBD
:100520000A6802F8010B0A60704700002DE9FF5FBE
:1005300015468A460446DFF8AC80F8440027D8E91F
:1005400000103E46CDE9001010E05AF826106A4629
:1005500002A800F09BFA411C07D02178890603D538
:10056000E269391891420DD80744761C207880063C
:1005700002D5E069B84205DDAE42E6DB5AF8260056
:100580000028E2D1A069C01BA0612046FFF7FEFE53
:10059000D8E90010CDE90010002017E05AF8281023
:1005A0006A4602A800F072FAB0F1FF3F81460BD014
:1005B00000250DF1080B05E0D4E901211BF8050029
:1005C00090476D1C4D45F7D308F10100B0428046BD
:1005D000E4DB206A384420622046FFF7EDFEBDE8E8
:1005E000FF9F0000E67B00002DE9F0418046D21D10
:1005F00022F007020025D2E90002F52915A614D041
:10060000011E72F1000106DA0023D0EB030063EB58
:10061000020211A608E0D8F800108B0701D50FA63A
:1006200002E0490701D50EA601251146002408F174
:10063000240704E000F060F930323A55641C50EAB7
:100640000102F7D12B46324621464046BDE8F04133
:1006500000F097B9000000002D0000002B00000002
:100660002000000030B4002100F1240408E002F072
:100670000705D208303542EA4372DB086554491C4D
:1006800052EA0305F3D10468002310A2250708D518
:1006900004F020040C4304D0C46901230CA2641E9E
:1006A000C46130BC00F06DB910B504462146106835
:1006B000FFF79CFE02462046BDE810400023D1E72C
:1006C000D21D22F00701D1E90023CBE70000000092
:1006D00030000000F0B40D460188090502D5214C18
:1006E0007C4402E01F4C7C440E34002100F12406BF
:1006F00008E002F00F071209E75D42EA03721B09E6
:100700007754491C52EA0307F3D1027800231207F9
:1007100004D5702D06D009B1022311342246F0BC55
:1007200000F02FB901231034F8E770B504460D46E8
:1007300021461068FFF75AFE024629462046BDE8CA
:1007400070400023C6E7D21D22F00703D3E900233F
:10075000C0E70368126843F0200303600823C36105
:100760000023B7E7487A00002DE9F05F8946044688
:100770004FF0000ADFF874B1FB44C0F820A0204617
:10078000E1688847002874D0252806D0D4E90121E3
:100790009047206A401C2062F1E700265F46204611
:1007A000E16888472028054607DB312D05D27819F6
:1007B00010F8200C08B10643F1E7B00701D526F088
:1007C0000406C4F81CA00027C4F818A02A2D09D0DC
:1007D000284607F0DAF938B304EB8708303DC8F84B
:1007E000185019E059F8041B204604EB8702916168
:1007F000E1688847012F054618D1E069002820DA12
:1008000026F020061DE0D8F8180000EB800005EB6C
:1008100040003038C8F818002046E168884705468F
:1008200007F0B3F90028EED1012F0AD02E2D08D100
:100830002046E16888477F1C0546022F46F02006C7
:10084000C4DBA069002803DA404246F00106A0613B
:10085000F00701D026F010066C2D0BD0682D09D0C2
:100860004C2D39D06A2D35D0742D35D07A2D33D01A
:1008700016E038E0E1682F4620468847B842054632
:1008800009D16C2F26D04FF48060E16806432046E2
:100890008847054604E06C2F1AD04FF48070064359
:1008A0000DB3A5F14100192802D8203546F40066A1
:1008B0004A462946204626604E46FFF7BDFC80B1D9
:1008C00001280BD0F61D26F0070000F1080956E7B5
:1008D0004020E4E78020D8E70020D6E706F10409AD
:1008E0004DE7284652E7206ABDE8F09FD87900001E
:1008F000004870471800002030B5B0F10A0271F1CD
:1009000000034FEA900E4EEA817EB0EB0E0061EBE1
:1009100091014FEA101E4EEA017E10EB0E0041EBF2
:1009200011114FEA102E4EEA016E10EB0E0041EB52
:1009300011214FEA104E4EEA014E10EB0E0041EB32
:100940001141401841F100014FEAD00040EA4170E6
:100950004FEAD1014FEA810444EA907410EB80051C
:1009600044EB01046D1944EB0404521BA3414FF006
:10097000000348BF0A3200D530BD401C41F10001E0
:1009800030BD2DE9F0470D4699469246044600F1E8
:1009900024080168880604D5E06921F0100121606F
:1009A00000E00120A84201DD471B00E00027A1690B
:1009B0007A1902EB0900081AA0612078C00602D457
:1009C0002046FFF7E3FC002608E0D4E901211AF8ED
:1009D00006009047206A401C761C20624E45F4DBDE
:1009E0002078C0060AD52046FFF7D0FC06E0D4E9FF
:1009F000012130209047206A401C2062381EA7F158
:100A00000107F4DC07E0D4E9012118F8050090475C
:100A1000206A401C2062281EA5F10105F3DC204657
:100A2000FFF7CAFC2078000602D50220BDE8F08757
:100A30000120FBE710B5436913B1AFF3008001E07B
:100A4000FFF7DDFC012010BD127800F124010A70CF
:100A500000224A700122EDE711684FF0FF32E9E70A
:100A600010B5436913B1AFF3008001E0FFF75EFDFD
:100A7000012010BD126800F124014262002282624E
:100A80000122EDE711684FF0FF32E9E72DE9F0416F
:100A900016460C46054600F047F8036893F8010136
:100AA000012807D0FF2C12D8185D80B101202C70CE
:100AB000BDE8F081D3F807013246214603F207135F
:100AC000C7182846BC46BDE8F041012360474FF0F7
:100AD000FF30EDE700487047180000207546FFF72B
:100AE000F9FFAE4605006946534620F007008546EB
:100AF00018B020B5FFF714FCBDE820404FF0000609
:100B00004FF000074FF000084FF0000BAC46ACE888
:100B1000C009ACE8C009ACE8C009ACE8C00921F0E4
:100B200007018D467047000010B500F00FF8001D5A
:100B300010BD00BF6570000010B50446AFF3008023
:100B40002046BDE81040FFF7D7BB000000487047C3
:100B5000380000200000000030B44FF0013C50F895
:100B6000042B51F8043BCCFA52F4D51A20D1FCB92D
:100B700050F8042B51F8043BCCFA52F4D51A17D193
:100B8000B4B950F8042B51F8043BCCFA52F4D51AFE
:100B90000ED16CB950F8042B51F8043BCCFA52F446
:100BA000D51A05D1002CDAD030BC4FF000007047C8
:100BB00029BAB1FA81F111F01801D1F12000844075
:100BC000F2D1CA40CB4012F0FF0213F0FF0330BC59
:100BD000D01A704701491820ABBEFEE7260002007C
:100BE00070470000000000002DE9F04F8FB041F287
:100BF000B63143F6080A01204EF60C5240F21009B5
:100C000044F6D3584EF21007C2F20001C4F2020AB1
:100C1000CEF20002C2F20009C1F26208CEF2000771
:100C200008704FF6FF01DAF8F80340F40070CAF8D4
:100C3000F803DAF8F80340F48060CAF8F803DAF849
:100C4000F80340F48070CAF8F8031068084040F2D6
:100C50000031C0F2FA5108431060D9F80000A0FB3F
:100C600008014FF0FF3000EB91110020B0EB116F45
:100C70000BD14EF60C527960F021CEF20002D17504
:100C80000721B86039601168D075029047F20404FA
:100C9000DAF83C10C4F2000441F48041CAF83C1078
:100CA000DAF83C1001F48041029102990290DAF8DE
:100CB000381041F08051CAF83810DAF8381001F0D5
:100CC0008051029102990290DAF8381041F0805177
:100CD000CAF83810DAF8381001F080510291029900
:100CE000029054F8040C40F4404044F8040C54F8CA
:100CF000040C00F4404002900298DAF8000000F082
:100D00000C00042846D0DAF8000000F00C00082897
:100D100004D15AF8040C10F4800F3BD1DAF800002B
:100D200000F00C000C2804D15AF8040C10F4800FC9
:100D300030D15AF8080C40F480304AF8080C41F2DF
:100D40007030C2F2000001685AF8082C12F4003F1B
:100D500022D10268521A642A00F280805AF8082CC4
:100D600012F4003F18D10268521A642A76D85AF851
:100D7000082C12F4003F0FD10268521A642A6DD871
:100D80005AF8082C12F4003F06D10268521A642A5D
:100D9000DAD963E05AF8080CDAF8000000F00C0029
:100DA00008285BD060210020C4F24721086041F28E
:100DB0007030C2F2000002685AF8083C13F0007F5D
:100DC0001FD003689B1A022B48D85AF8083C13F02E
:100DD000007F16D003689B1A022B3FD85AF8083CB4
:100DE00013F0007F0DD003689B1A022B36D85AF8F7
:100DF000083C13F0007F04D003689B1A022BDBD958
:100E00002CE042F60452C2F240224AF8042C01229D
:100E10000A6001685AF8082C12F0007F1ED102689F
:100E2000521A032A1AD25AF8082C12F0007F15D150
:100E30000268521A022A11D85AF8082C12F0007FC0
:100E40000CD10268521A022A08D85AF8082C12F05B
:100E5000007F03D10268521A022ADBD9002041F236
:100E6000703601210290C2F20006DAF8380040F034
:100E70008050CAF83800DAF8380000F0805002904C
:100E800002984020C4F20E2001603268236813F4F7
:100E9000803F20D133689B1AB3F57A7F41D823680D
:100EA00013F4803F17D133689B1AB3F57A7F38D893
:100EB000236813F4803F0ED133689B1AB3F57A7F11
:100EC0002FD8236813F4803F05D133689B1AB3F5FC
:100ED0007A7FDBD925E041603068216811F4003F5A
:100EE0001FD13168091AB1F57A7F1AD8216811F437
:100EF000003F16D13168091AB1F57A7F11D82168FF
:100F000011F4003F0DD13168091AB1F57A7F08D884
:100F1000216811F4003F04D13168091AB1F57A7FD4
:100F2000DBD9DAF8F80300F00F00042809D805200F
:100F30008AF8F803DAF8F80300F00F00052840F00B
:100F4000E580DAF8000040F4E050CAF80000DAF872
:100F5000000040F46040CAF80000DAF8000020F019
:100F6000F000CAF800005AF8080C10F0007F00F0FA
:100F7000CD80DAF80000022161F30100CAF8000018
:100F80003068DAF8001001F00C01082930D1DAF8E5
:100F9000F80300F00E00062809D305208AF8F803AC
:100FA000DAF8F80300F00F00052840F0AF80DAF817
:100FB0000000052161F38C200421CAF80000DAF852
:100FC000000061F34F30CAF80000DAF80000C0F307
:100FD000810142F20040C0F2F400032947D0022907
:100FE00032D0012904BF41F20020C0F27A006DE046
:100FF00041F288313268121A8A4200F28780DAF8A8
:10100000002002F00C02082AC1D03268121A8A426B
:101010007CD8DAF8002002F00C02082AB7D0326837
:10102000121A8A4272D8DAF8002002F00C02082A5A
:10103000ADD03268121A8A4268D8DAF8002002F07D
:101040000C02082AD6D1A2E75AF8041C5AF8043C2C
:1010500001F03F025AF8041C13F4800FC1F3881109
:1010600018D1A1FB0001002306F0DBFC19E05AF8BF
:10107000041C5AF8043C01F03F025AF8041C13F413
:10108000800FC1F3881114D1A1FB0001002306F0E9
:10109000C8FC15E041F20020C0F27A004843B0FBE2
:1010A000F2F05AF8041C0222C1F3014102EB4101A3
:1010B0000AE041F20020C0F27A004843B0FBF2F0AF
:1010C0005AF8041CC1F30271B0FBF1F0DAF8001019
:1010D0000FF64C62C1F30311515CC840C9F800001F
:1010E000A0FB08014FF0FF3000EB91110020B0EBA6
:1010F000116F0BD14EF60C527960F021CEF2000246
:10110000D1750721B86039601168D0754FF00009BA
:1011100040F2180B042202AD4FF001080226CDF870
:101120001C90C4F2020B2946DAF82800ABF118042F
:1011300040F08000CAF82800DAF8280000F08000AB
:101140000B900B98DAF8280040F00400CAF8280049
:10115000DAF8280000F004000B900B98DAF8280069
:1011600040F00100CAF82800DAF8280000F0010079
:101170000B900B98DAF8280040F00200CAF828001B
:10118000DAF8280000F002000B900B98DAF828003B
:1011900040F00800CAF82800DAF8280000F008003B
:1011A0000B900B984FF08070CBF800004FF480004C
:1011B000CBF800044FF40040CBF8000040F6184094
:1011C000C4F2020002604FF48070CDF80C800290EF
:1011D0002046CDE904990696019404F0F5FF4FF4FA
:1011E00000402946CDE902082046CDE90469CDF842
:1011F000188004F0E9FF04202946CDE902080BF627
:10120000E830CDE90469CDF8188004F0DDFF402016
:101210000BF57A7BCDF80C80294602905846CDE933
:101220000499069604F0D0FF4FF480702946CDE96A
:1012300002095846CDF8188004F0C6FFCDF8089092
:1012400047F2040140F220430224032502AEDAF8FB
:101250002800C4F20001C4F201030A4640F48000F1
:10126000CAF82800DAF8280000F4800002900298FA
:101270004EF60C50CEF2000000684EF22540CEF241
:10128000000080F821904020C7F8F800CDE90699C9
:10129000CDE90499CDE90299DAF83C0040F002006A
:1012A000CAF83C00DAF83C0000F002000B900B9802
:1012B00049F2FC30095821F45C7141F040011150B1
:1012C00041F29411D960C3F80890C3F8109053F814
:1012D0000C1C41F0010143F80C1C115821F0800155
:1012E000115044F2070153F8180C884343F8180CC6
:1012F00053F8080C40F0080043F8080C186820F078
:1013000001001860186853F81C1C53F8082C21F4CD
:10131000407120F00F0043F81C1C22F0730141F0D3
:10132000600143F8081CC3F81490186053F8080CC7
:1013300020F0040043F8080C53F8080C40F4006057
:1013400043F8080C186820F010001860186853F86B
:101350001C1C53F8082C21F4406120F0F00043F8E5
:101360001C1C22F4E64141F4C04143F8081CC3F8B8
:101370001890186053F8080C20F4806043F8080CAB
:1013800053F8040C40F0080043F8040C186820F4EB
:1013900080701860186853F81C1C53F8042C21F452
:1013A000405120F4706043F81C1C22F0730141F09E
:1013B000600143F8041CC3F81C90186053F8040C37
:1013C00020F0040043F8040C53F8040C40F40060CF
:1013D00043F8040C186820F480501860186853F81B
:1013E0001C1C53F8042C21F4804120F4405043F895
:1013F0001C1C22F4E64141F4C04143F8041C41F2B4
:10140000881119621860314653F8040C20F480608A
:1014100043F8040C53F81C0C20F0700043F81C0C2B
:1014200053F8180C20F0800043F8180C4FF480405B
:101430005862DAF8280040F00100CAF82800DAF80B
:10144000280000F001000B900B98DAF8280040F01B
:101450000200CAF82800DAF8280000F002000B9019
:101460000B98DAF8280040F00400CAF82800DAF8EF
:10147000280000F004000B900B9880200290039449
:10148000CDE90459CDE90645019804F09DFE4FF4DD
:10149000404002A981E8310258463146CDE906456F
:1014A00004F092FE4FF4E07002A94FF0020881E8C8
:1014B00031021820314606940795C4F2020000F567
:1014C000FD60009004F080FEDAF83C0002AE314688
:1014D00040F48050CAF83C00DAF83C0000F4805038
:1014E00002900298DAF8280040F00200CAF82800BA
:1014F000DAF828004FF0050A00F002000290029886
:101500000820CDE902085846CDE90459CDF81880E5
:10151000CDF81CA004F058FE3020CDF80C804FF020
:101520000108314602905846CDE90459CDE9068AB2
:1015300004F04AFE43F20000C4F20100016843F2E5
:101540000400C4F2010011F0400F10D143F2000179
:101550004FF6BF72C4F201010B460968914340F691
:101560001D3211431960016821F004010160816995
:1015700040F2B8144FF482724FF400630A2520261B
:10158000C2F2000421F400618161016821F01001C0
:10159000016046F200604FF40071C4F20000A0F553
:1015A000285084E80502C4E90339C4E90581C4E987
:1015B0000769C4E90999E562656D45B100254FF0F9
:1015C000000A4FF0000B4FF0000E009538E00020AD
:1015D00043F60801C4F2020120650690CDE904003B
:1015E000CDE902000B900A46896B41F400419163FA
:1015F000916B01F400410B910B990B90916A41F0B2
:1016000004019162916A01F004010B910B9902218E
:1016100003914FF4E05102910490032002A9059038
:1016200006200690009806F0FDF8206A0090D4E9A4
:10163000099E94E80508D4E9033AD4E90581E669EE
:10164000022542EA0B0265651A4301F40073D0F8E3
:1016500000C042EA0A0242EA08022CF040051A439E
:1016600040F2501C056032430025C2F2000C0126F6
:10167000009B1A434FF4E00342EA0E020260042288
:1016800002EA11414FF4002241EA09014160C169B7
:1016900021F40061C16146F200600521A565C4F234
:1016A0000000A0F500708CE823000CF11400CCE9D8
:1016B000035268C0CCE90856CCE90A55666505F0C6
:1016C000DDF843F2000040F2582B4FF461210C2268
:1016D000C4F20100C2F2000BA0F500508BE8230019
:1016E000CBE90355CBE90525CBF81C50DBF83C10C2
:1016F00041B143F6080A00214FF0000C0023C4F268
:10170000020AC7E043F6080ACBF838500695CDE93F
:101710000455CDE902550B95022402A9C4F2020A30
:10172000DAF83C0040F01000CAF83C00DAF83C005F
:1017300000F010000B900B980B95DAF8280040F0A1
:101740000100CAF82800DAF8280000F001000B9028
:101750000B9803944FF4C060029003200496059008
:1017600007200690019806F05DF840F2A02046F2AE
:10177000B8414FF0006240234FF48066C2F200008F
:10178000C4F20201456380E86E0041F270364FF406
:101790000032C0E90555C561C0E90825C2F200065E
:1017A000326884630B6823F001030B600B6813F04D
:1017B000010F31D148F23F030A684EF22546CFF2BD
:1017C0001003CEF200061A4040F24043C0F6020376
:1017D0001A4340F2FF330A604A6922F007024A6165
:1017E0006FF00F0252FA81F299434AF6AB23CAF620
:1017F000AA235F2AA2FB032388BF41F004011A0930
:101800000FF22C739A5C3F23C0E9171203FA02F21D
:101810008A600121002227E0016833689B1A052BAA
:101820001CD80B6813F0010FC4D033689B1A052B2A
:1018300014D80B6813F0010FBCD033689B1A052B2A
:101840000CD80B6813F0010FB4D033689B1A052B2A
:1018500004D80B6813F0010FDFD1ABE74EF2254639
:1018600003212022CEF200068265CBF83000C0F8BA
:101870003CB081634EF60C50CEF2000000680020B0
:1018800030702020C7F8F400DBE90651DBF80000D7
:10189000DBE902C3242649F20C62B1F5004FCBF814
:1018A0003C60C66826F40056C660066926F44056B9
:1018B00043EA06030361DBE90436C46843EA0C0328
:1018C00024EA020243EA060343EA010342EA03026E
:1018D000C260426922F4407242EA0502426164D168
:1018E00041F2004240F48061C4F20102914240F0B2
:1018F000C08040F2100148F684184FF0190948F2F0
:101900001F5EC2F20001C0F60008C5F2EB1E0A68B5
:10191000DAF800C0DBF80450DAF80040DAF80030FA
:10192000C3F34236C4F342346D0018F8066018F869
:10193000044022FA06F122FA04F401FB09F104FB47
:1019400009F4B1FBF5F1B4FBF5F4A1FB0E36730914
:10195000642603FB1613611A1944322303EBC101F9
:10196000A1FB0E134FF4F87101EA1311CCF34233CB
:1019700018F8033022FA03F303FB09F3B3FBF5F382
:10198000A3FB0E364FF6F073C7F6FF7303EA560358
:1019900001EB030CDAF80030C3F34233DAF80060ED
:1019A00018F80330C6F34236BEE041F2004240F47C
:1019B0008061C4F20102914240F0C68040F2100101
:1019C00048F684184FF0190948F21F5EC2F2000170
:1019D000C0F60008C5F2EB1E0A68DAF800C0DBF8B2
:1019E0000450DAF80040DAF80030C3F34236C4F3AA
:1019F0004234AD0018F8066018F8044022FA06F1E7
:101A000022FA04F401FB09F104FB09F4B1FBF5F13E
:101A1000B4FBF5F4A1FB0E367309642603FB161321
:101A2000611A1944322303EB0111A1FB0E13F021BB
:101A300001EA5311CCF3423318F8033022FA03F3CE
:101A400003FB09F3B3FBF5F3A3FB0E364FF6F0737C
:101A5000C7F6FF7303EA560301EB030CDAF8003014
:101A6000C3F34233DAF8006018F80330C6F34236A5
:101A7000C4E040F2100148F684184FF0190948F20A
:101A80001F5EC2F20001C0F60008C5F2EB1E0A6834
:101A9000DAF800C0DBF80450DAF80040DAF8003079
:101AA000C3F38226C4F382246D0018F8066018F888
:101AB000044022FA06F122FA04F401FB09F104FBC6
:101AC00009F4B1FBF5F1B4FBF5F4A1FB0E36730993
:101AD000642603FB1613611A1944322303EBC10178
:101AE000A1FB0E134FF4F87101EA1311CCF382231A
:101AF00018F8033022FA03F303FB09F3B3FBF5F301
:101B0000A3FB0E364FF6F073C7F6FF7303EA5603D6
:101B100001EB030CDAF80030C3F38223DAF800603B
:101B200018F80330C6F3822622FA03F303FB09F305
:101B3000B3FBF5F318F80660F240072602FB09F242
:101B4000B2FBF5F2032568E040F2100148F6841874
:101B50004FF0190948F21F5EC2F20001C0F60008FA
:101B6000C5F2EB1E0A68DAF800C0DBF80450DAF8B8
:101B70000040DAF80030C3F38226C4F38224AD00BB
:101B800018F8066018F8044022FA06F122FA04F464
:101B900001FB09F104FB09F4B1FBF5F1B4FBF5F429
:101BA000A1FB0E367309642603FB1613611A194450
:101BB000322303EB0111A1FB0E13F02101EA5311B3
:101BC000CCF3822318F8033022FA03F303FB09F362
:101BD000B3FBF5F3A3FB0E364FF6F073C7F6FF73B6
:101BE00003EA560301EB030CDAF80030C3F3822357
:101BF000DAF8006018F80330C6F3822622FA03F3FD
:101C000003FB09F3B3FBF5F318F80660F2400F2667
:101C100002FB09F2B2FBF5F20425A3EB020E48F237
:101C20001F5443F2000A40F20108C5F2EB14C4F25B
:101C3000010AC0F60078A2FB04135909642301FBD2
:101C400013217144A94040F278053231C2F20005F7
:101C5000A1FB0412002406EA5211012641EA0C01FC
:101C60008160016921F490410161416921F02A01FB
:101C70004161C16841F40051C1602020CBF844406B
:101C80004FF40031CBF83C00CBF84000AAF580506F
:101C90000E942C62C5E90A842C6385E8130028465B
:101CA000C5E90344C5E90564EE6104F0F9FA4FF0B3
:101CB0000B090BA92846CDE90B960D9404F01CFCEA
:101CC000CDE902964FF4801B4FF4602902A9284603
:101CD00006960494CDF828B0CDF82490CDE9076499
:101CE000059404F01DFD40F2C005AAF570600E9445
:101CF000C2F200052C62C5E90A842C6328604FF407
:101D00000030C5E901042846C5E90344C5E9056476
:101D1000EE6104F0C5FA4FF00C080BA92846CDE996
:101D20000B860D9404F0E8FB08A8CDE9028602A911
:101D300080E8100A2846CDE90666CDE9044404F09F
:101D4000EFFC40F208150121AAF560600E94C2F282
:101D50000005C0F600712C62C5E90A142C632860E6
:101D60004FF40030C5E901042846C5E90344C5E93C
:101D70000564EE6104F094FA4FF00D080BA92846B3
:101D8000CDE90B860D9404F0B7FB02A92846CDE9F6
:101D9000028606960494CDE9099BCDE90764A9461D
:101DA000059404F0BDFC40F214254FF080404FF440
:101DB0008041C2F20005C5E90004C5E902412C6179
:101DC000AC61296C51BB43F60800EC630694CDE985
:101DD0000444CDE902440B94C4F202000146806B36
:101DE00040F001008863886B00F001000B900B98B5
:101DF0000B94886A40F001008862886A02A900F0AA
:101E000001000B900B980220039003200290CDE973
:101E100004440696019805F005FD2868022144F265
:101E2000070247F2040440F250182964C4F2000487
:101E3000C2F200088168A4461824C4F20204914347
:101E400040F6FF328160C4F200020168904213DC68
:101E500040F2582EB0F1804FC2F2000E21D040F275
:101E60000043C4F2000398421BD040F60003C4F2C2
:101E70000003984215D018E040F6004340F2582E77
:101E8000C4F20003C2F2000E98420AD040F20043AE
:101E9000C4F20103984204D00023C4F20103984223
:101EA00003D1AB6821F07001194341F6FF73C4F20E
:101EB000000398420DDC90421FDCB0F1804F4DD002
:101EC00040F20042C4F20002904247D040F60002C5
:101ED00021E043F6FF72C4F2010290422CDC42F290
:101EE0000002C4F20002904238D00022C4F2010283
:101EF000904233D040F200422CE040F60042C4F25F
:101F0000000290422AD041F60002C4F20002904240
:101F100024D041F60042C4F2000290421ED021E0DB
:101F20000000000000000000010203040607080989
:101F3000000610160006101644F20002C4F2010258
:101F400090420BD044F60002C4F20102904205D048
:101F500044F20042C4F20102904203D12A6921F402
:101F600040711143AA6921F08001114340F20042FF
:101F70000160C4F20102E968C1626968816240F4EB
:101F80008061914204BF69690163012141618268F6
:101F90008369066A42F00302826040F2011262F332
:101FA0000F0326F0AA02836102622964EA6B012A08
:101FB0000CD002222A644268836822F070024260D8
:101FC00023F0800282600020E8632964386840F2D0
:101FD0002046C4F201060290B246029840F2F51083
:101FE0003968C90300EBE17078B13968C90300EBC7
:101FF000E17050B13968C90300EBE17028B139686C
:10200000C90300EBE1700028EAD143F2000041F27D
:102010007035C4F20100C2F200050146006840F0CC
:10202000400008604DF2006046F20061C4F2000119
:10203000CFF6FF700A46095841F040011150DEF812
:102040000000C16841F40051C160DAF8000040F4BA
:102050008050CAF8000049F2FC305CF8001041F0F2
:1020600001014CF800104020C4F80004286800BFAB
:102070002968091A06290BD22968091A052907D8DF
:102080002968091A052903D82968091A0629EFD3EE
:102090004FF48070206028682968091A02290BD241
:1020A0002968091A012907D82968091A012903D8BA
:1020B0002968091A0229EFD34FF0807020604FF48D
:1020C00000402060286800BF2968091A03290BD244
:1020D0002968091A022907D82968091A022903D888
:1020E0002968091A0329EFD303F024FC4FF40040B8
:1020F000206028682968091A03290BD22968091A5F
:10210000022907D82968091A022903D82968091A57
:102110000329EFD348F268164FF00040C0F60006DE
:102120002060304605F0AEF94FF40040206038687A
:1021300002900298022000BF3968C90300EBE170E9
:1021400078B13968C90300EBE17050B13968C9034F
:1021500000EBE17028B13968C90300EBE170002899
:10216000EAD14FF000402060B01C05F08BF94FF42D
:102170000040206038680290029802203968C90344
:1021800000EBE17078B13968C90300EBE17050B140
:102190003968C90300EBE17028B13968C90300EB65
:1021A000E1700028EAD14FF000402060301D05F0BA
:1021B00069F94FF4004020603868029002980220CC
:1021C0003968C90300EBE17078B13968C90300EBE5
:1021D000E17050B13968C90300EBE17028B139688A
:1021E000C90300EBE1700028EAD14FF00040206005
:1021F000B01D05F047F94FF40040206038680290A8
:10220000029802203968C90300EBE17078B139689F
:10221000C90300EBE17050B13968C90300EBE1700C
:1022200028B13968C90300EBE1700028EAD14FF00A
:102230000040206006F1080005F024F94FF400404A
:102240002060386802900298022000BF3968C903F4
:1022500000EBE17078B13968C90300EBE17050B16F
:102260003968C90300EBE17028B13968C90300EB94
:10227000E1700028EAD14FF00040206006F10A002A
:1022800005F000F94FF40040206038680290029891
:10229000022000BF3968C90300EBE17078B13968EA
:1022A000C90300EBE17050B13968C90300EBE1707C
:1022B00028B13968C90300EBE1700028EAD14FF07A
:1022C0000040206006F10C0005F0DCF84FF40040FF
:1022D0002060386802900298022000BF3968C90364
:1022E00000EBE17078B13968C90300EBE17050B1DF
:1022F0003968C90300EBE17028B13968C90300EB04
:10230000E1700028EAD103F015FB03F013FB03F0A2
:1023100011FB03F00FFB03F00DFB386802900298ED
:10232000652000BF3968C90300EBE17078B13968F6
:10233000C90300EBE17050B13968C90300EBE170EB
:1023400028B13968C90300EBE1700028EAD141F2F5
:1023500080304BF21771C2F20000C3F651010160E8
:1023600003F0A4FB03F00EFE3868029002980220EE
:102370003968C90300EBE17078B13968C90300EB33
:10238000E17050B13968C90300EBE17028B13968D8
:10239000C90300EBE1700028EAD103F087FB03F0EA
:1023A000F1FD386802900298022000BF3968C90325
:1023B00000EBE17078B13968C90300EBE17050B10E
:1023C0003968C90300EBE17028B13968C90300EB33
:1023D000E1700028EAD103F069FB03F0D3FD38680F
:1023E00002900298022000BF3968C90300EBE17037
:1023F00078B13968C90300EBE17050B13968C9039D
:1024000000EBE17028B13968C90300EBE1700028E6
:10241000EAD103F04BFB03F0B5FD38680290029857
:10242000022000BF3968C90300EBE17078B1396858
:10243000C90300EBE17050B13968C90300EBE170EA
:1024400028B13968C90300EBE1700028EAD103F034
:102450002DFB03F097FD386802900298022000BF20
:102460003968C90300EBE17078B13968C90300EB42
:10247000E17050B13968C90300EBE17028B13968E7
:10248000C90300EBE1700028EAD103F00FFB03F071
:1024900079FD386802900298022000BF3968C903AC
:1024A00000EBE17078B13968C90300EBE17050B11D
:1024B0003968C90300EBE17028B13968C90300EB42
:1024C000E1700028EAD103F0F1FA03F05BFD38680F
:1024D00002900298022000BF3968C90300EBE17046
:1024E00078B13968C90300EBE17050B13968C903AC
:1024F00000EBE17028B13968C90300EBE1700028F6
:10250000EAD103F0D3FA03F03DFD38680290029857
:10251000022000BF3968C90300EBE17078B1396867
:10252000C90300EBE17050B13968C90300EBE170F9
:1025300028B13968C90300EBE1700028EAD103F043
:10254000B5FA03F01FFD386802900298022000BF20
:102550003968C90300EBE17078B13968C90300EB51
:10256000E17050B13968C90300EBE17028B13968F6
:10257000C90300EBE1700028EAD103F097FA03F0F9
:1025800001FD386802900298022000BF3968C90333
:1025900000EBE17078B13968C90300EBE17050B12C
:1025A0003968C90300EBE17028B13968C90300EB51
:1025B000E1700028EAD103F079FA03F0E3FC38680F
:1025C00002900298022000BF3968C90300EBE17055
:1025D00078B13968C90300EBE17050B13968C903BB
:1025E00000EBE17028B13968C90300EBE170002805
:1025F000EAD103F05BFA03F0C5FC38680290029858
:10260000022000BF3968C90300EBE17078B1396876
:10261000C90300EBE17050B13968C90300EBE17008
:1026200028B13968C90300EBE1700028EAD103F052
:102630003DFA03F0A7FC386802900298022000BF20
:102640003968C90300EBE17078B13968C90300EB60
:10265000E17050B13968C90300EBE17028B1396805
:10266000C90300EBE1700028EAD103F01FFA03F080
:1026700089FC386802900298022000BF3968C903BB
:1026800000EBE17078B13968C90300EBE17050B13B
:102690003968C90300EBE17028B13968C90300EB60
:1026A000E1700028EAD103F001FA03F06BFC38680E
:1026B00002900298022000BF3968C90300EBE17064
:1026C00078B13968C90300EBE17050B13968C903CA
:1026D00000EBE17028B13968C90300EBE170002814
:1026E000EAD103F0E3F903F04DFC38680290029858
:1026F000022000BF3968C90300EBE17078B1396886
:10270000C90300EBE17050B13968C90300EBE17017
:1027100028B13968C90300EBE1700028EAD103F061
:10272000C5F903F02FFC386802900298022000BF20
:102730003968C90300EBE17078B13968C90300EB6F
:10274000E17050B13968C90300EBE17028B1396814
:10275000C90300EBE1700028EAD103F0A7F903F008
:1027600011FC386802900298022000BF3968C90342
:1027700000EBE17078B13968C90300EBE17050B14A
:102780003968C90300EBE17028B13968C90300EB6F
:10279000E1700028EAD103F089F903F0F3FB38680F
:1027A00002900298022000BF3968C90300EBE17073
:1027B00078B13968C90300EBE17050B13968C903D9
:1027C00000EBE17028B13968C90300EBE170002823
:1027D000EAD103F06BF903F0D5FB38680290029858
:1027E000022000BF3968C90300EBE17078B1396895
:1027F000C90300EBE17050B13968C90300EBE17027
:1028000028B13968C90300EBE1700028EAD103F070
:102810004DF903F0B7FB386802900298022000BF20
:102820003968C90300EBE17078B13968C90300EB7E
:10283000E17050B13968C90300EBE17028B1396823
:10284000C90300EBE1700028EAD103F02FF903F08F
:1028500099FB386802900298022000BF3968C903CA
:1028600000EBE17078B13968C90300EBE17050B159
:102870003968C90300EBE17028B13968C90300EB7E
:10288000E1700028EAD103F011F903F07BFB38680E
:1028900002900298022000BF3968C90300EBE17082
:1028A00078B13968C90300EBE17050B13968C903E8
:1028B00000EBE17028B13968C90300EBE170002832
:1028C000EAD103F0F3F803F05DFB38680290029858
:1028D000022000BF3968C90300EBE17078B13968A4
:1028E000C90300EBE17050B13968C90300EBE17036
:1028F00028B13968C90300EBE1700028EAD103F080
:10290000D5F803F03FFB386802900298022000BF20
:102910003968C90300EBE17078B13968C90300EB8D
:10292000E17050B13968C90300EBE17028B1396832
:10293000C90300EBE1700028EAD103F0B7F803F017
:1029400021FB386802900298022000BF3968C90351
:1029500000EBE17078B13968C90300EBE17050B168
:102960003968C90300EBE17028B13968C90300EB8D
:10297000E1700028EAD103F099F803F003FB38680E
:1029800002900298022000BF3968C90300EBE17091
:1029900078B13968C90300EBE17050B13968C903F7
:1029A00000EBE17028B13968C90300EBE170002841
:1029B000EAD103F07BF803F0E5FA38680290029858
:1029C000022000BF3968C90300EBE17078B13968B3
:1029D000C90300EBE17050B13968C90300EBE17045
:1029E00028B13968C90300EBE1700028EAD103F08F
:1029F0005DF803F0C7FA386802900298022000BF21
:102A00003968C90300EBE17078B13968C90300EB9C
:102A1000E17050B13968C90300EBE17028B1396841
:102A2000C90300EBE1700028EAD103F03FF803F09E
:102A3000A9FA386802900298022000BF3968C903D9
:102A400000EBE17078B13968C90300EBE17050B177
:102A50003968C90300EBE17028B13968C90300EB9C
:102A6000E1700028EAD103F021F803F08BFA38680E
:102A700002900298022000BF3968C90300EBE170A0
:102A800078B13968C90300EBE17050B13968C90306
:102A900000EBE17028B13968C90300EBE170002850
:102AA000EAD103F003F803F06DFA38680290029857
:102AB000022000BF3968C90300EBE17078B13968C2
:102AC000C90300EBE17050B13968C90300EBE17054
:102AD00028B13968C90300EBE1700028EAD102F09F
:102AE000E5FF03F04FFA386802900298022000BF19
:102AF0003968C90300EBE17078B13968C90300EBAC
:102B0000E17050B13968C90300EBE17028B1396850
:102B1000C90300EBE1700028EAD102F0C7FF03F01F
:102B200031FA386802900298022000BF3968C90360
:102B300000EBE17078B13968C90300EBE17050B186
:102B40003968C90300EBE17028B13968C90300EBAB
:102B5000E1700028EAD102F0A9FF03F013FA386807
:102B600002900298022000BF3968C90300EBE170AF
:102B700078B13968C90300EBE17050B13968C90315
:102B800000EBE17028B13968C90300EBE17000285F
:102B9000EAD102F08BFF03F0F5F938680290029851
:102BA000022000BF3968C90300EBE17078B13968D1
:102BB000C90300EBE17050B13968C90300EBE17063
:102BC00028B13968C90300EBE1700028EAD102F0AE
:102BD0006DFF03F0D7F9386802900298022000BF19
:102BE0003968C90300EBE17078B13968C90300EBBB
:102BF000E17050B13968C90300EBE17028B1396860
:102C0000C90300EBE1700028EAD102F04FFF03F0A6
:102C1000B9F9386802900298022000BF3968C903E8
:102C200000EBE17078B13968C90300EBE17050B195
:102C30003968C90300EBE17028B13968C90300EBBA
:102C4000E1700028EAD102F031FF03F09BF9386807
:102C500002900298022000BF3968C90300EBE170BE
:102C600078B13968C90300EBE17050B13968C90324
:102C700000EBE17028B13968C90300EBE17000286E
:102C8000EAD102F013FF03F07DF938680290029850
:102C9000022000BF3968C90300EBE17078B13968E0
:102CA000C90300EBE17050B13968C90300EBE17072
:102CB00028B13968C90300EBE1700028EAD102F0BD
:102CC000F5FE03F05FF9386802900298022000BF19
:102CD0003968C90300EBE17078B13968C90300EBCA
:102CE000E17050B13968C90300EBE17028B139686F
:102CF000C90300EBE1700028EAD102F0D7FE03F02F
:102D000041F9386802900298022000BF3968C9036F
:102D100000EBE17078B13968C90300EBE17050B1A4
:102D20003968C90300EBE17028B13968C90300EBC9
:102D3000E1700028EAD102F0B9FE03F023F9386807
:102D400002900298022000BF3968C90300EBE170CD
:102D500078B13968C90300EBE17050B13968C90333
:102D600000EBE17028B13968C90300EBE17000287D
:102D7000EAD102F09BFE03F005F938680290029850
:102D8000022000BF3968C90300EBE17078B13968EF
:102D9000C90300EBE17050B13968C90300EBE17081
:102DA00028B13968C90300EBE1700028EAD102F0CC
:102DB0007DFE03F0E7F8386802900298022000BF19
:102DC0003968C90300EBE17078B13968C90300EBD9
:102DD000E17050B13968C90300EBE17028B139687E
:102DE000C90300EBE1700028EAD102F05FFE03F0B6
:102DF000C9F8386802900298022000BF3968C903F8
:102E000000EBE17078B13968C90300EBE17050B1B3
:102E10003968C90300EBE17028B13968C90300EBD8
:102E2000E1700028EAD102F041FE03F0ABF8386807
:102E300002900298022000BF3968C90300EBE170DC
:102E400078B13968C90300EBE17050B13968C90342
:102E500000EBE17028B13968C90300EBE17000288C
:102E6000EAD102F023FE03F08DF838680290029850
:102E7000022000BF3968C90300EBE17078B13968FE
:102E8000C90300EBE17050B13968C90300EBE17090
:102E900028B13968C90300EBE1700028EAD102F0DB
:102EA00005FE03F06FF8386802900298022000BF18
:102EB0003968C90300EBE17078B13968C90300EBE8
:102EC000E17050B13968C90300EBE17028B139688D
:102ED000C90300EBE1700028EAD102F0E7FD03F03E
:102EE00051F8386802900298022000BF3968C9037F
:102EF00000EBE17078B13968C90300EBE17050B1C3
:102F00003968C90300EBE17028B13968C90300EBE7
:102F1000E1700028EAD102F0C9FD03F033F8386807
:102F200002900298022000BF3968C90300EBE170EB
:102F300078B13968C90300EBE17050B13968C90351
:102F400000EBE17028B13968C90300EBE17000289B
:102F5000EAD141F27831002041F27C330127C2F2FC
:102F60000001C2F20003086041F2D821C2F2000160
:102F70000A881A8045F2EB13DAF80020C3F6B8434A
:102F800042F00102CAF80020DAF8002042F01002F4
:102F9000CAF80020DAF8002042F48072CAF8002053
:102FA000DAF8002042F00402CAF80020DAF8002023
:102FB00042F04002CAF80020DAF8002042F48062B1
:102FC000CAF800205AF8142C42F001024AF8142CD6
:102FD00041F2DC32C2F20002136041F2B432C2F2BA
:102FE0000002177041F2E03249F69A17C2F200026D
:102FF000C3F61957176041F2E432C2F200021360BF
:1030000041F2E8324AF20003C2F20002C4F29E43E7
:1030100017604CF6CD42C4F24C02C1E9092241F2DC
:10302000F032C2F20002136041F2F43244F21D3376
:10303000C2F20002C4F29363136041F2F832C2F2AA
:103040000002136045F6D0320A8641F2BC310022FC
:10305000C2F20001C4F248320A6041F2EC314FF092
:103060007E52C2F20001086041F20441C2F2000146
:103070000A6041F20841C2F200010A60D8F830103B
:103080000139012939D846F20061C4F200010B462A
:10309000096841F001011960196821F47C51196037
:1030A000196841F46061196046F21C61C4F20001C4
:1030B0000A6822F001020A6051F8102C22F0010285
:1030C00041F8102C46F22002CFF6F8724A6288626C
:1030D00051F8180C20F0010041F8180C51F8080CB8
:1030E00020F0010041F8080C086840F00100086079
:1030F000186820F00100186005E0D8F8340040F4AA
:103100008020C8F83400D8F83000012810D10220FF
:10311000C8F83000D8F80010086820F001000860F6
:103120002868496811F0010F40F08D80002003E00D
:10313000D8F8340040F40020C8F83400D8F8001063
:10314000D8F8302008F134004FF48027013A022AE1
:10315000024638BF01F114024FF48021136838BFD2
:1031600002273B434FF480271360D8F80020D8F89B
:103170003030013B022B034638BF02F114031A68BA
:1031800038BF4FF400673A434FF480271A60D8F8ED
:103190000020D8F83030013B022B034638BF02F143
:1031A00014031A6838BF4FF480673A431A60D8F89E
:1031B0000020D8F83030013B022B38BF02F1140058
:1031C000026838BF4FF400411143016041F2B6304C
:1031D000C2F200000078012834D140F2780440F2B5
:1031E000C005C2F20004C2F200052068816841F007
:1031F000010181602868816841F001018160D9F88E
:103200000000816841F001018160284603F016FA50
:10321000484603F013FA204603F010FAA06B00684A
:10322000016821F018010160A86B0068016821F0B5
:1032300018010160D9F838000068016821F0180110
:10324000016000BFFEE7D8F800102A68121A0B2AA6
:103250001FD24A6812F0010F3FF468AF2A68121AB1
:103260000A2A16D84A6812F0010F3FF45FAF2A68A5
:10327000121A0A2A0DD84A6812F0010F3FF456AF0D
:103280002A68121A0A2A04D84A6812F0010FDCD1FF
:103290004CE7D8F8340040F40030C8F8340005207A
:1032A000C8F830004AE700BF10B540F28814C2F2F7
:1032B000000420694C38042888BF10BDDFE800F006
:1032C000030F3443520041F2D8209FED510AC2F25D
:1032D000000090ED031A0C2021EE000A0CE041F2F0
:1032E0007830B4EE001AC2F2000090ED000A0D2012
:1032F000B8EEC00A20EE010A41F284310122BDEE8F
:10330000C01ABDEEC00A207284F82000C2F200018B
:1033100084ED051A10EE100A0A7041F28831042279
:10332000C2F200010A603FE041F2B830C2F2000090
:10333000006804F073FE9FED340B53EC102B04F087
:10334000A3FC0E221CE041F2C830C2F2000000686B
:1033500004F064FE9FED2C0B53EC102B04F094FC56
:103360000F220DE041F2B030C2F20000006804F01C
:1033700055FE9FED250B53EC102B04F085FC10221D
:1033800041F2843C0123227284F82020C2F2000C16
:103390008CF8003041F2883C0423C2F2000CCCF8D7
:1033A000003004F041FC60610028014648BF414202
:1033B000B0F1FF3F4FEA112284F8211084F8222057
:1033C0004FF0800242EA1142C8BF0A0C84F8232061
:1033D00003F06CFB40F25010C2F2000000F1340127
:1033E0000268006B0138022838BF02F114014FF463
:1033F0008022086838BF0122104308600020206145
:1034000010BD00BF00BF00BF0000000000408F40A3
:1034100083F9224443F20801C4F20101888008685C
:1034200010F0020F1BD196204FF6FF7C0B6813F0B3
:10343000020F18D1831E13EA0C0F12D00A6812F083
:10344000020F12D10A6812F0020F10D1043810EAEC
:103450000C0F06D00A6812F0020FE7D008E09620A1
:1034600006E0002004E0013802E0184600E00338DE
:103470000A6812F0800F1CD04FF6FF7C83B2012B3C
:1034800017D00A6812F0800F18BF022B11D00A68FB
:1034900012F0800F18BF032B0BD00A6812F0800FB8
:1034A00007D0043810EA0C0F03D00A6812F0800F1E
:1034B000E4D181B0486800900098086800900098B6
:1034C00001B0704780B581B043F2080C4FF6FF7E23
:1034D000C4F2010CACF804E0DCF8001011F0010FAC
:1034E0001DD19621DCF8002012F0010F1BD18A1E9D
:1034F00012EA0E0F15D0DCF8003013F0010F14D1D2
:10350000DCF8002012F0010F11D1043911EA0E0F7E
:1035100007D0DCF8002012F0010FE3D008E096217C
:1035200006E0002104E0013902E0114600E0033921
:10353000DCF804200280DCF8000010F0020F25D136
:103540004FF6FF704A1E02421DD0DCF8003013F027
:10355000020F1AD18A1E024215D0DCF8003013F097
:10356000020F12D1CA1E02420DD0DCF8003013F057
:10357000020F0AD10439014205D0DCF8002012F014
:10358000020FDFD002E0002100E01146DCF800006D
:1035900010F0800F1FD04FF6FF708BB2012B1AD0A6
:1035A000DCF8002012F0800F18BF022B13D0DCF8DB
:1035B000002012F0800F18BF032B0CD0DCF8002085
:1035C00012F0800F07D00439014204D0DCF800204B
:1035D00012F0800FE1D1DCF8040000900098DCF8D4
:1035E00000000090009801B080BD00BF70B540F2AF
:1035F000040640F20004C2F20006C2F20004306881
:1036000021680D1A40F2A3718D4238BF70BDA9B276
:1036100004F040F840F20433326840F6D421C2F29C
:103620000003C2F200019A4218BF19460028316017
:1036300021601FD044F64450C5F64170086047F23F
:103640004250C6F26660486047F26520C4F65F707B
:10365000886046F27650C6F27260C86046F66C70BA
:10366000C0F67750086101F1150020600A20087546
:10367000FFF7BCFFB5F5FA6F12D945F24F6120682C
:10368000C5F24521016044F6464181804F21817198
:1036900000F1080121605721C171BDE87040A5E724
:1036A00070BD00BF704700BFFEE700BFFEE700BF70
:1036B000FEE700BFFEE700BF704700BF704700BFD6
:1036C000704700BF41F27030C2F200000168013162
:1036D0000160704703F030BA03F02EBA80B540F2B3
:1036E000582CC2F2000CDCF800E0DEF80020DEF816
:1036F0000C30DEF8140012F00F0F4FD003F490716D
:1037000000F00100014364D0D1071FBF13F48071A2
:10371000DCF8441041F00101CCF84410510707D502
:1037200000281EBFDCF8441041F00201CCF8441020
:10373000910707D500281EBFDCF8441041F00401B2
:10374000CCF84410110707D500281EBFDCF8440050
:1037500040F00800CCF84400DCF84400002800F0F9
:103760001E8103EA0200800640F1E280DCF840009E
:10377000222840F0DD80DCF80800B0F5805F40F0E2
:103780008080DCF81020DCF82800DEF80410002A25
:1037900000F0A880C9B220F8011BA7E003EA0200EC
:1037A00010F0200F17D0DCF84000222840F0F780FE
:1037B000DCF80800B0F5805F53D1DCF81020DCF8AD
:1037C0002800DEF80410002A6BD0C9B220F8011BD3
:1037D0006BE003EA020001060CD4400658BF80BD2E
:1037E000DEF80C0020F04000CEF80C002020CCF8D1
:1037F0003C00D4E0DCF83C00212840F0D080DCF82C
:103800000810DCF82000B1F5805F0DD101886FF35E
:103810005F21CEF80410DCF81010002914BF01302D
:103820000230CCF8200005E0411CCCF820100078D4
:10383000CEF80400BCF826004FF6FF7101380842AC
:10384000ACF8260040F0AB80DEF80C0020F08000E1
:10385000CEF80C00DEF80C0040F04000CEF80C0072
:1038600080BDDCF81020DEF80400DCF82810002A07
:1038700001F10102CCF8282018BF00F07F00087089
:1038800015E0DCF81010DEF804000029DCF8281040
:1038900001F10102CCF8282018BF00F07F00087069
:1038A00026E06FF35F2120F8021BCCF82800BCF85B
:1038B0002E004FF6FF7101380842ACF82E006ED191
:1038C000DCF80000C16821F02001C160C16821F46A
:1038D0008071C160416921F0010141612020CCF873
:1038E000400080BD6FF35F2120F8021BCCF8280058
:1038F000BCF82E004FF6FF710138ACF82E000842DC
:10390000DCF800E014D1DEF80C0020F02000CEF846
:103910000C00DEF80C0020F48070CEF80C00DEF80D
:10392000140020F00100CEF814002020CCF8400054
:10393000DEF81400DCF8441000F0400001F008014B
:1039400008432DD0DEF80C0020F49070CEF80C0067
:10395000DEF8140020F00100CEF814002020CCF88E
:103960004000DEF8140010F0400F18D0DEF814000C
:1039700020F04000CEF81400DCF8340078B147F6AF
:103980001901C0F600014165816B02290CD10521A6
:1039900081630068016821F00101016080BD80BD84
:1039A0000020CCF8440080BD80218165BDE88040C6
:1039B00003F032BFF0B581B0002040F2A02448F2FD
:1039C000B5130821009040F21000C2F20004C1F6C5
:1039D0004E33C2F200000268D4E9176037688140B4
:1039E000A2FB032539420DD02268136813F0040F9F
:1039F00008D0136823F004031360B160A16D41F097
:103A00000101A16501218140394209D02268526932
:103A100012F0800F04D0B160A16D41F00201A165E8
:103A200004218140394209D02268126812F0020F45
:103A300004D0B160A16D41F00401A1651021814065
:103A400039421AD02068026812F0080F15D0B16010
:103A50000268016812F4802F06D1C9055EBF0168B3
:103A600021F00801016001E0080343D4616C21B139
:103A700040F2A020C2F200008847216E202000FA08
:103A800001F23A4246D02068036813F0100F41D08B
:103A9000B260A36B0268052B1ED122F016020260F1
:103AA000426922F080024261626CE36C1A431EBFDD
:103AB000026822F0080202603F208840B0600120C6
:103AC000A06300206063616D002962D040F2A020F5
:103AD000C2F2000088475CE0016852030ED4C905B9
:103AE00011D4016821F0100101600120A0630020C1
:103AF000606308E0E16C0029BAD1BEE7080302D494
:103B0000A16C11B906E0216C21B140F2A020C2F2F3
:103B100000008847A06DE0B3A06D10F0010F2FD01A
:103B20000521A80AA16321680A6822F001020A603F
:103B3000009A0132824200921ED80A6812F0010FE8
:103B40001AD0009A01328242009215D80A6812F007
:103B5000010F11D0009A0132824200920CD80A68FB
:103B600012F0010F08D0009A01328242009203D86D
:103B70000A6812F0010FDBD10120A063002060630E
:103B8000216D31B140F2A020C2F20000884701B09F
:103B9000F0BD01B0F0BD00BF2DE9F04F81B02DEDBB
:103BA0000C8B40F2081840F2C00A40F2780B9FEDEF
:103BB000DF3A9FEDDF2A41F2943741F29034C2F2AE
:103BC0000008C2F2000AC2F2000BC2F20007C2F201
:103BD0000004D8F80000B0EE435A90ED0F0AB8EE9A
:103BE000400ADAF8000090ED0F1AB8EE411ADBF83F
:103BF000000001EE425AB0EE431AC06B00EE421ACA
:103C000004EE100A41F29830B8EE444AC2F20000C5
:103C100087ED005A84ED001A04EE423A80ED003A36
:103C200001F044FF41F2B630C2F2000000780128F2
:103C300041F09E8441F2B430C2F2000000780138B5
:103C4000042801F29584DFE810F005008501520098
:103C50002802DB0040F20809C2F20009B9F80000AE
:103C60000130A9F8000080B20A2841F0668002F015
:103C700089F941F2803041F2EC3141F2F43241F203
:103C8000F833B2EE041AC2F20000C2F20001C2F22E
:103C90000002C2F2000390ED000A41F2D42091ED3F
:103CA000002A93ED004A92ED005AC2F2000020EE85
:103CB000016AB5EEC02A90ED003A24EE064A26EEDF
:103CC000055AF1EE10FA40F31484B5EEC03AF1EE65
:103CD00010FAC0F20E8433EE456AB4EEC26AF1EE19
:103CE00010FA80F2DB8533EE052A00F0B1BF40F216
:103CF0000C05C2F2000528880130288080B20A280D
:103D000040F0268202F03EF941F2743041F218414F
:103D10009FED881A41F21C42C2F20000C2F200017B
:103D2000C2F2000290ED000A41F21440C2F200001B
:103D3000B8EEC00A92ED002A20EE010A91ED001AB9
:103D400080ED000AB4EEC10AF1EE10FA06DAB4EE24
:103D5000C20AB0EE421AF1EE10FA03DCB0EE410AEC
:103D600080ED001A41F2783041F2204341F2803672
:103D70009FED712A41F2284241F2BC31B2EE045A61
:103D8000C2F20000C2F20003C2F20006C2F2000258
:103D9000C2F2000190ED001A41F22440C2F200008C
:103DA000B8EEC11A96ED003A93ED004A90ED006A24
:103DB00092ED007A41F2C03001EE020A91ED001A54
:103DC000C2F2000023EE053A30EE444A26EE002A05
:103DD00083ED000A84EE033A07EE032A80ED002A01
:103DE000B4EEC12AF1EE10FA80F2AE81B1EE411AC2
:103DF000B4EEC12AF1EE10FAD8BF80ED001AA5E1A9
:103E000002F0C0F841F2743441F218419FED492AA2
:103E100041F21C4241F21440C2F20004C2F200011D
:103E2000C2F20002C2F2000094ED000AB8EEC00A2D
:103E300092ED001A20EE026A91ED000A80ED006A10
:103E4000B4EEC06AF1EE10FA06DAB4EEC16AB0EE72
:103E5000410AF1EE10FA03DCB0EE406A80ED000A90
:103E600041F2783741F2204141F2803241F2244060
:103E70009FED312A41F22846B2EE041A41F2F8339E
:103E8000C2F20007C2F20001C2F20002C2F2000058
:103E9000C2F20006C2F2000397ED000AB8EEC03A83
:103EA00092ED000A91ED004A41F2F43296ED005A8B
:103EB00003EE026A90ED002A41F2D420C2F2000221
:103EC00036EE443A20EE017A93ED004AC2F2000049
:103ED000D2ED000A81ED006A41F2EC31C3EE071A1F
:103EE00022EE062A90ED003AC2F2000105EE212AE8
:103EF00081ED002AB5EEC02A24EE074A20EE875A4B
:103F0000F1EE10FA40F30681B5EEC03AF1EE10FA88
:103F1000C0F2008133EE456AB4EEC26AF1EE10FAE7
:103F200080F2418133EE052A00F0F4BC0000A54385
:103F30000000253EDB0F4939DB0F49B93ACD133F6D
:103F40003ACD933F610B363B00000044DB0F49BC88
:103F5000DB0F493C40F20A09C2F20009B9F800003F
:103F60000130A9F8000080B20A2841F0398102F03E
:103F700009F841F2743041F218411FED122A41F262
:103F80001C42C2F20000C2F20001C2F2000290ED37
:103F9000000A41F21440C2F20000B8EEC00A92EDED
:103FA000001A20EE026A91ED000A80ED006AB4EE7C
:103FB000C06AF1EE10FA06DAB4EEC16AB0EE410A58
:103FC000F1EE10FA03DCB0EE406A80ED000A41F237
:103FD000783041F2204141F280321FED292A41F22E
:103FE0002845B2EE041A41F2F833C2F20000C2F2E0
:103FF0000001C2F20002C2F20005C2F2000390ED1D
:10400000000A41F22440C2F20000B8EEC03A92ED3C
:10401000000A91ED004A41F2F43295ED005A03EEA8
:10402000026A90ED002A41F2D420C2F2000236EE7C
:10403000443A20EE017A93ED004AC2F20000D2ED3C
:10404000000A81ED006A41F2EC31C3EE071A22EE5C
:10405000062A90ED003AC2F2000105EE212A81ED18
:10406000002AB5EEC02A24EE074A20EE875AF1EE68
:1040700010FA40F34D82B5EEC03AF1EE10FAC0F2FC
:10408000478233EE456AB4EEC26AF1EE10FA80F26E
:104090000F8433EE052A01F02EB801F073FF41F2D0
:1040A000803041F2EC3141F2F43241F2F833B2EEB9
:1040B000041AC2F20000C2F20001C2F20002C2F20F
:1040C000000390ED000A41F2D42091ED002A93ED17
:1040D000004A92ED005AC2F2000020EE016AB5EEED
:1040E000C02A90ED003A24EE064A26EE055AF1EE7B
:1040F00010FA1CDDB5EEC03AF1EE10FA17DB33EE24
:10410000456AB4EEC26AF1EE10FA80F2118233EE23
:10411000052A16E2B5EEC02AF1EE10FA4DDDB5EE35
:10412000C03AF1EE10FA48DA33EE042AF2E3B5EEC3
:10413000C02AF1EE10FA4FDDB5EEC03AF1EE10FAFA
:104140004ADA33EE042AFCE180ED001A00202880D0
:1041500094ED000A41F2D8241FED881A41F2A430F0
:104160001FED893A97ED004AC2F20004C2F2000046
:1041700020EE012A94ED071A80ED000A41F2A830E2
:1041800004EE032AC2F20000B5EEC01A80ED002A48
:10419000F1EE10FA02DA2EDAA06A00E0606A03EEAD
:1041A000100A206229E033EE045AB4EEC25AF1EE4E
:1041B00010FAC8BF33EE442AACE3B5EEC02AF1EEE4
:1041C00010FA80F23183B5EEC03AF1EE10FAC0F287
:1041D0002B8333EE442A9DE3B5EEC02AF1EE10FAAC
:1041E00080F23E83B5EEC03AF1EE10FAC0F23883A9
:1041F00033EE442AA5E194ED083A41F2803094ED83
:10420000045A23EE011A1FEDB1BA1FEDB1DA48F2DC
:104210008017B8EE00CAB0EE089A1FEDB4AA1FEDE1
:10422000B48A41F2B035C2F20000C0F60007C2F213
:10423000000590ED004A21EE043A35EE031A21EE16
:104240000B1ABDEEC14AB5EEC01A14EE100AF1EE1B
:1042500010FAB8BF013804EE100AB8EEC44A31EEC5
:10426000441A21EE0D1ABDEEC14A14EE100A00F1F7
:1042700080016FF35F206FF35F2101EE900A07EB7F
:104280008101F8EE611A84ED0B3A91ED004A91ED4F
:10429000015A07EB800131EE611A41F2C03091ED15
:1042A000006A91ED017AC2F2000074EE040A75EE24
:1042B000443AF1EE462A75EE200A77EE464A73EE4E
:1042C000A35A63EE893A35EE045A72EEC72A16EE07
:1042D0000C7A52EE885A47EE0A3A74EEA46A60EEFF
:1042E0008A0A45EE813A55EE086A44EE890A23EEC1
:1042F000817A24EE085A46EE810A06EE487A00EEEC
:10430000815AD0ED000A41F2AC3007EE014A05EEC9
:10431000016AC2F2000026EE021A64EE021A04EEEE
:10432000001A46EE401A9FEDCB0A80ED001AC5ED4B
:10433000001A01F00FFA94ED040A94ED0B1A31EE15
:10434000000A20EE0B0ABDEEC01AB5EEC00A11EE4F
:10435000100AF1EE10FAB8BF013801EE100AB8EEFB
:10436000C11A30EE410A20EE0D0ABDEEC01A11EE60
:10437000100A00F180016FF35F206FF35F2107EBFC
:10438000800205EE100A41F2C83007EB810192ED80
:10439000001A92ED012AB8EE455AC2F2000091EDE2
:1043A000003A91ED014A30EE450A41F2C431B1EED6
:1043B000416A72EE412AC2F2000134EE437A73EE92
:1043C000030A36EE426A11EE0C2A77EE071A27EE40
:1043D000097A74EE200A56EE081A02EE0A7A20EEE6
:1043E0008A5A34EE032A32EEA24A01EE807A12EEA5
:1043F000084A02EE895A27EE002A04EE005A91ED8F
:10440000004A23EE086A01EE482A05EE006A02EE31
:10441000003A90ED002A06EE001A41F29C3023EE9D
:10442000040AC2F2000061EE040A01EE420A43EE01
:10443000020A80ED000A41F2A030C2F20000C0ED95
:10444000000A01F0B9F89FED841A95ED000A41F2D7
:10445000B83041F2BC24C2F20000C2F2000420EEE7
:10446000011A80ED001A2068411C002821601CD12F
:1044700010EE100A03F0D2FD9FED790B53EC102BD8
:1044800003F002FC0022226003F0CEFB40F20004A5
:1044900048F68C110246C2F20004C0F60001206802
:1044A000FBF750FF216808442060FFF79FF841F2B6
:1044B000C020C2F2000001684A1C0029026014D129
:1044C000002140F20004016041F27831C2F20004A0
:1044D000C2F2000120680A6848F69011C0F6000197
:1044E000FBF730FF216808442060FFF77FF801F0F8
:1044F0003FB8B5EEC02AF1EE10FA40F3E481B5EE14
:10450000C03AF1EE10FA80F2DE8133EE042A9FE326
:10451000B5EEC02AF1EE10FA40F3E481B5EEC03AF0
:10452000F1EE10FA80F2DE8133EE042A00F0E3BDF2
:1045300033EE045AB4EEC25AF1EE10FAC8BF33EEAD
:10454000442A80ED002A41F2F03041F2D824C2F230
:104550000000C2F2000490ED004A94ED033AB4EE7C
:10456000C42AF1EE10FA09DAB1EE444AB4EEC42AD4
:10457000F1EE10FAD8BFB0EE442A01E0B0EE442AC2
:1045800041F2004032EE432A41F2FC31C2F2000017
:1045900022EE014A9FED341AC2F2000190ED003A7A
:1045A00081ED002A04EE003A80ED003AB4EEC13A03
:1045B000F1EE10FA06DA9FED2D1AB4EEC13AF1EEE3
:1045C00010FA03DCB0EE413A80ED001A41F20442E9
:1045D00041F2104041F208419FED255A94ED066AE0
:1045E000C2F20002C2F20000C2F2000192ED001A13
:1045F00090ED004A91ED007A26EE055A41F20C400A
:10460000C2F2000022EE011A34EE052A03EE071A68
:1046100080ED001AB4EEC21AF1EE10FA06DA35EEA9
:10462000442AB4EEC21AF1EE10FA03DCB0EE421ADC
:1046300080ED002A94ED072AB5EEC02AF1EE10FABB
:1046400002DA1FDAA06A00E0606A03EE100A206254
:104650001AE000BF000000002E27863C00BF00BF0C
:104660000000000000408F40D253FB41D253FBC1F9
:10467000776CCC3A610B363BDB0F49BCDB0F493C16
:104680000000004494ED083A23EE022A94ED044A17
:104690001FED085A48F280125FED095AF8EE003A11
:1046A000F0EE084A5FED0B7A22EE002AC0F6000217
:1046B00034EE020A20EE050ABDEEC03AB5EEC00A9D
:1046C00013EE100AF1EE10FA1FED133AB8BF0138DD
:1046D00004EE100AB8EEC44A30EE440A20EE030A93
:1046E000BDEEC03A13EE100A00F180016FF35F20B7
:1046F0006FF35F2100EE900A02EB8101F8EE600A91
:1047000084ED0B2A91ED003A91ED014A02EB800114
:1047100030EE600A41F29C3091ED005A91ED016A51
:10472000C2F2000033EE037A74EE432A34EE077AC5
:10473000F1EE451A76EE456A32EEA28A62EEA42ABE
:1047400034EE034A71EEC61A15EE236A11EEA78AFB
:1047500046EE252A76EEA63A27EE257A48EE002A7E
:1047600054EE273A06EEA47A23EE274A03EE807A27
:1047700022EE806A07EE004A05EE676A04EE005AF0
:1047800006EE003A25EE410A63EE010A80ED000ACA
:1047900041F2A030C2F20000C0ED000A00F00CFFB0
:1047A00041F2C420C2F2000001684A1C00290260E4
:1047B00015D140F2000594ED060A0021C2F2000571
:1047C000016048F68C112868BDEEC00AC0F60001F1
:1047D00010EE102AFBF7B6FD296808442860FEF7A2
:1047E00005FF41F2C820C2F2000001684A1C0029FE
:1047F000026015D194ED050A40F200040021C2F2D6
:104800000004016048F690112068BDEEC00AC0F6B1
:10481000000110EE102AFBF795FD21680844206086
:10482000FEF7E4FE00F0A4BEB5EEC02AF1EE10FAE9
:1048300067DAB5EEC03AF1EE10FA62DA33EE446AA6
:10484000B4EEC26AF1EE10FAFFF66EAC33EE054A32
:10485000B4EEC24AF1EE10FAC8BF33EE452A59E071
:10486000B5EEC02AF1EE10FA80F2A481B5EEC03A9E
:10487000F1EE10FA80F29E8133EE446AB4EEC26A21
:10488000F1EE10FAFFF65DAC33EE054AB4EEC24A23
:10489000F1EE10FAC8BF33EE452A52E633EE045A61
:1048A000B4EEC25AF1EE10FAC8BF33EE442ACFE19B
:1048B00033EE045AB4EEC25AF1EE10FAC8BF33EE2A
:1048C000442A00F018BCB5EEC02AF1EE10FA80F2CE
:1048D0007C81B5EEC03AF1EE10FAC0F2768133EE8B
:1048E000442AB5E1B5EEC02AF1EE10FA80F28981D2
:1048F000B5EEC03AF1EE10FAC0F2838133EE442AED
:10490000F9E3B5EE402AB0EE432AF1EE10FA03D1F6
:104910001FEDB02A80ED002A41F2F030C2F2000013
:1049200090ED004A41F2D820C2F20000B4EEC42A51
:1049300090ED033AF1EE10FA09DAB1EE444AB4EE22
:10494000C42AF1EE10FAD8BFB0EE442A01E0B0EE6E
:10495000442A41F2004132EE432A41F2FC32C2F2D3
:10496000000122EE014A1FEDC01AC2F2000291EDD1
:10497000003A82ED002A04EE003A81ED003AB4EEEE
:10498000C13AF1EE10FA06DA1FEDC81AB4EEC13AD8
:10499000F1EE10FA03DCB0EE413A81ED001A41F27B
:1049A000044341F2104141F208421FEDCF5A90ED0D
:1049B000066AC2F20003C2F20001C2F2000293EDE5
:1049C000001A91ED004A92ED007A26EE055A41F266
:1049D0000C41C2F2000122EE011A34EE052A03EE68
:1049E000071A81ED001AB4EEC21AF1EE10FA06DAD7
:1049F00035EE442AB4EEC21AF1EE10FA03DCB0EE42
:104A0000421A81ED002A90ED072AB5EEC02AF1EE98
:104A100010FA02DA06DA816A00E0416A03EE101A3F
:104A2000016201E090ED083A23EE022A90ED044A7B
:104A30001FEDF05A48F280135FEDF15AF8EE003A9C
:104A4000F0EE084A5FEDF37A22EE002AC0F600038A
:104A500034EE020A20EE050ABDEEC03AB5EEC00AF9
:104A600013EE101AF1EE10FA9FEDC93AB8BF0139F2
:104A700004EE101AB8EEC44A30EE440A20EE030ADF
:104A8000BDEEC03A13EE101A01F180026FF35F2100
:104A90006FF35F2200EE901A03EB8202F8EE600AD9
:104AA00080ED0B2A41F29C3092ED003A92ED014AE2
:104AB00003EB810230EE600AC2F2000092ED005A70
:104AC00092ED016A33EE037A74EE432A34EE077AEC
:104AD000F1EE451A76EE456A32EEA28A62EEA42A1B
:104AE00034EE034A71EEC61A15EE236A11EEA78A58
:104AF00046EE252A76EEA63A27EE257A48EE002ADB
:104B000054EE273A06EEA47A23EE274A03EE807A83
:104B100022EE806A07EE004A05EE676A04EE005A4C
:104B200006EE003A25EE410A63EE010A80ED000A26
:104B300041F2A030C2F20000C0ED000A00F03CFDDE
:104B400041F2CC20C2F2000001684A1C0029026038
:104B500010D140F2000500212268C2F20005016078
:104B600048F68C112868C0F60001FBF7EBFB2968BA
:104B700008442860FEF73AFD41F2D020C2F200005E
:104B800001684A1C0029026010D140F20004002193
:104B90003A68C2F20004016048F690112068C0F63D
:104BA0000001FBF7CFFB216808442060FEF71EFDE3
:104BB00000F0DEBCB5EE402AB0EE432AF1EE10FA6A
:104BC0007FF4C1AC9FED732ABBE4B5EEC02AF1EED1
:104BD00010FA34DAB5EEC03AF1EE10FA2FDA33EE0D
:104BE000446AB4EEC26AF1EE10FAFFF68EAC33EE10
:104BF000054AB4EEC24AF1EE10FAC8BF33EE452AB8
:104C000026E0B5EEC02AF1EE10FA80F26B82B5EE26
:104C1000C03AF1EE10FA80F2658233EE446AB4EEE7
:104C2000C26AF1EE10FAFFF67FAC33EE054AB4EE3D
:104C3000C24AF1EE10FAC8BF33EE452A5BE2B5EE88
:104C4000402AB0EE432AF1EE10FA03D19FED512A2B
:104C500080ED002A41F2F030C2F2000090ED004AEF
:104C600041F2D820C2F20000B4EEC42A90ED033A1B
:104C7000F1EE10FA09DAB1EE444AB4EEC42AF1EECC
:104C800010FAD8BFB0EE442A01E0B0EE442A41F257
:104C9000004032EE432A41F2FC31C2F2000022EE23
:104CA000014A9FED3D1AC2F2000190ED003A81EDFC
:104CB000002A04EE003A80ED003AB4EEC13AF1EE7B
:104CC00010FA06DA9FED351AB4EEC13AF1EE10FA99
:104CD00003DCB0EE413A80ED001A41F2044241F2A9
:104CE000084141F2BC30C2F20002C2F20001C2F23D
:104CF000000092ED001A91ED004A90ED000A41F299
:104D0000C030C2F2000022EE011A03EE041A80ED58
:104D1000001AB4EEC01AF1EE10FA09DAB1EE400A48
:104D2000B4EEC01AF1EE10FAD8BF80ED000A01E02F
:104D300080ED000A0020A9F8000094ED000A41F27D
:104D4000D8249FED171A41F2A4309FED163A97ED43
:104D5000004AC2F20004C2F2000020EE012A94EDE3
:104D6000071A80ED000A41F2A83004EE032AC2F2CD
:104D70000000B5EEC01A80ED002AF1EE10FA02DA5A
:104D80001ADAA06A00E0606A03EE100A206215E0F9
:104D90000000004400000000D253FB41D253FBC18D
:104DA0003ACD133F3ACD933F610B363BDB0F49BC05
:104DB000DB0F493C2E27863C94ED083A41F28030C7
:104DC00094ED045A23EE011A1FED09BA1FED10DA13
:104DD00048F28015B8EE00CAB0EE089A1FED0DAA91
:104DE0001FED0D8A41F2B037C2F20000C0F6000597
:104DF000C2F2000790ED004A21EE043A35EE031AA4
:104E000021EE0B1ABDEEC14AB5EEC01A14EE100A1F
:104E1000F1EE10FAB8BF013804EE100AB8EEC44A39
:104E200031EE441A21EE0D1ABDEEC14A14EE100AFD
:104E300000F180016FF35F206FF35F2101EE900AB4
:104E400005EB8101F8EE611A84ED0B3A91ED004A11
:104E500091ED015A05EB800131EE611A41F2C0304B
:104E600091ED006A91ED017AC2F2000074EE040A3D
:104E700075EE443AF1EE462A75EE200A77EE464A80
:104E800073EEA35A63EE893A35EE045A72EEC72ADE
:104E900016EE0C7A52EE885A47EE0A3A74EEA46A7D
:104EA00060EE8A0A45EE813A55EE086A44EE890AB8
:104EB00023EE817A24EE085A46EE810A06EE487AFD
:104EC00000EE815AD0ED000A41F2AC3007EE014A03
:104ED00005EE016AC2F2000026EE021A64EE021A22
:104EE00004EE001A46EE401A1FED560A80ED001A35
:104EF000C7ED001A00F02EFC94ED040A94ED0B1A95
:104F000031EE000A20EE0B0ABDEEC01AB5EEC00A63
:104F100011EE100AF1EE10FAB8BF013801EE100AD6
:104F2000B8EEC11A30EE410A20EE0D0ABDEEC01AED
:104F300011EE100A00F180016FF35F206FF35F2123
:104F400005EB800205EE100A41F2C83005EB810145
:104F500092ED001A92ED012AB8EE455AC2F2000015
:104F600091ED003A91ED014A30EE450A41F2C4312B
:104F7000B1EE416A72EE412AC2F2000134EE437A88
:104F800073EE030A36EE426A11EE0C2A77EE071A28
:104F900027EE097A74EE200A56EE081A02EE0A7A13
:104FA00020EE8A5A34EE032A32EEA24A01EE807ACB
:104FB00012EE084A02EE895A27EE002A04EE005A41
:104FC00091ED004A23EE086A01EE482A05EE006AD8
:104FD00002EE003A90ED002A06EE001A41F29C30F3
:104FE00023EE040AC2F2000061EE040A01EE420A56
:104FF00043EE020A80ED000A41F2A030C2F2000046
:10500000C0ED000A00F0D8FA1FED960A97ED001ADD
:1050100041F2B830C2F2000021EE000A80ED000A31
:1050200041F2A420C2F2000001684A1C002902607B
:1050300015D194ED030A40F200040021C2F20004ED
:10504000016048F68C112068BDEEC00AC0F6000170
:1050500010EE102AFBF776F9216808442060FEF76D
:10506000C5FA41F2A820C2F2000001684A1C0029DA
:10507000026014D1002140F20004016040F2881166
:10508000C2F20004C2F2000120680A7A48F68C11CC
:10509000C0F60001FBF756F9216808442060FEF7CE
:1050A000A5FA41F2AC20C2F2000001684A1C0029B6
:1050B000026014D1002140F20004016040F2881126
:1050C000C2F20004C2F200012068CA6848F69011DA
:1050D000C0F60001FBF736F9216808442060FEF7AE
:1050E00085FA45E2B5EE402AB0EE432AF1EE10FA19
:1050F00003D11FEDD82A80ED002A41F2F030C2F230
:10510000000090ED004A41F2D820C2F20000B4EE57
:10511000C42A90ED033AF1EE10FA09DAB1EE444AEE
:10512000B4EEC42AF1EE10FAD8BFB0EE442A01E082
:10513000B0EE442A41F2004032EE432A41F2FC3103
:10514000C2F2000022EE014A1FEDED1AC2F2000188
:1051500090ED003A81ED002A04EE003A80ED003A2D
:10516000B4EEC13AF1EE10FA06DA1FEDF41AB4EE1D
:10517000C13AF1EE10FA03DCB0EE413A80ED001ACC
:1051800041F2044241F2084141F2BC30C2F2000255
:10519000C2F20001C2F2000092ED001A91ED004A45
:1051A00090ED000A41F2C030C2F2000022EE011A76
:1051B00003EE041A80ED001AB4EEC01AF1EE10FAF4
:1051C00009DAB1EE400AB4EEC01AF1EE10FAD8BF17
:1051D00080ED000A01E080ED000A0020A9F800003F
:1051E00094ED000A41F2D8249FEDF01A41F2A43068
:1051F0009FEDEF3A97ED004AC2F20004C2F20000C0
:1052000020EE012A94ED071A80ED000A41F2A83041
:1052100004EE032AC2F20000B5EEC01A80ED002AA7
:10522000F1EE10FA02DA06DAA06A00E0606A03EE34
:10523000100A206201E094ED083A41F2803094EDCA
:10524000045A23EE011A9FEDD5BA9FEDD5DA48F244
:105250008015B8EE00CAB0EE089A9FEDD2AA9FED75
:10526000D28A41F2C03941F2B037C2F20000C0F632
:105270000005C2F20009C2F2000790ED004A21EEDB
:10528000043A35EE031A21EE0B1ABDEEC14AB5EE13
:10529000C01A14EE100AF1EE10FAB8BF013804EE8D
:1052A000100AB8EEC44A31EE441A21EE0D1ABDEED2
:1052B000C14A14EE100A00F180016FF35F206FF312
:1052C0005F2101EE900A05EB8101F8EE611A84ED91
:1052D0000B3A91ED004A91ED015A05EB800131EE58
:1052E000611A41F2AC3091ED006A91ED017AC2F29F
:1052F000000074EE040A75EE443AF1EE462A75EEAB
:10530000200A77EE464A73EEA35A63EE893A35EEE9
:10531000045A72EEC72A16EE0C7A52EE885A47EEFD
:105320000A3A74EEA46A60EE8A0A45EE813A55EEB6
:10533000086A44EE890A23EE817A24EE085A46EE82
:10534000810A06EE487A00EE815AD9ED000A07EE8E
:10535000014A05EE016A26EE021A64EE021A04EE14
:10536000001A46EE401A9FED8C0A80ED001AC7ED38
:10537000001A00F0EFF994ED040A94ED0B1A31EEE7
:10538000000A20EE0B0ABDEEC01AB5EEC00A11EEFF
:10539000100AF1EE10FAB8BF013801EE100AB8EEAB
:1053A000C11A30EE410A20EE0D0ABDEEC01A11EE10
:1053B000100A00F180016FF35F206FF35F2105EBAE
:1053C000800205EE100A41F2C83005EB810192ED32
:1053D000001A92ED012AB8EE455AC2F2000091ED92
:1053E000003A91ED014A30EE450A41F2C431B1EE86
:1053F000416A72EE412AC2F2000134EE437A73EE42
:10540000030A36EE426A11EE0C2A77EE071A27EEEF
:10541000097A74EE200A56EE081A02EE0A7A20EE95
:105420008A5A34EE032A32EEA24A01EE807A12EE54
:10543000084A02EE895A27EE002A04EE005A91ED3E
:10544000004A23EE086A01EE482A05EE006A02EEE1
:10545000003A90ED002A06EE001A41F29C3023EE4D
:10546000040AC2F2000061EE040A01EE420A43EEB1
:10547000020A80ED000A41F2A030C2F20000C0ED45
:10548000000A00F099F89FED4B0A97ED001A41F2DF
:10549000B830C2F2000021EE000A80ED000A41F2AD
:1054A000B020C2F2000001684A1C0029026015D138
:1054B00094ED030A40F200040021C2F200040160EE
:1054C00048F68C112068BDEEC00AC0F6000110EE4F
:1054D000102AFAF737FF216808442060FEF786F8A3
:1054E00041F2B420C2F2000001684A1C00290260A7
:1054F00015D140F2000499ED000A0021C2F2000427
:10550000016048F68C112068BDEEC00AC0F60001AB
:1055100010EE102AFAF716FF216808442060FEF703
:1055200065F841F2B824C2F200042068411C00284A
:1055300021601BD1386802F071FD9FED150B53EC13
:10554000102B02F0A1FB0022226002F06DFB40F262
:10555000000448F690110246C2F20004C0F60001B1
:105560002068FAF7EFFE216808442060FEF73EF855
:10557000DBF800006FF004010160DAF80000016060
:10558000D8F800000160BDEC0C8B01B0BDE8F08FD5
:105590000000000000408F4000000000610B363B1F
:1055A00000000044DB0F49BCDB0F493C3ACD133F00
:1055B0003ACD933F2E27863C9FED5E3AB0EE602AAF
:1055C0009FED5D4AB6EE001AF5EEC00A0020F1EE3E
:1055D00010FA10EE032AB0EE603AC8BF012010EEB8
:1055E000043A22EE015A23EE010AB5EEC05AF1EE5A
:1055F00010FAB5EEC00AC8BF40F00200F1EE10FA92
:10560000C8BF40F00400411E05290BD8DFE801F0B7
:10561000030F18212A339FED4B4A23EE040A22EE92
:10562000042A2EE09FED452AB0EE420A29E09FEDC4
:10563000440A9FED442A20EE800A23EE022A20E04D
:105640009FED420A9FED403A20EE800A22EE032AA7
:1056500017E09FED3C0A9FED3A3A22EE000A20EE59
:10566000832A0EE09FED380A9FED382A23EE000AC8
:1056700020EE822A05E09FED344A22EE040A23EE52
:10568000042A9FED333A30EE024AB4EEC34AF1EEFB
:1056900010FA07DD80EE040A82EE042A20EE030AE7
:1056A00022EE032A10B533EE423A00F0070033EE43
:1056B000403A411E23EE011A0529BCEEC11A11EE33
:1056C00010CAB8EE411A32EE011ABCEEC11A11EE40
:1056D00010EAB8EE411A30EE010ABCEEC00A0BD84F
:1056E00010EE100A73466246DFE801F0030D1C114C
:1056F00015197246634615E041F2941241F2941373
:1057000041F294100EE00346624670460AE00246FB
:105710007346604606E002466346704602E0034672
:105720007246604640F23441C4F201018A604B6027
:10573000086010BDD7B3DD3FD7B3DDBF0000000068
:105740003861A2C3386122C3386122433861A24361
:1057500000A08C4541F2D43141F2803241F2E03375
:1057600041F2D83030EE411AB7EE005A30EEE10A7D
:10577000C2F20001C2F20002C2F20003C2F2000053
:1057800093ED002A92ED007A91ED004A41F2D03279
:1057900090ED003AC2F2000207EE014A85EE026A7D
:1057A00082ED000A41F2CC3207EE003AB4EEC64A6E
:1057B000C2F2000281ED004A80ED003AF1EE10FAEB
:1057C00082ED001A06DAB1EE466AB4EEC64AF1EE90
:1057D00010FA03DCB0EE464A81ED006A41F2E8318E
:1057E000C2F2000191ED006A85EE065AB4EEC53AA8
:1057F000F1EE10FA06DAB1EE455AB4EEC53AF1EE22
:1058000010FA03DCB0EE453A80ED005A70B52DED8C
:10581000028B41F2E43041F2DC3241F2D821DFED7B
:10582000400ADFED402A41F2C43641F2C835C2F2E7
:105830000000C2F20002C2F20001C2F20006C2F28F
:10584000000590ED005A41F2B03092ED007AD1EDB2
:10585000061AC2F2000021EE071A90ED007A20EE3F
:10586000055A21EEA00A04EE021A03EE065A00EED3
:10587000071A9FED2D0A01EEA25A86ED001A85ED5A
:10588000005AB4EEC01AF1EE10FA06DA9FED270ABC
:10589000B4EEC01AF1EE10FA03DCB0EE401A86ED59
:1058A000000A9FED238AB0EE480A01EE410A10EE8D
:1058B000100A02F0B3FB41EC100B02F029F951EC95
:1058C000100B02F07FF996ED000A044600EE408AC4
:1058D00018EE100A02F0A2FB41EC100B02F018F9CE
:1058E00051EC100B02F06EF995ED001A00EE104A23
:1058F000B4EEC01AF1EE10FA0DDA80F0004000EEBE
:10590000100AB4EEC01AF1EE10FAD8BF85ED000A05
:10591000BDEC028B70BD85ED000ABDEC028B70BD45
:1059200082A87BB7776CCC3AD8B35D41D8B35DC160
:105930000000404370B582B0182648F276144FF04C
:105940000040C4F20206C0F600043060204601F0B8
:1059500099FD4EF210054FF400403060CEF2000584
:1059600028680190019802202968C90300EBE170C2
:1059700078B12968C90300EBE17050B12968C90307
:1059800000EBE17028B12968C90300EBE170002841
:10599000EAD14FF000403060A01C01F073FD4FF4DD
:1059A0000040306028680190019802202968C903EE
:1059B00000EBE17078B12968C90300EBE17050B1E8
:1059C0002968C90300EBE17028B12968C90300EB1D
:1059D000E1700028EAD14FF000403060201D01F056
:1059E00051FD4FF40040306028680190019802207A
:1059F0002968C90300EBE17078B12968C90300EB9D
:105A0000E17050B12968C90300EBE17028B1296841
:105A1000C90300EBE1700028EAD14FF0004030608C
:105A2000A01D01F02FFD4FF4004030602868019068
:105A3000019802202968C90300EBE17078B1296858
:105A4000C90300EBE17050B12968C90300EBE170B4
:105A500028B12968C90300EBE1700028EAD14FF0B2
:105A60000040306004F1080001F00CFD4FF40040EC
:105A70003060286801900198022000BF2968C9039E
:105A800000EBE17078B12968C90300EBE17050B117
:105A90002968C90300EBE17028B12968C90300EB4C
:105AA000E1700028EAD102B070BD00BF2DE9F04FCF
:105AB00083B040F6184900254FF4802048F22108B1
:105AC000C4F20209ADF80450C9F8000048F2210000
:105AD000FDF7A0FC40F20047C4F20207386820F44A
