:020000040800F2
:100000004019002005030008512700085527000863
:10001000592700085D27000861270008000000003C
:10002000000000000000000000000000652700083C
:1000300069270008000000006D27000871270008EC
:100040001F0300081F0300081F0300081F03000808
:100050001F0300081F0300081F0300081F030008F8
:100060001F0300081F0300081F0300081F030008E8
:100070001F0300081F0300081F0300081F030008D8
:100080001F0300081F0300083D3600081F03000877
:10009000812700081F0300081F0300081F03000832
:1000A0001F0300081F0300081F0300081F030008A8
:1000B0001F0300081F0300081F0300081F03000898
:1000C0001F0300081F0300081F0300081F03000888
:1000D0001F030008953100081F0300081F030008D4
:1000E0001F0300081F0300081F0300081F03000868
:1000F0001F0300081F0300081F0300081F03000858
:100100001F0300081F0300081F0300081F03000847
:100110001F0300081F0300081F0300081F03000837
:100120001F0300081F0300081F0300081F03000827
:100130001F03000800000000000000001F0300086B
:100140001F0300081F0300081F0300081F03000807
:100150001F0300081F030008593400081F0300088C
:100160001F0300081F0300081F0300081F030008E7
:100170001F0300081F0300081F0300080000000001
:10018000000000001F030008000000000000000045
:100190001F03000800000000000000001F0300080B
:1001A0000000000000000000000000001F03000825
:1001B0001F0300081F0300081F0300081F03000897
:1001C0001F03000800F002F800F08DF80AA090E884
:1001D000000C82448344AAF10107DA4501D100F002
:1001E00082F8AFF2090EBAE80F0013F0010F18BF42
:1001F000FB1A43F001031847A8680000C868000014
:10020000103A24BF78C878C1FAD8520724BF30C842
:1002100030C144BF04680C60704700000023002414
:1002200000250026103A28BF78C1FBD8520728BF06
:1002300030C148BF0B6070476E2900F045817029BE
:1002400000F087826629AFF300806529AFF3008054
:100250006729AFF300806129AFF3008003681B0AB0
:1002600028BF41F08001692900F0F280642900F084
:10027000EF80752900F0EC806F2900F01582782955
:1002800000F05382E92900F0AF81E42900F0AC814D
:10029000F52900F0A981EF2900F01282F82900F079
:1002A00052820368DB0928BF41F08001632900F016
:1002B000CB83732900F0D083E32900F0DB83F3299B
:1002C00000F0E083002070471FB505F0D1FB00F07F
:1002D0003DFC04000020002105F06EFB401C606026
:1002E0001FBD10B510BD00F0F9FB1146FFF7ECFF84
:1002F00000F078FC00F020FC03B4FFF7F2FF03BC31
:1003000000F068FC0948804709480047FEE7FEE71F
:10031000FEE7FEE7FEE7FEE7FEE7FEE7FEE7FEE7B5
:1003200004480549054A064B70470000A5570008D8
:10033000C50100084013002040190020401500208E
:10034000401500200FB41CB5084B06AA7B44694633
:100350000090059800F0D1F804460020694600F0AE
:10036000DFF820461CBC5DF814FB0000D101000042
:1003700070477047704710B500F0BAFA006810BDBA
:1003800010B5044600F0B4FA046010BD70B5044620
:1003900085690068C10601D5302600E02026C00727
:1003A00007D070BDD4E9012130469047206A401C37
:1003B00020626D1EF6D570BD70B504468569007863
:1003C000C00707D170BDD4E9012120209047206AE1
:1003D000401C20626D1EF6D570BD09684A0501D526
:1003E00040B27047C905FCD500B2704709684A059C
:1003F00001D5C0B27047C905FCD580B2704770B551
:100400000C460546012A05D02878800600D5EA6901
:10041000002302E0012305E05B1C934202D2E05C72
:100420000028F9D1A869E618C01AA861286A1844FA
:1004300028622846FFF7AAFF04E0D5E9012114F855
:10044000010B9047B442F8D32846FFF7B5FF70BDC3
:100450002DE9F0410646002410687529314616A59D
:1004600010D0FFF7BAFF002802DA404213A507E0D8
:1004700031688A0701D512A502E0490704D511A504
:10048000012401E0FFF7B2FF00210A2206F1240750
:1004900009E0B0FBF2FCB0FBF2F302FB1C003030D1
:1004A00078541846491C0028F3D123462A46304682
:1004B000BDE8F04100F065BA000000002D0000002A
:1004C0002B0000002000000011680268006A53053C
:1004D00001D508700AE0D30501D5088006E01306AF
:1004E00003D5C217C1E9000200E00860012070478F
:1004F00001694A1C02610878704700B58FB0CDE9E8
:1005000001310021059105497944CDE903101146D7
:10051000684600F029F90FB000BD0000E5FFFFFFBD
:100520000A6802F8010B0A60704700002DE9FF5FBE
:1005300015468A460446DFF8AC80F8440027D8E91F
:1005400000103E46CDE9001010E05AF826106A4629
:1005500002A800F09BFA411C07D02178890603D538
:10056000E269391891420DD80744761C207880063C
:1005700002D5E069B84205DDAE42E6DB5AF8260056
:100580000028E2D1A069C01BA0612046FFF7FEFE53
:10059000D8E90010CDE90010002017E05AF8281023
:1005A0006A4602A800F072FAB0F1FF3F81460BD014
:1005B00000250DF1080B05E0D4E901211BF8050029
:1005C00090476D1C4D45F7D308F10100B0428046BD
:1005D000E4DB206A384420622046FFF7EDFEBDE8E8
:1005E000FF9F0000425600002DE9F0418046D21DD9
:1005F00022F007020025D2E90002F52915A614D041
:10060000011E72F1000106DA0023D0EB030063EB58
:10061000020211A608E0D8F800108B0701D50FA63A
:1006200002E0490701D50EA601251146002408F174
:10063000240704E000F060F930323A55641C50EAB7
:100640000102F7D12B46324621464046BDE8F04133
:1006500000F097B9000000002D0000002B00000002
:100660002000000030B4002100F1240408E002F072
:100670000705D208303542EA4372DB086554491C4D
:1006800052EA0305F3D10468002310A2250708D518
:1006900004F020040C4304D0C46901230CA2641E9E
:1006A000C46130BC00F06DB910B504462146106835
:1006B000FFF79CFE02462046BDE810400023D1E72C
:1006C000D21D22F00701D1E90023CBE70000000092
:1006D00030000000F0B40D460188090502D5214C18
:1006E0007C4402E01F4C7C440E34002100F12406BF
:1006F00008E002F00F071209E75D42EA03721B09E6
:100700007754491C52EA0307F3D1027800231207F9
:1007100004D5702D06D009B1022311342246F0BC55
:1007200000F02FB901231034F8E770B504460D46E8
:1007300021461068FFF75AFE024629462046BDE8CA
:1007400070400023C6E7D21D22F00703D3E900233F
:10075000C0E70368126843F0200303600823C36105
:100760000023B7E7A45400002DE9F05F8946044652
:100770004FF0000ADFF874B1FB44C0F820A0204617
:10078000E1688847002874D0252806D0D4E90121E3
:100790009047206A401C2062F1E700265F46204611
:1007A000E16888472028054607DB312D05D27819F6
:1007B00010F8200C08B10643F1E7B00701D526F088
:1007C0000406C4F81CA00027C4F818A02A2D09D0DC
:1007D000284605F0E9F838B304EB8708303DC8F83F
:1007E000185019E059F8041B204604EB8702916168
:1007F000E1688847012F054618D1E069002820DA12
:1008000026F020061DE0D8F8180000EB800005EB6C
:1008100040003038C8F818002046E168884705468F
:1008200005F0C2F80028EED1012F0AD02E2D08D1F4
:100830002046E16888477F1C0546022F46F02006C7
:10084000C4DBA069002803DA404246F00106A0613B
:10085000F00701D026F010066C2D0BD0682D09D0C2
:100860004C2D39D06A2D35D0742D35D07A2D33D01A
:1008700016E038E0E1682F4620468847B842054632
:1008800009D16C2F26D04FF48060E16806432046E2
:100890008847054604E06C2F1AD04FF48070064359
:1008A0000DB3A5F14100192802D8203546F40066A1
:1008B0004A462946204626604E46FFF7BDFC80B1D9
:1008C00001280BD0F61D26F0070000F1080956E7B5
:1008D0004020E4E78020D8E70020D6E706F10409AD
:1008E0004DE7284652E7206ABDE8F09F34540000E7
:1008F000004870471000002030B5B0F10A0271F1D5
:1009000000034FEA900E4EEA817EB0EB0E0061EBE1
:1009100091014FEA101E4EEA017E10EB0E0041EBF2
:1009200011114FEA102E4EEA016E10EB0E0041EB52
:1009300011214FEA104E4EEA014E10EB0E0041EB32
:100940001141401841F100014FEAD00040EA4170E6
:100950004FEAD1014FEA810444EA907410EB80051C
:1009600044EB01046D1944EB0404521BA3414FF006
:10097000000348BF0A3200D530BD401C41F10001E0
:1009800030BD2DE9F0470D4699469246044600F1E8
:1009900024080168880604D5E06921F0100121606F
:1009A00000E00120A84201DD471B00E00027A1690B
:1009B0007A1902EB0900081AA0612078C00602D457
:1009C0002046FFF7E3FC002608E0D4E901211AF8ED
:1009D00006009047206A401C761C20624E45F4DBDE
:1009E0002078C0060AD52046FFF7D0FC06E0D4E9FF
:1009F000012130209047206A401C2062381EA7F158
:100A00000107F4DC07E0D4E9012118F8050090475C
:100A1000206A401C2062281EA5F10105F3DC204657
:100A2000FFF7CAFC2078000602D50220BDE8F08757
:100A30000120FBE710B5436913B1AFF3008001E07B
:100A4000FFF7DDFC012010BD127800F124010A70CF
:100A500000224A700122EDE711684FF0FF32E9E70A
:100A600010B5436913B1AFF3008001E0FFF75EFDFD
:100A7000012010BD126800F124014262002282624E
:100A80000122EDE711684FF0FF32E9E72DE9F0416F
:100A900016460C46054600F047F8036893F8010136
:100AA000012807D0FF2C12D8185D80B101202C70CE
:100AB000BDE8F081D3F807013246214603F207135F
:100AC000C7182846BC46BDE8F041012360474FF0F7
:100AD000FF30EDE700487047100000207546FFF733
:100AE000F9FFAE4605006946534620F007008546EB
:100AF00018B020B5FFF714FCBDE820404FF0000609
:100B00004FF000074FF000084FF0000BAC46ACE888
:100B1000C009ACE8C009ACE8C009ACE8C00921F0E4
:100B200007018D467047000010B500F00FF8001D5A
:100B300010BD00BF854E000010B50446AFF3008025
:100B40002046BDE81040FFF7D7BB000000487047C3
:100B5000300000200000000030B44FF0013C50F89D
:100B6000042B51F8043BCCFA52F4D51A20D1FCB92D
:100B700050F8042B51F8043BCCFA52F4D51A17D193
:100B8000B4B950F8042B51F8043BCCFA52F4D51AFE
:100B90000ED16CB950F8042B51F8043BCCFA52F446
:100BA000D51A05D1002CDAD030BC4FF000007047C8
:100BB00029BAB1FA81F111F01801D1F12000844075
:100BC000F2D1CA40CB4012F0FF0213F0FF0330BC59
:100BD000D01A704701491820ABBEFEE7260002007C
:100BE000704700002DE9F04F91B041F2F82143F633
:100BF000080901204EF60C5540F2080644F6D35A77
:100C00004EF21008C2F20001C4F20209CEF2000551
:100C1000C2F20006C1F2620ACEF2000808704FF676
:100C2000FF01D9F8F80340F40070C9F8F803D9F8C7
:100C3000F80340F48060C9F8F803D9F8F80340F4E9
:100C40008070C9F8F8032868084040F20031C0F20B
:100C5000FA51084328603068A0FB0A014FF0FF30CA
:100C600000EB91110020B0EB116F0AD1C8F804100D
:100C7000F021E9750721C8F80800C8F800102968B4
:100C8000E875049043F60042D9F83C10C4F2000223
:100C900041F48041C9F83C10D9F83C1001F480417E
:100CA000049104990490D9F8381041F08051C9F8A2
:100CB0003810D9F8381001F080510491049904904B
:100CC000D9F8381041F08051C9F83810D9F83810E7
:100CD00001F080510491049904904FF45050115840
:100CE00041F440411150105800F4404004900498E1
:100CF000D9F8000000F00C00042846D0D9F8000014
:100D000000F00C00082804D159F8040C10F4800FEE
:100D10003BD1D9F8000000F00C000C2804D159F8A0
:100D2000040C10F4800F30D159F8080C40F48030D6
:100D300049F8080C41F2EC20C2F20000016859F8B1
:100D4000082C12F4003F22D10268521A642A00F2E1
:100D5000808059F8082C12F4003F18D10268521A0A
:100D6000642A76D859F8082C12F4003F0FD1026893
:100D7000521A642A6DD859F8082C12F4003F06D193
:100D80000268521A642ADAD963E059F8080CD9F8D3
:100D9000000000F00C0008285BD060210020C4F2A5
:100DA0004721086041F2EC20C2F20000026859F8C5
:100DB000083C13F0007F1FD003689B1A022B48D811
:100DC00059F8083C13F0007F16D003689B1A022BD9
:100DD0003FD859F8083C13F0007F0DD003689B1AE8
:100DE000022B36D859F8083C13F0007F04D0036872
:100DF0009B1A022BDBD92CE042F60452C2F24022AD
:100E000049F8042C01220A60016859F8082C12F0F4
:100E1000007F1ED10268521A032A1AD259F8082CF0
:100E200012F0007F15D10268521A022A11D859F81F
:100E3000082C12F0007F0CD10268521A022A08D83E
:100E400059F8082C12F0007F03D10268521A022AC6
:100E5000DBD90020402141F2EC2401220490C4F2AD
:100E60000E21C2F20004D9F8380040F08050C9F8D1
:100E70003800D9F8380000F08050049004980A60D7
:100E800047F204002368C4F20000076817F4803FAB
:100E900020D12768FF1AB7F57A7F41D8076817F481
:100EA000803F17D12768FF1AB7F57A7F38D80768CF
:100EB00017F4803F0ED12768FF1AB7F57A7F2FD835
:100EC000076817F4803F05D12768FF1AB7F57A7FC6
:100ED000DBD925E04A602168026812F4003F1FD187
:100EE0002268521AB2F57A7F1AD8026812F4003FCB
:100EF00016D12268521AB2F57A7F11D8026812F41C
:100F0000003F0DD12268521AB2F57A7F08D80268E4
:100F100012F4003F04D12268521AB2F57A7FDBD96D
:100F2000D9F8F80300F00F00042809D8052089F843
:100F3000F803D9F8F80300F00F00052840F0E3802B
:100F4000D9F8000040F4E050C9F80000D9F80000DA
:100F500040F46040C9F80000D9F8000020F0F0002B
:100F6000C9F8000059F8080C10F0007F00F0CB80A1
:100F7000D9F80000022161F30100C9F800002068DF
:100F8000D9F8001001F00C01082930D1D9F8F80384
:100F900000F00E00062809D3052089F8F803D9F8D7
:100FA000F80300F00F00052840F0AD80D9F80000EC
:100FB000052161F38C200421C9F80000D9F8000054
:100FC00061F34F30C9F80000D9F80000C0F3810187
:100FD00042F20040C0F2F400032947D0022932D087
:100FE000012904BF41F20020C0F27A006DE041F215
:100FF00088312268121A8A4200F28580D9F80020CE
:1010000002F00C02082AC1D02268121A8A427AD849
:10101000D9F8002002F00C02082AB7D02268121A70
:101020008A4270D8D9F8002002F00C02082AADD00C
:101030002268121A8A4266D8D9F8002002F00C02FF
:10104000082AD6D1A2E759F8041C59F8043C01F04B
:101050003F0259F8041C13F4800FC1F3881118D112
:10106000A1FB0001002304F0C8FB19E059F8041C9F
:1010700059F8043C01F03F0259F8041C13F4800FA6
:10108000C1F3881114D1A1FB0001002304F0B5FBCA
:1010900015E041F20020C0F27A004843B0FBF2F0C4
:1010A00059F8041C0222C1F3014102EB41010AE09C
:1010B00041F20020C0F27A004843B0FBF2F059F848
:1010C000041CC1F30271B0FBF1F0D9F800100FF667
:1010D0007862C1F30311515CC8403060A0FB0A0183
:1010E0004FF0FF3000EB91110020B0EB116F0AD1EF
:1010F000C8F80410F021E9750721C8F80800C8F8FD
:1011000000102968E8754FF0000A1824042204AE84
:101110004FF0010B0225CDF824A0C4F202043146A1
:10112000D9F82800A4F1180740F08000C9F8280079
:10113000D9F8280000F080000D900D98D9F828000B
:1011400040F00400C9F82800D9F8280000F0040095
:101150000D900D98D9F8280040F00100C9F828003A
:10116000D9F8280000F001000D900D98D9F828005A
:1011700040F00200C9F82800D9F8280000F0020069
:101180000D900D98D9F8280040F00800C9F8280003
:10119000D9F8280000F008000D900D984FF08070ED
:1011A00020604FF48000C4F800044FF40040206039
:1011B00040F61840C4F2020002604FF48070CDF88F
:1011C00014B004903846CDE906AA0895039703F0B9
:1011D00083FB4FF400403146CDE9040B06A880E8BC
:1011E000200C384603F078FB04203146CDE9040B8F
:1011F00006A880E8200C04F6E83003F06DFB04F547
:101200007A7440273146CDF814B020460497CDE9D2
:1012100006AA089503F060FB4FF480703146CDE9D3
:10122000040A2046CDF820B003F056FBCDF810A0FC
:1012300040F2204B44F2070202250326D9F8280089
:10124000C4F2010B40F48000C9F82800D9F8280046
:1012500000F48000049004984EF60C50CEF200008A
:1012600000684EF22540CEF2000080F821A0C8F8B8
:10127000F870CDE908AACDE906AACDE904AA04AF21
:10128000D9F83C0040F00200C9F83C00D9F83C0015
:1012900000F002000D900D985BF8200C5BF8081C24
:1012A00020F45C7040F040004BF8200C41F29410A8
:1012B000CBF80C00CBF808A0CBF810A05BF80C0C16
:1012C00040F001004BF80C0C5BF8180C90434BF805
:1012D000180CDBF8000020F00100CBF8000041F012
:1012E00008004BF8080CDBF800005BF81C1C5BF8EE
:1012F000082C21F4407120F00F004BF81C1C22F048
:10130000730141F060014BF8081CCBF814A0CBF836
:101310000000DBF8000020F01000CBF800004FF2D6
:10132000E870CFF6FF70014041F400614BF8081CF3
:10133000DBF800105BF81C2C5BF8083C22F44062E0
:1013400021F0F0014BF81C2C23F4E64242F4C04299
:101350004BF8082CCBF818A0CBF8001022F4B851A9
:101360004BF8081CDBF8001021F48071CBF800105A
:101370005BF8041C41F008014BF8041CDBF800107A
:101380005BF81C2C5BF8043C22F4405221F47061A1
:101390004BF81C2C23F0730242F060024BF8042C33
:1013A000CBF81CA0CBF800101040DBF8001040F484
:1013B000006021F48051CBF800104BF8040CDBF8EE
:1013C00000005BF81C1C5BF8042C21F4804120F425
:1013D00040504BF81C1C22F4E64141F2881241F4C3
:1013E000C0414BF8041CCBF82020CBF800005BF880
:1013F0001C0C20F070004BF81C0C5BF8180C20F053
:1014000080004BF8180C21F4B85039464BF8040C06
:101410004FF48040CBF82400D9F8280040F00100B8
:10142000C9F82800D9F8280000F001000D900D98A7
:10143000D9F8280040F00200C9F82800D9F828009F
:1014400000F002000D900D98D9F8280040F004003B
:10145000C9F82800D9F8280000F004000D900D9874
:10146000802004900595CDE9066ACDE908560398D9
:1014700003F032FA4FF4404004A981E861042046A9
:10148000394608950225099603F026FA4FF4E070D4
:1014900004A981E8610418203946CDE90856C4F250
:1014A000020000F5FD60029003F016FAD9F83C0046
:1014B00005A904AF052540F48050C9F83C00D9F8CF
:1014C0003C0000F4805004900498D9F8280040F0C3
:1014D0000200C9F82800D9F8280000F002000490A2
:1014E000049808200490022081E8410408902046D6
:1014F0003946099503F0F0F902203946059030206D
:101500000490069601262046CDE907A6099503F02A
:10151000E3F942F6E03143F204005BF80120C4F243
:10152000010012F0400F10D140F220424FF6BF737D
:10153000C4F20102174652589A4340F615331A4333
:101540007A50016821F004010160816940F2B01510
:1015500043F6004B4FF400620A272023C2F2000535
:10156000C4F2000B21F4006105F1180C81610168DF
:1015700021F0100101604FF482714FF40070C5E951
:1015800000B1C5E902A2C5E904A68CE80904C5E9D1
:1015900009AAEF626F6D5FB1002700244FF0000CC5
:1015A0004FF0010E5E4602970027019400973CE041
:1015B000002028650890CDE90600CDE904000D90D3
:1015C000D9F8381041F40041C9F83810D9F838106A
:1015D00001F400410D910D990D90D9F8281041F0BA
:1015E0000401C9F82810D9F8281001F004010D9160
:1015F0000D99022105914FF4E051049106900320CA
:1016000004A9079006200890029803F0F7FF286AC3
:101610000290D5E909A00190D5E90061D5E902C29F
:1016200028690090D5E905E0EB690227D94641EA2F
:101630000C0141F2EC246F651143C2F20004D6F8AC
:1016400000B02BF0400737600027009A114300F4E8
:10165000007241EA0E011143029A19434FF400232C
:101660001143019A114305223160042101EA10401F
:1016700040F26C1140EA0A00C2F200014FF0010A88
:101680007060F06920F40060F06109F52050AF65EA
:101690004FF4E00681E8850001F11400C1E903730D
:1016A00080E8C004C1E90877C1E90A77C5F854A009
:1016B00003F08EFC40F2204040F24C2B4FF46121AD
:1016C0000C22C4F20100C2F2000B00F53E608BE870
:1016D0008300CBE90377CBE90527CBF81C70DBF857
:1016E0003C1039B143F60805002100220023C4F262
:1016F0000205C2E043F60805CBF838700897CDE93B
:101700000677CDE904770D974FF0020904A9C4F2DA
:101710000205E86B40F01000E863E86B00F0100091
:101720000D900D980D97A86A40F00100A862A86A74
:1017300000F001000D900D98CDF814904FF4C060AA
:1017400004900320CDF818A0079007200890039874
:1017500003F054FF40F2942046F2B8414FF000628B
:1017600040234FF48066C2F20000C4F202014763D6
:1017700080E88E004FF40032C0E90467C0E90677C4
:10178000C0E908272268C0F838900B6823F00103ED
:101790000B600B6813F0010F31D14EF60C57CEF2EF
:1017A000000748F23F030A68CFF210031A4040F2E4
:1017B0004043C0F602031A4340F2FF330A604A690D
:1017C00022F007024A616FF00F0252FA81F2994348
:1017D0004AF6AB23CAF6AA235F2AA2FB032388BFDB
:1017E00041F004011A090FF64C439A5C3F23C0E90B
:1017F000171203FA02F28A600121002227E04EF656
:101800000C570168CEF2000723689B1A052B1CD8E1
:101810000B6813F0010FC4D023689B1A052B14D852
:101820000B6813F0010FBCD023689B1A052B0CD852
:101830000B6813F0010FB4D023689B1A052B04D852
:101840000B6813F0010FDFD1ABE703212022826583
:10185000CBF83000C0F83CB081634EF225433868C5
:10186000CEF20003002018702020C8F8F400DBE955
:101870000671DBF80000DBE902232426B1F5004FF6
:10188000CBF83C60C66826F40056C660066926F4AC
:10189000405643EA060349F20C660361C36823EA33
:1018A000060342EA0302DBE9043642EA030242EAA3
:1018B000060242EA0102C260426922F4407242EA30
:1018C000070242616AD141F2004240F48061C4F2F1
:1018D0000102914240F20801C2F2000140F0C880CA
:1018E0000A682968DBF8046046F67C29DA46AB46CC
:1018F0004FF0190EC0F6000902917600D5F800C02D
:101900002B68C3F34237CCF3423548F21F5319F822
:10191000077019F80550C5F2EB1322FA07F122FA05
:1019200005F501FB0EF105FB0EF5B1FBF6F1B5FB7C
:10193000F6F5A1FB03377B09642703FB1713691A2C
:1019400048F21F5719443223C5F2EB1703EBC101CC
:10195000A1FB07134FF4F87101EA1311029BC3F3C3
:10196000423319F8033022FA03F303FB0EF3B3FBFF
:10197000F6F3A3FB07374FF6F073C7F6FF7303EADE
:10198000570301EB030CDBF80030C3F34233DBF801
:10199000007019F80330C7F34237C6E041F2004245
:1019A00040F48061C4F20102914240F20801C2F2A7
:1019B000000140F0CA800A682968DBF8046046F636
:1019C0007C29DA46AB464FF0190EC0F600090291A9
:1019D000B600D5F800C02B68C3F34237CCF34235CC
:1019E00048F21F5319F8077019F80550C5F2EB13A8
:1019F00022FA07F122FA05F501FB0EF105FB0EF5BF
:101A0000B1FBF6F1B5FBF6F5A1FB03377B096427C3
:101A100003FB1713691A48F21F5719443223C5F202
:101A2000EB1703EB0111A1FB0713F02101EA53119E
:101A3000029BC3F3423319F8033022FA03F303FB8A
:101A40000EF3B3FBF6F3A3FB07374FF6F073C7F6BD
:101A5000FF7303EA570301EB030CDBF80030C3F319
:101A60004233DBF8007019F80330C7F34237C8E09F
:101A70000A682968DBF8046046F67C29DA46AB463A
:101A80004FF0190EC0F6000902917600D5F800C09B
:101A90002B68C3F38227CCF3822548F21F5319F831
:101AA000077019F80550C5F2EB1322FA07F122FA74
:101AB00005F501FB0EF105FB0EF5B1FBF6F1B5FBEB
:101AC000F6F5A1FB03377B09642703FB1713691A9B
:101AD00048F21F5719443223C5F2EB1703EBC1013B
:101AE000A1FB07134FF4F87101EA1311029BC3F332
:101AF000822319F8033022FA03F303FB0EF3B3FB3E
:101B0000F6F3A3FB07374FF6F073C7F6FF7303EA4C
:101B1000570301EB030CDBF80030C3F38223DBF83F
:101B2000007019F80330C7F3822722FA03F303FB8E
:101B30000EF3B3FBF6F319F80770FA40072702FB20
:101B40000EF2B2FBF6F203266AE00A682968DBF8B7
:101B5000046046F67C29DA46AB464FF0190EC0F613
:101B600000090291B600D5F800C02B68C3F38227A4
:101B7000CCF3822548F21F5319F8077019F8055065
:101B8000C5F2EB1322FA07F122FA05F501FB0EF17B
:101B900005FB0EF5B1FBF6F1B5FBF6F5A1FB03373E
:101BA0007B09642703FB1713691A48F21F5719446E
:101BB0003223C5F2EB1703EB0111A1FB0713F02150
:101BC00001EA5311029BC3F3822319F8033022FA6E
:101BD00003F303FB0EF3B3FBF6F3A3FB07374FF658
:101BE000F073C7F6FF7303EA570301EB030CDBF84E
:101BF0000030C3F38223DBF8007019F80330C7F319
:101C0000822722FA03F303FB0EF3B3FBF6F319F872
:101C10000770FA400F2702FB0EF2B2FBF6F2042621
:101C2000A3EB020E48F21F554FF0000940F2010BE2
:101C3000C5F2EB15C0F6007BA2FB0513590964231E
:101C400001FB13217144B1403231A1FB0512012582
:101C500007EA521140F2900741EA0C01C2F2000774
:101C60008160016921F490410161416921F02A01FB
:101C70004161C16841F40051C1602020CAF844901C
:101C80004FF40031CAF83C00CAF8400040F2204A44
:101C9000CDF84090C7F82090C7E90AB9C7F830904E
:101CA000C4F2010A0AF5DF5087E803023846C7E9A3
:101CB0000399C7E90559FD6102F0A4FE0B260DA9A1
:101CC0003846CDE90D65CDF83C9002F0C7FF4FF4E2
:101CD0008010CDE904650895CDF8189004A90C9002
:101CE0004FF460200B903846CDE90959CDF81C908F
:101CF00003F0C0F840F2D8070AF5E750CDF840905D
:101D00004FF4003AC2F20007C7F82090C7E90AB9B9
:101D1000C7F8309038604FF4003078603846C7E933
:101D20000299C7E90495C7E9069502F06BFE0C26F7
:101D30000DA93846CDE90D65CDF83C9002F08EFF37
:101D40004FF48010CDE904650895CDF8189004A9EA
:101D50000C904FF460200B903846CDE90959CDF82E
:101D60001C9003F087F840F2204040F22017CDF895
:101D70004090C4F20100C2F2000700F5EF50C7F82E
:101D80002090C7E90AB9C7F83090C7E9000A384679
:101D9000C7E90299C7E90495C7E9069502F032FE42
:101DA0000D260DA93846CDE90D65CDF83C9002F021
:101DB00055FF4FF48010CDE904650895CDF81890D3
:101DC00004A90C904FF460200B903846CDE90959D6
:101DD000CDF81C9003F04EF840F20C2A4FF08040F2
:101DE0004FF48041C2F2000ACAE90009CAE902912F
:101DF000CAF81090DAF83C1079BB43F60800CAF82C
:101E00003890CDF82090CDE90699CDE90499CDF828
:101E10003490C4F202000146806B40F001008863F8
:101E2000886B00F001000D900D98CDF83490886A11
:101E300040F001008862886A04A900F001000D905A
:101E40000D980220059003200490CDE9069908958D
:101E5000039803F0D3FBDAF80000022140F6FF32CA
:101E6000CAF83C10C4F200028168904221F00701D8
:101E70008160016813DC43F60046B0F1804FC4F284
:101E8000000621D040F20043C4F2000398421BD068
:101E900040F60003C4F20003984215D019E040F662
:101EA000004343F60046C4F20003C4F20006984221
:101EB0000AD040F20043C4F20103984204D0002348
:101EC000C4F20103984204D1DAF8083021F070011D
:101ED000194341F6FF73C4F2000398420DDC9042AF
:101EE0001FDCB0F1804F49D040F20042C4F2000242
:101EF000904243D040F6000221E043F6FF72C4F264
:101F00000102904228DC42F20002C4F20002904238
:101F100034D00022C4F2010290422FD040F200429D
:101F200028E040F60042C4F20002904226D041F67A
:101F30000002C4F20002904220D041F60042C4F2F6
:101F4000000290421AD01EE00000000000000000D5
:101F5000010203040607080944F20002C4F2010268
:101F600090420BD044F60002C4F20102904205D028
:101F700044F20042C4F20102904204D1DAF8102087
:101F800021F440711143016040F20042DAF80C1074
:101F9000C4F20102C162DAF80410816240F4806187
:101FA000914204BFDAF81410016301214161826893
:101FB0008369076A42F00302826040F2011262F311
:101FC0000F0327F0AA0283610262CAF83C10DAF814
:101FD0003820012A13D00222CAF83C20426822F09D
:101FE0007002426042684260826822F08002826031
:101FF000826882600020CAF83800CAF83C10D8F81D
:1020000000000490049840F2F51000BFD8F80010CA
:10201000C90300EBE17090B1D8F80010C90300EBE0
:10202000E17060B1D8F80010C90300EBE17030B185
:10203000D8F80010C90300EBE1700028E6D140F2A7
:10204000204142F6E030C4F201010A46095841F04D
:1020500040011150306840F04000306040F24C20A8
:102060001826C2F20000C4F202060068C16841F4FA
:102070000051C160106840F48050106052F8200C8C
:1020800040F0010042F8200C4020C6F8000420680F
:102090002168091A03290BD22168091A022907D8D5
:1020A0002168091A022903D82168091A0329EFD3E4
:1020B0004FF40040306020682168091A03290BD2D0
:1020C0002168091A022907D82168091A022903D8A8
:1020D0002168091A0329EFD302F0BEF94FF400403A
:1020E000306020682168091A03290BD22168091A77
:1020F000022907D82168091A022903D82168091A78
:102100000329EFD346F260254FF00040C0F60005EA
:102110003060284603F0A0F84FF400403060D8F853
:102120000000049004980220D8F80010C90300EBC6
:10213000E17090B1D8F80010C90300EBE17060B114
:10214000D8F80010C90300EBE17030B1D8F80010E6
:10215000C90300EBE1700028E6D14FF00040306089
:10216000A81C03F079F84FF400403060D8F8000064
:1021700004900498022000BFD8F80010C90300EBB7
:10218000E17090B1D8F80010C90300EBE17060B1C4
:10219000D8F80010C90300EBE17030B1D8F8001096
:1021A000C90300EBE1700028E6D14FF00040306039
:1021B000281D03F051F84FF400403060D8F80000BB
:1021C00004900498022000BFD8F80010C90300EB67
:1021D000E17090B1D8F80010C90300EBE17060B174
:1021E000D8F80010C90300EBE17030B1D8F8001046
:1021F000C90300EBE1700028E6D14FF000403060E9
:10220000A81D03F029F84FF400403060D8F8000012
:1022100004900498022000BFD8F80010C90300EB16
:10222000E17090B1D8F80010C90300EBE17060B123
:10223000D8F80010C90300EBE17030B1D8F80010F5
:10224000C90300EBE1700028E6D14FF00040306098
:1022500005F1080003F000F84FF400403060D8F8B2
:102260000000049004980220D8F80010C90300EB85
:10227000E17090B1D8F80010C90300EBE17060B1D3
:10228000D8F80010C90300EBE17030B1D8F80010A5
:10229000C90300EBE1700028E6D14FF00040306048
:1022A00005F10A0002F0D8FF4FF400403060D8F882
:1022B0000000049004980220D8F80010C90300EB35
:1022C000E17090B1D8F80010C90300EBE17060B183
:1022D000D8F80010C90300EBE17030B1D8F8001055
:1022E000C90300EBE1700028E6D102F0B5F802F076
:1022F000B3F802F0B1F802F0AFF802F0ADF840F236
:10230000204046F26662C4F20100C3F6E66201466E
:10231000006840F001000860086840F010000860A4
:10232000086840F480700860086840F004000860A5
:10233000086840F040000860086840F48060086069
:1023400051F8140C40F0010041F8140C41F2103027
:1023500045F2D231C2F20000C4F27B31016041F299
:10236000F4200221C2F20000017041F200304CF66C
:10237000CD41C2F20000C3F6CC51016041F20430FD
:10238000C2F20000016041F20830C2F200000260B7
:1023900041F20C30C2F20000016041F21430C2F28E
:1023A0000000016041F218304DF20A71C2F20000E3
:1023B000C3F62341016041F2F820C2F20000007828
:1023C000012835D140F2900440F2D80540F22016A1
:1023D000C2F20004C2F20005C2F200062068816861
:1023E00041F0010181602868816841F0010181604C
:1023F0003068816841F001018160284602F0C8FC24
:10240000304602F0C5FC204602F0C2FCA06B00681A
:10241000016821F018010160A86B0068016821F0D3
:1024200018010160B06B0068016821F018010160BB
:10243000FEE700BF000610160006101610B584B0A7
:1024400040F2681445F64F01C2F20004C4F20001E4
:102450002068884222DC45F24911C4F2000188421A
:1024600033D045F25511C4F2000188427CD141F2CB
:10247000B02145F2551041F2343201230190C2F2ED
:102480000001C2F2000289690091137041F23832F2
:10249000C2F200021370CDE902014CE045F6500192
:1024A000C4F20001884225D045F65601C4F200016D
:1024B000884259D141F224309FED2C0AC2F200002B
:1024C00090ED001A45F656001EE041F2B02041F2B0
:1024D00034310122C2F20000C2F2000190ED0A0A7A
:1024E00045F249100190BCEEC01A8DED001ABCEE09
:1024F000C00A17E041F224309FED1C0AC2F200002E
:1025000090ED001A45F6500021EE000A41F23431F8
:1025100001900122BDEEC01AC2F200018DED001A39
:10252000BDEEC00A0A7041F2383102908DED030A07
:10253000C2F200010A7002A802F044FE40F26C10E0
:10254000C2F20000016B012902D0016B022903D104
:1025500000680121143002E034304FF48021026819
:10256000114301600020206004B010BD83F9A24532
:1025700080B581B043F2080C4FF6FF7EC4F2010C27
:10258000CCF804E0DCF8001011F0010F1DD1962109
:10259000DCF8002012F0010F1BD18A1E12EA0E0F88
:1025A00015D0DCF8003013F0010F14D1DCF8002056
:1025B00012F0010F11D1043911EA0E0F07D0DCF827
:1025C000002012F0010FE3D008E0962106E0002180
:1025D00004E0013902E0114600E00339DCF8042090
:1025E0000280DCF8000010F0020F25D14FF6FF70DA
:1025F0004A1E02421DD0DCF8003013F0020F1AD13F
:102600008A1E024215D0DCF8003013F0020F12D1FE
:10261000CA1E02420DD0DCF8003013F0020F0AD1BE
:102620000439014205D0DCF8002012F0020FDFD09F
:1026300002E0002100E01146DCF8000010F0800FFD
:102640001FD04FF6FF708BB2012B1AD0DCF80020A0
:1026500012F0800F18BF022B13D0DCF8002012F00C
:10266000800F18BF032B0CD0DCF8002012F0800F75
:1026700007D00439014204D0DCF8002012F0800FAA
:10268000E1D1DCF8040000900098DCF80000009034
:10269000009801B080BD00BF70B540F2040640F262
:1026A0000004C2F20006C2F20004306821680D1A6C
:1026B00040F2A3718D4238BF70BDA9B202F0D6FEC0
:1026C00040F2F823326840F6C821C2F20003C2F299
:1026D00000019A4218BF19460028316021601FD0BE
:1026E00044F64450C5F64170086047F24250C6F2C5
:1026F0006660486047F26520C4F65F70886046F205
:102700007650C6F27260C86046F66C70C0F67750BC
:10271000086101F1150020600A200875FFF7BCFF71
:10272000B5F5FA6F12D945F24F612068C5F245211F
:10273000016044F6464181804F21817100F108011A
:1027400021605721C171BDE87040A5E770BD00BF91
:10275000704700BFFEE700BFFEE700BFFEE700BF17
:10276000FEE700BF704700BF704700BF704700BF63
:1027700041F2EC20C2F200000168013101607047B3
:102780002DE9F04F81B02DED028B88B040F26C1036
:10279000C2F20000006846694168029116F0010F1C
:1027A0008768C468016903918169009101D100259E
:1027B00046E0F90724D001218160B8071ED47807CC
:1027C0005ABF4FF4805000EA47254FF40065F805E2
:1027D00019D540F26C104FF48071C2F2000000680D
:1027E0008160B80525D478055ABF07F4006045EA32
:1027F000C00545F40055F80307D421E0FFF71EFE9D
:102800000025F805E5D4F8031AD540F26C104FF412
:102810008031C2F2000000688160B8030ED47803F2
:102820004FBF45F400454FF4803000EAD700054320
:1028300006E0FFF703FEF803E7D401E0FFF7FEFD33
:1028400040F26C173007C2F2000707D514F01000F1
:1028500004D03868102145F40075C16070070195F7
:1028600005D514F008001EBF38680821C160B00704
:1028700040F18C813868C16811F0030F00F0868147
:1028800041F228319FED460A45F2491445F65005BC
:1028900041F23C3A40F2A41B07F1340840F20339FC
:1028A000C2F20001C4F20004C4F20005C2F2000A40
:1028B000C2F2000B91ED001A21EE008A2AE040F2EC
:1028C0002040C4F201000146006820F001000860C9
:1028D000086820F010000860086820F48070086024
:1028E000086820F004000860086820F040000860D4
:1028F000086820F48060086051F8140C40F0010072
:1029000041F8140C41F210300021C2F200000160C5
:102910002EE100BF396B012902D0396B022945D164
:10292000014651F80C2F12F0030F3BD0D0F8B03114
:10293000D0F8B02113F0040F04BF520DCAF80020E4
:10294000D0F8B021D0F8B421D0F8B421D0F8B42117
:10295000D0F8B8218BF80020D0F8B821120A8BF8F3
:102960000120D0F8B821120C8BF80220D0F8B82141
:10297000120E8BF80320D0F8BC218BF80420D0F87D
:10298000BC21120A8BF80520D0F8BC21120C8BF860
:102990000620D0F8BC01000E8BF80700202008E0CC
:1029A00017B751384FF4001002E000BF4FF48020F9
:1029B00041460A6810430860DAF80000B0F5407F2D
:1029C00022D0484540F0D480DBF8000045F24F218A
:1029D00088422ADC44F6545188424BDD44F6555176
:1029E00088425ED044F64D71884265D0B0F5A24F62
:1029F00040F0BE809BED010A41F22430C2F200009B
:102A0000B8EEC00AB1E000BF45F64F01DBF80000A8
:102A1000C4F20001884214DCA0423CD045F25511BA
:102A2000C4F20001884217D0A2E045F25411C4F26A
:102A30000001884229DD45F25511C4F200018842A7
:102A40000AD0A84210D045F65601C4F200018842CF
:102A500040F08E80A81D01E004F10C0040F26811E6
:102A6000C2F20001086083E040F26810C2F2000088
:102A700005607DE044F2501188424CD044F241316F
:102A8000884208BFDBF8040072E045F2502188421A
:102A900048D0A0426CD140F26810C2F2000004603D
:102AA00066E0DBF80400022849D141F2F42002215B
:102AB000C2F2000001705BE0DBF8040001287FF443
:102AC000FEAE41F210300021C2F20000016040F27F
:102AD0002040C4F201000146006840F00100086097
:102AE000086840F010000860086840F480700860D2
:102AF000086840F004000860086840F04000086082
:102B0000086840F48060086051F8140C40F001003F
:102B100041F8140C2CE09BED010AB8EEC00AB1EEAE
:102B2000400A1EE041F224309BED010AC2F200008F
:102B300090ED001AB8EEC00A31EE400A11E0DBF861
:102B40000400032814D141F224300321C2F2000012
:102B500090ED000A41F2F420C2F2000038EE000AC3
:102B6000017041F21C30C2F2000080ED000A00BF8B
:102B7000FFF764FC386B012802D0386B022805D1BE
:102B80003868C16811F0030F7FF4C4AE70067BD5BE
:102B9000039ADDE9013912F0100004D038681021E1
:102BA00043F480630161B00605D512F008001EBF32
:102BB000386808210161F00644BF38680069B00335
:102BC00005D519F010001EBF386810214160F003D0
:102BD00005D519F008001EBF38680821416030048F
:102BE00027D55FEA497021D5009A06F4807002EA81
:102BF000102012F0020F40EA0300014618BF41F016
:102C0000020116F4007F08BF014612F0040F0B46C4
:102C100018BF43F0040316F4806F08BF0B4616F488
:102C2000006F18BF12F0700040F08F8138680421E7
:102C30004160002B00F09482786B40F20008432240
:102C4000C2F20008184346F68D2378634127C0F688
:102C50000003D8F80010481CC8F800000A700022D1
:102C60008E1877709F18BD7865B1B570FD7895B1F5
:102C7000F5703D798DB17F79043204303571002FC4
:102C8000EED18818013009E0039ADDE90139B00678
:102C90003FF58BAF8FE7023000E0033040F26C1459
:102CA000C8F80000C2F20004FFF7F6FCD8F8006094
:102CB000D4F834C0BCF1FF3F05DDBCF1000F00F0DB
:102CC000C080002204E02D20CCF1000C01223070E5
:102CD0004CF6CD49002503236FF006074FF00E0A8E
:102CE0006FF0050B4FF0000E0096CCF6CC4900BFFC
:102CF000CEF10E01CEF10F00C8460395029200F00E
:102D000003000329019101D2012124E003F003040F
:102D100001213D4604EB0509B9F1040F0ED0B9F1CC
:102D2000000F0ED019F1040210D000221035C6F6A3
:102D3000C17251436219082AECD10CE042F21072C0
:102D400008E04EF20012C0F2F55203E041F2000238
:102D5000CDF2A542514301284FF47A70C14608BF15
:102D60000A204843BCFBF0F0A0FB0814E10801EB8B
:102D70008101A0EB410028B1009E029A40F0300092
:102D800006E000BF039D009E029A012D03D1302072
:102D9000B05401320125BEF10E0F01D101202FE008
:102DA0000198039500F00208CEF10D00032801D22E
:102DB00001201FE00AF0020401205D466119042988
:102DC0000BD069B1043110D000211035C6F6C171A5
:102DD000484361190829F1D10CE042F2107108E072
:102DE0004EF20011C0F2F55103E041F20001CDF2C4
:102DF000A5414843B8F1000F039D1CBF642148431F
:102E0000BCFBF0F0A0FB0914E10801EB8101A0EB91
:102E1000410018B140F0300003E000BF012D03D1A4
:102E20003020B054013201250EF1020E0BF1020BDD
:102E3000AAF1020A02370233BEF1100F7FF458AF35
:102E400002E0302001223070B01840F2000701305B
:102E5000C2F2000738600A20B054FFF71DFC40F2B0
:102E6000AC1041F2111440F26C16C2F20000C0F234
:102E70001104C2F2000601884A1C642902800594EC
:102E8000756B049539D802310180306B022857D117
:102E90003068016841F00101016041F2EC21C2F2A9
:102EA00000010A68436813F0010F20D130680B68F5
:102EB0009B1A0B2B59D2436813F0010F17D10B68E3
:102EC0009B1A0A2B51D8436813F0010F0FD10B68DE
:102ED0009B1A0A2B49D8436813F0010F07D10B68DE
:102EE0009B1A0A2B41D8436813F0010FDFD0016809
:102EF00021F00201016001203CE040F22040C4F2D8
:102F00000100016821F001010160016821F0100158
:102F10000160016821F480710160016821F0040101
:102F20000160016821F040010160016821F48061C5
:102F3000016050F8141C41F0010140F8141CD5E068
:102F4000706B40F48010706315E01038000905289C
:102F500000F21A81DFE810F006000A010D011001ED
:102F60001301160143F008030EE1706B40F40030CA
:102F700070630520306345F650013068C4F20001EB
:102F800001F53B61884274D100214FF46150C4F2D5
:102F900002010A5822F000720A504FF610420868E7
:102FA000CFF6FF7220F440000860486A20F47040B9
:102FB0004862886820F440008860486820F4006017
:102FC0004860C86820F44000C86043F60040C4F27E
:102FD0000100835813F4704F13D1835823F47043C6
:102FE0008350026822F400620260426822F40062A8
:102FF0004260826822F400628260C26822F4006249
:10300000C2600A6822F040720A604A6A22F47022A2
:103010004A628A6822F040728A604A6822F48052CA
:103020004A60CA6822F04072CA604FF61441CFF677
:10303000FF71425812F00F0F13D1425822F00F02C5
:103040004250016821F480510160416821F48051AF
:103050004160816821F480518160C16821F4805110
:10306000C1604EF280104FF48011CEF2000001607A
:103070003068016841F400410160002070633063F2
:1030800001F0A6FF30681021C160316B012902D028
:10309000316B022902D11430022103E006F1340021
:1030A0004FF4802102681143016041F23430012164
:1030B000C2F20000017041F23830C2F2000001702B
:1030C00006A8CDE9064502F07DF8306B012802D054
:1030D000306B022803D130680121143003E006F17F
:1030E00034004FF4802102681143016040F204046F
:1030F0003968C2F200042068091A89B202F0B6F9F0
:1031000040F2F823226840F6C821C2F20003C2F25E
:1031100000019A4218BF19460028216039601FD06B
:1031200044F64450C5F64170086047F24250C6F27A
:103130006660486047F26520C4F65F70886046F2BA
:103140007650C6F27260C86046F66C70C0F6775072
:10315000086101F1150038600A200875FFF79CFA34
:1031600008B0BDEC028B01B0BDE8F08F43F0100356
:103170000AE043F0200307E043F0400304E043F09B
:10318000800301E043F480733868816921F07001A5
:1031900081614BE580B540F24C2CC2F2000CDCF8AA
:1031A00000E0DEF80020DEF80C30DEF8140012F04B
:1031B0000F0F4FD003F4907100F00100014364D071
:1031C000D1071FBF13F48071DCF8441041F00101F6
:1031D000CCF84410510707D500281EBFDCF8441076
:1031E00041F00201CCF84410910707D500281EBF1A
:1031F000DCF8441041F00401CCF84410110707D565
:1032000000281EBFDCF8440040F00800CCF8440061
:10321000DCF84400002800F0148103EA0200800674
:1032200040F1D880DCF84000222840F0D380DCF860
:103230000800B0F5805F40F08080DCF81020DCF8FA
:103240002800DEF80410002A00F0A480C9B220F89B
:10325000011BA3E003EA020010F0200F17D0DCF8F6
:103260004000222840F0ED80DCF80800B0F5805FD7
:1032700053D1DCF81020DCF82800DEF80410002A16
:103280006BD0C9B220F8011B6BE003EA0200010613
:103290000CD4400658BF80BDDEF80C0020F0400082
:1032A000CEF80C002020CCF83C00CAE0DCF83C0052
:1032B000212840F0C680DCF80810DCF82000B1F5C9
:1032C000805F0DD101886FF35F21CEF80410DCF828
:1032D0001010002914BF01300230CCF8200005E0A6
:1032E000411CCCF820100078CEF80400BCF8260071
:1032F0004FF6FF7101380842ACF8260040F0A1807B
:10330000DEF80C0020F08000CEF80C00DEF80C0097
:1033100040F04000CEF80C0080BDDCF81020DEF854
:103320000400DCF82810002A01F10102CCF8282062
:1033300018BF00F07F00087015E0DCF81010DEF810
:1033400004000029DCF8281001F10102CCF8282043
:1033500018BF00F07F00087022E06FF35F2120F8B3
:10336000021BCCF82800BCF82E004FF6FF71013884
:103370000842ACF82E0064D1DCF80000C16821F4EA
:103380009071C160416921F0010141612020CCF8B8
:10339000400080BD6FF35F2120F8021BCCF82800AD
:1033A000BCF82E004FF6FF710138ACF82E00084231
:1033B000DCF800E00ED1DEF80C0020F49070CEF8BE
:1033C0000C00DEF8140020F00100CEF814002020DC
:1033D000CCF84000DEF81400DCF8441000F04000A7
:1033E00001F0080108432DD0DEF80C0020F49070A5
:1033F000CEF80C00DEF8140020F00100CEF8140026
:103400002020CCF84000DEF8140010F0400F18D057
:10341000DEF8140020F04000CEF81400DCF8340090
:1034200078B145F2F151C0F600014165816B022986
:103430000CD1052181630068016821F00101016060
:1034400080BD80BD0020CCF8440080BD8021816516
:10345000BDE8804002F0CCB8F0B581B0002040F269
:10346000942448F2B5130821009040F20800C2F2FB
:103470000004C1F64E33C2F200000268D4E91760BE
:1034800037688140A2FB032539420DD022681368BA
:1034900013F0040F08D0136823F004031360B16025
:1034A000A16D41F00101A16501218140394209D09E
:1034B0002268526912F0800F04D0B160A16D41F012
:1034C0000201A16504218140394209D022681268B5
:1034D00012F0020F04D0B160A16D41F00401A165AA
:1034E0001021814039421AD02068026812F0080F7A
:1034F00015D0B1600268016812F4802F06D1C905A9
:103500005EBF016821F00801016001E0080343D4B7
:10351000616C21B140F29420C2F200008847216E14
:10352000202000FA01F23A4246D02068036813F0E6
:10353000100F41D0B260A36B0268052B1ED122F0A0
:1035400016020260426922F080024261626CE36C02
:103550001A431EBF026822F0080202603F20884022
:10356000B0600120A06300206063616D002962D01B
:1035700040F29420C2F2000088475CE001685203E8
:103580000ED4C90511D4016821F010010160012099
:10359000A0630020606308E0E16C0029BAD1BEE7B7
:1035A000080302D4A16C11B906E0216C21B140F2EC
:1035B0009420C2F200008847A06DE0B3A06D10F027
:1035C000010F2FD00521A80AA16321680A6822F003
:1035D00001020A60009A0132824200921ED80A68F3
:1035E00012F0010F1AD0009A01328242009215D8CF
:1035F0000A6812F0010F11D0009A01328242009243
:103600000CD80A6812F0010F08D0009A01328242E9
:10361000009203D80A6812F0010FDBD10120A063E9
:1036200000206063216D31B140F29420C2F20000AD
:10363000884701B0F0BD01B0F0BD00BF2DE9F047F3
:103640002DED108B40F2201840F2D80940F2900A7C
:103650009FED203A9FED202A41F2B027C2F20008E8
:10366000C2F20009C2F2000AC2F20007D8F8000054
:10367000B0EE435A90ED0F0AB8EE400AD9F80000B8
:1036800090ED0F1AB8EE411ADAF8000001EE025A76
:10369000B0EE431AC06B00EE021A04EE100AB8EE48
:1036A000444A87ED001A87ED015A04EE023A87ED8D
:1036B000023A00F08DFF41F2F420C2F200000078DF
:1036C000032800F25A83DFE810F015003802850263
:1036D000C60200BF00803BC30080BB3D610B363B90
:1036E00000000044DB0F49BCDB0F493C0000F0C286
:1036F0000000F04241F2F02541F22C361FED09DACC
:103700001FED09CA46F27824B8EE00BAB0EE089A66
:103710001FED0CAA1FED0C8AC2F20005C2F20006D2
:10372000C0F6000496ED000A95ED001A31EE000A8D
:1037300020EE0D0ABDEEC01AB5EEC00A11EE100A59
:10374000F1EE10FAB8BF013801EE100AB8EEC11A56
:1037500030EE410A20EE0C0ABDEEC01A11EE100A3E
:1037600000F180016FF35F206FF35F2106EE100A16
:1037700004EB8101B8EE466A91ED001A91ED012A41
:1037800004EB800130EE460A91ED003A91ED014ADA
:1037900031EE015A72EE410AB1EE437A32EE055A29
:1037A00074EE431A70EEA02A60EE890A32EE012A06
:1037B00037EE447A13EE0B4A57EE082A44EE0A0A13
:1037C00071EEA13A25EE0A5A42EE800A52EE083A0C
:1037D00001EE895A20EE804A21EE082A03EE805A33
:1037E00003EE484A05EE002AB9EE045A02EE003A0A
:1037F00004EE001AB1EE042A23EE050A61EE020A75
:1038000087ED030AC7ED040A00F0D4FA96ED000A2A
:1038100095ED001A1FED4B2A1FED4B4A31EE000AC1
:1038200020EE0D1A30EE022A30EE040ABDEEC13A47
:10383000B5EEC01A22EE0D2A20EE0D0A13EE100A84
:10384000F1EE10FABDEEC23AB5EEC02AB8BF0138AB
:1038500013EE101AF1EE10FABDEEC04AB5EEC00A32
:1038600003EE100A14EE100AB8EEC33AB8BF0139DD
:10387000F1EE10FA31EE431AB8BF013804EE101A17
:1038800003EE100A21EE0C5AB8EEC31AB8EEC43A91
:10389000BDEEC54A14EE100A30EE410A32EE431A6C
:1038A000034620EE0C7A21EE0C6A80306FF35F2322
:1038B000BDEEC70ABDEEC61A6FF35F2004EB8302AC
:1038C00004EB800010EE101A02EE903A92ED002AFE
:1038D000D2ED015A11EE102A90ED000AD0ED011A36
:1038E00008468031B8EE62EA02F180066FF35F228B
:1038F0006FF35F206FF35F2135EE4E5A6FF35F2653
:1039000004EB820530EE004AF1EE423A75EEC2AAAF
:1039100071EEC06A04EB800304EB810104EB8606C0
:1039200095ED003AD5ED014A71EE847A33EEE5FA71
:1039300071EE801AD3ED019A76EEA68A93ED004AD5
:1039400066EE896A52EE0B5A96ED001AD6ED010A20
:1039500067EE8A2A5FEE088A45EE8A6AB1EE43CAAC
:103960004AEE892AB0EE64EAB0EE69FAF1EE445A02
:1039700048EE856A13EE0BEA14EE0BFA30EEC1DA6C
:103980007CEE647A75EEE95A74EEC34A66EE856A97
:103990003DEE0DCA6DEE093A3AEEAADA42EE486AF9
:1039A00011EE88DA01EE902A17EE88CAD1ED017A7D
:1039B0004EEE0A3AF8EE611A4DEE052A0DEE100AA7
:1039C00041F2982076EE611A91ED006AB8EE4DDA78
:1039D000C2F2000037EE4D7A39EEC4DA4CEE213AED
:1039E000016834EEA4CA37EEC6BA2BEE09EA3BEE04
:1039F0000BBA4A1C002915EE88BA0FEE0AEA0260DB
:103A000077EE865A3DEE0DFA15EE88FA0BEE07EAD0
:103A100070EE815A26EE08BA15EE88CA71EE015A88
:103A200070EEA50A60EE085A06EE850A42EE855A47
:103A300060EE8A0A63EEA12AD7ED003A05EE852AE8
:103A400044EE890A43EE482A4CEE210A76EE064AF5
:103A500022EE232A20EE230A77EEA44A61EE087AAA
:103A600002EEA11A40EEA17A64EE8A4A6EEE070ACF
:103A700097ED02AA07EEA13A4DEE094A97ED019A99
:103A800044EE480A4FEE074A00EE876A04EE87BA12
:103A900001EE090A03EE092A9FEDC43A0BEE074A2C
:103AA00006EE0A0A04EE0A2A22EE031A20EE030AA0
:103AB00087ED091A87ED0A0A17D19FEDBD0A40F27A
:103AC00000040021C2F2000422EE000ABDEEC00A8A
:103AD000016046F68421206810EE102AC0F600012D
:103AE000FCF730FC216808442060FEF7D5FD41F268
:103AF0009C20C2F2000001684A1C0029026019D112
:103B00009FEDA90A97ED0A1A40F200040021C2F2C3
:103B1000000421EE000ABDEEC00A016046F68821CD
:103B2000206810EE102AC0F60001FCF70BFC21689B
:103B300008442060FEF7B0FD1FE100F009FA41F2F1
:103B4000A020C2F2000001684A1C0029026019D1BD
:103B50009FED950A97ED091A40F200040021C2F288
:103B6000000421EE000ABDEEC00A016046F6842181
:103B7000206810EE102AC0F60001FCF7E3FB216874
:103B800008442060FEF788FD41F2A420C2F2000044
:103B900001684A1C0029026019D19FED830A97ED44
:103BA0000A1A40F200040021C2F2000421EE000AC9
:103BB000BDEEC00A016046F68821206810EE102A8A
:103BC000C0F60001FCF7BEFB216808442060FEF748
:103BD00063FDD2E041F2143041F2103141F228325B
:103BE0009FED704AC2F20000C2F20001C2F2000270
:103BF00091ED002A41F2183192ED000A90ED003A61
:103C000041F2E420C2F20001C2F2000032EE402A8A
:103C100091ED005A90ED001A9FED600A41F2FC21EF
:103C200023EE023AC2F2000101EE053A02EE041A56
:103C300080ED001AB4EEC01A81ED003AF1EE10FAF0
:103C400048DA9FED570AB4EEC01AF1EE10FAD8BF69
:103C500080ED000A40E041F2E42041F2183341F2E5
:103C6000283241F214319FED4C2AC2F20000C2F218
:103C70000003C2F20002C2F2000193ED001A90EDBF
:103C8000000A92ED003A91ED004A41F21031002213
:103C9000C2F2000120EE015A9FED401A03EE020A23
:103CA0000A6041F2FC2103EE445AC2F2000180EDA9
:103CB000000AB4EEC10A81ED005AF1EE10FA58DAAA
:103CC0009FED371AB4EEC10AF1EE10FAD8BF80EDBD
:103CD000001A50E080ED000A00F03AF941F2A82005
:103CE000C2F2000001684A1C0029026019D19FED50
:103CF0002E0A97ED091A40F200040021C2F20004D6
:103D000021EE000ABDEEC00A016046F6842120685B
:103D100010EE102AC0F60001FCF714FB21680844DD
:103D20002060FEF7B9FC41F2AC20C2F2000001684D
:103D30004A1C0029026019D19FED1B0A97ED0A1A4F
:103D400040F200040021C2F2000421EE000ABDEEA0
:103D5000C00A016046F68821206810EE102AC0F6DD
:103D60000001FCF7EFFA216808442060FEF794FC9C
:103D700003E080ED001A00F0EBF8DAF800006FF0D5
:103D800004010160D9F800000160D8F8000001606A
:103D9000BDEC108BBDE8F08717B751B8D2537B420A
:103DA000D2537BC217B7513800007A44ABAA2A3FDE
:103DB000ABAA26449FED5E3AB0EE602A9FED5D4AC5
:103DC000B6EE001AF5EEC00A0020F1EE10FA10EE81
:103DD000032AB0EE603AC8BF012010EE043A22EE8A
:103DE000015A23EE010AB5EEC05AF1EE10FAB5EE13
:103DF000C00AC8BF40F00200F1EE10FAC8BF40F0A0
:103E00000400411E05290BD8DFE801F0030F18213B
:103E10002A339FED4B4A23EE040A22EE042A2EE0B9
:103E20009FED452AB0EE420A29E09FED440A9FED3E
:103E3000442A20EE800A23EE022A20E09FED420A67
:103E40009FED403A20EE800A22EE032A17E09FED14
:103E50003C0A9FED3A3A22EE000A20EE832A0EE059
:103E60009FED380A9FED382A23EE000A20EE822AC1
:103E700005E09FED344A22EE040A23EE042A9FED6A
:103E8000333A30EE024AB4EEC34AF1EE10FA07DDDF
:103E900080EE040A82EE042A20EE030A22EE032AB0
:103EA00010B533EE423A00F0070033EE403A411EBF
:103EB00023EE011A0529BCEEC11A11EE10CAB8EEA4
:103EC000411A32EE011ABCEEC11A11EE10EAB8EE38
:103ED000411A30EE010ABCEEC00A0BD810EE100AEF
:103EE00073466246DFE801F0030D1C111519724696
:103EF000634615E041F2941241F2941341F294109A
:103F00000EE00346624670460AE00246734660468B
:103F100006E002466346704602E00346724660468B
:103F200040F23441C4F201018A604B60086010BD68
:103F3000D7B3DD3FD7B3DDBF0000000073E29BC302
:103F400073E21BC373E21B4373E29B4300A08C45E7
:103F5000F0B581B02DED108B41F22C3C9FEDE80ABD
:103F60009FEDE81A46F2782741F2B02EC2F2000C1B
:103F7000C0F60007C2F2000E9CED005A25EE002AA2
:103F80009FEDE10ABDEEC23AB5EEC02A32EE011A4B
:103F900013EE100A32EE003ABDEEC10AF1EE10FA4D
:103FA000B5EEC01ABDEEC34AB8BF0138F1EE10FA43
:103FB00010EE101AB5EEC03AB8BF013914EE102A4F
:103FC000F1EE10FA06EE100AB8BF013A04EE101A2C
:103FD00000EE102AB8EEC07AB8EEC44A9FEDCB0AC4
:103FE000B8EEC66A31EE441A33EE473A32EE462A4C
:103FF000B8EE004A23EE00AA61EE006A62EE004AC3
:10400000BDEECA1ABDEEE62ABDEEE43A12EE100A83
:1040100013EE104A11EE102AB0EE082A9FEDBC3ABA
:1040200000F1800304F180056FF35F246FF35F20DC
:104030006FF35F236FF35F2507EB840601EE104AF1
:1040400007EB80010CEE100A41F2083407EB830302
:1040500007EB850596ED007AD6ED015AF8EE418A18
:104060009FEDF41A91ED006A91ED01DAB8EE4CCAB9
:10407000C2F20004D3ED002A93ED019AD5ED001AA7
:10408000D5ED013A02F180036FF35F2274EEE84A46
:1040900076EECC6A41F2FC25F1EE477A6FF35F23AE
:1040A00007EB8201B1EE46EAF0EE4DCAC2F200051E
:1040B00039EE62FA33EEE1BA07EB830077EEE57A88
:1040C000D1ED000A91ED018A3EEE4DEA56EE04CAAA
:1040D00041F2E0233DEE46DA41F200317FEE0FAAD5
:1040E0006FEE02BAB0EE65FA7BEE0B9A2BEE02BAD7
:1040F00075EEC75AC2F20003C2F2000117EE04FACD
:1041000057EE819AD0ED007AF1EE608AF0EE48DA4F
:104110005EEE01AA0EEE102A4CEE83BA41F2DC22CA
:104120000FEE03BA90ED01FA78EEC88AB8EE4EEAC7
:1041300050EE84DA4AEEA6BA41F20430C2F200022E
:1041400009EEA4BAC2F200006BEEA69A3AEE4EAAAD
:104150009EED00EAF0EE61BA3FEE67CA46EE419A84
:104160006CEE02CA3CEE0CCA18EE81CA4DEE83CA50
:104170006BEE248A4CEE0ACA9EED01CA9EED02BA8D
:1041800047EE418A48EEA4BAF0EE628A6CEE8AAA43
:104190007DEE0DCA49EEA68A40EEC1AA6BEE8E9A5C
:1041A00079EE22BA5BEE81CA48EE8C9A72EEA2BA20
:1041B00062EE812A39EE2B9A75EEA5BA29EE039AA2
:1041C0000DEE029A33EEA1DA0CEEA69A5DEE01BA7C
:1041D00049EE262A31EEA1DA61EE811A02EEA66AD4
:1041E000D1ED002A73EE8D3A63EE833A45EE823AC2
:1041F00078EE605A3FEE278A4BEEA43A35EEA5DA08
:1042000043EEA41A18EE01DA01EEA47AD5ED001AF5
:1042100037EEA78A67EE813A4AEE8A7A3FEE088A3D
:1042200067EE0E6A90ED007A41F20C3047EE8B9A01
:1042300046EE0C6AC2F2000028EE038A94ED006A92
:1042400005EE828ADFED7C5A0DEE0A8A48EE0A3AC4
:104250009FED7A8A69EEA57A43EE8A0AD2ED003A9A
:104260009FED77AA31EEE79AD0ED001A41F2F020E7
:1042700040EE8B6AD3ED000A9FED72BA25EE088AF4
:10428000C2F2000026EE096A66EEA54A23EE877A9E
:1042900046EE8A3AF0EE045A80ED008AB0EE605A9B
:1042A000F4EEE53ACEED094ACEED0A7AC2ED003AD7
:1042B00009EE0B5AF1EE10FA83ED005A09DAF8EE26
:1042C000045AF4EEE53AF1EE10FAD8BFC2ED005A06
:1042D00001E0C2ED005A00EEA16AF0EE040A04EE1D
:1042E000E27AB4EEE05AF1EE10FA13DAF8EE040ACC
:1042F000B4EEE05AF1EE10FAD8BFC3ED000A0BE0BD
:10430000E00E363BABAAAABEABAAAA3E0000004410
:10431000DB0F49BCC3ED000A9CED005AD0ED000A4A
:10432000DFED491A30EE855A25EE215AFDEEC50A19
:10433000B5EEC05A10EE900AF1EE10FAB8BF01388F
:1043400000EE900AF8EEE00A35EE605A25EE000A1B
:10435000BDEEC05A15EE100A00F180016FF35F2028
:104360006FF35F2107EB800203EE900A41F23030D9
:1043700007EB810192ED005AD2ED010AF8EE633AA3
:10438000C2F20000D1ED001AD1ED012A30EE630A2D
:10439000D0ED003AF1EE454A30EEC58A72EEE15AB0
:1043A00071EEA16A74EEE04A55EE040A75EEA57A44
:1043B00065EE825A32EEA64A40EE835A54EE817A76
:1043C00024EE033A72EEA10A78EE082A9FED1F4A06
:1043D00047EE805A50EE812A08EE023A9FED1C2AE1
:1043E00065EE800A61EE814A02EE803A45EE410AAE
:1043F00043EE004A40EE801A04EE805A27EE044A4B
:104400009FED147A26EE021A24EE232A03EE871A71
:1044100021EE820A65EE020A05EE410A41EE810AAA
:104420008EED030ACEED040ABDEC108B01B0BDE8A1
:10443000F040BFE4DB0F493CABAA2A3F51499D380D
:1044400065CF0BB817B75138610B363B8BE16AB7B4
:10445000E3A59B3C964DA13A70B582B0182646F272
:104460006C244FF00040C4F20206C0F60004306035
:10447000204600F0F1FE4EF210054FF4004030608F
:10448000CEF2000528680190019802202968C9032E
:1044900000EBE17078B12968C90300EBE17050B11D
:1044A0002968C90300EBE17028B12968C90300EB52
:1044B000E1700028EAD14FF000403060A01C00F00D
:1044C000CBFE4FF400403060286801900198022034
:1044D0002968C90300EBE17078B12968C90300EBD2
:1044E000E17050B12968C90300EBE17028B1296877
:1044F000C90300EBE1700028EAD14FF000403060C2
:10450000201D00F0A9FE4FF40040306028680190A3
:10451000019802202968C90300EBE17078B129688D
:10452000C90300EBE17050B12968C90300EBE170E9
:1045300028B12968C90300EBE1700028EAD14FF0E7
:1045400000403060A01D00F087FE4FF40040306056
:1045500028680190019802202968C90300EBE170E6
:1045600078B12968C90300EBE17050B12968C9032B
:1045700000EBE17028B12968C90300EBE170002865
:10458000EAD14FF00040306004F1080000F064FE12
:104590004FF400403060286801900198022000BF6D
:1045A0002968C90300EBE17078B12968C90300EB01
:1045B000E17050B12968C90300EBE17028B12968A6
:1045C000C90300EBE1700028EAD102B070BD00BF62
:1045D0002DE9F04F81B02DED028B82B0002040F626
:1045E000184448F22101ADF80200ADF80000C4F211
:1045F00002044FF48020206043F20800C4F201005E
:104600004160016811F0020F19D196214FF6FF7237
:10461000036813F0020F16D18B1E134211D00768E6
:1046200017F0020F11D1036813F0020F0FD10439F4
:10463000114206D0036813F0020FE9D008E096217A
:1046400006E0002104E0013902E0194600E00339E8
:10465000026812F0800F1BD04FF6FF728BB2012B55
:1046600016D0076817F0800F18BF022B10D007680C
:1046700017F0800F18BF032B0AD0036813F0800FC8
:1046800006D00439114203D0036813F0800FE5D13E
:10469000416840F20045C4F20205019101990068A9
:1046A00001900198286820F44060286028682860FC
:1046B0000DF10200FDF75CFF6846FDF759FF04208D
:1046C00041F2E8219FED7B1A41F220389FED7A4AB2
:1046D0002060C2F20001C2F20008286820F44060A5
:1046E0002860286840F400602860BDF802006FF37D
:1046F000DF3000EE100AB8EE400A91ED002AA8F86B
:10470000000041F2243020EE013AC2F2000033EE04
:10471000421A80ED003A81ED003AB4EEC41AF1EE8F
:1047200010FA02DD9FED672A08E09FED642AB4EEDF
:10473000C21AF1EE10FA03DA9FED612A31EE021A85
:1047400040F2700440F2740940F28C059FED5E2A3D
:104750004AF6AB2A9FED5D8A41F2283BDFED5C0A09
:10476000C2F20004C2F20009C2F20005CAF6AA2A87
:10477000C2F2000B207821EE021A95ED002A09EB17
:104780008001013091ED003A81ED001AA0FB0A1280
:10479000910832EE432A01EB410132EE011AA0EBFF
:1047A000410021EE082A207085ED001A8BED002AC9
:1047B00001F09AF845F6F850BDEEC00A002240F22A
:1047C000191610EE101AC0F6000000BFB3185B08EF
:1047D00050F823708F4203DA5A1CB242F6D903E034
:1047E00005DD5E1EB242F1D950F82670334645F61B
:1047F000C43100EE107ADFED370AC0F6000131F95E
:104800001320013331F9131000EB8300B8F80030A6
:10481000B8EEC00A02EE102A90ED003A01EE103A0E
:1048200004EE101AB8EE411AB8EEC22AB8EEC44A25
:10483000B8EEC33A31EE401A34EE424A33EE400A43
:1048400024EE011A81EE000A30EE020A01F04CF863
:1048500041F22C309BED001AC2F2000080ED000AFC
:104860002078B2EE0C0A21EE000A95ED001A09EB51
:104870008001013091ED002A81ED000AA0FB0A12AF
:10488000910801EB410131EE421AA0EB410031EEFB
:10489000000A207041F2303020EE081A85ED000A3F
:1048A000C2F2000080ED001A02B0BDEC028B01B034
:1048B000BDE8F08FDB0F4939DB0F4940DB0F49C002
:1048C000DB0FC940DB0FC9C068F6B646ABAA2A3E6B
:1048D000000000470000B4432DE9F0410A6892FA55
:1048E000A2F20C68B2FA82F234FA02F37BD04FF0F3
:1048F000010C4FF003084FF00F0E00BF0CFA02F549
:104900002C406BD04D68066894FAA4F794FAA4F38F
:10491000B3FA83F35B0005FA03F3B7FA87F56D008A
:1049200008FA05F526EA05052B4303604B68013BB1
:10493000012B11D88B68856894FAA4F694FAA4F731
:10494000B6FA86F6B7FA87F776007F0008FA06F619
:10495000BB40B5432B4383600B69C56894FAA4F64A
:1049600094FAA4F7B6FA86F6B7FA87F776007F00CE
:1049700008FA06F6BB40B5432B43C3604B68022BD5
:104980002CD194FAA4F34D69B3FA83F3072B12D810
:10499000036A94FAA4F694FAA4F4B4FA84F4A40092
:1049A00005FA04F4B6FA86F5AD000EFA05F5AB4348
:1049B0002343036212E0240A436A94FAA4F694FAA9
:1049C000A4F4B4FA84F4A40005FA04F4B6FA86F563
:1049D000AD000EFA05F5AB43234343620C68013288
:1049E00034FA02F38AD14A68013A012A88BFBDE845
:1049F000F081C96842686143A24311434160BDE848
:104A0000F08100BF10B586B00446D8B3206C0028F2
:104A100040F08E80002042F20022E0636064059046
:104A2000CDE90300CDE90100C4F201022168914201
:104A30002BD042F20010C4F20100814241D042F278
:104A40000000C4F20100814272D143F6300100201F
:104A50000090C4F202014A6942F480724A614A69D4
:104A600002F480720092009A00900A6842F00402F8
:104A70000A60096801F00401009100990321029184
:104A800002213AE0012006B010BD43F6300100904B
:104A9000C4F202014A6942F480624A614A6902F43E
:104AA00080620092009A00900A6842F004020A6054
:104AB000096801F004010091009903210291082185
:104AC0001BE043F6300100200090C4F202014A6965
:104AD00042F400724A614A6902F400720092009A3C
:104AE00000900A6842F004020A60096801F00401BB
:104AF000009100990321029104210191039040F655
:104B0000000001A9C4F2020000F078FD4EF60C503E
:104B10000021CEF2000000684EF21240CEF20000FA
:104B200001704EF200104FF48021CEF200000160BF
:104B3000206C10F0100F3AD1206C41F202110123C9
:104B4000C0F60073884340F00200206442F2043053
:104B5000C4F20100016821F440310160616802681B
:104B6000114301602068416821F48071416021692E
:104B7000426842EA01214160416821F04071416090
:104B8000A168426811434160816821F4006181603D
:104B9000E168826811438160A16A826822F07062D4
:104BA00099428260826804D122F040510AE00120DB
:104BB0004FE011438160816821F040518160E16ADA
:104BC000826811438160816821F002018160A169DE
:104BD000826842EA41018160226A416882B141F4FF
:104BE00000614EF200024160CFF6FF72416821F48D
:104BF00060414160616A02EB41314268114301E06A
:104C000021F4006141600022C16ACFF6F07221F404
:104C10007001C162E16902EB0151C26A1143C162D4
:104C2000816821F400718160216B826842EA412130
:104C30008160816821F4806181606169826842EAF3
:104C400081210122816000206064216C62F30101F6
:104C500021640021E16306B010BD00BF70B581B0D2
:104C600000220092C26B012A01D102214AE00122F6
:104C7000C263D1F800E01FFA8EFCBEF10A0F4FEAC2
:104C80004C0212FA8EF204D303681E3A03F10C04AC
:104C900002E0036803F1100407252668954026EA20
:104CA000050525608D6805FA02F225682A43226011
:104CB0004A68062A05D802EB820203F13401053A5C
:104CC0000BE002EB82040C2A87BF03F12C01A4F154
:104CD000410203F13001A4F123021F240D68944026
:104CE0000CFA02F225EA04040C600E6832430A60F2
:104CF00042F20431C4F20101A1F54172934204D0A1
:104D00000021C163084601B070BDBEF1110F0CD087
:104D10001222C1F20002964507D0BEF1120FEFD168
:104D20000A6842F480020A60EAE70A6842F4000274
:104D30000A601221C1F200018E45E1D140F2080162
:104D40004DF68362C2F20001C4F21B320968A1FB76
:104D50000212910C01EB8101490001E00099013937
:104D6000009100990029CBD0009901390091009958
:104D70000029C5D000990139009100990029BFD0C0
:104D800000990139009100990029E7D1B8E700BFE7
:104D900081B000210091C16B012963D00121C16361
:104DA00001688A6812F0010F27D18A684DF6836383
:104DB000C4F21B3342F001028A6040F20802C2F2E0
:104DC00000021268A2FB03239A0C02EB420201E0EC
:104DD000009A013A0092009A7AB1009A013A009240
:104DE000009A52B1009A013A0092009A2AB1009AB0
:104DF000013A0092009A002AEAD18A6812F0010F63
:104E000030D0026C43F2010342F2000CC4F2010CF8
:104E10009A4342F480520264026C12F4807F04BF11
:104E2000002242640022C2636FF0040008604868F8
:104E300040F080004860DCF8043388684A6800F479
:104E4000401002F4806213F01F0F09D0614501BFCA
:104E500050EA0200886840F48000886001B0704722
:104E6000104301D001B07047886840F4800088602A
:104E700001B07047C26B012A02BF02210846704789
:104E800070B50122C263D1F800C01FFA8CFEBCF1DC
:104E90000A0F4FEA4E0212FA8CF204D303681E3A4C
:104EA00003F10C0402E0036803F1100407252668EF
:104EB000954026EA050525608D6805FA02F2256809
:104EC0002A43226000249A6BCFF6F07422F4401239
:104ED0009A630A699D6B04EB0254C2F103022C43EE
:104EE0009C634D689E6B2A44D4B2A40054FA82F2AB
:104EF0001F2494400EFA02F226EA04049C639E6B7F
:104F0000324301269A63C0F20F06CC699A6822F4F4
:104F10007022B4429A609A6802D122F4401409E0E7
:104F200022439A609A6822F440129A600A6A9E6844
:104F300046EA02049C608A695E6846F48064002A3E
:104F400008BF26F480645C604A695E6846F4805459
:104F5000002A08BF26F48054032D5C6008D0022D7F
:104F600009D0012D14BF03F1200203F1140204E063
:104F700003F11C0201E003F11802166840F6FF7508
:104F8000AE431660C96816683143116042F20431BD
:104F9000C4F20101A1F541729342BDE8704012D103
:104FA000BCF1110F0BD01222C1F20002944506D0C1
:104FB000BCF1120F07D10A6842F4800202E00A68CD
:104FC00042F400020A600021C1630846704700BF36
:104FD000B0B586B040F26C14C2F20004206B002819
:104FE00041D1002546F200400595CDE90355CDE9B4
:104FF0000155C4F200002168814234D143F63001EA
:10500000009500F5CE30C4F202010A6942F0007248
:105010000A610A6902F000720092009A00950A681B
:1050200042F001020A604FF4C052096801F0010128
:1050300000910099022102910192039103210491B0
:105040000921059101A900F0D9FA4EF60C504FF450
:105050008011CEF2000000684EF20010CEF2000087
:1050600080F814530160236841F2EC21C2F2000180
:10507000186820F0020018600A685D68206815F062
:10508000020F22D00B689B1A0B2B80F08B80436899
:1050900013F0020F18D00B689B1A0A2B00F28280C3
:1050A000436813F0020F0FD00B689B1A0A2B79D8B4
:1050B000436813F0020F07D00B689B1A0A2B71D8B4
:1050C000436813F0020FDDD103461A6842F0010273
:1050D0001A600A68436813F0010F20D120680B683A
:1050E0009B1A0B2B64D2436813F0010F17D10B6886
:1050F0009B1A0A2B5CD8436813F0010F0FD10B6881
:105100009B1A0A2B54D8436813F0010F07D10B6880
:105110009B1A0A2B4CD8436813F0010FDFD0A1690A
:105120000268251D22F08003012908BF42F0800398
:105130000360E169026822F04003012908BF42F0E0
:1051400040030360216A026822F02003012908BF9E
:1051500042F020030360616A026842F010030129F3
:1051600008BF22F010030360A16A026822F008035E
:10517000012908BF42F008030360E16A026822F0D7
:105180000403012908BF42F0040303602ECD1A4333
:10519000636901392A431A4311430122C161002185
:1051A00000200AE0606B052240F40031012004E099
:1051B000606B052240F4003101206163226306B078
:1051C000B0BD00BF40F26C11C2F200010A6B012AAF
:1051D00002D00A6B022A36D10A68936813F0806FF6
:1051E0000CD1936813F0006F08D1936813F0805FBF
:1051F00004D101F134004FF4001128E0916830230C
:1052000003EA1151114441F23432C2F20002127821
:10521000002A1CBF0022C5F26002C1F8802141F2C1
:105220003832C2F200021278002A18BF0822C1F8F0
:1052300084214268C1F88C210068C1F8880101F519
:10524000C070012103E001F134004FF480210268B5
:1052500011430160704700BF40F2B011C2F200017B
:105260000A6D012A08BF704770B581B041F2EC2287
:105270004FF0010CC1F850C0C2F2000214684B6D2F
:10528000012B40F0EB80002800F0E880032301258B
:105290004B6500238B65CD8608638D868B638B877A
:1052A000C1E91033CB87D1F808E00B68BEF5004F99
:1052B00002BF1D6845F480451D601D6815F0400F54
:1052C00002BF1D6845F040051D60CE684D68B6F50B
:1052D000006F04D145B1CE8E012E0BD104E0A5B1F3
:1052E000CE8E012E17D110E030F8026BDE60CE8E2C
:1052F000013ECE86CE8ECEB19E6816F0020FF3D15F
:105300001668361B952EF5D9A8E010F8016B1E73B0
:10531000CE8E013ECE86CE8E46B19E6816F0020F2E
:10532000F3D11668361B952EF5D997E0986810F0E2
:10533000020F3FD11068001B952817D8986810F00D
:10534000020F37D11068001B95280FD8986810F00D
:10535000020F2FD11068001B952807D8986810F00D
:10536000020F27D11068001B9528DFD95868B5F5C2
:10537000827F20F0E000586009D1BEF5004F02D0D6
:10538000BEF5806F03D1186820F040001860886A6D
:10539000B0F5005F08D118684DF6FF721040186034
:1053A000186840F400501860002008650120486526
:1053B00054E000BF986810F0800F44D01068001BC4
:1053C000952817D8986810F0800F3CD01068001B03
:1053D00095280FD8986810F0800F34D01068001B03
:1053E000952807D8986810F0800F2CD01068001B03
:1053F0009528DFD95868B5F5827F20F0E000586025
:1054000009D1BEF5004F02D0BEF5806F03D11868F8
:1054100020F040001860886AB0F5005F08D1186875
:105420004DF6FF7210401860186840F40050186084
:1054300001204865886D40F02000886500200865DF
:10544000202088650AE0BEF1000F06D10020009000
:10545000D8680090986800900098886D00200865D2
:10546000C1F854C001B0BDE87040704740F24C2311
:105470000246C2F20003D86B20281CBF02207047EE
:10548000002A18BF002901D101207047986B01281C
:1054900004BF022070472DE9F0410020012621249D
:1054A000D98445F2715558641A629E639984DC630D
:1054B00045F29954C0F60005D3F830E0C0F6000478
:1054C000CEE9105445F29D55C0F60005CEE91450C2
:1054D000DEF83440D3F800C0012C3BD0DEF85C800D
:1054E000CEF83460DEF83850012D30D102260CF1B0
:1054F0000405CEF838600026CEF85860DEF800606B
:10550000DEF808703468402F24F480243460716021
:10551000114608BF2946B16008BF15463F22F56015
:10552000DEF8601002FA01F1C8F80810316841F0A5
:1055300016013160716941F080017161316841F09B
:1055400008013160316841F00101316002E0002161
:10555000CEF834106FF04001CCF800109863DCF8FE
:10556000141041F08001CCF81410BDE8F08100BFA8
:105570000168C06B096811F4807F18BF7047002173
:10558000C1840068416921F080014161C16841F036
:105590004001C160704700BF704700BFC06B016829
:1055A0004A69C36B212B0AD112F0800207D0002276
:1055B000C284CA6822F0C002CA602022C2634A695B
:1055C000036C222B0ED112F040020BD00022C285B8
:1055D000CA6822F49072CA604A6922F001024A61E4
:1055E00020210164416C41F010014164704700BF0B
:1055F000C06B0021C185C184704700BF2DE9F04F09
:1056000082B041F60003072243F6004B4FF0010A37
:1056100000264FF0000CC4F20203C4F2010B9842C2
:1056200000F13E4303F1FF7308BF06224FEAB327A0
:10563000062F4FF0000738BF4FEAB322009209E06F
:105640000CF1010C02370436BCF1100F04BF02B09C
:10565000BDE8F08F0A680AFA0CF812EA080FEFD0DA
:10566000D1F804E04EF01002122A14D106F01C0208
:105670000F2303FA02F44FF6FC73C7F6FF7303EA35
:105680005C0505442B6AA3430C6904FA02F21A4331
:105690002A62D1F804E0032304680EF00302BEF18D
:1056A000120F03FA07F302FA07F224EA03046FEA7F
:1056B000030942EA0402026014D80AFA0EF212F058
:1056C000061F0FD08268CB6802EA0902BB401A436A
:1056D0008260CEF30012436802FA0CF223EA080358
:1056E0001A434260C2688B6802EA0902BB401A434F
:1056F000C2605FEACE02A3D5002206F00C050F249B
:10570000019243F64402AC40C4F20202134612680E
:1057100042F480421A601A6802F4804201922CF02E
:105720000302019B5A444FF60843CFF6FF739E468F
:10573000D358A343009C04FA05F52B4342F80E30DE
:10574000DBF800204D6842EA080315F4803F08BFEB
:1057500022EA080315F4003FCBF80030DBF8042000
:1057600042EA080308BF22EA080315F4801FCBF8B9
:105770000430DBF8082042EA080308BF22EA0803E5
:1057800043F60C4215F4001FC4F20102CBF80830B6
:105790001446126842EA080308BF22EA080323609D
:1057A0004EE700BF4EF688504FF0000CCEF20000DE
:1057B000016841F47001016043F60001C4F2020186
:1057C0000A6842F001020A60C1F808C04FF6FF7291
:1057D0000B68CFF6F6621A400A6043F21002C2F27A
:1057E00000424A600A6822F480220A60C1F80CC0B4
:1057F0004FF0006140F8801C704753EA020C00F043
:1058000069802DE9F04B4FF00006002B1FBFB3FA63
:1058100083F503FA05F424FA05F65E4012BF164339
:10582000B2FA82F502FA05F4C5F120051EBF22FA8C
:1058300005FC44EA0C04203556EA044C4FEA1444B3
:1058400018BF641C4FF000084FF00009904271EB44
:10585000030C39D3002919BFB1FA81F701FA07F611
:10586000B0FA80F700FA07F6C7F120071EBF20FA4A
:1058700007FC46EA0C062037B6FBF4FCA7EB05074D
:10588000103F07F01F0BCBF120062CFA06F60CFA9E
:105890000BFB44BFB3460026202FA4BF5E464FF04B
:1058A000000B5BEA060C08BF4FF0010B19EB0B096C
:1058B00048EB0608ABFB027C06FB02CC0BFB03CCDF
:1058C000C01B71EB0C01C1E70B460246414648463E
:1058D000BDE8F08B13B54FF000004FF00001AFF3BF
:1058E0000080BDE81C40704710B52DED028BF0EE36
:1058F000408A18EE900AB0EE608A20F00040C0F1B5
:10590000FF40C00F07D118EE100A20F00040C0F190
:10591000FF40C00F2BD018EE101A18EE900A00F0BE
:10592000B5F800EE100A10EE100A6FEAD05010F031
:10593000FF0F04BFBDEC028B10BD18EE900A00F003
:10594000004110EE100A00F00040814204BFBDEC9F
:10595000028B10BD18EE101A10EE100ABDEC028B6F
:1059600061F31E0000EE900A30EE600A10BD18EEE2
:10597000900A4FF07F41B1EB400F1CBF18EE100AA8
:105980005FEA4000C7D10120FAF7FAFCBDEC028BB8
:10599000BDE81040AFF30080DFED020A80EEA00A00
:1059A000704700000000000030380A2801D20120B2
:1059B000704700207047000010B500290AD0087811
:1059C000002807D005487844FBF7C6F8002801D026
:1059D000002010BD0248784410BD0000FA100000FD
:1059E000F21000000EF1020E2EF0030E5EF8044BD2
:1059F000244204D44FEA4102B2F17F4F11D84FEA5A
:105A00004003B3F17F4F0CD80ED14FEAD07C0CEBA2
:105A10004C0C0CF1020CB2F17F4F08BF4CEBD17C67
:105A200004E04FF0080C01E04FEAD17C0CEB4C0392
:105A300024FA03F404F00704B4F1040C06D20EEBCC
:105A4000840CBDE810404CF0010C6047DFE80CF01E
:105A5000070802024FF00040A0F5800010BD084684
:105A6000420018BFD2F1807288BF00F0004010BD24
:105A7000F1EE100A4FF6FF71C0F2C03120EA0100CA
:105A800040F04070E1EE100A704700004FF07F4C8C
:105A90003CEA410318BF3CEA400200F062804FF448
:105AA0007F0C0CEAD11310F0004F18BF43F0050330
:105AB0001CEAD01218BF13EA0C0F00F057804FF009
:105AC000004C4CEA00204CEA0121A3F580339A42B5
:105AD00010DD23F00203B0F1004F06D343F00203C0
