:020000040800F2
:1000000098190020050300086129000865290008E7
:10001000692900086D290008712900080000000006
:10002000000000000000000000000000752900082A
:1000300079290008000000007D29000881290008B6
:100040001F0300081F0300081F0300081F03000808
:100050001F0300081F0300081F0300081F030008F8
:100060001F0300081F0300081F0300081F030008E8
:100070001F0300081F0300081F0300081F030008D8
:100080001F0300081F030008592E00081F03000863
:1000900091290008952900081F0300081F03000884
:1000A0001F0300081F0300081F0300081F030008A8
:1000B0001F0300081F0300081F0300081F03000898
:1000C0001F0300081F0300081F0300081F03000888
:1000D0001F030008992900081F0300081F030008D8
:1000E0001F0300081F0300081F0300081F03000868
:1000F0001F0300081F0300081F0300081F03000858
:100100001F0300081F0300081F0300081F03000847
:100110001F0300081F0300081F0300081F03000837
:100120001F0300081F0300081F0300081F03000827
:100130001F03000800000000000000001F0300086B
:100140001F0300081F0300081F0300081F03000807
:100150001F0300081F030008712C00081F0300087C
:100160001F0300081F0300081F0300081F030008E7
:100170001F0300081F0300081F0300080000000001
:10018000000000001F030008000000000000000045
:100190001F03000800000000000000001F0300080B
:1001A0000000000000000000000000001F03000825
:1001B0001F0300081F0300081F0300081F03000897
:1001C0001F03000800F002F800F08DF80AA090E884
:1001D000000C82448344AAF10107DA4501D100F002
:1001E00082F8AFF2090EBAE80F0013F0010F18BF42
:1001F000FB1A43F001031847B8600000D860000004
:10020000103A24BF78C878C1FAD8520724BF30C842
:1002100030C144BF04680C60704700000023002414
:1002200000250026103A28BF78C1FBD8520728BF06
:1002300030C148BF0B6070476E2900F03B817029C8
:1002400000F07D826629AFF300806529AFF300805E
:100250006729AFF300806129AFF3008003681B0AB0
:1002600028BF41F08001692900F0E880642900F08E
:10027000E580752900F0E2806F2900F00B82782973
:1002800000F04982E92900F0A581E42900F0A2816B
:10029000F52900F09F81EF2900F00882F82900F08D
:1002A00048820368DB0928BF41F08001632900F020
:1002B000BD83732900F0C283E32900F0CD83F329C5
:1002C00000F0D283002070471FB505F0A2FB00F0BC
:1002D0002FFC04000020002105F0CAF8401C6060DB
:1002E0001FBD10B510BD00F0EBFB1146FFF7ECFF92
:1002F00000F06AFC00F012FC03B4FFF7F2FF03BC4D
:1003000000F058FC0948804709480047FEE7FEE72F
:10031000FEE7FEE7FEE7FEE7FEE7FEE7FEE7FEE7B5
:1003200004480549054A064B704700001D53000864
:10033000C501000898130020981900209815002086
:10034000981500200FB41CB5084B06AA7B446946DB
:100350000090059800F0C7F804460020694600F0B8
:10036000D5F820461CBC5DF814FB0000BD01000060
:1003700070477047704770B5044685690068C106CC
:1003800001D5302600E02026C00707D070BDD4E993
:10039000012130469047206A401C20626D1EF6D530
:1003A00070BD70B5044685690078C00707D170BD7F
:1003B000D4E9012120209047206A401C20626D1E54
:1003C000F6D570BD09684A0501D540B27047C90528
:1003D000FCD500B2704709684A0501D5C0B2704724
:1003E000C905FCD580B2704770B50C460546012A98
:1003F00005D02878800600D5EA69002302E00123B1
:1004000005E05B1C934202D2E05C0028F9D1A869A8
:10041000E618C01AA861286A184428622846FFF71F
:10042000AAFF04E0D5E9012114F8010B9047B4427A
:10043000F8D32846FFF7B5FF70BD00002DE9F04165
:100440000646002410687529314616A510D0FFF71E
:10045000B9FF002802DA404213A507E031688A0795
:1004600001D512A502E0490704D511A5012401E038
:10047000FFF7B1FF00210A2206F1240709E0B0FBD3
:10048000F2FCB0FBF2F302FB1C003030785418464B
:10049000491C0028F3D123462A463046BDE8F041E6
:1004A00000F061BA000000002D0000002B000000E9
:1004B0002000000011680268006A530501D5087029
:1004C0000AE0D30501D5088006E0130603D5C2175C
:1004D000C1E9000200E008600120704701694A1C80
:1004E00002610878704700B58FB0CDE90131002175
:1004F000059105497944CDE903101146684600F09D
:1005000029F90FB000BD0000E5FFFFFF0A6802F8FF
:10051000010B0A60704700002DE9FF5F15468A460F
:100520000446DFF8AC80F8440027D8E900103E46C6
:10053000CDE9001010E05AF826106A4602A800F033
:1005400097FA411C07D02178890603D5E26939184A
:1005500091420DD80744761C2078800602D5E069C8
:10056000B84205DDAE42E6DB5AF826000028E2D1AB
:10057000A069C01BA0612046FFF7FDFED8E900106E
:10058000CDE90010002017E05AF828106A4602A8AA
:1005900000F06EFAB0F1FF3F81460BD000250DF15F
:1005A000080B05E0D4E901211BF8050090476D1CFC
:1005B0004D45F7D308F10100B0428046E4DB206AE4
:1005C000384420622046FFF7ECFEBDE8FF9F0000A4
:1005D0000E5500002DE9F0418046D21D22F00702A1
:1005E0000025D2E90002F52915A614D0011E72F1EA
:1005F000000106DA0023D0EB030063EB020211A630
:1006000008E0D8F800108B0701D50FA602E04907D3
:1006100001D50EA601251146002408F1240704E0A7
:1006200000F05CF930323A55641C50EA0102F7D10F
:100630002B46324621464046BDE8F04100F093B9D2
:10064000000000002D0000002B0000002000000032
:1006500030B4002100F1240408E002F00705D208BC
:10066000303542EA4372DB086554491C52EA0305FF
:10067000F3D10468002310A2250708D504F0200454
:100680000C4304D0C46901230CA2641EC46130BCB5
:1006900000F069B910B5044621461068FFF79BFECB
:1006A00002462046BDE810400023D1E7D21D22F0CB
:1006B0000701D1E90023CBE7000000003000000073
:1006C000F0B40D460188090502D5214C7C4402E0B6
:1006D0001F4C7C440E34002100F1240608E002F097
:1006E0000F071209E75D42EA03721B097754491CA0
:1006F00052EA0307F3D102780023120704D5702DC4
:1007000006D009B1022311342246F0BC00F02BB907
:1007100001231034F8E770B504460D4621461068F1
:10072000FFF759FE024629462046BDE870400023E7
:10073000C6E7D21D22F00703D3E90023C0E7036810
:10074000126843F0200303600823C3610023B7E766
:10075000705300002DE9F05F894604464FF0000A0F
:10076000DFF874B1FB44C0F820A02046E168884758
:10077000002874D0252806D0D4E901219047206AAA
:10078000401C2062F1E700265F462046E16888476A
:100790002028054607DB312D05D2781910F8200CEA
:1007A00008B10643F1E7B00701D526F00406C4F806
:1007B0001CA00027C4F818A02A2D09D0284604F050
:1007C0004FFE38B304EB8708303DC8F8185019E0E5
:1007D00059F8041B204604EB87029161E1688847C1
:1007E000012F054618D1E069002820DA26F02006FE
:1007F0001DE0D8F8180000EB800005EB4000303811
:10080000C8F818002046E1688847054604F028FE2D
:100810000028EED1012F0AD02E2D08D12046E16804
:1008200088477F1C0546022F46F02006C4DBA069DE
:10083000002803DA404246F00106A061F00701D02B
:1008400026F010066C2D0BD0682D09D04C2D39D018
:100850006A2D35D0742D35D07A2D33D016E038E09E
:10086000E1682F4620468847B842054609D16C2FDB
:1008700026D04FF48060E16806432046884705464D
:1008800004E06C2F1AD04FF4807006430DB3A5F12D
:100890004100192802D8203546F400664A46294608
:1008A000204626604E46FFF7C7FC80B101280BD0DA
:1008B000F61D26F0070000F1080956E74020E4E79E
:1008C0008020D8E70020D6E706F104094DE7284646
:1008D00052E7206ABDE8F09F0053000030B5B0F148
:1008E0000A0271F100034FEA900E4EEA817EB0EBEE
:1008F0000E0061EB91014FEA101E4EEA017E10EBF3
:100900000E0041EB11114FEA102E4EEA016E10EB72
:100910000E0041EB11214FEA104E4EEA014E10EB52
:100920000E0041EB1141401841F100014FEAD000A7
:1009300040EA41704FEAD1014FEA810444EA9074E1
:1009400010EB800544EB01046D1944EB0404521BC9
:10095000A3414FF0000348BF0A3200D530BD401C10
:1009600041F1000130BD2DE9F0470D469946924610
:10097000044600F124080168880604D5E06921F0E6
:100980001001216000E00120A84201DD471B00E0CA
:100990000027A1697A1902EB0900081AA0612078E2
:1009A000C00602D42046FFF7E6FC002608E0D4E9A2
:1009B00001211AF806009047206A401C761C20622C
:1009C0004E45F4DB2078C0060AD52046FFF7D3FC5D
:1009D00006E0D4E9012130209047206A401C2062C3
:1009E000381EA7F10107F4DC07E0D4E9012118F86B
:1009F00005009047206A401C2062281EA5F10105D1
:100A0000F3DC2046FFF7CDFC2078000602D502205B
:100A1000BDE8F0870120FBE710B5436913B1AFF3E0
:100A2000008001E0FFF7E0FC012010BD127800F12A
:100A300024010A7000224A700122EDE711684FF08C
:100A4000FF32E9E710B5436913B1AFF3008001E06D
:100A5000FFF762FD012010BD126800F1240142621F
:100A6000002282620122EDE711684FF0FF32E9E7D0
:100A70002DE9F04116460C46054600F047F803689C
:100A800093F80101012807D0FF2C12D8185D80B11E
:100A900001202C70BDE8F081D3F8070132462146D1
:100AA00003F20713C7182846BC46BDE8F0410123EE
:100AB00060474FF0FF30EDE700487047100000201E
:100AC0007546FFF7F9FFAE4605006946534620F02C
:100AD0000700854618B020B5FFF722FCBDE820408E
:100AE0004FF000064FF000074FF000084FF0000BEA
:100AF000AC46ACE8C009ACE8C009ACE8C009ACE859
:100B0000C00921F007018D467047000010B500F0C4
:100B10000FF8001D10BD00BF5949000010B5044674
:100B2000AFF300802046BDE81040FFF7E5BB0000B2
:100B3000004870473000002030B44FF0013C50F8BE
:100B4000042B51F8043BCCFA52F4D51A20D1FCB94D
:100B500050F8042B51F8043BCCFA52F4D51A17D1B3
:100B6000B4B950F8042B51F8043BCCFA52F4D51A1E
:100B70000ED16CB950F8042B51F8043BCCFA52F466
:100B8000D51A05D1002CDAD030BC4FF000007047E8
:100B900029BAB1FA81F111F01801D1F12000844095
:100BA000F2D1CA40CB4012F0FF0213F0FF0330BC79
:100BB000D01A704701491820ABBEFEE7260002009C
:100BC00070470000000000002DE9F04F8FB041F2A7
:100BD000513143F6080601204EF60C5240F2080946
:100BE00044F6D3584EF21004C2F20001C4F20206D9
:100BF000CEF20002C2F20009C1F26208CEF2000495
:100C000008704FF6FF01D6F8F80340F40070C6F8FC
:100C1000F803D6F8F80340F48060C6F8F803D6F875
:100C2000F80340F48070C6F8F8031068084040F2FA
:100C30000031C0F2FA5108431060D9F80000A0FB5F
:100C400008014FF0FF3000EB91110020B0EB116F65
:100C50000BD14EF60C526160F021CEF20002D1753C
:100C60000721A06021601168D075029047F2040549
:100C7000F16BC4F2000541F48041F163F16B01F4C2
:100C80008041029102990290B16B41F08051B163B1
:100C9000B16B01F08051029102990290B16B41F069
:100CA0008051B163B16B01F08051029102990290C1
:100CB00055F8040C40F4404045F8040C55F8040C79
:100CC00000F4404002900298306800F00C000428C4
:100CD00043D0306800F00C00082804D156F8040C0A
:100CE00010F4800F39D1306800F00C000C2804D1CA
:100CF00056F8040C10F4800F2FD156F8080C40F46D
:100D0000803046F8080C41F24C30C2F20000016815
:100D100056F8082C12F4003F21D10268521A642AB6
:100D20007ED856F8082C12F4003F18D10268521AE7
:100D3000642A75D856F8082C12F4003F0FD10268C7
:100D4000521A642A6CD856F8082C12F4003F06D1C7
:100D50000268521A642ADBD962E056F8080C30683F
:100D600000F00C0008285BD060210020C4F247216D
:100D7000086041F24C30C2F20000026856F8083CAC
:100D800013F0007F1FD003689B1A022B48D856F837
:100D9000083C13F0007F16D003689B1A022B3FD843
:100DA00056F8083C13F0007F0DD003689B1A022B05
:100DB00036D856F8083C13F0007F04D003689B1A1D
:100DC000022BDBD92CE042F60452C2F2402246F854
:100DD000042C01220A60016856F8082C12F0007FEA
:100DE0001ED10268521A032A1AD256F8082C12F0A1
:100DF000007F15D10268521A022A11D856F8082C21
:100E000012F0007F0CD10268521A022A08D856F854
:100E1000082C12F0007F03D10268521A022ADBD993
:100E2000002041F24C3701210290C2F20007B06B62
:100E300040F08050B063B06B00F080500290029898
:100E40004020C4F20E2001603A682B6813F4803F02
:100E500020D13B689B1AB3F57A7F41D82B6813F4F5
:100E6000803F17D13B689B1AB3F57A7F38D82B683F
:100E700013F4803F0ED13B689B1AB3F57A7F2FD8CD
:100E80002B6813F4803F05D13B689B1AB3F57A7F3A
:100E9000DBD925E041603868296811F4003F1FD193
:100EA0003968091AB1F57A7F1AD8296811F4003F18
:100EB00016D13968091AB1F57A7F11D8296811F469
:100EC000003F0DD13968091AB1F57A7F08D8296831
:100ED00011F4003F04D13968091AB1F57A7FDBD9E2
:100EE000D6F8F80300F00F00042809D8052086F88A
:100EF000F803D6F8F80300F00F00052840F0D28080
:100F0000306840F4E0503060306840F46040306059
:100F1000306820F0F000306056F8080C10F0007FC8
:100F200000F0C0803068022161F301003060386851
:100F3000316801F00C0108292BD1D6F8F80300F034
:100F40000E00062809D3052086F8F803D6F8F80322
:100F500000F00F00052840F0A5803068052161F3FE
:100F60008C2004213060306861F34F30306030688D
:100F7000C0F3810142F20040C0F2F400032943D0E3
:100F800002292ED0012904BF41F20020C0F27A00CC
:100F900069E041F288313A68121A8A4200F282808E
:100FA000326802F00C02082AC7D03A68121A8A4244
:100FB00078D8326802F00C02082ABED03A68121AB9
:100FC0008A426FD8326802F00C02082AB5D03A681B
:100FD000121A8A4266D8326802F00C02082ADAD164
:100FE000ABE756F8041C56F8043C01F03F0256F8F3
:100FF000041C13F4800FC1F3881118D1A1FB000168
:10100000002304F0B6F919E056F8041C56F8043C25
:1010100001F03F0256F8041C13F4800FC1F388114D
:1010200014D1A1FB0001002304F0A3F915E041F263
:101030000020C0F27A004843B0FBF2F056F8041CDE
:101040000222C1F3014102EB41010AE041F200201A
:10105000C0F27A004843B0FBF2F056F8041CC1F32A
:101060000271B0FBF1F031680FF66862C1F3031151
:10107000515CC840C9F80000A0FB08014FF0FF30E8
:1010800000EB91110020B0EB116F0BD14EF60C521A
:101090006160F021CEF20002D1750721A0602160CD
:1010A0001168D0754FF0000B40F2180A04224FF07F
:1010B0000108B1460225CDF81CB0C4F2020AB06A9C
:1010C000AAF1180740F08000B062B06A00F080001A
:1010D0000B900B98B06A40F00400B062B06A00F068
:1010E00004000B900B98B06A40F00100B062B06A47
:1010F00000F001000B900B98B06A40F00200B06263
:10110000B06A00F002000B900B98B06A40F0080043
:10111000B062B06A02AE314600F008000B900B9846
:101120004FF08070CAF800004FF48000CAF8000445
:101130004FF40040CAF8000040F61840C4F2020024
:1011400002604FF48070CDF80C8002903846CDE9F3
:1011500004BB0695019702F083FC4FF40040314632
:10116000CDE902083846CDE9045BCDF8188002F0DD
:1011700077FC04203146CDE902080AF6E830CDE9D3
:10118000045BCDF8188002F06BFC0AF57A7A4027F0
:101190003146CDF80C8050460297CDE904BB069548
:1011A00002F05EFC4FF480703146CDE9020B5046F0
:1011B000CDF8188002F054FCCDF808B047F20401D5
:1011C00040F2204302250326D9F82800C4F200018A
:1011D000C4F201030A4640F48000C9F82800D9F897
:1011E000280000F48000029002984EF60C50CEF2D7
:1011F000000000684EF22540CEF2000080F821B0D9
:10120000C4F8F870CDE906BBCDE904BBCDE902BB5B
:1012100002AFD9F83C0040F00200C9F83C00D9F810
:101220003C0000F002000B900B9849F2FC3009588A
:1012300021F45C7141F04001115041F29411D960E8
:10124000C3F808B0C3F810B053F80C1C41F001010A
:1012500043F80C1C115821F08001115044F2070191
:1012600053F8180C884343F8180C53F8080C40F056
:10127000080043F8080C186820F00100186018688E
:1012800053F81C1C53F8082C21F4407120F00F0077
:1012900043F81C1C22F0730141F0600143F8081C64
:1012A000C3F814B0186053F8080C20F0040043F899
:1012B000080C53F8080C40F4006043F8080C186858
:1012C00020F010001860186853F81C1C53F8082C04
:1012D00021F4406120F0F00043F81C1C22F4E641A8
:1012E00041F4C04143F8081CC3F818B0186053F823
:1012F000080C20F4806043F8080C53F8040C40F00C
:10130000080043F8040C186820F48070186018680E
:1013100053F81C1C53F8042C21F4405120F4706045
:1013200043F81C1C22F0730141F0600143F8041CD7
:10133000C3F81CB0186053F8040C20F0040043F804
:10134000040C53F8040C40F4006043F8040C1868D3
:1013500020F480501860186853F81C1C53F8042CB3
:1013600021F4804120F4405043F81C1C22F4E64153
:1013700041F4C04143F8041C41F28811196218601D
:10138000394653F8040C20F4806043F8040C53F8F9
:101390001C0C20F0700043F81C0C53F8180C20F0C3
:1013A000800043F8180C4FF480405862D9F82800A8
:1013B00040F00100C9F82800D9F8280000F0010029
:1013C0000B900B98D9F8280040F00200C9F82800CB
:1013D000D9F8280000F002000B900B98D9F82800EB
:1013E00040F00400C9F82800D9F8280000F00400F3
:1013F0000B900B98802002900395CDE9046BCDE90A
:101400000656019802F02CFB4FF4404002A981E8F7
:10141000610850463946CDE9065602F021FB4FF4EB
:10142000E07002A94FF0020881E8610818203946EF
:1014300006950796C4F2020000F5FD60009002F0E8
:101440000FFBD9F83C0002AF394640F48050C9F890
:101450003C00D9F83C0000F4805002900298D9F882
:10146000280040F00200C9F82800D9F828004FF001
:10147000050900F00200029002980820CDE9020858
:101480005046CDE9046BCDF81880CDF81C9002F0E1
:10149000E7FA3020CDF80C804FF001083946029071
:1014A0005046CDE9046BCDE9068902F0D9FA43F242
:1014B0000000C4F20100016843F20400C4F201001C
:1014C00011F0400F10D143F200014FF6BF72C4F289
:1014D00001010B460968914340F61D321143196022
:1014E000016821F004010160816940F290174FF416
:1014F00082724FF400630A252026C2F2000721F40D
:1015000000618161016821F01001016046F2006014
:101510004FF40071C4F20000A0F5285087E80508D8
:10152000C7E9033BC7E90581C7E9076BC7E909BB01
:10153000FD627D6D45B100254FF000094FF0000AB6
:101540004FF0000E009538E0002043F60801C4F289
:10155000020138650690CDE90400CDE902000B9048
:101560000A46896B41F400419163916B01F400419B
:101570000B910B990B90916A41F004019162916A71
:1015800001F004010B910B99022103914FF4E051FA
:1015900002910490032002A905900620069000986D
:1015A00003F0E8FD386A0090D7E909BE97E8050422
:1015B000D7E90339D7E90581FE69022542EA0A0223
:1015C0007D651A4301F40073D0F800C042EA0902B5
:1015D00042EA08024FF001082CF040051A4305606A
:1015E000324340F24C150026009BC2F200051A431C
:1015F0004FF4E00342EA0E020260042202EA1141C3
:101600004FF4002241EA0B014160C16921F40061FD
:10161000C16146F200600521BE65C4F20000A0F57C
:10162000007085E8430005F11400C5E9036280E815
:101630004801C5E90866C5E90A66C7F8548002F0A2
:1016400069FD43F2000040F2302B4FF461210C227F
:10165000C4F20100C2F2000BA0F500508BE8430079
:10166000CBE90366CBE90526CBF81C60DBF83C1020
:1016700041B143F6080A00214FF0000C0023C4F2E8
:10168000020AC8E043F6080ACBF838600696CDE9AE
:101690000466CDE902660B96022502A9C4F2020A8D
:1016A000DAF83C0040F01000CAF83C00DAF83C00E0
:1016B00000F010000B900B980B96DAF8280040F021
:1016C0000100CAF82800DAF8280000F001000B90A9
:1016D0000B9803954FF4C06002900320CDF8108062
:1016E000059007200690019803F044FD40F2782011
:1016F00046F2B8414FF0006240234FF48067C2F2D7
:101700000000C4F20201466380E8CE0041F24C378B
:101710004FF40032C0E90566C661C0E90826C2F28E
:1017200000073A6885630B6823F001030B600B68C0
:1017300013F0010F31D148F23F030A684EF22547FA
:10174000CFF21003CEF200071A4040F24043C0F639
:1017500002031A4340F2FF330A604A6922F007028B
:101760004A616FF00F0252FA81F299434AF6AB23B5
:10177000CAF6AA235F2AA2FB032388BF41F0040113
:101780001A090FF628639A5C3F23C0E9171203FA7F
:1017900002F28A600121002227E001683B689B1A5F
:1017A000052B1CD80B6813F0010FC4D03B689B1AA3
:1017B000052B14D80B6813F0010FBCD03B689B1AA3
:1017C000052B0CD80B6813F0010FB4D03B689B1AA3
:1017D000052B04D80B6813F0010FDFD1ABE74EF2F5
:1017E000254703212022CEF200078265CBF8300086
:1017F000C0F83CB081634EF60C50CEF20000006899
:10180000002038702020C4F8F400DBE90661DBF822
:101810000000DBE902C3242749F20C62B1F5004F56
:10182000CBF83C70C76827F40057C760076927F4F6
:10183000405743EA07030361DBE90437C56843EA1D
:101840000C0325EA020243EA070343EA010342EAE2
:101850000302C260426922F4407242EA0602426117
:1018600064D141F2004240F48061C4F2010291422D
:1018700040F0C08040F2080146F298284FF0190964
:1018800048F21F5EC2F20001C0F60008C5F2EB1E6E
:101890000A68DAF800C0DBF80460DAF80050DAF819
:1018A0000030C3F34237C5F34235760018F80770AD
:1018B00018F8055022FA07F122FA05F501FB09F1A3
:1018C00005FB09F5B1FBF6F1B5FBF6F5A1FB0E370B
:1018D0007B09642703FB1713691A1944322303EBAE
:1018E000C101A1FB0E134FF4F87101EA1311CCF3FF
:1018F000423318F8033022FA03F303FB09F3B3FB76
:10190000F6F3A3FB0E374FF6F073C7F6FF7303EA47
:10191000570301EB030CDAF80030C3F34233DAF873
:10192000007018F80330C7F34237BEE041F20042BE
:1019300040F48061C4F20102914240F0C68040F25E
:10194000080146F298284FF0190948F21F5EC2F2CA
:101950000001C0F60008C5F2EB1E0A68DAF800C004
:10196000DBF80460DAF80050DAF80030C3F34237ED
:10197000C5F34235B60018F8077018F8055022FA7A
:1019800007F122FA05F501FB09F105FB09F5B1FBA9
:10199000F6F1B5FBF6F5A1FB0E377B09642703FBD7
:1019A0001713691A1944322303EB0111A1FB0E131B
:1019B000F02101EA5311CCF3423318F8033022FA34
:1019C00003F303FB09F3B3FBF6F3A3FB0E374FF668
:1019D000F073C7F6FF7303EA570301EB030CDAF861
:1019E0000030C3F34233DAF8007018F80330C7F35D
:1019F0004237C4E040F2080146F298284FF0190936
:101A000048F21F5EC2F20001C0F60008C5F2EB1EEC
:101A10000A68DAF800C0DBF80460DAF80050DAF897
:101A20000030C3F38227C5F38225760018F80770CB
:101A300018F8055022FA07F122FA05F501FB09F121
:101A400005FB09F5B1FBF6F1B5FBF6F5A1FB0E3789
:101A50007B09642703FB1713691A1944322303EB2C
:101A6000C101A1FB0E134FF4F87101EA1311CCF37D
:101A7000822318F8033022FA03F303FB09F3B3FBC4
:101A8000F6F3A3FB0E374FF6F073C7F6FF7303EAC6
:101A9000570301EB030CDAF80030C3F38223DAF8C2
:101AA000007018F80330C7F3822722FA03F303FB10
:101AB00009F3B3FBF6F318F80770FA40072702FBA7
:101AC00009F2B2FBF6F2032668E040F2080146F2A2
:101AD00098284FF0190948F21F5EC2F20001C0F6C3
:101AE0000008C5F2EB1E0A68DAF800C0DBF80460F3
:101AF000DAF80050DAF80030C3F38227C5F3822504
:101B0000B60018F8077018F8055022FA07F122FA03
:101B100005F501FB09F105FB09F5B1FBF6F1B5FB94
:101B2000F6F5A1FB0E377B09642703FB1713691A2F
:101B30001944322303EB0111A1FB0E13F02101EA3A
:101B40005311CCF3822318F8033022FA03F303FB7A
:101B500009F3B3FBF6F3A3FB0E374FF6F073C7F6AA
:101B6000FF7303EA570301EB030CDAF80030C3F309
:101B70008223DAF8007018F80330C7F3822722FABC
:101B800003F303FB09F3B3FBF6F318F80770FA400D
:101B90000F2702FB09F2B2FBF6F20426A3EB020EBA
:101BA00048F21F5540F201094FF0000A4FF00108BA
:101BB000C5F2EB15C0F60079A2FB051359096423A1
:101BC00001FB13217144B14043F200063231C4F2EB
:101BD0000106A1FB051207EA521140F2700741EA23
:101BE0000C01C2F200078160016921F4904101619A
:101BF000416921F02A014161C16841F40051C1608D
:101C00002020CBF844A04FF40031CBF83C00CBF8B7
:101C10004000A6F58050CDF838A0C7F820A0C7E94D
:101C20000A9AC7F830A087E803043846C7E903AA30
:101C3000C7E9058AC7F81C8001F07EFF0B250BA8B9
:101C40000BA980E82005384602F0A2F802A8CDF8DA
:101C500018804FF4602B02A980E820054FF4801013
:101C60000A9007A880E8000D3846CDF814A002F0CD
:101C7000A3F940F2B807A6F57060CDF838A0C2F21B
:101C80000007C7F820A0C7E90A9AC7F830A0386053
:101C90004FF40030C7E9010A3846C7E903AAC7E98B
:101CA000058AC7F81C8001F047FF0C250BA80BA97B
:101CB00080E82005384602F06BF802A8CDF81880BD
:101CC00002A94FF4801680E820054FF480100A9096
:101CD00007A880E8000D3846CDF814A002F06CF992
:101CE00043F2000040F20017CDF838A0C4F2010022
:101CF000C2F20007A0F56060C7F820A0C7E90A9A01
:101D0000C7F830A038604FF40030C7E9010A384600
:101D1000C7E903AAC7E9058AC7F81C8001F00CFFD0
:101D20000D250BA80BA980E82005384602F030F8F5
:101D300002A802A9B94680E8200507A80A9680E80B
:101D4000000D3846CDE905A802F036F940F2EC1B4B
:101D50004FF080404FF48041C2F2000BCBE9000A03
:101D6000CBE902A1CBF810A0CBF818A0DBF840100B
:101D700081BB43F60800CBF83CA0CDF818A0CDE914
:101D800004AACDE902AACDF82CA0C4F202000146B3
:101D9000806B40F001008863886B00F001000B90BD
:101DA0000B98CDF82CA0886A40F001008862886A00
:101DB00002A900F001000B900B9802200390032071
:101DC0000290CDE904AACDF81880019803F0D2F969
:101DD000DBF80000022144F2070240F2204641F203
:101DE0004C35CBF84010C4F20106C2F20005816800
:101DF000B046914340F6FF328160C4F200020168B0
:101E0000904212DC1826B0F1804FC4F2020620D0B6
:101E100040F20043C4F2000398421AD040F6000397
:101E2000C4F20003984214D018E040F6004318268C
:101E3000C4F20003C4F2020698420AD040F2004302
:101E4000C4F20103984204D00023C4F20103984273
:101E500004D1DBF8083021F07001194341F6FF731B
:101E6000C4F2000398420DDC90421FDCB0F1804FB9
:101E70004AD040F20042C4F20002904244D040F600
:101E8000000221E043F6FF72C4F20102904229DC15
:101E900042F20002C4F20002904235D00022C4F2A5
:101EA0000102904230D040F2004229E040F6004268
:101EB000C4F20002904227D041F60002C4F20002B0
:101EC000904221D041F60042C4F2000290421BD061
:101ED0001FE000BF0000000000000000010203043A
:101EE0000607080944F20002C4F2010290420BD036
:101EF00044F60002C4F20102904205D044F20042CE
:101F0000C4F20102904204D1DBF8102021F44071A8
:101F10001143DBF8182021F08001114340F2004208
:101F20000160C4F20102DBF80C10C162DBF804109E
:101F3000816240F48061914204BFDBF814100163B8
:101F40000121416182688369076A42F0030282606D
:101F500040F2011262F30F0327F0AA0283610262CA
:101F6000CBF84010DBF83C20012A0FD00222CBF83E
:101F700040204268836822F07002426023F08002B1
:101F800082600020CBF83C00CBF840102068029023
:101F9000029840F2F51000BF2168C90300EBE17020
:101FA00078B12168C90300EBE17050B12168C90321
:101FB00000EBE17028B12168C90300EBE170002853
:101FC000EAD143F2000040F24C1AC4F20100C2F21E
:101FD000000A0146006840F0400008604DF20060D1
:101FE00046F20061C4F20001CFF6FF700A460958BC
:101FF00041F04001115040F23020C2F20000006870
:10200000C16841F40051C16047F20401D8F80000F2
:10201000C4F200010A4640F48050C8F8000049F2BA
:10202000FC30095841F0010111504020C6F800046D
:10203000286800BF2968091A03290BD22968091AE0
:10204000022907D82968091A022903D82968091A18
:102050000329EFD34FF40040306028682968091A3B
:1020600003290BD22968091A022907D82968091AF5
:10207000022903D82968091A0329EFD301F0F8FAD5
:102080004FF40040306028682968091A03290BD2F0
:102090002968091A022907D82968091A022903D8C8
:1020A0002968091A0329EFD345F67C274FF0004031
:1020B000C0F600073060384602F08CFE4FF4004056
:1020C0003060206802900298022000BF2168C90396
:1020D00000EBE17078B12168C90300EBE17050B109
:1020E0002168C90300EBE17028B12168C90300EB46
:1020F000E1700028EAD14FF000403060B81C02F0D7
:1021000069FE4FF40040306020680290029802207F
:102110002168C90300EBE17078B12168C90300EBC5
:10212000E17050B12168C90300EBE17028B121686A
:10213000C90300EBE1700028EAD14FF000403060A5
:10214000381D02F047FE4FF40040306020680290D6
:10215000029802202168C90300EBE17078B1216880
:10216000C90300EBE17050B12168C90300EBE170D5
:1021700028B12168C90300EBE1700028EAD14FF0D3
:1021800000403060B81D02F025FE4FF40040306082
:1021900020680290029802202168C90300EBE170D8
:1021A00078B12168C90300EBE17050B12168C9031F
:1021B00000EBE17028B12168C90300EBE170002851
:1021C000EAD14FF00040306007F1080002F002FE53
:1021D0004FF400403060206802900298022000BF57
:1021E0002168C90300EBE17078B12168C90300EBF5
:1021F000E17050B12168C90300EBE17028B121689A
:10220000C90300EBE1700028EAD14FF000403060D4
:1022100007F10A0002F0DEFD4FF400403060206854
:1022200002900298022000BF2168C90300EBE17010
:1022300078B12168C90300EBE17050B12168C9038E
:1022400000EBE17028B12168C90300EBE1700028C0
:10225000EAD101F00DFA01F00BFA01F009FA01F0F0
:1022600007FA01F005FA206802900298652000BF85
:102270002168C90300EBE17078B12168C90300EB64
:10228000E17050B12168C90300EBE17028B1216809
:10229000C90300EBE1700028EAD1D8F800004FF044
:1022A0007E510022C4F2400240F00100C8F8000054
:1022B000D8F8000040F01000C8F80000D8F800007E
:1022C00040F48070C8F80000D8F8000040F0040026
:1022D000C8F80000D8F8000040F04000C8F800003E
:1022E000D8F8000040F48060C8F8000058F8140CDA
:1022F00040F0010048F8140C41F28030C2F20000B6
:10230000016041F250300121C2F20000017041F23F
:1023100060304BF21771C2F20000C3F65101016048
:1023200041F2E02046F64051C2F20000018441F241
:10233000B0200021C2F20000C4F25001C1604FF091
:102340008141C0E9051241F28C3044F2131146F686
:10235000DB72C2F20000C3F69B51C4F2F562016069
:1023600041F2903046F6DB41C2F20000C3F6B061A4
:10237000016041F284310020C2F20001086041F2A4
:102380008831C2F200010A60DAF8301001390129FF
:1023900035D846F20061C4F200010B46096841F0ED
:1023A00001011960196821F47C511960196841F420
:1023B0006061196046F21C61C4F200010A6822F0F3
:1023C00001020A6051F8102C42F0010241F8102C71
:1023D0004862886251F8180C20F0010041F8180C8E
:1023E00051F8080C20F0010041F8080C086840F092
:1023F00001000860186820F00100186005E0DAF8B4
:10240000340040F48020CAF83400DAF830000128A3
:1024100010D10220CAF83000DAF80010086820F065
:10242000010008602868496811F0010F40F08D80B4
:10243000002003E0DAF8340040F40020CAF8340049
:10244000DAF80010DAF830200AF134004FF480276F
:1024500041F25136C2F20006013A022A024638BF62
:1024600001F114024FF48021136838BF02273B4367
:102470004FF480271360DAF80020DAF83030013B9F
:10248000022B034638BF02F114031A6838BF4FF419
:1024900000673A434FF480271A60DAF80020DAF830
:1024A0003030013B022B034638BF02F114031A6897
:1024B00038BF4FF480673A431A60DAF80020DAF840
:1024C0003030013B022B38BF02F11400026838BFE4
:1024D0004FF40041114301603078012834D140F2BB
:1024E000700440F2B8054E46C2F20004C2F2000584
:1024F0002068816841F0010181602868816841F0AD
:1025000001018160D9F80000816841F0010181601A
:10251000284601F0DFFC484601F0DCFC204601F0D3
:10252000D9FCA06B0068016821F018010160A86B5C
:102530000068016821F018010160D9F838000068CE
:10254000016821F018010160FEE7DAF800102A683E
:10255000121A0B2A1FD24A6812F0010F3FF468AF1B
:102560002A68121A0A2A16D84A6812F0010F3FF494
:102570005FAF2A68121A0A2A0DD84A6812F0010FB2
:102580003FF456AF2A68121A0A2A04D84A6812F091
:10259000010FDCD14CE7DAF8340040F40030CAF81F
:1025A00034000520CAF830004AE700BF00061016C4
:1025B0000006101610B584B040F2481445F64F01DD
:1025C000C2F20004C4F200012068884214DC45F223
:1025D0004911C4F2000188423CD045F25511C4F2C1
:1025E000000188426FD141F2842145F255100190DB
:1025F000C2F2000189693FE045F65001C4F20001D2
:10260000884230D045F65601C4F2000188425AD1C2
:1026100041F2E0209FED2D0A41F274310122C2F215
:102620000000C2F2000190ED031A45F65600019039
:1026300021EE000ABDEEC01A8DED001ABDEEC00AF3
:102640000A7041F278310290C2F200018DED030A66
:102650000A701FE041F2842145F249100190C2F254
:102660000001896A08E041F2683145F650000190A6
:10267000C2F200010968494241F27432012300911B
:1026800003910290C2F20002137041F27832C2F25A
:102690000002137002A801F055FE40F24C10C2F285
:1026A000000000F134010268006B0138022838BFD5
:1026B00002F114014FF48022086838BF0122104350
:1026C00008600020206004B010BD00BF83F9A2455F
:1026D00043F20801C4F201018880086810F0020F7B
:1026E0001BD196204FF6FF7C0B6813F0020F18D118
:1026F000831E13EA0C0F12D00A6812F0020F12D1D7
:102700000A6812F0020F10D1043810EA0C0F06D03C
:102710000A6812F0020FE7D008E0962006E00020D9
:1027200004E0013802E0184600E003380A6812F0BD
:10273000800F1CD04FF6FF7C83B2012B17D00A68A4
:1027400012F0800F18BF022B11D00A6812F0800F10
:1027500018BF032B0BD00A6812F0800F07D0043883
:1027600010EA0C0F03D00A6812F0800FE4D181B098
:1027700048680090009808680090009801B0704781
:1027800080B581B043F2080C4FF6FF7EC4F2010C15
:10279000ACF804E0DCF8001011F0010F1DD1962117
:1027A000DCF8002012F0010F1BD18A1E12EA0E0F76
:1027B00015D0DCF8003013F0010F14D1DCF8002044
:1027C00012F0010F11D1043911EA0E0F07D0DCF815
:1027D000002012F0010FE3D008E0962106E000216E
:1027E00004E0013902E0114600E00339DCF804207E
:1027F0000280DCF8000010F0020F25D14FF6FF70C8
:102800004A1E02421DD0DCF8003013F0020F1AD12C
:102810008A1E024215D0DCF8003013F0020F12D1EC
:10282000CA1E02420DD0DCF8003013F0020F0AD1AC
:102830000439014205D0DCF8002012F0020FDFD08D
:1028400002E0002100E01146DCF8000010F0800FEB
:102850001FD04FF6FF708BB2012B1AD0DCF800208E
:1028600012F0800F18BF022B13D0DCF8002012F0FA
:10287000800F18BF032B0CD0DCF8002012F0800F63
:1028800007D00439014204D0DCF8002012F0800F98
:10289000E1D1DCF8040000900098DCF80000009022
:1028A000009801B080BD00BF70B540F2040640F250
:1028B0000004C2F20006C2F20004306821680D1A5A
:1028C00040F2A3718D4238BF70BDA9B202F08AFBFD
:1028D00040F2DC23326840F6AC21C2F20003C2F2BF
:1028E00000019A4218BF19460028316021601FD0AC
:1028F00044F64450C5F64170086047F24250C6F2B3
:102900006660486047F26520C4F65F70886046F2F2
:102910007650C6F27260C86046F66C70C0F67750AA
:10292000086101F1150020600A200875FFF7BCFF5F
:10293000B5F5FA6F12D945F24F612068C5F245210D
:10294000016044F6464181804F21817100F1080108
:1029500021605721C171BDE87040A5E770BD00BF7F
:10296000704700BFFEE700BFFEE700BFFEE700BF05
:10297000FEE700BF704700BF704700BF704700BF51
:1029800041F24C30C2F20000016801310160704731
:1029900001F01CBD01F01ABD80B540F2302CC2F22E
:1029A000000CDCF800E0DEF80020DEF80C30DEF889
:1029B000140012F00F0F4FD003F4907100F00100DB
:1029C000014364D0D1071FBF13F48071DCF84410B9
:1029D00041F00101CCF84410510707D500281EBF73
:1029E000DCF8441041F00201CCF84410910707D5FF
:1029F00000281EBFDCF8441041F00401CCF844105C
:102A0000110707D500281EBFDCF8440040F008007D
:102A1000CCF84400DCF84400002800F01E8103EAF2
:102A20000200800640F1E280DCF84000222840F0FD
:102A3000DD80DCF80800B0F5805F40F08080DCF8D5
:102A40001020DCF82800DEF80410002A00F0A8802E
:102A5000C9B220F8011BA7E003EA020010F0200F22
:102A600017D0DCF84000222840F0F780DCF808009E
:102A7000B0F5805F53D1DCF81020DCF82800DEF8D8
:102A80000410002A6BD0C9B220F8011B6BE003EAE6
:102A9000020001060CD4400658BF80BDDEF80C00D1
:102AA00020F04000CEF80C002020CCF83C00D4E010
:102AB000DCF83C00212840F0D080DCF80810DCF87D
:102AC0002000B1F5805F0DD101886FF35F21CEF852
:102AD0000410DCF81010002914BF01300230CCF8CB
:102AE000200005E0411CCCF820100078CEF804004E
:102AF000BCF826004FF6FF7101380842ACF82600FA
:102B000040F0AB80DEF80C0020F08000CEF80C0026
:102B1000DEF80C0040F04000CEF80C0080BDDCF880
:102B20001020DEF80400DCF82810002A01F1010270
:102B3000CCF8282018BF00F07F00087015E0DCF802
:102B40001010DEF804000029DCF8281001F1010261
:102B5000CCF8282018BF00F07F00087026E06FF343
:102B60005F2120F8021BCCF82800BCF82E004FF69D
:102B7000FF7101380842ACF82E006ED1DCF800007D
:102B8000C16821F02001C160C16821F48071C16079
:102B9000416921F0010141612020CCF8400080BD55
:102BA0006FF35F2120F8021BCCF82800BCF82E0040
:102BB0004FF6FF710138ACF82E000842DCF800E057
:102BC00014D1DEF80C0020F02000CEF80C00DEF866
:102BD0000C0020F48070CEF80C00DEF8140020F019
:102BE0000100CEF814002020CCF84000DEF81400DC
:102BF000DCF8441000F0400001F0080108432DD03B
:102C0000DEF80C0020F49070CEF80C00DEF8140012
:102C100020F00100CEF814002020CCF84000DEF8AF
:102C2000140010F0400F18D0DEF8140020F040001F
:102C3000CEF81400DCF8340078B145F26911C0F622
:102C400000014165816B02290CD105218163006877
:102C5000016821F00101016080BD80BD0020CCF839
:102C6000440080BD80218165BDE8804002F07CBACF
:102C7000F0B581B0002040F2782448F2B513082165
:102C8000009040F20800C2F20004C1F64E33C2F2D6
:102C900000000268D4E9176037688140A2FB032571
:102CA00039420DD02268136813F0040F08D013685E
:102CB00023F004031360B160A16D41F00101A1652F
:102CC00001218140394209D02268526912F0800FF7
:102CD00004D0B160A16D41F00201A16504218140E1
:102CE000394209D02268126812F0020F04D0B16094
:102CF000A16D41F00401A1651021814039421AD033
:102D00002068026812F0080F15D0B16002680168EF
:102D100012F4802F06D1C9055EBF016821F00801B9
:102D2000016001E0080343D4616C21B140F27820D6
:102D3000C2F200008847216E202000FA01F23A42D8
:102D400046D02068036813F0100F41D0B260A36B27
:102D50000268052B1ED122F016020260426922F0A1
:102D600080024261626CE36C1A431EBF026822F06B
:102D7000080202603F208840B0600120A06300206C
:102D80006063616D002962D040F27820C2F20000D9
:102D900088475CE0016852030ED4C90511D401686C
:102DA00021F0100101600120A0630020606308E0B1
:102DB000E16C0029BAD1BEE7080302D4A16C11B9B5
:102DC00006E0216C21B140F27820C2F20000884771
:102DD000A06DE0B3A06D10F0010F2FD00521A80A5F
:102DE000A16321680A6822F001020A60009A013298
:102DF000824200921ED80A6812F0010F1AD0009A7F
:102E000001328242009215D80A6812F0010F11D0E7
:102E1000009A0132824200920CD80A6812F0010F27
:102E200008D0009A01328242009203D80A6812F058
:102E3000010FDBD10120A06300206063216D31B15F
:102E400040F27820C2F20000884701B0F0BD01B026
:102E5000F0BD00BF00BF00BFF0B581B040F270040C
:102E600040F2B80540F200169FED523A9FED502A0D
:102E7000C2F20004C2F20005C2F200062068B0EE01
:102E8000435A90ED0F0AB8EE400A286890ED0F1AE9
:102E9000B8EE411A306801EE425AB0EE431AC06BE8
:102EA00000EE421A04EE100A41F28420B8EE444AC1
:102EB000C2F2000004EE423A80ED001A80ED015AA1
:102EC00080ED023A00F090FC41F25130C2F2000075
:102ED000007801285CD141F25030C2F20000007845
:102EE000012855D100F04CFB00F068FA41F27C2734
:102EF000C2F200073868411C002839601CD141F239
:102F00006030C2F20000006802F0E8FC9FED260B82
:102F100053EC102B02F0E4FB00223A6002F038FB85
:102F200040F20007024624A1C2F200073868FDF70C
:102F300009FA396808443860FFF7B6FC41F280208E
:102F4000C2F2000001684A1C002902601ED141F251
:102F5000603141F2E02240F20007C2F20001C2F209
:102F60000002C2F2000791ED001A92ED070A00215B
:102F700021EE000ABDEEC00A016038680FA110EE14
:102F8000102AFDF7DFF9396808443860FFF78CFC38
:102F900020686FF0040101602868016030680160FA
:102FA00001B0F0BD00BF00BF0000000080842E41D2
:102FB0000000FA3C00007A422564090025640D0AED
:102FC000000000009FED5E3AB0EE602A9FED5D4A82
:102FD000B6EE001AF5EEC00A0020F1EE10FA10EE7F
:102FE000032AB0EE603AC8BF012010EE043A22EE88
:102FF000015A23EE010AB5EEC05AF1EE10FAB5EE11
:10300000C00AC8BF40F00200F1EE10FAC8BF40F09D
:103010000400411E05290BD8DFE801F0030F182139
:103020002A339FED4B4A23EE040A22EE042A2EE0B7
:103030009FED452AB0EE420A29E09FED440A9FED3C
:10304000442A20EE800A23EE022A20E09FED420A65
:103050009FED403A20EE800A22EE032A17E09FED12
:103060003C0A9FED3A3A22EE000A20EE832A0EE057
:103070009FED380A9FED382A23EE000A20EE822ABF
:1030800005E09FED344A22EE040A23EE042A9FED68
:10309000333A30EE024AB4EEC34AF1EE10FA07DDDD
:1030A00080EE040A82EE042A20EE030A22EE032AAE
:1030B00010B533EE423A00F0070033EE403A411EBD
:1030C00023EE011A0529BCEEC11A11EE10CAB8EEA2
:1030D000411A32EE011ABCEEC11A11EE10EAB8EE36
:1030E000411A30EE010ABCEEC00A0BD810EE100AED
:1030F00073466246DFE801F0030D1C111519724694
:10310000634615E041F2941241F2941341F2941097
:103110000EE00346624670460AE002467346604689
:1031200006E002466346704602E003467246604689
:1031300040F23441C4F201010A604B60886010BD66
:10314000D7B3DD3FD7B3DDBF000000003861A2C3B5
:10315000386122C3386122433861A24300A08C4504
:1031600041F2E02041F258314CF67302C2F2000005
:10317000C2F20001C3F29F42808CC0F1040000EE55
:10318000100A10F1110FB8EEC01A0A6041F2543162
:1031900045F65432C2F20001C3F6EA220A6041F257
:1031A0005C3140F63142C2F20001C3F6C3320A601C
:1031B00029DC9FED752A9FED754A9FED755A9FEDAD
:1031C000756ABBEE003A00BF31EE020AB4EEC30AE4
:1031D000F1EE10FA19DA31EE040AB4EEC30AF1EE98
:1031E00010FA12DA31EE050AB4EEC30AF1EE10FA63
:1031F0000BDA31EE061AB4EEC31AB0EE410AF1EE64
:1032000010FAE1DB01E0B0EE410AB3EE001AB4EED1
:10321000C10AF1EE10FA02DAB0EE406A26E09FED44
:103220005E2A9FED5E3A9FED5E4A9FED5E5A00BFBB
:1032300030EE026AB4EEC16AF1EE10FA16DB30EE3F
:10324000036AB4EEC16AF1EE10FA0FDB30EE046AE5
:10325000B4EEC16AF1EE10FA08DB30EE050AB4EE06
:10326000C10AB0EE406AF1EE10FAE1DAF0B581B0D1
:103270002DED048B41F2DC26BDEEC60A9FED4B2AF4
:10328000C2F2000610EE107A9FED470AB6F9000070
:1032900039B201EE101A0A1AB8EEC11A03EE102A5A
:1032A00021EE008A3A04B8EEC30A012A00EE028A2F
:1032B00002DB814203DC13E092B1814210DAA1EB20
:1032C000400041F2DE219FED3A0AC2F20001B1F95D
:1032D0000010084401EE100AB8EEC11A01EE008A8F
:1032E00018EE100A02F0FAFA044641F2DE209FEDD1
:1032F000200B0D463780C2F20000078053EC102BE4
:10330000204602F024FB9FED2B9A10B1B0EE498AC3
:103310000BE09FED190B2046294653EC102B02F0D1
:103320001DFB002808BFB0EE498A18EE100A02F013
:10333000D5FA9FED130B53EC102B02F0D1F99FED52
:103340001E0A28EE000ABDEEC08A02F0A7F841F27C
:103350006031C2F20001086018EE100A40F22C4100
:103360000138C4F201010860BDEC048B01B0F0BD6E
:10337000008067F5FF7F4B40008067F5FF7F464088
:103380008DEDB5A0F7C6B03E0000004200008042BF
:103390000000C04200000043000000C2000080C2E4
:1033A0000000C0C2000000C373C89F34545BEA3AF7
:1033B000310CC33B000048420000B44241F2E0201F
:1033C00041F2B0219FED691A0022C2F20000C2F260
:1033D000000190ED063A91ED032A91ED020A4A6050
:1033E00023EE013A32EE031A81ED003AB4EEC10A3F
:1033F000F1EE10FA06DA33EE421AB4EEC10AF1EE3B
:1034000010FA03DCB0EE410A81ED021A41F2843277
:10341000C2F2000292ED001AB5EEC01AF1EE10FAF7
:1034200007DAAFBF91ED041A8A6901EE102A0A612A
:1034300003E04A6901EE102A0A6180B52DED048B84
:1034400041F2603190ED073A90ED042A9FED485A21
:1034500045F69422F8EE002AF0EE083ADFED464AEF
:10346000DFED466AC2F20001C0F6000291ED004AAB
:1034700023EE011A01EE042A22EE051ABDEEC12A3E
:10348000B5EEC01A12EE100AF1EE10FA9FED392ACD
:10349000B8BF013803EE100AB8EEC33A31EE431A52
:1034A00021EE021ABDEEC12A12EE100A00F18001CF
:1034B0006FF35F206FF35F2107EE100A02EB8101CB
:1034C000B8EE477A91ED002A91ED013A02EB8001C6
:1034D00031EE471A41F2842091ED004A91ED015AF4
:1034E000C2F2000032EE026A73EE421AF1EE440AB2
:1034F00033EE066A71EEA17A75EE445A61EEA31AB4
:1035000033EE023A70EEC50A14EE225A50EEA67A55
:1035100045EE241A75EEA52A26EE246A47EE811A96
:1035200053EE262A05EEA36A21EE815A22EE263AB0
:1035300002EE816A04EE665A06EE013A05EE012AB1
:1035400003EE014A24EE408A22EE009A80ED038ABF
:1035500080ED049AFFF704FEB0EE480AF0EE490A47
:10356000BDEC048BBDE880402CE500BFDE0A013BCA
:10357000610B363B00000044DB0F49BCDB0F493CCC
:1035800041F25030C2F200000078012818BF7047A5
:1035900041F2883141F26030C2F20001C2F2000013
:1035A00091ED003A41F2843190ED000A41F2D820C9
:1035B000C2F20001C2F2000091ED001A20EE033ABF
:1035C00090ED002A31EE434AB4EEC42AF1EE10FA2F
:1035D00002DA32EE031A08E033EE014AB4EEC42AEE
:1035E000F1EE10FAC8BF32EE431A41F28C3141F2CB
:1035F000E02280ED001A41F2B020C2F20001C2F2D6
:103600000002C2F2000092ED032A41F2903291EDE5
:10361000004A41F2D421C2F20002C2F2000131EEAE
:10362000425A91ED003A92ED006A9FED0F2A24EE86
:10363000054A03EE064A05EE003A81ED003AB4EE83
:10364000C23A80ED024AF1EE10FA09DA9FED072A3C
:10365000B4EEC23AF1EE10FAD8BF81ED002A7047FD
:1036600081ED002A704700BFD253FB41D253FBC10A
:1036700070B582B0182645F688244FF00040C4F299
:103680000206C0F600043060204601F0A3FB4EF2B3
:1036900010054FF400403060CEF20005286801901C
:1036A000019802202968C90300EBE17078B129680C
:1036B000C90300EBE17050B12968C90300EBE17068
:1036C00028B12968C90300EBE1700028EAD14FF066
:1036D00000403060A01C01F07DFB4FF400403060E2
:1036E00028680190019802202968C90300EBE17065
:1036F00078B12968C90300EBE17050B12968C903AA
:1037000000EBE17028B12968C90300EBE1700028E3
:10371000EAD14FF000403060201D01F05BFB4FF418
:103720000040306028680190019802202968C90390
:1037300000EBE17078B12968C90300EBE17050B18A
:103740002968C90300EBE17028B12968C90300EBBF
:10375000E1700028EAD14FF000403060A01D01F078
:1037600039FB4FF400403060286801900198022036
:103770002968C90300EBE17078B12968C90300EB3F
:10378000E17050B12968C90300EBE17028B12968E4
:10379000C90300EBE1700028EAD14FF0004030602F
:1037A00004F1080001F016FB4FF400403060286877
:1037B00001900198022000BF2968C90300EBE17065
:1037C00078B12968C90300EBE17050B12968C903D9
:1037D00000EBE17028B12968C90300EBE170002813
:1037E000EAD102B070BD00BF2DE9F04782B040F6CB
:1037F0001849002048F22108ADF80400C4F202097B
:103800004FF48020C9F8000048F22100FEF760FF65
:1038100040F20046C4F20206306820F44060306096
:103820003068306001A8FEF7ABFF41F2E027C2F23A
:10383000000707F1260A5046FEF7A2FF042041F2D6
:103840006C319FED7D0A9FED7D1AC9F80000C2F230
:103850000001306820F440603060306840F400605F
:103860003060BDF804006FF3DF3002EE100AB8EEEE
:10387000422A0A880880388022EE000A22EE011AC5
:10388000811A6FF4804287ED010A87ED021A914296
:1038900002DC01F5004104E0B1F5804FC8BFA1F59D
:1038A000004141F208329FED662AC2F2000292ED19
:1038B000000A82ED001A41F26832C2F2000231EED3
:1038C000400A1368B4EEC20A1944F1EE10FA11600E
:1038D00004DD9FED5E1A30EE010A0AE09FED591AF1
:1038E000B4EEC10AF1EE10FABCBF9FED571A30EEEC
:1038F000010A41F20C3241F2603541F210334AF6CE
:10390000AB2C9FED543AC2F20002C2F20005C2F2A3
:103910000003CAF6AA2C117895ED001A03EB810377
:1039200080EE010A93ED002A83ED000A4B1C398CCE
:10393000A3FB0C54A50841F22834401AC2F200043B
:1039400005EB450504EE100A94ED001AA3EB4500C3
:1039500031EE421A9FED3E2A31EE000AB8EEC41A4B
:10396000107041F22C3041F23032C2F2000021EEF0
:10397000031A9FED393AC2F2000220EE024A84EDAA
:10398000000A017887ED034A87ED041A20EE030A46
:1039900002EB8102013192ED001A82ED000A41F240
:1039A0004832A1FB0C35C2F20002AB0892ED003A9E
:1039B00003EB4303A1EB430133EE411A9FED273A9A
:1039C0000170002031EE000AADF806004FF48020AF
:1039D00020EE021A20EE032A82ED000A87ED061A75
:1039E00087ED072AC9F8000008F1300080B2FEF721
:1039F0006FFE306820F440603060306830600DF158
:103A00000600FEF7BDFE5046FEF7BAFE0420C9F8D8
:103A10000000306820F440603060306840F400609E
:103A20003060BDF80600400AB884F88C000BF884BA
:103A300002B0BDE8F08700BF0000343CDB0F49391D
:103A4000DB0F4940DB0F49C0DB0FC940DB0FC9C0AA
:103A5000ABAA2A3E3B819D3D5655953FEBC9184187
:103A60002DE9F0470C6894FAA4F2B2FA82F234FA23
:103A700002F352D04FF001084FF0030C4FF00F0E3D
:103A800008FA02F314EA030942D099FAA9F34E683E
:103A90000568B3FA83FA4FEA4A070CFA07F406FA04
:103AA00007F3A5432B430360E343741E012C05D8A1
:103AB0008C688568BC401D402C4384600C69C568D7
:103AC000022E04FA07F403EA050343EA0403C36081
:103AD0001ED14B69BAF1070F0AD84FEA8A04056A6A
:103AE000A3400EFA04F425EA0404234303620FE022
:103AF0004FEA1924456A94FAA4F4B4FA84F4A400B1
:103B0000A3400EFA04F425EA04042343436200BFF1
:103B10000C68013234FA02F3B2D14A68013A012A40
:103B200088BFBDE8F087C96842686143A24311437A
:103B30004160BDE8F08700BF10B586B00446C8B349
:103B4000206C002840F08F80002042F20022059077
:103B5000CDE90300CDE90100C4F2010221689142E0
:103B60002BD042F20010C4F20100814241D042F257
:103B70000000C4F20100814272D143F630010020FE
:103B80000090C4F202014A6942F480724A614A69B3
:103B900002F480720092009A00900A6842F00402D7
:103BA0000A60096801F00401009100990321029163
:103BB00002213AE0012006B010BD43F6300100902A
:103BC000C4F202014A6942F480624A614A6902F41D
:103BD00080620092009A00900A6842F004020A6033
:103BE000096801F004010091009903210291082164
:103BF0001BE043F6300100200090C4F202014A6944
:103C000042F400724A614A6902F400720092009A1A
:103C100000900A6842F004020A60096801F0040199
:103C2000009100990321029104210191039040F633
:103C3000000001A9C4F2020001F09CFA4EF60C50FB
:103C40000021CEF2000000684EF21240CEF20000D9
:103C500001704EF200104FF48021CEF2000001609E
:103C60000020E0636064206C10F0100F3AD1206CEB
:103C700041F202110123C0F60073884340F00200B4
:103C8000206442F20430C4F20100016821F44031A2
:103C9000016061680268114301602068416821F495
:103CA000807141602169426842EA012141604168B6
:103CB00021F040714160A168426811434160816810
:103CC00021F400618160E168826811438160A16A2A
:103CD000826822F0706299428260826804D122F088
:103CE00040510AE001204FE011438160816821F0DA
:103CF00040518160E16A826811438160816821F0EE
:103D000002018160A169826842EA41018160226A00
:103D1000416882B141F400614EF200024160CFF689
:103D2000FF72416821F460414160616A02EB4131F8
:103D30004268114301E021F4006141600022C16A40
:103D4000CFF6F07221F47001C162E16902EB01511A
:103D5000C26A1143C162816821F400718160216BE4
:103D6000826842EA41218160816821F4806181603A
:103D70006169826842EA81210122816000206064D9
:103D8000216C62F3010121640021E16306B010BDE2
:103D900070B581B000220092C26B012A01D10221CC
:103DA0004AE00122C263D1F800E01FFA8EFCBEF1A6
:103DB0000A0F4FEA4C0212FA8EF204D303681E3A3D
:103DC00003F10C0402E0036803F1100407252668E0
:103DD000954026EA050525608D6805FA02F22568FA
:103DE0002A4322604A68062A05D802EB820203F1C0
:103DF0003401053A0BE002EB82040C2A87BF03F181
:103E00002C01A4F1410203F13001A4F123021F248B
:103E10000D6894400CFA02F225EA04040C600E6866
:103E200032430A6042F20431C4F20101A1F5417249
:103E3000934204D00021C163084601B070BDBEF1B9
:103E4000110F10D01222C1F2000296450BD0BEF124
:103E5000120FEFD10A6822F400020A600A6842F4E5
:103E600080020A60E6E70A6822F480020A600A68B3
:103E700042F400020A601221C1F200018E45D9D13C
:103E800040F208014DF68362C2F20001C4F21B3217
:103E90000968A1FB0212910C01EB8101490001E0CC
:103EA00000990139009100990029C3D00099013986
:103EB000009100990029BDD0009901390091009925
:103EC0000029B7D000990139009100990029E7D164
:103ED000B0E700BF81B000210091C16B012963D020
:103EE0000121C16301688A6812F0010F27D18A6835
:103EF0004DF68363C4F21B3342F001028A6040F244
:103F00000802C2F200021268A2FB03239A0C02EB21
:103F1000420201E0009A013A0092009A7AB1009AB6
:103F2000013A0092009A52B1009A013A0092009A26
:103F30002AB1009A013A0092009A002AEAD18A68CE
:103F400012F0010F30D0026C43F2010342F2000C78
:103F5000C4F2010C9A4342F480520264026C12F4DF
:103F6000807F04BF002242640022C2636FF004001D
:103F70000860486840F080004860DCF804338868D6
:103F80004A6800F4401002F4806213F01F0F09D059
:103F9000614501BF50EA0200886840F480008860F3
:103FA00001B07047104301D001B07047886840F4F9
:103FB0008000886001B07047C26B012A02BF0221F5
:103FC0000846704770B50122C263D1F800C01FFADD
:103FD0008CFEBCF10A0F4FEA4E0212FA8CF204D3A7
:103FE00003681E3A03F10C0402E0036803F11004B5
:103FF00007252668954026EA050525608D6805FA9F
:1040000002F225682A43226000249A6BCFF6F074EE
:1040100022F440129A630A699D6B04EB0254C2F1C8
:1040200003022C439C634D689E6B2A44D4B2A400C7
:1040300054FA82F21F2494400EFA02F226EA040493
:104040009C639E6B324301269A63C0F20F06CC69D3
:104050009A6822F47022B4429A609A6802D122F4DB
:10406000401409E022439A609A6822F440129A6050
:104070000A6A9E6846EA02049C608A695E6846F4A1
:104080008064002A08BF26F480645C604A695E6828
:1040900046F48054002A08BF26F48054032D5C6047
:1040A00008D0022D09D0012D14BF03F1200203F125
:1040B000140204E003F11C0201E003F11802166887
:1040C00040F6FF75AE431660C9681668314311604B
:1040D00042F20431C4F20101A1F541729342BDE8FC
:1040E000704012D1BCF1110F0BD01222C1F20002AC
:1040F000944506D0BCF1120F07D10A6842F4800241
:1041000002E00A6842F400020A600021C163084626
:10411000704700BF2DE9F04786B040F24C16C2F25E
:104120000006306B00285ED1002700240597CDE9FA
:104130000377CDE90177C4F202043068A4F5CE31EB
:10414000884250D143F6300000974FF0020801AD8D
:104150004FF003094FF0090AC4F20200016941F06F
:1041600000710161016901F00071009100990097EF
:10417000016841F0010101602946006800F001007A
:1041800000900098CDF808804FF400600190012065
:1041900003902046CDF81090CDF814A000F0EAFF6F
:1041A0004FF48050CDF808802946019003A880E89C
:1041B0008006204600F0DEFF4EF60C504FF48012D1
:1041C000CEF2000001684EF20011CEF2000181F83B
:1041D00014730A6000684EF21540CEF200000770BA
:1041E0004FF400100860336841F24C31C2F2000114
:1041F000186820F0020018600A685F68306817F0DD
:10420000020F22D00B689B1A0B2B80F08B80436827
:1042100013F0020F18D00B689B1A0A2B00F2828051
:10422000436813F0020F0FD00B689B1A0A2B79D842
:10423000436813F0020F07D00B689B1A0A2B71D842
:10424000436813F0020FDDD103461A6842F0010201
:104250001A600A68436813F0010F20D130680B68B8
:104260009B1A0B2B64D2436813F0010F17D10B6814
:104270009B1A0A2B5CD8436813F0010F0FD10B680F
:104280009B1A0A2B54D8436813F0010F07D10B680F
:104290009B1A0A2B4CD8436813F0010FDFD0B16989
:1042A0000268371D22F08003012908BF42F0800315
:1042B0000360F169026822F04003012908BF42F05F
:1042C00040030360316A026822F02003012908BF1D
:1042D00042F020030360716A026842F01003012972
:1042E00008BF22F010030360B16A026822F00803DD
:1042F000012908BF42F008030360F16A026822F056
:104300000403012908BF42F0040303608ECF1A435F
:10431000736901393A431A4311430122C1610021F3
:1043200000200AE0706B052240F40031012004E017
:10433000706B052240F4003101207163326306B0D6
:10434000BDE8F08740F24C13C2F200031A68196B03
:1043500003F1340C01399368012909D813F0E05FA7
:1043600009D0C3F30163032B08D14FF4000026E00A
:104370004FF4802023E04FF4001020E002EB031103
:1043800041F27432C2F2000201F5C07C1278002AB8
:104390001CBF0022C5F22002C1F8802141F2783210
:1043A000C2F200021278002A18BF0822C1F8842144
:1043B0004268C1F88C210068C1F888010120DCF84E
:1043C00000100843CCF80000704700BF2DE9F04F03
:1043D00081B02DED068B88B040F24C10C2F2000087
:1043E0000068D0F814A0416802911AF0010F8768A4
:1043F000C468016903918169009101D1002546E0FB
:10440000F90724D001218160B8071ED478075ABF6C
:104410004FF4805000EA47254FF40065F80519D5A0
:1044200040F24C104FF48071C2F2000000688160CD
:10443000B80525D478055ABF07F4006045EAC005E1
:1044400045F40055F80307D421E0FEF7B3F8002542
:10445000F805E5D4F8031AD540F24C104FF480313A
:10446000C2F2000000688160B8030ED478034FBF29
:1044700045F400454FF4803000EAD700054306E0DC
:10448000FEF798F8F803E7D401E0FEF793F840F25E
:104490004C175FEA0A70C2F2000707D514F010004B
:1044A00004D03868102145F40075C1605FEA4A7095
:1044B000019505D514F008001EBF38680821C160B9
:1044C0005FEA8A7040F174813868C16811F0030FA7
:1044D00000F06E8145F2491445F6500541F27C39F1
:1044E00040F2841B40F220469FED2A8A9FED2A9AD3
:1044F0009FED2AAA07F13408C4F20004C4F20005B3
:10450000C2F20009C2F2000BC4F20106396B013994
:10451000012945D8014651F80C2F12F0030F42D063
:10452000D0F8B031D0F8B02113F0040F04BF520D11
:10453000C9F80020D0F8B021D0F8B421D0F8B421C7
:10454000D0F8B421D0F8B8218BF80020D0F8B821E9
:10455000120A8BF80120D0F8B821120C8BF8022037
:10456000D0F8B821120E8BF80320D0F8BC218BF8BC
:104570000420D0F8BC21120A8BF80520D0F8BC2109
:10458000120C8BF80620D0F8BC01000E8BF8070047
:1045900020200BE0DB0F49390000A04A00B07F4F1C
:1045A0004FF4802001E04FF4001041460A681043A8
:1045B0000860D9F80000B0F5407F25D040F2013105
:1045C000884240F0E980DBF8000045F2496188420A
:1045D0002BDC44F64C7188424CDD44F64D71884228
:1045E00064D045F25301884200F0828045F25021A8
:1045F000884240F0D18041F26831DBF80400C2F219
:1046000000010968081A89E045F64F01DBF800004F
:10461000C4F20001884214DCA04241D045F2551199
:10462000C4F20001884217D0B6E045F25411C4F23A
:10463000000188422EDD45F25511C4F20001884286
:104640000AD0A84210D045F65601C4F200018842B3
:1046500040F0A280A81D01E004F10C0040F24811D6
:10466000C2F20001086097E040F24810C2F2000078
:10467000056091E044F2501188424CD044F241313F
:10468000884240F089809BED010A41F28830C2F2F5
:1046900000007BE045F24A61884245D0A0427BD1D0
:1046A00040F24810C2F20000046075E041F284302C
:1046B0000021C2F200000160DBF80410306801291B
:1046C0003ED140F001003060306840F010003060B2
:1046D000306840F480703060306840F00400306032
:1046E000306840F040003060306840F480603DE069
:1046F0009BED011AB0EE490AB4EEC91AF1EE10FAB8
:104700003CDAB4EECA1AB0EE4A0AF1EE10FAD8BF9B
:104710008BED010A34E0DBF80400404241F26431E1
:10472000C2F20001086037E0DBF80400404200EE0E
:10473000100A41F28430B8EEC00AC2F2000027E04D
:1047400020F001003060306820F0100030603068E8
:1047500020F480703060306820F0040030603068F1
:1047600020F040003060306820F48060306056F8FF
:10477000140C40F0010046F8140C0DE08BED010A1A
:104780009BED010A41F27030C2F20000B8EE400A1F
:1047900020EE080A80ED000AFDF70CFF386B0138A7
:1047A000012805D83868C16811F0030F7FF4AEAE58
:1047B0005FEA4A6040F18280039ADDE9013912F034
:1047C000100004D03868102143F4806301615FEA6F
:1047D0008A6005D512F008001EBF38680821016103
:1047E0005FEACA6044BF386800695FEA8A3005D56D
:1047F00019F010001EBF3868102141605FEACA300E
:1048000005D519F008001EBF3868082141605FEA2D
:104810000A4027D55FEA497021D5009A0AF48070D2
:1048200002EA102012F0020F40EA0300014618BF0E
:1048300041F002011AF4007F08BF014612F0040F94
:104840000B4618BF43F004031AF4806F08BF0B46F1
:104850001AF4006F18BF12F0700040F0CA81386877
:1048600004214160002B00F09A82786B40F200082E
:104870004322C2F20008184346F2A023786341277E
:10488000C0F60003D8F80010481CC8F800000A70F1
:10489000002200BF8E1877709F18BD7865B1B57083
:1048A000FD789DB1F5703D7995B17F790432043082
:1048B0003571002FEED1881801300AE0039ADDE946
:1048C00001395FEA8A603FF585AF89E7023000E091
:1048D000033040F24C14C8F80000C2F20004FDF7A7
:1048E000E3FFD8F80030D4F834C0BCF1FF3F05DD59
:1048F000BCF1000F00F0BF80002204E02D20CCF1BD
:10490000000C012218704CF6CD4900244FF0030A28
:104910006FF006070E266FF0050B4FF000080093AE
:10492000CCF6CC49C8F10E01C8F10F00CE46039475
:10493000029200F003000329019101D2012124E039
:104940000AF0030401213D4604EB0509B9F1040F07
:104950000ED0B9F1000F0ED019F1040210D00022D0
:104960001035C6F6C17251436219082AECD10CE029
:1049700042F2107208E04EF20012C0F2F55203E06B
:1049800041F20002CDF2A542514301284FF47A7062
:10499000F14608BF0A204843BCFBF0F0A0FB0E1410
:1049A000E10801EB8101A0EB410028B1009B029AD4
:1049B00040F0300006E000BF039C009B029A012CEF
:1049C00003D13020985401320124B8F10E0F01D1E7
:1049D00001202FE00198039400F0020EC8F10D00B1
:1049E000032801D201201FE006F0020401205D46E9
:1049F000611904290BD069B1043110D000211035A0
:104A0000C6F6C171484361190829F1D10CE042F2A0
:104A1000107108E04EF20011C0F2F55103E041F2CE
:104A20000001CDF2A5414843BEF1000F039C1CBF1D
:104A300064214843BCFBF0F0A0FB0915E90801EB39
:104A40008101A0EB410018B140F0300003E000BF4D
:104A5000012C03D1302098540132012408F10208BE
:104A60000BF1020B023E02370AF1020AB8F1100FF5
:104A70007FF458AF02E0302001221870981840F2FD
:104A800000060A240130C2F2000630609C54FDF793
:104A90000BFF40F204053168C2F200052868091ACC
:104AA00089B200F09FFA40F2DC232A6840F6AC217C
:104AB000C2F20003C2F200019A4218BF1946002850
:104AC000296031601ED044F64450C5F6417008603C
:104AD00047F24250C6F26660486047F26520C4F66D
:104AE0005F70886046F27650C6F27260C86046F623
:104AF0006C70C0F67750086101F115000C753060DC
:104B0000FDF7D2FE40F28C1041F2111840F24C1722
:104B1000C2F20000C0F21108C2F2000701884A1C6C
:104B200064290280CDF814807D6B049539D8023158
:104B30000180386B022857D13868016841F00101C3
:104B4000016041F24C31C2F200010A68436813F07F
:104B5000010F20D138680B689B1A0B2B56D2436883
:104B600013F0010F17D10B689B1A0A2B4ED843681C
:104B700013F0010F0FD10B689B1A0A2B46D843681C
:104B800013F0010F07D10B689B1A0A2B3ED843681C
:104B900013F0010FDFD0016821F002010160012054
:104BA00039E040F22040C4F20100016821F0010127
:104BB0000160016821F010010160016821F4807139
:104BC0000160016821F004010160016821F04001E9
:104BD0000160016821F48061016050F8141C41F00B
:104BE000010140F8141CDAE0786B40F4801078631F
:104BF00012E010380009052800F2E580DFE800F037
:104C000003D5D8DBDEE143F00803DCE0786B40F449
:104C1000003078630520386345F650013868C4F2E7
:104C2000000101F53B61884240F0808000204FF494
:104C30006151C4F20200425822F0007242504FF615
:104C4000104243F60041CFF6FF72C4F201018B58C7
:104C500013F4704F13D18B5823F470438B500A68B0
:104C600022F400620A604A6822F400624A608A689C
:104C700022F400628A60CA6822F40062CA60026894
:104C800022F440020260426A22F470424262826868
:104C900022F440028260426822F400624260C268EC
:104CA00022F44002C2604FF61442CFF6FF728B58D6
:104CB00013F00F0F13D18B5823F00F038B500A689A
:104CC00022F480520A604A6822F480524A608A685C
:104CD00022F480528A60CA6822F48052CA60016855
:104CE00021F040710160416A21F4702141628168C4
:104CF00021F040718160416821F480514160C168B8
:104D000021F04071C1604EF280104FF48011CEF25C
:104D1000000001604FF40011BFF34F8FBFF36F8F9E
:104D20000160BFF34F8FBFF36F8F386801683E4655
:104D300041F400410160002046F8340F3863FFF76A
:104D4000E9F93868102132463C46C160396B4FF4AE
:104D50008027013902294FF480213CBF022100F154
:104D60001402106808430121106041F27430C2F24D
:104D70000000017041F27830C2F20000017006A814
:104D8000CDE90685FFF7DEFA2068216B013902299B
:104D90003CBF012700F1140630683843306008B08A
:104DA000BDEC068B01B0BDE8F08F43F010030AE0C4
:104DB00043F0200307E043F0400304E043F08003A6
:104DC00001E043F480733868816921F070018161EA
:104DD00045E500BF40F29011C2F200010A6D012AC0
:104DE00008BF7047B0B582B041F24C354FF0010CAE
:104DF000C1F850C0C2F200052C684B6D012B40F089
:104E0000E880002800F0E580032301224B650023A1
:104E10008B65CA8608638A868B638B87C1E91033EA
:104E2000CB87D1F808E00B68BEF5004F02BF1A68C7
:104E300042F480421A601A6812F0400F02BF1A68EA
:104E400042F040021A60CA68B2F5006F1AD130F819
:104E5000022BDA60CA8E013ACA86086307E000BFF7
:104E600030F8022BDA600863CA8E013ACA86CA8E0D
:104E700012B39A6812F0020FF2D12A68121B952A17
:104E8000F5D9A6E010F8012B1A73CA8E013ACA862A
:104E9000086306E010F8012B1A730863CA8E013A02
:104EA000CA86CA8E42B19A6812F0020FF2D12A68FD
:104EB000121B952AF5D98CE040F2080049F6817260
:104EC000C2F20000C1F25E620068A0FB0202500D57
:104ED0004FF47A7210FB02F001904868B0F5827FBF
:104EE00048D1986810F0800F68D02868001B962879
:104EF00017D2986810F0800F60D02868001B9528A2
:104F00000FD8986810F0800F58D02868001B95289B
:104F100007D8986810F0800F50D02868001B95289B
:104F2000DFD95868BEF5004F20F0E000586002D08D
:104F3000BEF5806F03D1186820F040001860886AC1
:104F4000B0F5005F07D1186820F4005018601868A9
:104F500040F4005018600120486500200865886D05
:104F600040F02000886520208865BEF1000F2FD119
:104F700027E000BF019808B30198013801909868B4
:104F800010F0800F1AD00198C0B10198013801903B
:104F9000986810F0800F11D0019878B1019801380D
:104FA0000190986810F0800F08D0019830B10198F6
:104FB00001380190986810F0800FDBD1BEF1000F2E
:104FC00006D100200090D868009098680090009862
:104FD000886D00200865C1F854C002B0BDE8B0403B
:104FE000704700BF40F230230246C2F20003D86B84
:104FF00020281CBF02207047002A18BF002901D1B9
:1050000001207047986B012804BF022070472DE9EA
:10501000F041002001262124D98445F2E905586495
:105020001A629E639984DC6345F21114C0F6000590
:10503000D3F830E0C0F60004CEE9105445F215155F
:10504000C0F60005CEE91450DEF83440D3F800C0B5
:10505000012C3BD0DEF85C80CEF83460DEF83850AE
:10506000012D30D102260CF10405CEF8386000265F
:10507000CEF85860DEF80060DEF808703468402F23
:1050800024F4802434607160114608BF2946B16061
:1050900008BF15463F22F560DEF8601002FA01F104
:1050A000C8F80810316841F016013160716941F0AB
:1050B00080017161316841F008013160316841F06F
:1050C0000101316002E00021CEF834106FF04001A0
:1050D000CCF800109863DCF8141041F08001CCF893
:1050E0001410BDE8F08100BF0168C06B096811F4BD
:1050F000807F18BF70470021C1840068416921F09A
:1051000080014161C16841F04001C160704700BF4A
:10511000704700BFC06B01684A69C36B212B0AD17D
:1051200012F0800207D00022C284CA6822F0C002B6
:10513000CA602022C2634A69036C222B0ED112F08E
:1051400040020BD00022C285CA6822F49072CA6065
:105150004A6922F001024A6120210164416C41F058
:1051600010014164704700BFC06B0021C185C1843C
:10517000704700BF2DE9F04F82B041F600030722CF
:1051800043F6004B4FF0010A00264FF0000CC4F22A
:105190000203C4F2010B984200F13E4303F1FF7396
:1051A00008BF06224FEAB327062F4FF0000738BF8B
:1051B0004FEAB322009209E00CF1010C02370436E9
:1051C000BCF1100F04BF02B0BDE8F08F0A680AFA04
:1051D0000CF812EA080FEFD0D1F804E04EF01002FC
:1051E000122A14D106F01C020F2303FA02F44FF620
:1051F000FC73C7F6FF7303EA5C0505442B6AA343FF
:105200000C6904FA02F21A432A62D1F804E003237B
:1052100004680EF00302BEF1120F03FA07F302FA5C
:1052200007F224EA03046FEA030942EA0402026077
:1052300014D80AFA0EF212F0061F0FD08268CB685B
:1052400002EA0902BB401A438260CEF300124368AF
:1052500002FA0CF223EA08031A434260C2688B6820
:1052600002EA0902BB401A43C2605FEACE02A3D53C
:10527000002206F00C050F24019243F64402AC40D4
:10528000C4F202021346126842F480421A601A689D
:1052900002F4804201922CF00302019B5A444FF623
:1052A0000843CFF6FF739E46D358A343009C04FAED
:1052B00005F52B4342F80E30DBF800204D6842EA3A
:1052C000080315F4803F08BF22EA080315F4003FE5
:1052D000CBF80030DBF8042042EA080308BF22EADA
:1052E000080315F4801FCBF80430DBF8082042EAED
:1052F000080308BF22EA080343F60C4215F4001F16
:10530000C4F20102CBF808301446126842EA0803DE
:1053100008BF22EA080323604EE700BF4EF688501C
:105320004FF0000CCEF20000016841F47001016002
:1053300043F60001C4F202010A6842F001020A6069
:10534000C1F808C04FF6FF720B68CFF6F6621A403C
:105350000A6043F21002C2F200424A600A6822F474
:1053600080220A60C1F80CC04FF0006140F8801C38
:10537000704753EA020C00F069802DE9F04B4FF0C2
:105380000006002B1FBFB3FA83F503FA05F424FAD5
:1053900005F65E4012BF1643B2FA82F502FA05F432
:1053A000C5F120051EBF22FA05FC44EA0C04203595
:1053B00056EA044C4FEA144418BF641C4FF000082E
:1053C0004FF00009904271EB030C39D3002919BF4B
:1053D000B1FA81F701FA07F6B0FA80F700FA07F69A
:1053E000C7F120071EBF20FA07FC46EA0C0620374B
:1053F000B6FBF4FCA7EB0507103F07F01F0BCBF142
:1054000020062CFA06F60CFA0BFB44BFB346002626
:10541000202FA4BF5E464FF0000B5BEA060C08BFCE
:105420004FF0010B19EB0B0948EB0608ABFB027CB4
:1054300006FB02CC0BFB03CCC01B71EB0C01C1E7DC
:105440000B46024641464846BDE8F08B13B54FF087
:1054500000004FF00001AFF30080BDE81C40704732
:1054600030380A2801D20120704700207047000020
:1054700010B500290AD00878002807D005487844DC
:10548000FBF75AFB002801D0002010BD02487844E9
:1054900010BD0000520E00004A0E000021F0004234
:1054A00001F00043A2F16052B2F5801F28BFD2F193
:1054B0007F6C0BD95FEA001C43EAC20242EB5070DA
:1054C00018BF704728BF20F001007047B2F5801F59
:1054D000BCBF184670474FEA410C1CF5001F02D2B2
:1054E000084600F0A3BA70B500F0A4F900000089E6
:1054F000FFF7F6BF4FF00040A0F58000704749105D
:1055000058BFC1F140415B1058BFC3F140438B42CB
:10551000EFF300807047000051EA030C17D41CF52C
:10552000801F58BFBCF5801F00F10680994218BF4C
:10553000704708BF9042704707D711F5801F58BFCA
:1055400013F5801F19D499427047894270471CF5A2
:10555000801F08D5BCF5801FF7D58B4218BF704758
:1055600008BF824270474FF4001C1CEB410F38BF4C
:105570001CEB430F01D28B42704770B500F05AF913
:10558000922449004FF000514FF08053FFF7B7BF0E
:105590004FEA41034FEA5353A3F58063D3F11E034F
:1055A000C8BFD3F1210C0CDD4FF0004242EAC1220A
:1055B00042EA505232FA03FC8CEAE17CACEBE17037
:1055C0007047102BC4BF0020704703F5787CBCF1F6
:1055D000FF3F04D06FF0004282EA2100704770B5AF
:1055E00000F028F94992248000207047F2E700007B
:1055F00051EA030C17D41CF5801F58BFBCF5801F5F
:1056000000F10680994218BF704708BF904270476A
:1056100007D711F5801F58BF13F5801F19D4994281
:105620007047894270471CF5801F08D5BCF5801F64
:10563000F7D58B4218BF704708BF824270474FF4BE
:10564000001C1CEB410F38BF1CEB430F01D28B42F7
:10565000704770B500F0EEF8922449004FF0805189
:105660004FF00053FFF74BBF51EA030C17D41CF562
:10567000801F58BFBCF5801F00F10680994218BFFB
:10568000704708BF9042704707D711F5801F58BF79
:1056900013F5801F19D499427047894270471CF551
:1056A000801F08D5BCF5801FF7D58B4218BF704707
:1056B00008BF824270474FF4001C1CEB410F38BFFB
:1056C0001CEB430F01D28B42704770B500F0B2F86B
:1056D000922449004FF000514FF08053FFF70FBF65
:1056E00070B5DFF848C11CEA111E1EBF1CEA131575
:1056F0009EEA0C0F95EA0C0F00F06F8081EA03041C
:105700004EEAD47EAE4421EA4C1123EA4C1341F414
:10571000801143F48013AEF17F7EA1FB024CA0FB0D
:105720000365361955EB0C05A1FB034C4CF1000346
:10573000A0FB021C16EB0C06654153F10003094265
:1057400018BF46F0010613F4007F0BD14FEA033176
:105750004FEA053041EA155140EA165034036FF024
:1057600003020AE04FEAC3214FEAC52041EA55513E
:1057700040EA5650F4026FF0020202EB2E4201EBB7
:10578000025585EACE710AD05FEA440C18BF24F0B6
:10579000004450F1000041F1000120EAD47040F2D1
:1057A000FE7C624500D270BDA84214BF4FF0804419
:1057B0004FF04044002E08BF0024BEF1806FA8BF08
:1057C000A1F1C041BDE8704080F2828001F1C0418A
:1057D00001F000414FF0000070470CEA13159EEAFB
:1057E0000C0F18BF95EA0C0F06D081EA030E4FF09C
:1057F00000000EF0004170BD00F01CF88900013E71
:1058000000F007B800F009B84FEA430C5FEA5C5CAF
:1058100008D081EA030100F05BB84FEA410C5FEA6F
:105820005C5CF6D102494FF0000070470000FF07B2
:105830000000F87F0EF1020E2EF0030E5EF8046BEE
:10584000364205D4012A43EB030515F5001F12D893
:10585000012841EB010C1CF5001F0CD80ED14FEABA
:10586000D17C0CEB4C0C0CF1020C15F5001F08BFA1
:105870004CEBD37C04E04FF0080C01E04FEAD37C02
:105880000CEB4C0526FA05F606F00706B6F1040CFB
:1058900006D20EEB860CBDE870404CF0010C604760
:1058A000DFE80CF0090B02024FF00041A1F50021E6
:1058B0004FF0000070BD19461046012851EB01045D
:1058C00018BFD4F5001484BF002001F0004170BD62
:1058D0000808A0F500114FEA3101704743004FEA74
:1058E000D30C4FEA3C0C43401FBF40070CF1605102
:1058F00013F0FE4F70471CF0006F03D10CF0004115
:10590000002070470CF0004343EA507040EACC009E
:1059100010B500F038F800BF000000924FEA000117
:10592000FFF7D6BF4FF00041A1F500214FF0000076
:10593000704710B5FFF7F0FD0CBF0120002010BD2F
:1059400010B5FFF7E9FD14BF0120002010BD10B510
:10595000FFF74EFE8CBF0120002010BD10B5FFF7F1
:1059600047FE2CBF0120002010BD10B5FFF77CFEC4
:1059700094BF0120002010BD10B5FFF775FE34BFA5
:105980000120002010BD0EF1020E2EF0030E5EF875
:10599000044B244204D44FEA4102B2F17F4F11D8A4
:1059A0004FEA4003B3F17F4F0CD80ED14FEAD07CC1
:1059B0000CEB4C0C0CF1020CB2F17F4F08BF4CEB1E
:1059C000D17C04E04FF0080C01E04FEAD17C0CEBF5
:1059D0004C0324FA03F404F00704B4F1040C06D2D7
:1059E0000EEB840CBDE810404CF0010C6047DFE882
:1059F0000CF0070802024FF00040A0F5800010BD37
:105A00000846420018BFD2F1807288BF00F0004003
:105A100010BDF1EE100A4FF6FF71C0F2C03120EA5E
:105A2000010040F04070E1EE100A7047FF2141EAAA
:105A3000D050C005704700000000000000000000CA
:105A400030313233343536373839414243444546B4
:105A500040305800303132333435363738396162AE
:105A600063646566403078000400000800000000B0
:105A7000000000020001000010000000008000880B
:105A80000090009800A000A80011661B33245F2C32
:105A90000000000000000000920E493CB10AC93C21
:105AA0002BC3163D2EFB483D752B7B3D04A9963D2F
:105AB00080B6AF3D36BDC83D2FBCE13D73B2FA3D67
:105AC00087CF093E8340163EB5AB223EA2102F3E43
:105AD000CF6E3B3EC2C5473E0115543E135C603E4F
