:020000040800F2
:10000000201A002005030008992E00089D2E0008E4
:10001000A12E0008A52E0008A92E0008000000004F
:10002000000000000000000000000000AD2E0008ED
:10003000B12E000800000000B52E0008B92E0008FF
:100040001F0300081F0300081F0300081F03000808
:100050001F0300081F0300081F0300081F030008F8
:100060001F0300081F0300081F0300081F030008E8
:100070001F0300081F0300081F0300081F030008D8
:100080001F0300081F030008913300081F03000826
:10009000C92E0008CD2E00081F0300081F0300080A
:1000A0001F0300081F0300081F0300081F030008A8
:1000B0001F0300081F0300081F0300081F03000898
:1000C0001F0300081F0300081F0300081F03000888
:1000D0001F030008D12E00081F0300081F0300089B
:1000E0001F0300081F0300081F0300081F03000868
:1000F0001F0300081F0300081F0300081F03000858
:100100001F0300081F0300081F0300081F03000847
:100110001F0300081F0300081F0300081F03000837
:100120001F0300081F0300081F0300081F03000827
:100130001F03000800000000000000001F0300086B
:100140001F0300081F0300081F0300081F03000807
:100150001F0300081F030008A93100081F0300083F
:100160001F0300081F0300081F0300081F030008E7
:100170001F0300081F0300081F0300080000000001
:10018000000000001F030008000000000000000045
:100190001F03000800000000000000001F0300080B
:1001A0000000000000000000000000001F03000825
:1001B0001F0300081F0300081F0300081F03000897
:1001C0001F03000800F002F800F08DF80AA090E884
:1001D000000C82448344AAF10107DA4501D100F002
:1001E00082F8AFF2090EBAE80F0013F0010F18BF42
:1001F000FB1A43F0010318473081000050810000D2
:10020000103A24BF78C878C1FAD8520724BF30C842
:1002100030C144BF04680C60704700000023002414
:1002200000250026103A28BF78C1FBD8520728BF06
:1002300030C148BF0B6070476E2900F045817029BE
:1002400000F087826629AFF300806529AFF3008054
:100250006729AFF300806129AFF3008003681B0AB0
:1002600028BF41F08001692900F0F280642900F084
:10027000EF80752900F0EC806F2900F01582782955
:1002800000F05382E92900F0AF81E42900F0AC814D
:10029000F52900F0A981EF2900F01282F82900F079
:1002A00052820368DB0928BF41F08001632900F016
:1002B000CB83732900F0D083E32900F0DB83F3299B
:1002C00000F0E083002070471FB507F0D2FB00F07C
:1002D0003DFC04000020002107F018F9401C60607C
:1002E0001FBD10B510BD00F0F9FB1146FFF7ECFF84
:1002F00000F07AFC00F020FC03B4FFF7F2FF03BC2F
:1003000000F068FC0948804709480047FEE7FEE71F
:10031000FEE7FEE7FEE7FEE7FEE7FEE7FEE7FEE7B5
:1003200004480549054A064B704700004173000820
:10033000C501000820140020201A002020160020EB
:10034000201600200FB41CB5084B06AA7B44694652
:100350000090059800F0D1F804460020694600F0AE
:10036000DFF820461CBC5DF814FB0000D101000042
:1003700070477047704710B500F0BAFA006810BDBA
:1003800010B5044600F0B4FA046010BD70B5044620
:1003900085690068C10601D5302600E02026C00727
:1003A00007D070BDD4E9012130469047206A401C37
:1003B00020626D1EF6D570BD70B504468569007863
:1003C000C00707D170BDD4E9012120209047206AE1
:1003D000401C20626D1EF6D570BD09684A0501D526
:1003E00040B27047C905FCD500B2704709684A059C
:1003F00001D5C0B27047C905FCD580B2704770B551
:100400000C460546012A05D02878800600D5EA6901
:10041000002302E0012305E05B1C934202D2E05C72
:100420000028F9D1A869E618C01AA861286A1844FA
:1004300028622846FFF7AAFF04E0D5E9012114F855
:10044000010B9047B442F8D32846FFF7B5FF70BDC3
:100450002DE9F0410646002410687529314616A59D
:1004600010D0FFF7BAFF002802DA404213A507E0D8
:1004700031688A0701D512A502E0490704D511A504
:10048000012401E0FFF7B2FF00210A2206F1240750
:1004900009E0B0FBF2FCB0FBF2F302FB1C003030D1
:1004A00078541846491C0028F3D123462A46304682
:1004B000BDE8F04100F065BA000000002D0000002A
:1004C0002B0000002000000011680268006A53053C
:1004D00001D508700AE0D30501D5088006E01306AF
:1004E00003D5C217C1E9000200E00860012070478F
:1004F00001694A1C02610878704700B58FB0CDE9E8
:1005000001310021059105497944CDE903101146D7
:10051000684600F029F90FB000BD0000E5FFFFFFBD
:100520000A6802F8010B0A60704700002DE9FF5FBE
:1005300015468A460446DFF8AC80F8440027D8E91F
:1005400000103E46CDE9001010E05AF826106A4629
:1005500002A800F09BFA411C07D02178890603D538
:10056000E269391891420DD80744761C207880063C
:1005700002D5E069B84205DDAE42E6DB5AF8260056
:100580000028E2D1A069C01BA0612046FFF7FEFE53
:10059000D8E90010CDE90010002017E05AF8281023
:1005A0006A4602A800F072FAB0F1FF3F81460BD014
:1005B00000250DF1080B05E0D4E901211BF8050029
:1005C00090476D1C4D45F7D308F10100B0428046BD
:1005D000E4DB206A384420622046FFF7EDFEBDE8E8
:1005E000FF9F00005A7500002DE9F0418046D21DA2
:1005F00022F007020025D2E90002F52915A614D041
:10060000011E72F1000106DA0023D0EB030063EB58
:10061000020211A608E0D8F800108B0701D50FA63A
:1006200002E0490701D50EA601251146002408F174
:10063000240704E000F060F930323A55641C50EAB7
:100640000102F7D12B46324621464046BDE8F04133
:1006500000F097B9000000002D0000002B00000002
:100660002000000030B4002100F1240408E002F072
:100670000705D208303542EA4372DB086554491C4D
:1006800052EA0305F3D10468002310A2250708D518
:1006900004F020040C4304D0C46901230CA2641E9E
:1006A000C46130BC00F06DB910B504462146106835
:1006B000FFF79CFE02462046BDE810400023D1E72C
:1006C000D21D22F00701D1E90023CBE70000000092
:1006D00030000000F0B40D460188090502D5214C18
:1006E0007C4402E01F4C7C440E34002100F12406BF
:1006F00008E002F00F071209E75D42EA03721B09E6
:100700007754491C52EA0307F3D1027800231207F9
:1007100004D5702D06D009B1022311342246F0BC55
:1007200000F02FB901231034F8E770B504460D46E8
:1007300021461068FFF75AFE024629462046BDE8CA
:1007400070400023C6E7D21D22F00703D3E900233F
:10075000C0E70368126843F0200303600823C36105
:100760000023B7E7BC7300002DE9F05F894604461B
:100770004FF0000ADFF874B1FB44C0F820A0204617
:10078000E1688847002874D0252806D0D4E90121E3
:100790009047206A401C2062F1E700265F46204611
:1007A000E16888472028054607DB312D05D27819F6
:1007B00010F8200C08B10643F1E7B00701D526F088
:1007C0000406C4F81CA00027C4F818A02A2D09D0DC
:1007D000284606F094FE38B304EB8708303DC8F88D
:1007E000185019E059F8041B204604EB8702916168
:1007F000E1688847012F054618D1E069002820DA12
:1008000026F020061DE0D8F8180000EB800005EB6C
:1008100040003038C8F818002046E168884705468F
:1008200006F06DFE0028EED1012F0AD02E2D08D142
:100830002046E16888477F1C0546022F46F02006C7
:10084000C4DBA069002803DA404246F00106A0613B
:10085000F00701D026F010066C2D0BD0682D09D0C2
:100860004C2D39D06A2D35D0742D35D07A2D33D01A
:1008700016E038E0E1682F4620468847B842054632
:1008800009D16C2F26D04FF48060E16806432046E2
:100890008847054604E06C2F1AD04FF48070064359
:1008A0000DB3A5F14100192802D8203546F40066A1
:1008B0004A462946204626604E46FFF7BDFC80B1D9
:1008C00001280BD0F61D26F0070000F1080956E7B5
:1008D0004020E4E78020D8E70020D6E706F10409AD
:1008E0004DE7284652E7206ABDE8F09F4C730000B0
:1008F000004870471800002030B5B0F10A0271F1CD
:1009000000034FEA900E4EEA817EB0EB0E0061EBE1
:1009100091014FEA101E4EEA017E10EB0E0041EBF2
:1009200011114FEA102E4EEA016E10EB0E0041EB52
:1009300011214FEA104E4EEA014E10EB0E0041EB32
:100940001141401841F100014FEAD00040EA4170E6
:100950004FEAD1014FEA810444EA907410EB80051C
:1009600044EB01046D1944EB0404521BA3414FF006
:10097000000348BF0A3200D530BD401C41F10001E0
:1009800030BD2DE9F0470D4699469246044600F1E8
:1009900024080168880604D5E06921F0100121606F
:1009A00000E00120A84201DD471B00E00027A1690B
:1009B0007A1902EB0900081AA0612078C00602D457
:1009C0002046FFF7E3FC002608E0D4E901211AF8ED
:1009D00006009047206A401C761C20624E45F4DBDE
:1009E0002078C0060AD52046FFF7D0FC06E0D4E9FF
:1009F000012130209047206A401C2062381EA7F158
:100A00000107F4DC07E0D4E9012118F8050090475C
:100A1000206A401C2062281EA5F10105F3DC204657
:100A2000FFF7CAFC2078000602D50220BDE8F08757
:100A30000120FBE710B5436913B1AFF3008001E07B
:100A4000FFF7DDFC012010BD127800F124010A70CF
:100A500000224A700122EDE711684FF0FF32E9E70A
:100A600010B5436913B1AFF3008001E0FFF75EFDFD
:100A7000012010BD126800F124014262002282624E
:100A80000122EDE711684FF0FF32E9E72DE9F0416F
:100A900016460C46054600F047F8036893F8010136
:100AA000012807D0FF2C12D8185D80B101202C70CE
:100AB000BDE8F081D3F807013246214603F207135F
:100AC000C7182846BC46BDE8F041012360474FF0F7
:100AD000FF30EDE700487047180000207546FFF72B
:100AE000F9FFAE4605006946534620F007008546EB
:100AF00018B020B5FFF714FCBDE820404FF0000609
:100B00004FF000074FF000084FF0000BAC46ACE888
:100B1000C009ACE8C009ACE8C009ACE8C00921F0E4
:100B200007018D467047000010B500F00FF8001D5A
:100B300010BD00BFD969000010B50446AFF30080B6
:100B40002046BDE81040FFF7D7BB000000487047C3
:100B5000380000200000000030B44FF0013C50F895
:100B6000042B51F8043BCCFA52F4D51A20D1FCB92D
:100B700050F8042B51F8043BCCFA52F4D51A17D193
:100B8000B4B950F8042B51F8043BCCFA52F4D51AFE
:100B90000ED16CB950F8042B51F8043BCCFA52F446
:100BA000D51A05D1002CDAD030BC4FF000007047C8
:100BB00029BAB1FA81F111F01801D1F12000844075
:100BC000F2D1CA40CB4012F0FF0213F0FF0330BC59
:100BD000D01A704701491820ABBEFEE7260002007C
:100BE00070470000000000002DE9F04F81B02DEDAE
:100BF000108B90B041F2CE3143F6080501204EF63D
:100C00000C5240F2100944F6D3584EF21007C2F2CB
:100C10000001C4F20205CEF20002C2F20009C1F2E4
:100C20006208CEF2000708704FF6FF01D5F8F8030E
:100C300040F40070C5F8F803D5F8F80340F480607C
:100C4000C5F8F803D5F8F80340F48070C5F8F80348
:100C50001068084040F20031C0F2FA5108431060B9
:100C6000D9F80000A0FB08014FF0FF3000EB911114
:100C70000020B0EB116F0BD14EF60C527960F021D1
:100C8000CEF20002D1750721B86039601168D075C5
:100C9000039047F20404E96BC4F2000441F480417C
:100CA000E963E96B01F48041039103990390A96B17
:100CB00041F08051A963A96B01F080510391039920
:100CC0000390A96B41F08051A963A96B01F0805199
:100CD00003910399039054F8040C40F4404044F805
:100CE000040C54F8040C00F4404003900398286866
:100CF00000F00C00042843D0286800F00C000828FD
:100D000004D155F8040C10F4800F39D1286800F094
:100D10000C000C2804D155F8040C10F4800F2FD1CE
:100D200055F8080C40F4803045F8080C41F2783052
:100D3000C2F20000016855F8082C12F4003F21D1DE
:100D40000268521A642A7ED855F8082C12F4003F23
:100D500018D10268521A642A75D855F8082C12F472
:100D6000003F0FD10268521A642A6CD855F8082C3B
:100D700012F4003F06D10268521A642ADBD962E0FD
:100D800055F8080C286800F00C0008285BD060219A
:100D90000020C4F24721086041F27830C2F200001E
:100DA000026855F8083C13F0007F1FD003689B1AB7
:100DB000022B48D855F8083C13F0007F16D0036882
:100DC0009B1A022B3FD855F8083C13F0007F0DD03A
:100DD00003689B1A022B36D855F8083C13F0007FA5
:100DE00004D003689B1A022BDBD92CE042F6045294
:100DF000C2F2402245F8042C01220A60016855F82D
:100E0000082C12F0007F1ED10268521A032A1AD24F
:100E100055F8082C12F0007F15D10268521A022AE8
:100E200011D855F8082C12F0007F0CD10268521A24
:100E3000022A08D855F8082C12F0007F03D1026866
:100E4000521A022ADBD9002041F2783601210390A0
:100E5000C2F20006A86B40F08050A863A86B00F0B7
:100E60008050039003984020C4F20E200160326845
:100E7000236813F4803F20D133689B1AB3F57A7F3F
:100E800041D8236813F4803F17D133689B1AB3F518
:100E90007A7F38D8236813F4803F0ED133689B1AC9
:100EA000B3F57A7F2FD8236813F4803F05D13368D8
:100EB0009B1AB3F57A7FDBD925E041603068216861
:100EC00011F4003F1FD13168091AB1F57A7F1AD8A1
:100ED000216811F4003F16D13168091AB1F57A7F03
:100EE00011D8216811F4003F0DD13168091AB1F50C
:100EF0007A7F08D8216811F4003F04D13168091ABB
:100F0000B1F57A7FDBD9D5F8F80300F00F0004289B
:100F100009D8052085F8F803D5F8F80300F00F008C
:100F2000052840F0D280286840F4E0502860286806
:100F300040F460402860286820F0F000286055F8F0
:100F4000080C10F0007F00F0C0802868022161F3D7
:100F5000010028603068296801F00C0108292BD1B4
:100F6000D5F8F80300F00E00062809D3052085F80F
:100F7000F803D5F8F80300F00F00052840F0A5802D
:100F80002868052161F38C2004212860286861F31A
:100F90004F3028602868C0F3810142F20040C0F25F
:100FA000F400032943D002292ED0012904BF41F2C5
:100FB0000020C0F27A0069E041F288313268121AEA
:100FC0008A4200F282802A6802F00C02082AC7D006
:100FD0003268121A8A4278D82A6802F00C02082A6B
:100FE000BED03268121A8A426FD82A6802F00C0208
:100FF000082AB5D03268121A8A4266D82A6802F0E6
:101000000C02082ADAD1ABE755F8041C55F8043C69
:1010100001F03F0255F8041C13F4800FC1F388114E
:1010200018D1A1FB0001002306F0B5F919E055F82D
:10103000041C55F8043C01F03F0255F8041C13F45D
:10104000800FC1F3881114D1A1FB0001002306F029
:10105000A2F915E041F20020C0F27A004843B0FB4B
:10106000F2F055F8041C0222C1F3014102EB4101E8
:101070000AE041F20020C0F27A004843B0FBF2F0EF
:1010800055F8041CC1F30271B0FBF1F029680FF6AA
:101090002C62C1F30311515CC840C9F80000A0FBE9
:1010A00008014FF0FF3000EB91110020B0EB116F01
:1010B0000BD14EF60C527960F021CEF20002D175C0
:1010C0000721B86039601168D0754FF0000B182106
:1010D0004FF400494FF0040A012603AC4FF0020818
:1010E000CDF820B0C4F20201A86A40F08000A862E6
:1010F000A86A00F080000C900C98A86A40F00400E8
:10110000A862A86A00F004000C900C98A86A40F04D
:101110000100A862A86A00F001000C900C98A86A6F
:1011200040F00200A862A86A00F002000C900C983F
:10113000A86A40F00800A862A86AA1F1180500F0AA
:1011400008000C900C984FF0807008604FF48000FD
:10115000C1F8000440F61840C1F800902146C4F2DE
:101160000200C0F800A04FF4807004960390284657
:10117000CDE905BBCDF81C80029504F057FB28464D
:101180002146CDE90396CDE9058B0796254604F067
:101190004DFB182404A8CDF80CA043F6080A2946F4
:1011A000C4F2020480E84009C4F2020A079604F679
:1011B000E83004F03BFB4FF0400904962946CDF897
:1011C0000C90CDE905BBCDF81C8004F57A7840463B
:1011D00004F02CFB4FF480702946CDE9030B404608
:1011E000079604F023FBCDF80CB047F2040140F25F
:1011F00020430224032503AEDAF82800C4F20001DC
:10120000C4F201030A4640F48000CAF82800DAF864
:10121000280000F48000039003984EF60C50CEF2A4
:10122000000000684EF22540CEF2000080F821B0A8
:10123000C7F8F890CDE907BBCDE905BBCDE903BB05
:10124000DAF83C0040F00200CAF83C00DAF83C0052
:1012500000F002000C900C9849F2FC30095821F47F
:101260005C7141F04001115041F29411D960C3F812
:1012700008B0C3F810B053F80C1C41F0010143F85A
:101280000C1C115821F08001115044F2070153F851
:10129000180C884343F8180C53F8080C40F0080069
:1012A00043F8080C186820F001001860186853F81B
:1012B0001C1C53F8082C21F4407120F00F0043F857
:1012C0001C1C22F0730141F0600143F8081CC3F8B4
:1012D00014B0186053F8080C20F0040043F8080C10
:1012E00053F8080C40F4006043F8080C186820F02C
:1012F00010001860186853F81C1C53F8082C21F4CF
:10130000406120F0F00043F81C1C22F4E64141F457
:10131000C04143F8081CC3F818B0186053F8080C13
:1013200020F4806043F8080C53F8040C40F00800E7
:1013300043F8040C186820F480701860186853F89B
:101340001C1C53F8042C21F4405120F4706043F825
:101350001C1C22F0730141F0600143F8041CC3F827
:101360001CB0186053F8040C20F0040043F8040C7F
:1013700053F8040C40F4006043F8040C186820F49F
:1013800080501860186853F81C1C53F8042C21F482
:10139000804120F4405043F81C1C22F4E64141F403
:1013A000C04143F8041C41F28811196218603146AB
:1013B00053F8040C20F4806043F8040C53F81C0C20
:1013C00020F0700043F81C0C53F8180C20F080003B
:1013D00043F8180C4FF480405862DAF8280040F0C7
:1013E0000100CAF82800DAF8280000F001000C908B
:1013F0000C98DAF8280040F00200CAF82800DAF861
:10140000280000F002000C900C98DAF8280040F058
:101410000400CAF82800DAF8280000F004000C9054
:101420000C98802003900494CDE9055BCDE9074535
:10143000029804F0FBF94FF4404003A981E8310819
:101440004046314607940224089504F0EFF94FF422
:10145000E07003A981E8310818203146CDE907453D
:10146000C4F2020000F5FD60019004F0DFF9DAF843
:101470003C0004A903AE4FF00509444640F48050F7
:10148000CAF83C00DAF83C0000F48050039003985E
:10149000DAF8280040F00200CAF82800DAF828003C
:1014A00000F002000390039808200390022081E8D6
:1014B0002108079040463146CDF820904FF00108B2
:1014C00004F0B4F902203146049030200390204605
:1014D000CDE9055BCDE9078904F0A8F943F20000E6
:1014E000C4F20100016843F20400C4F2010011F0EB
:1014F000400F10D143F200014FF6BF72C4F2010158
:101500000B460968914340F61D321143196001688A
:1015100021F004010160816940F2B4144FF4827239
:101520004FF400630A262025C2F2000421F4006172
:101530008161016821F01001016046F200604FF402
:101540000071C4F20000A0F5285084E80508C4E941
:10155000033BC4E90581C4E9075BC4E909BBE66252
:10156000666D46B100264FF000094FF0000A4FF0BB
:10157000000E019639E0002020650790CDE90500B6
:10158000CDE903000C90DAF8381041F40041CAF8B4
:101590003810DAF8381001F400410C910C990C90D5
:1015A000DAF8281041F00401CAF82810DAF82810F7
:1015B00001F004010C910C99022104914FF4E051C7
:1015C00003910590032003A9069006200790019837
:1015D00005F0E2FD206A0190D4E909BE94E8050413
:1015E000D4E90339D4E90581E569022642EA0A0211
:1015F00066651A4301F40073D0F800C042EA09029C
:1016000042EA08022CF040061A4340F2501C0660E1
:101610002A430025C2F2000C0126019B1A434FF415
:10162000E00342EA0E020260042202EA11414FF492
:10163000002241EA0B014160C16921F40061C161EE
:1016400046F200600521A565C4F20000A0F5007017
:101650008CE823000CF11400CCE9035268C0CCE9FB
:101660000856CCE90A55666504F03AFC43F20000DE
:1016700040F2542B4FF461210C22C4F20100C2F25B
:10168000000BA0F500508BE82300CBE90355CBE914
:101690000525CBF81C50DBF83C1041B143F6080A95
:1016A00000214FF0000C0023C4F2020AC7E043F609
:1016B000080ACBF838500795CDE90555CDE9035513
:1016C0000C95022403A9C4F2020ADAF83C0040F0A7
:1016D0001000CAF83C00DAF83C0000F010000C9052
:1016E0000C980C95DAF8280040F00100CAF82800A0
:1016F000DAF8280000F001000C900C9804944FF4E4
:10170000C06003900320059606900720079002987A
:1017100005F042FD40F29C2046F2B8414FF00062D5
:1017200040234FF48066C2F20000C4F20201456318
:1017300080E86E0041F278364FF40032C0E905557A
:10174000C561C0E90825C2F20006326884630B68EF
:1017500023F001030B600B6813F0010F31D148F245
:101760003F030A684EF22546CFF21003CEF2000680
:101770001A4040F24043C0F602031A4340F2FF33DE
:101780000A604A6922F007024A616FF00F0252FABA
:1017900081F299434AF6AB23CAF6AA235F2AA2FB39
:1017A000032388BF41F004011A090FF650539A5CD5
:1017B0003F23C0E9171203FA02F28A6001210022D6
:1017C00027E0016833689B1A052B1CD80B6813F0BF
:1017D000010FC4D033689B1A052B14D80B6813F083
:1017E000010FBCD033689B1A052B0CD80B6813F083
:1017F000010FB4D033689B1A052B04D80B6813F083
:10180000010FDFD1ABE74EF2254603212022CEF2B5
:1018100000068265CBF83000C0F83CB081634EF61C
:101820000C50CEF200000068002030702020C7F875
:10183000F400DBE90651DBF80000DBE902C32426F3
:1018400049F20C62B1F5004FCBF83C60C66826F453
:101850000056C660066926F4405643EA0603036153
:10186000DBE90436C46843EA0C0324EA020243EAD3
:10187000060343EA010342EA0302C260426922F41A
:10188000407242EA0502426164D141F2004240F4F2
:101890008061C4F20102914240F0C08040F2100128
:1018A00048F2F8284FF0190948F21F5EC2F2000111
:1018B000C0F60008C5F2EB1E0A68DAF800C0DBF8D3
:1018C0000450DAF80040DAF80030C3F34236C4F3CB
:1018D00042346D0018F8066018F8044022FA06F148
:1018E00022FA04F401FB09F104FB09F4B1FBF5F160
:1018F000B4FBF5F4A1FB0E367309642603FB161343
:10190000611A1944322303EBC101A1FB0E134FF4FA
:10191000F87101EA1311CCF3423318F8033022FABC
:1019200003F303FB09F3B3FBF5F3A3FB0E364FF60A
:10193000F073C7F6FF7303EA560301EB030CDAF802
:101940000030C3F34233DAF8006018F80330C6F30E
:101950004236BEE041F2004240F48061C4F201022E
:10196000914240F0C68040F2100148F2F8284FF052
:10197000190948F21F5EC2F20001C0F60008C5F264
:10198000EB1E0A68DAF800C0DBF80450DAF8004011
:10199000DAF80030C3F34236C4F34234AD0018F82D
:1019A000066018F8044022FA06F122FA04F401FB5A
:1019B00009F104FB09F4B1FBF5F1B4FBF5F4A1FB6B
:1019C0000E367309642603FB1613611A1944322379
:1019D00003EB0111A1FB0E13F02101EA5311CCF32B
:1019E000423318F8033022FA03F303FB09F3B3FB85
:1019F000F5F3A3FB0E364FF6F073C7F6FF7303EA59
:101A0000560301EB030CDAF80030C3F34233DAF883
:101A1000006018F80330C6F34236C4E040F210010B
:101A200048F2F8284FF0190948F21F5EC2F200018F
:101A3000C0F60008C5F2EB1E0A68DAF800C0DBF851
:101A40000450DAF80040DAF80030C3F38226C4F319
:101A500082246D0018F8066018F8044022FA06F196
:101A600022FA04F401FB09F104FB09F4B1FBF5F1DE
:101A7000B4FBF5F4A1FB0E367309642603FB1613C1
:101A8000611A1944322303EBC101A1FB0E134FF479
:101A9000F87101EA1311CCF3822318F8033022FA0B
:101AA00003F303FB09F3B3FBF5F3A3FB0E364FF689
:101AB000F073C7F6FF7303EA560301EB030CDAF881
:101AC0000030C3F38223DAF8006018F80330C6F35D
:101AD000822622FA03F303FB09F3B3FBF5F318F8AC
:101AE0000660F240072602FB09F2B2FBF5F203257D
:101AF00068E040F2100148F2F8284FF0190948F266
:101B00001F5EC2F20001C0F60008C5F2EB1E0A68B3
:101B1000DAF800C0DBF80450DAF80040DAF80030F8
:101B2000C3F38226C4F38224AD0018F8066018F8C7
:101B3000044022FA06F122FA04F401FB09F104FB45
:101B400009F4B1FBF5F1B4FBF5F4A1FB0E36730912
:101B5000642603FB1613611A1944322303EB0111A7
:101B6000A1FB0E13F02101EA5311CCF3822318F8E4
:101B7000033022FA03F303FB09F3B3FBF5F3A3FBF2
:101B80000E364FF6F073C7F6FF7303EA560301EB08
:101B9000030CDAF80030C3F38223DAF8006018F897
:101BA0000330C6F3822622FA03F303FB09F3B3FBE7
:101BB000F5F318F80660F2400F2602FB09F2B2FBBB
:101BC000F5F20425A3EB020E48F21F5443F2000A7B
:101BD000C5F2EB14C4F2010AA2FB041359096423F1
:101BE00001FB13217144A94000253231A1FB0412ED
:101BF00040F2780406EA5211C2F20004012641EADA
:101C00000C018160016921F490410161416921F079
:101C10002A014161C16841F40051C1602020CBF824
:101C200044504FF40031CBF83C00CBF8400040F278
:101C3000010BAAF580500F952562C0F6007BC4E920
:101C40000AB5256384E823002046C4E90355C4E9A6
:101C50000565E66103F056FE4FF00B080CA920461F
:101C6000CDE90C860E9503F079FFCDE903864FF49C
:101C700080194FF4602803A9204607960595CDF8F2
:101C80002C90CDF82880CDE90865069504F07AF807
:101C900040F2C004AAF570600F95C2F200042562FC
:101CA000C4E90AB5256320604FF40030C4E901059A
:101CB0002046C4E90355C4E90565E66103F022FE48
:101CC0004FF00C0B0CA92046CDE90CB60E9503F095
:101CD00045FF09A8CDE903B603A980E82003204603
:101CE000CDE90766CDE9055504F04CF840F208143B
:101CF0000121AAF560600F95C2F20004C0F60071E0
:101D00002562C4E90A15256320604FF40030C4E958
:101D100001052046C4E90355C4E90565E66103F001
:101D2000F1FD4FF00D0A0CA92046CDE90CA60E9549
:101D300003F014FF09A8CDE903A603A980E8200356
:101D40002046CDE90766CDE9055504F01BF840F2C1
:101D500010244FF080404FF48041C2F20004C4E9E7
:101D60000005C4E902512561A561216C51BB43F610
:101D70000800E5630795CDE90555CDE903550C95B8
:101D8000C4F202000146806B40F001008863886B5A
:101D900000F001000C900C980C95886A40F001004E
:101DA0008862886A03A900F001000C900C98022058
:101DB000049003200390CDE905550796029805F09D
:101DC000EBF92068022144F2070221648168914303
:101DD00040F6FF328160C4F200020168904216DCD6
:101DE000182540F2542CB0F1804FC4F20205C2F223
:101DF000000C24D040F20043C4F2000398421ED0ED
:101E000040F60003C4F20003984218D01BE040F6ED
:101E10000043182540F2542CC4F20003C4F202051A
:101E2000C2F2000C98420AD040F20043C4F201030F
:101E3000984204D00023C4F20103984203D1A3685E
:101E400021F07001194341F6FF73C4F20003984278
:101E50000DDC90421FDCB0F1804F49D040F20042CF
:101E6000C4F20002904243D040F6000221E043F663
:101E7000FF72C4F20102904228DC42F20002C4F276
:101E80000002904234D00022C4F2010290422FD0CE
:101E900040F2004228E040F60042C4F200029042C4
:101EA00026D041F60002C4F20002904220D041F652
:101EB0000042C4F2000290421AD01DE0000000006F
:101EC00000000000010203040607080944F20002B2
:101ED000C4F2010290420BD044F60002C4F20102A7
:101EE000904205D044F20042C4F20102904203D174
:101EF000226921F440711143A26921F0800111434C
:101F000040F200420160C4F20102E168C16261680E
:101F1000816240F48061914204BF616901630121E3
:101F2000416182688369066A42F00302826040F27E
:101F3000011262F30F0326F0AA0283610262216498
:101F4000E26B012A0CD0022222644268836822F0EC
:101F50007002426023F0800282600020E06321640E
:101F600038680390039840F2F51000BF3968C90340
:101F700000EBE17078B13968C90300EBE17050B152
:101F80003968C90300EBE17028B13968C90300EB77
:101F9000E1700028EAD143F2000041F27834C4F243
:101FA0000100C2F200040146006840F040000860F1
:101FB0004DF2006046F20061C4F20001CFF6FF70FE
:101FC0000A46095841F040011150DCF80000C16890
:101FD00041F40051C16040F22040C4F201000146CA
:101FE000006840F48050086047F2040149F2FC3078
:101FF000C4F200010A46095841F001011150402085
:10200000C5F80004206800BF2168091A06290BD210
:102010002168091A052907D82168091A052903D852
:102020002168091A0629EFD34FF4807028602068D0
:102030002168091A02290BD22168091A012907D837
:102040002168091A012903D82168091A0229EFD346
:102050004FF0807028604FF400402860206800BF77
:102060002168091A03290BD22168091A022907D805
:102070002168091A022903D82168091A0329EFD314
:1020800002F090FF4FF40040286020682168091A90
:1020900003290BD22168091A022907D82168091AD5
:1020A000022903D82168091A0329EFD347F6DC2651
:1020B0004FF00040C0F600062860304604F09CFE59
:1020C0004FF400402860386803900398022000BF56
:1020D0003968C90300EBE17078B13968C90300EBD6
:1020E000E17050B13968C90300EBE17028B139687B
:1020F000C90300EBE1700028EAD14FF000402860EE
:10210000B01C04F079FE4FF400402860386803905A
:10211000039802203968C90300EBE17078B139688F
:10212000C90300EBE17050B13968C90300EBE170FD
:1021300028B13968C90300EBE1700028EAD14FF0FB
:1021400000402860301D04F057FE4FF40040286026
:1021500038680390039802203968C90300EBE170E6
:1021600078B13968C90300EBE17050B13968C9032F
:1021700000EBE17028B13968C90300EBE170002879
:10218000EAD14FF000402860B01D04F035FE4FF456
:102190000040286038680390039802203968C9031A
:1021A00000EBE17078B13968C90300EBE17050B120
:1021B0003968C90300EBE17028B13968C90300EB45
:1021C000E1700028EAD14FF00040286006F10800D5
:1021D00004F012FE4FF40040286038680390039822
:1021E000022000BF3968C90300EBE17078B139689B
:1021F000C90300EBE17050B13968C90300EBE1702D
:1022000028B13968C90300EBE1700028EAD14FF02A
:102210000040286006F10A0004F0EEFD4FF4004093
:102220002860386803900398022000BF3968C9030A
:1022300000EBE17078B13968C90300EBE17050B18F
:102240003968C90300EBE17028B13968C90300EBB4
:10225000E1700028EAD14FF00040286006F10C0040
:1022600004F0CAFD4FF400402860386803900398DA
:10227000022000BF3968C90300EBE17078B139680A
:10228000C90300EBE17050B13968C90300EBE1709C
:1022900028B13968C90300EBE1700028EAD102F0E7
:1022A00081FE02F07FFE02F07DFE02F07BFE02F076
:1022B00079FE386803900398652000BF3968C90328
:1022C00000EBE17078B13968C90300EBE17050B1FF
:1022D0003968C90300EBE17028B13968C90300EB24
:1022E000E1700028EAD141F2443241F298304BF2D9
:1022F000177141F2D42641F2483841F2743A41F262
:10230000943B41F290399FED7F8A9FED7F9A9FED3C
:102310007FAA9FED7FBA9FED7FCA9FED7FDA9FED89
:102320007FEA9FED7FFA0024C2F20002C2F20000B1
:10233000C3F65101C2F20006C2F20008C2F2000A5E
:10234000C2F2000BC2F2000992ED000A016000BF68
:10235000F0EE408A02F0E2FE308841F24431002281
:10236000C2F2000100EE100AB8EE400A20EE081A90
:1023700020EE090A86ED011A30EE681A81ED000A96
:10238000002186ED020AB4EECA1AF1EE10FAB4EE9C
:10239000CB1AB8BF0121F1EE10FAB4EECB1AC8BFC8
:1023A0000122F1EE10FA04DCB4EECA1AF1EE10FAD2
:1023B00070DAD207C90731EE0C2A31EE0D3A18BF98
:1023C000B0EE421A002A18BFB0EE431AB4EECB1A90
:1023D000F1EE10FA04DCB4EECA1AF1EE10FA59DA92
:1023E000B4EECA1A31EE0C2A31EE0D3AF1EE10FAC3
:1023F000B4EECB1AB8BFB0EE421AF1EE10FAC8BF75
:10240000B0EE431AB4EECB1AF1EE10FA04DCB4EEDF
:10241000CA1AF1EE10FA3DDAB4EECA1A31EE0C2AFD
:1024200031EE0D3AF1EE10FAB4EECB1AB8BFB0EEC1
:10243000421AF1EE10FAC8BFB0EE431AB4EECB1A4E
:10244000F1EE10FA04DCB4EECA1AF1EE10FA21DA59
:10245000B4EECA1A31EE0C2A31EE0D3A00210022F8
:10246000F1EE10FAB4EECB1AB8BFB0EE421AF1EEAC
:1024700010FAC8BFB0EE431AB4EECA1AF1EE10FA61
:10248000B4EECB1AB8BF0121F1EE10FAC8BF012299
:102490008ADD8EE741F24C32B8F800104CF6CD439D
:1024A00021EE0E1A9AED003AC2F20002CCF6CC43AD
:1024B00002EB81020131A1FB033592ED002A82ED8E
:1024C000001ABBF80020ABF80000EB0803EB830315
:1024D00033EE422AA1EB430132EE011AA8F80010B4
:1024E000811A6FF4804221EE0F2A8AED001A914280
:1024F00086ED032A16DC01F5004118E000061016EF
:10250000000610160000343CDB0F4939DB0F49C0D0
:10251000DB0F4940DB0FC940DB0FC9C00100FA44A3
:10252000CDCCCC3DB1F5804FC8BFA1F50041D9F865
:1025300000201144C9F80010396803910399022161
:102540003A68D20301EBE27179B13A68D20301EB48
:10255000E27151B13A68D20301EBE27129B13A68F4
:10256000D20301EBE2710029EAD10134A1B233298F
:10257000FFF4EEAE0021ABF8000040F22040012352
:10258000C4F20100C9F800100246006840F00100E2
:102590001060106840F010001060106840F4807007
:1025A0001060106840F004001060106840F04000B7
:1025B0001060106840F48060106052F8140C40F015
:1025C000010042F8140C41F2F43045F2EB12C2F271
:1025D0000000C3F6B842026041F2CC30C2F2000003
:1025E000037041F2F830C2F2000002604CF6CD40B8
:1025F00044F21D32C4F24C00C4F29362C6E90900F1
:1026000041F20040C2F20000026041F20440C2F216
:102610000000026045F6D0300022308641F2D4300E
:10262000C4F2483240F25016C2F20000C2F2000674
:10263000026041F2FC3047F6DD62C2F20000C4F2F3
:102640003C42026041F20C400022C2F20000C4F29F
:102650004002026041F210404FF07E52C2F2000090
:102660000260306B0138012835D846F20060C4F2B0
:1026700000000346006840F001001860186820F46C
:102680007C501860186840F46060186046F21C6066
:10269000C4F20000026822F00102026050F8102C1F
:1026A00042F0010240F8102C4162816250F8181C7F
:1026B00021F0010140F8181C50F8081C21F001011C
:1026C00040F8081C016841F001010160186820F021
:1026D0000100186003E0706B40F480207063306B81
:1026E00041F27833C2F2000301280ED10220306398
:1026F0003168086820F0010008601868496811F026
:10270000010F40F08480002002E0706B40F4002054
:1027100070633168326B06F134004FF48027013A60
:10272000022A024638BF01F114024FF480211368D7
:1027300038BF02273B434FF4802713603268336B66
:10274000013B022B034638BF02F114031A6838BF5D
:102750004FF400673A434FF480271A603268336BB6
:10276000013B022B034638BF02F114031A6838BF3D
:102770004FF480673A431A603268336B013B022B97
:1027800038BF02F11400026838BF4FF40041114312
:10279000016041F2CE30C2F200000078012835D14C
:1027A00040F2780440F2C00540F20816C2F200047C
:1027B000C2F20005C2F200062068816841F0010102
:1027C00081602868816841F001018160306881681A
:1027D00041F001018160284603F062FA304603F0BF
:1027E0005FFA204603F05CFAA06B0068016821F0F4
:1027F00018010160A86B0068016821F018010160F0
:10280000B06B0068016821F018010160FEE73168D3
:102810001A68121A0B2A1FD24A6812F0010F3FF4ED
:1028200072AF1A68121A0A2A16D84A6812F0010FF3
:102830003FF469AF1A68121A0A2A0DD84A6812F0D2
:10284000010F3FF460AF1A68121A0A2A04D84A68C6
:1028500012F0010FDCD156E7706B40F4003070636A
:102860000520306355E700BFB0B582B040F2881450
:1028700045F25411C2F20004C4F2000120698842FA
:1028800022DC44F24941C4F20001884252D044F2B1
:102890005541C4F2000188425CD045F24911C4F2AE
:1028A0000001884240F0B88041F2C830C2F2000016
:1028B000006805F06DF89FED5A0B53EC102B04F0F7
:1028C0009DFE45F2491564E045F25511C4F2000140
:1028D00088424FD045F65001C4F2000188426BD0C7
:1028E00045F65601C4F20001884240F0958041F25D
:1028F000D4209FED4D0A41F29C310122C2F200002A
:10290000C2F2000190ED031A45F65600206221EE56
:10291000000ABDEEC01A84ED091ABDEEC00A0A70A5
:1029200041F2A03108220090C2F200018DED010AAF
:102930000A6058E041F2C430C2F20000006805F0BD
:1029400027F89FED370B53EC102B04F057FE44F2A1
:1029500049451EE041F2DC30C2F20000006805F09B
:1029600017F89FED2F0B53EC102B04F047FE44F2A9
:1029700055450EE041F2E030C2F20000006805F07B
:1029800007F89FED270B53EC102B04F037FE45F2B0
:102990005515256204F002FE41F29C31012260626D
:1029A00001900095C2F200010A7041F2A0310822A4
:1029B000C2F200010A6016E041F2903145F6500083
:1029C00041F29C3201232062C2F20001C2F20002F5
:1029D00009686162137041F2A0320823C2F200025A
:1029E0001360CDE90001684603F092FB40F25010FD
:1029F000C2F2000000F134010268006B01380228C5
:102A000038BF02F114014FF48022086838BF012258
:102A1000104308600020206102B0B0BD00BF00BFBD
:102A20000000000000408F4083F9A24543F20801F6
:102A3000C4F201018880086810F0020F1BD19620B3
:102A40004FF6FF7C0B6813F0020F18D1831E13EAB8
:102A50000C0F12D00A6812F0020F12D10A6812F09D
:102A6000020F10D1043810EA0C0F06D00A6812F0D9
:102A7000020FE7D008E0962006E0002004E00138CD
:102A800002E0184600E003380A6812F0800F1CD0FC
:102A90004FF6FF7C83B2012B17D00A6812F0800F2B
:102AA00018BF022B11D00A6812F0800F18BF032B39
:102AB0000BD00A6812F0800F07D0043810EA0C0F10
:102AC00003D00A6812F0800FE4D181B0486800900A
:102AD000009808680090009801B0704780B581B0F8
:102AE00043F2080C4FF6FF7EC4F2010CACF804E090
:102AF000DCF8001011F0010F1DD19621DCF8002048
:102B000012F0010F1BD18A1E12EA0E0F15D0DCF84D
:102B1000003013F0010F14D1DCF8002012F0010F87
:102B200011D1043911EA0E0F07D0DCF8002012F0A1
:102B3000010FE3D008E0962106E0002104E001390E
:102B400002E0114600E00339DCF804200280DCF8E2
:102B5000000010F0020F25D14FF6FF704A1E02420E
:102B60001DD0DCF8003013F0020F1AD18A1E024289
:102B700015D0DCF8003013F0020F12D1CA1E024249
:102B80000DD0DCF8003013F0020F0AD104390142F5
:102B900005D0DCF8002012F0020FDFD002E00021A7
:102BA00000E01146DCF8000010F0800F1FD04FF657
:102BB000FF708BB2012B1AD0DCF8002012F0800FCE
:102BC00018BF022B13D0DCF8002012F0800F18BFC2
:102BD000032B0CD0DCF8002012F0800F07D0043952
:102BE000014204D0DCF8002012F0800FE1D1DCF8C3
:102BF000040000900098DCF800000090009801B0FC
:102C000080BD00BF70B540F2040640F20004C2F27D
:102C10000006C2F20004306821680D1A40F2A37168
:102C20008D4238BF70BDA9B204F0EEF940F2003316
:102C3000326840F6D021C2F20003C2F200019A428B
:102C400018BF19460028316021601FD044F6445057
:102C5000C5F64170086047F24250C6F266604860AF
:102C600047F26520C4F65F70886046F27650C6F27F
:102C70007260C86046F66C70C0F67750086101F16A
:102C8000150020600A200875FFF7BCFFB5F5FA6F44
:102C900012D945F24F612068C5F24521016044F622
:102CA000464181804F21817100F108012160572147
:102CB000C171BDE87040A5E770BD00BF2DE9F04FC0
:102CC00083B0824640F200000091C2F20000BAF1E7
:102CD000FF3FD0F800C005DDBAF1000F00F0C98059
:102CE000002305E02D20CAF1000A01238CF8000022
:102CF0004FF0000B03226FF006040E256FF0050E57
:102D00004FF00009C9F10E08C9F10F00CDE901B378
:102D10005346E34600F00301B8F1030F02D2012746
:102D200026E000BF02F0030A012726460AEB060C44
:102D3000BCF1040F0FD0BCF1000F0FD01CF1040048
:102D400011D000201036C6F6C17047430AEB0600CA
:102D50000828EBD10CE042F2107008E04EF20010AF
:102D6000C0F2F55003E041F20000CDF2A540474328
:102D700001294FF47A704CF6CD419A4608BF0A20DB
:102D8000CCF6CC417843B3FBF0F0A0FB0117F90877
:102D900001EB8101A0EB410010B140F0300103E0F4
:102DA000019801280CD13021029BDC460BF803105E
:102DB00001334FF0010BB9F10E0F07D1012132E0C1
:102DC000029BDC468346B9F10E0FF7D0C9F10D0026
:102DD00008F00208032801D201211FE005F00207D4
:102DE00001217646B81904280BD068B1043010D000
:102DF00000201036C6F6C1704143B8190828F1D139
:102E00000CE042F2107008E04EF20010C0F2F550F3
:102E100003E041F20000CDF2A5404143B8F1000FBC
:102E20001CBF64204143BAFBF1F04CF6CD41CCF617
:102E3000CC41A0FB0117F90801EB8101A0EB410097
:102E400010B140F0300103E0BBF1010F05D130219A
:102E50000CF8031001334FF0010B09F102090EF1D8
:102E6000020E023D02340232B9F1100F7FF44AAF74
:102E700003E0302001238CF800000CEB030040F24B
:102E800000010130C2F20001086000980CF8030054
:102E900003B0BDE8F04FB5E6704700BFFEE700BFE6
:102EA000FEE700BFFEE700BFFEE700BF704700BFC0
:102EB000704700BF704700BF41F27830C2F2000097
:102EC000016801310160704703F06EB903F06CB91D
:102ED00080B540F2542CC2F2000CDCF800E0DEF8C1
:102EE0000020DEF80C30DEF8140012F00F0F4FD087
:102EF00003F4907100F00100014364D0D1071FBFBB
:102F000013F48071DCF8441041F00101CCF8441056
:102F1000510707D500281EBFDCF8441041F002011C
:102F2000CCF84410910707D500281EBFDCF84410E8
:102F300041F00401CCF84410110707D500281EBF4A
:102F4000DCF8440040F00800CCF84400DCF8440011
:102F5000002800F01E8103EA0200800640F1E280B2
:102F6000DCF84000222840F0DD80DCF80800B0F5F5
:102F7000805F40F08080DCF81020DCF82800DEF86C
:102F80000410002A00F0A880C9B220F8011BA7E0B5
:102F900003EA020010F0200F17D0DCF840002228CE
:102FA00040F0F780DCF80800B0F5805F53D1DCF822
:102FB0001020DCF82800DEF80410002A6BD0C9B21B
:102FC00020F8011B6BE003EA020001060CD4400666
:102FD00058BF80BDDEF80C0020F04000CEF80C0099
:102FE0002020CCF83C00D4E0DCF83C00212840F064
:102FF000D080DCF80810DCF82000B1F5805F0DD13E
:1030000001886FF35F21CEF80410DCF8101000295E
:1030100014BF01300230CCF8200005E0411CCCF890
:1030200020100078CEF80400BCF826004FF6FF719F
:1030300001380842ACF8260040F0AB80DEF80C0006
:1030400020F08000CEF80C00DEF80C0040F04000CC
:10305000CEF80C0080BDDCF81020DEF80400DCF8AF
:103060002810002A01F10102CCF8282018BF00F036
:103070007F00087015E0DCF81010DEF8040000296D
:10308000DCF8281001F10102CCF8282018BF00F06C
:103090007F00087026E06FF35F2120F8021BCCF858
:1030A0002800BCF82E004FF6FF7101380842ACF83A
:1030B0002E006ED1DCF80000C16821F02001C16053
:1030C000C16821F48071C160416921F00101416151
:1030D0002020CCF8400080BD6FF35F2120F8021B58
:1030E000CCF82800BCF82E004FF6FF710138ACF880
:1030F0002E000842DCF800E014D1DEF80C0020F0CD
:103100002000CEF80C00DEF80C0020F48070CEF821
:103110000C00DEF8140020F00100CEF8140020208E
:10312000CCF84000DEF81400DCF8441000F0400059
:1031300001F0080108432DD0DEF80C0020F4907057
:10314000CEF80C00DEF8140020F00100CEF81400D8
:103150002020CCF84000DEF8140010F0400F18D00A
:10316000DEF8140020F04000CEF81400DCF8340043
:1031700078B147F28D11C0F600014165816B0229DB
:103180000CD1052181630068016821F00101016013
:1031900080BD80BD0020CCF8440080BD80218165C9
:1031A000BDE8804003F0F2BFF0B581B0002040F2EE
:1031B0009C2448F2B5130821009040F21000C2F29E
:1031C0000004C1F64E33C2F200000268D4E9176071
:1031D00037688140A2FB032539420DD0226813686D
:1031E00013F0040F08D0136823F004031360B160D8
:1031F000A16D41F00101A16501218140394209D051
:103200002268526912F0800F04D0B160A16D41F0C4
:103210000201A16504218140394209D02268126867
:1032200012F0020F04D0B160A16D41F00401A1655C
:103230001021814039421AD02068026812F0080F2C
:1032400015D0B1600268016812F4802F06D1C9055B
:103250005EBF016821F00801016001E0080343D46A
:10326000616C21B140F29C20C2F200008847216EBF
:10327000202000FA01F23A4246D02068036813F099
:10328000100F41D0B260A36B0268052B1ED122F053
:1032900016020260426922F080024261626CE36CB5
:1032A0001A431EBF026822F0080202603F208840D5
:1032B000B0600120A06300206063616D002962D0CE
:1032C00040F29C20C2F2000088475CE00168520393
:1032D0000ED4C90511D4016821F01001016001204C
:1032E000A0630020606308E0E16C0029BAD1BEE76A
:1032F000080302D4A16C11B906E0216C21B140F29F
:103300009C20C2F200008847A06DE0B3A06D10F0D1
:10331000010F2FD00521A80AA16321680A6822F0B5
:1033200001020A60009A0132824200921ED80A68A5
:1033300012F0010F1AD0009A01328242009215D881
:103340000A6812F0010F11D0009A013282420092F5
:103350000CD80A6812F0010F08D0009A013282429C
:10336000009203D80A6812F0010FDBD10120A0639C
:1033700000206063216D31B140F29C20C2F2000058
:10338000884701B0F0BD01B0F0BD00BF00BF00BF75
:103390002DE9F0472DED0E8B40F2081940F2C00ADE
:1033A00040F278069FEDB91AC2F20009C2F2000A93
:1033B000C2F20006D9F80000B0EE413AB0EE418A00
:1033C00090ED0F0AB8EE40AADAF8000090ED0F0A6F
:1033D000B8EE409A30689FEDAE0AC06B09EE403AF5
:1033E0000AEE408A02EE100A41F2AC30C2F200004E
:1033F000B8EE422A80ED003A41F2A83002EE401ABF
:10340000C2F2000080ED008A41F2B030C2F200004A
:1034100080ED001A01F082FE41F2CE30C2F20000CF
:103420000078012841F0E68341F2CC30C2F200007E
:1034300000780138042801F2DD83DFE810F0050090
:103440003D015000D001B50040F20807C2F200076C
:1034500038880130388080B20A2840F0B58702F001
:10346000C9F841F2983041F2FC3141F2004241F298
:103470000443B2EE041AC2F20000C2F20001C2F22A
:103480000002C2F2000390ED000A41F2D02093ED59
:10349000003A92ED004AC2F2000020EE010A91EDDE
:1034A000001A90ED002A23EE003A20EE044AB5EE11
:1034B000C01AF1EE10FA40F3BE83B5EEC02AF1EE69
:1034C00010FAC0F2B88332EE445AB4EEC15AF1EEAB
:1034D00010FA80F2678532EE041A00F01FBF40F246
:1034E0000C04C2F2000420880130208080B20A2837
:1034F00040F0D08102F07EF841F28C3041F2903100
:1035000041F2803341F298379FED622A41F28832CE
:10351000B2EE044AC2F20000C2F20001C2F200039D
:10352000C2F20007C2F2000291ED000A90ED001A0B
:1035300041F2843041F2D431C2F20000C2F2000103
:10354000B8EEC00AB8EEC11A93ED003A90ED005AF9
:1035500092ED006A41F2D83031EE400A97ED001A40
:10356000C2F2000020EE022A91ED000A21EE044A88
:1035700032EE433A25EE021A83ED002A83EE043A36
:1035800006EE031A80ED001AB4EEC01AF1EE10FA3E
:1035900080F27C81B1EE400AB4EEC01AF1EE10FA6E
:1035A000D8BF80ED000A73E102F024F841F28C37B5
:1035B00041F2903841F2803141F2983241F2843048
:1035C0009FED342A41F28835B2EE044A41F20443B9
:1035D000C2F20007C2F20008C2F20001C2F2000209
:1035E000C2F20000C2F20005C2F2000398ED000A28
:1035F00097ED001AB8EEC00AB8EEC11A91ED003A84
:1036000095ED005A31EE401A92ED000A41F2004267
:1036100021EE026A90ED001A41F2D020C2F20002BF
:1036200020EE042A36EE433A93ED004AC2F200003F
:1036300092ED007A81ED006A41F2FC31C3EE020A9C
:1036400021EE061A90ED003AC2F2000105EE201AB2
:1036500081ED001AB5EEC01A24EE024A27EE025A96
:10366000F1EE10FA40F3F880B5EEC03AF1EE10FA40
:10367000C0F2F28033EE456AB4EEC16AF1EE10FAA0
:1036800080F2338133EE051A00F0C7BC0000A54379
:103690000000253EDB0F49398D86BEBD8D863EBEBE
:1036A000EAE40E44610B363B00000044DB0F49BCEA
:1036B000DB0F493C0000000040F20A07C2F200079D
:1036C00038880130388080B20A2841F0CB8001F080
:1036D00091FF41F28C3041F2903141F2803341F25E
:1036E00098351FED142A41F28832B2EE044AC2F234
:1036F0000000C2F20001C2F20003C2F20005C2F2F1
:10370000000291ED000A90ED001A41F2843041F27E
:103710007C31C2F20000C2F20001B8EEC00AB8EE7D
:10372000C11A93ED003A90ED005A92ED007A41F201
:10373000FC3031EE400A95ED001AC2F2000020EE96
:10374000026A91ED002A21EE040A36EE433A25EE94
:10375000061A83ED006A83EE003A07EE031A80ED45
:10376000001AB4EEC21AF1EE10FA06DAB1EE422AED
:10377000B4EEC21AF1EE10FA03DCB0EE421A80ED9C
:10378000002A41F2044041F20041B5EEC01AC2F2F3
:103790000000C2F20001F1EE10FA90ED003A41F2A1
:1037A000D02091ED004AC2F2000090ED002A23EEF5
:1037B000003A20EE044A40F34D82B5EEC02AF1EE05
:1037C00010FAC0F2478232EE445AB4EEC15AF1EE1A
:1037D00010FA80F2F18332EE041A00F0EDBF01F02E
:1037E00009FF41F2983041F2FC3141F2004241F2CE
:1037F0000443B2EE041AC2F20000C2F20001C2F2A7
:103800000002C2F2000390ED000A41F2D02093EDD5
:10381000004A92ED005AC2F2000020EE012A91ED1A
:10382000001A90ED003A24EE024A22EE055AB5EE57
:10383000C01AF1EE10FA1CDDB5EEC03AF1EE10FA46
:1038400017DB33EE456AB4EEC16AF1EE10FA80F28E
:10385000118233EE051A16E2B5EEC01AF1EE10FA37
:103860004DDDB5EEC03AF1EE10FA48DA33EE041A47
:10387000D3E3B5EEC01AF1EE10FA4FDDB5EEC03A63
:10388000F1EE10FA4ADA33EE041AFCE180ED000A98
:10389000002020801FED800A41F2D4241FED811A00
:1038A00041F2BC301FED822AC2F20004C2F20000D5
:1038B0002AEE000A80ED008A41F2C03009EE010ACA
:1038C00094ED071AC2F2000030EE020AB5EEC01AFB
:1038D00080ED000AF1EE10FA02DA2EDAA06A00E0BA
:1038E000606A02EE100A206229E033EE045AB4EE58
:1038F000C15AF1EE10FAC8BF33EE441A8DE3B5EEAB
:10390000C01AF1EE10FA80F2FA82B5EEC03AF1EE8A
:1039100010FAC0F2F48233EE441A7EE3B5EEC01A18
:10392000F1EE10FA80F22083B5EEC03AF1EE10FA13
:10393000C0F21A8333EE441AA5E194ED082A41F24D
:10394000983094ED044A22EE011A1FEDAACA1FED29
:10395000AAEA47F6F427B8EE00DAB0EE08AA1FED9F
:10396000ADBA1FEDAD9A41F2C835C2F20000C0F603
:103970000007C2F2000590ED003A21EE032A34EE72
:10398000021A21EE0C1ABDEEC13AB5EEC01A13EEC2
:10399000100AF1EE10FAB8BF013803EE100AB8EEC3
:1039A000C33A31EE431A21EE0E1ABDEEC13A13EEC0
:1039B000100A00F180016FF35F206FF35F2100EECA
:1039C000900A07EB8101F8EE600A84ED0B2A91ED75
:1039D000003A91ED014A07EB800131EE601A41F2A5
:1039E000D83091ED005A91ED016AC2F2000033EE39
:1039F000037A74EE432AD0ED000A41F2C430F1EEAE
:103A0000451A34EE077A76EE453A72EEA24A62EE35
:103A10008A2A34EE034AC2F2000071EEC61A15EE8D
:103A20000D6A51EE894A46EE0B2A73EEA35A27EE31
:103A30000B7A44EE812A54EE095A03EE8A7A22EE7A
:103A4000816A23EE094A05EE817A05EE496A07EE9E
:103A5000014A06EE013A04EE015A25EE001A63EE21
:103A6000001A1FEDEC0A03EE081A45EE481A80ED25
:103A7000001AC5ED001A01F0AFF994ED040A94EDB7
:103A80000B1A31EE000A20EE0C0ABDEEC01AB5EE9C
:103A9000C00A11EE100AF1EE10FAB8BF013801EEBB
:103AA000100AB8EEC11A30EE410A20EE0E0ABDEE41
:103AB000C01A11EE100A00F180016FF35F206FF35E
:103AC0005F2107EB800205EE100A41F2E03007EBC0
:103AD000810192ED001A92ED012AB8EE455AC2F228
:103AE000000091ED003A91ED014A30EE450A41F2B5
:103AF000DC31B1EE416A72EE412AC2F2000134EECD
:103B0000437A73EE030A36EE426A11EE0D2A77EE1F
:103B1000071A27EE0A7A74EE200A56EE091A02EE08
:103B20000B7A20EE8B5A34EE032A32EEA24A01EED3
:103B3000807A12EE094A02EE8A5A27EE002A04EE33
:103B4000005A91ED004A23EE096A01EE492A05EE7A
:103B5000006A02EE003A90ED002A06EE001A41F2E9
:103B6000B43023EE040AC2F2000061EE040A01EE52
:103B7000420A43EE020A80ED000A41F2B830C2F276
:103B80000000C0ED000A01F059F89FEDEB1A95ED29
:103B9000000A41F2D03041F2B824C2F20000C2F271
:103BA000000420EE011A80ED001A2068411C002854
:103BB00021601CD110EE100A03F0EAFE9FEDE00B2D
:103BC00053EC102B03F01AFD0022226003F0E6FCF8
:103BD00040F2000448F200310246C2F20004C0F68E
:103BE00000012068FCF7AEFB216808442060FFF765
:103BF00009F841F2BC20C2F2000001684A1C002909
:103C0000026014D1002140F20004016041F29031C1
:103C1000C2F20004C2F2000120680A6848F21331BF
:103C2000C0F60001FCF78EFB216808442060FEF717
:103C3000E9FF00F0DFBFB5EEC01AF1EE10FA40F375
:103C4000C581B5EEC02AF1EE10FA80F2BF8132EEE6
:103C5000031A63E3B5EEC01AF1EE10FA40F3C58122
:103C6000B5EEC02AF1EE10FA80F2BF8132EE031AEF
:103C700000F0A2BD33EE045AB4EEC15AF1EE10FAD0
:103C8000C8BF33EE441A80ED001A41F20C4041F2F5
:103C9000D42741F20841C2F20000C2F20007C2F28A
:103CA000000197ED033A90ED005A41F2104091ED7A
:103CB000004AC2F2000031EE436A90ED007A9FEDB7
:103CC000A23A41F2144025EE061AC2F2000004EEB8
:103CD000071A02EE064A81ED004AB4EEC34A80EDAF
:103CE000001AF1EE10FA09DA9FED983AB4EEC34AE1
:103CF000F1EE10FAD8BF81ED003A01E081ED003A13
:103D000041F218419FED922A97ED064AC2F2000156
:103D100091ED003A24EE024A33EE042AB4EEC21AC0
:103D2000F1EE10FA06DA34EE432AB4EEC21AF1EEDE
:103D300010FA03DCB0EE421A80ED002A97ED072A54
:103D4000B5EEC02AF1EE10FA02DA06DAB86A00E03F
:103D5000786A03EE100A386201E097ED083A23EE24
:103D6000022A97ED044A9FED7B5A47F6F422DFEDD5
:103D70007A5AF8EE003AF0EE084ADFED787A22EE51
:103D8000002AC0F6000234EE020A20EE050ABDEE5B
:103D9000C03AB5EEC00A13EE100AF1EE10FA9FED2C
:103DA000703AB8BF013804EE100AB8EEC44A30EEDB
:103DB000440A20EE030ABDEEC03A13EE100A00F1E9
:103DC00080016FF35F206FF35F2100EE900A02EB3A
:103DD0008101F8EE600A87ED0B2A91ED003A91ED32
:103DE000014A02EB800130EE600A41F2B43091EDFD
:103DF000005A91ED016AC2F2000033EE037A74EECC
:103E0000432A34EE077AF1EE451A76EE456A32EE31
:103E1000A28A62EEA42A34EE034A71EEC61A15EEA7
:103E2000236A11EEA78A46EE252A76EEA63A27EEF9
:103E3000257A48EE002A54EE273A06EEA47A23EEBD
:103E4000274A03EE807A22EE806A07EE004A05EEEA
:103E5000676A04EE005A06EE003A25EE410A63EE68
:103E6000010A80ED000A41F2B830C2F20000C0ED54
:103E7000000A00F0E3FE41F2C020C2F20000016837
:103E80004A1C0029026015D140F2000497ED060A91
:103E90000021C2F20004016048F200312068BDEE4A
:103EA000C00AC0F6000110EE102AFCF74BFA216898
:103EB00008442060FEF7A6FE41F2C420C2F20000D2
:103EC00001684A1C0029026015D140F2000497EDF8
:103ED000050A0021C2F20004016048F21331206893
:103EE000BDEEC00AC0F6000110EE102AFCF72AFA57
:103EF000216808442060FEF785FE00F07BBEB5EE29
:103F0000C01AF1EE10FA80F27F80B5EEC03AF1EE01
:103F100010FA79DA33EE446AB4EEC16AF1EE10FABF
:103F2000FFF6A4AC33EE054AB4EEC14AF1EE10FA46
:103F3000C8BF33EE451A70E02E27863C00BF00BF95
:103F40000000000000408F40D253FB41D253FBC120
:103F5000776CCC3A610B363BDB0F49BCDB0F493C3D
:103F60000000004400000000B5EEC01AF1EE10FAA7
:103F700080F28681B5EEC03AF1EE10FA80F28081CF
:103F800033EE446AB4EEC16AF1EE10FAFFF67BAC90
:103F900033EE054AB4EEC14AF1EE10FAC8BF33EE73
:103FA000451A70E632EE034AB4EEC14AF1EE10FA59
:103FB000C8BF32EE431AB1E132EE034AB4EEC14A51
:103FC000F1EE10FAC8BF32EE431AF5E3B5EEC01AAF
:103FD000F1EE10FA80F25F81B5EEC02AF1EE10FA30
:103FE000C0F2598132EE431A98E1B5EEC01AF1EEF3
:103FF00010FA80F26C81B5EEC02AF1EE10FAC0F230
:10400000668132EE431AD7E3B5EE401AB0EE431A9A
:10401000F1EE10FA03D11FED2D1A80ED001A41F2D6
:104020000C4141F2D42041F20842C2F20001C2F236
:104030000000C2F2000290ED033A91ED005A41F205
:10404000104192ED004AC2F2000131EE436A91ED57
:10405000007A1FED433A41F2144125EE061AC2F2EE
:10406000000104EE071A02EE064A82ED004AB4EEA1
:10407000C34A81ED001AF1EE10FA09DA1FED4D3A4C
:10408000B4EEC34AF1EE10FAD8BF82ED003A01E077
:1040900082ED003A41F218421FED532A90ED064A94
:1040A000C2F2000292ED003A24EE024A33EE042AF4
:1040B000B4EEC21AF1EE10FA06DA34EE432AB4EE88
:1040C000C21AF1EE10FA03DCB0EE421A81ED002ABA
:1040D00090ED072AB5EEC02AF1EE10FA02DA06DA00
:1040E000816A00E0416A03EE101A016201E090ED7E
:1040F000083A23EE022A90ED044A1FED6A5A47F669
:10410000F4235FED6B5AF8EE003AF0EE084A5FEDEB
:104110006D7A22EE002AC0F6000334EE020A20EE89
:10412000050ABDEEC03AB5EEC00A13EE101AF1EE64
:1041300010FA1FED753AB8BF013904EE101AB8EE47
:10414000C44A30EE440A20EE030ABDEEC03A13EE34
:10415000101A01F180026FF35F216FF35F2200EE0E
:10416000901A03EB8202F8EE600A80ED0B2A41F20E
:10417000B43092ED003A92ED014A03EB810230EE49
:10418000600AC2F2000092ED005A92ED016A33EE2D
:10419000037A74EE432A34EE077AF1EE451A76EE8E
:1041A000456A32EEA28A62EEA42A34EE034A71EE28
:1041B000C61A15EE236A11EEA78A46EE252A76EE78
:1041C000A63A27EE257A48EE002A54EE273A06EE64
:1041D000A47A23EE274A03EE807A22EE806A07EE65
:1041E000004A05EE676A04EE005A06EE003A25EE34
:1041F000410A63EE010A80ED000A41F2B830C2F2D2
:104200000000C0ED000A00F019FD41F2C820C2F222
:10421000000001684A1C0029026010D140F200042D
:1042200000213A68C2F20004016048F200312068BF
:10423000C0F60001FCF786F8216808442060FEF70C
:10424000E1FC41F2CC20C2F2000001684A1C0029C6
:10425000026011D140F200040021D8F80020C2F21F
:104260000004016048F213312068C0F60001FCF739
:1042700069F8216808442060FEF7C4FC00F0BABC6D
:10428000B5EE401AB0EE431AF1EE10FA7FF4FDAC31
:104290001FEDCC1AF7E4B5EEC01AF1EE10FA34DADD
:1042A000B5EEC02AF1EE10FA2FDA32EE435AB4EE30
:1042B000C15AF1EE10FAFFF6CAAC32EE043AB4EE8F
:1042C000C13AF1EE10FAC8BF32EE441A26E0B5EE5C
:1042D000C01AF1EE10FA80F26682B5EEC02AF1EE55
:1042E00010FA80F2608232EE435AB4EEC15AF1EE17
:1042F00010FAFFF6BBAC32EE043AB4EEC13AF1EE7E
:1043000010FAC8BF32EE441A56E2B5EE401AB0EECB
:10431000421AF1EE10FA03D11FEDEE1A80ED001AE9
:1043200041F20C4041F2D421C2F20000C2F200017D
:1043300091ED032A41F2084190ED004A41F210400C
:10434000C2F20000C2F2000131EE425A90ED006A62
:1043500091ED003A9FED322A41F2D83024EE051A51
:10436000C2F2000003EE061A00EE053A81ED003AB3
:10437000B4EEC23A80ED001AF1EE10FA09DA9FEDC0
:10438000292AB4EEC23AF1EE10FAD8BF81ED002A24
:1043900001E081ED002A41F2D431C2F2000191ED39
:1043A000000AB4EEC01AF1EE10FA09DAB1EE400AD2
:1043B000B4EEC01AF1EE10FAD8BF80ED000A01E0A9
:1043C00080ED000A002038809FED170A41F2D427C3
:1043D0009FED161A41F2BC309FED152AC2F200077C
:1043E000C2F200002AEE000A80ED008A41F2C030DD
:1043F00009EE010A97ED071AC2F2000030EE020A38
:10440000B5EEC01A80ED000AF1EE10FA02DA25DAF4
:10441000B86A00E0786A02EE100A386220E000BF55
:10442000D253FB41D253FBC18D86BEBD8D863EBEAD
:10443000EAE40E44610B363B00000044DB0F49BC4C
:10444000DB0F493C000000002E27863C00BF00BF68
:104450000000000000408F40D253FBC197ED082AB6
:1044600041F2983097ED044A22EE011A1FED0FCA6F
:104470001FED0FEA47F6F425B8EE00DAB0EE08AA11
:104480001FED12BA1FED129A41F2C43441F2C8383E
:10449000C2F20000C0F60005C2F20004C2F2000839
:1044A00090ED003A21EE032A34EE021A21EE0C1AA6
:1044B000BDEEC13AB5EEC01A13EE100AF1EE10FAD5
:1044C000B8BF013803EE100AB8EEC33A31EE431A12
:1044D00021EE0E1ABDEEC13A13EE100A00F1800172
:1044E0006FF35F206FF35F2100EE900A05EB81010F
:1044F000F8EE600A87ED0B2A91ED003A91ED014A42
:1045000005EB800131EE601A41F2D83091ED005A8E
:1045100091ED016AC2F2000033EE037A74EE432A91
:10452000D0ED000AF1EE451A34EE077A76EE453A00
:1045300072EEA24A62EE8A2A34EE034A71EEC61A7D
:1045400015EE0D6A51EE894A46EE0B2A73EEA35A18
:1045500027EE0B7A44EE812A54EE095A03EE8A7A4A
:1045600022EE816A23EE094A05EE817A05EE496A58
:1045700007EE014A06EE013A04EE015A25EE001A52
:1045800063EE001A1FED510A03EE081A45EE481AB1
:1045900084ED001AC8ED001A00F01EFC97ED040A25
:1045A00097ED0B1A31EE000A20EE0C0ABDEEC01A90
:1045B000B5EEC00A11EE100AF1EE10FAB8BF0138DC
:1045C00001EE100AB8EEC11A30EE410A20EE0E0AD2
:1045D000BDEEC01A11EE100A00F180016FF35F20EA
:1045E0006FF35F2105EB800205EE100A41F2E03027
:1045F00005EB810192ED001A92ED012AB8EE455AC1
:10460000C2F2000091ED003A91ED014A30EE450A08
:1046100041F2DC31B1EE416A72EE412AC2F2000190
:1046200034EE437A73EE030A36EE426A11EE0D2A37
:1046300077EE071A27EE0A7A74EE200A56EE091A68
:1046400002EE0B7A20EE8B5A34EE032A32EEA24AA7
:1046500001EE807A12EE094A02EE8A5A27EE002A0B
:1046600004EE005A91ED004A23EE096A01EE492A50
:1046700005EE006A02EE003A90ED002A06EE001AFE
:1046800041F2B43023EE040AC2F2000061EE040AE3
:1046900001EE420A43EE020A80ED000A41F2B83010
:1046A000C2F20000C0ED000A00F0C8FA1FED9A0A3D
:1046B00098ED001A41F2D030C2F2000021EE000A5B
:1046C00080ED000A41F2A020C2F2000001684A1CFD
:1046D0000029026015D140F2000597ED030A002180
:1046E000C2F20005016048F200312868BDEEC00A40
:1046F000C0F6000110EE102AFBF724FE29680844DA
:104700002860FEF77FFA41F2A425C2F2000528686E
:10471000411C002829601BD1206803F039F91FEDE6
:10472000B40B53EC102B02F069FF00222A6002F058
:1047300035FF40F2000448F200310246C2F20004A4
:10474000C0F600012068FBF7FDFD216808442060E9
:10475000FEF758FA41F2A824C2F200042068411C76
:10476000002821601CD1D8F8000003F011F91FEDDA
:10477000C80B53EC102B02F041FF0022226002F024
:104780000DFF40F2000448F213310246C2F2000469
:10479000C0F600012068FBF7D5FD216808442060C1
:1047A000FEF730FA26E2B5EE401AB0EE421AF1EE0C
:1047B00010FA03D11FEDDD1A80ED001A41F20C4012
:1047C00041F2D421C2F20000C2F2000191ED032AAD
:1047D00041F2084190ED004A41F21040C2F200005F
:1047E000C2F2000131EE425A90ED006A91ED003ABA
:1047F0001FEDF52A41F2D83024EE051AC2F200006E
:1048000003EE061A00EE053A81ED003AB4EEC23A24
:1048100080ED001AF1EE10FA09DA1FEDF12AB4EE7C
:10482000C23AF1EE10FAD8BF81ED002A01E081ED25
:10483000002A41F2D431C2F2000191ED000AB4EE37
:10484000C01AF1EE10FA09DAB1EE400AB4EEC01A5D
:10485000F1EE10FAD8BF80ED000A01E080ED000A09
:10486000002038809FEDF10A41F2D4279FEDF01A25
:1048700041F2BC309FEDEF2AC2F20007C2F2000005
:104880002AEE000A80ED008A41F2C03009EE010AEA
:1048900097ED071AC2F2000030EE020AB5EEC01A18
:1048A00080ED000AF1EE10FA02DA06DAB86A00E0EA
:1048B000786A02EE100A386201E097ED082A41F2A8
:1048C000983097ED044A22EE011A9FEDD4CA9FED6D
:1048D000D4EA47F6F425B8EE00DAB0EE08AA9FED68
:1048E000D1BA9FEDD19A41F2D83841F2C834C2F220
:1048F0000000C0F60005C2F20008C2F2000490ED0C
:10490000003A21EE032A34EE021A21EE0C1ABDEE13
:10491000C13AB5EEC01A13EE100AF1EE10FAB8BFA4
:10492000013803EE100AB8EEC33A31EE431A21EE15
:104930000E1ABDEEC13A13EE100A00F180016FF3BA
:104940005F206FF35F2100EE900A05EB8101F8EE26
:10495000600A87ED0B2A91ED003A91ED014A05EBD3
:10496000800131EE601A41F2C430D8ED000A91EDB9
:10497000005A91ED016AC2F2000033EE037A74EE40
:10498000432AF1EE451A34EE077A76EE453A72EE96
:10499000A24A62EE8A2A34EE034A71EEC61A15EE76
:1049A0000D6A51EE894A46EE0B2A73EEA35A27EEA2
:1049B0000B7A44EE812A54EE095A03EE8A7A22EEEB
:1049C000816A23EE094A05EE817A05EE496A07EE0F
:1049D000014A06EE013A04EE015A25EE001A63EE92
:1049E000001A9FED8D0A03EE081A45EE481A80ED75
:1049F000001AC4ED001A00F0EFF997ED040A97EDE4
:104A00000B1A31EE000A20EE0C0ABDEEC01AB5EE0C
:104A1000C00A11EE100AF1EE10FAB8BF013801EE2B
:104A2000100AB8EEC11A30EE410A20EE0E0ABDEEB1
:104A3000C01A11EE100A00F180016FF35F206FF3CE
:104A40005F2105EB800205EE100A41F2E03005EB34
:104A5000810192ED001A92ED012AB8EE455AC2F298
:104A6000000091ED003A91ED014A30EE450A41F225
:104A7000DC31B1EE416A72EE412AC2F2000134EE3D
:104A8000437A73EE030A36EE426A11EE0D2A77EE90
:104A9000071A27EE0A7A74EE200A56EE091A02EE79
:104AA0000B7A20EE8B5A34EE032A32EEA24A01EE44
:104AB000807A12EE094A02EE8A5A27EE002A04EEA4
:104AC000005A91ED004A23EE096A01EE492A05EEEB
:104AD000006A02EE003A90ED002A06EE001A41F25A
:104AE000B43023EE040AC2F2000061EE040A01EEC3
:104AF000420A43EE020A80ED000A41F2B830C2F2E7
:104B00000000C0ED000A00F099F89FED4B0A94ED0B
:104B1000001A41F2D030C2F2000021EE000A80ED0E
:104B2000000A41F2AC20C2F2000001684A1C0029D0
:104B3000026015D140F2000597ED030A0021C2F290
:104B40000005016048F200312868BDEEC00AC0F6D9
:104B5000000110EE102AFBF7F5FB296808442860D5
:104B6000FEF750F841F2B020C2F2000001684A1C82
:104B70000029026015D140F2000598ED000A0021DD
:104B8000C2F20005016048F200312868BDEEC00A9B
:104B9000C0F6000110EE102AFBF7D4FB2968084488
:104BA0002860FEF72FF841F2B425C2F2000528680C
:104BB000411C002829601BD1206802F0E9FE9FED0E
:104BC000140B53EC102B02F019FD00222A6002F0A6
:104BD000E5FC40F2000448F213310246C2F2000440
:104BE000C0F600012068FBF7ADFB21680844206097
:104BF000FEF708F830686FF004010160DAF8000091
:104C00000160D9F800000160BDEC0E8BBDE8F087B3
:104C10000000000000408F4000000000610B363BA8
:104C200000000044DB0F49BCDB0F493C8D86BEBD54
:104C30008D863EBEEAE40E442E27863C9FED5E3A0A
:104C4000B0EE602A9FED5D4AB6EE001AF5EEC00A9E
:104C50000020F1EE10FA10EE032AB0EE603AC8BF61
:104C6000012010EE043A22EE015A23EE010AB5EEBD
:104C7000C05AF1EE10FAB5EEC00AC8BF40F002000B
:104C8000F1EE10FAC8BF40F00400411E05290BD810
:104C9000DFE801F0030F18212A339FED4B4A23EE82
:104CA000040A22EE042A2EE09FED452AB0EE420AC5
:104CB00029E09FED440A9FED442A20EE800A23EE6E
:104CC000022A20E09FED420A9FED403A20EE800A42
:104CD00022EE032A17E09FED3C0A9FED3A3A22EEBE
:104CE000000A20EE832A0EE09FED380A9FED382A55
:104CF00023EE000A20EE822A05E09FED344A22EEE0
:104D0000040A23EE042A9FED333A30EE024AB4EE51
:104D1000C34AF1EE10FA07DD80EE040A82EE042A9F
:104D200020EE030A22EE032A10B533EE423A00F0D9
:104D3000070033EE403A411E23EE011A0529BCEE6E
:104D4000C11A11EE10CAB8EE411A32EE011ABCEEC9
:104D5000C11A11EE10EAB8EE411A30EE010ABCEEAB
:104D6000C00A0BD810EE100A73466246DFE801F065
:104D7000030D1C1115197246634615E041F2941299
:104D800041F2941341F294100EE0034662467046DD
:104D90000AE002467346604606E0024663467046F5
:104DA00002E003467246604640F23441C4F201011B
:104DB0008A604B60086010BDD7B3DD3FD7B3DDBF5D
:104DC000000000003861A2C3386122C33861224369
:104DD0003861A24300A08C4541F2EC3141F2983297
:104DE00041F2F03030EE410A9FED684A30EEE11AB0
:104DF000C2F20001C2F20002C2F2000092ED005ABB
:104E000091ED003A41F2E83290ED002AC2F2000240
:104E100005EE003A82ED001A41F2E43205EE012A75
:104E2000B4EEC43AC2F2000281ED003A80ED002AED
:104E3000F1EE10FA82ED000A09DA9FED554AB4EE60
:104E4000C43AF1EE10FAD8BF81ED004A01E081EDDD
:104E5000004A9FED4E3AB4EEC32AF1EE10FA09DA99
:104E60009FED4B3AB4EEC32AF1EE10FAD8BF80EDB5
:104E7000003A01E080ED003A70B52DED028B41F271
:104E8000D42141F2F8309FED432A9FED433A9FED44
:104E9000437A41F2E03541F2DC36C2F20001C2F25F
:104EA0000000C2F20005C2F2000691ED064A41F28E
:104EB000C83190ED005A41F2F43020EE822AC2F25D
:104EC0000001C2F2000091ED006A24EE033AD0ED39
:104ED000000A01EE052A23EE061A04EE072A00EE68
:104EE000201AB2EE040A85ED002AB4EEC01A86ED4F
:104EF000001AF1EE10FA06DABAEE040AB4EEC01A9D
:104F0000F1EE10FA03DCB0EE401A86ED000A9FEDD8
:104F1000248AB0EE480A01EE410A10EE100A02F0AF
:104F200037FD41EC100B02F0ADFA51EC100B02F022
:104F300003FB96ED000A044600EE408A18EE100AC4
:104F400002F026FD41EC100B02F09CFA51EC100B24
:104F500002F0F2FA95ED001A00EE104AB4EEC01A13
:104F6000F1EE10FA0DDA80F0004000EE100AB4EE17
:104F7000C01AF1EE10FAD8BF85ED000ABDEC028B25
:104F800070BD85ED000ABDEC028B70BD3333333E3E
:104F9000333333BECDCCCC3C82A87BB7776CCC3AD4
:104FA0000000404370B582B0182647F6EA244FF05F
:104FB0000040C4F20206C0F600043060204601F052
:104FC0001BFF4EF210054FF400403060CEF200059A
:104FD00028680190019802202968C90300EBE1705C
:104FE00078B12968C90300EBE17050B12968C903A1
:104FF00000EBE17028B12968C90300EBE1700028DB
:10500000EAD14FF000403060A01C01F0F5FE4FF4F3
:105010000040306028680190019802202968C90387
:1050200000EBE17078B12968C90300EBE17050B181
:105030002968C90300EBE17028B12968C90300EBB6
:10504000E1700028EAD14FF000403060201D01F0EF
:10505000D3FE4FF400403060286801900198022090
:105060002968C90300EBE17078B12968C90300EB36
:10507000E17050B12968C90300EBE17028B12968DB
:10508000C90300EBE1700028EAD14FF00040306026
:10509000A01D01F0B1FE4FF400403060286801907F
:1050A000019802202968C90300EBE17078B12968F2
:1050B000C90300EBE17050B12968C90300EBE1704E
:1050C00028B12968C90300EBE1700028EAD14FF04C
:1050D0000040306004F1080001F08EFE4FF4004003
:1050E0003060286801900198022000BF2968C90338
:1050F00000EBE17078B12968C90300EBE17050B1B1
:105100002968C90300EBE17028B12968C90300EBE5
:10511000E1700028EAD102B070BD00BF2DE9F04F68
:1051200085B040F6184900254FF4802048F2210848
:10513000C4F20209ADF80C50C9F8000048F2210091
:10514000FDF774FC40F20047C4F20207386820F40F
:10515000406038603868386003A8FDF7BFFC41F252
:10516000D426C2F2000606F136042046FDF7B6FC4E
:10517000042041F20C329FEDE70A9FEDE71AC9F8CF
:105180000000C2F20002386820F4406038603868DD
:1051900040F400603860BDF80C00318E6FF3DF30F2
:1051A000411A02EE101AB8EEC22A92ED003A30808F
:1051B000002022EE004A22EE015A9FEDD81A9FED00
:1051C000D82A34EE430A86ED045A86ED054A82ED6C
:1051D000004AB4EEC10AF1EE10FAB4EEC20AB8BF4A
:1051E0000120F1EE10FAB4EEC20AC8BF0125F1EEBB
:1051F00010FA04DCB4EEC10AF1EE10FA79DA9FED90
:10520000C93A9FEDC94A00BFE907C00730EE035A0B
:1052100030EE046A18BFB0EE450A002918BFB0EEA0
:10522000460AB4EEC20AF1EE10FA04DCB4EEC10A8A
:10523000F1EE10FA5DDAB4EEC10A30EE035A30EE48
:10524000046AF1EE10FAB4EEC20AB8BFB0EE450A35
:10525000F1EE10FAC8BFB0EE460AB4EEC20AF1EEA3
:1052600010FA04DCB4EEC10AF1EE10FA41DAB4EE41
:10527000C10A30EE035A30EE046AF1EE10FAB4EED1
:10528000C20AB8BFB0EE450AF1EE10FAC8BFB0EEE0
:10529000460AB4EEC20AF1EE10FA04DCB4EEC10A1A
:1052A000F1EE10FA25DAB4EEC10A30EE035A30EE10
:1052B000046A00200025F1EE10FAB4EEC20AB8BF6D
:1052C000B0EE450AF1EE10FAC8BFB0EE460AB4EEF1
:1052D000C10AF1EE10FAB4EEC20AB8BF0120F1EE35
:1052E00010FAC8BF01258FDCB4EEC10AF1EE10FA46
:1052F0008ADB41F2983341F2103041F21432B2EEBF
:10530000042A9FEDBA3AC2F20003C2F20000C2F2D0
:10531000000293ED001A018821EE021A02EB8102CD
:10532000013180EE010A92ED002A82ED000A4CF66E
:10533000CD42CCF6CC42A1FB022341F23C32DB0849
:10534000C2F2000203EB830392ED001AA1EB4301CA
:105350000180002031EE421A9FEDA52AADF80C0025
:105360004FF4802031EE000A20EE031A20EE022ACC
:1053700082ED000A86ED061A86ED072AC9F80000BC
:1053800008F1300080B2FDF751FB386820F440602E
:1053900038603868386003A8FDF7A0FB2046FDF7A9
:1053A0009DFB04200723C9F80000386820F4406002
:1053B0003860386840F400603860BDF80C00400A7E
:1053C000B086F28E100BB3EB123FF08641F2403004
:1053D000C2F20000017804D100291CBF013901701C
:1053E00000E101310170C8B20B28C0F0FB8040F22F
:1053F00020404EF2100640F2000848F2043B40F212
:10540000040540F2003AC4F20100CEF20006C2F2F6
:105410000008C0F6000BC2F20005C2F2000A0168E3
:1054200021F001010160016821F0100101600168B3
:1054300021F480710160016821F0040101600168BC
:1054400021F040010160016821F48061016050F8A1
:10545000141C41F0010140F8141C40F250114FF0AF
:10546000CC30C2F200010290019001F134094FF0FA
:10547000CC3101E0DDE9010141F29C320123C2F2AD
:105480000002137041F2A0320823C2F2000213603E
:10549000CDE9031003A800F03BFE40F250104FF49A
:1054A0008022C2F2000001460068096B013902291E
:1054B000494638BF00F11401086838BF0122104383
:1054C000086041F2D4200921C2F20000C08EFDF72D
:1054D000F5FBD8F8001045224E23481CC8F8000000
:1054E0000A7000228C1863700BEB02039F7867B17F
:1054F000A770DF7867B1E7701F79BFB15B790432BD
:1055000004302771002BEDD1881801300FE000BF67
:1055100002300CE03FEFAF3A3B819D3DDB0F49C0CD
:10552000DB0F4940DB0FC940DB0FC9C00330C8F8AF
:105530000000FDF767FB2868D8F80010091A89B247
:1055400001F062FD296840F6D022C2F20002514506
:10555000514608BF114600282960C8F8001020D025
:1055600044F64450C5F64170086047F24250C6F216
:105570006660486047F26520C4F65F70886046F256
:105580007650C6F27260C86046F66C70C0F677500E
:10559000086101F11500C8F800000A200875FDF740
:1055A00031FB3068039003980B2000BF3168C903BA
:1055B00000EBE17000283FF45DAF3168C90300EBF8
:1055C000E17000283FF456AF3168C90300EBE17089
:1055D00000283FF44FAF3168C90300EBE1700028A9
:1055E000E4D147E705B0BDE8F08F00BFCDCCCC3D9E
:1055F000B358B740B0B541F2D42C41F244329FEDDC
:10560000840A9FED841A0023C2F2000CC2F2000249
:10561000BCF800E002EE10EAB8EE422A92ED004A31
:1056200022EE013A22EE000A9FED7B1A9FED7B2AC3
:105630008CED010A33EE440A82ED003A00228CED33
:10564000023AB4EEC10AF1EE10FAB4EEC20AB8BFE3
:105650000122F1EE10FAB4EEC20AC8BF0123F1EE46
:1056600010FA04DCB4EEC10AF1EE10FA79DA9FED1B
:105670006C3A9FED6C4A00BFDB07D20730EE035A4D
:1056800030EE046A18BFB0EE450A002B18BFB0EE2A
:10569000460AB4EEC20AF1EE10FA04DCB4EEC10A16
:1056A000F1EE10FA5DDAB4EEC10A30EE035A30EED4
:1056B000046AF1EE10FAB4EEC20AB8BFB0EE450AC1
:1056C000F1EE10FAC8BFB0EE460AB4EEC20AF1EE2F
:1056D00010FA04DCB4EEC10AF1EE10FA41DAB4EECD
:1056E000C10A30EE035A30EE046AF1EE10FAB4EE5D
:1056F000C20AB8BFB0EE450AF1EE10FAC8BFB0EE6C
:10570000460AB4EEC20AF1EE10FA04DCB4EEC10AA5
:10571000F1EE10FA25DAB4EEC10A30EE035A30EE9B
:10572000046A00220023F1EE10FAB4EEC20AB8BFF8
:10573000B0EE450AF1EE10FAC8BFB0EE460AB4EE7C
:10574000C10AF1EE10FAB4EEC20AB8BF0122F1EEBE
:1057500010FAC8BF01238FDCB4EEC10AF1EE10FAD3
:105760008ADB41F2483241F2983041F24C31B2EEDC
:10577000042AC2F20002C2F20000C2F2000190ED5F
:10578000001A138801EB830021EE021A41F29431D2
:10579000C2F2000180EE010A90ED002A80ED000ABD
:1057A00041F274300C88A1F800E0591C4CF6CD434E
:1057B000CCF6CC43C2F20000A1FB033590ED001AF9
:1057C000EB0831EE421A03EB83039FED172A31EE0B
:1057D000000AA1EB4301118080ED000AAEEB04004A
:1057E0006FF4804120EE021A88428CED031A02DC2D
:1057F00000F5004004E0B0F5804FC8BFA0F50040C0
:1058000041F29031C2F200010A6810440860B0BD54
:105810000000343CDB0F4939DB0F49C0DB0F494046
:10582000DB0FC940DB0FC9C0CDCCCC3D2DE9F04723
:105830000C6894FAA4F2B2FA82F234FA02F352D06B
:105840004FF001084FF0030C4FF00F0E08FA02F36F
:1058500014EA030942D099FAA9F34E680568B3FA2D
:1058600083FA4FEA4A070CFA07F406FA07F3A5434E
:105870002B430360E343741E012C05D88C688568B4
:10588000BC401D402C4384600C69C568022E04FA9C
:1058900007F403EA050343EA0403C3601ED14B691E
:1058A000BAF1070F0AD84FEA8A04056AA3400EFA34
:1058B00004F425EA0404234303620FE04FEA1924A9
:1058C000456A94FAA4F4B4FA84F4A400A3400EFA4E
:1058D00004F425EA04042343436200BF0C68013248
:1058E00034FA02F3B2D14A68013A012A88BFBDE80E
:1058F000F087C96842686143A24311434160BDE833
:10590000F08700BF10B586B00446C8B3206C0028ED
:1059100040F08F80002042F200220590CDE9030084
:10592000CDE90100C4F20102216891422BD042F27C
:105930000010C4F20100814241D042F20000C4F2E2
:105940000100814272D143F6300100200090C4F280
:1059500002014A6942F480724A614A6902F4807223
:105960000092009A00900A6842F004020A600968F6
:1059700001F00401009100990321029102213AE013
:10598000012006B010BD43F630010090C4F20201C0
:105990004A6942F480624A614A6902F48062009274
:1059A000009A00900A6842F004020A60096801F057
:1059B0000401009100990321029108211BE043F6A4
:1059C000300100200090C4F202014A6942F40072E2
:1059D0004A614A6902F400720092009A00900A68D3
:1059E00042F004020A60096801F004010091009984
:1059F0000321029104210191039040F6000001A9C6
:105A0000C4F2020001F0C8FB4EF60C500021CEF2A9
:105A1000000000684EF21240CEF2000001704EF21B
:105A200000104FF48021CEF2000001600020E063FE
:105A30006064206C10F0100F3AD1206C41F202111A
:105A40000123C0F60073884340F00200206442F254
:105A50000430C4F20100016821F440310160616842
:105A60000268114301602068416821F4807141603F
:105A70002169426842EA01214160416821F0407198
:105A80004160A168426811434160816821F400616E
:105A90008160E168826811438160A16A826822F0B6
:105AA000706299428260826804D122F040510AE01B
:105AB00001204FE011438160816821F040518160F5
:105AC000E16A826811438160816821F0020181608E
:105AD000A169826842EA41018160226A416882B11B
