:020000040800F2
:10000000D019002005030008192D00081D2D000837
:10001000212D0008252D0008292D000800000000D2
:100020000000000000000000000000002D2D00086E
:10003000312D000800000000352D0008392D000882
:100040001F0300081F0300081F0300081F03000808
:100050001F0300081F0300081F0300081F030008F8
:100060001F0300081F0300081F0300081F030008E8
:100070001F0300081F0300081F0300081F030008D8
:100080001F0300081F030008113200081F030008A7
:10009000492D00084D2D00081F0300081F0300080C
:1000A0001F0300081F0300081F0300081F030008A8
:1000B0001F0300081F0300081F0300081F03000898
:1000C0001F0300081F0300081F0300081F03000888
:1000D0001F030008512D00081F0300081F0300081C
:1000E0001F0300081F0300081F0300081F03000868
:1000F0001F0300081F0300081F0300081F03000858
:100100001F0300081F0300081F0300081F03000847
:100110001F0300081F0300081F0300081F03000837
:100120001F0300081F0300081F0300081F03000827
:100130001F03000800000000000000001F0300086B
:100140001F0300081F0300081F0300081F03000807
:100150001F0300081F030008293000081F030008C0
:100160001F0300081F0300081F0300081F030008E7
:100170001F0300081F0300081F0300080000000001
:10018000000000001F030008000000000000000045
:100190001F03000800000000000000001F0300080B
:1001A0000000000000000000000000001F03000825
:1001B0001F0300081F0300081F0300081F03000897
:1001C0001F03000800F002F800F08DF80AA090E884
:1001D000000C82448344AAF10107DA4501D100F002
:1001E00082F8AFF2090EBAE80F0013F0010F18BF42
:1001F000FB1A43F001031847B0620000D062000010
:10020000103A24BF78C878C1FAD8520724BF30C842
:1002100030C144BF04680C60704700000023002414
:1002200000250026103A28BF78C1FBD8520728BF06
:1002300030C148BF0B6070476E2900F03B817029C8
:1002400000F07D826629AFF300806529AFF300805E
:100250006729AFF300806129AFF3008003681B0AB0
:1002600028BF41F08001692900F0E880642900F08E
:10027000E580752900F0E2806F2900F00B82782973
:1002800000F04982E92900F0A581E42900F0A2816B
:10029000F52900F09F81EF2900F00882F82900F08D
:1002A00048820368DB0928BF41F08001632900F020
:1002B000BD83732900F0C283E32900F0CD83F329C5
:1002C00000F0D283002070471FB505F09CFC00F0C1
:1002D0002FFC04000020002105F0E0FA401C6060C3
:1002E0001FBD10B510BD00F0EBFB1146FFF7ECFF92
:1002F00000F06AFC00F012FC03B4FFF7F2FF03BC4D
:1003000000F058FC0948804709480047FEE7FEE72F
:10031000FEE7FEE7FEE7FEE7FEE7FEE7FEE7FEE7B5
:1003200004480549054A064B704700004957000834
:10033000C5010008D0130020D0190020D0150020DE
:10034000D01500200FB41CB5084B06AA7B446946A3
:100350000090059800F0C7F804460020694600F0B8
:10036000D5F820461CBC5DF814FB0000BD01000060
:1003700070477047704770B5044685690068C106CC
:1003800001D5302600E02026C00707D070BDD4E993
:10039000012130469047206A401C20626D1EF6D530
:1003A00070BD70B5044685690078C00707D170BD7F
:1003B000D4E9012120209047206A401C20626D1E54
:1003C000F6D570BD09684A0501D540B27047C90528
:1003D000FCD500B2704709684A0501D5C0B2704724
:1003E000C905FCD580B2704770B50C460546012A98
:1003F00005D02878800600D5EA69002302E00123B1
:1004000005E05B1C934202D2E05C0028F9D1A869A8
:10041000E618C01AA861286A184428622846FFF71F
:10042000AAFF04E0D5E9012114F8010B9047B4427A
:10043000F8D32846FFF7B5FF70BD00002DE9F04165
:100440000646002410687529314616A510D0FFF71E
:10045000B9FF002802DA404213A507E031688A0795
:1004600001D512A502E0490704D511A5012401E038
:10047000FFF7B1FF00210A2206F1240709E0B0FBD3
:10048000F2FCB0FBF2F302FB1C003030785418464B
:10049000491C0028F3D123462A463046BDE8F041E6
:1004A00000F061BA000000002D0000002B000000E9
:1004B0002000000011680268006A530501D5087029
:1004C0000AE0D30501D5088006E0130603D5C2175C
:1004D000C1E9000200E008600120704701694A1C80
:1004E00002610878704700B58FB0CDE90131002175
:1004F000059105497944CDE903101146684600F09D
:1005000029F90FB000BD0000E5FFFFFF0A6802F8FF
:10051000010B0A60704700002DE9FF5F15468A460F
:100520000446DFF8AC80F8440027D8E900103E46C6
:10053000CDE9001010E05AF826106A4602A800F033
:1005400097FA411C07D02178890603D5E26939184A
:1005500091420DD80744761C2078800602D5E069C8
:10056000B84205DDAE42E6DB5AF826000028E2D1AB
:10057000A069C01BA0612046FFF7FDFED8E900106E
:10058000CDE90010002017E05AF828106A4602A8AA
:1005900000F06EFAB0F1FF3F81460BD000250DF15F
:1005A000080B05E0D4E901211BF8050090476D1CFC
:1005B0004D45F7D308F10100B0428046E4DB206AE4
:1005C000384420622046FFF7ECFEBDE8FF9F0000A4
:1005D000F65600002DE9F0418046D21D22F00702B8
:1005E0000025D2E90002F52915A614D0011E72F1EA
:1005F000000106DA0023D0EB030063EB020211A630
:1006000008E0D8F800108B0701D50FA602E04907D3
:1006100001D50EA601251146002408F1240704E0A7
:1006200000F05CF930323A55641C50EA0102F7D10F
:100630002B46324621464046BDE8F04100F093B9D2
:10064000000000002D0000002B0000002000000032
:1006500030B4002100F1240408E002F00705D208BC
:10066000303542EA4372DB086554491C52EA0305FF
:10067000F3D10468002310A2250708D504F0200454
:100680000C4304D0C46901230CA2641EC46130BCB5
:1006900000F069B910B5044621461068FFF79BFECB
:1006A00002462046BDE810400023D1E7D21D22F0CB
:1006B0000701D1E90023CBE7000000003000000073
:1006C000F0B40D460188090502D5214C7C4402E0B6
:1006D0001F4C7C440E34002100F1240608E002F097
:1006E0000F071209E75D42EA03721B097754491CA0
:1006F00052EA0307F3D102780023120704D5702DC4
:1007000006D009B1022311342246F0BC00F02BB907
:1007100001231034F8E770B504460D4621461068F1
:10072000FFF759FE024629462046BDE870400023E7
:10073000C6E7D21D22F00703D3E90023C0E7036810
:10074000126843F0200303600823C3610023B7E766
:10075000585500002DE9F05F894604464FF0000A25
:10076000DFF874B1FB44C0F820A02046E168884758
:10077000002874D0252806D0D4E901219047206AAA
:10078000401C2062F1E700265F462046E16888476A
:100790002028054607DB312D05D2781910F8200CEA
:1007A00008B10643F1E7B00701D526F00406C4F806
:1007B0001CA00027C4F818A02A2D09D0284605F04F
:1007C00065F838B304EB8708303DC8F8185019E0D5
:1007D00059F8041B204604EB87029161E1688847C1
:1007E000012F054618D1E069002820DA26F02006FE
:1007F0001DE0D8F8180000EB800005EB4000303811
:10080000C8F818002046E1688847054605F03EF81C
:100810000028EED1012F0AD02E2D08D12046E16804
:1008200088477F1C0546022F46F02006C4DBA069DE
:10083000002803DA404246F00106A061F00701D02B
:1008400026F010066C2D0BD0682D09D04C2D39D018
:100850006A2D35D0742D35D07A2D33D016E038E09E
:10086000E1682F4620468847B842054609D16C2FDB
:1008700026D04FF48060E16806432046884705464D
:1008800004E06C2F1AD04FF4807006430DB3A5F12D
:100890004100192802D8203546F400664A46294608
:1008A000204626604E46FFF7C7FC80B101280BD0DA
:1008B000F61D26F0070000F1080956E74020E4E79E
:1008C0008020D8E70020D6E706F104094DE7284646
:1008D00052E7206ABDE8F09FE854000030B5B0F15F
:1008E0000A0271F100034FEA900E4EEA817EB0EBEE
:1008F0000E0061EB91014FEA101E4EEA017E10EBF3
:100900000E0041EB11114FEA102E4EEA016E10EB72
:100910000E0041EB11214FEA104E4EEA014E10EB52
:100920000E0041EB1141401841F100014FEAD000A7
:1009300040EA41704FEAD1014FEA810444EA9074E1
:1009400010EB800544EB01046D1944EB0404521BC9
:10095000A3414FF0000348BF0A3200D530BD401C10
:1009600041F1000130BD2DE9F0470D469946924610
:10097000044600F124080168880604D5E06921F0E6
:100980001001216000E00120A84201DD471B00E0CA
:100990000027A1697A1902EB0900081AA0612078E2
:1009A000C00602D42046FFF7E6FC002608E0D4E9A2
:1009B00001211AF806009047206A401C761C20622C
:1009C0004E45F4DB2078C0060AD52046FFF7D3FC5D
:1009D00006E0D4E9012130209047206A401C2062C3
:1009E000381EA7F10107F4DC07E0D4E9012118F86B
:1009F00005009047206A401C2062281EA5F10105D1
:100A0000F3DC2046FFF7CDFC2078000602D502205B
:100A1000BDE8F0870120FBE710B5436913B1AFF3E0
:100A2000008001E0FFF7E0FC012010BD127800F12A
:100A300024010A7000224A700122EDE711684FF08C
:100A4000FF32E9E710B5436913B1AFF3008001E06D
:100A5000FFF762FD012010BD126800F1240142621F
:100A6000002282620122EDE711684FF0FF32E9E7D0
:100A70002DE9F04116460C46054600F047F803689C
:100A800093F80101012807D0FF2C12D8185D80B11E
:100A900001202C70BDE8F081D3F8070132462146D1
:100AA00003F20713C7182846BC46BDE8F0410123EE
:100AB00060474FF0FF30EDE700487047100000201E
:100AC0007546FFF7F9FFAE4605006946534620F02C
:100AD0000700854618B020B5FFF722FCBDE820408E
:100AE0004FF000064FF000074FF000084FF0000BEA
:100AF000AC46ACE8C009ACE8C009ACE8C009ACE859
:100B0000C00921F007018D467047000010B500F0C4
:100B10000FF8001D10BD00BF854D000010B5044644
:100B2000AFF300802046BDE81040FFF7E5BB0000B2
:100B3000004870473000002030B44FF0013C50F8BE
:100B4000042B51F8043BCCFA52F4D51A20D1FCB94D
:100B500050F8042B51F8043BCCFA52F4D51A17D1B3
:100B6000B4B950F8042B51F8043BCCFA52F4D51A1E
:100B70000ED16CB950F8042B51F8043BCCFA52F466
:100B8000D51A05D1002CDAD030BC4FF000007047E8
:100B900029BAB1FA81F111F01801D1F12000844095
:100BA000F2D1CA40CB4012F0FF0213F0FF0330BC79
:100BB000D01A704701491820ABBEFEE7260002009C
:100BC00070470000000000002DE9F04F8FB041F2A7
:100BD0008E3143F6080A01204EF60C5240F20C0901
:100BE00044F6D3584EF21004C2F20001C4F2020AD5
:100BF000CEF20002C2F20009C1F26208CEF2000495
:100C000008704FF6FF01DAF8F80340F40070CAF8F4
:100C1000F803DAF8F80340F48060CAF8F803DAF869
:100C2000F80340F48070CAF8F8031068084040F2F6
:100C30000031C0F2FA5108431060D9F80000A0FB5F
:100C400008014FF0FF3000EB91110020B0EB116F65
:100C50000BD14EF60C526160F021CEF20002D1753C
:100C60000721A06021601168D075029047F2040549
:100C7000DAF83C10C4F2000541F48041CAF83C1097
:100C8000DAF83C1001F48041029102990290DAF8FE
:100C9000381041F08051CAF83810DAF8381001F0F5
:100CA0008051029102990290DAF8381041F0805197
:100CB000CAF83810DAF8381001F080510291029920
:100CC000029055F8040C40F4404045F8040C55F8E7
:100CD000040C00F4404002900298DAF8000000F0A2
:100CE0000C00042846D0DAF8000000F00C000828B8
:100CF00004D15AF8040C10F4800F3BD1DAF800004C
:100D000000F00C000C2804D15AF8040C10F4800FE9
:100D100030D15AF8080C40F480304AF8080C41F2FF
:100D20005C30C2F2000001685AF8082C12F4003F4F
:100D300022D10268521A642A00F280805AF8082CE4
:100D400012F4003F18D10268521A642A76D85AF871
:100D5000082C12F4003F0FD10268521A642A6DD891
:100D60005AF8082C12F4003F06D10268521A642A7D
:100D7000DAD963E05AF8080CDAF8000000F00C0049
:100D800008285BD060210020C4F24721086041F2AE
:100D90005C30C2F2000002685AF8083C13F0007F91
:100DA0001FD003689B1A022B48D85AF8083C13F04E
:100DB000007F16D003689B1A022B3FD85AF8083CD4
:100DC00013F0007F0DD003689B1A022B36D85AF817
:100DD000083C13F0007F04D003689B1A022BDBD978
:100DE0002CE042F60452C2F240224AF8042C0122BE
:100DF0000A6001685AF8082C12F0007F1ED10268C0
:100E0000521A032A1AD25AF8082C12F0007F15D170
:100E10000268521A022A11D85AF8082C12F0007FE0
:100E20000CD10268521A022A08D85AF8082C12F07B
:100E3000007F03D10268521A022ADBD9002041F256
:100E40005C3701210290C2F20007DAF8380040F066
:100E50008050CAF83800DAF8380000F0805002906C
:100E600002984020C4F20E2001603A682B6813F407
:100E7000803F20D13B689B1AB3F57A7F41D82B681D
:100E800013F4803F17D13B689B1AB3F57A7F38D8AB
:100E90002B6813F4803F0ED13B689B1AB3F57A7F21
:100EA0002FD82B6813F4803F05D13B689B1AB3F50C
:100EB0007A7FDBD925E041603868296811F4003F6A
:100EC0001FD13968091AB1F57A7F1AD8296811F447
:100ED000003F16D13968091AB1F57A7F11D829680F
:100EE00011F4003F0DD13968091AB1F57A7F08D89D
:100EF000296811F4003F04D13968091AB1F57A7FE5
:100F0000DBD9DAF8F80300F00F00042809D805202F
:100F10008AF8F803DAF8F80300F00F00052840F02B
:100F2000E580DAF8000040F4E050CAF80000DAF892
:100F3000000040F46040CAF80000DAF8000020F039
:100F4000F000CAF800005AF8080C10F0007F00F01A
:100F5000CD80DAF80000022161F30100CAF8000038
:100F60003868DAF8001001F00C01082930D1DAF8FD
:100F7000F80300F00E00062809D305208AF8F803CC
:100F8000DAF8F80300F00F00052840F0AF80DAF837
:100F90000000052161F38C200421CAF80000DAF872
:100FA000000061F34F30CAF80000DAF80000C0F327
:100FB000810142F20040C0F2F400032947D0022927
:100FC00032D0012904BF41F20020C0F27A006DE066
:100FD00041F288313A68121A8A4200F28780DAF8C0
:100FE000002002F00C02082AC1D03A68121A8A4284
:100FF0007CD8DAF8002002F00C02082AB7D03A6850
:10100000121A8A4272D8DAF8002002F00C02082A7A
:10101000ADD03A68121A8A4268D8DAF8002002F095
:101020000C02082AD6D1A2E75AF8041C5AF8043C4C
:1010300001F03F025AF8041C13F4800FC1F3881129
:1010400018D1A1FB0001002304F0A9FB19E05AF814
:10105000041C5AF8043C01F03F025AF8041C13F433
:10106000800FC1F3881114D1A1FB0001002304F00B
:1010700096FB15E041F20020C0F27A004843B0FB35
:10108000F2F05AF8041C0222C1F3014102EB4101C3
:101090000AE041F20020C0F27A004843B0FBF2F0CF
:1010A0005AF8041CC1F30271B0FBF1F0DAF8001039
:1010B0000FF6AC62C1F30311515CC840C9F80000DF
:1010C000A0FB08014FF0FF3000EB91110020B0EBC6
:1010D000116F0BD14EF60C526160F021CEF200027E
:1010E000D1750721A06021601168D0754FF0000B09
:1010F00040F21809042202AE4FF001080225CDF893
:101100001CB0C4F202093146DAF82800A9F1180728
:1011100040F08000CAF82800DAF8280000F08000CB
:101120000B900B98DAF8280040F00400CAF8280069
:10113000DAF8280000F004000B900B98DAF8280089
:1011400040F00100CAF82800DAF8280000F0010099
:101150000B900B98DAF8280040F00200CAF828003B
:10116000DAF8280000F002000B900B98DAF828005B
:1011700040F00800CAF82800DAF8280000F008005B
:101180000B900B984FF08070C9F800004FF480006E
:10119000C9F800044FF40040C9F8000040F61840B8
:1011A000C4F2020002604FF48070CDF80C8002900F
:1011B0003846CDE904BB0695019702F019FF4FF4BC
:1011C00000403146CDE902083846CDE9045BCDF850
:1011D000188002F00DFF04203146CDE9020809F61F
:1011E000E830CDE9045BCDF8188002F001FF09F585
:1011F0007A7940273146CDF80C8048460297CDE9F0
:1012000004BB069502F0F4FE4FF480703146CDE940
:10121000020B4846CDF8188002F0EAFECDF808B07F
:1012200047F2040140F2204302250326DAF82800A1
:10123000C4F20001C4F201030A4640F48000CAF877
:101240002800DAF8280000F48000029002984EF698
:101250000C50CEF2000000684EF22540CEF20000A5
:1012600080F821B0C4F8F870CDE906BBCDE904BB25
:10127000CDE902BB02AFDAF83C0040F00200CAF848
:101280003C00DAF83C0000F002000B900B9849F2A9
:10129000FC30095821F45C7141F04001115041F2D9
:1012A0009411D960C3F808B0C3F810B053F80C1CFF
:1012B00041F0010143F80C1C115821F0800111503C
:1012C00044F2070153F8180C884343F8180C53F8FC
:1012D000080C40F0080043F8080C186820F00100E2
:1012E0001860186853F81C1C53F8082C21F440713E
:1012F00020F00F0043F81C1C22F0730141F0600144
:1013000043F8081CC3F814B0186053F8080C20F018
:10131000040043F8080C53F8080C40F4006043F84C
:10132000080C186820F010001860186853F81C1C8E
:1013300053F8082C21F4406120F0F00043F81C1C05
:1013400022F4E64141F4C04143F8081CC3F818B048
:10135000186053F8080C20F4806043F8080C53F828
:10136000040C40F0080043F8040C186820F4807066
:101370001860186853F81C1C53F8042C21F44051D1
:1013800020F4706043F81C1C22F0730141F06001EE
:1013900043F8041CC3F81CB0186053F8040C20F088
:1013A000040043F8040C53F8040C40F4006043F8C4
:1013B000040C186820F480501860186853F81C1C3E
:1013C00053F8042C21F4804120F4405043F81C1CB5
:1013D00022F4E64141F4C04143F8041C41F2881173
:1013E00019621860394653F8040C20F4806043F801
:1013F000040C53F81C0C20F0700043F81C0C53F83C
:10140000180C20F0800043F8180C4FF4804058620C
:10141000DAF8280040F00100CAF82800DAF82800BD
:1014200000F001000B900B98DAF8280040F0020061
:10143000CAF82800DAF8280000F002000B900B9898
:10144000DAF8280040F00400CAF82800DAF828008A
:1014500000F004000B900B98802002900395CDE9DA
:10146000046BCDE90656019802F0C2FD4FF44040EE
:1014700002A981E8610848463946CDE9065602F0DE
:10148000B7FD4FF4E07002A94FF0020881E861084F
:101490001820394606950796C4F2020000F5FD6053
:1014A000009002F0A5FDDAF83C0002AF394640F4A6
:1014B0008050CAF83C00DAF83C0000F480500290FA
:1014C0000298DAF8280040F00200CAF82800DAF89A
:1014D00028004FF0050A00F0020002900298082050
:1014E000CDE902084846CDE9046BCDF81880CDF867
:1014F0001CA002F07DFD3020CDF80C804FF00108DB
:10150000394602904846CDE9046BCDE9068A02F0DF
:101510006FFD43F20000C4F20100016843F20400D1
:10152000C4F2010011F0400F10D143F200014FF658
:10153000BF72C4F201010B460968914340F61D32A7
:1015400011431960016821F004010160816940F2D2
:1015500098174FF482724FF400630A252026C2F2D6
:10156000000721F400618161016821F01001016030
:1015700046F200604FF40071C4F20000A0F528505C
:1015800087E80508C7E9033BC7E90581C7E9076B99
:10159000C7E909BBFD627D6D45B100254FF0000A2A
:1015A0004FF000094FF0000E009538E0002043F6A0
:1015B0000801C4F2020138650690CDE90400CDE9C6
:1015C00002000B900A46896B41F400419163916BD4
:1015D00001F400410B910B990B90916A41F00401C9
:1015E0009162916A01F004010B910B990221039120
:1015F0004FF4E05102910490032002A905900620C7
:101600000690009803F0CCFF386A0090D7E909BE35
:1016100097E80502D7E9033AD7E90581FE69022573
:1016200042EA09027D651A4301F40073D0F800C054
:1016300042EA0A0242EA08024FF001082CF0400593
:101640001A430560324340F24C150026009BC2F25B
:1016500000051A434FF4E00342EA0E02026004223E
:1016600002EA11414FF4002241EA0B014160C169D5
:1016700021F40061C16146F200600521BE65C4F23B
:101680000000A0F5007085E8430005F11400C5E9ED
:10169000036280E84801C5E90866C5E90A66C7F83B
:1016A000548002F0FFFF43F2000040F2382B4FF469
:1016B00061210C22C4F20100C2F2000BA0F500501F
:1016C0008BE84300CBE90366CBE90526CBF81C6029
:1016D000DBF83C1061B141F25C3A43F608090021A5
:1016E0004FF0000C0023C2F2000AC4F20209C9E064
:1016F00043F60809CBF838600696CDE90466CDE9D3
:1017000002660B96022502A9C4F20209D9F83C0030
:1017100040F01000C9F83C00D9F83C0000F010007F
:101720000B900B980B96D9F8280040F00100C9F8EF
:101730002800D9F8280000F001000B900B980395C1
:101740004FF4C06002900320CDF810800590072070
:101750000690019803F024FF40F2802046F2B84141
:101760004FF0006240234FF4806741F25C3AC2F2CE
:101770000000C4F20201C2F2000A466380E8CE0013
:101780004FF40032C0E90566C661C0E90826DAF800
:10179000002085630B6823F001030B600B6813F0D6
:1017A000010F2DD148F23F030A68CFF210031A400F
:1017B00040F24043C0F602031A4340F2FF330A608E
:1017C0004A6922F007024A616FF00F0252FA81F271
:1017D00099434AF6AB23CAF6AA235F2AA2FB032346
:1017E00088BF41F004011A090FF284739A5C3F2309
:1017F000C0E9171203FA02F28A600121002227E0F1
:101800000168DAF800309B1A052B1FD80B6813F01B
:10181000010FC7D0DAF800309B1A052B16D80B68D9
:1018200013F0010FBED0DAF800309B1A052B0DD84B
:101830000B6813F0010FB5D0DAF800309B1A052BB6
:1018400004D80B6813F0010FDBD1ABE70321202292
:101850008265CBF83000C0F83CB081634EF60C5086
:101860004EF22543CEF20000CEF2000300680020C5
:1018700018702020C4F8F400DBE90661DBF80000F2
:10188000DBE902C3242749F20C62B1F5004FCBF823
:101890003C70C76827F40057C760076927F44057B2
:1018A00043EA07030361DBE90437C56843EA0C0335
:1018B00025EA020243EA070343EA010342EA03027C
:1018C000C260426922F4407242EA0602426169D172
:1018D00041F2004240F48061C4F20102914240F0C2
:1018E000CA8040F20C0146F2804848F21F5EC2F204
:1018F0000001C0F60008C5F2EB1E0A68D9F800C066
:10190000DBF80460D9F80050D9F80030CB464FF02E
:101910001909C3F34237C5F34235760018F807704A
:1019200018F8055022FA07F122FA05F501FB09F132
:1019300005FB09F5B1FBF6F1B5FBF6F5A1FB0E379A
:101940007B09642703FB1713691A1944322303EB3D
:10195000C101A1FB0E134FF4F87101EA1311CCF38E
:10196000423318F8033022FA03F303FB09F3B3FB05
:10197000F6F3A3FB0E374FF6F073C7F6FF7303EAD7
:10198000570301EB030CDBF80030C3F34233DBF801
:10199000007040F2382B18F80330C2F2000BC7F386
:1019A0004237C8E041F2004240F48061C4F20102D3
:1019B000914240F0D08040F20C0146F2804848F25B
:1019C0001F5EC2F20001C0F60008C5F2EB1E0A68F5
:1019D000D9F800C0DBF80460D9F80050D9F800301D
:1019E000CB464FF01909C3F34237C5F34235B60071
:1019F00018F8077018F8055022FA07F122FA05F5D1
:101A000001FB09F105FB09F5B1FBF6F1B5FBF6F5B4
:101A1000A1FB0E377B09642703FB1713691A1944CE
:101A2000322303EB0111A1FB0E13F02101EA531144
:101A3000CCF3423318F8033022FA03F303FB09F323
:101A4000B3FBF6F3A3FB0E374FF6F073C7F6FF7345
:101A500003EA570301EB030CDBF80030C3F3423316
:101A6000DBF8007040F2382B18F80330C2F2000B9C
:101A7000C7F34237CEE040F20C0146F2804848F20C
:101A80001F5EC2F20001C0F60008C5F2EB1E0A6834
:101A9000D9F800C0DBF80460D9F80050D9F800305C
:101AA000CB464FF01909C3F38227C5F38225760090
:101AB00018F8077018F8055022FA07F122FA05F510
:101AC00001FB09F105FB09F5B1FBF6F1B5FBF6F5F4
:101AD000A1FB0E377B09642703FB1713691A19440E
:101AE000322303EBC101A1FB0E134FF4F87101EA9D
:101AF0001311CCF3822318F8033022FA03F303FB0B
:101B000009F3B3FBF6F3A3FB0E374FF6F073C7F6FA
:101B1000FF7303EA570301EB030CDBF80030C3F358
:101B20008223DBF8007040F2382B18F80330C2F241
:101B3000000BC7F3822722FA03F303FB09F3B3FB7D
:101B4000F6F318F80770FA40072702FB09F2B2FB18
:101B5000F6F203266DE040F20C0146F2804848F2AE
:101B60001F5EC2F20001C0F60008C5F2EB1E0A6853
:101B7000D9F800C0DBF80460D9F80050D9F800307B
:101B8000CB464FF01909C3F38227C5F38225B6006F
:101B900018F8077018F8055022FA07F122FA05F52F
:101BA00001FB09F105FB09F5B1FBF6F1B5FBF6F513
:101BB000A1FB0E377B09642703FB1713691A19442D
:101BC000322303EB0111A1FB0E13F02101EA5311A3
:101BD000CCF3822318F8033022FA03F303FB09F352
:101BE000B3FBF6F3A3FB0E374FF6F073C7F6FF73A4
:101BF00003EA570301EB030CDBF80030C3F3822345
:101C0000DBF8007040F2382B18F80330C2F2000BFA
:101C1000C7F3822722FA03F303FB09F3B3FBF6F3BE
:101C200018F80770FA400F2702FB09F2B2FBF6F230
:101C30000426A3EB020E48F21F554FF000084FF0A8
:101C40000109C5F2EB15A2FB05135909642301FB39
:101C500013217144B14040F270063231C2F20006E5
:101C6000A1FB051207EA521143F2000741EA0C01F9
:101C7000C4F201078160016921F490410161416969
:101C800021F02A014161C16841F40051C160202066
:101C9000CBF844804FF40031CBF83C00CBF8400047
:101CA00040F2010BA7F58050CDF83880C6F82080AF
:101CB000C0F6007BC6E90AB8C6F8308086E80301A2
:101CC0003046C6E90388C6E90598C6F81C9002F0BC
:101CD000FBF90B250BA93046CDE90B59CDF8348023
:101CE00002F01EFB4FF48010CDE90259CDF8189098
:101CF000CDF8108002A90A904FF460200990304678
:101D0000CDE90798CDF8148002F01EFC40F2B80629
:101D1000A7F57060CDF838804FF40037C2F20006A6
:101D2000C6F82080C6E90AB8C6F8308030604FF4A3
:101D3000003070603046C6E90288C6E90489C6E909
:101D4000068902F0C1F90C250BA93046CDE90B59E3
:101D5000CDF8348002F0E4FA4FF48010CDE9025956
:101D6000CDF81890CDF8108002A90A904FF46020A9
:101D700009903046CDE90798CDF8148002F0E4FBD5
:101D800043F2000040F20016CDF83880C4F20100A2
:101D9000C2F20006A0F56060C6E90AB8C6F8308055
:101DA00086E881013046C6E90388C6E90598C6E998
:101DB000079802F089F90D250BA93046CDE90B599A
:101DC000CDF8348002F0ACFA4FF48010CDE902591E
:101DD000CDF81890CDF8108002A90A904FF4602039
:101DE00009903046CDE90798CDF8148002F0ACFB9D
:101DF00040F2F41B4FF080404FF48041C2F2000BE0
:101E0000CBE90008CBE90281CBF81080CBF8188031
:101E1000DBF8401081BB43F60800CBF83C80CDF8DE
:101E20001880CDE90488CDE90288CDF82C80C4F271
:101E300002000146806B40F001008863886B00F06F
:101E400001000B900B98CDF82C80886A40F00100BF
:101E50008862886A02A900F001000B900B980220AA
:101E6000039003200290CDE90488CDF818900198E2
:101E700003F096FBDBF80000022144F2070240F277
:101E80002046CBF84010C4F201068168914340F629
:101E9000FF328160C4F20002016890420FDCB0F1B1
:101EA000804F1DD040F20043C4F20003984217D087
:101EB00040F60003C4F20003984211D015E040F64A
:101EC0000043C4F2000398420AD040F20043C4F237
:101ED0000103984204D00023C4F20103984204D1C4
:101EE000DBF8083021F07001194341F6FF73C4F2AA
:101EF000000398420DDC90421FDCB0F1804F4DD0C2
:101F000040F20042C4F20002904247D040F6000284
:101F100021E043F6FF72C4F2010290422CDC42F24F
:101F20000002C4F20002904238D00022C4F2010242
:101F3000904233D040F200422CE040F60042C4F21E
:101F4000000290422AD041F60002C4F20002904200
:101F500024D041F60042C4F2000290421ED022E09A
:101F60000000000000000000010203040607080949
:101F7000000610160006101644F20002C4F2010218
:101F800090420BD044F60002C4F20102904205D008
:101F900044F20042C4F20102904204D1DBF8102066
:101FA00021F440711143DBF8182021F08001114326
:101FB00040F200420160C4F20102DBF80C10C16281
:101FC000DBF80410816240F48061914204BFDBF8C9
:101FD000141001630121416182688369076A42F03C
:101FE0000302826040F2011262F30F0327F0AA029B
:101FF00083610262CBF84010DBF83C20012A0FD04D
:102000000222CBF840204268836822F070024260CE
:1020100023F0800282600020CBF83C00CBF8401017
:1020200020680290029840F2F51000BF2168C903B1
:1020300000EBE17078B12168C90300EBE17050B1A9
:102040002168C90300EBE17028B12168C90300EBE6
:10205000E1700028EAD143F200001825C4F2010023
:10206000C4F202050146006840F0400008604DF2ED
:10207000006046F20061C4F20001CFF6FF700A462C
:10208000095841F04001115040F23820C2F20000DE
:102090000068C16841F40051C16047F20401306832
:1020A000C4F200010A4640F48050306049F2FC302E
:1020B000095841F0010111504020C5F80004DAF838
:1020C000000000BFDAF80010091A03290ED2DAF86E
:1020D0000010091A022909D8DAF80010091A022991
:1020E00004D8DAF80010091A0329EBD34FF40040A2
:1020F0002860DAF8000000BFDAF80010091A032996
:102100000ED2DAF80010091A022909D8DAF80010FC
:10211000091A022904D8DAF80010091A0329EBD3A6
:1021200001F0AAFE4FF400402860DAF8000000BF7A
:10213000DAF80010091A03290ED2DAF80010091A89
:10214000022909D8DAF80010091A022904D8DAF8A5
:102150000010091A0329EBD345F664474FF00040FD
:10216000C0F600072860384603F04AF84FF40040F4
:102170002860206802900298022000BF2168C903ED
:1021800000EBE17078B12168C90300EBE17050B158
:102190002168C90300EBE17028B12168C90300EB95
:1021A000E1700028EAD14FF000402860B81C03F02D
:1021B00027F84FF40040286020680290029802201F
:1021C0002168C90300EBE17078B12168C90300EB15
:1021D000E17050B12168C90300EBE17028B12168BA
:1021E000C90300EBE1700028EAD14FF000402860FD
:1021F000381D03F005F84FF4004028602068029075
:10220000029802202168C90300EBE17078B12168CF
:10221000C90300EBE17050B12168C90300EBE17024
:1022200028B12168C90300EBE1700028EAD14FF022
:1022300000402860B81D02F0E3FF4FF40040286022
:1022400020680290029802202168C90300EBE17027
:1022500078B12168C90300EBE17050B12168C9036E
:1022600000EBE17028B12168C90300EBE1700028A0
:10227000EAD14FF00040286007F1080002F0C0FFEB
:102280004FF400402860206802900298022000BFAE
:102290002168C90300EBE17078B12168C90300EB44
:1022A000E17050B12168C90300EBE17028B12168E9
:1022B000C90300EBE1700028EAD14FF0004028602C
:1022C00007F10A0002F09CFF4FF4004028602068EC
:1022D00002900298022000BF2168C90300EBE17060
:1022E00078B12168C90300EBE17050B12168C903DE
:1022F00000EBE17028B12168C90300EBE170002810
:10230000EAD101F0B9FD01F0B7FD01F0B5FD01F032
:10231000B3FD01F0B1FD206802900298652000BF76
:102320002168C90300EBE17078B12168C90300EBB3
:10233000E17050B12168C90300EBE17028B1216858
:10234000C90300EBE1700028EAD1306841F28C311A
:1023500043F2333241F2B82741F2903940F2000B98
:1023600040F61848C2F20001C3F6A362C2F20007A9
:10237000C2F20009C4F2A01BC4F2020840F001003E
:102380003060306840F010003060306840F4807099
:102390003060306840F004003060306840F0400049
:1023A0003060306840F48060306056F8140C40F0C3
:1023B000010046F8140C01200026087041F260303C
:1023C0004BF21771C2F20000C3F65101016041F2F5
:1023D000B03042F60231C2F20000C3F6075101608C
:1023E00041F2B430C2F20000026041F2B830C2F2F1
:1023F0000000016041F2BC300021C2F20000C4F2D2
:10240000400102604CF6CD40C4F24C00C7E909011E
:102410004FF48020C9F800B0ADF80860C8F800009B
:1024200048F2210000F042FAD5F8E80320F44060B9
:10243000C5F8E803D5F8E803C5F8E80302A800F0FA
:102440008DFA07F1360000F089FA042041F26C326F
:10245000C8F80000C2F20002D5F8E80320F440609A
:10246000C5F8E803D5F8E80340F40060C5F8E803D0
:1024700041F26830BDF80810C2F2000006606FF348
:10248000DF31118041F28C323980C2F200021278C1
:10249000012A15D141F27C3241F26F23C2F20002CF
:1024A000C3F68323136041F278320023C2F20002A4
:1024B000C4F2A003136041F26432C2F2000216605B
:1024C00041F2105240F24C16C9F800B03A864CF274
:1024D0006852C2F20006CFF6FF7212FA81F1016073
:1024E000306B0138012836D846F20060C4F2000093
:1024F0000246006840F001001060106820F47C5033
:102500001060106840F46060106046F21C60C4F215
:102510000000016821F00101016050F8101C41F039
:10252000010140F8101C00214162816250F8181C22
:1025300021F0010140F8181C50F8081C21F001019D
:1025400040F8081C016841F001010160106820F0AA
:102550000100106003E0706B40F480207063306B0A
:1025600001280FD1022030633168086820F0010093
:102570000860DAF80000496811F0010F40F0C980E6
:10258000002002E0706B40F4002070633168326B11
:1025900006F134004FF48027013A022A024638BF80
:1025A00001F114024FF48021136838BF02273B4326
:1025B0004FF4802713603268336B013B022B0346D4
:1025C00038BF02F114031A6838BF4FF400673A436A
:1025D0004FF480271A603268336B013B022B0346AD
:1025E00038BF02F114031A6838BF4FF480673A43CA
:1025F0001A603268336B013B022B38BF02F11400C2
:10260000026838BF4FF400411143016041F28E303F
:10261000C2F200000078012835D140F2700540F286
:10262000B80640F20017C2F20005C2F20006C2F27C
:1026300000072868816841F0010181603068816885
:1026400041F0010181603868816841F001018160D9
:10265000304601F007FF384601F004FF284601F03C
:1026600001FFA86B0068016821F018010160B06BE0
:102670000068016821F018010160B86B006801680A
:1026800021F01801016041F264304BF2E01244F68F
:102690002061C2F20000CFF6FF7200BF0160236824
:1026A0000293029B40F2E9332768FF0303EBE773D1
:1026B0007BB12768FF0303EBE77353B12768FF0380
:1026C00003EBE7732BB12768FF0303EBE773002BE2
:1026D000EAD1026023680293029B40F2E93300BF13
:1026E0002768FF0303EBE773002BD7D02768FF03AE
:1026F00003EBE773002BD1D02768FF0303EBE773ED
:10270000002BCBD02768FF0303EBE773002BE7D147
:10271000C4E73168DAF80020121A0B2A22D24A687C
:1027200012F0010F3FF42CAFDAF80020121A0A2A37
:1027300018D84A6812F0010F3FF422AFDAF80020EF
:10274000121A0A2A0ED84A6812F0010F3FF418AF85
:10275000DAF80020121A0A2A04D84A6812F0010F87
:10276000D8D10DE7706B40F4003070630520306302
:102770000CE700BF10B582B040F2481445F64F0197
:10278000C2F20004C4F200012068884218DC45F25D
:102790004911C4F20001884244D045F25511C4F2F7
:1027A000000188427ED140F28C1041F28C2245F229
:1027B0005511C2F20000C2F20002016092694AE0C3
:1027C00045F65001C4F20001884238D045F6560162
:1027D000C4F20001884265D141F2B8209FED320A6F
:1027E00045F656010122C2F2000090ED031A40F2B4
:1027F0008C10C2F2000021EE000A0160BDEEC01A8A
:1028000080ED011A41F28030BDEEC00A0091C2F2A3
:1028100000008DED010A027041F28430C2F2000026
:10282000027026E040F28C1041F28C2245F24911F0
:10283000C2F20000C2F200020160926A0BE040F2B4
:102840008C1041F2683245F65001C2F20000C2F22B
:10285000000201601268426041F28030012301925F
:102860000091C2F20000037041F28430C2F2000015
:102870000370684602F02EF840F24C10C2F20000DD
:1028800000F134010268006B0138022838BF02F100
:1028900014014FF48022086838BF012210430860F9
:1028A0000020206002B010BD83F9A24543F2080168
:1028B000C4F201018880086810F0020F1BD1962035
:1028C0004FF6FF7C0B6813F0020F18D1831E13EA3A
:1028D0000C0F12D00A6812F0020F12D10A6812F01F
:1028E000020F10D1043810EA0C0F06D00A6812F05B
:1028F000020FE7D008E0962006E0002004E001384F
:1029000002E0184600E003380A6812F0800F1CD07D
:102910004FF6FF7C83B2012B17D00A6812F0800FAC
:1029200018BF022B11D00A6812F0800F18BF032BBA
:102930000BD00A6812F0800F07D0043810EA0C0F91
:1029400003D00A6812F0800FE4D181B0486800908B
:10295000009808680090009801B0704780B581B079
:1029600043F2080C4FF6FF7EC4F2010CACF804E011
:10297000DCF8001011F0010F1DD19621DCF80020C9
:1029800012F0010F1BD18A1E12EA0E0F15D0DCF8CF
:10299000003013F0010F14D1DCF8002012F0010F09
:1029A00011D1043911EA0E0F07D0DCF8002012F023
:1029B000010FE3D008E0962106E0002104E0013990
:1029C00002E0114600E00339DCF804200280DCF864
:1029D000000010F0020F25D14FF6FF704A1E024290
:1029E0001DD0DCF8003013F0020F1AD18A1E02420B
:1029F00015D0DCF8003013F0020F12D1CA1E0242CB
:102A00000DD0DCF8003013F0020F0AD10439014276
:102A100005D0DCF8002012F0020FDFD002E0002128
:102A200000E01146DCF8000010F0800F1FD04FF6D8
:102A3000FF708BB2012B1AD0DCF8002012F0800F4F
:102A400018BF022B13D0DCF8002012F0800F18BF43
:102A5000032B0CD0DCF8002012F0800F07D00439D3
:102A6000014204D0DCF8002012F0800FE1D1DCF844
:102A7000040000900098DCF800000090009801B07D
:102A800080BD00BF70B540F2040640F20004C2F2FF
:102A90000006C2F20004306821680D1A40F2A371EA
:102AA0008D4238BF70BDA9B202F0B2FC40F2E423FF
:102AB000326840F6B421C2F20003C2F200019A4229
:102AC00018BF19460028316021601FD044F64450D9
:102AD000C5F64170086047F24250C6F26660486031
:102AE00047F26520C4F65F70886046F27650C6F201
:102AF0007260C86046F66C70C0F67750086101F1EC
:102B0000150020600A200875FFF7BCFFB5F5FA6FC5
:102B100012D945F24F612068C5F24521016044F6A3
:102B2000464181804F21817100F1080121605721C8
:102B3000C171BDE87040A5E770BD00BF2DE9F04F41
:102B400083B0824640F200000091C2F20000BAF168
:102B5000FF3FD0F800C005DDBAF1000F00F0C980DA
:102B6000002305E02D20CAF1000A01238CF80000A3
:102B70004FF0000B03226FF006040E256FF0050ED8
:102B80004FF00009C9F10E08C9F10F00CDE901B3FA
:102B90005346E34600F00301B8F1030F02D20127C8
:102BA00026E000BF02F0030A012726460AEB060CC6
:102BB000BCF1040F0FD0BCF1000F0FD01CF10400CA
:102BC00011D000201036C6F6C17047430AEB06004C
:102BD0000828EBD10CE042F2107008E04EF2001031
:102BE000C0F2F55003E041F20000CDF2A5404743AA
:102BF00001294FF47A704CF6CD419A4608BF0A205D
:102C0000CCF6CC417843B3FBF0F0A0FB0117F908F8
:102C100001EB8101A0EB410010B140F0300103E075
:102C2000019801280CD13021029BDC460BF80310DF
:102C300001334FF0010BB9F10E0F07D1012132E042
:102C4000029BDC468346B9F10E0FF7D0C9F10D00A7
:102C500008F00208032801D201211FE005F0020755
:102C600001217646B81904280BD068B1043010D081
:102C700000201036C6F6C1704143B8190828F1D1BA
:102C80000CE042F2107008E04EF20010C0F2F55075
:102C900003E041F20000CDF2A5404143B8F1000F3E
:102CA0001CBF64204143BAFBF1F04CF6CD41CCF699
:102CB000CC41A0FB0117F90801EB8101A0EB410019
:102CC00010B140F0300103E0BBF1010F05D130211C
:102CD0000CF8031001334FF0010B09F102090EF15A
:102CE000020E023D02340232B9F1100F7FF44AAFF6
:102CF00003E0302001238CF800000CEB030040F2CD
:102D000000010130C2F20001086000980CF80300D5
:102D100003B0BDE8F04FB5E6704700BFFEE700BF67
:102D2000FEE700BFFEE700BFFEE700BF704700BF41
:102D3000704700BF704700BF41F25C30C2F2000034
:102D4000016801310160704701F006BE01F004BE68
:102D500080B540F2382CC2F2000CDCF800E0DEF85E
:102D60000020DEF80C30DEF8140012F00F0F4FD008
:102D700003F4907100F00100014364D0D1071FBF3C
:102D800013F48071DCF8441041F00101CCF84410D8
:102D9000510707D500281EBFDCF8441041F002019E
:102DA000CCF84410910707D500281EBFDCF844106A
:102DB00041F00401CCF84410110707D500281EBFCC
:102DC000DCF8440040F00800CCF84400DCF8440093
:102DD000002800F01E8103EA0200800640F1E28034
:102DE000DCF84000222840F0DD80DCF80800B0F577
:102DF000805F40F08080DCF81020DCF82800DEF8EE
:102E00000410002A00F0A880C9B220F8011BA7E036
:102E100003EA020010F0200F17D0DCF8400022284F
:102E200040F0F780DCF80800B0F5805F53D1DCF8A3
:102E30001020DCF82800DEF80410002A6BD0C9B29C
:102E400020F8011B6BE003EA020001060CD44006E7
:102E500058BF80BDDEF80C0020F04000CEF80C001A
:102E60002020CCF83C00D4E0DCF83C00212840F0E5
:102E7000D080DCF80810DCF82000B1F5805F0DD1BF
:102E800001886FF35F21CEF80410DCF810100029E0
:102E900014BF01300230CCF8200005E0411CCCF812
:102EA00020100078CEF80400BCF826004FF6FF7121
:102EB00001380842ACF8260040F0AB80DEF80C0088
:102EC00020F08000CEF80C00DEF80C0040F040004E
:102ED000CEF80C0080BDDCF81020DEF80400DCF831
:102EE0002810002A01F10102CCF8282018BF00F0B8
:102EF0007F00087015E0DCF81010DEF804000029EF
:102F0000DCF8281001F10102CCF8282018BF00F0ED
:102F10007F00087026E06FF35F2120F8021BCCF8D9
:102F20002800BCF82E004FF6FF7101380842ACF8BB
:102F30002E006ED1DCF80000C16821F02001C160D4
:102F4000C16821F48071C160416921F001014161D2
:102F50002020CCF8400080BD6FF35F2120F8021BD9
:102F6000CCF82800BCF82E004FF6FF710138ACF801
:102F70002E000842DCF800E014D1DEF80C0020F04E
:102F80002000CEF80C00DEF80C0020F48070CEF8A3
:102F90000C00DEF8140020F00100CEF81400202010
:102FA000CCF84000DEF81400DCF8441000F04000DB
:102FB00001F0080108432DD0DEF80C0020F49070D9
:102FC000CEF80C00DEF8140020F00100CEF814005A
:102FD0002020CCF84000DEF8140010F0400F18D08C
:102FE000DEF8140020F04000CEF81400DCF83400C5
:102FF00078B145F29551C0F600014165816B022917
:103000000CD1052181630068016821F00101016094
:1030100080BD80BD0020CCF8440080BD802181654A
:10302000BDE8804002F0B6BAF0B581B0002040F2B1
:10303000802448F2B5130821009040F20C00C2F23F
:103040000004C1F64E33C2F200000268D4E91760F2
:1030500037688140A2FB032539420DD022681368EE
:1030600013F0040F08D0136823F004031360B16059
:10307000A16D41F00101A16501218140394209D0D2
:103080002268526912F0800F04D0B160A16D41F046
:103090000201A16504218140394209D022681268E9
:1030A00012F0020F04D0B160A16D41F00401A165DE
:1030B0001021814039421AD02068026812F0080FAE
:1030C00015D0B1600268016812F4802F06D1C905DD
:1030D0005EBF016821F00801016001E0080343D4EC
:1030E000616C21B140F28020C2F200008847216E5D
:1030F000202000FA01F23A4246D02068036813F01B
:10310000100F41D0B260A36B0268052B1ED122F0D4
:1031100016020260426922F080024261626CE36C36
:103120001A431EBF026822F0080202603F20884056
:10313000B0600120A06300206063616D002962D04F
:1031400040F28020C2F2000088475CE00168520330
:103150000ED4C90511D4016821F0100101600120CD
:10316000A0630020606308E0E16C0029BAD1BEE7EB
:10317000080302D4A16C11B906E0216C21B140F220
:103180008020C2F200008847A06DE0B3A06D10F06F
:10319000010F2FD00521A80AA16321680A6822F037
:1031A00001020A60009A0132824200921ED80A6827
:1031B00012F0010F1AD0009A01328242009215D803
:1031C0000A6812F0010F11D0009A01328242009277
:1031D0000CD80A6812F0010F08D0009A013282421E
:1031E000009203D80A6812F0010FDBD10120A0631E
:1031F00000206063216D31B140F28020C2F20000F6
:10320000884701B0F0BD01B0F0BD00BF00BF00BFF6
:103210002DE9F04F81B02DED068B84B040F2001007
:103220009FED573A9FED572A41F28C2B40F61848F4
:10323000C2F20000C2F2000BC4F202080068B0EE55
:10324000435A90ED0F0A40F2B800C2F20000B8EE07
:10325000400A006890ED0F1A40F27000C2F20000C0
:10326000B8EE411A006801EE425AB0EE431AC06B44
:1032700000EE421A04EE100A0020B8EE444AADF8FF
:1032800008004FF480208BED001A8BED015A04EEFC
:10329000423A8BED023AC8F8000048F22100FFF7ED
:1032A00005FB40F20049C4F20209D9F8000020F4FD
:1032B0004060C9F80000D9F80000C9F8000002A871
:1032C000FFF74CFB41F2B824C2F2000404F1360AC5
:1032D0005046FFF743FB04209FED2B0A9FED2B8AFE
:1032E000C8F80000D9F8000020F44060C9F80000D8
:1032F000D9F8000040F40060C9F8000041F26C30D9
:10330000BDF80810C2F200006FF3DF3101EE101AB1
:10331000B8EE411A02880180218021EE000A21EED8
:10332000081A881A6FF4804284ED010A84ED021AAB
:10333000904202DC00F5004004E0B0F5804FC8BFC9
:10334000A0F5004041F2F02241F268339FED100AEF
:10335000C2F20002C2F2000392ED002A82ED001ACE
:103360001A6831EE422A1044B4EEC02A1860F1EE19
:1033700010FA15DD9FED071A48F2210E1BE000BF81
:1033800000007A420000FA3C0000343CDB0F49396F
:10339000DB0F4940DB0FC9C0DB0F49C0DB0FC94061
:1033A0001FED031A48F2210EB4EEC12AF1EE10FA15
:1033B00003DA1FED061A32EE012A41F2F42241F23D
:1033C000603C41F2F82341F220359FEDF26A9FED17
:1033D000F27AC2F20002C2F2000CC2F20003C2F2A0
:1033E000000510889CED001A03EB800382EE014A71
:1033F00095ED002A93ED003A83ED004A431C4CF60C
:10340000CD40CCF6CC40A3FB006732EE433A9FEDB3
:10341000E32A268EFF0833EE043A07EB8707891B61
:1034200005EE101AA3EB470141F22433C2F2000368
:10343000B8EEC54A23EE025A85ED003A118000210C
:103440000022D3ED000A24EE077A24EE066A1FED6F
:103450002E4A84ED035A84ED046A84ED057A83EDE7
:10346000007A37EE603AB4EEC43AF1EE10FAB4EEF8
:10347000C03AB8BF0121F1EE10FAC8BF012204DC46
:10348000B4EEC43AF1EE10FA79DA1FED3C5A1FEDB2
:103490003F6A00BFD207C90733EE057A73EE060A0A
:1034A00018BFB0EE473A002A18BFB0EE603AB4EE4B
:1034B000C03AF1EE10FA04DCB4EEC43AF1EE10FAC0
:1034C0005DDAB4EEC43A33EE057A73EE060AF1EE35
:1034D00010FAB4EEC03AB8BFB0EE473AF1EE10FAC7
:1034E000C8BFB0EE603AB4EEC03AF1EE10FA04DCB8
:1034F000B4EEC43AF1EE10FA41DAB4EEC43A33EE67
:10350000057A73EE060AF1EE10FAB4EEC03AB8BFCF
:10351000B0EE473AF1EE10FAC8BFB0EE603AB4EE42
:10352000C03AF1EE10FA04DCB4EEC43AF1EE10FA4F
:1035300025DAB4EEC43A33EE057A73EE060A0021BA
:103540000022F1EE10FAB4EEC03AB8BFB0EE473A3E
:10355000F1EE10FAC8BFB0EE603AB4EEC43AF1EE44
:1035600010FAB4EEC03AB8BF0121F1EE10FAC8BFAC
:1035700001228FDCB4EEC43AF1EE10FA8ADB41F29C
:10358000283141F22C3383EE011A6546C2F2000164
:10359000C2F200030A8803EB8203013293ED000AB2
:1035A00083ED001AA2FB000341F25430DB08C2F2A3
:1035B000000003EB830390ED003AA2EB43020A8084
:1035C00033EE400A9FED763A30EE010A80ED000AB4
:1035D000002020EE021A20EE032AADF808004FF476
:1035E000802084ED061A84ED072AC8F800000EF149
:1035F000300080B2FFF75AF9D9F8000020F440609B
:10360000C9F80000D9F80000C9F8000002A8FFF7C7
:10361000A5F95046FFF7A2F9042041F2B824072388
:10362000C8F80000C2F20004D9F8000020F440609D
:10363000C9F80000D9F8000040F40060C9F80000A3
:10364000BDF80800400AA086E28E100BB3EB123FD3
:10365000E08641F25830C2F20000017804D100291E
:103660001CBF01390170FBE001310170C8B20B28A9
:10367000C0F0F68040F220404EF2100740F2000801
:1036800046F2884A40F2040940F2E426C4F20100FE
:10369000CEF20007C2F20008C0F6000AC2F200092A
:1036A000C2F20006016821F001010160016821F009
:1036B00010010160016821F480710160016821F04E
:1036C00004010160016821F040010160016821F4FA
:1036D0008061016050F8141C41F0010140F8141C95
:1036E0004FF0CC300190009040F24C10C2F200003C
:1036F00000F1340B41F280300121C2F20000017070
:1037000041F28430C2F2000001704FF0CC30CDE9BC
:10371000020002A801F0DEF840F24C104FF48022C3
:10372000C2F2000001460068096B013902295946BE
:1037300038BF00F11401086838BF01221043086047
:1037400041F2B8200921C2F20000C08EFFF7F6F95D
:10375000D8F8001045224E23481CC8F800000A7013
:10376000002200BF8D186B700AEB02039C7864B1D5
:10377000AC70DC7864B1EC701C799CB15B7904327C
:1037800004302C71002BEDD1881801300BE000BF04
:10379000023008E03B819D3D3FEFAF3ACDCCCC3DC0
:1037A000B358B7400330C8F80000FFF76BF9D9F8F9
:1037B0000000D8F80010091A89B201F029FED9F8E2
:1037C000001040F6B422C2F20002B142314608BFF6
:1037D00011460028C9F80010C8F8001020D044F69F
:1037E0004450C5F64170086047F24250C6F2666028
:1037F000486047F26520C4F65F70886046F27650F4
:10380000C6F27260C86046F66C70C0F67750086108
:1038100001F11500C8F800000A200875FFF732F919
:103820003868029002980B203968C90300EBE170F8
:1038300000283FF45FAF3968C90300EBE17000284E
:103840003FF458AF3968C90300EBE17000283FF43A
:1038500051AF3968C90300EBE1700028E4D149E7B2
:1038600041F28E30C2F200000078012840F0008260
:1038700041F28C30C2F200000078012840F0F8815B
:1038800040F20800C2F2000001880131018089B2D3
:103890000A2950D141F2643141F2683241F278375D
:1038A00041F27C33C2F20001C2F20002C2F2000710
:1038B000C2F2000392ED000A91ED001A41F2743158
:1038C00041F29032C2F20001C2F20002B8EEC00A28
:1038D000B8EEC11A91ED002A95ED003A93ED005A29
:1038E00031EE400A97ED001A20EE084A92ED000AE8
:1038F00034EE422A21EE041A81ED004A41F294315D
:1039000082EE032AC2F2000105EE021A81ED001ACE
:10391000B4EEC01AF1EE10FA09DAB1EE400AB4EED4
:10392000C01AF1EE10FAD8BF81ED000A01E081ED76
:10393000000A0021018041F2C0309FEDDD1A9BEDAD
:10394000000A9BED012A9FEDDB3AC2F2000020EE57
:10395000014A90ED001A8BED070A02EE034AB5EE1C
:10396000C01A8BED084AF1EE10FA02DA06DAA06A04
:1039700000E0606A01EE100A206201E094ED081A8E
:1039800094ED075A95ED003A94ED042A9FEDCA6A2A
:1039900045F67C42F8EE004AF0EE085ADFEDC86AC0
:1039A0009FEDC88A41F2B43641F2943541F2B837FE
:1039B000C0F60002C2F20006C2F20005C2F2000721
:1039C00025EE011A21EE035A32EE051A21EE061AEF
:1039D000BDEEC12AB5EEC01A12EE100AF1EE10FAD1
:1039E0009FEDB62AB8BF013806EE100AB8EEC66AD7
:1039F00031EE461A21EE026ABDEEC61A11EE100A29
:103A000000F180016FF35F206FF35F2102EB800311
:103A100001EE900A41F2AC3002EB810193ED001A05
:103A200093ED017AF8EE611A41F2A832C2F2000079
:103A300041F2B03384ED0B5A91ED002AD1ED010A29
:103A400036EE616A41F2BC31C2F20002C2F20003FA
:103A5000F1EE412A37EE41AAC2F2000170EEC23AFD
:103A600072EE027A72EEC72A11EE247A33EEA39A2E
:103A700063EEA53A70EEA74A64EE881A12EEA69A93
:103A800047EE083A4AEE251A49EE063AD3ED005AB7
:103A900030EE827A7AEE0A0A62EE262A41F29C33EE
:103AA00057EE260AC2F2000323EE867AD7ED003ADB
:103AB00040EE861A01EE667AD2ED000AD1ED006A78
:103AC00041F2A03141EE862A07EE062A90ED007AF7
:103AD000C2F2000102EE861AD6ED002A22EE046A36
:103AE00061EE041A95ED004A01EE406A42EE001ABA
:103AF000CBED091A20EEA20A74EE464AF1EE612AD5
:103B000043EE610A8BED0A6A23EEA44AC1ED002A56
:103B100041F2A43105EEE10AC2ED000A07EE264AA1
:103B200003EE247AC2F20001B1EE043AC1ED004A7C
:103B300041F29831F4EEC30A83ED004A80ED007A39
:103B4000C2F20001F1EE10FA81ED000A09DAB9EED5
:103B5000043AF4EEC30AF1EE10FAD8BF82ED003A4F
:103B600001E082ED003AB1EE043AB4EEC37AF1EE30
:103B700010FA09DAB9EE043AB4EEC37AF1EE10FAAB
:103B8000D8BF80ED003A01E080ED003A9FED4E3A5B
:103B900094ED065A9FED4D7A25EE033A05EE074A5D
:103BA00003EE060AB7EE003A83ED004AB4EEC30A0C
:103BB00081ED000AF1EE10FA06DABFEE003AB4EE3B
:103BC000C30AF1EE10FA03DCB0EE430A81ED003ACD
:103BD00061EE000A22EE000A01EE440A42EE040AF7
:103BE0008BED030ACBED040A00F078F841F284244F
:103BF000C2F200042068411C0028216019D1DBF8C2
:103C0000280001F08FFF9FED280B53EC102B01F0E3
:103C10008BFE0022226001F057FE40F200040246B3
:103C20002BA1C2F200042068FCF78CFB2168084439
:103C30002060FEF727FF41F28820C2F200000168F1
:103C40004A1C0029026011D1002140F200040160E9
:103C500041F26831C2F20004C2F2000120680A6831
:103C60001CA1FCF76FFB216808442060FEF70AFFE7
:103C700040F270006FF00401C2F2000000680160C1
:103C800040F2B800C2F200000068016040F200108B
:103C9000C2F200000068016004B0BDEC068B01B008
:103CA000BDE8F08F00BF00BF0000000000408F4063
:103CB0003ACD133F3ACD933F610B363B00000044B1
:103CC000DB0F493CDB0F49BCA48CB8B7227A933A8E
:103CD0002564090025640D0A000000009FED5E3A8E
:103CE000B0EE602A9FED5D4AB6EE001AF5EEC00A0E
:103CF0000020F1EE10FA10EE032AB0EE603AC8BFD1
:103D0000012010EE043A22EE015A23EE010AB5EE2C
:103D1000C05AF1EE10FAB5EEC00AC8BF40F002007A
:103D2000F1EE10FAC8BF40F00400411E05290BD87F
:103D3000DFE801F0030F18212A339FED4B4A23EEF1
:103D4000040A22EE042A2EE09FED452AB0EE420A34
:103D500029E09FED440A9FED442A20EE800A23EEDD
:103D6000022A20E09FED420A9FED403A20EE800AB1
:103D700022EE032A17E09FED3C0A9FED3A3A22EE2D
:103D8000000A20EE832A0EE09FED380A9FED382AC4
:103D900023EE000A20EE822A05E09FED344A22EE4F
:103DA000040A23EE042A9FED333A30EE024AB4EEC1
:103DB000C34AF1EE10FA07DD80EE040A82EE042A0F
:103DC00020EE030A22EE032A10B533EE423A00F049
:103DD000070033EE403A411E23EE011A0529BCEEDE
:103DE000C11A11EE10CAB8EE411A32EE011ABCEE39
:103DF000C11A11EE10EAB8EE411A30EE010ABCEE1B
:103E0000C00A0BD810EE100A73466246DFE801F0D4
:103E1000030D1C1115197246634615E041F2941208
:103E200041F2941341F294100EE00346624670464C
:103E30000AE002467346604606E002466346704664
:103E400002E003467246604640F23441C4F201018A
:103E50008A604B60086010BDD7B3DD3FD7B3DDBFCC
:103E6000000000003861A2C3386122C338612243D8
:103E70003861A24300A08C4570B582B0182645F683
:103E800070444FF00040C4F20206C0F600043060F7
:103E9000204601F0B5F94EF210054FF400403060B5
:103EA000CEF2000528680190019802202968C90314
:103EB00000EBE17078B12968C90300EBE17050B103
:103EC0002968C90300EBE17028B12968C90300EB38
:103ED000E1700028EAD14FF000403060A01C01F0F2
:103EE0008FF94FF40040306028680190019802205B
:103EF0002968C90300EBE17078B12968C90300EBB8
:103F0000E17050B12968C90300EBE17028B129685C
:103F1000C90300EBE1700028EAD14FF000403060A7
:103F2000201D01F06DF94FF40040306028680190C9
:103F3000019802202968C90300EBE17078B1296873
:103F4000C90300EBE17050B12968C90300EBE170CF
:103F500028B12968C90300EBE1700028EAD14FF0CD
:103F600000403060A01D01F04BF94FF4004030607C
:103F700028680190019802202968C90300EBE170CC
:103F800078B12968C90300EBE17050B12968C90311
:103F900000EBE17028B12968C90300EBE17000284B
:103FA000EAD14FF00040306004F1080001F028F938
:103FB0004FF400403060286801900198022000BF53
:103FC0002968C90300EBE17078B12968C90300EBE7
:103FD000E17050B12968C90300EBE17028B129688C
:103FE000C90300EBE1700028EAD102B070BD00BF48
:103FF0002DE9F0470C6894FAA4F2B2FA82F234FA8E
:1040000002F352D04FF001084FF0030C4FF00F0EA7
:1040100008FA02F314EA030942D099FAA9F34E68A8
:104020000568B3FA83FA4FEA4A070CFA07F406FA6E
:1040300007F3A5432B430360E343741E012C05D80B
:104040008C688568BC401D402C4384600C69C56841
:10405000022E04FA07F403EA050343EA0403C360EB
:104060001ED14B69BAF1070F0AD84FEA8A04056AD4
:10407000A3400EFA04F425EA0404234303620FE08C
:104080004FEA1924456A94FAA4F4B4FA84F4A4001B
:10409000A3400EFA04F425EA04042343436200BF5C
:1040A0000C68013234FA02F3B2D14A68013A012AAB
:1040B00088BFBDE8F087C96842686143A2431143E5
:1040C0004160BDE8F08700BF10B586B00446C8B3B4
:1040D000206C002840F08F80002042F200220590E2
:1040E000CDE90300CDE90100C4F20102216891424B
:1040F0002BD042F20010C4F20100814241D042F2C2
:104100000000C4F20100814272D143F63001002068
:104110000090C4F202014A6942F480724A614A691D
:1041200002F480720092009A00900A6842F0040241
:104130000A60096801F004010091009903210291CD
:1041400002213AE0012006B010BD43F63001009094
:10415000C4F202014A6942F480624A614A6902F487
:1041600080620092009A00900A6842F004020A609D
:10417000096801F0040100910099032102910821CE
:104180001BE043F6300100200090C4F202014A69AE
:1041900042F400724A614A6902F400720092009A85
:1041A00000900A6842F004020A60096801F0040104
:1041B000009100990321029104210191039040F69E
:1041C000000001A9C4F2020001F0EAF94EF60C5019
:1041D0000021CEF2000000684EF21240CEF2000044
:1041E00001704EF200104FF48021CEF20000016009
:1041F0000020E0636064206C10F0100F3AD1206C56
:1042000041F202110123C0F60073884340F002001E
:10421000206442F20430C4F20100016821F440310C
:10422000016061680268114301602068416821F4FF
:10423000807141602169426842EA01214160416820
:1042400021F040714160A16842681143416081687A
:1042500021F400618160E168826811438160A16A94
:10426000826822F0706299428260826804D122F0F2
:1042700040510AE001204FE011438160816821F044
:1042800040518160E16A826811438160816821F058
:1042900002018160A169826842EA41018160226A6B
:1042A000416882B141F400614EF200024160CFF6F4
:1042B000FF72416821F460414160616A02EB413163
:1042C0004268114301E021F4006141600022C16AAB
:1042D000CFF6F07221F47001C162E16902EB015185
:1042E000C26A1143C162816821F400718160216B4F
:1042F000826842EA41218160816821F480618160A5
:104300006169826842EA8121012281600020606443
:10431000216C62F3010121640021E16306B010BD4C
:1043200070B581B000220092C26B012A01D1022136
:104330004AE00122C263D1F800E01FFA8EFCBEF110
:104340000A0F4FEA4C0212FA8EF204D303681E3AA7
:1043500003F10C0402E0036803F11004072526684A
:10436000954026EA050525608D6805FA02F2256864
:104370002A4322604A68062A05D802EB820203F12A
:104380003401053A0BE002EB82040C2A87BF03F1EB
:104390002C01A4F1410203F13001A4F123021F24F6
:1043A0000D6894400CFA02F225EA04040C600E68D1
:1043B00032430A6042F20431C4F20101A1F54172B4
:1043C000934204D00021C163084601B070BDBEF124
:1043D000110F10D01222C1F2000296450BD0BEF18F
:1043E000120FEFD10A6822F400020A600A6842F450
:1043F00080020A60E6E70A6822F480020A600A681E
:1044000042F400020A601221C1F200018E45D9D1A6
:1044100040F20C014DF68362C2F20001C4F21B327D
:104420000968A1FB0212910C01EB8101490001E036
:1044300000990139009100990029C3D000990139F0
:10444000009100990029BDD000990139009100998F
:104450000029B7D000990139009100990029E7D1CE
:10446000B0E700BF81B000210091C16B012963D08A
:104470000121C16301688A6812F0010F27D18A689F
:104480004DF68363C4F21B3342F001028A6040F2AE
:104490000C02C2F200021268A2FB03239A0C02EB88
:1044A000420201E0009A013A0092009A7AB1009A21
:1044B000013A0092009A52B1009A013A0092009A91
:1044C0002AB1009A013A0092009A002AEAD18A6839
:1044D00012F0010F30D0026C43F2010342F2000CE3
:1044E000C4F2010C9A4342F480520264026C12F44A
:1044F000807F04BF002242640022C2636FF0040088
:104500000860486840F080004860DCF80433886840
:104510004A6800F4401002F4806213F01F0F09D0C3
:10452000614501BF50EA0200886840F4800088605D
:1045300001B07047104301D001B07047886840F463
:104540008000886001B07047C26B012A02BF02215F
:104550000846704770B50122C263D1F800C01FFA47
:104560008CFEBCF10A0F4FEA4E0212FA8CF204D311
:1045700003681E3A03F10C0402E0036803F110041F
:1045800007252668954026EA050525608D6805FA09
:1045900002F225682A43226000249A6BCFF6F07459
:1045A00022F440129A630A699D6B04EB0254C2F133
:1045B00003022C439C634D689E6B2A44D4B2A40032
:1045C00054FA82F21F2494400EFA02F226EA0404FE
:1045D0009C639E6B324301269A63C0F20F06CC693E
:1045E0009A6822F47022B4429A609A6802D122F446
:1045F000401409E022439A609A6822F440129A60BB
:104600000A6A9E6846EA02049C608A695E6846F40B
:104610008064002A08BF26F480645C604A695E6892
:1046200046F48054002A08BF26F48054032D5C60B1
:1046300008D0022D09D0012D14BF03F1200203F18F
:10464000140204E003F11C0201E003F118021668F1
:1046500040F6FF75AE431660C968166831431160B5
:1046600042F20431C4F20101A1F541729342BDE866
:10467000704012D1BCF1110F0BD01222C1F2000216
:10468000944506D0BCF1120F07D10A6842F48002AB
:1046900002E00A6842F400020A600021C163084691
:1046A000704700BF2DE9F04786B040F24C16C2F2C9
:1046B0000006306B00285ED1002700240597CDE965
:1046C0000377CDE90177C4F202043068A4F5CE3156
:1046D000884250D143F6300000974FF0020801ADF8
:1046E0004FF003094FF0090AC4F20200016941F0DA
:1046F00000710161016901F000710091009900975A
:10470000016841F0010101602946006800F00100E4
:1047100000900098CDF808804FF4006001900120CF
:1047200003902046CDF81090CDF814A000F038FF8B
:104730004FF48050CDF808802946019003A880E806
:104740008006204600F02CFF4EF60C504FF48012ED
:10475000CEF2000001684EF20011CEF2000181F8A5
:1047600014730A6000684EF21540CEF20000077024
:104770004FF400100860336841F25C31C2F200016E
:10478000186820F0020018600A685F68306817F047
:10479000020F22D00B689B1A0B2B80F08B80436892
:1047A00013F0020F18D00B689B1A0A2B00F28280BC
:1047B000436813F0020F0FD00B689B1A0A2B79D8AD
:1047C000436813F0020F07D00B689B1A0A2B71D8AD
:1047D000436813F0020FDDD103461A6842F001026C
:1047E0001A600A68436813F0010F20D130680B6823
:1047F0009B1A0B2B64D2436813F0010F17D10B687F
:104800009B1A0A2B5CD8436813F0010F0FD10B6879
:104810009B1A0A2B54D8436813F0010F07D10B6879
:104820009B1A0A2B4CD8436813F0010FDFD0B169F3
:104830000268371D22F08003012908BF42F080037F
:104840000360F169026822F04003012908BF42F0C9
:1048500040030360316A026822F02003012908BF87
:1048600042F020030360716A026842F010030129DC
:1048700008BF22F010030360B16A026822F0080347
:10488000012908BF42F008030360F16A026822F0C0
:104890000403012908BF42F0040303608ECF1A43CA
:1048A000736901393A431A4311430122C16100215E
:1048B00000200AE0706B052240F40031012004E082
:1048C000706B052240F4003101207163326306B041
:1048D000BDE8F08740F24C13C2F200031A68196B6E
:1048E00003F1340C01399368012909D813F0E05F12
:1048F00009D0C3F30163032B08D14FF4000025E076
:104900004FF4802022E04FF400101FE002EB03116F
:1049100041F28032C2F2000201F5C07C1278002A16
:1049200018BF4FF0A142C1F8802141F28432C2F297
:1049300000021278002A18BF0822C1F884214268B8
:10494000C1F88C210068C1F888010120DCF8001052
:104950000843CCF8000070472DE9F04F81B02DEDF1
:10496000028B88B040F24C1AC2F2000ADAF800005A
:10497000466944688568C7680169039116F0010FAC
:104980008169029401910FD14FF00009300739D5A8
:1049900017F0100036D0DAF80000102149F4007941
:1049A000C160700730D436E0E90722D00121816070
:1049B000A8071CD468075ABF4FF4805000EA452965
:1049C0004FF40069E80518D5DAF800004FF480715B
:1049D0008160A80500F1F98268055ABF05F40060FE
:1049E00049EAC00949F40059E80309D5F2E2FDF7A4
:1049F000C1FE4FF00009E805E6D4E80300F1EA82C1
:104A00003007C5D4700706D517F008001EBFDAF8C6
:104A100000000821C160B00740F18C81DAF8000085
:104A2000C16811F0030F00F0858145F2491545F684
:104A3000500740F2841B40F220449FED2A8A0AF17D
:104A40003408C4F20005C4F20007C2F2000BC4F23D
:104A5000010400BFDAF830100139012944D80146B9
:104A600051F80C2F12F0030F41D0D0F8B031D0F82C
:104A7000B02113F0040F05D141F28833520DC2F278
:104A800000031A60D0F8B021D0F8B421D0F8B421D6
:104A9000D0F8B421D0F8B8218BF80020D0F8B82194
:104AA000120A8BF80120D0F8B821120C8BF80220E2
:104AB000D0F8B821120E8BF80320D0F8BC218BF867
:104AC0000420D0F8BC21120A8BF80520D0F8BC21B4
:104AD000120C8BF80620D0F8BC01000E8BF80700F2
:104AE000202007E0DB0F49394FF4802001E04FF42C
:104AF000001041460A681043086041F28830C2F253
:104B000000000068B0F5407F1AD0B0F5417F40F05A
:104B10000381DBF8000045F24F21884221DD45F298
:104B20005411C4F20001884242DC45F2502188420F
:104B30006DD045F24A61884272D0A84232D0EBE093
:104B400045F64F01DBF80000C4F20001884235DC75
:104B5000A84227D045F25511C4F20001884238D04E
:104B6000DAE044F24331884241DD44F24431884284
:104B700065D044F64D71884268D045F253018842B1
:104B800040F0CA80DBF80400B0F50C0F80F288809A
:104B900010F50C0F40F20000CFF67470D8BFCBF8C0
:104BA000040081E040F24810C2F200000560B3E06A
:104BB00045F25511C4F2000188420AD0B84210D023
:104BC00045F65601C4F20001884240F0A580B81DA8
:104BD00001E005F10C0040F24811C2F2000108604A
:104BE0009AE040F24810C2F20000076094E044F2FC
:104BF000501188424CD044F24131884240F08C80C0
:104C00009BED010A41F2C430C2F2000052E041F2D1
:104C10006830C2F200000068DBF80410084439E094
:104C2000DBF80400B0F50C0F47DA10F50C0F40F27A
:104C30000000CFF67470D8BFCBF8040041E09BEDC4
:104C4000010A41F2C830C2F2000033E041F2C03044
:104C50000021C2F200000160DBF804102068012985
:104C60003CD140F001002060206840F0100020603E
:104C7000206840F480702060206840F004002060CC
:104C8000206840F040002060206840F480603BE0F5
:104C9000DBF8040041F26431C2F2000108603BE03D
:104CA0004FF40C00CBF804009BED010A41F2703088
:104CB000C2F20000B8EE400A0BE04FF40C00CBF853
:104CC00004009BED010A41F2C030C2F20000B8EED0
:104CD000C00A20EE080A80ED000A1DE020F0010065
:104CE0002060206820F010002060206820F4807090
:104CF0002060206820F004002060206820F0400040
:104D00002060206820F48060206054F8140C40F08B
:104D1000010044F8140C00BFFDF72CFDDAF8300058
:104D20000138012806D8DAF80000C16811F0030F35
:104D30007FF490AE700640F18380039A029B12F0DC
:104D4000100005D0DAF80000102149F480690161F3
:104D5000B00606D512F008001EBFDAF800000821E0
:104D60000161F00644BFDAF800000069B00306D51F
:104D700013F010001EBFDAF8000010214160F003AC
:104D800006D513F008001EBFDAF8000008214160C4
:104D9000300428D5580722D5019A06F4807002EA1B
:104DA000102012F0020F40EA0900014618BF41F03E
:104DB000020116F4007F08BF014612F0040F1046EE
:104DC000894618BF49F0040916F4806F08BF894668
:104DD00016F4006F18BF10F0700040F01681DAF87A
:104DE000000004214160B9F1000F00F0ED81DAF814
:104DF000340040F2000546F2974343224127C2F2B5
:104E00000005C0F6000340EA0900CAF8340029682A
:104E1000481C28600A7000228E1877709F18BC7892
:104E200064B1B470FC788CB1F4703C7984B17F7952
:104E3000043204303471002FEED18818013008E0BC
:104E4000DDE90232B0063FF585AF8AE7023000E0C7
:104E500003302860FDF716FEDAF834000A210A262E
:104E6000FDF76CFE40F204042968C2F200042068D9
:104E7000091A89B200F0CCFA40F2E423226840F625
:104E8000B421C2F20003C2F200019A4218BF1946CF
:104E90000028216029601ED044F64450C5F64170B8
:104EA000086047F24250C6F26660486047F26520EB
:104EB000C4F65F70886046F27650C6F27260C860D1
:104EC00046F66C70C0F67750086101F115000E755A
:104ED0002860FDF7D7FD40F2941041F21118C2F29C
:104EE0000000C0F2110801884A1C64290280CDF834
:104EF0001480DAF8346004963DD802310180DAF883
:104F0000300002285AD1DAF80000016841F00101AE
:104F1000016041F25C31C2F200010A68436813F09B
:104F2000010F22D1DAF800000B689B1A0B2B80F0DE
:104F30007980436813F0010F17D10B689B1A0A2B75
:104F400070D8436813F0010F0FD10B689B1A0A2B1E
:104F500068D8436813F0010F07D10B689B1A0A2B1E
:104F600060D8436813F0010FDED0016821F0020120
:104F7000016001205DE040F22040C4F201000168C0
:104F800021F001010160016821F010010160016858
:104F900021F480710160016821F004010160016861
:104FA00021F040010160016821F48061016050F846
:104FB000141C41F0010140F8141C05E1DAF834003A
:104FC00040F48010CAF8340035E0FDF7D3FBE80365
:104FD0007FF516ADDAF800004FF480318160A80348
:104FE0000DD468034FBF49F400494FF4803000EA04
:104FF000D50049EA000930073FF5CAAC02E5FDF7E4
:10500000B9FB30073FF5C4ACFCE4103800090528B3
:1050100000F2EE80DFE800F003DEE1E4E7EA49F0C9
:105020000809E5E0DAF8340040F40030CAF834004A
:105030000520CAF8300045F65001DAF80000C4F245
:10504000000101F53B61884240F0818000204FF46F
:105050006151C4F20200425822F0007242504FF6F1
:10506000104243F60041CFF6FF72C4F201018B58A3
:1050700013F4704F13D18B5823F470438B500A688C
:1050800022F400620A604A6822F400624A608A6878
:1050900022F400628A60CA6822F40062CA60026870
:1050A00022F440020260426A22F470424262826844
:1050B00022F440028260426822F400624260C268C8
:1050C00022F44002C2604FF61442CFF6FF728B58B2
:1050D00013F00F0F13D18B5823F00F038B500A6876
:1050E00022F480520A604A6822F480524A608A6838
:1050F00022F480528A60CA6822F48052CA60016831
:1051000021F040710160416A21F47021416281689F
:1051100021F040718160416821F480514160C16893
:1051200021F04071C1604EF280104FF48011CEF238
:10513000000001604FF40011BFF34F8FBFF36F8F7A
:105140000160BFF34F8FBFF36F8FDAF80000016883
:10515000574641F400410160002047F8340FCAF877
:105160003000FFF79FFADAF8000010213A464FF4BA
:105170008025C160DAF83010013902294FF480210E
:105180003CBF022100F114021068084301211060A5
:1051900041F28030C2F20000017041F28430C2F26C
:1051A0000000017006A8CDE90686FFF793FBDAF848
:1051B0000000DAF83010013902293CBF012500F166
:1051C000140738682843386008B0BDEC028B01B082
:1051D000BDE8F08F49F010090AE049F0200907E026
:1051E00049F0400904E049F0800901E049F4807980
:1051F000DAF80000816921F070018161EFE500BFFC
:1052000040F29811C2F200010A6D012A08BF7047EE
:10521000B0B582B041F25C354FF0010CC1F850C01E
:10522000C2F200052C684B6D012B40F0E88000288D
:1052300000F0E580032301224B6500238B65CA86BD
:1052400008638A868B638B87C1E91033CB87D1F8DB
:1052500008E00B68BEF5004F02BF1A6842F48042B6
:105260001A601A6812F0400F02BF1A6842F040023A
:105270001A60CA68B2F5006F1AD130F8022BDA60F2
:10528000CA8E013ACA86086307E000BF30F8022BD5
:10529000DA600863CA8E013ACA86CA8E12B39A6867
:1052A00012F0020FF2D12A68121B952AF5D9A6E056
:1052B00010F8012B1A73CA8E013ACA86086306E0F9
:1052C00010F8012B1A730863CA8E013ACA86CA8E77
:1052D00042B19A6812F0020FF2D12A68121B952A85
:1052E000F5D98CE040F20C0049F68172C2F2000060
:1052F000C1F25E620068A0FB0202500D4FF47A72A8
:1053000010FB02F001904868B0F5827F48D19868A0
:1053100010F0800F68D02868001B962817D2986874
:1053200010F0800F60D02868001B95280FD898686F
:1053300010F0800F58D02868001B952807D898686F
:1053400010F0800F50D02868001B9528DFD95868CE
:10535000BEF5004F20F0E000586002D0BEF5806F2F
:1053600003D1186820F040001860886AB0F5005F2B
:1053700007D1186820F400501860186840F40050F5
:1053800018600120486500200865886D40F0200005
:10539000886520208865BEF1000F2FD127E000BF6F
:1053A000019808B3019801380190986810F0800FB7
:1053B0001AD00198C0B1019801380190986810F096
:1053C000800F11D0019878B1019801380190986848
:1053D00010F0800F08D0019830B101980138019089
:1053E000986810F0800FDBD1BEF1000F06D10020CD
:1053F0000090D8680090986800900098886D002010
:105400000865C1F854C002B0BDE8B040704700BFA5
:1054100040F238230246C2F20003D86B20281CBF9A
:1054200002207047002A18BF002901D101207047CF
:10543000986B012804BF022070472DE9F04100203D
:1054400001262124D98445F2155558641A629E63B9
:105450009984DC6345F23D54C0F60005D3F830E092
:10546000C0F60004CEE9105445F24155C0F60005DF
:10547000CEE91450DEF83440D3F800C0012C3BD004
:10548000DEF85C80CEF83460DEF83850012D30D183
:1054900002260CF10405CEF838600026CEF85860DC
:1054A000DEF80060DEF808703468402F24F48024B1
:1054B00034607160114608BF2946B16008BF1546C7
:1054C0003F22F560DEF8601002FA01F1C8F808101A
:1054D000316841F016013160716941F080017161FC
:1054E000316841F008013160316841F001013160FB
:1054F00002E00021CEF834106FF04001CCF800102B
:105500009863DCF8141041F08001CCF81410BDE869
:10551000F08100BF0168C06B096811F4807F18BF7B
:1055200070470021C1840068416921F08001416118
:10553000C16841F04001C160704700BF704700BFC3
:10554000C06B01684A69C36B212B0AD112F080023B
:1055500007D00022C284CA6822F0C002CA6020229A
:10556000C2634A69036C222B0ED112F040020BD0A9
:105570000022C285CA6822F49072CA604A6922F089
:1055800001024A6120210164416C41F01001416433
:10559000704700BFC06B0021C185C184704700BF48
:1055A0002DE9F04F82B041F60003072243F6004B8D
:1055B0004FF0010A00264FF0000CC4F20203C4F2BF
:1055C000010B984200F13E4303F1FF7308BF06222E
:1055D0004FEAB327062F4FF0000738BF4FEAB32238
:1055E000009209E00CF1010C02370436BCF1100FF7
:1055F00004BF02B0BDE8F08F0A680AFA0CF812EA9C
:10560000080FEFD0D1F804E04EF01002122A14D1A6
:1056100006F01C020F2303FA02F44FF6FC73C7F6E0
:10562000FF7303EA5C0505442B6AA3430C6904FA83
:1056300002F21A432A62D1F804E0032304680EF050
:105640000302BEF1120F03FA07F302FA07F224EA8B
:1056500003046FEA030942EA0402026014D80AFA5A
:105660000EF212F0061F0FD08268CB6802EA090220
:10567000BB401A438260CEF30012436802FA0CF278
:1056800023EA08031A434260C2688B6802EA0902EF
:10569000BB401A43C2605FEACE02A3D5002206F0E7
:1056A0000C050F24019243F64402AC40C4F20202FE
:1056B0001346126842F480421A601A6802F480426B
:1056C00001922CF00302019B5A444FF60843CFF697
:1056D000FF739E46D358A343009C04FA05F52B4361
:1056E00042F80E30DBF800204D6842EA080315F45A
:1056F000803F08BF22EA080315F4003FCBF80030D2
:10570000DBF8042042EA080308BF22EA080315F484
:10571000801FCBF80430DBF8082042EA080308BFFA
:1057200022EA080343F60C4215F4001FC4F20102FA
:10573000CBF808301446126842EA080308BF22EA90
:10574000080323604EE700BF4EF688504FF0000C70
:10575000CEF20000016841F47001016043F60001DF
:10576000C4F202010A6842F001020A60C1F808C0EE
:105770004FF6FF720B68CFF6F6621A400A6043F2EA
:105780001002C2F200424A600A6822F480220A60D3
:10579000C1F80CC04FF0006140F8801C704753EA1C
:1057A000020C00F069802DE9F04B4FF00006002B51
:1057B0001FBFB3FA83F503FA05F424FA05F65E4039
:1057C00012BF1643B2FA82F502FA05F4C5F12005BC
:1057D0001EBF22FA05FC44EA0C04203556EA044CAC
:1057E0004FEA144418BF641C4FF000084FF0000942
:1057F000904271EB030C39D3002919BFB1FA81F73C
:1058000001FA07F6B0FA80F700FA07F6C7F12007A9
:105810001EBF20FA07FC46EA0C062037B6FBF4FC54
:10582000A7EB0507103F07F01F0BCBF120062CFA62
:1058300006F60CFA0BFB44BFB3460026202FA4BF8C
:105840005E464FF0000B5BEA060C08BF4FF0010B01
:1058500019EB0B0948EB0608ABFB027C06FB02CCFC
:105860000BFB03CCC01B71EB0C01C1E70B460246DE
:1058700041464846BDE8F08B13B54FF000004FF0AD
:105880000001AFF30080BDE81C40704730380A28A3
:1058900001D20120704700207047000010B5002998
:1058A0000AD00878002807D005487844FBF744F967
:1058B000002801D0002010BD0248784410BD00002F
:1058C0001E0C0000160C00004FEA41034FEA535330
:1058D000A3F58063D3F11E03C8BFD3F1210C0CDD07
:1058E0004FF0004242EAC12242EA505232FA03FC2F
:1058F0008CEAE17CACEBE1707047102BC4BF002058
:10590000704703F5787CBCF1FF3F04D06FF0004294
:1059100082EA2100704770B500F0B0F84992248007
:1059200000207047F2E7000070B5DFF848C11CEABC
:10593000111E1EBF1CEA13159EEA0C0F95EA0C0FF0
:1059400000F06F8081EA03044EEAD47EAE4421EA7F
:105950004C1123EA4C1341F4801143F48013AEF14F
:105960007F7EA1FB024CA0FB0365361955EB0C05AD
:10597000A1FB034C4CF10003A0FB021C16EB0C0630
:10598000654153F10003094218BF46F0010613F4C4
:10599000007F0BD14FEA03314FEA053041EA155140
:1059A00040EA165034036FF003020AE04FEAC321C5
:1059B0004FEAC52041EA555140EA5650F4026FF0D3
:1059C000020202EB2E4201EB025585EACE710AD0AB
:1059D0005FEA440C18BF24F0004450F1000041F18C
:1059E000000120EAD47040F2FE7C624500D270BD16
:1059F000A84214BF4FF080444FF04044002E08BF2F
:105A00000024BEF1806FA8BFA1F1C041BDE8704085
:105A100080F2828001F1C04101F000414FF00000AE
:105A200070470CEA13159EEA0C0F18BF95EA0C0F8D
:105A300006D081EA030E4FF000000EF0004170BD69
:105A400000F01CF88900013E00F007B800F009B82A
:105A50004FEA430C5FEA5C5C08D081EA030100F086
:105A60005BB84FEA410C5FEA5C5CF6D102494FF04B
:105A7000000070470000FF070000F87F0EF1020EE3
:105A80002EF0030E5EF8046B364205D4012A43EB78
:105A9000030515F5001F12D8012841EB010C1CF578
:105AA000001F0CD80ED14FEAD17C0CEB4C0C0CF142
:105AB000020C15F5001F08BF4CEBD37C04E04FF03F
:105AC000080C01E04FEAD37C0CEB4C0526FA05F6F6
:105AD00006F00706B6F1040C06D20EEB860CBDE804
