:020000040800F2
:100000004819002005030008CD260008D126000865
:10001000D5260008D9260008DD26000800000000CB
:10002000000000000000000000000000E1260008C1
:10003000E526000800000000E9260008ED2600087B
:100040001F0300081F0300081F0300081F03000808
:100050001F0300081F0300081F0300081F030008F8
:100060001F0300081F0300081F0300081F030008E8
:100070001F0300081F0300081F0300081F030008D8
:100080001F0300081F030008B93500081F030008FC
:10009000FD2600081F0300081F0300081F030008B7
:1000A0001F0300081F0300081F0300081F030008A8
:1000B0001F0300081F0300081F0300081F03000898
:1000C0001F0300081F0300081F0300081F03000888
:1000D0001F030008113100081F0300081F03000858
:1000E0001F0300081F0300081F0300081F03000868
:1000F0001F0300081F0300081F0300081F03000858
:100100001F0300081F0300081F0300081F03000847
:100110001F0300081F0300081F0300081F03000837
:100120001F0300081F0300081F0300081F03000827
:100130001F03000800000000000000001F0300086B
:100140001F0300081F0300081F0300081F03000807
:100150001F0300081F030008D53300081F03000811
:100160001F0300081F0300081F0300081F030008E7
:100170001F0300081F0300081F0300080000000001
:10018000000000001F030008000000000000000045
:100190001F03000800000000000000001F0300080B
:1001A0000000000000000000000000001F03000825
:1001B0001F0300081F0300081F0300081F03000897
:1001C0001F03000800F002F800F08DF80AA090E884
:1001D000000C82448344AAF10107DA4501D100F002
:1001E00082F8AFF2090EBAE80F0013F0010F18BF42
:1001F000FB1A43F001031847B0670000D067000006
:10020000103A24BF78C878C1FAD8520724BF30C842
:1002100030C144BF04680C60704700000023002414
:1002200000250026103A28BF78C1FBD8520728BF06
:1002300030C148BF0B6070476E2900F045817029BE
:1002400000F087826629AFF300806529AFF3008054
:100250006729AFF300806129AFF3008003681B0AB0
:1002600028BF41F08001692900F0F280642900F084
:10027000EF80752900F0EC806F2900F01582782955
:1002800000F05382E92900F0AF81E42900F0AC814D
:10029000F52900F0A981EF2900F01282F82900F079
:1002A00052820368DB0928BF41F08001632900F016
:1002B000CB83732900F0D083E32900F0DB83F3299B
:1002C00000F0E083002070471FB505F055FB00F0FB
:1002D0003DFC04000020002105F0F2FA401C6060A3
:1002E0001FBD10B510BD00F0F9FB1146FFF7ECFF84
:1002F00000F078FC00F020FC03B4FFF7F2FF03BC31
:1003000000F068FC0948804709480047FEE7FEE71F
:10031000FEE7FEE7FEE7FEE7FEE7FEE7FEE7FEE7B5
:1003200004480549054A064B70470000AD560008D1
:10033000C501000848130020481900204815002076
:10034000481500200FB41CB5084B06AA7B4469462B
:100350000090059800F0D1F804460020694600F0AE
:10036000DFF820461CBC5DF814FB0000D101000042
:1003700070477047704710B500F0BAFA006810BDBA
:1003800010B5044600F0B4FA046010BD70B5044620
:1003900085690068C10601D5302600E02026C00727
:1003A00007D070BDD4E9012130469047206A401C37
:1003B00020626D1EF6D570BD70B504468569007863
:1003C000C00707D170BDD4E9012120209047206AE1
:1003D000401C20626D1EF6D570BD09684A0501D526
:1003E00040B27047C905FCD500B2704709684A059C
:1003F00001D5C0B27047C905FCD580B2704770B551
:100400000C460546012A05D02878800600D5EA6901
:10041000002302E0012305E05B1C934202D2E05C72
:100420000028F9D1A869E618C01AA861286A1844FA
:1004300028622846FFF7AAFF04E0D5E9012114F855
:10044000010B9047B442F8D32846FFF7B5FF70BDC3
:100450002DE9F0410646002410687529314616A59D
:1004600010D0FFF7BAFF002802DA404213A507E0D8
:1004700031688A0701D512A502E0490704D511A504
:10048000012401E0FFF7B2FF00210A2206F1240750
:1004900009E0B0FBF2FCB0FBF2F302FB1C003030D1
:1004A00078541846491C0028F3D123462A46304682
:1004B000BDE8F04100F065BA000000002D0000002A
:1004C0002B0000002000000011680268006A53053C
:1004D00001D508700AE0D30501D5088006E01306AF
:1004E00003D5C217C1E9000200E00860012070478F
:1004F00001694A1C02610878704700B58FB0CDE9E8
:1005000001310021059105497944CDE903101146D7
:10051000684600F029F90FB000BD0000E5FFFFFFBD
:100520000A6802F8010B0A60704700002DE9FF5FBE
:1005300015468A460446DFF8AC80F8440027D8E91F
:1005400000103E46CDE9001010E05AF826106A4629
:1005500002A800F09BFA411C07D02178890603D538
:10056000E269391891420DD80744761C207880063C
:1005700002D5E069B84205DDAE42E6DB5AF8260056
:100580000028E2D1A069C01BA0612046FFF7FEFE53
:10059000D8E90010CDE90010002017E05AF8281023
:1005A0006A4602A800F072FAB0F1FF3F81460BD014
:1005B00000250DF1080B05E0D4E901211BF8050029
:1005C00090476D1C4D45F7D308F10100B0428046BD
:1005D000E4DB206A384420622046FFF7EDFEBDE8E8
:1005E000FF9F00004A5500002DE9F0418046D21DD2
:1005F00022F007020025D2E90002F52915A614D041
:10060000011E72F1000106DA0023D0EB030063EB58
:10061000020211A608E0D8F800108B0701D50FA63A
:1006200002E0490701D50EA601251146002408F174
:10063000240704E000F060F930323A55641C50EAB7
:100640000102F7D12B46324621464046BDE8F04133
:1006500000F097B9000000002D0000002B00000002
:100660002000000030B4002100F1240408E002F072
:100670000705D208303542EA4372DB086554491C4D
:1006800052EA0305F3D10468002310A2250708D518
:1006900004F020040C4304D0C46901230CA2641E9E
:1006A000C46130BC00F06DB910B504462146106835
:1006B000FFF79CFE02462046BDE810400023D1E72C
:1006C000D21D22F00701D1E90023CBE70000000092
:1006D00030000000F0B40D460188090502D5214C18
:1006E0007C4402E01F4C7C440E34002100F12406BF
:1006F00008E002F00F071209E75D42EA03721B09E6
:100700007754491C52EA0307F3D1027800231207F9
:1007100004D5702D06D009B1022311342246F0BC55
:1007200000F02FB901231034F8E770B504460D46E8
:1007300021461068FFF75AFE024629462046BDE8CA
:1007400070400023C6E7D21D22F00703D3E900233F
:10075000C0E70368126843F0200303600823C36105
:100760000023B7E7AC5300002DE9F05F894604464B
:100770004FF0000ADFF874B1FB44C0F820A0204617
:10078000E1688847002874D0252806D0D4E90121E3
:100790009047206A401C2062F1E700265F46204611
:1007A000E16888472028054607DB312D05D27819F6
:1007B00010F8200C08B10643F1E7B00701D526F088
:1007C0000406C4F81CA00027C4F818A02A2D09D0DC
:1007D000284605F06DF838B304EB8708303DC8F8BB
:1007E000185019E059F8041B204604EB8702916168
:1007F000E1688847012F054618D1E069002820DA12
:1008000026F020061DE0D8F8180000EB800005EB6C
:1008100040003038C8F818002046E168884705468F
:1008200005F046F80028EED1012F0AD02E2D08D170
:100830002046E16888477F1C0546022F46F02006C7
:10084000C4DBA069002803DA404246F00106A0613B
:10085000F00701D026F010066C2D0BD0682D09D0C2
:100860004C2D39D06A2D35D0742D35D07A2D33D01A
:1008700016E038E0E1682F4620468847B842054632
:1008800009D16C2F26D04FF48060E16806432046E2
:100890008847054604E06C2F1AD04FF48070064359
:1008A0000DB3A5F14100192802D8203546F40066A1
:1008B0004A462946204626604E46FFF7BDFC80B1D9
:1008C00001280BD0F61D26F0070000F1080956E7B5
:1008D0004020E4E78020D8E70020D6E706F10409AD
:1008E0004DE7284652E7206ABDE8F09F3C530000E0
:1008F000004870471000002030B5B0F10A0271F1D5
:1009000000034FEA900E4EEA817EB0EB0E0061EBE1
:1009100091014FEA101E4EEA017E10EB0E0041EBF2
:1009200011114FEA102E4EEA016E10EB0E0041EB52
:1009300011214FEA104E4EEA014E10EB0E0041EB32
:100940001141401841F100014FEAD00040EA4170E6
:100950004FEAD1014FEA810444EA907410EB80051C
:1009600044EB01046D1944EB0404521BA3414FF006
:10097000000348BF0A3200D530BD401C41F10001E0
:1009800030BD2DE9F0470D4699469246044600F1E8
:1009900024080168880604D5E06921F0100121606F
:1009A00000E00120A84201DD471B00E00027A1690B
:1009B0007A1902EB0900081AA0612078C00602D457
:1009C0002046FFF7E3FC002608E0D4E901211AF8ED
:1009D00006009047206A401C761C20624E45F4DBDE
:1009E0002078C0060AD52046FFF7D0FC06E0D4E9FF
:1009F000012130209047206A401C2062381EA7F158
:100A00000107F4DC07E0D4E9012118F8050090475C
:100A1000206A401C2062281EA5F10105F3DC204657
:100A2000FFF7CAFC2078000602D50220BDE8F08757
:100A30000120FBE710B5436913B1AFF3008001E07B
:100A4000FFF7DDFC012010BD127800F124010A70CF
:100A500000224A700122EDE711684FF0FF32E9E70A
:100A600010B5436913B1AFF3008001E0FFF75EFDFD
:100A7000012010BD126800F124014262002282624E
:100A80000122EDE711684FF0FF32E9E72DE9F0416F
:100A900016460C46054600F047F8036893F8010136
:100AA000012807D0FF2C12D8185D80B101202C70CE
:100AB000BDE8F081D3F807013246214603F207135F
:100AC000C7182846BC46BDE8F041012360474FF0F7
:100AD000FF30EDE700487047100000207546FFF733
:100AE000F9FFAE4605006946534620F007008546EB
:100AF00018B020B5FFF714FCBDE820404FF0000609
:100B00004FF000074FF000084FF0000BAC46ACE888
:100B1000C009ACE8C009ACE8C009ACE8C00921F0E4
:100B200007018D467047000010B500F00FF8001D5A
:100B300010BD00BF8D4D000010B50446AFF300801E
:100B40002046BDE81040FFF7D7BB000000487047C3
:100B5000300000200000000030B44FF0013C50F89D
:100B6000042B51F8043BCCFA52F4D51A20D1FCB92D
:100B700050F8042B51F8043BCCFA52F4D51A17D193
:100B8000B4B950F8042B51F8043BCCFA52F4D51AFE
:100B90000ED16CB950F8042B51F8043BCCFA52F446
:100BA000D51A05D1002CDAD030BC4FF000007047C8
:100BB00029BAB1FA81F111F01801D1F12000844075
:100BC000F2D1CA40CB4012F0FF0213F0FF0330BC59
:100BD000D01A704701491820ABBEFEE7260002007C
:100BE000704700002DE9F04F91B041F2143143F607
:100BF000080901204EF60C5540F2080644F6D35A77
:100C00004EF21008C2F20001C4F20209CEF2000551
:100C1000C2F20006C1F2620ACEF2000808704FF676
:100C2000FF01D9F8F80340F40070C9F8F803D9F8C7
:100C3000F80340F48060C9F8F803D9F8F80340F4E9
:100C40008070C9F8F8032868084040F20031C0F20B
:100C5000FA51084328603068A0FB0A014FF0FF30CA
:100C600000EB91110020B0EB116F0AD1C8F804100D
:100C7000F021E9750721C8F80800C8F800102968B4
:100C8000E875049043F60042D9F83C10C4F2000223
:100C900041F48041C9F83C10D9F83C1001F480417E
:100CA000049104990490D9F8381041F08051C9F8A2
:100CB0003810D9F8381001F080510491049904904B
:100CC000D9F8381041F08051C9F83810D9F83810E7
:100CD00001F080510491049904904FF45050115840
:100CE00041F440411150105800F4404004900498E1
:100CF000D9F8000000F00C00042846D0D9F8000014
:100D000000F00C00082804D159F8040C10F4800FEE
:100D10003BD1D9F8000000F00C000C2804D159F8A0
:100D2000040C10F4800F30D159F8080C40F48030D6
:100D300049F8080C41F20830C2F20000016859F885
:100D4000082C12F4003F22D10268521A642A00F2E1
:100D5000808059F8082C12F4003F18D10268521A0A
:100D6000642A76D859F8082C12F4003F0FD1026893
:100D7000521A642A6DD859F8082C12F4003F06D193
:100D80000268521A642ADAD963E059F8080CD9F8D3
:100D9000000000F00C0008285BD060210020C4F2A5
:100DA0004721086041F20830C2F20000026859F899
:100DB000083C13F0007F1FD003689B1A022B48D811
:100DC00059F8083C13F0007F16D003689B1A022BD9
:100DD0003FD859F8083C13F0007F0DD003689B1AE8
:100DE000022B36D859F8083C13F0007F04D0036872
:100DF0009B1A022BDBD92CE042F60452C2F24022AD
:100E000049F8042C01220A60016859F8082C12F0F4
:100E1000007F1ED10268521A032A1AD259F8082CF0
:100E200012F0007F15D10268521A022A11D859F81F
:100E3000082C12F0007F0CD10268521A022A08D83E
:100E400059F8082C12F0007F03D10268521A022AC6
:100E5000DBD90020402141F2083401220490C4F281
:100E60000E21C2F20004D9F8380040F08050C9F8D1
:100E70003800D9F8380000F08050049004980A60D7
:100E800047F204002368C4F20000076817F4803FAB
:100E900020D12768FF1AB7F57A7F41D8076817F481
:100EA000803F17D12768FF1AB7F57A7F38D80768CF
:100EB00017F4803F0ED12768FF1AB7F57A7F2FD835
:100EC000076817F4803F05D12768FF1AB7F57A7FC6
:100ED000DBD925E04A602168026812F4003F1FD187
:100EE0002268521AB2F57A7F1AD8026812F4003FCB
:100EF00016D12268521AB2F57A7F11D8026812F41C
:100F0000003F0DD12268521AB2F57A7F08D80268E4
:100F100012F4003F04D12268521AB2F57A7FDBD96D
:100F2000D9F8F80300F00F00042809D8052089F843
:100F3000F803D9F8F80300F00F00052840F0E3802B
:100F4000D9F8000040F4E050C9F80000D9F80000DA
:100F500040F46040C9F80000D9F8000020F0F0002B
:100F6000C9F8000059F8080C10F0007F00F0CB80A1
:100F7000D9F80000022161F30100C9F800002068DF
:100F8000D9F8001001F00C01082930D1D9F8F80384
:100F900000F00E00062809D3052089F8F803D9F8D7
:100FA000F80300F00F00052840F0AD80D9F80000EC
:100FB000052161F38C200421C9F80000D9F8000054
:100FC00061F34F30C9F80000D9F80000C0F3810187
:100FD00042F20040C0F2F400032947D0022932D087
:100FE000012904BF41F20020C0F27A006DE041F215
:100FF00088312268121A8A4200F28580D9F80020CE
:1010000002F00C02082AC1D02268121A8A427AD849
:10101000D9F8002002F00C02082AB7D02268121A70
:101020008A4270D8D9F8002002F00C02082AADD00C
:101030002268121A8A4266D8D9F8002002F00C02FF
:10104000082AD6D1A2E759F8041C59F8043C01F04B
:101050003F0259F8041C13F4800FC1F3881118D112
:10106000A1FB0001002304F04CFB19E059F8041C1B
:1010700059F8043C01F03F0259F8041C13F4800FA6
:10108000C1F3881114D1A1FB0001002304F039FB46
:1010900015E041F20020C0F27A004843B0FBF2F0C4
:1010A00059F8041C0222C1F3014102EB41010AE09C
:1010B00041F20020C0F27A004843B0FBF2F059F848
:1010C000041CC1F30271B0FBF1F0D9F800100FF667
:1010D0005862C1F30311515CC8403060A0FB0A01A3
:1010E0004FF0FF3000EB91110020B0EB116F0AD1EF
:1010F000C8F80410F021E9750721C8F80800C8F8FD
:1011000000102968E8754FF0000A1824042204AE84
:101110004FF0010B0225CDF824A0C4F202043146A1
:10112000D9F82800A4F1180740F08000C9F8280079
:10113000D9F8280000F080000D900D98D9F828000B
:1011400040F00400C9F82800D9F8280000F0040095
:101150000D900D98D9F8280040F00100C9F828003A
:10116000D9F8280000F001000D900D98D9F828005A
:1011700040F00200C9F82800D9F8280000F0020069
:101180000D900D98D9F8280040F00800C9F8280003
:10119000D9F8280000F008000D900D984FF08070ED
:1011A00020604FF48000C4F800044FF40040206039
:1011B00040F61840C4F2020002604FF48070CDF88F
:1011C00014B004903846CDE906AA0895039703F0B9
:1011D00007FB4FF400403146CDE9040B06A880E838
:1011E000200C384603F0FCFA04203146CDE9040B0C
:1011F00006A880E8200C04F6E83003F0F1FA04F5C4
:101200007A7440273146CDF814B020460497CDE9D2
:1012100006AA089503F0E4FA4FF480703146CDE950
:10122000040A2046CDF820B003F0DAFACDF810A079
:1012300040F2204B44F2070202250326D9F8280089
:10124000C4F2010B40F48000C9F82800D9F8280046
:1012500000F48000049004984EF60C50CEF200008A
:1012600000684EF22540CEF2000080F821A0C8F8B8
:10127000F870CDE908AACDE906AACDE904AA04AF21
:10128000D9F83C0040F00200C9F83C00D9F83C0015
:1012900000F002000D900D985BF8200C5BF8081C24
:1012A00020F45C7040F040004BF8200C41F29410A8
:1012B000CBF80C00CBF808A0CBF810A05BF80C0C16
:1012C00040F001004BF80C0C5BF8180C90434BF805
:1012D000180CDBF8000020F00100CBF8000041F012
:1012E00008004BF8080CDBF800005BF81C1C5BF8EE
:1012F000082C21F4407120F00F004BF81C1C22F048
:10130000730141F060014BF8081CCBF814A0CBF836
:101310000000DBF8000020F01000CBF800004FF2D6
:10132000E870CFF6FF70014041F400614BF8081CF3
:10133000DBF800105BF81C2C5BF8083C22F44062E0
:1013400021F0F0014BF81C2C23F4E64242F4C04299
:101350004BF8082CCBF818A0CBF8001022F4B851A9
:101360004BF8081CDBF8001021F48071CBF800105A
:101370005BF8041C41F008014BF8041CDBF800107A
:101380005BF81C2C5BF8043C22F4405221F47061A1
:101390004BF81C2C23F0730242F060024BF8042C33
:1013A000CBF81CA0CBF800101040DBF8001040F484
:1013B000006021F48051CBF800104BF8040CDBF8EE
:1013C00000005BF81C1C5BF8042C21F4804120F425
:1013D00040504BF81C1C22F4E64141F2881241F4C3
:1013E000C0414BF8041CCBF82020CBF800005BF880
:1013F0001C0C20F070004BF81C0C5BF8180C20F053
:1014000080004BF8180C21F4B85039464BF8040C06
:101410004FF48040CBF82400D9F8280040F00100B8
:10142000C9F82800D9F8280000F001000D900D98A7
:10143000D9F8280040F00200C9F82800D9F828009F
:1014400000F002000D900D98D9F8280040F004003B
:10145000C9F82800D9F8280000F004000D900D9874
:10146000802004900595CDE9066ACDE908560398D9
:1014700003F0B6F94FF4404004A981E86104204626
:10148000394608950225099603F0AAF94FF4E07051
:1014900004A981E8610418203946CDE90856C4F250
:1014A000020000F5FD60029003F09AF9D9F83C00C3
:1014B00005A904AF052540F48050C9F83C00D9F8CF
:1014C0003C0000F4805004900498D9F8280040F0C3
:1014D0000200C9F82800D9F8280000F002000490A2
:1014E000049808200490022081E8410408902046D6
:1014F0003946099503F074F90220394605903020E9
:101500000490069601262046CDE907A6099503F02A
:1015100067F942F6E03143F204005BF80120C4F2BF
:10152000010012F0400F10D140F220424FF6BF737D
:10153000C4F20102174652589A4340F615331A4333
:101540007A50016821F004010160816940F2901530
:1015500043F6004B4FF400620A272023C2F2000535
:10156000C4F2000B21F4006105F1180C81610168DF
:1015700021F0100101604FF482714FF40070C5E951
:1015800000B1C5E902A2C5E904A68CE80904C5E9D1
:1015900009AAEF626F6D5FB1002700244FF0000CC5
:1015A0004FF0010E5E4602970027019400973CE041
:1015B000002028650890CDE90600CDE904000D90D3
:1015C000D9F8381041F40041C9F83810D9F838106A
:1015D00001F400410D910D990D90D9F8281041F0BA
:1015E0000401C9F82810D9F8281001F004010D9160
:1015F0000D99022105914FF4E051049106900320CA
:1016000004A9079006200890029803F07BFF286A3F
:101610000290D5E909A00190D5E90061D5E902C29F
:1016200028690090D5E905E0EB690227D94641EA2F
:101630000C0141F208346F651143C2F20004D6F880
:1016400000B02BF0400737600027009A114300F4E8
:10165000007241EA0E011143029A19434FF400232C
:101660001143019A114305223160042101EA10401F
:1016700040F24C1140EA0A00C2F200014FF0010AA8
:101680007060F06920F40060F06109F52050AF65EA
:101690004FF4E00681E8850001F11400C1E903730D
:1016A00080E8C004C1E90877C1E90A77C5F854A009
:1016B00003F012FC40F2204040F22C2B4FF4612149
:1016C0000C22C4F20100C2F2000B00F53E608BE870
:1016D0008300CBE90377CBE90527CBF81C70DBF857
:1016E0003C1039B143F60805002100220023C4F262
:1016F0000205C2E043F60805CBF838700897CDE93B
:101700000677CDE904770D974FF0020904A9C4F2DA
:101710000205E86B40F01000E863E86B00F0100091
:101720000D900D980D97A86A40F00100A862A86A74
:1017300000F001000D900D98CDF814904FF4C060AA
:1017400004900320CDF818A0079007200890039874
:1017500003F0D8FE40F2742046F2B8414FF0006228
:1017600040234FF48066C2F20000C4F202014763D6
:1017700080E88E004FF40032C0E90467C0E90677C4
:10178000C0E908272268C0F838900B6823F00103ED
:101790000B600B6813F0010F31D14EF60C57CEF2EF
:1017A000000748F23F030A68CFF210031A4040F2E4
:1017B0004043C0F602031A4340F2FF330A604A690D
:1017C00022F007024A616FF00F0252FA81F2994348
:1017D0004AF6AB23CAF6AA235F2AA2FB032388BFDB
:1017E00041F004011A090FF6C8339A5C3F23C0E99F
:1017F000171203FA02F28A600121002227E04EF656
:101800000C570168CEF2000723689B1A052B1CD8E1
:101810000B6813F0010FC4D023689B1A052B14D852
:101820000B6813F0010FBCD023689B1A052B0CD852
:101830000B6813F0010FB4D023689B1A052B04D852
:101840000B6813F0010FDFD1ABE703212022826583
:10185000CBF83000C0F83CB081634EF225433868C5
:10186000CEF20003002018702020C8F8F400DBE955
:101870000671DBF80000DBE902232426B1F5004FF6
:10188000CBF83C60C66826F40056C660066926F4AC
:10189000405643EA060349F20C660361C36823EA33
:1018A000060342EA0302DBE9043642EA030242EAA3
:1018B000060242EA0102C260426922F4407242EA30
:1018C000070242616AD141F2004240F48061C4F2F1
:1018D0000102914240F20801C2F2000140F0C880CA
:1018E0000A682968DBF8046046F6841ED946AB46D0
:1018F0004FF0190AC0F6000E02917600D5F800C02C
:101900002B68C3F34237CCF3423548F21F531EF81D
:1019100007701EF80550C5F2EB1322FA07F122FA00
:1019200005F501FB0AF105FB0AF5B1FBF6F1B5FB84
:10193000F6F5A1FB03377B09642703FB1713691A2C
:1019400048F21F5719443223C5F2EB1703EBC101CC
:10195000A1FB07134FF4F87101EA1311029BC3F3C3
:1019600042331EF8033022FA03F303FB0AF3B3FBFE
:10197000F6F3A3FB07374FF6F073C7F6FF7303EADE
:10198000570301EB030CDBF80030C3F34233DBF801
:1019900000701EF80330C7F34237C6E041F2004240
:1019A00040F48061C4F20102914240F20801C2F2A7
:1019B000000140F0CA800A682968DBF8046046F636
:1019C000841ED946AB464FF0190AC0F6000E0291AC
:1019D000B600D5F800C02B68C3F34237CCF34235CC
:1019E00048F21F531EF807701EF80550C5F2EB139E
:1019F00022FA07F122FA05F501FB0AF105FB0AF5C7
:101A0000B1FBF6F1B5FBF6F5A1FB03377B096427C3
:101A100003FB1713691A48F21F5719443223C5F202
:101A2000EB1703EB0111A1FB0713F02101EA53119E
:101A3000029BC3F342331EF8033022FA03F303FB85
:101A40000AF3B3FBF6F3A3FB07374FF6F073C7F6C1
:101A5000FF7303EA570301EB030CDBF80030C3F319
:101A60004233DBF800701EF80330C7F34237C8E09A
:101A70000A682968DBF8046046F6841ED946AB463E
:101A80004FF0190AC0F6000E02917600D5F800C09A
:101A90002B68C3F38227CCF3822548F21F531EF82C
:101AA00007701EF80550C5F2EB1322FA07F122FA6F
:101AB00005F501FB0AF105FB0AF5B1FBF6F1B5FBF3
:101AC000F6F5A1FB03377B09642703FB1713691A9B
:101AD00048F21F5719443223C5F2EB1703EBC1013B
:101AE000A1FB07134FF4F87101EA1311029BC3F332
:101AF00082231EF8033022FA03F303FB0AF3B3FB3D
:101B0000F6F3A3FB07374FF6F073C7F6FF7303EA4C
:101B1000570301EB030CDBF80030C3F38223DBF83F
:101B200000701EF80330C7F3822722FA03F303FB89
:101B30000AF3B3FBF6F31EF80770FA40072702FB1F
:101B40000AF2B2FBF6F203266AE00A682968DBF8BB
:101B5000046046F6841ED946AB464FF0190AC0F61B
:101B6000000E0291B600D5F800C02B68C3F382279F
:101B7000CCF3822548F21F531EF807701EF805505B
:101B8000C5F2EB1322FA07F122FA05F501FB0AF17F
:101B900005FB0AF5B1FBF6F1B5FBF6F5A1FB033742
:101BA0007B09642703FB1713691A48F21F5719446E
:101BB0003223C5F2EB1703EB0111A1FB0713F02150
:101BC00001EA5311029BC3F382231EF8033022FA69
:101BD00003F303FB0AF3B3FBF6F3A3FB07374FF65C
:101BE000F073C7F6FF7303EA570301EB030CDBF84E
:101BF0000030C3F38223DBF800701EF80330C7F314
:101C0000822722FA03F303FB0AF3B3FBF6F31EF871
:101C10000770FA400F2702FB0AF2B2FBF6F2042625
:101C2000A3EB020E48F21F5540F2204A40F2010B8E
:101C3000C5F2EB15C4F2010AC0F6007BA2FB051346
:101C40005909642301FB13217144B1403231A1FBD6
:101C50000512002507EA521140F2700741EA0C0113
:101C6000C2F200078160016921F49041016141697C
:101C700021F02A014161C16841F40051C160202076
:101C8000C9F844504FF40031C9F83C00C9F840008D
:101C90000AF5DF5010953D62C7E90AB53D634FF084
:101CA000010987E823003846C7E90355C7E90595C8
:101CB000C7F81C9002F02AFE0B260DA93846CDE984
:101CC0000D690F9502F04EFF4FF48010CDE90469C5
:101CD000CDF82090069504A90C904FF460200B904D
:101CE0003846CDE90995079503F048F840F2B80762
:101CF0000AF5E75010954FF4003AC2F200073D6232
:101D0000C7E90AB53D6338604FF400307860384663
:101D1000C7E90255C7E90459C7E9065902F0F6FDBB
:101D20000C260DA93846CDE90D690F9502F01AFF72
:101D30004FF48010CDE90469CDF82090069504A9F0
:101D40000C904FF460200B903846CDE9099507952B
:101D500003F014F840F2204040F200171095C4F24E
:101D60000100C2F2000700F5EF503D62C7E90AB575
:101D70003D63C7E9000A3846C7E90255C7E9045977
:101D8000C7E9065902F0C2FD0D260DA93846CDE976
:101D90000D690F9502F0E6FE4FF48010CDE904695D
:101DA000CDF82090069504A90C904FF460200B907C
:101DB0003846CDE90995079502F0E0FF40F2EC1AAC
:101DC0004FF080404FF48041C2F2000ACAE900059A
:101DD000CAE90251CAF81050DAF83C1069BB43F660
:101DE0000800CAF838500895CDE90655CDE90455E4
:101DF0000D95C4F202000146806B40F0010088633B
:101E0000886B00F001000D900D980D95886A40F0E8
:101E100001008862886A04A900F001000D900D9805
:101E20000220059003200490CDE90655CDF82090BE
:101E3000039803F067FBDAF80000022140F6FF3256
:101E4000CAF83C10C4F200028168904221F00701F8
:101E50008160016813DC43F60046B0F1804FC4F2A4
:101E6000000621D040F20043C4F2000398421BD088
:101E700040F60003C4F20003984215D019E040F682
:101E8000004343F60046C4F20003C4F20006984241
:101E90000AD040F20043C4F20103984204D0002368
:101EA000C4F20103984204D1DAF8083021F070013D
:101EB000194341F6FF73C4F2000398420DDC9042CF
:101EC0001FDCB0F1804F49D040F20042C4F2000262
:101ED000904243D040F6000221E043F6FF72C4F284
:101EE0000102904228DC42F20002C4F20002904259
:101EF00034D00022C4F2010290422FD040F20042BE
:101F000028E040F60042C4F20002904226D041F69A
:101F10000002C4F20002904220D041F60042C4F216
:101F2000000290421AD01EE00000000000000000F5
:101F3000010203040607080944F20002C4F2010288
:101F400090420BD044F60002C4F20102904205D048
:101F500044F20042C4F20102904204D1DAF81020A7
:101F600021F440711143016040F20042DAF80C1094
:101F7000C4F20102C162DAF80410816240F48061A7
:101F8000914204BFDAF814100163012141618268B3
:101F90008369076A42F00302826040F2011262F331
:101FA0000F0327F0AA0283610262CAF83C10DAF834
:101FB0003820012A13D00222CAF83C20426822F0BD
:101FC0007002426042684260826822F08002826051
:101FD000826882600020CAF83800CAF83C10D8F83D
:101FE00000000490049840F2F51000BFD8F80010EB
:101FF000C90300EBE17090B1D8F80010C90300EB01
:10200000E17060B1D8F80010C90300EBE17030B1A5
:10201000D8F80010C90300EBE1700028E6D140F2C7
:10202000204142F6E030C4F201010A46095841F06D
:1020300040011150306840F04000306040F22C20E8
:102040001826C2F20000C4F202060068C16841F41A
:102050000051C160106840F48050106052F8200CAC
:1020600040F0010042F8200C4020C6F8000420682F
:102070002168091A03290BD22168091A022907D8F5
:102080002168091A022903D82168091A0329EFD304
:102090004FF40040306020682168091A03290BD2F0
:1020A0002168091A022907D82168091A022903D8C8
:1020B0002168091A0329EFD302F02AF94FF40040EE
:1020C000306020682168091A03290BD22168091A97
:1020D000022907D82168091A022903D82168091A98
:1020E0000329EFD346F268154FF00040C0F6000513
:1020F0003060284603F034F84FF400403060D8F8E0
:102100000000049004980220D8F80010C90300EBE6
:10211000E17090B1D8F80010C90300EBE17060B134
:10212000D8F80010C90300EBE17030B1D8F8001006
:10213000C90300EBE1700028E6D14FF000403060A9
:10214000A81C03F00DF84FF400403060D8F80000F0
:1021500004900498022000BFD8F80010C90300EBD7
:10216000E17090B1D8F80010C90300EBE17060B1E4
:10217000D8F80010C90300EBE17030B1D8F80010B6
:10218000C90300EBE1700028E6D14FF00040306059
:10219000281D02F0E5FF4FF400403060D8F8000041
:1021A00004900498022000BFD8F80010C90300EB87
:1021B000E17090B1D8F80010C90300EBE17060B194
:1021C000D8F80010C90300EBE17030B1D8F8001066
:1021D000C90300EBE1700028E6D14FF00040306009
:1021E000A81D02F0BDFF4FF400403060D8F8000099
:1021F00004900498022000BFD8F80010C90300EB37
:10220000E17090B1D8F80010C90300EBE17060B143
:10221000D8F80010C90300EBE17030B1D8F8001015
:10222000C90300EBE1700028E6D14FF000403060B8
:1022300005F1080002F094FF4FF400403060D8F838
:102240000000049004980220D8F80010C90300EBA5
:10225000E17090B1D8F80010C90300EBE17060B1F3
:10226000D8F80010C90300EBE17030B1D8F80010C5
:10227000C90300EBE1700028E6D14FF00040306068
:1022800005F10A0002F06CFF4FF400403060D8F80E
:102290000000049004980220D8F80010C90300EB55
:1022A000E17090B1D8F80010C90300EBE17060B1A3
:1022B000D8F80010C90300EBE17030B1D8F8001075
:1022C000C90300EBE1700028E6D102F021F802F02A
:1022D0001FF802F01DF802F01BF802F019F840F2A6
:1022E0002040C4F201000146006840F0010008608F
:1022F000086840F010000860086840F480700860CA
:10230000086840F004000860086840F04000086079
:10231000086840F48060086051F8140C40F0010037
:1023200041F8140C41F210300021C2F2000001709B
:1023300041F21430C2F200000078012836D140F298
:10234000700440F2B80540F20016C2F20004C2F276
:102350000005C2F200062068816841F00101816039
:102360002868816841F0010181603068816841F02E
:1023700001018160284602F08FFC304602F08CFC9F
:10238000204602F089FCA06B0068016821F018016A
:102390000160A86B0068016821F018010160B06B52
:1023A0000068016821F01801016000BFFEE700BF6E
:1023B000000610160006101610B584B040F248143E
:1023C00045F64F01C2F20004C4F2000120688842C1
:1023D00022DC45F24911C4F20001884233D045F2B3
:1023E0005511C4F2000188427CD141F2882145F2A6
:1023F000551041F2383201230190C2F20001C2F2BD
:10240000000289690091137041F23C32C2F200026D
:102410001370CDE902014CE045F65001C4F2000111
:10242000884225D045F65601C4F20001884259D1B0
:1024300041F224309FED2C0AC2F2000090ED001A08
:1024400045F656001EE041F2882041F23831012263
:10245000C2F20000C2F2000190ED0A0A45F24910F2
:102460000190BCEEC01A8DED001ABCEEC00A17E058
:1024700041F224309FED1C0AC2F2000090ED001AD8
:1024800045F6500021EE000A41F238310190012258
:10249000BDEEC01AC2F200018DED001ABDEEC00AF9
:1024A0000A7041F23C3102908DED030AC2F2000144
:1024B0000A7002A802F00AFE40F24C10C2F20000BC
:1024C000016B012902D0016B022903D100680121AF
:1024D000143002E034304FF480210268114301606F
:1024E0000020206004B010BD83F9A24580B581B002
:1024F00043F2080C4FF6FF7EC4F2010CCCF804E066
:10250000DCF8001011F0010F1DD19621DCF800203D
:1025100012F0010F1BD18A1E12EA0E0F15D0DCF843
:10252000003013F0010F14D1DCF8002012F0010F7D
:1025300011D1043911EA0E0F07D0DCF8002012F097
:10254000010FE3D008E0962106E0002104E0013904
:1025500002E0114600E00339DCF804200280DCF8D8
:10256000000010F0020F25D14FF6FF704A1E024204
:102570001DD0DCF8003013F0020F1AD18A1E02427F
:1025800015D0DCF8003013F0020F12D1CA1E02423F
:102590000DD0DCF8003013F0020F0AD104390142EB
:1025A00005D0DCF8002012F0020FDFD002E000219D
:1025B00000E01146DCF8000010F0800F1FD04FF64D
:1025C000FF708BB2012B1AD0DCF8002012F0800FC4
:1025D00018BF022B13D0DCF8002012F0800F18BFB8
:1025E000032B0CD0DCF8002012F0800F07D0043948
:1025F000014204D0DCF8002012F0800FE1D1DCF8B9
:10260000040000900098DCF800000090009801B0F1
:1026100080BD00BF70B540F2040640F20004C2F273
:102620000006C2F20004306821680D1A40F2A3715E
:102630008D4238BF70BDA9B202F09CFE40F2D82393
:10264000326840F6A821C2F20003C2F200019A42A9
:1026500018BF19460028316021601FD044F644504D
:10266000C5F64170086047F24250C6F266604860A5
:1026700047F26520C4F65F70886046F27650C6F275
:102680007260C86046F66C70C0F67750086101F160
:10269000150020600A200875FFF7BCFFB5F5FA6F3A
:1026A00012D945F24F612068C5F24521016044F618
:1026B000464181804F21817100F10801216057213D
:1026C000C171BDE87040A5E770BD00BF704700BF95
:1026D000FEE700BFFEE700BFFEE700BFFEE700BF6A
:1026E000704700BF704700BF704700BF41F208301D
:1026F000C2F2000001680131016070472DE9F04F1E
:1027000081B02DED048B88B040F24C10C2F2000075
:102710000068D0F814804168029118F0010F8768B2
:10272000C468016903918169009101D1002546E0E7
:10273000F90724D001218160B8071ED478075ABF59
:102740004FF4805000EA47254FF40065F80519D58D
:1027500040F24C104FF48071C2F2000000688160BA
:10276000B80525D478055ABF07F4006045EAC005CE
:1027700045F40055F80307D421E0FFF71DFE0025BE
:10278000F805E5D4F8031AD540F24C104FF4803127
:10279000C2F2000000688160B8030ED478034FBF16
:1027A00045F400454FF4803000EAD700054306E0C9
:1027B000FFF702FEF803E7D401E0FFF7FDFD40F26A
:1027C0004C175FEA0870C2F2000707D514F010003A
:1027D00004D03868102145F40075C1605FEA487084
:1027E000019505D514F008001EBF38680821C160A6
:1027F0005FEA887040F180813868C16811F0030F8A
:1028000000F07A8141F228319FED4D0A45F24914DA
:1028100045F6500541F2403A40F2841B40F2204612
:102820009FED489A07F13409C2F20001C4F2000496
:10283000C4F20005C2F2000AC2F2000BC4F20106A3
:1028400091ED001A21EE008A396B012902D0396B13
:10285000022943D1014651F80C2F12F0030F39D051
:10286000D0F8B031D0F8B02113F0040F04BF520DEE
:10287000CAF80020D0F8B021D0F8B421D0F8B421A3
:10288000D0F8B421D0F8B8218BF80020D0F8B821C6
:10289000120A8BF80120D0F8B821120C8BF8022014
:1028A000D0F8B821120E8BF80320D0F8BC218BF899
:1028B0000420D0F8BC21120A8BF80520D0F8BC21E6
:1028C000120C8BF80620D0F8BC01000E8BF8070024
:1028D000202006E04FF4001002E000BF4FF48020FB
:1028E00049460A6810430860DAF80000B0F5407FF6
:1028F0002AD040F20331884240F0F080DBF800003B
:1029000045F24F21884230DC44F65451884251DD73
:1029100044F6555188426FD044F64D71884276D0C6
:10292000B0F5A24F40F0DA809BED010A41F224306D
:10293000C2F20000B8EEC00A80ED000ACEE000BF8F
:1029400017B75138C3F5483945F64F01DBF8000099
:10295000C4F20001884214DCA04247D045F2551170
:10296000C4F20001884217D0B8E045F25411C4F215
:102970000001884234DD45F25511C4F2000188425D
:102980000AD0A84210D045F65601C4F20001884290
:1029900040F0A480A81D01E004F10C0040F24811B1
:1029A000C2F20001086099E040F24810C2F2000053
:1029B000056093E044F25011884244D044F2413122
:1029C000884240F08B809BED010A41F21830C2F240
:1029D0000000B8EEC00A20EE090A80ED000A7DE092
:1029E00045F25021884235D0A04277D140F24810BC
:1029F000C2F20000046071E0DBF80400022836D166
:102A000041F210300221C2F20000017066E0DBF8F2
:102A100004103068012943D140F001003060306873
:102A200040F010003060306840F4807030603068F2
:102A300040F004003060306840F0400030603068A2
:102A400040F4806042E09BED010AB8EEC00AB1EEAE
:102A5000400A1EE041F224309BED010AC2F2000060
:102A600090ED001AB8EEC00A31EE400A11E0DBF832
:102A70000400032832D141F224300321C2F20000C5
:102A800090ED000A41F21030C2F2000038EE000A68
:102A9000017041F21C30C2F2000080ED000A1DE01E
:102AA00020F001003060306820F0100030603068A5
:102AB00020F480703060306820F0040030603068AE
:102AC00020F040003060306820F48060306056F8BC
:102AD000140C40F0010046F8140C00BFFFF76CFC2A
:102AE000386B012802D0386B022805D13868C168DC
:102AF00011F0030F7FF4A8AE5FEA486040F18280D6
:102B0000039ADDE9013912F0100004D03868102171
:102B100043F4806301615FEA886005D512F0080024
:102B20001EBF3868082101615FEAC86044BF386889
:102B300000695FEA883005D519F010001EBF3868BB
:102B4000102141605FEAC83005D519F008001EBFAA
:102B50003868082141605FEA084027D55FEA49707C
:102B600021D5009A08F4807002EA102012F0020FBA
:102B700040EA0300014618BF41F0020118F4007F4B
:102B800008BF014612F0040F0B4618BF43F00403C0
:102B900018F4806F08BF0B4618F4006F18BF12F0CE
:102BA000700040F09081386804214160002B00F0F3
:102BB0009582786B40F200084322C2F20008184365
:102BC00046F6951378634127C0F60003D8F8001045
:102BD000481CC8F800000A70002200BF8E187770E9
:102BE0009F18BD7865B1B570FD789DB1F5703D79E0
:102BF00095B17F79043204303571002FEED18818F9
:102C000001300AE0039ADDE901395FEA88603FF5A7
:102C100085AF89E7023000E0033040F24C14C8F879
:102C20000000C2F20004FFF7F5FCD8F80060D4F809
:102C300034C0BCF1FF3F05DDBCF1000F00F0BF80E8
:102C4000002204E02D20CCF1000C012230704CF663
:102C5000CD49002503236FF006074FF00E0A6FF0F1
:102C6000050B4FF0000E0096CCF6CC49CEF10E01CC
:102C7000CEF10F00C8460395029200F0030003292D
:102C8000019101D2012124E003F0030401213D461A
:102C900004EB0509B9F1040F0ED0B9F1000F0ED005
:102CA00019F1040210D000221035C6F6C17251434A
:102CB0006219082AECD10CE042F2107208E04EF2E0
:102CC0000012C0F2F55203E041F20002CDF2A5423B
:102CD000514301284FF47A70C14608BF0A20484387
:102CE000BCFBF0F0A0FB0814E10801EB8101A0EBB4
:102CF000410028B1009E029A40F0300006E000BF7B
:102D0000039D009E029A012D03D13020B054013260
:102D10000125BEF10E0F01D101202FE0019803958E
:102D200000F00208CEF10D00032801D201201FE0BF
:102D30000AF0020401205D46611904290BD069B133
:102D4000043110D000211035C6F6C1714843611915
:102D50000829F1D10CE042F2107108E04EF20011A6
:102D6000C0F2F55103E041F20001CDF2A541484324
:102D7000B8F1000F039D1CBF64214843BCFBF0F079
:102D8000A0FB0914E10801EB8101A0EB410018B19F
:102D900040F0300003E000BF012D03D13020B054DB
:102DA000013201250EF1020E0BF1020BAAF1020A0B
:102DB00002370233BEF1100F7FF458AF02E030202B
:102DC00001223070B01840F200070130C2F2000753
:102DD00038600A20B054FFF71DFC40F28C1041F21D
:102DE000111440F24C16C2F20000C0F21104C2F2FB
:102DF000000601884A1C642902800594756B0495BD
:102E000039D802310180306B022857D1306801680F
:102E100041F00101016041F20831C2F200010A688B
:102E2000436813F0010F20D130680B689B1A0B2BFD
:102E300059D2436813F0010F17D10B689B1A0A2B64
:102E400051D8436813F0010F0FD10B689B1A0A2B5E
:102E500049D8436813F0010F07D10B689B1A0A2B5E
:102E600041D8436813F0010FDFD0016821F002015F
:102E7000016001203CE040F22040C4F20100016802
:102E800021F001010160016821F010010160016879
:102E900021F480710160016821F004010160016882
:102EA00021F040010160016821F48061016050F867
:102EB000141C41F0010140F8141CD5E0706B40F483
:102EC0008010706315E010380009052800F21A819F
:102ED000DFE810F006000A010D01100113011601D0
:102EE00043F008030EE1706B40F40030706305207E
:102EF000306345F650013068C4F2000101F53B61D2
:102F0000884274D100214FF46150C4F202010A5882
:102F100022F000720A504FF610420868CFF6FF7296
:102F200020F440000860486A20F4704048628868D5
:102F300020F440008860486820F400604860C86859
:102F400020F44000C86043F60040C4F201008358FA
:102F500013F4704F13D1835823F4704383500268E5
:102F600022F400620260426822F4006242608268D9
:102F700022F400628260C26822F40062C2600A68C1
:102F800022F040720A604A6A22F470224A628A6819
:102F900022F040728A604A6822F480524A60CA680D
:102FA00022F04072CA604FF61441CFF6FF714258CA
:102FB00012F00F0F13D1425822F00F024250016855
:102FC00021F480510160416821F4805141608168A1
:102FD00021F480518160C16821F48051C1604EF2BA
:102FE00080104FF48011CEF200000160306801685B
:102FF00041F40041016000207063306301F06CFF18
:1030000030681021C160316B012902D0316B022977
:1030100002D11430022103E006F134004FF4802184
:1030200002681143016041F238300121C2F2000010
:10303000017041F23C30C2F20000017006A8CDE9F7
:10304000064502F043F8306B012802D0306B0228AD
:1030500003D130680121143003E006F134004FF44D
:10306000802102681143016040F204043968C2F211
:1030700000042068091A89B202F07CF940F2D823D2
:10308000226840F6A821C2F20003C2F200019A426F
:1030900018BF19460028216039601FD044F64450FB
:1030A000C5F64170086047F24250C6F2666048605B
:1030B00047F26520C4F65F70886046F27650C6F22B
:1030C0007260C86046F66C70C0F67750086101F116
:1030D000150038600A200875FFF79CFA08B0BDECAF
:1030E000048B01B0BDE8F08F43F010030AE043F019
:1030F000200307E043F0400304E043F0800301E0D5
:1031000043F480733868816921F0700181614AE578
:1031100080B540F22C2CC2F2000CDCF800E0DEF8A6
:103120000020DEF80C30DEF8140012F00F0F4FD044
:1031300003F4907100F00100014364D0D1071FBF78
:1031400013F48071DCF8441041F00101CCF8441014
:10315000510707D500281EBFDCF8441041F00201DA
:10316000CCF84410910707D500281EBFDCF84410A6
:1031700041F00401CCF84410110707D500281EBF08
:10318000DCF8440040F00800CCF84400DCF84400CF
:10319000002800F0148103EA0200800640F1D88084
:1031A000DCF84000222840F0D380DCF80800B0F5BD
:1031B000805F40F08080DCF81020DCF82800DEF82A
:1031C0000410002A00F0A480C9B220F8011BA3E07B
:1031D00003EA020010F0200F17D0DCF8400022288C
:1031E00040F0ED80DCF80800B0F5805F53D1DCF8EA
:1031F0001020DCF82800DEF80410002A6BD0C9B2D9
:1032000020F8011B6BE003EA020001060CD4400623
:1032100058BF80BDDEF80C0020F04000CEF80C0056
:103220002020CCF83C00CAE0DCF83C00212840F02B
:10323000C680DCF80810DCF82000B1F5805F0DD105
:1032400001886FF35F21CEF80410DCF8101000291C
:1032500014BF01300230CCF8200005E0411CCCF84E
:1032600020100078CEF80400BCF826004FF6FF715D
:1032700001380842ACF8260040F0A180DEF80C00CE
:1032800020F08000CEF80C00DEF80C0040F040008A
:10329000CEF80C0080BDDCF81020DEF80400DCF86D
:1032A0002810002A01F10102CCF8282018BF00F0F4
:1032B0007F00087015E0DCF81010DEF8040000292B
:1032C000DCF8281001F10102CCF8282018BF00F02A
:1032D0007F00087022E06FF35F2120F8021BCCF81A
:1032E0002800BCF82E004FF6FF7101380842ACF8F8
:1032F0002E0064D1DCF80000C16821F49071C16037
:10330000416921F0010141612020CCF8400080BDDD
:103310006FF35F2120F8021BCCF82800BCF82E00C8
:103320004FF6FF710138ACF82E000842DCF800E0DF
:103330000ED1DEF80C0020F49070CEF80C00DEF810
:10334000140020F00100CEF814002020CCF840003A
:10335000DEF81400DCF8441000F0400001F0080131
:1033600008432DD0DEF80C0020F49070CEF80C004D
:10337000DEF8140020F00100CEF814002020CCF874
:103380004000DEF8140010F0400F18D0DEF81400F2
:1033900020F04000CEF81400DCF8340078B145F29B
:1033A000F941C0F600014165816B02290CD105216C
:1033B00081630068016821F00101016080BD80BD6A
:1033C0000020CCF8440080BD80218165BDE88040AC
:1033D00002F092B8F0B581B0002040F2742448F2B7
:1033E000B5130821009040F20800C2F20004C1F6B3
:1033F0004E33C2F200000268D4E91760376881409A
:10340000A2FB032539420DD02268136813F0040F84
:1034100008D0136823F004031360B160A16D41F07C
:103420000101A16501218140394209D02268526918
:1034300012F0800F04D0B160A16D41F00201A165CE
:1034400004218140394209D02268126812F0020F2B
:1034500004D0B160A16D41F00401A165102181404B
:1034600039421AD02068026812F0080F15D0B160F6
:103470000268016812F4802F06D1C9055EBF016899
:1034800021F00801016001E0080343D4616C21B11F
:1034900040F27420C2F200008847216E202000FA1A
:1034A00001F23A4246D02068036813F0100F41D071
:1034B000B260A36B0268052B1ED122F016020260D7
:1034C000426922F080024261626CE36C1A431EBFC3
:1034D000026822F0080202603F208840B0600120AC
:1034E000A06300206063616D002962D040F2742007
:1034F000C2F2000088475CE0016852030ED4C9059F
:1035000011D4016821F0100101600120A0630020A6
:10351000606308E0E16C0029BAD1BEE7080302D479
:10352000A16C11B906E0216C21B140F27420C2F205
:1035300000008847A06DE0B3A06D10F0010F2FD000
:103540000521A80AA16321680A6822F001020A6025
:10355000009A0132824200921ED80A6812F0010FCE
:103560001AD0009A01328242009215D80A6812F0ED
:10357000010F11D0009A0132824200920CD80A68E1
:1035800012F0010F08D0009A01328242009203D853
:103590000A6812F0010FDBD10120A06300206063F4
:1035A000216D31B140F27420C2F20000884701B0B1
:1035B000F0BD01B0F0BD00BF2DE9F0472DED108B3F
:1035C00040F2001840F2B80940F2700A9FED203A2C
:1035D0009FED202A41F28827C2F20008C2F20009BA
:1035E000C2F2000AC2F20007D8F80000B0EE435A57
:1035F00090ED0F0AB8EE400AD9F8000090ED0F1ACE
:10360000B8EE411ADAF8000001EE025AB0EE431AA1
:10361000C06B00EE021A04EE100AB8EE444A87EDC1
:10362000001A87ED015A04EE023A87ED023A00F0E3
:103630002BFF41F21030C2F200000078032800F2A4
:103640001C83DFE810F01500340281029B0200BFEA
:1036500000803BC30080BB3D610B363B0000004453
:10366000DB0F493CDB0F49BC0000F0C20000F04218
:1036700041F20C3541F22C361FED09DA1FED09CA73
:1036800046F28014B8EE00BAB0EE089A1FED0C8A2C
:103690001FED0CAAC2F20005C2F20006C0F600043B
:1036A00096ED000A95ED001A31EE000A20EE0D0AA3
:1036B000BDEEC01AB5EEC00A11EE100AF1EE10FA16
:1036C000B8BF013801EE100AB8EEC11A30EE410A57
:1036D00020EE0C0ABDEEC01A11EE100A00F18001B6
:1036E0006FF35F206FF35F2104EB800205EE100A99
:1036F00004EB810192ED001A92ED012AB8EE455AD1
:1037000091ED003A91ED014A30EE450AB1EE416A81
:1037100072EE412A73EE030A34EE437A36EE426AC1
:1037200011EE0B2A77EE071A27EE097A74EE200ABB
:1037300020EE8A5A56EE081A02EE0A7A02EE895AEA
:1037400001EE807A34EE032A32EEA24A23EE086AB2
:1037500012EE084A27EE002A04EE005A01EE482A2B
:1037600005EE006A02EE003A06EE001A33EE030A96
:1037700071EE010A87ED030AC7ED040A00F09AFA18
:1037800096ED000A95ED001A1FED492A1FED494AF2
:1037900031EE000A20EE0D1A30EE022A30EE040A55
:1037A000BDEEC13AB5EEC01A22EE0D2A20EE0D0A8A
:1037B00013EE100AF1EE10FABDEEC23AB5EEC02AD1
:1037C000B8BF013813EE101AF1EE10FABDEEC04A80
:1037D000B5EEC00A03EE100A14EE100AB8EEC33AB2
:1037E000B8BF0139F1EE10FA31EE431AB8BF013813
:1037F00004EE101A03EE100A21EE0C5AB8EEC31AAA
:10380000B8EEC43ABDEEC54A14EE100A30EE410AD5
:1038100032EE431A034620EE0C7A21EE0C6A803019
:103820006FF35F23BDEEC70ABDEEC61A6FF35F20CC
:1038300004EB830204EB800010EE101A02EE903AC3
:1038400092ED002AD2ED015A11EE102A90ED000AF5
:10385000D0ED011A08468031B8EE62EA02F1800626
:103860006FF35F226FF35F206FF35F2135EE4E5AE7
:103870006FF35F2604EB820530EE004AF1EE423A28
:1038800075EEC2AA71EEC06A04EB800304EB8101FD
:1038900004EB860695ED003AD5ED014A71EE847A87
:1038A00033EEE5FA71EE801AD3ED019A76EEA68A30
:1038B00093ED004A66EE896A52EE0B5A96ED001AB5
:1038C000D6ED010A67EE8A2A5FEE088A45EE8A6A1B
:1038D000B1EE43CA4AEE892AB0EE64EAB0EE69FA64
:1038E000F1EE445A48EE856A13EE0BEA14EE0BFA39
:1038F00030EEC1DA7CEE647A75EEE95A74EEC34AB2
:1039000066EE856A3DEE0DCA6DEE093A3AEEAADA28
:1039100042EE486A11EE88DA01EE902A17EE88CA64
:10392000D1ED017A4EEE0A3AF8EE611A4DEE052A13
:103930000DEE100A41F2782076EE611A91ED006AE0
:10394000B8EE4DDAC2F2000037EE4D7A39EEC4DA45
:103950004CEE213A016834EEA4CA37EEC6BA2BEE1B
:1039600009EA3BEE0BBA4A1C002915EE88BA0FEEA5
:103970000AEA026077EE865A3DEE0DFA15EE88FAF5
:103980000BEE07EA70EE815A26EE08BA15EE88CAE9
:1039900071EE015A70EEA50A60EE085A06EE850A2D
:1039A00042EE855A60EE8A0A63EEA12AD7ED003A0C
:1039B00005EE852A44EE890A43EE482A4CEE210A98
:1039C00076EE064A22EE232A20EE230A77EEA44A58
:1039D00061EE087A02EEA11A40EEA17A64EE8A4AFC
:1039E0006EEE070A97ED02AA07EEA13A4DEE094ADC
:1039F00097ED019A44EE480A4FEE074A00EE876AB7
:103A000004EE87BA01EE090A03EE092A9FEDA73AF0
:103A10000BEE074A06EE0A0A04EE0A2A22EE031A01
:103A200020EE030A87ED091A87ED0A0A17D19FEDE8
:103A3000A00A40F200040021C2F2000422EE000AB3
:103A4000BDEEC00A016046F68C11206810EE102A07
:103A5000C0F60001FCF776FC216808442060FEF700
:103A6000D9FD41F27C20C2F2000001684A1C002905
:103A7000026019D19FED8C0A97ED0A1A40F20004FA
:103A80000021C2F2000421EE000ABDEEC00A01606E
:103A900046F69011206810EE102AC0F60001FCF7DF
:103AA00051FC216808442060FEF7B4FDE5E000F019
:103AB000CFF941F28020C2F2000001684A1C0029BF
:103AC000026019D19FED780A97ED091A40F20004BF
:103AD0000021C2F2000421EE000ABDEEC00A01601E
:103AE00046F68C11206810EE102AC0F60001FCF793
:103AF00029FC216808442060FEF78CFD41F28420F7
:103B0000C2F2000001684A1C0029026019D19FED31
:103B1000660A97ED0A1A40F200040021C2F200047E
:103B200021EE000ABDEEC00A016046F69011206841
:103B300010EE102AC0F60001FCF704FC21680844CE
:103B40002060FEF767FD98E041F218309FED520AC1
:103B5000C2F2000090ED003A41F2C020C2F2000033
:103B600090ED001A23EE002A23EE403AB4EEC31A79
:103B7000F1EE10FA1CDA31EE022A22E041F218309E
:103B80009FED450AC2F2000090ED003A41F2C020DC
:103B9000C2F2000090ED001A23EE002A23EE403A14
:103BA000B4EEC31AF1EE10FA30DA31EE022A36E042
:103BB000B4EEC21AF1EE10FACCBF31EE422A9FEDFC
:103BC000372A41F2283180ED002AC2F2000191ED3E
:103BD000001A41F2BC21C2F2000191ED003A32EE2E
:103BE000414A9FED2F1A04EE003A81ED003AB4EEFF
:103BF000C13AF1EE10FA37DA9FED2A1AB4EEC13A63
:103C0000F1EE10FAD8BF81ED001A2FE0B4EEC21A1F
:103C1000F1EE10FACCBF31EE422A9FED202A41F29C
:103C2000283180ED002AC2F2000191ED001A41F224
:103C3000BC21C2F2000191ED003A32EE414A9FED03
:103C4000181A04EE003A81ED003AB4EEC13AF1EEF2
:103C500010FA0EDA9FED131AB4EEC13AF1EE10FA33
:103C6000D8BF81ED001A06E081ED001A00F0F0F8EF
:103C700003E081ED001A00F0EBF8DAF800006FF0D5
:103C800004010160D9F800000160D8F8000001606B
:103C9000BDEC108BBDE8F08717B75138000000006D
:103CA000D2537B42D2537BC200007A44ABAA2A3F54
:103CB000ABAA26449FED5E3AB0EE602A9FED5D4AC6
:103CC000B6EE001AF5EEC00A0020F1EE10FA10EE82
:103CD000032AB0EE603AC8BF012010EE043A22EE8B
:103CE000015A23EE010AB5EEC05AF1EE10FAB5EE14
:103CF000C00AC8BF40F00200F1EE10FAC8BF40F0A1
:103D00000400411E05290BD8DFE801F0030F18213C
:103D10002A339FED4B4A23EE040A22EE042A2EE0BA
:103D20009FED452AB0EE420A29E09FED440A9FED3F
:103D3000442A20EE800A23EE022A20E09FED420A68
:103D40009FED403A20EE800A22EE032A17E09FED15
:103D50003C0A9FED3A3A22EE000A20EE832A0EE05A
:103D60009FED380A9FED382A23EE000A20EE822AC2
:103D700005E09FED344A22EE040A23EE042A9FED6B
:103D8000333A30EE024AB4EEC34AF1EE10FA07DDE0
:103D900080EE040A82EE042A20EE030A22EE032AB1
:103DA00010B533EE423A00F0070033EE403A411EC0
:103DB00023EE011A0529BCEEC11A11EE10CAB8EEA5
:103DC000411A32EE011ABCEEC11A11EE10EAB8EE39
:103DD000411A30EE010ABCEEC00A0BD810EE100AF0
:103DE00073466246DFE801F0030D1C111519724697
:103DF000634615E041F2941241F2941341F294109B
:103E00000EE00346624670460AE00246734660468C
:103E100006E002466346704602E00346724660468C
:103E200040F23441C4F201018A604B60086010BD69
:103E3000D7B3DD3FD7B3DDBF0000000073E29BC303
:103E400073E21BC373E21B4373E29B4300A08C45E8
:103E500010B52DED108B41F2343041F22C3C9FED2A
:103E6000D51A9FEDD50A9FEDD54A46F2801EC2F2C3
:103E70000000C2F2000CC0F6000E90ED002A9CED8E
:103E8000003A22EE016A9FEDCE1A33EE062A22EEA8
:103E9000003A32EE011A32EE042ABDEEC35A21EE88
:103EA000001AB5EEC03A15EE100ABDEEC14AF1EEA9
:103EB00010FAB5EEC01A22EE005AB8BF0138F1EE82
:103EC00010FA14EE101AB5EEC05AB8BF0139BDEEA3
:103ED000C52A07EE100AF1EE10FA04EE101A12EEDF
:103EE000100A9FEDB82AB8EEC44AB8EEC77AB8BF38
:103EF000013831EE441A33EE473A61EE025A63EE6E
:103F0000023A01EE100ABDEEE53ABDEEE34AB8EE24
:103F1000C11A14EE101A35EE411A13EE100AB8EE5B
:103F2000005AB0EE083A9FEDF24A01F180026FF3B9
:103F30005F2121EE029A6FF35F220EEB8104BDEE4A
:103F4000C98A02EE901A0EEB8202D4ED001AD4ED6B
:103F5000017AF8EE628A92ED007AD2ED014A00F120
:103F600080026FF35F200EEB8003B1EE61AA6FF366
:103F70005F220DEE100A18EE100A37EEE1FA37EE66
:103F8000071AD3ED000A34EEC7BA0EEB82010246DF
:103F90003AEE67AAD3ED016A51EE857A803074EE6D
:103FA00087BA34EE81CA9FEDD31A7BEE0B9A2BEEC3
:103FB00003BA6FF35F2273EEE84AD1ED003A6FF374
:103FC0005F20B1EE60EA2CEE048AB8EE4DCA07EE2F
:103FD00084BA07EE902A0EEB82030EEB800041F2CA
:103FE00088225AEE019A91ED01AA3EEE66DA3FEE82
:103FF0000FEA0FEE038AB8EE67FA75EECC7AF0EEB0
:10400000665AD3ED002AD3ED01AA76EEE06AC2F239
:10401000000241F2B42141F2B8231BEE81EA50EED6
:10402000855A09EEA4BAD0ED019A39EE4F9AC2F240
:104030000001C2F200037AEE63BAF1EE628A0EEE7C
:10404000248A3BEEABCA6BEE83BA78EEEA8A2BEE9B
:1040500024BA45EE84BAD0ED005A1DEE01CAB0EE86
:104060006ADA01EEC1BA41F20C3012EE85DA4CEE9A
:1040700027BAC2F2000039EEE5EA80ED006A2EEEC2
:1040800003FA3EEE0EEA18EE81EA0DEE04FA7AEE3D
:10409000E28A39EEA5DA76EEA6AA0EEE09FA92EDDC
:1040A00001EA38EEA8CA1DEE01CA3AEE23DA5DEE47
:1040B00001AA33EEA3DA3AEE0DAA27EE01DA0BEEEF
:1040C000247A08EE24DA2AEE04AA2BEEA78A4DEE13
:1040D000241ADFED894A2FEE09DA06EE83AA00EEF4
:1040E000C18A02EEC1DA0AEEA7AA75EEA56A79EED8
:1040F000A66AD2ED029A66EE846A48EE836A63EE9F
:10410000818A4CEE096A92ED00CA48EE273A4AEEDF
:10411000278A25EE81AA27EE0C7A48EEA70A4DEEF3
:10412000095A06EE89AA03EE8E7ADFED746A61EE13
:104130008C1AD1ED003A40EE8E1A4AEE092AD3EDE0
:10414000000A05EEA97A42EEA91AF0EE042A41EE21
:10415000A63A47EE260AF4EEE23A61EEA45A67EE7A
:10416000244AC1ED003AC3ED000AF1EE10FAC2EDA7
:10417000095AC2ED0A4A09DAF8EE042AF4EEE23AE4
:10418000F1EE10FAD8BFC1ED002A01E0C1ED002A1E
:10419000B0EE046AF4EEC60AF1EE10FA14DAB8EEE4
:1041A000046AF4EEC60AF1EE10FAD8BF83ED006A95
:1041B0000CE000BF4160653B610B363B0000F04204
:1041C0000000F0C20000004483ED006A9CED006A2C
:1041D000D0ED000A30EE866A26EE000ABDEEC06A17
:1041E000B5EEC00A16EE100AF1EE10FAB8BF0138AB
:1041F00006EE100AB8EEC66A30EE460A20EE020A53
:10420000BDEEC02A12EE100A00F180016FF35F20AC
:104210006FF35F210EEB800303EE900A41F2303022
:104220000EEB810193ED002A93ED016AF8EE633AFB
:10423000C2F20000D1ED002AD1ED010A30EE630A8E
:10424000F1EE424A36EE428A70EEE25A72EEA26A0D
:1042500074EEC64A12EE056A75EEA57A65EE835ACB
:1042600030EEA65A70EEA20A78EE083A62EE816A43
:1042700046EE045A54EE817A9FED216A25EE044AF7
:1042800050EE813A90ED005ADFED1F0A08EE034A26
:1042900047EE805A03EE804A27EE063A65EE804AE2
:1042A0009FED186ADFED195A44EE006A42EE414A6A
:1042B00006EE802A41EE860A44EE802A23EE053A75
:1042C00027EE251A01EEA53A05EE201A22EE830A02
:1042D00062EE030A02EE410A42EE810A82ED030A0F
:1042E000C2ED040ABDEC108BBDE81040E2E400BF53
:1042F000DB0F49BCDB0F493CABAA2A3F65CF0BB8AB
:104300005D961CB7FCF4B236964DA13ADA874F3C65
:1043100070B582B0182646F274144FF00040C4F213
:104320000206C0F600043060204600F019FF4EF28D
:1043300010054FF400403060CEF20005286801906F
:10434000019802202968C90300EBE17078B129685F
:10435000C90300EBE17050B12968C90300EBE170BB
:1043600028B12968C90300EBE1700028EAD14FF0B9
:1043700000403060A01C00F0F3FE4FF400403060BD
:1043800028680190019802202968C90300EBE170B8
:1043900078B12968C90300EBE17050B12968C903FD
:1043A00000EBE17028B12968C90300EBE170002837
:1043B000EAD14FF000403060201D00F0D1FE4FF4F4
:1043C0000040306028680190019802202968C903E4
:1043D00000EBE17078B12968C90300EBE17050B1DE
:1043E0002968C90300EBE17028B12968C90300EB13
:1043F000E1700028EAD14FF000403060A01D00F0CD
:10440000AFFE4FF400403060286801900198022010
:104410002968C90300EBE17078B12968C90300EB92
:10442000E17050B12968C90300EBE17028B1296837
:10443000C90300EBE1700028EAD14FF00040306082
:1044400004F1080000F08CFE4FF400403060286852
:1044500001900198022000BF2968C90300EBE170B8
:1044600078B12968C90300EBE17050B12968C9032C
:1044700000EBE17028B12968C90300EBE170002866
:10448000EAD102B070BD00BF2DE9F0412DED048BE3
:1044900082B0002040F6184448F22101ADF8020035
:1044A000ADF80000C4F202044FF48020206043F213
:1044B0000800C4F201004160016811F0020F1AD136
:1044C00096214FF6FF7200BF036813F0020F16D15A
:1044D0008B1E134211D0076817F0020F11D1036829
:1044E00013F0020F0FD10439114206D0036813F004
:1044F000020FE9D008E0962106E0002104E001392E
:1045000002E0194600E00339026812F0800F1BD068
:104510004FF6FF728BB2012B16D0076817F0800F91
:1045200018BF022B10D0076817F0800F18BF032B9D
:104530000AD0036813F0800F06D00439114203D06B
:10454000036813F0800FE5D1416840F20045C4F2E2
:10455000020501910199006801900198286820F4F2
:1045600040602860286828600DF10200FDF7BEFF5A
:104570006846FDF7BBFF042041F2C4219FED8E1A6F
:1045800041F220389FED8D4A2060C2F20001C2F254
:104590000008286820F440602860286840F4006023
:1045A0002860BDF802006FF3DF3000EE100AB8EEAD
:1045B000400A91ED002AA8F8000041F2243020EED4
:1045C000013AC2F2000033EE421A80ED003A81ED6A
:1045D000003AB4EEC41AF1EE10FA02DD9FED7A2A29
:1045E00008E09FED772AB4EEC21AF1EE10FA03DA72
:1045F0009FED742A31EE021A41F2C82041F2CC221A
:104600009FED722A4AF6AB259FED719A41F228364A
:10461000DFED700AC2F20000C2F20002CAF6AA255B
:10462000C2F20006017821EE021A02EB810201318A
:1046300092ED003A82ED001AA1FB052341F2E4223B
:104640009B08C2F2000203EB430392ED002AA1EBA8
:104650004301017032EE432A32EE011A21EE092A9B
:1046600082ED001A86ED002A01F0C2F845F60050EE
:10467000BDEEC00A002240F2191410EE101AC0F666
:10468000000000BFA3185B0850F823708F4203DAC4
:104690005A1CA242F6D903E005DD5C1EA242F1D904
:1046A00050F82470234645F6CC2100EE107A9FED99
:1046B0004A8AC0F6000131F913200133F0EE480AAE
:1046C00031F9131000EB8300B8F80030B8EEC00ADF
:1046D00002EE102A90ED003A01EE103A04EE101AA4
:1046E000B8EE411AB8EEC22AB8EEC44AB8EEC33AE0
:1046F00031EE401A34EE424A33EE400A24EE011AFB
:1047000081EE000A30EE020A01F072F841F22C301C
:1047100041F2EC2296ED001AC2F20000C2F2000251
:1047200080ED000A41F2E820B2EE0C0AC2F200006D
:1047300021EE000A017802EB8102013192ED002A9C
:1047400082ED000AA1FB052341F204329B08C2F26C
:10475000000203EB430392ED001AA1EB4301017049
:1047600041F2303031EE421AC2F2000031EE001A4E
:1047700021EE090A82ED001AB4EEC80A80ED000AA3
:10478000F1EE10FA04DD9FED151A30EE010A08E093
:10479000B5EEC00A30EE081AF1EE10FAB8BFB0EE6E
:1047A000410A41F23430C2F2000080ED000A02B04A
:1047B000BDEC048BBDE8F081DB0F4939DB0F4940CC
:1047C000DB0F49C0DB0FC940DB0FC9C068F6B64636
:1047D000ABAA2A3E000000470000B4430000B4C367
:1047E0002DE9F0410A6892FAA2F20C68B2FA82F25C
:1047F00034FA02F37BD04FF0010C4FF003084FF076
:104800000F0E00BF0CFA02F52C406BD04D68066805
:1048100094FAA4F794FAA4F3B3FA83F35B0005FACD
:1048200003F3B7FA87F56D0008FA05F526EA0505E2
:104830002B4303604B68013B012B11D88B688568C3
:1048400094FAA4F694FAA4F7B6FA86F6B7FA87F7BC
:1048500076007F0008FA06F6BB40B5432B43836021
:104860000B69C56894FAA4F694FAA4F7B6FA86F62A
:10487000B7FA87F776007F0008FA06F6BB40B54323
:104880002B43C3604B68022B2CD194FAA4F34D69DF
:10489000B3FA83F3072B12D8036A94FAA4F694FAB6
:1048A000A4F4B4FA84F4A40005FA04F4B6FA86F584
:1048B000AD000EFA05F5AB432343036212E0240A70
:1048C000436A94FAA4F694FAA4F4B4FA84F4A40023
:1048D00005FA04F4B6FA86F5AD000EFA05F5AB4319
:1048E000234343620C68013234FA02F38AD14A68E6
:1048F000013A012A88BFBDE8F081C9684268614376
:10490000A24311434160BDE8F08100BF10B586B0FD
:104910000446D8B3206C002840F08E80002042F27C
:104920000022E06360640590CDE90300CDE9010059
:10493000C4F20102216891422BD042F20010C4F26D
:104940000100814241D042F20000C4F201008142E4
:1049500072D143F6300100200090C4F202014A698E
:1049600042F480724A614A6902F480720092009AAD
:1049700000900A6842F004020A60096801F004012C
:10498000009100990321029102213AE0012006B032
:1049900010BD43F630010090C4F202014A6942F4AE
:1049A00080624A614A6902F480620092009A009033
:1049B0000A6842F004020A60096801F004010091EB
:1049C00000990321029108211BE043F630010020E9
:1049D0000090C4F202014A6942F400724A614A69D5
:1049E00002F400720092009A00900A6842F00402F9
:1049F0000A60096801F00401009100990321029105
:104A000004210191039040F6000001A9C4F20200C4
:104A100000F078FD4EF60C500021CEF20000006848
:104A20004EF21240CEF2000001704EF200104FF430
:104A30008021CEF200000160206C10F0100F3AD1FE
:104A4000206C41F202110123C0F60073884340F04C
:104A50000200206442F20430C4F20100016821F433
:104A6000403101606168026811430160206841685B
:104A700021F4807141602169426842EA012141606C
:104A8000416821F040714160A16842681143416072
:104A9000816821F400618160E1688268114381606E
:104AA000A16A826822F0706299428260826804D1B1
:104AB00022F040510AE001204FE0114381608168FB
:104AC00021F040518160E16A826811438160816810
:104AD00021F002018160A169826842EA410181609E
:104AE000226A416882B141F400614EF200024160E5
:104AF000CFF6FF72416821F460414160616A02EBC8
:104B000041314268114301E021F40061416000221B
:104B1000C16ACFF6F07221F47001C162E16902EB63
:104B20000151C26A1143C162816821F40071816040
:104B3000216B826842EA41218160816821F48061B1
:104B400081606169826842EA8121012281600020DE
:104B50006064216C62F3010121640021E16306B00D
:104B600010BD00BF70B581B000220092C26B012A57
:104B700001D102214AE00122C263D1F800E01FFA0C
:104B80008EFCBEF10A0F4FEA4C0212FA8EF204D3E9
:104B900003681E3A03F10C0402E0036803F11004F9
:104BA00007252668954026EA050525608D6805FAE3
:104BB00002F225682A4322604A68062A05D802EBD9
:104BC000820203F13401053A0BE002EB82040C2A65
:104BD00087BF03F12C01A4F1410203F13001A4F1DC
:104BE00023021F240D6894400CFA02F225EA040403
:104BF0000C600E6832430A6042F20431C4F20101D3
:104C0000A1F54172934204D00021C163084601B06E
:104C100070BDBEF1110F0CD01222C1F200029645F8
:104C200007D0BEF1120FEFD10A6842F480020A6089
:104C3000EAE70A6842F400020A601221C1F20001A8
:104C40008E45E1D140F208014DF68362C2F20001C7
:104C5000C4F21B320968A1FB0212910C01EB810125
:104C6000490001E000990139009100990029CBD059
:104C700000990139009100990029C5D000990139A6
:104C8000009100990029BFD0009901390091009945
:104C90000029E7D1B8E700BF81B000210091C16BC6
:104CA000012963D00121C16301688A6812F0010FF4
:104CB00027D18A684DF68363C4F21B3342F00102A8
:104CC0008A6040F20802C2F200021268A2FB0323CB
:104CD0009A0C02EB420201E0009A013A0092009A1B
:104CE0007AB1009A013A0092009A52B1009A013AC0
:104CF0000092009A2AB1009A013A0092009A002A82
:104D0000EAD18A6812F0010F30D0026C43F201033D
:104D100042F2000CC4F2010C9A4342F48052026445
:104D2000026C12F4807F04BF002242640022C2633E
:104D30006FF004000860486840F080004860DCF8CC
:104D4000043388684A6800F4401002F4806213F06B
:104D50001F0F09D0614501BF50EA0200886840F486
:104D60008000886001B07047104301D001B07047E7
:104D7000886840F48000886001B07047C26B012AE7
:104D800002BF02210846704770B50122C263D1F804
:104D900000C01FFA8CFEBCF10A0F4FEA4E0212FA55
:104DA0008CF204D303681E3A03F10C0402E003689A
:104DB00003F1100407252668954026EA05052560BD
:104DC0008D6805FA02F225682A43226000249A6B56
:104DD000CFF6F07422F440129A630A699D6B04EBDB
:104DE0000254C2F103022C439C634D689E6B2A441B
:104DF000D4B2A40054FA82F21F2494400EFA02F2B4
:104E000026EA04049C639E6B324301269A63C0F237
:104E10000F06CC699A6822F47022B4429A609A68AC
:104E200002D122F4401409E022439A609A6822F4E5
:104E300040129A600A6A9E6846EA02049C608A6987
:104E40005E6846F48064002A08BF26F480645C60D3
:104E50004A695E6846F48054002A08BF26F48054EC
:104E6000032D5C6008D0022D09D0012D14BF03F181
:104E7000200203F1140204E003F11C0201E003F13B
:104E80001802166840F6FF75AE431660C9681668CA
:104E90003143116042F20431C4F20101A1F54172C3
:104EA0009342BDE8704012D1BCF1110F0BD0122219
:104EB000C1F20002944506D0BCF1120F07D10A6876
:104EC00042F4800202E00A6842F400020A60002113
:104ED000C1630846704700BFB0B586B040F24C14BD
:104EE000C2F20004206B002841D1002546F20040A8
:104EF0000595CDE90355CDE90155C4F200002168BF
:104F0000814234D143F63001009500F5CE30C4F231
:104F100002010A6942F000720A610A6902F0007235
:104F20000092009A00950A6842F001020A604FF46C
:104F3000C052096801F0010100910099022102911B
:104F400001920391032104910921059101A900F027
:104F5000D9FA4EF60C504FF48011CEF200000068E2
:104F60004EF20010CEF2000080F814530160236866
:104F700041F20831C2F20001186820F00200186006
:104F80000A685D68206815F0020F22D00B689B1A32
:104F90000B2B80F08B80436813F0020F18D00B6846
:104FA0009B1A0A2B00F28280436813F0020F0FD085
:104FB0000B689B1A0A2B79D8436813F0020F07D0AD
:104FC0000B689B1A0A2B71D8436813F0020FDDD1CE
:104FD00003461A6842F001021A600A68436813F037
:104FE000010F20D120680B689B1A0B2B64D24368F9
:104FF00013F0010F17D10B689B1A0A2B5CD843687A
:1050000013F0010F0FD10B689B1A0A2B54D8436879
:1050100013F0010F07D10B689B1A0A2B4CD8436879
:1050200013F0010FDFD0A1690268251D22F0800373
:10503000012908BF42F080030360E169026822F0A1
:105040004003012908BF42F040030360216A02685F
:1050500022F02003012908BF42F020030360616AA7
:10506000026842F01003012908BF22F01003036018
:10507000A16A026822F00803012908BF42F0080370
:105080000360E16A026822F00403012908BF42F0CC
:10509000040303602ECD1A43636901392A431A437E
:1050A00011430122C161002100200AE0606B05224A
:1050B00040F40031012004E0606B052240F400312F
:1050C00001206163226306B0B0BD00BF40F24C1105
:1050D000C2F200010A6B012A02D00A6B022A36D101
:1050E0000A68936813F0806F0CD1936813F0006F17
:1050F00008D1936813F0805F04D101F134004FF4BC
:10510000001128E09168302303EA1151114441F263
:105110003832C2F200021278002A1CBF0022C5F207
:105120006002C1F8802141F23C32C2F200021278E2
:10513000002A18BF0822C1F884214268C1F88C21D6
:105140000068C1F8880101F5C070012103E001F198
:1051500034004FF48021026811430160704700BFA2
:1051600040F29011C2F200010A6D012A08BF704797
:1051700070B581B041F208324FF0010CC1F850C057
:10518000C2F2000214684B6D012B40F0EB80002846
:1051900000F0E880032301254B6500238B65CD8655
:1051A00008638D868B638B87C1E91033CB87D1F879
:1051B00008E00B68BEF5004F02BF1D6845F480454E
:1051C0001D601D6815F0400F02BF1D6845F04005C9
:1051D0001D60CE684D68B6F5006F04D145B1CE8E26
:1051E000012E0BD104E0A5B1CE8E012E17D110E017
:1051F00030F8026BDE60CE8E013ECE86CE8ECEB112
:105200009E6816F0020FF3D11668361B952EF5D95D
:10521000A8E010F8016B1E73CE8E013ECE86CE8EB6
:1052200046B19E6816F0020FF3D11668361B952E14
:10523000F5D997E0986810F0020F3FD11068001B75
:10524000952817D8986810F0020F37D11068001B06
:1052500095280FD8986810F0020F2FD11068001B06
:10526000952807D8986810F0020F27D11068001B06
:105270009528DFD95868B5F5827F20F0E0005860A6
:1052800009D1BEF5004F02D0BEF5806F03D118687A
:1052900020F040001860886AB0F5005F08D11868F7
:1052A0004DF6FF7210401860186840F40050186006
:1052B000002008650120486554E000BF986810F0A0
:1052C000800F44D01068001B952817D8986810F0FC
:1052D000800F3CD01068001B95280FD8986810F0FC
:1052E000800F34D01068001B952807D8986810F0FC
:1052F000800F2CD01068001B9528DFD95868B5F5B1
:10530000827F20F0E000586009D1BEF5004F02D046
:10531000BEF5806F03D1186820F040001860886ADD
:10532000B0F5005F08D118684DF6FF7210401860A4
:10533000186840F40050186001204865886D40F0FE
:105340002000886500200865202088650AE0BEF1FD
:10535000000F06D100200090D86800909868009057
:105360000098886D00200865C1F854C001B0BDE800
:105370007040704740F22C230246C2F20003D86B03
:1053800020281CBF02207047002A18BF002901D125
:1053900001207047986B012804BF022070472DE957
:1053A000F041002001262124D98445F27945586432
:1053B0001A629E639984DC6345F2A144C0F600053D
:1053C000D3F830E0C0F60004CEE9105445F2A5450C
:1053D000C0F60005CEE91450DEF83440D3F800C022
:1053E000012C3BD0DEF85C80CEF83460DEF838501B
:1053F000012D30D102260CF10405CEF838600026CC
:10540000CEF85860DEF80060DEF808703468402F8F
:1054100024F4802434607160114608BF2946B160CD
:1054200008BF15463F22F560DEF8601002FA01F170
:10543000C8F80810316841F016013160716941F017
:1054400080017161316841F008013160316841F0DB
:105450000101316002E00021CEF834106FF040010C
:10546000CCF800109863DCF8141041F08001CCF8FF
:105470001410BDE8F08100BF0168C06B096811F429
:10548000807F18BF70470021C1840068416921F006
:1054900080014161C16841F04001C160704700BFB7
:1054A000704700BFC06B01684A69C36B212B0AD1EA
:1054B00012F0800207D00022C284CA6822F0C00223
:1054C000CA602022C2634A69036C222B0ED112F0FB
:1054D00040020BD00022C285CA6822F49072CA60D2
:1054E0004A6922F001024A6120210164416C41F0C5
:1054F00010014164704700BFC06B0021C185C184A9
:10550000704700BF2DE9F04F82B041F6000307223B
:1055100043F6004B4FF0010A00264FF0000CC4F296
:105520000203C4F2010B984200F13E4303F1FF7302
:1055300008BF06224FEAB327062F4FF0000738BFF7
:105540004FEAB322009209E00CF1010C0237043655
:10555000BCF1100F04BF02B0BDE8F08F0A680AFA70
:105560000CF812EA080FEFD0D1F804E04EF0100268
:10557000122A14D106F01C020F2303FA02F44FF68C
:10558000FC73C7F6FF7303EA5C0505442B6AA3436B
:105590000C6904FA02F21A432A62D1F804E00323E8
:1055A00004680EF00302BEF1120F03FA07F302FAC9
:1055B00007F224EA03046FEA030942EA04020260E4
:1055C00014D80AFA0EF212F0061F0FD08268CB68C8
:1055D00002EA0902BB401A438260CEF3001243681C
:1055E00002FA0CF223EA08031A434260C2688B688D
:1055F00002EA0902BB401A43C2605FEACE02A3D5A9
:10560000002206F00C050F24019243F64402AC4040
:10561000C4F202021346126842F480421A601A6809
:1056200002F4804201922CF00302019B5A444FF68F
:105630000843CFF6FF739E46D358A343009C04FA59
:1056400005F52B4342F80E30DBF800204D6842EAA6
:10565000080315F4803F08BF22EA080315F4003F51
:10566000CBF80030DBF8042042EA080308BF22EA46
:10567000080315F4801FCBF80430DBF8082042EA59
:10568000080308BF22EA080343F60C4215F4001F82
:10569000C4F20102CBF808301446126842EA08034B
:1056A00008BF22EA080323604EE700BF4EF6885089
:1056B0004FF0000CCEF20000016841F4700101606F
:1056C00043F60001C4F202010A6842F001020A60D6
:1056D000C1F808C04FF6FF720B68CFF6F6621A40A9
:1056E0000A6043F21002C2F200424A600A6822F4E1
:1056F00080220A60C1F80CC04FF0006140F8801CA5
:10570000704753EA020C00F069802DE9F04B4FF02E
:105710000006002B1FBFB3FA83F503FA05F424FA41
:1057200005F65E4012BF1643B2FA82F502FA05F49E
:10573000C5F120051EBF22FA05FC44EA0C04203501
:1057400056EA044C4FEA144418BF641C4FF000089A
:105750004FF00009904271EB030C39D3002919BFB7
:10576000B1FA81F701FA07F6B0FA80F700FA07F606
:10577000C7F120071EBF20FA07FC46EA0C062037B7
:10578000B6FBF4FCA7EB0507103F07F01F0BCBF1AE
:1057900020062CFA06F60CFA0BFB44BFB346002693
:1057A000202FA4BF5E464FF0000B5BEA060C08BF3B
:1057B0004FF0010B19EB0B0948EB0608ABFB027C21
:1057C00006FB02CC0BFB03CCC01B71EB0C01C1E749
:1057D0000B46024641464846BDE8F08B13B54FF0F4
:1057E00000004FF00001AFF30080BDE81C4070479F
:1057F00010B52DED028BF0EE408A18EE900AB0EE57
:10580000608A20F00040C0F1FF40C00F07D118EEC1
:10581000100A20F00040C0F1FF40C00F2BD018EE5E
:10582000101A18EE900A00F0B5F800EE100A10EE0B
:10583000100A6FEAD05010F0FF0F04BFBDEC028BCE
:1058400010BD18EE900A00F0004110EE100A00F0B2
:105850000040814204BFBDEC028B10BD18EE101A4F
:1058600010EE100ABDEC028B61F31E0000EE900AF0
:1058700030EE600A10BD18EE900A4FF07F41B1EB98
:10588000400F1CBF18EE100A5FEA4000C7D101208C
:10589000FAF776FDBDEC028BBDE81040AFF3008057
:1058A000DFED020A80EEA00A704700000000000051
:1058B00030380A2801D201207047002070470000CC
:1058C00010B500290AD00878002807D00548784488
:1058D000FBF742F9002801D0002010BD02487844AF
:1058E00010BD0000FA100000F21000000EF1020ED0
:1058F0002EF0030E5EF8044B244204D44FEA41021A
:10590000B2F17F4F11D84FEA4003B3F17F4F0CD86B
:105910000ED14FEAD07C0CEB4C0C0CF1020CB2F126
:105920007F4F08BF4CEBD17C04E04FF0080C01E046
:105930004FEAD17C0CEB4C0324FA03F404F0070487
:10594000B4F1040C06D20EEB840CBDE810404CF010
:10595000010C6047DFE80CF0070802024FF000403E
:10596000A0F5800010BD0846420018BFD2F1807239
:1059700088BF00F0004010BDF1EE100A4FF6FF7135
:10598000C0F2C03120EA010040F04070E1EE100AA0
:10599000704700004FF07F4C3CEA410318BF3CEADF
:1059A000400200F062804FF47F0C0CEAD11310F03B
:1059B000004F18BF43F005031CEAD01218BF13EACA
:1059C0000C0F00F057804FF0004C4CEA00204CEADE
:1059D0000121A3F580339A4210DD23F00203B0F1D8
:1059E000004F06D343F00203401ABCBF404283F08D
:1059F00001034FEA4000A2F58032ECE74FEA224C67
:105A0000BCEB234F08DB884206D31CD0A0EB41003F
:105A1000C0F1000083F0010340001DD217D40DD067
:105A2000B0FA80FC0CF1010C00FA0CF0A2EB0C4275
:105A3000D2F1000C12DB4FEAC37070474FEA43709B
:105A400000F00040704713F0020FE5D0DEE74FEAA8
:105A50004000B2F58032EBDD002AE9DD4FEAC212E8
:105A600042EA502040EAC370704710B5FFF73EFF8E
:105A7000EDFFFF3E1CEAD11F02D000F0004070474E
:105A8000004870470000C07F0000000000000000D8
:105A90003031323334353637383941424344454664
:105AA000403058003031323334353637383961625E
:105AB0006364656640307800040000080000000060
:105AC000000000020001000010000000120024008D
:105AD000360048005A006C007E009000A200B4001E
