:020000040800F2
:10000000F019002005030008892A00088D2A00083D
:10001000912A0008952A0008992A0008000000008B
:100020000000000000000000000000009D2A000801
:10003000A12A000800000000A52A0008A92A00083B
:100040001F0300081F0300081F0300081F03000808
:100050001F0300081F0300081F0300081F030008F8
:100060001F0300081F0300081F0300081F030008E8
:100070001F0300081F0300081F0300081F030008D8
:100080001F0300081F030008812F00081F0300083A
:10009000B92A0008BD2A00081F0300081F03000832
:1000A0001F0300081F0300081F0300081F030008A8
:1000B0001F0300081F0300081F0300081F03000898
:1000C0001F0300081F0300081F0300081F03000888
:1000D0001F030008C12A00081F0300081F030008AF
:1000E0001F0300081F0300081F0300081F03000868
:1000F0001F0300081F0300081F0300081F03000858
:100100001F0300081F0300081F0300081F03000847
:100110001F0300081F0300081F0300081F03000837
:100120001F0300081F0300081F0300081F03000827
:100130001F03000800000000000000001F0300086B
:100140001F0300081F0300081F0300081F03000807
:100150001F0300081F030008992D00081F03000853
:100160001F0300081F0300081F0300081F030008E7
:100170001F0300081F0300081F0300080000000001
:10018000000000001F030008000000000000000045
:100190001F03000800000000000000001F0300080B
:1001A0000000000000000000000000001F03000825
:1001B0001F0300081F0300081F0300081F03000897
:1001C0001F03000800F002F800F08DF80AA090E884
:1001D000000C82448344AAF10107DA4501D100F002
:1001E00082F8AFF2090EBAE80F0013F0010F18BF42
:1001F000FB1A43F001031847047200002472000048
:10020000103A24BF78C878C1FAD8520724BF30C842
:1002100030C144BF04680C60704700000023002414
:1002200000250026103A28BF78C1FBD8520728BF06
:1002300030C148BF0B6070476E2900F045817029BE
:1002400000F087826629AFF300806529AFF3008054
:100250006729AFF300806129AFF3008003681B0AB0
:1002600028BF41F08001692900F0F280642900F084
:10027000EF80752900F0EC806F2900F01582782955
:1002800000F05382E92900F0AF81E42900F0AC814D
:10029000F52900F0A981EF2900F01282F82900F079
:1002A00052820368DB0928BF41F08001632900F016
:1002B000CB83732900F0D083E32900F0DB83F3299B
:1002C00000F0E083002070471FB506F030FC00F01E
:1002D0003DFC04000020002106F074FA401C606020
:1002E0001FBD10B510BD00F0F9FB1146FFF7ECFF84
:1002F00000F07AFC00F020FC03B4FFF7F2FF03BC2F
:1003000000F068FC0948804709480047FEE7FEE71F
:10031000FEE7FEE7FEE7FEE7FEE7FEE7FEE7FEE7B5
:1003200004480549054A064B704700003966000835
:10033000C5010008F0130020F0190020F01500207E
:10034000F01500200FB41CB5084B06AA7B44694683
:100350000090059800F0D1F804460020694600F0AE
:10036000DFF820461CBC5DF814FB0000D101000042
:1003700070477047704710B500F0BAFA006810BDBA
:1003800010B5044600F0B4FA046010BD70B5044620
:1003900085690068C10601D5302600E02026C00727
:1003A00007D070BDD4E9012130469047206A401C37
:1003B00020626D1EF6D570BD70B504468569007863
:1003C000C00707D170BDD4E9012120209047206AE1
:1003D000401C20626D1EF6D570BD09684A0501D526
:1003E00040B27047C905FCD500B2704709684A059C
:1003F00001D5C0B27047C905FCD580B2704770B551
:100400000C460546012A05D02878800600D5EA6901
:10041000002302E0012305E05B1C934202D2E05C72
:100420000028F9D1A869E618C01AA861286A1844FA
:1004300028622846FFF7AAFF04E0D5E9012114F855
:10044000010B9047B442F8D32846FFF7B5FF70BDC3
:100450002DE9F0410646002410687529314616A59D
:1004600010D0FFF7BAFF002802DA404213A507E0D8
:1004700031688A0701D512A502E0490704D511A504
:10048000012401E0FFF7B2FF00210A2206F1240750
:1004900009E0B0FBF2FCB0FBF2F302FB1C003030D1
:1004A00078541846491C0028F3D123462A46304682
:1004B000BDE8F04100F065BA000000002D0000002A
:1004C0002B0000002000000011680268006A53053C
:1004D00001D508700AE0D30501D5088006E01306AF
:1004E00003D5C217C1E9000200E00860012070478F
:1004F00001694A1C02610878704700B58FB0CDE9E8
:1005000001310021059105497944CDE903101146D7
:10051000684600F029F90FB000BD0000E5FFFFFFBD
:100520000A6802F8010B0A60704700002DE9FF5FBE
:1005300015468A460446DFF8AC80F8440027D8E91F
:1005400000103E46CDE9001010E05AF826106A4629
:1005500002A800F09BFA411C07D02178890603D538
:10056000E269391891420DD80744761C207880063C
:1005700002D5E069B84205DDAE42E6DB5AF8260056
:100580000028E2D1A069C01BA0612046FFF7FEFE53
:10059000D8E90010CDE90010002017E05AF8281023
:1005A0006A4602A800F072FAB0F1FF3F81460BD014
:1005B00000250DF1080B05E0D4E901211BF8050029
:1005C00090476D1C4D45F7D308F10100B0428046BD
:1005D000E4DB206A384420622046FFF7EDFEBDE8E8
:1005E000FF9F00000A6600002DE9F0418046D21D01
:1005F00022F007020025D2E90002F52915A614D041
:10060000011E72F1000106DA0023D0EB030063EB58
:10061000020211A608E0D8F800108B0701D50FA63A
:1006200002E0490701D50EA601251146002408F174
:10063000240704E000F060F930323A55641C50EAB7
:100640000102F7D12B46324621464046BDE8F04133
:1006500000F097B9000000002D0000002B00000002
:100660002000000030B4002100F1240408E002F072
:100670000705D208303542EA4372DB086554491C4D
:1006800052EA0305F3D10468002310A2250708D518
:1006900004F020040C4304D0C46901230CA2641E9E
:1006A000C46130BC00F06DB910B504462146106835
:1006B000FFF79CFE02462046BDE810400023D1E72C
:1006C000D21D22F00701D1E90023CBE70000000092
:1006D00030000000F0B40D460188090502D5214C18
:1006E0007C4402E01F4C7C440E34002100F12406BF
:1006F00008E002F00F071209E75D42EA03721B09E6
:100700007754491C52EA0307F3D1027800231207F9
:1007100004D5702D06D009B1022311342246F0BC55
:1007200000F02FB901231034F8E770B504460D46E8
:1007300021461068FFF75AFE024629462046BDE8CA
:1007400070400023C6E7D21D22F00703D3E900233F
:10075000C0E70368126843F0200303600823C36105
:100760000023B7E76C6400002DE9F05F894604467A
:100770004FF0000ADFF874B1FB44C0F820A0204617
:10078000E1688847002874D0252806D0D4E90121E3
:100790009047206A401C2062F1E700265F46204611
:1007A000E16888472028054607DB312D05D27819F6
:1007B00010F8200C08B10643F1E7B00701D526F088
:1007C0000406C4F81CA00027C4F818A02A2D09D0DC
:1007D000284605F0F0FF38B304EB8708303DC8F831
:1007E000185019E059F8041B204604EB8702916168
:1007F000E1688847012F054618D1E069002820DA12
:1008000026F020061DE0D8F8180000EB800005EB6C
:1008100040003038C8F818002046E168884705468F
:1008200005F0C9FF0028EED1012F0AD02E2D08D1E6
:100830002046E16888477F1C0546022F46F02006C7
:10084000C4DBA069002803DA404246F00106A0613B
:10085000F00701D026F010066C2D0BD0682D09D0C2
:100860004C2D39D06A2D35D0742D35D07A2D33D01A
:1008700016E038E0E1682F4620468847B842054632
:1008800009D16C2F26D04FF48060E16806432046E2
:100890008847054604E06C2F1AD04FF48070064359
:1008A0000DB3A5F14100192802D8203546F40066A1
:1008B0004A462946204626604E46FFF7BDFC80B1D9
:1008C00001280BD0F61D26F0070000F1080956E7B5
:1008D0004020E4E78020D8E70020D6E706F10409AD
:1008E0004DE7284652E7206ABDE8F09FFC63000010
:1008F000004870471000002030B5B0F10A0271F1D5
:1009000000034FEA900E4EEA817EB0EB0E0061EBE1
:1009100091014FEA101E4EEA017E10EB0E0041EBF2
:1009200011114FEA102E4EEA016E10EB0E0041EB52
:1009300011214FEA104E4EEA014E10EB0E0041EB32
:100940001141401841F100014FEAD00040EA4170E6
:100950004FEAD1014FEA810444EA907410EB80051C
:1009600044EB01046D1944EB0404521BA3414FF006
:10097000000348BF0A3200D530BD401C41F10001E0
:1009800030BD2DE9F0470D4699469246044600F1E8
:1009900024080168880604D5E06921F0100121606F
:1009A00000E00120A84201DD471B00E00027A1690B
:1009B0007A1902EB0900081AA0612078C00602D457
:1009C0002046FFF7E3FC002608E0D4E901211AF8ED
:1009D00006009047206A401C761C20624E45F4DBDE
:1009E0002078C0060AD52046FFF7D0FC06E0D4E9FF
:1009F000012130209047206A401C2062381EA7F158
:100A00000107F4DC07E0D4E9012118F8050090475C
:100A1000206A401C2062281EA5F10105F3DC204657
:100A2000FFF7CAFC2078000602D50220BDE8F08757
:100A30000120FBE710B5436913B1AFF3008001E07B
:100A4000FFF7DDFC012010BD127800F124010A70CF
:100A500000224A700122EDE711684FF0FF32E9E70A
:100A600010B5436913B1AFF3008001E0FFF75EFDFD
:100A7000012010BD126800F124014262002282624E
:100A80000122EDE711684FF0FF32E9E72DE9F0416F
:100A900016460C46054600F047F8036893F8010136
:100AA000012807D0FF2C12D8185D80B101202C70CE
:100AB000BDE8F081D3F807013246214603F207135F
:100AC000C7182846BC46BDE8F041012360474FF0F7
:100AD000FF30EDE700487047100000207546FFF733
:100AE000F9FFAE4605006946534620F007008546EB
:100AF00018B020B5FFF714FCBDE820404FF0000609
:100B00004FF000074FF000084FF0000BAC46ACE888
:100B1000C009ACE8C009ACE8C009ACE8C00921F0E4
:100B200007018D467047000010B500F00FF8001D5A
:100B300010BD00BF915C000010B50446AFF300800B
:100B40002046BDE81040FFF7D7BB000000487047C3
:100B5000300000200000000030B44FF0013C50F89D
:100B6000042B51F8043BCCFA52F4D51A20D1FCB92D
:100B700050F8042B51F8043BCCFA52F4D51A17D193
:100B8000B4B950F8042B51F8043BCCFA52F4D51AFE
:100B90000ED16CB950F8042B51F8043BCCFA52F446
:100BA000D51A05D1002CDAD030BC4FF000007047C8
:100BB00029BAB1FA81F111F01801D1F12000844075
:100BC000F2D1CA40CB4012F0FF0213F0FF0330BC59
:100BD000D01A704701491820ABBEFEE7260002007C
:100BE00070470000000000002DE9F04F8FB041F287
:100BF000C82143F6080701204EF60C5240F20805C2
:100C000044F6D3594EF21008C2F20001C4F20207B2
:100C1000CEF20002C2F20005C1F26209CEF2000873
:100C200088704FF6FF01D7F8F80340F40070C7F85A
:100C3000F803D7F8F80340F48060C7F8F803D7F852
:100C4000F80340F48070C7F8F8031068084040F2D9
:100C50000031C0F2FA51084310602868A0FB090176
:100C60004FF0FF3000EB91110020B0EB116F0ED16F
:100C70004EF60C52C8F80410F021CEF20002D175E5
:100C80000721C8F80800C8F800101168D075029054
:100C900047F20406F96BC4F2000641F48041F9639F
:100CA000F96B01F48041029102990290B96B41F015
:100CB0008051B963B96B01F08051029102990290A1
:100CC000B96B41F08051B963B96B01F08051029169
:100CD0000299029056F8040C40F4404046F8040C87
:100CE00056F8040C00F4404002900298386800F076
:100CF0000C00042838D157F8080C386800F00C00B4
:100D0000082800F0A38060210020C4F24721086079
:100D100041F28430C2F20000026857F8083C13F038
:100D2000007F66D003689B1A022B00F28F8057F871
:100D3000083C13F0007F5CD003689B1A022B00F282
:100D4000858057F8083C13F0007F52D003689B1A47
:100D5000022B7BD857F8083C13F0007F49D003687A
:100D60009B1A022BD9D971E0386800F00C000828D2
:100D700004D157F8040C10F4800FBCD1386800F08F
:100D80000C000C2804D157F8040C10F4800FB2D1D9
:100D900057F8080C40F4803047F8080C41F28430D2
:100DA000C2F20000016857F8082C12F4003FA4D1E9
:100DB0000268521A642A49D857F8082C12F4003FE6
:100DC0009BD10268521A642A40D857F8082C12F4B2
:100DD000003F92D10268521A642A37D857F8082C7B
:100DE00012F4003F7FF489AF0268521A642ADAD9FC
:100DF0002CE042F60452C2F2402247F8042C0122B1
:100E00000A60016857F8082C12F0007F1ED10268B2
:100E1000521A032A1AD257F8082C12F0007F15D163
:100E20000268521A022A11D857F8082C12F0007FD3
:100E30000CD10268521A022A08D857F8082C12F06E
:100E4000007F03D10268521A022ADBD9002041F246
:100E5000843401210290C2F20004B86B40F080504B
:100E6000B863B86B00F08050029002984020C4F242
:100E70000E2001602268336813F4803F20D123687C
:100E80009B1AB3F57A7F41D8336813F4803F17D1AA
:100E900023689B1AB3F57A7F38D8336813F4803F00
:100EA0000ED123689B1AB3F57A7F2FD8336813F4D9
:100EB000803F05D123689B1AB3F57A7FDBD925E003
:100EC00041602068316811F4003F1FD12168091A80
:100ED000B1F57A7F1AD8316811F4003F16D1216834
:100EE000091AB1F57A7F11D8316811F4003F0DD19C
:100EF0002168091AB1F57A7F08D8316811F4003FEA
:100F000004D12168091AB1F57A7FDBD9D7F8F80343
:100F100000F00F00042809D8052087F8F803D7F857
:100F2000F80300F00F00052840F0D480386840F442
:100F3000E0503860386840F460403860386820F02D
:100F4000F000386057F8080C10F0007F00F0C28005
:100F50003868022161F3010038602068396801F0C7
:100F60000C0108292BD1D7F8F80300F00E00062851
:100F700009D3052087F8F803D7F8F80300F00F002D
:100F8000052840F0A7803868052161F38C200421F2
:100F90003860386861F34F3038603868C0F38101D9
:100FA00042F20040C0F2F400032930D0022941D0BF
:100FB000012904BF41F20020C0F27A0069E041F249
:100FC00088312268121A8A4200F284803A6802F05C
:100FD0000C02082AC7D02268121A8A427AD83A68C4
:100FE00002F00C02082ABED02268121A8A4271D876
:100FF0003A6802F00C02082AB5D02268121A8A4216
:1010000068D83A6802F00C02082ADAD1ABE757F840
:10101000041C57F8043C01F03F0257F8041C13F479
:10102000800FC1F3881118D1A1FB0001002305F046
:101030002EFB19E057F8041C57F8043C01F03F025E
:1010400057F8041C13F4800FC1F3881111D1A1FBD0
:101050000001002305F01BFB12E041F20020C0F26A
:101060007A004843B0FBF2F057F8041CC1F3027158
:101070000DE041F20020C0F27A004843B0FBF2F0EC
:1010800057F8041C0222C1F3014102EB4101B0FBFD
:10109000F1F039680FF66C62C1F30311515CC8407E
:1010A0002860A0FB09014FF0FF3000EB91110020F8
:1010B000B0EB116F0ED14EF60C52C8F80410F021AF
:1010C000CEF20002D1750721C8F80800C8F8001058
:1010D0001168D0754FF0000B40F2180904224FF050
:1010E000010A02AE0225CDF81CB0C4F20209314655
:1010F000B86AA9F1180440F08000B862B86A00F03C
:1011000080000B900B98B86A40F00400B862B86A8F
:1011100000F004000B900B98B86A40F00100B86230
:10112000B86A00F001000B900B98B86A40F002001A
:10113000B862B86A00F002000B900B98B86A40F0F1
:101140000800B862B86A00F008000B900B984FF0E6
:101150008070C9F800004FF48000C9F800044FF413
:101160000040C9F8000040F61840C4F202000260D6
:101170004FF48070CDF80CA002900220CDE904BBA2
:1011800001940690204603F0E7FD4FF400403146FD
:10119000CDE9020A2046CDE9045BCDF818A003F0A2
:1011A000DBFD04203146CDE9020A09F6E830CDE93D
:1011B000045BCDF818A003F0CFFD4020CDF80CA0C3
:1011C000314640240290CDE904BB069509F57A75B5
:1011D000284603F0C1FD4FF480703146CDE9020B83
:1011E0002846CDF818A003F0B7FDCDF808B047F2B7
:1011F000040140F2204303260DF1080AB86AC4F244
:101200000001C4F201030A4640F48000B862B86AE3
:1012100000F48000029002984EF60C50CEF20000CE
:1012200000684EF22540CEF2000080F821B0C8F8E8
:10123000F840CDE906BBCDE904BBCDE902BBF86BB4
:1012400040F00200F863F86B00F002000B900B987E
:1012500049F2FC30095821F45C7141F04001115011
:1012600041F29411D960C3F808B0C3F810B053F834
:101270000C1C41F0010143F80C1C115821F08001B5
:10128000115044F2070153F8180C884343F8180C26
:1012900053F8080C40F0080043F8080C186820F0D8
:1012A00001001860186853F81C1C53F8082C21F42E
:1012B000407120F00F0043F81C1C22F0730141F034
:1012C000600143F8081CC3F814B0186053F8080C08
:1012D00020F0040043F8080C53F8080C40F40060B8
:1012E00043F8080C186820F010001860186853F8CC
:1012F0001C1C53F8082C21F4406120F0F00043F846
:101300001C1C22F4E64141F4C04143F8081CC3F818
:1013100018B0186053F8080C20F4806043F8080CEB
:1013200053F8040C40F0080043F8040C186820F44B
:1013300080701860186853F81C1C53F8042C21F4B2
:10134000405120F4706043F81C1C22F0730141F0FE
:10135000600143F8041CC3F81CB0186053F8040C77
:1013600020F0040043F8040C53F8040C40F400602F
:1013700043F8040C186820F480501860186853F87B
:101380001C1C53F8042C21F4804120F4405043F8F5
:101390001C1C22F4E64141F4C04143F8041C41F214
:1013A000881119621860514653F8040C20F48060CB
:1013B00043F8040C53F81C0C20F0700043F81C0C8C
:1013C00053F8180C20F0800043F8180C4FF48040BC
:1013D0005862B86A40F00100B862B86A00F00100D3
:1013E0000B900B98B86A40F00200B862B86A00F03F
:1013F00002000B900B98B86A40F00400B862B86A1B
:1014000000F004000B900B988020029002200390C3
:10141000CDE9046BCDE90606019803F09DFC4FF47D
:10142000404003A94FF002090290022081E84108E0
:10143000069028465146079603F08EFC4FF4E07064
:101440005146CDE902091820CDE9046BCDE9069695
:10145000C4F2020000F5FD64204603F07DFCF86B49
:1014600003A94FF0050A40F48050F863F86B00F4CC
:10147000805002900298B86A40F00200B862B86AE0
:1014800002AF00F0020002900298082002900220B1
:1014900081E84108069028463946CDF81CA003F0A3
:1014A0005BFC022039460390302002900120CDE9F8
:1014B000046B00900120CDE9060A284603F04CFC9D
:1014C00043F20000C4F20100016843F20400C4F2D8
:1014D000010011F0400F10D143F200014FF6BF722E
:1014E000C4F201010B460968914340F61D321143D5
:1014F0001960016821F004010160816940F29817C8
:101500004FF482724FF400634FF00A0C202601253D
:10151000C2F2000721F400618161016821F010012D
:10152000016046F200604FF40071C4F20000A0F5C3
:10153000285087E80508C7E9033BC7E90551C7E913
:10154000076BC7E909BBC7F82CC07D6D45B14FF0EB
:1015500000094FF0000A4FF0000C4FF0000E39E088
:10156000002043F60801C4F2020138650690CDE977
:101570000400CDE902000B900A46896B41F400415A
:101580009163916B01F400410B910B990B90916A5F
:1015900041F004019162916A01F004010B910B99F1
:1015A000022103914FF4E05102910490032002A91B
:1015B000059006200690204604F06AFF07F1200EF1
:1015C0009EE8004A97E80510D7E9033A7969009147
:1015D000D7E90616022542EA0C0241F284347D6501
:1015E0001A43C2F20004056842EA0A0225F04005E7
:1015F000056040F24C15009BC2F200051A4301F44D
:1016000000731A434FF4E0033243002642EA090212
:101610004FF0010942EA0E020260042202EA11417F
:101620004FF4002241EA0B014160C16921F40061DD
:10163000C16146F200600521BE65C4F20000A0F55C
:10164000007085E8430005F11400C5E9036280E8F5
:101650004802C5E90866C5E90A66C7F8549003F070
:10166000D5FE43F2000040F2382A4FF461210C22EB
:10167000C4F20100C2F2000AA0F500508AE843005B
:10168000CAE90366CAE90526CAF81C60DAF83C1004
:1016900041B143F6080B00214FF0000C0023C4F2C7
:1016A000020BC0E043F6080BCAF838600696CDE995
:1016B0000466CDE902660B96022502A9C4F2020B6C
:1016C000DBF83C0040F01000CBF83C00DBF83C00BD
:1016D00000F010000B900B980B96DBF8280040F000
:1016E0000100CBF82800DBF8280000F001000B9087
:1016F0000B9803954FF4C06002900320CDF8109032
:10170000059007200690019804F0C2FE40F2802068
:1017100046F2B8414FF0006240234FF48067C2F2B6
:101720000000C4F20201466380E8CE004FF40032AC
:10173000C0E90566C661C0E90826226885630B68B2
:1017400023F001030B600B6813F0010F2DD148F259
:101750003F030A68CFF210031A4040F24043C0F63C
:1017600002031A4340F2FF330A604A6922F007027B
:101770004A616FF00F0252FA81F299434AF6AB23A5
:10178000CAF6AA235F2AA2FB032388BF41F0040103
:101790001A090FF280739A5C3F23C0E9171203FA0B
:1017A00002F28A600121002223E0016823689B1A6B
:1017B000052B1CD80B6813F0010FC8D023689B1AA7
:1017C000052B14D80B6813F0010FC0D023689B1AA7
:1017D000052B0CD80B6813F0010FB8D023689B1AA7
:1017E000052B04D80B6813F0010FDFD1AFE70321FD
:1017F00020228265CAF83000C0F83CA081634EF612
:101800000C504EF22541CEF20000CEF200010068ED
:10181000002008702020C8F8F400DAE90661DAF840
:101820000000DAE902C3242749F20C62B1F5004F47
:10183000CAF83C70C76827F40057C760076927F4E7
:10184000405743EA07030361DAE90437C56843EA0E
:101850000C0325EA020243EA070343EA010342EAD2
:101860000302C260426922F4407242EA0602426107
:1018700066D141F2004240F48061C4F2010291421B
:1018800040F0C48040F2080147F2A8394FF0190C2B
:1018900048F21F5EC2F20001C0F60009C5F2EB1E5D
:1018A0000A68DBF80010DAF8046000917600DBF8D3
:1018B0000050DBF80030C3F34237C5F3423519F866
:1018C000077019F8055022FA07F122FA05F501FB15
:1018D0000CF105FB0CF5B1FBF6F1B5FBF6F5A1FB40
:1018E0000E377B09642703FB1713691A1944322347
:1018F00003EBC101A1FB0E134FF4F87101EA1311C0
:10190000009BC3F3423319F8033022FA03F303FBBD
:101910000CF3B3FBF6F3A3FB0E374FF6F073C7F6E9
:10192000FF7303EA570319440091DBF80030C3F357
:101930004233DBF8007019F80330C7F34237C2E0D6
:1019400041F2004240F48061C4F20102914240F051
:10195000CA8040F2080147F2A8394FF0190C48F24A
:101960001F5EC2F20001C0F60009C5F2EB1E0A6854
:10197000DBF80010DAF804600091B600DBF80050E4
:10198000DBF80030C3F34237C5F3423519F807706E
:1019900019F8055022FA07F122FA05F501FB0CF1BE
:1019A00005FB0CF5B1FBF6F1B5FBF6F5A1FB0E3727
:1019B0007B09642703FB1713691A1944322303EBCD
:1019C0000111A1FB0E13F02101EA5311009BC3F397
:1019D000423319F8033022FA03F303FB0CF3B3FB91
:1019E000F6F3A3FB0E374FF6F073C7F6FF7303EA67
:1019F000570319440091DBF80030C3F34233DBF89E
:101A0000007019F80330C7F34237C8E040F208010C
:101A100047F2A8394FF0190C48F21F5EC2F20001DC
:101A2000C0F60009C5F2EB1E0A68DBF80010DAF810
:101A3000046000917600DBF80050DBF80030C3F35F
:101A40008227C5F3822519F8077019F8055022FA84
:101A500007F122FA05F501FB0CF105FB0CF5B1FBD2
:101A6000F6F1B5FBF6F5A1FB0E377B09642703FB06
:101A70001713691A1944322303EBC101A1FB0E139A
:101A80004FF4F87101EA1311009BC3F3822319F894
:101A9000033022FA03F303FB0CF3B3FBF6F3A3FBCF
:101AA0000E374FF6F073C7F6FF7303EA5703194476
:101AB0000091DBF80030C3F38223DBF8007019F8E3
:101AC0000330C7F3822722FA03F303FB0CF3B3FBC3
:101AD000F6F319F80770FA40072702FB0CF2B2FB85
:101AE000F6F203266AE040F2080147F2A8394FF007
:101AF000190C48F21F5EC2F20001C0F60009C5F2DF
:101B0000EB1E0A68DBF80010DAF804600091B600FA
:101B1000DBF80050DBF80030C3F38227C5F38225E1
:101B200019F8077019F8055022FA07F122FA05F59D
:101B300001FB0CF105FB0CF5B1FBF6F1B5FBF6F57D
:101B4000A1FB0E377B09642703FB1713691A19449D
:101B5000322303EB0111A1FB0E13F02101EA531113
:101B6000009BC3F3822319F8033022FA03F303FB2B
:101B70000CF3B3FBF6F3A3FB0E374FF6F073C7F687
:101B8000FF7303EA570319440091DBF80030C3F3F5
:101B90008223DBF8007019F80330C7F3822722FA9A
:101BA00003F303FB0CF3B3FBF6F319F80770FA40E9
:101BB0000F2702FB0CF2B2FBF6F20426A3EB020E97
:101BC00048F21F5540F2010B4FF00009C5F2EB152A
:101BD000C0F6007BA2FB05135909642301FB132106
:101BE0007144B14043F200063231C4F20106A1FB58
:101BF000051207EA5211009A40F27007C2F200077C
:101C000011438160016921F490410161416921F032
:101C10002A014161C16841F40051C1602020CAF825
:101C200044904FF40031CAF83C00CAF84000A6F5D1
:101C30008050CDF83890C7F82090C7E90AB9C7F8A6
:101C400030904FF0010A87E803023846C7E903994C
:101C5000C7E905A9C7F81CA003F0EAF80B250BA9F2
:101C60003846CDE90B5ACDF8349003F00DFA4FF415
:101C70008010CDE9025ACDF818A0CDF8109002A935
:101C80000A904FF4602009903846CDE907A9CDF8B5
:101C9000149003F00DFB40F2B807A6F57060CDF884
:101CA00038904FF40036C2F20007C7F82090C7E919
:101CB0000AB9C7F8309038604FF400307860384681
:101CC000C7E90299C7E9049AC7E9069A03F0B0F890
:101CD0000C250BA93846CDE90B5ACDF8349003F00A
:101CE000D3F94FF48010CDE9025ACDF818A0CDF801
:101CF000109002A90A904FF4602009903846CDE96F
:101D000007A9CDF8149003F0D3FA43F2000040F293
:101D10000017CDF83890C4F20100C2F20007A0F518
:101D20006060C7E90AB9C7F8309087E841023846D1
:101D3000C7E90399C7E905A9C7E907A903F078F836
:101D40000D250BA93846CDE90B5ACDF8349003F098
:101D50009BF94FF48010CDE9025ACDF818A0CDF8C8
:101D6000109002A90A904FF4602009903846CDE9FE
:101D700007A9CDF8149003F09BFA40F2F41B4FF042
:101D800080404FF48041C2F2000BCBE90009CBE95F
:101D90000291CBF81090CBF81890DBF8401081BB83
:101DA00043F60800CBF83C90CDF81890CDE90499A3
:101DB000CDE90299CDF82C90C4F202000146806B67
:101DC00040F001008863886B00F001000B900B98D5
:101DD000CDF82C90886A40F001008862886A02A9D8
:101DE00000F001000B900B9802200390032002905A
:101DF000CDE90499CDF818A0019804F049FBDBF86F
:101E00000000022144F2070247F2040640F2204596
:101E1000CBF84010C4F20006C4F201058168B44654
:101E2000914340F6FF328160C4F2000201689042A3
:101E300013DC40F23826B0F1804FC2F2000621D008
:101E400040F20043C4F2000398421BD040F6000366
:101E5000C4F20003984215D019E040F6004340F266
:101E60003826C4F20003C2F2000698420AD040F2BB
:101E70000043C4F20103984204D00023C4F20103DA
:101E8000984204D1DBF8083021F07001194341F683
:101E9000FF73C4F2000398420DDC90421FDCB0F1E6
:101EA000804F4DD040F20042C4F20002904247D031
:101EB00040F6000221E043F6FF72C4F201029042B4
:101EC0002CDC42F20002C4F20002904238D0002220
:101ED000C4F20102904233D040F200422CE040F6BE
:101EE0000042C4F2000290422AD041F60002C4F23D
:101EF0000002904224D041F60042C4F20002904217
:101F00001ED022E0000000000000000001020304D7
:101F100006070809000610160006101644F2000213
:101F2000C4F2010290420BD044F60002C4F2010256
:101F3000904205D044F20042C4F20102904204D122
:101F4000DBF8102021F440711143DBF8182021F058
:101F50008001B946114340F200420160C4F201021F
:101F6000DBF80C10C162DBF80410816240F4806180
:101F7000914204BFDBF814100163012141618268C2
:101F80008369076A42F00302826040F2011262F341
:101F90000F0327F0AA0283610262CBF84010DBF83E
:101FA0003C20012A0FD00222CBF8402042688368EF
:101FB00022F07002426023F0800282600020CBF8A1
:101FC0003C00CBF84010D8F800000290029840F294
:101FD000F51000BFD8F80010C90300EBE17090B114
:101FE000D8F80010C90300EBE17060B1D8F8001018
:101FF000C90300EBE17030B1D8F80010C90300EB61
:10200000E1700028E6D143F20000C4F2010001466D
:10201000006840F0400008604DF2006046F2006148
:10202000C4F20001CFF6FF700A46095841F04001A2
:10203000115030681826C4F20206C16841F40051FC
:10204000C160286840F48050286049F2FC305CF898
:10205000001041F001014CF800104020C6F80004C7
:10206000206800BF2168091A06290BD22168091AC5
:10207000052907D82168091A052903D82168091AF2
:102080000629EFD34FF48070306020682168091A68
:1020900002290BD22168091A012907D82168091AD7
:1020A000012903D82168091A0229EFD34FF0807063
:1020B00030604FF400403060206800BF2168091A8A
:1020C00003290BD22168091A022907D82168091AA5
:1020D000022903D82168091A0329EFD302F00AFA6A
:1020E0004FF40040306020682168091A03290BD2A0
:1020F0002168091A022907D82168091A022903D878
:102100002168091A0329EFD346F68C374FF00040B7
:10211000C0F600073060384603F0EAFF4FF4004095
:102120003060D8F80000029002980220D8F8001021
:10213000C90300EBE17090B1D8F80010C90300EBBF
:10214000E17060B1D8F80010C90300EBE17030B164
:10215000D8F80010C90300EBE1700028E6D14FF079
:1021600000403060B81C03F0C3FF4FF40040306003
:10217000D8F8000002900298022000BFD8F80010A2
:10218000C90300EBE17090B1D8F80010C90300EB6F
:10219000E17060B1D8F80010C90300EBE17030B114
:1021A000D8F80010C90300EBE1700028E6D14FF029
:1021B00000403060381D03F09BFF4FF4004030605A
:1021C000D8F8000002900298022000BFD8F8001052
:1021D000C90300EBE17090B1D8F80010C90300EB1F
:1021E000E17060B1D8F80010C90300EBE17030B1C4
:1021F000D8F80010C90300EBE1700028E6D14FF0D9
:1022000000403060B81D03F073FF4FF400403060B1
:10221000D8F8000002900298022000BFD8F8001001
:10222000C90300EBE17090B1D8F80010C90300EBCE
:10223000E17060B1D8F80010C90300EBE17030B173
:10224000D8F80010C90300EBE1700028E6D14FF088
:102250000040306007F1080003F04AFF4FF40040EF
:102260003060D8F80000029002980220D8F80010E0
:10227000C90300EBE17090B1D8F80010C90300EB7E
:10228000E17060B1D8F80010C90300EBE17030B123
:10229000D8F80010C90300EBE1700028E6D14FF038
:1022A0000040306007F10A0003F022FF4FF40040C5
:1022B0003060D8F80000029002980220D8F8001090
:1022C000C90300EBE17090B1D8F80010C90300EB2E
:1022D000E17060B1D8F80010C90300EBE17030B1D3
:1022E000D8F80010C90300EBE1700028E6D14FF0E8
:1022F0000040306007F10C0003F0FAFE4FF400409C
:102300003060D8F80000029002980220D8F800103F
:10231000C90300EBE17090B1D8F80010C90300EBDD
:10232000E17060B1D8F80010C90300EBE17030B182
:10233000D8F80010C90300EBE1700028E6D102F0E4
:10234000D9F802F0D7F802F0D5F802F0D3F802F08D
:10235000D1F8D8F80000029002986520D8F8001053
:10236000C90300EBE17090B1D8F80010C90300EB8D
:10237000E17060B1D8F80010C90300EBE17030B132
:10238000D8F80010C90300EBE1700028E6D12868F6
:102390004BF2177141F2C8264CF28F22C3F651015D
:1023A000C2F20006C3F6754240F0010028602868BA
:1023B00040F010002860286840F480702860286889
:1023C00040F004002860286840F040002860286839
:1023D00040F48060286055F8140C40F0010045F886
:1023E000140C41F2883040F24C15C2F20000C2F2E7
:1023F00000050160012044F26B21707041F214303D
:10240000C2F200000184002041F2C431C4F2400055
:10241000C2F20001C6E902000A6041F2C831C2F20C
:102420000001086041F2CC31C2F200010A6041F2C1
:10243000D031C2F20001086041F2E8304FF07E5125
:10244000C2F20000016041F2EC304CF6CD41C2F224
:102450000000C3F6CC51016041F2D83047F6DD618F
:10246000C2F20000C4F23C41016041F2DC3045F2AE
:10247000D231C2F20000C4F27B21016041F2E030AF
:10248000C2F200000160286B0138012836D846F2FC
:102490000060C4F200000246006840F001001060D5
:1024A000106820F47C501060106840F46060106088
:1024B00046F21C60C4F20000016821F001010160D5
:1024C00050F8101C41F0010140F8101C002141623D
:1024D000816250F8181C21F0010140F8181C50F8D6
:1024E000081C21F0010140F8081C016841F00101BD
:1024F0000160106820F00100106003E0686B40F498
:1025000080206863286B01280ED102202863296887
:10251000086820F0010008602068496811F0010F88
:1025200040F0A180002002E0686B40F40020686366
:1025300029682A6B05F134004FF48027013A022AFA
:10254000024638BF01F114024FF48021136838BFEE
:1025500002273B434FF4802713602A682B6B013B13
:10256000022B034638BF02F114031A6838BF4FF438
:1025700000673A434FF480271A602A682B6B013BAF
:10258000022B034638BF02F114031A6838BF4FF418
:1025900080673A431A602A682B6B013B022B38BFD5
:1025A00002F11400026838BF4FF40041114301608A
:1025B000B078012822D040F2700440F2B805032818
:1025C0004E46C2F20004C2F2000503D0022849D1EF
:1025D00002F088F92068816841F001018160286873
:1025E000816841F0010181603068816841F001013A
:1025F0008160284602F0EAFD30461CE040F270049B
:1026000040F2B8054E46C2F20004C2F2000520684E
:10261000816841F0010181602868816841F0010111
:102620008160D9F80000816841F00101816028468D
:1026300002F0CCFD484602F0C9FD204602F0C6FD7E
:10264000A06B0068016821F018010160A86B0068A8
:10265000016821F018010160B06B0068016821F089
:1026600018010160FEE729682268121A0B2A1FD29E
:102670004A6812F0010F3FF455AF2268121A0A2A75
:1026800016D84A6812F0010F3FF44CAF2268121AB4
:102690000A2A0DD84A6812F0010F3FF443AF2268AE
:1026A000121A0A2A04D84A6812F0010FDCD139E75D
:1026B000686B40F4003068630520286338E700BF8A
:1026C00010B582B040F2481445F64F01C2F2000442
:1026D000C4F200012068884218DC45F24911C4F2B6
:1026E0000001884244D045F25511C4F200018842ED
:1026F0007ED140F28C1041F29C2245F25511C2F27B
:102700000000C2F20002016092694AE045F6500101
:10271000C4F20001884238D045F65601C4F20001E7
:10272000884265D141F214309FED320A45F65601D8
:102730000122C2F2000090ED031A40F28C10C2F2A6
:10274000000021EE000A0160BDEEC01A80ED011A02
:1027500041F29C30BDEEC00A0091C2F200008DED46
:10276000010A027041F2A030C2F20000027026E0BD
:1027700040F28C1041F29C2245F24911C2F2000055
:10278000C2F200020160926A0BE040F28C1041F24A
:10279000903245F65001C2F20000C2F20002016020
:1027A0001268426041F29C30012301920091C2F212
:1027B0000000037041F2A030C2F2000003706846CE
:1027C00002F03CFF40F24C10C2F2000000F1340174
:1027D0000268006B0138022838BF02F114014FF47F
:1027E0008022086838BF0122104308600020206062
:1027F00002B010BD83F9A24543F20801C4F2010101
:102800008880086810F0020F1BD196204FF6FF7CDD
:102810000B6813F0020F18D1831E13EA0C0F12D0AD
:102820000A6812F0020F12D10A6812F0020F10D1DA
:10283000043810EA0C0F06D00A6812F0020FE7D035
:1028400008E0962006E0002004E0013802E0184687
:1028500000E003380A6812F0800F1CD04FF6FF7CAE
:1028600083B2012B17D00A6812F0800F18BF022B19
:1028700011D00A6812F0800F18BF032B0BD00A6822
:1028800012F0800F07D0043810EA0C0F03D00A684A
:1028900012F0800FE4D181B0486800900098086879
:1028A0000090009801B0704780B581B043F2080CE9
:1028B0004FF6FF7EC4F2010CACF804E0DCF8001027
:1028C00011F0010F1DD19621DCF8002012F0010F4C
:1028D0001BD18A1E12EA0E0F15D0DCF8003013F05F
:1028E000010F14D1DCF8002012F0010F11D10439CE
:1028F00011EA0E0F07D0DCF8002012F0010FE3D030
:1029000008E0962106E0002104E0013902E01146CA
:1029100000E00339DCF804200280DCF8000010F04D
:10292000020F25D14FF6FF704A1E02421DD0DCF87F
:10293000003013F0020F1AD18A1E024215D0DCF8C3
:10294000003013F0020F12D1CA1E02420DD0DCF883
:10295000003013F0020F0AD10439014205D0DCF82F
:10296000002012F0020FDFD002E0002100E011464B
:10297000DCF8000010F0800F1FD04FF6FF708BB214
:10298000012B1AD0DCF8002012F0800F18BF022BA8
:1029900013D0DCF8002012F0800F18BF032B0CD0EE
:1029A000DCF8002012F0800F07D00439014204D077
:1029B000DCF8002012F0800FE1D1DCF80400009078
:1029C0000098DCF800000090009801B080BD00BFC6
:1029D00070B540F2040640F20004C2F20006C2F2F2
:1029E0000004306821680D1A40F2A3718D4238BF8F
:1029F00070BDA9B203F084FC40F2E423326840F6D3
:102A0000B421C2F20003C2F200019A4218BF194673
:102A10000028316021601FD044F64450C5F6417053
:102A2000086047F24250C6F26660486047F265208F
:102A3000C4F65F70886046F27650C6F27260C86075
:102A400046F66C70C0F67750086101F11500206001
:102A50000A200875FFF7BCFFB5F5FA6F12D945F2E9
:102A60004F612068C5F24521016044F646418180EE
:102A70004F21817100F1080121605721C171BDE82A
:102A80007040A5E770BD00BF704700BFFEE700BF04
:102A9000FEE700BFFEE700BFFEE700BF704700BFD4
:102AA000704700BF704700BF41F28430C2F200009F
:102AB000016801310160704702F004BE02F002BEFD
:102AC00080B540F2382CC2F2000CDCF800E0DEF8F1
:102AD0000020DEF80C30DEF8140012F00F0F4FD09B
:102AE00003F4907100F00100014364D0D1071FBFCF
:102AF00013F48071DCF8441041F00101CCF844106B
:102B0000510707D500281EBFDCF8441041F0020130
:102B1000CCF84410910707D500281EBFDCF84410FC
:102B200041F00401CCF84410110707D500281EBF5E
:102B3000DCF8440040F00800CCF84400DCF8440025
:102B4000002800F01E8103EA0200800640F1E280C6
:102B5000DCF84000222840F0DD80DCF80800B0F509
:102B6000805F40F08080DCF81020DCF82800DEF880
:102B70000410002A00F0A880C9B220F8011BA7E0C9
:102B800003EA020010F0200F17D0DCF840002228E2
:102B900040F0F780DCF80800B0F5805F53D1DCF836
:102BA0001020DCF82800DEF80410002A6BD0C9B22F
:102BB00020F8011B6BE003EA020001060CD440067A
:102BC00058BF80BDDEF80C0020F04000CEF80C00AD
:102BD0002020CCF83C00D4E0DCF83C00212840F078
:102BE000D080DCF80810DCF82000B1F5805F0DD152
:102BF00001886FF35F21CEF80410DCF81010002973
:102C000014BF01300230CCF8200005E0411CCCF8A4
:102C100020100078CEF80400BCF826004FF6FF71B3
:102C200001380842ACF8260040F0AB80DEF80C001A
:102C300020F08000CEF80C00DEF80C0040F04000E0
:102C4000CEF80C0080BDDCF81020DEF80400DCF8C3
:102C50002810002A01F10102CCF8282018BF00F04A
:102C60007F00087015E0DCF81010DEF80400002981
:102C7000DCF8281001F10102CCF8282018BF00F080
:102C80007F00087026E06FF35F2120F8021BCCF86C
:102C90002800BCF82E004FF6FF7101380842ACF84E
:102CA0002E006ED1DCF80000C16821F02001C16067
:102CB000C16821F48071C160416921F00101416165
:102CC0002020CCF8400080BD6FF35F2120F8021B6C
:102CD000CCF82800BCF82E004FF6FF710138ACF894
:102CE0002E000842DCF800E014D1DEF80C0020F0E1
:102CF0002000CEF80C00DEF80C0020F48070CEF836
:102D00000C00DEF8140020F00100CEF814002020A2
:102D1000CCF84000DEF81400DCF8441000F040006D
:102D200001F0080108432DD0DEF80C0020F490706B
:102D3000CEF80C00DEF8140020F00100CEF81400EC
:102D40002020CCF84000DEF8140010F0400F18D01E
:102D5000DEF8140020F04000CEF81400DCF8340057
:102D600078B146F28541C0F600014165816B0229C8
:102D70000CD1052181630068016821F00101016027
:102D800080BD80BD0020CCF8440080BD80218165DD
:102D9000BDE8804003F076BBF0B581B0002040F282
:102DA000802448F2B5130821009040F20800C2F2D6
:102DB0000004C1F64E33C2F200000268D4E9176085
:102DC00037688140A2FB032539420DD02268136881
:102DD00013F0040F08D0136823F004031360B160EC
:102DE000A16D41F00101A16501218140394209D065
:102DF0002268526912F0800F04D0B160A16D41F0D9
:102E00000201A16504218140394209D0226812687B
:102E100012F0020F04D0B160A16D41F00401A16570
:102E20001021814039421AD02068026812F0080F40
:102E300015D0B1600268016812F4802F06D1C9056F
:102E40005EBF016821F00801016001E0080343D47E
:102E5000616C21B140F28020C2F200008847216EEF
:102E6000202000FA01F23A4246D02068036813F0AD
:102E7000100F41D0B260A36B0268052B1ED122F067
:102E800016020260426922F080024261626CE36CC9
:102E90001A431EBF026822F0080202603F208840E9
:102EA000B0600120A06300206063616D002962D0E2
:102EB00040F28020C2F2000088475CE001685203C3
:102EC0000ED4C90511D4016821F010010160012060
:102ED000A0630020606308E0E16C0029BAD1BEE77E
:102EE000080302D4A16C11B906E0216C21B140F2B3
:102EF0008020C2F200008847A06DE0B3A06D10F002
:102F0000010F2FD00521A80AA16321680A6822F0C9
:102F100001020A60009A0132824200921ED80A68B9
:102F200012F0010F1AD0009A01328242009215D895
:102F30000A6812F0010F11D0009A01328242009209
:102F40000CD80A6812F0010F08D0009A01328242B0
:102F5000009203D80A6812F0010FDBD10120A063B0
:102F600000206063216D31B140F28020C2F2000088
:102F7000884701B0F0BD01B0F0BD00BF00BF00BF89
:102F80002DE9F04F81B02DED0A8B40F2001940F28F
:102F9000B80A40F270059FEDC89A41F29C24C2F233
:102FA0000009C2F2000AC2F20005C2F20004D9F818
:102FB0000000B0EE49AAB0EE498A90ED0F0AB8EED3
:102FC000400ADAF8000090ED0F1AB8EE41BA28680E
:102FD0009FEDBA1AC06B0BEE41AA00EE418A02EED9
:102FE000100AB8EE42CA84ED008A84ED01AA0CEE04
:102FF000419A84ED029A01F039FB41F2C827C2F2EE
:103000000007B87803286AD0012840F08A847878CD
:103010000138032800F28584DFE810F00400DD00A9
:10302000FE00720101F0C6F800F0FCFD9FEDA40A5D
:1030300094ED0A1A21EE000A87ED040A41F2842772
:10304000C2F200073868411C002839601CD110EE1C
:10305000100A03F0FBFC9FED9C0B53EC102B03F0CC
:10306000F7FB00223A6003F0C3FB40F2000647F290
:10307000B0310246C2F20006C0F600013068FDF72A
:1030800061F9316808443060FFF7A2FC41F28827FB
:10309000C2F200073868411C002839601BD1A06AC1
:1030A00003F0D4FC9FED880B53EC102B03F0D0FB06
:1030B00000223A6003F09CFB40F2000447F2E63144
:1030C0000246C2F20004C0F600012068FDF73AF99A
:1030D000216808442060FFF77BFC00F022BC41F22D
:1030E0000037C2F200073868042800F21A84DFE8CB
:1030F00010F005006801070215025C0240F20004AE
:103100004FF00A08C2F200042068411C216046F218
:103110005011C6F27211016046F26D51C6F274513F
:10312000416047F27231C4F62051816046F2651168
:10313000C7F27351C16046F67211018246F26E7198
:10314000C2F62E61C0F8121040F62E51C18280F8EE
:10315000188019302060FFF73BFC40F2040621681C
:10316000C2F200063068091A89B203F0C9F840F2C9
:10317000E423326840F6B421C2F20003C2F2000137
:103180009A4218BF19460028316021601FD044F6CA
:103190004450C5F64170086047F24250C6F266607E
:1031A000486047F26520C4F65F70886046F276504A
:1031B000C6F27260C86046F66C70C0F6775008615F
:1031C00001F1150081F814802060FFF701FC3868D8
:1031D00001303860A5E341F2983241F2D830002145
:1031E000C2F20002C2F2000092ED000A0160B5EEE8
:1031F000C00AF1EE10FA08DD9FED351AB4EEC10AEF
:10320000F1EE10FA03DCB1EE400A80ED000A00F0A6
:10321000D1FF00F007FD84E300F0CCFF00F0FEFEDC
:1032200041F28C20C2F2000001684A1C00290260B1
:1032300019D141F2D83240F200040021C2F200025A
:10324000C2F20004016047F2B03192ED000A20683A
:10325000C0F60001BDEEC00A10EE102AFDF772F8AC
:10326000216808442060FFF7B3FB41F29020C2F2CE
:10327000000001684A1C0029026019D141F2143291
:1032800040F200040021C2F20002C2F20004016018
:1032900047F2E63192ED030A2068C0F60001BDEE68
:1032A000C00A10EE102AFDF74DF82168084420608E
:1032B000FFF78EFB35E300BF0000A5430000253E6D
:1032C0002E27863C00BF00BF0000000000408F405A
:1032D000000000800400A53D040025C30100A53DB9
:1032E000010025C3E9E40EBEABAA2A3FE8E40E3E86
:1032F0000000003800BF00BF0000000080842E41A5
:1033000041F2983241F2D8300021C2F20002C2F2FA
:10331000000092ED000A0160B5EEC00AF1EE10FA6D
:1033200008DD1FED151AB4EEC10AF1EE10FA03DC48
:10333000B1EE400A80ED000A00F03CFF00F06EFEA6
:1033400041F29420C2F2000001684A1C0029026088
:1033500014D1002140F20004016041F28C31C2F22C
:103360000004C2F2000120680A6847F2B031C0F6DA
:103370000001FCF7E7FF216808442060FFF728FB05
:1033800041F29820C2F2000001684A1C0029026044
:1033900014D1002140F20004016041F29031C2F2E8
:1033A0000004C2F2000120680A6847F2E631C0F664
:1033B0000001FCF7C7FF216808442060FFF708FB05
:1033C000AFE241F2143C0021C2F2000CCCF8101024
:1033D00041F2E021C2F200010A78002A00F0568191
:1033E0001FED440A1FED441A1FED442A1FED443A15
:1033F0001FED444A41F2C83141F2883641F2CC30E7
:1034000041F2BC321FED489A41F2C43341F2C03E52
:1034100041F2AC38C2F20006C2F20000C2F2000172
:10342000C2F20002C2F20003C2F2000EC2F20008B1
:103430000BEE001A1FED530A0CEE023A90ED006AF3
:103440002CEE044AD6ED001A41F2B430D3ED002A36
:1034500041F2B03631EE081AC2F20000C2F20006A4
:1034600031EE032A1FED5E3A0BEE004A91ED000AA1
:1034700041F2D03122EE091AC2F2000134EE035AB1
:10348000B2EE0E3A92ED004AD1ED004A33EE417AA7
:1034900065EE093A9EED003A24EE000A67EE060A50
:1034A00025EE496A01EEE34AB1EE045AC4ED093A49
:1034B00084ED0A1A80ED006A41F2B830B4EEC54AD4
:1034C00043EE240A02EEE30A07EE213A82ED004AB7
:1034D000C2F20000F1EE10FA88ED000A8EED003A1B
:1034E000C6ED000A80ED007A80F2E280B9EE045A5F
:1034F000B4EEC54AF1EE10FAD8BF82ED005AD9E019
:1035000041F20830C2F2000001684A1C026041F238
:1035100088308142A4BF0320386002E241F2F024E7
:10352000C2F200042068013032282060C0F0F98126
:103530004FF6F83040F2344140F64D42CFF6FF707E
:10354000C4F201010A504FF60C4040F64C42CFF64F
:10355000FF700A5041F2F422C2F20002138800EE1A
:10356000103AC72BB8EE400A00F2B58041F2F620BF
:10357000C2F200000778092F00F2D381DFE817F0CC
:103580000A00E701F4010B020E021B0232023502AF
:103590004202590240F238420023C4F20102536051
:1035A00013600B6001210170BBE141F2103BC2F2DC
:1035B000000BDBF80000411C0028CBF8001037D1CD
:1035C00041F20430C2F20000006803F03FFA1FED40
:1035D000B60B56EC104B2246334603F039F907463A
:1035E00041F20C308846C2F20000006803F02EFA67
:1035F00000223346CBF80020224603F029F9044686
:103600000E463846414603F0F3F8804620463146E0
:1036100003F0EEF840F2000403460FF22041424668
:10362000C2F200042068FCF78DFE21680844206087
:10363000FFF7CEF940F2000847F2C93341F2003BF0
:103640000D220A27C2F20008C0F60003C2F2000BE6
:10365000D8F80010481CC8F800000A70002200BF0B
:103660008C1867709F18BE7876B1A670FE78EEB1A0
:10367000E6703E79002E00F00D817F79043204302F
:103680002671002FECD18818013004E141F2E220CC
:10369000C2F2000002880132028092B20A2AC0F00F
:1036A000408100220280012008703AE10230F2E0FD
:1036B00082ED005AB1EE044AB4EEC43AF1EE10FACB
:1036C00040DAB9EE044AB4EEC43AF1EE10FAD8BFCB
:1036D0008EED004A38E040F238400022C4F201008A
:1036E0004260026041F2FC200A60C2F200000178F0
:1036F000022900F02581012900F02681002940F0EF
:10370000108141F2883241F2F8219FEDDA1AC2F2BB
:103710000002C2F2000192ED002A20EE010A91EDB2
:10372000003A01219FEDD41A017041F20C3020EED5
:10373000020AC2F2000080EE030A20EE010A80EDC8
:10374000000AEEE08EED004A9FEDCC3A9FEDCC4AA8
:103750009CED065A9FEDCB6A42EE030A25EE042A41
:1037600045EE060A02EE010AB7EE001AC6ED000A9F
:10377000B4EEC10A88ED000AF1EE10FA06DABFEEE7
:10378000001AB4EEC10AF1EE10FA03DCB0EE410A01
:1037900088ED001A84ED030AC4ED040A00F074F900
:1037A00041F2E220C2F2000001880131018088B2BA
:1037B00042F210718842C0F0B48094ED090A94ED91
:1037C0000A1A20EE008A01EE018AB0EE480A02F0E1
:1037D000D5FFB4EEC00AF1EE10FA03D7B0EE480AF6
:1037E00002F0CCFF41F2E42498ED002A96ED003A75
:1037F000C2F2000494ED001A22EE028A03EE038A5C
:1038000031EE000A84ED000AB0EE480A02F0B6FF7D
:10381000B4EEC00AF1EE10FA03D7B0EE480A02F097
:10382000ADFF41F2E820C2F2000090ED001A31EE47
:10383000000A80ED000A41F2EC20C2F2000001888B
:103840000131018088B264286BD341F2EE20C2F2CC
:1038500000000178002964D1012194ED001A017063
:103860003868002180EE010A013020EE090A386034
:1038700041F20430C2F2000080ED000A40F238400C
:10388000C4F201004160016040F23440C4F2010022
:10389000016046E00330C8F80000FFF799F840F2F5
:1038A0000404D8F80010C2F200042068091A89B292
:1038B00002F026FD40F2E423226840F6B421C2F271
:1038C0000003C2F200019A4218BF19460028216085
:1038D000C8F8001020D044F64450C5F64170086086
:1038E00047F24250C6F26660486047F26520C4F66F
:1038F0005F70886046F27650C6F27260C86046F625
:103900006C70C0F67750086101F11500C8F800002E
:103910000A200875FFF75CF8DBF800000130CBF8EF
:10392000000028686FF004010160DAF8000001600F
:10393000D9F800000160BDEC0A8B01B0BDE8F08F42
:10394000386801303860ECE702210170E9E740F2A5
:1039500038420023C4F20102536040F64D43136025
:103960000B6002210170DCE741F2F8270026C2F269
:10397000000797ED000A30EE080A87ED000A40F2D2
:103980003847C4F201077E603E600E60032101707B
:10399000581C1080C5E704210170C2E740F238428C
:1039A00040F64D430027C4F20102536017600B60DC
:1039B00005210170B5E741F2F8270026C2F20007A1
:1039C00097ED000A30EE0A0A87ED000A40F2384708
:1039D000C4F201077E603E600E6006210170581C33
:1039E00010809EE7072101709BE740F238420023D8
:1039F000C4F201025360136040F64D420A60082190
:103A000001708EE741F2F8270026C2F2000797ED19
:103A1000000A30EE490A87ED000A40F23847C4F246
:103A200001077E603E600E6009210170581C108005
:103A300077E700212160017073E700BF0D0A70680D
:103A4000617365207265736964656E63653A2025EC
:103A50006420754F686D2009207068617365206966
:103A60006E64756374616E63653A202564207548E1
:103A7000200D0A0066668641ABAA2A3F0E745A3CA6
:103A8000ACC527B7776CCC3A9FED5E3AB0EE602AB2
:103A90009FED5D4AB6EE001AF5EEC00A0020F1EE89
:103AA00010FA10EE032AB0EE603AC8BF012010EE03
:103AB000043A22EE015A23EE010AB5EEC05AF1EEA5
:103AC00010FAB5EEC00AC8BF40F00200F1EE10FADD
:103AD000C8BF40F00400411E05290BD8DFE801F003
:103AE000030F18212A339FED4B4A23EE040A22EEDE
:103AF000042A2EE09FED452AB0EE420A29E09FED10
:103B0000440A9FED442A20EE800A23EE022A20E098
:103B10009FED420A9FED403A20EE800A22EE032AF2
:103B200017E09FED3C0A9FED3A3A22EE000A20EEA4
:103B3000832A0EE09FED380A9FED382A23EE000A13
:103B400020EE822A05E09FED344A22EE040A23EE9D
:103B5000042A9FED333A30EE024AB4EEC34AF1EE46
:103B600010FA07DD80EE040A82EE042A20EE030A32
:103B700022EE032A10B533EE423A00F0070033EE8E
:103B8000403A411E23EE011A0529BCEEC11A11EE7E
:103B900010CAB8EE411A32EE011ABCEEC11A11EE8B
:103BA00010EAB8EE411A30EE010ABCEEC00A0BD89A
:103BB00010EE100A73466246DFE801F0030D1C1197
:103BC00015197246634615E041F2941241F29413BE
:103BD00041F294100EE00346624670460AE0024647
:103BE0007346604606E002466346704602E00346BE
:103BF0007246604640F23441C4F201018A604B6073
:103C0000086010BDD7B3DD3FD7B3DDBF00000000B3
:103C10003861A2C3386122C3386122433861A243AC
:103C200000A08C45B0B52DED088B41F29C2E41F2E1
:103C3000D8309FEDF10A9FEDF12AC2F2000EC2F2D8
:103C400000009EED007A9EED011A67EE000A90EDED
:103C5000000A8EED077A41EE020AB5EEC00ACEEDFB
:103C6000080AF1EE10FA06DA0EDA41F2C820C2F2C2
:103C70000000C16804E041F2C820C2F2000081687F
:103C800000EE101A416005E041F2C820C2F20000C7
:103C900090ED010A41F2143141F288309FEDD85A7B
:103CA0009FEDD86A46F6A43CB8EE003A41F2A8353A
:103CB00041F2C434C2F20001C2F20000C0F6000CAE
:103CC000C2F20005C2F2000491ED072A91ED041A38
:103CD00090ED004A22EE000A9FEDCC2A00EE041A75
:103CE00021EE050ABDEEC01AB5EEC00A11EE100AAB
:103CF000F1EE10FAB8BF013801EE100AB8EEC11AA1
:103D000030EE410AB0EE081A60EE061ABDEEE10A86
:103D100010EE100A9FEDBC0A00F180026FF35F20E5
:103D20006FF35F220CEB800306EE900A41F2C8307D
:103D30000CEB8202D3ED002AD3ED013AF8EE666A6D
:103D4000C2F2000041F2C033D2ED004AD2ED015A76
:103D500071EEE61A41F2D032C2F20003F1EE627A5D
:103D600033EEE2BAC2F2000234EEA49A35EEE48AEF
:103D700077EEE37A52EE833A38EE08AA28EE018A0B
:103D800035EE899A69EE026A17EE80AA03EE828AFE
:103D90004BEE016A0AEE218A75EEA43A7BEE0B5ACD
:103DA00064EE807A53EE805A68EE213A45EEA16ABD
:103DB000D0ED005A41F2BC3094ED008A41F2B034AB
:103DC00042EEC03A46EEA17AD5ED006A41F2CC351A
:103DD000C2F20000C2F2000447EEA12A43EEA14A5B
:103DE000C2F20005D0ED003A64EEA01A62EEA07AAD
:103DF000D5ED000A42EEC71A44EE877AD2ED004AAA
:103E000041F2B43223EEA57AD3ED002A76EEE16AD0
:103E1000F1EE675AC2F2000244EE673A08EE677AA2
:103E2000CEED097ACEED0A1A60EEA60AC2ED005A6E
:103E300041F2B832C0ED003A42EEA40AF1EE044A73
:103E4000C2F2000244EE262AC2ED006A41F2AC3210
:103E5000F4EEE43AC3ED002AC4ED000AC2F2000217
:103E6000F1EE10FA82ED007A09DAF9EE044AF4EE86
:103E7000E43AF1EE10FAD8BFC0ED004A01E0C0ED1F
:103E8000004AF1EE043AF4EEE32AF1EE10FA09DA10
:103E9000F9EE043AF4EEE32AF1EE10FAD8BFC3EDDE
:103EA000003A01E0C3ED003ADFED592AD1ED063AC0
:103EB000DFED584ADFED585A63EEA22A63EEA43ACA
:103EC00041EEA52A03EEA17A82ED007A72EEA01AE5
:103ED000F7EE000AB4EEE07AC4ED001AF1EE10FA43
:103EE00006DAFFEE000AB4EEE07AF1EE10FA03DC37
:103EF000B0EE607AC2ED000A41F2C820D1ED073A77
:103F0000D1ED042AC2F20000D0ED010A63EEA00A4E
:103F100040EE842A22EE854ABDEEC45AB5EEC04A70
:103F200015EE100AF1EE10FAB8BF013805EE100ACE
:103F3000B8EEC55A34EE454A24EE064ABDEEC45AE0
:103F400015EE100A00F180016FF35F206FF35F211F
:103F50000CEB800203EE900A0CEB810192ED005A0B
:103F600092ED016AF8EE633AD1ED002AD1ED010A33
:103F700034EE634AF1EE454A36EE458A70EEE25A77
:103F800072EEA26A74EEC64A15EE036A75EEA57A61
:103F900065EE815A30EEA63A46EE025A54EE807A29
:103FA00023EE022A30EEA26A78EE080A47EE845A1F
:103FB00008EE012A56EE000A25EE841A22EE803A17
:103FC00000EE842A05EE401A02EE043A41EE042A7D
:103FD00003EE045A22EE870A65EE070A05EE610A2F
:103FE00042EEA10A8EED030ACEED040ABDEC088B69
:103FF000BDE8B04048E500BF3ACD133F3ACD933F0E
:10400000610B363B00000044DB0F493CDB0F49BC31
:10401000776CCC3AACC527B70AD7A33C41F2D43170
:1040200041F21430C2F20001C2F2000091ED001A18
:10403000B4EEC11AF1EE10FA07D69FED590A90EDD1
:10404000061A21EE001A81ED001A41F2D831C2F2AF
:10405000000191ED000AB5EEC00AF1EE10FA0BDA9C
:1040600041F2C821C2F20001AFBF91ED010ACA6856
:1040700000EE102A4A6007E041F2C821C2F20001B6
:104080008A6800EE102A4A6041F2883190ED073AC2
:1040900090ED042A9FED435A46F6A432F8EE002A2A
:1040A000F0EE083ADFED414ADFED416AC2F200016D
:1040B000C0F6000291ED004A23EE000A00EE042A49
:1040C00022EE050ABDEEC02AB5EEC00A12EE100AB5
:1040D000F1EE10FA9FED342AB8BF013803EE100A52
:1040E000B8EEC33A30EE430A20EE020ABDEEC02A13
:1040F00012EE100A00F180016FF35F206FF35F2171
:1041000007EE100A02EB8101B8EE477A91ED002A22
:1041100091ED013A02EB800130EE470A41F29C201A
:1041200091ED004A91ED015AC2F2000032EE026AAE
:1041300073EE421AF1EE440A33EE066A71EEA17A8A
:1041400075EE445A61EEA31A33EE023A70EEC50AD8
:1041500014EE225A50EEA67A45EE241A75EEA52AE0
:1041600026EE246A47EE801A53EE262A05EEA36A4D
:1041700021EE805A22EE263A02EE806A04EE665A5A
:1041800006EE003A05EE002A03EE004A24EE410A4C
:1041900062EE010A80ED030AC0ED040A74E400BF78
:1041A000776CCC3A610B363B00000044DB0F49BC16
:1041B000DB0F493C41F2C820C2F200004078C11E2A
:1041C000022939D30138012800F2898141F2E03116
:1041D00041F2883241F2DC20C2F20001C2F2000258
:1041E000C2F2000091ED003A41F2D83192ED000A9E
:1041F00041F2DC3290ED002AC2F20001C2F200026C
:1042000091ED001A92ED004A23EE003AB5EEC01A85
:1042100020EE044AF1EE10FA45DDB5EEC02AF1EECB
:1042200010FA40DB32EE445AB4EEC15AF1EE10FA05
:1042300060DA32EE041A66E041F2E03141F288328F
:1042400041F2DC20C2F20001C2F20002C2F2000020
:1042500091ED003A41F2D83192ED000A41F2DC32A0
:1042600090ED002AC2F20001C2F2000291ED001AA4
:1042700092ED004A23EE003AB5EEC01A20EE044A51
:10428000F1EE10FA1CDDB5EEC02AF1EE10FA17DBE4
:1042900032EE445AB4EEC15AF1EE10FA80F2828046
:1042A00032EE041AE1E0B5EEC01AF1EE10FA14DDB8
:1042B000B5EEC02AF1EE10FA0FDA32EE031A22E060
:1042C000B5EEC01AF1EE10FA76DDB5EEC02AF1EEC9
:1042D00010FA71DA32EE031AC7E0B5EEC01AF1EE49
:1042E00010FA76DAB5EEC02AF1EE10FA71DB32EE92
:1042F000431A08E032EE034AB4EEC14AF1EE10FA76
:10430000C8BF32EE431A80ED001A41F2E83041F2A4
:104310001431C2F20000C2F2000191ED032A41F211
:10432000E43190ED004A41F2EC30C2F20000C2F2FA
:10433000000131EE425A90ED006A91ED003A9FED96
:104340006B2A41F2A83024EE051AC2F2000003EEF7
:10435000061A05EE003A81ED003AB4EEC23A80ED5D
:10436000001AF1EE10FA09DA9FED612AB4EEC23AB2
:10437000F1EE10FAD8BF81ED002A01E081ED002AAC
:10438000B3EE090AB4EEC01AF1EE10FA07DABBEE8A
:10439000090AB4EEC01AF1EE10FAC8BF704780EDFA
:1043A000000A704732EE034AB4EEC14AF1EE10FA49
:1043B000C8BF32EE431A58E0B5EEC01AF1EE10FA5B
:1043C00023DAB5EEC02AF1EE10FA1EDB32EE431A04
:1043D0004BE0B5EEC01AF1EE10FA32DAB5EEC02AB3
:1043E000F1EE10FA2DDA32EE435AB4EEC15AF1EE84
:1043F00010FAFFF662AF32EE043AB4EEC13AF1EED3
:1044000010FAC8BF32EE441A7DE7B5EEC01AF1EEDD
:1044100010FA21DAB5EEC02AF1EE10FA1CDA32EE0B
:10442000435AB4EEC15AF1EE10FAFFF653AF32EE32
:10443000043AB4EEC13AF1EE10FAC8BF32EE441AB3
:1044400013E0B5EE401AB0EE421AF1EE10FA7FF426
:104450005CAF9FED251A56E7B5EE401AB0EE421A52
:10446000F1EE10FA03D19FED201A80ED001A41F20F
:10447000E83041F21431C2F20000C2F2000191EDC5
:10448000033A41F2EC3190ED004A41F2E430C2F2DD
:104490000001C2F2000031EE433A91ED005A90ED76
:1044A000002A9FED121A41F2D43124EE034AC2F2DF
:1044B000000102EE054A03EE002A80ED002AB4EE68
:1044C000C12A81ED004AF1EE10FA09DA9FED081ACF
:1044D000B4EEC12AF1EE10FAD8BF80ED001A704791
:1044E00080ED001A704700BF00000000D253FB416E
:1044F000D253FBC170B582B0182646F69A344FF0FD
:104500000040C4F20206C0F600043060204601F00C
:10451000EFFD4EF210054FF400403060CEF2000582
:1045200028680190019802202968C90300EBE17016
:1045300078B12968C90300EBE17050B12968C9035B
:1045400000EBE17028B12968C90300EBE170002895
:10455000EAD14FF000403060A01C01F0C9FD4FF4DB
:104560000040306028680190019802202968C90342
:1045700000EBE17078B12968C90300EBE17050B13C
:104580002968C90300EBE17028B12968C90300EB71
:10459000E1700028EAD14FF000403060201D01F0AA
:1045A000A7FD4FF400403060286801900198022078
:1045B0002968C90300EBE17078B12968C90300EBF1
:1045C000E17050B12968C90300EBE17028B1296896
:1045D000C90300EBE1700028EAD14FF000403060E1
:1045E000A01D01F085FD4FF4004030602868019067
:1045F000019802202968C90300EBE17078B12968AD
:10460000C90300EBE17050B12968C90300EBE17008
:1046100028B12968C90300EBE1700028EAD14FF006
:104620000040306004F1080001F062FD4FF40040EA
:104630003060286801900198022000BF2968C903F2
:1046400000EBE17078B12968C90300EBE17050B16B
:104650002968C90300EBE17028B12968C90300EBA0
:10466000E1700028EAD102B070BD00BF2DE9F0472B
:1046700082B040F61849002048F22108ADF8040045
:10468000C4F202094FF48020C9F8000048F221006A
:10469000FEF7B2F840F20046C4F20206306820F499
:1046A000406030603068306001A8FEF7FDF841F2EC
:1046B0001437C2F2000707F1260A5046FEF7F4F855
:1046C000042041F294319FED7D0A9FED7D1AC9F8D7
:1046D0000000C2F20001306820F4406030603068B1
:1046E00040F400603060BDF804006FF3DF3002EE8C
:1046F000100AB8EE422A0A880880388022EE000AA2
:1047000022EE011A811A6FF4804287ED010A87EDCB
:10471000021A914202DC01F5004104E0B1F5804F3C
:10472000C8BFA1F5004141F23C329FED662AC2F2BA
:10473000000292ED000A82ED001A41F29032C2F2BC
:10474000000231EE400A1368B4EEC20A1944F1EED9
:1047500010FA116004DD9FED5E1A30EE010A0AE0E6
:104760009FED591AB4EEC10AF1EE10FABCBF9FEDED
:10477000571A30EE010A41F2403241F2883541F2D7
:1047800044334AF6AB2C9FED543AC2F20002C2F217
:104790000005C2F20003CAF6AA2C117895ED001AA2
:1047A00003EB810380EE010A93ED002A83ED000AFA
:1047B0004B1C398CA3FB0C54A50841F25C34401A05
:1047C000C2F2000405EB450504EE100A94ED001A50
:1047D000A3EB450031EE421A9FED3E2A31EE000A6E
:1047E000B8EEC41A107041F2603041F26432C2F285
:1047F000000021EE031A9FED393AC2F2000220EECA
:10480000024A84ED000A017887ED034A87ED041A15
:1048100020EE030A02EB8102013192ED001A82EDD3
:10482000000A41F27C32A1FB0C35C2F20002AB0857
:1048300092ED003A03EB4303A1EB430133EE411A3F
:104840009FED273A0170002031EE000AADF8060016
:104850004FF4802020EE021A20EE032A82ED000A97
:1048600087ED061A87ED072AC9F8000008F1300025
:1048700080B2FDF7C1FF306820F4406030603068DE
:1048800030600DF10600FEF70FF85046FEF70CF809
:104890000420C9F80000306820F4406030603068BF
:1048A00040F400603060BDF80600400AB884F88C1F
:1048B000000BF88402B0BDE8F08700BF0000343C74
:1048C000DB0F4939DB0F4940DB0F49C0DB0FC94023
:1048D000DB0FC9C0ABAA2A3E3B819D3D5655953F93
:1048E000EBC918412DE9F04782B040F2000A47F2C7
:1048F000B43343226F27C2F2000AC0F60003DAF88D
:104900000010481CCAF800000A7000228E18777048
:104910009F18BD7865B1B570FD785DB1F5703D79D2
:1049200055B17F79043204303571002FEED18818EB
:10493000013002E0023000E00330CAF80000FEF768
:1049400047F840F20409DAF80010C2F20009D9F879
:104950000000091A89B201F0D3FC40F2E428D9F82A
:10496000001040F6B425C2F20008C2F2000541452D
:10497000414608BF29460028C9F80010CAF80010AF
:1049800020D044F64450C5F64170086047F24250CA
:10499000C6F26660486047F26520C4F65F708860C2
:1049A00046F27650C6F27260C86046F66C70C0F689
:1049B0007750086101F11500CAF800000A20087557
:1049C000FEF706F89FEDD10ADFEDD10AFFF75CF89C
:1049D0004EF21007CEF2000738680190019840F2BD
:1049E000F51000BF3968C90300EBE17078B1396890
:1049F000C90300EBE17050B13968C90300EBE17005
:104A000028B13968C90300EBE1700028EAD19FEDB5
:104A1000C10ADFEDC10AFFF737F838680190019845
:104A200040F2F5103968C90300EBE17078B13968DC
:104A3000C90300EBE17050B13968C90300EBE170C4
:104A400028B13968C90300EBE1700028EAD19FED75
:104A5000B30ADFEDB10AFFF717F838680190019843
:104A600040F2F5103968C90300EBE17078B139689C
:104A7000C90300EBE17050B13968C90300EBE17084
:104A800028B13968C90300EBE1700028EAD19FED35
:104A9000A40ADFEDA40AFEF7F7FF38680190019839
:104AA00040F2F5103968C90300EBE17078B139685C
:104AB000C90300EBE17050B13968C90300EBE17044
:104AC00028B13968C90300EBE1700028EAD19FEDF5
:104AD000960ADFED960AFEF7D7FF38680190019835
:104AE00040F2F5103968C90300EBE17078B139681C
:104AF000C90300EBE17050B13968C90300EBE17004
:104B000028B13968C90300EBE1700028EAD19FEDB4
:104B10007F0ADFED7F0AFEF7B7FF38680190019842
:104B200040F2F5103968C90300EBE17078B13968DB
:104B3000C90300EBE17050B13968C90300EBE170C3
:104B400028B13968C90300EBE1700028EAD1FFF70A
:104B50008DFD41F2143C002100230024C2F2000C20
:104B6000BCF800208EB2652E0AD3141B24B2002C90
:104B700048BF6442042C03DC01339CB21F2C3ED29C
:104B80003C680194019C06243868C00304EBE0747F
:104B90007CB13868C00304EBE07454B13868C003DA
:104BA00004EBE0742CB13868C00304EBE074002C13
:104BB000EAD1632E03D9013398B21E281FD8386872
:104BC00006260190019800BF3868C00306EBE07626
:104BD0007EB13868C00306EBE07656B13868C00392
:104BE00006EBE0762EB13868C00306EBE076002EC7
:104BF000EAD10231144688B2C828B3D34CE041F25E
:104C00008030ACF82020C2F2000001684B1C002963
:104C100003600BD100210160DAF8000044A1FBF72A
:104C200091FBDAF800100844CAF80000FDF7D0FE46
:104C3000D9F80000DAF80010091A89B201F060FB17
:104C4000D9F80010414518BF45460028C9F8005062
:104C5000CAF8005020D044F64450C5F64170286090
:104C600047F24250C6F26660686047F26520C4F6BB
:104C70005F70A86046F27650C6F27260E86046F651
:104C80006C70C0F67750286105F11500CAF8000075
:104C90000A202875FDF79CFE40F22040C4F2010076
:104CA000016821F001010160016821F0100101603B
:104CB000016821F480710160016821F00401016044
:104CC000016821F040010160016821F48061016008
:104CD00050F8141C21F0010140F8141C41F28430FA
:104CE000C2F20000016804E00268521A022A28BFDA
:104CF00001680268521A012AF4D80268521A012A7D
:104D0000F0D80268521A012AEED9EBE73333333F69
:104D1000000000003233B33E16311B3F3433B3BEC4
:104D20003733B3BE15311BBF3033B33E17311BBF12
:104D3000506F736974696F6E204F66667365743A5D
:104D40000925640D0A436F72726563742046696EAB
:104D500069736865640000002DE9F0470C6894FAF7
:104D6000A4F2B2FA82F234FA02F352D04FF0010800
:104D70004FF0030C4FF00F0E08FA02F314EA030988
:104D800042D099FAA9F34E680568B3FA83FA4FEA5C
:104D90004A070CFA07F406FA07F3A5432B4303600E
:104DA000E343741E012C05D88C688568BC401D4007
:104DB0002C4384600C69C568022E04FA07F403EAE8
:104DC000050343EA0403C3601ED14B69BAF1070F20
:104DD0000AD84FEA8A04056AA3400EFA04F425EAC9
:104DE0000404234303620FE04FEA1924456A94FA4E
:104DF000A4F4B4FA84F4A400A3400EFA04F425EA5F
:104E000004042343436200BF0C68013234FA02F306
:104E1000B2D14A68013A012A88BFBDE8F087C96863
:104E200042686143A24311434160BDE8F08700BF7F
:104E300010B586B00446C8B3206C002840F08F80BF
:104E4000002042F200220590CDE90300CDE90100E7
:104E5000C4F20102216891422BD042F20010C4F248
:104E60000100814241D042F20000C4F201008142BF
:104E700072D143F6300100200090C4F202014A6969
:104E800042F480724A614A6902F480720092009A88
:104E900000900A6842F004020A60096801F0040107
:104EA000009100990321029102213AE0012006B00D
:104EB00010BD43F630010090C4F202014A6942F489
:104EC00080624A614A6902F480620092009A00900E
:104ED0000A6842F004020A60096801F004010091C6
:104EE00000990321029108211BE043F630010020C4
:104EF0000090C4F202014A6942F400724A614A69B0
:104F000002F400720092009A00900A6842F00402D3
:104F10000A60096801F004010091009903210291DF
:104F200004210191039040F6000001A9C4F202009F
:104F300001F0AEFA4EF60C500021CEF200000068EF
:104F40004EF21240CEF2000001704EF200104FF40B
:104F50008021CEF2000001600020E0636064206CDC
:104F600010F0100F3AD1206C41F202110123C0F66B
:104F70000073884340F00200206442F20430C4F21F
:104F80000100016821F44031016061680268114349
:104F900001602068416821F48071416021694268A4
:104FA00042EA01214160416821F040714160A168FD
:104FB000426811434160816821F400618160E168C9
:104FC000826811438160A16A826822F0706299420E
:104FD0008260826804D122F040510AE001204FE053
:104FE00011438160816821F040518160E16A8268EB
:104FF00011438160816821F002018160A1698268AA
:1050000042EA41018160226A416882B141F4006153
:105010004EF200024160CFF6FF72416821F4604118
:105020004160616A02EB41314268114301E021F4C1
:10503000006141600022C16ACFF6F07221F4700174
:10504000C162E16902EB0151C26A1143C162816828
:1050500021F400718160216B826842EA4121816004
:10506000816821F4806181606169826842EA8121FE
:105070000122816000206064216C62F301012164DF
:105080000021E16306B010BD70B581B0002200922E
:10509000C26B012A01D102214AE00122C263D1F888
:1050A00000E01FFA8EFCBEF10A0F4FEA4C0212FA22
:1050B0008EF204D303681E3A03F10C0402E0036885
:1050C00003F1100407252668954026EA05052560AA
:1050D0008D6805FA02F225682A4322604A68062A8A
:1050E00005D802EB820203F13401053A0BE002EB32
:1050F00082040C2A87BF03F12C01A4F1410203F1C1
:105100003001A4F123021F240D6894400CFA02F22E
:1051100025EA04040C600E6832430A6042F204314E
:10512000C4F20101A1F54172934204D00021C16390
:10513000084601B070BDBEF1110F10D01222C1F2AD
:10514000000296450BD0BEF1120FEFD10A6822F48F
:1051500000020A600A6842F480020A60E6E70A6810
:1051600022F480020A600A6842F400020A601221F6
:10517000C1F200018E45D9D140F208014DF683629B
:10518000C2F20001C4F21B320968A1FB0212910CA9
:1051900001EB8101490001E000990139009100997A
:1051A0000029C3D000990139009100990029BDD090
:1051B00000990139009100990029B7D0009901396F
:1051C000009100990029E7D1B0E700BF81B000212C
:1051D0000091C16B012963D00121C16301688A6814
:1051E00012F0010F27D18A684DF68363C4F21B3396
:1051F00042F001028A6040F20802C2F20002126824
:10520000A2FB03239A0C02EB420201E0009A013A4E
:105210000092009A7AB1009A013A0092009A52B133
:10522000009A013A0092009A2AB1009A013A00923B
:10523000009A002AEAD18A6812F0010F30D0026C7D
:1052400043F2010342F2000CC4F2010C9A4342F40F
:1052500080520264026C12F4807F04BF0022426418
:105260000022C2636FF004000860486840F08000CC
:105270004860DCF8043388684A6800F4401002F49F
:10528000806213F01F0F09D0614501BF50EA020090
:10529000886840F48000886001B07047104301D0F6
:1052A00001B07047886840F48000886001B07047A2
:1052B000C26B012A02BF02210846704770B5012265
:1052C000C263D1F800C01FFA8CFEBCF10A0F4FEA8E
:1052D0004E0212FA8CF204D303681E3A03F10C0456
:1052E00002E0036803F1100407252668954026EACA
:1052F000050525608D6805FA02F225682A432260BB
:1053000000249A6BCFF6F07422F440129A630A6973
:105310009D6B04EB0254C2F103022C439C634D6865
:105320009E6B2A44D4B2A40054FA82F21F24944003
:105330000EFA02F226EA04049C639E6B32430126B5
:105340009A63C0F20F06CC699A6822F47022B442C4
:105350009A609A6802D122F4401409E022439A60CC
:105360009A6822F440129A600A6A9E6846EA020429
:105370009C608A695E6846F48064002A08BF26F44F
:1053800080645C604A695E6846F48054002A08BF05
:1053900026F48054032D5C6008D0022D09D0012D25
:1053A00014BF03F1200203F1140204E003F11C0214
:1053B00001E003F11802166840F6FF75AE4316606F
:1053C000C96816683143116042F20431C4F2010128
:1053D000A1F541729342BDE8704012D1BCF1110FAA
:1053E0000BD01222C1F20002944506D0BCF1120F7C
:1053F00007D10A6842F4800202E00A6842F400021F
:105400000A600021C1630846704700BF2DE9F047DC
:1054100086B040F24C16C2F20006306B00285ED116
:10542000002700240597CDE90377CDE90177C4F281
:1054300002043068A4F5CE31884250D143F63000E2
:1054400000974FF0020801AD4FF003094FF0090A31
:10545000C4F20200016941F000710161016901F0CB
:105460000071009100990097016841F0010101600D
:105470002946006800F0010000900098CDF80880EF
:105480004FF400600190012003902046CDF8109069
:10549000CDF814A000F0FCFF4FF48050CDF8088048
:1054A0002946019003A880E88006204600F0F0FF1E
:1054B0004EF60C504FF48012CEF2000001684EF20E
:1054C0000011CEF2000181F814730A6000684EF2F8
:1054D0001540CEF2000007704FF4001008603368EA
:1054E00041F28431C2F20001186820F00200186015
:1054F0000A685F68306817F0020F22D00B689B1AA9
:105500000B2B80F08B80436813F0020F18D00B68D0
:105510009B1A0A2B00F28280436813F0020F0FD00F
:105520000B689B1A0A2B79D8436813F0020F07D037
:105530000B689B1A0A2B71D8436813F0020FDDD158
:1055400003461A6842F001021A600A68436813F0C1
:10555000010F20D130680B689B1A0B2B64D2436873
:1055600013F0010F17D10B689B1A0A2B5CD8436804
:1055700013F0010F0FD10B689B1A0A2B54D8436804
:1055800013F0010F07D10B689B1A0A2B4CD8436804
:1055900013F0010FDFD0B1690268371D22F08003DC
:1055A000012908BF42F080030360F169026822F01C
:1055B0004003012908BF42F040030360316A0268DA
:1055C00022F02003012908BF42F020030360716A22
:1055D000026842F01003012908BF22F010030360A3
:1055E000B16A026822F00803012908BF42F00803EB
:1055F0000360F16A026822F00403012908BF42F047
:10560000040303608ECF1A43736901393A431A4386
:1056100011430122C161002100200AE0706B0522C4
:1056200040F40031012004E0706B052240F40031A9
:1056300001207163326306B0BDE8F08740F24C137D
:10564000C2F200031A68196B03F1340C0139936834
:10565000012909D813F0E05F09D0C3F30163032BDC
:1056600008D14FF4000026E04FF4802023E04FF4EF
:10567000001020E002EB031141F29C32C2F2000262
:1056800001F5C07C1278002A1CBF0022C5F220025E
:10569000C1F8802141F2A032C2F200021278002A41
:1056A00018BF0822C1F884214268C1F88C21006823
:1056B000C1F888010120DCF800100843CCF8000094
:1056C000704700BF2DE9F04F81B02DED028B88B0FF
:1056D00040F24C10C2F200000068D0F814A04168FB
:1056E00002911AF0010F8768C4680169039181690A
:1056F000009101D1002546E0F90724D00121816005
:10570000B8071ED478075ABF4FF4805000EA4725E7
:105710004FF40065F80519D540F24C104FF4807134
:10572000C2F2000000688160B80525D478055ABF30
:1057300007F4006045EAC00545F40055F80307D4B6
:1057400021E0FCF7BDFF0025F805E5D4F8031AD5E4
:1057500040F24C104FF48031C2F2000000688160CA
:10576000B8030ED478034FBF45F400454FF48030A2
:1057700000EAD700054306E0FCF7A2FFF803E7D4F0
:1057800001E0FCF79DFF40F24C175FEA0A70C2F29D
:10579000000707D514F0100004D03868102145F434
:1057A0000075C1605FEA4A70019505D514F00800E4
:1057B0001EBF38680821C1605FEA8A7040F18681A7
:1057C0003868C16811F0030F00F0808145F2491478
:1057D00045F6500541F2A43940F2841B40F22046C0
:1057E0009FED288A07F13408C4F20004C4F20005D2
:1057F000C2F20009C2F2000BC4F20106396B013992
:10580000012941D8014651F80C2F12F0030F3ED068
:10581000D0F8B031D0F8B02113F0040F04BF520D0E
:10582000C9F80020D0F8B021D0F8B421D0F8B421C4
:10583000D0F8B421D0F8B8218BF80020D0F8B821E6
:10584000120A8BF80120D0F8B821120C8BF8022034
:10585000D0F8B821120E8BF80320D0F8BC218BF8B9
:105860000420D0F8BC21120A8BF80520D0F8BC2106
:10587000120C8BF80620D0F8BC01000E8BF8070044
:10588000202007E0DB0F49394FF4802001E04FF47E
:10589000001041460A6810430860D9F80000B0F5CE
:1058A000407F1BD040F20131884240F00381DBF899
:1058B000000045F24F21884221DD45F25411C4F227
:1058C0000001884242DC45F2502188426DD045F209
:1058D0004A61884272D0A04232D0EBE045F64F01D7
:1058E000DBF80000C4F20001884235DCA04227D07A
:1058F00045F25511C4F20001884238D0DAE044F292
:105900004331884241DD44F24431884265D044F657
:105910004D71884268D045F25301884240F0CA80F8
:10592000DBF80400B0F5CA0F80F2888010F5CA0FCA
:1059300040F20000CFF69B70D8BFCBF8040081E0A6
:1059400040F24810C2F200000460B3E045F2551185
:10595000C4F2000188420AD0A84210D045F6560190
:10596000C4F20001884240F0A580A81D01E004F1C6
:105970000C0040F24811C2F2000108609AE040F2C7
:105980004810C2F20000056094E044F250118842D1
:105990004CD044F24131884240F08C809BED010AAA
:1059A00041F2DC30C2F2000052E041F29030C2F22B
:1059B00000000068DBF80410084439E0DBF804005C
:1059C000B0F5CA0F47DA10F5CA0F40F20000CFF663
:1059D0009B70D8BFCBF8040041E09BED010A41F277
:1059E000E030C2F2000033E041F2D8300021C2F2D0
:1059F00000000160DBF80410306801293CD140F060
:105A000001003060306840F010003060306840F4D1
:105A100080703060306840F004003060306840F0E2
:105A200040003060306840F480603BE0DBF8040008
:105A300041F28C31C2F2000108603BE04FF4CA0031
:105A4000CBF804009BED010A41F29830C2F200004D
:105A5000B8EE400A0BE04FF4CA00CBF804009BED0F
:105A6000010A41F2D830C2F20000B8EEC00A20EEBE
:105A7000080A80ED000A1DE020F001003060306867
:105A800020F010003060306820F4807030603068A2
:105A900020F004003060306820F040003060306852
:105AA00020F48060306056F8140C40F0010046F895
:105AB000140C00BFFCF704FE386B0138012805D830
:105AC0003868C16811F0030F7FF498AE5FEA4A604E
:105AD00040F18280039ADDE9013912F0100004D010
