:020000040800F2
:10000000301A0020050300080536000809360008EC
:1000100095370008993700089D3700080000000058
:10002000000000000000000000000000A1370008F0
:10003000A537000800000000A9370008AD37000808
:100040001F0300081F0300081F0300081F03000808
:100050001F0300081F0300081F0300081F030008F8
:100060001F0300081F0300081F0300081F030008E8
:100070001F0300081F0300081F0300081F030008D8
:100080001F0300081F030008813C00081F0300082D
:10009000BD370008C13700081F0300081F03000810
:1000A0001F0300081F0300081F0300081F030008A8
:1000B0001F0300081F0300081F0300081F03000898
:1000C0001F0300081F0300081F0300081F03000888
:1000D0001F030008C53700081F0300081F0300089E
:1000E0001F0300081F0300081F0300081F03000868
:1000F0001F0300081F0300081F0300081F03000858
:100100001F0300081F0300081F0300081F03000847
:100110001F0300081F0300081F0300081F03000837
:100120001F0300081F0300081F0300081F03000827
:100130001F03000800000000000000001F0300086B
:100140001F0300081F0300081F0300081F03000807
:100150001F0300081F0300089D3A00081F03000842
:100160001F0300081F0300081F0300081F030008E7
:100170001F0300081F0300081F0300080000000001
:10018000000000001F030008000000000000000045
:100190001F03000800000000000000001F0300080B
:1001A0000000000000000000000000001F03000825
:1001B0001F0300081F0300081F0300081F03000897
:1001C0001F03000800F002F800F08DF80AA090E884
:1001D000000C82448344AAF10107DA4501D100F002
:1001E00082F8AFF2090EBAE80F0013F0010F18BF42
:1001F000FB1A43F0010318471C9000003C900000DC
:10020000103A24BF78C878C1FAD8520724BF30C842
:1002100030C144BF04680C60704700000023002414
:1002200000250026103A28BF78C1FBD8520728BF06
:1002300030C148BF0B6070476E2900F045817029BE
:1002400000F087826629AFF300806529AFF3008054
:100250006729AFF300806129AFF3008003681B0AB0
:1002600028BF41F08001692900F0F280642900F084
:10027000EF80752900F0EC806F2900F01582782955
:1002800000F05382E92900F0AF81E42900F0AC814D
:10029000F52900F0A981EF2900F01282F82900F079
:1002A00052820368DB0928BF41F08001632900F016
:1002B000CB83732900F0D083E32900F0DB83F3299B
:1002C00000F0E083002070471FB508F050FB00F0FD
:1002D0003DFC04000020002108F096F8401C6060FE
:1002E0001FBD10B510BD00F0F9FB1146FFF7ECFF84
:1002F00000F07AFC00F020FC03B4FFF7F2FF03BC2F
:1003000000F068FC0948804709480047FEE7FEE71F
:10031000FEE7FEE7FEE7FEE7FEE7FEE7FEE7FEE7B5
:1003200004480549054A064B704700003D82000815
:10033000C501000830140020301A002030160020BB
:10034000301600200FB41CB5084B06AA7B44694642
:100350000090059800F0D1F804460020694600F0AE
:10036000DFF820461CBC5DF814FB0000D101000042
:1003700070477047704710B500F0BAFA006810BDBA
:1003800010B5044600F0B4FA046010BD70B5044620
:1003900085690068C10601D5302600E02026C00727
:1003A00007D070BDD4E9012130469047206A401C37
:1003B00020626D1EF6D570BD70B504468569007863
:1003C000C00707D170BDD4E9012120209047206AE1
:1003D000401C20626D1EF6D570BD09684A0501D526
:1003E00040B27047C905FCD500B2704709684A059C
:1003F00001D5C0B27047C905FCD580B2704770B551
:100400000C460546012A05D02878800600D5EA6901
:10041000002302E0012305E05B1C934202D2E05C72
:100420000028F9D1A869E618C01AA861286A1844FA
:1004300028622846FFF7AAFF04E0D5E9012114F855
:10044000010B9047B442F8D32846FFF7B5FF70BDC3
:100450002DE9F0410646002410687529314616A59D
:1004600010D0FFF7BAFF002802DA404213A507E0D8
:1004700031688A0701D512A502E0490704D511A504
:10048000012401E0FFF7B2FF00210A2206F1240750
:1004900009E0B0FBF2FCB0FBF2F302FB1C003030D1
:1004A00078541846491C0028F3D123462A46304682
:1004B000BDE8F04100F065BA000000002D0000002A
:1004C0002B0000002000000011680268006A53053C
:1004D00001D508700AE0D30501D5088006E01306AF
:1004E00003D5C217C1E9000200E00860012070478F
:1004F00001694A1C02610878704700B58FB0CDE9E8
:1005000001310021059105497944CDE903101146D7
:10051000684600F029F90FB000BD0000E5FFFFFFBD
:100520000A6802F8010B0A60704700002DE9FF5FBE
:1005300015468A460446DFF8AC80F8440027D8E91F
:1005400000103E46CDE9001010E05AF826106A4629
:1005500002A800F09BFA411C07D02178890603D538
:10056000E269391891420DD80744761C207880063C
:1005700002D5E069B84205DDAE42E6DB5AF8260056
:100580000028E2D1A069C01BA0612046FFF7FEFE53
:10059000D8E90010CDE90010002017E05AF8281023
:1005A0006A4602A800F072FAB0F1FF3F81460BD014
:1005B00000250DF1080B05E0D4E901211BF8050029
:1005C00090476D1C4D45F7D308F10100B0428046BD
:1005D000E4DB206A384420622046FFF7EDFEBDE8E8
:1005E000FF9F0000568400002DE9F0418046D21D97
:1005F00022F007020025D2E90002F52915A614D041
:10060000011E72F1000106DA0023D0EB030063EB58
:10061000020211A608E0D8F800108B0701D50FA63A
:1006200002E0490701D50EA601251146002408F174
:10063000240704E000F060F930323A55641C50EAB7
:100640000102F7D12B46324621464046BDE8F04133
:1006500000F097B9000000002D0000002B00000002
:100660002000000030B4002100F1240408E002F072
:100670000705D208303542EA4372DB086554491C4D
:1006800052EA0305F3D10468002310A2250708D518
:1006900004F020040C4304D0C46901230CA2641E9E
:1006A000C46130BC00F06DB910B504462146106835
:1006B000FFF79CFE02462046BDE810400023D1E72C
:1006C000D21D22F00701D1E90023CBE70000000092
:1006D00030000000F0B40D460188090502D5214C18
:1006E0007C4402E01F4C7C440E34002100F12406BF
:1006F00008E002F00F071209E75D42EA03721B09E6
:100700007754491C52EA0307F3D1027800231207F9
:1007100004D5702D06D009B1022311342246F0BC55
:1007200000F02FB901231034F8E770B504460D46E8
:1007300021461068FFF75AFE024629462046BDE8CA
:1007400070400023C6E7D21D22F00703D3E900233F
:10075000C0E70368126843F0200303600823C36105
:100760000023B7E7B88200002DE9F05F8946044610
:100770004FF0000ADFF874B1FB44C0F820A0204617
:10078000E1688847002874D0252806D0D4E90121E3
:100790009047206A401C2062F1E700265F46204611
:1007A000E16888472028054607DB312D05D27819F6
:1007B00010F8200C08B10643F1E7B00701D526F088
:1007C0000406C4F81CA00027C4F818A02A2D09D0DC
:1007D000284607F012FE38B304EB8708303DC8F80E
:1007E000185019E059F8041B204604EB8702916168
:1007F000E1688847012F054618D1E069002820DA12
:1008000026F020061DE0D8F8180000EB800005EB6C
:1008100040003038C8F818002046E168884705468F
:1008200007F0EBFD0028EED1012F0AD02E2D08D1C4
:100830002046E16888477F1C0546022F46F02006C7
:10084000C4DBA069002803DA404246F00106A0613B
:10085000F00701D026F010066C2D0BD0682D09D0C2
:100860004C2D39D06A2D35D0742D35D07A2D33D01A
:1008700016E038E0E1682F4620468847B842054632
:1008800009D16C2F26D04FF48060E16806432046E2
:100890008847054604E06C2F1AD04FF48070064359
:1008A0000DB3A5F14100192802D8203546F40066A1
:1008B0004A462946204626604E46FFF7BDFC80B1D9
:1008C00001280BD0F61D26F0070000F1080956E7B5
:1008D0004020E4E78020D8E70020D6E706F10409AD
:1008E0004DE7284652E7206ABDE8F09F48820000A5
:1008F000004870471800002030B5B0F10A0271F1CD
:1009000000034FEA900E4EEA817EB0EB0E0061EBE1
:1009100091014FEA101E4EEA017E10EB0E0041EBF2
:1009200011114FEA102E4EEA016E10EB0E0041EB52
:1009300011214FEA104E4EEA014E10EB0E0041EB32
:100940001141401841F100014FEAD00040EA4170E6
:100950004FEAD1014FEA810444EA907410EB80051C
:1009600044EB01046D1944EB0404521BA3414FF006
:10097000000348BF0A3200D530BD401C41F10001E0
:1009800030BD2DE9F0470D4699469246044600F1E8
:1009900024080168880604D5E06921F0100121606F
:1009A00000E00120A84201DD471B00E00027A1690B
:1009B0007A1902EB0900081AA0612078C00602D457
:1009C0002046FFF7E3FC002608E0D4E901211AF8ED
:1009D00006009047206A401C761C20624E45F4DBDE
:1009E0002078C0060AD52046FFF7D0FC06E0D4E9FF
:1009F000012130209047206A401C2062381EA7F158
:100A00000107F4DC07E0D4E9012118F8050090475C
:100A1000206A401C2062281EA5F10105F3DC204657
:100A2000FFF7CAFC2078000602D50220BDE8F08757
:100A30000120FBE710B5436913B1AFF3008001E07B
:100A4000FFF7DDFC012010BD127800F124010A70CF
:100A500000224A700122EDE711684FF0FF32E9E70A
:100A600010B5436913B1AFF3008001E0FFF75EFDFD
:100A7000012010BD126800F124014262002282624E
:100A80000122EDE711684FF0FF32E9E72DE9F0416F
:100A900016460C46054600F047F8036893F8010136
:100AA000012807D0FF2C12D8185D80B101202C70CE
:100AB000BDE8F081D3F807013246214603F207135F
:100AC000C7182846BC46BDE8F041012360474FF0F7
:100AD000FF30EDE700487047180000207546FFF72B
:100AE000F9FFAE4605006946534620F007008546EB
:100AF00018B020B5FFF714FCBDE820404FF0000609
:100B00004FF000074FF000084FF0000BAC46ACE888
:100B1000C009ACE8C009ACE8C009ACE8C00921F0E4
:100B200007018D467047000010B500F00FF8001D5A
:100B300010BD00BFD578000010B50446AFF30080AB
:100B40002046BDE81040FFF7D7BB000000487047C3
:100B5000380000200000000030B44FF0013C50F895
:100B6000042B51F8043BCCFA52F4D51A20D1FCB92D
:100B700050F8042B51F8043BCCFA52F4D51A17D193
:100B8000B4B950F8042B51F8043BCCFA52F4D51AFE
:100B90000ED16CB950F8042B51F8043BCCFA52F446
:100BA000D51A05D1002CDAD030BC4FF000007047C8
:100BB00029BAB1FA81F111F01801D1F12000844075
:100BC000F2D1CA40CB4012F0FF0213F0FF0330BC59
:100BD000D01A704701491820ABBEFEE7260002007C
:100BE00070470000000000002DE9F04F8FB041F287
:100BF000793143F6080A01204EF60C5240F21009F2
:100C000044F6D3584EF21007C2F20001C4F2020AB1
:100C1000CEF20002C2F20009C1F26208CEF2000771
:100C200008704FF6FF01DAF8F80340F40070CAF8D4
:100C3000F803DAF8F80340F48060CAF8F803DAF849
:100C4000F80340F48070CAF8F8031068084040F2D6
:100C50000031C0F2FA5108431060D9F80000A0FB3F
:100C600008014FF0FF3000EB91110020B0EB116F45
:100C70000BD14EF60C527960F021CEF20002D17504
:100C80000721B86039601168D075029047F20404FA
:100C9000DAF83C10C4F2000441F48041CAF83C1078
:100CA000DAF83C1001F48041029102990290DAF8DE
:100CB000381041F08051CAF83810DAF8381001F0D5
:100CC0008051029102990290DAF8381041F0805177
:100CD000CAF83810DAF8381001F080510291029900
:100CE000029054F8040C40F4404044F8040C54F8CA
:100CF000040C00F4404002900298DAF8000000F082
:100D00000C00042846D0DAF8000000F00C00082897
:100D100004D15AF8040C10F4800F3BD1DAF800002B
:100D200000F00C000C2804D15AF8040C10F4800FC9
:100D300030D15AF8080C40F480304AF8080C41F2DF
:100D40007430C2F2000001685AF8082C12F4003F17
:100D500022D10268521A642A00F280805AF8082CC4
:100D600012F4003F18D10268521A642A76D85AF851
:100D7000082C12F4003F0FD10268521A642A6DD871
:100D80005AF8082C12F4003F06D10268521A642A5D
:100D9000DAD963E05AF8080CDAF8000000F00C0029
:100DA00008285BD060210020C4F24721086041F28E
:100DB0007430C2F2000002685AF8083C13F0007F59
:100DC0001FD003689B1A022B48D85AF8083C13F02E
:100DD000007F16D003689B1A022B3FD85AF8083CB4
:100DE00013F0007F0DD003689B1A022B36D85AF8F7
:100DF000083C13F0007F04D003689B1A022BDBD958
:100E00002CE042F60452C2F240224AF8042C01229D
:100E10000A6001685AF8082C12F0007F1ED102689F
:100E2000521A032A1AD25AF8082C12F0007F15D150
:100E30000268521A022A11D85AF8082C12F0007FC0
:100E40000CD10268521A022A08D85AF8082C12F05B
:100E5000007F03D10268521A022ADBD9002041F236
:100E6000743601210290C2F20006DAF8380040F030
:100E70008050CAF83800DAF8380000F0805002904C
:100E800002984020C4F20E2001603268236813F4F7
:100E9000803F20D133689B1AB3F57A7F41D823680D
:100EA00013F4803F17D133689B1AB3F57A7F38D893
:100EB000236813F4803F0ED133689B1AB3F57A7F11
:100EC0002FD8236813F4803F05D133689B1AB3F5FC
:100ED0007A7FDBD925E041603068216811F4003F5A
:100EE0001FD13168091AB1F57A7F1AD8216811F437
:100EF000003F16D13168091AB1F57A7F11D82168FF
:100F000011F4003F0DD13168091AB1F57A7F08D884
:100F1000216811F4003F04D13168091AB1F57A7FD4
:100F2000DBD9DAF8F80300F00F00042809D805200F
:100F30008AF8F803DAF8F80300F00F00052840F00B
:100F4000E580DAF8000040F4E050CAF80000DAF872
:100F5000000040F46040CAF80000DAF8000020F019
:100F6000F000CAF800005AF8080C10F0007F00F0FA
:100F7000CD80DAF80000022161F30100CAF8000018
:100F80003068DAF8001001F00C01082930D1DAF8E5
:100F9000F80300F00E00062809D305208AF8F803AC
:100FA000DAF8F80300F00F00052840F0AF80DAF817
:100FB0000000052161F38C200421CAF80000DAF852
:100FC000000061F34F30CAF80000DAF80000C0F307
:100FD000810142F20040C0F2F400032947D0022907
:100FE00032D0012904BF41F20020C0F27A006DE046
:100FF00041F288313268121A8A4200F28780DAF8A8
:10100000002002F00C02082AC1D03268121A8A426B
:101010007CD8DAF8002002F00C02082AB7D0326837
:10102000121A8A4272D8DAF8002002F00C02082A5A
:10103000ADD03268121A8A4268D8DAF8002002F07D
:101040000C02082AD6D1A2E75AF8041C5AF8043C2C
:1010500001F03F025AF8041C13F4800FC1F3881109
:1010600018D1A1FB0001002307F013F919E05AF889
:10107000041C5AF8043C01F03F025AF8041C13F413
:10108000800FC1F3881114D1A1FB0001002307F0E8
:1010900000F915E041F20020C0F27A004843B0FBAD
:1010A000F2F05AF8041C0222C1F3014102EB4101A3
:1010B0000AE041F20020C0F27A004843B0FBF2F0AF
:1010C0005AF8041CC1F30271B0FBF1F0DAF8001019
:1010D0000FF64862C1F30311515CC840C9F8000023
:1010E000A0FB08014FF0FF3000EB91110020B0EBA6
:1010F000116F0BD14EF60C527960F021CEF2000246
:10110000D1750721B86039601168D0754FF00009BA
:1011100040F2180B042202AD4FF001080226CDF870
:101120001C90C4F2020B2946DAF82800ABF118042F
:1011300040F08000CAF82800DAF8280000F08000AB
:101140000B900B98DAF8280040F00400CAF8280049
:10115000DAF8280000F004000B900B98DAF8280069
:1011600040F00100CAF82800DAF8280000F0010079
:101170000B900B98DAF8280040F00200CAF828001B
:10118000DAF8280000F002000B900B98DAF828003B
:1011900040F00800CAF82800DAF8280000F008003B
:1011A0000B900B984FF08070CBF800004FF480004C
:1011B000CBF800044FF40040CBF8000040F6184094
:1011C000C4F2020002604FF48070CDF80C800290EF
:1011D0002046CDE904990696019405F0D3FB4FF41F
:1011E00000402946CDE902082046CDE90469CDF842
:1011F000188005F0C7FB04202946CDE902080BF64C
:10120000E830CDE90469CDF8188005F0BBFB40203B
:101210000BF57A7BCDF80C80294602905846CDE933
:101220000499069605F0AEFB4FF480702946CDE98F
:1012300002095846CDF8188005F0A4FBCDF80890B7
:1012400047F2040140F220430224032502AEDAF8FB
:101250002800C4F20001C4F201030A4640F48000F1
:10126000CAF82800DAF8280000F4800002900298FA
:101270004EF60C50CEF2000000684EF22540CEF241
:10128000000080F821904020C7F8F800CDE90699C9
:10129000CDE90499CDE90299DAF83C0040F002006A
:1012A000CAF83C00DAF83C0000F002000B900B9802
:1012B00049F2FC30095821F45C7141F040011150B1
:1012C00041F29411D960C3F80890C3F8109053F814
:1012D0000C1C41F0010143F80C1C115821F0800155
:1012E000115044F2070153F8180C884343F8180CC6
:1012F00053F8080C40F0080043F8080C186820F078
:1013000001001860186853F81C1C53F8082C21F4CD
:10131000407120F00F0043F81C1C22F0730141F0D3
:10132000600143F8081CC3F81490186053F8080CC7
:1013300020F0040043F8080C53F8080C40F4006057
:1013400043F8080C186820F010001860186853F86B
:101350001C1C53F8082C21F4406120F0F00043F8E5
:101360001C1C22F4E64141F4C04143F8081CC3F8B8
:101370001890186053F8080C20F4806043F8080CAB
:1013800053F8040C40F0080043F8040C186820F4EB
:1013900080701860186853F81C1C53F8042C21F452
:1013A000405120F4706043F81C1C22F0730141F09E
:1013B000600143F8041CC3F81C90186053F8040C37
:1013C00020F0040043F8040C53F8040C40F40060CF
:1013D00043F8040C186820F480501860186853F81B
:1013E0001C1C53F8042C21F4804120F4405043F895
:1013F0001C1C22F4E64141F4C04143F8041C41F2B4
:10140000881119621860314653F8040C20F480608A
:1014100043F8040C53F81C0C20F0700043F81C0C2B
:1014200053F8180C20F0800043F8180C4FF480405B
:101430005862DAF8280040F00100CAF82800DAF80B
:10144000280000F001000B900B98DAF8280040F01B
:101450000200CAF82800DAF8280000F002000B9019
:101460000B98DAF8280040F00400CAF82800DAF8EF
:10147000280000F004000B900B9880200290039449
:10148000CDE90459CDE90645019805F07BFA4FF402
:10149000404002A981E8310258463146CDE906456F
:1014A00005F070FA4FF4E07002A94FF0020881E8ED
:1014B00031021820314606940795C4F2020000F567
:1014C000FD60009005F05EFADAF83C0002AE3146AD
:1014D00040F48050CAF83C00DAF83C0000F4805038
:1014E00002900298DAF8280040F00200CAF82800BA
:1014F000DAF828004FF0050A00F002000290029886
:101500000820CDE902085846CDE90459CDF81880E5
:10151000CDF81CA005F036FA3020CDF80C804FF045
:101520000108314602905846CDE90459CDE9068AB2
:1015300005F028FA43F20000C4F20100016843F20A
:101540000400C4F2010011F0400F10D143F2000179
:101550004FF6BF72C4F201010B460968914340F691
:101560001D3211431960016821F004010160816995
:1015700040F2B8144FF482724FF400630A2520261B
:10158000C2F2000421F400618161016821F01001C0
:10159000016046F200604FF40071C4F20000A0F553
:1015A000285084E80502C4E90339C4E90581C4E987
:1015B0000769C4E90999E562656D45B100254FF0F9
:1015C000000A4FF0000B4FF0000E009538E00020AD
:1015D00043F60801C4F2020120650690CDE904003B
:1015E000CDE902000B900A46896B41F400419163FA
:1015F000916B01F400410B910B990B90916A41F0B2
:1016000004019162916A01F004010B910B9902218E
:1016100003914FF4E05102910490032002A9059038
:1016200006200690009806F035FD206A0090D4E967
:10163000099E94E80508D4E9033AD4E90581E669EE
:10164000022542EA0B0265651A4301F40073D0F8E3
:1016500000C042EA0A0242EA08022CF040051A439E
:1016600040F2501C056032430025C2F2000C0126F6
:10167000009B1A434FF4E00342EA0E020260042288
:1016800002EA11414FF4002241EA09014160C169B7
:1016900021F40061C16146F200600521A565C4F234
:1016A0000000A0F500708CE823000CF11400CCE9D8
:1016B000035268C0CCE90856CCE90A55666505F0C6
:1016C000BBFC43F2000040F2582B4FF461210C2286
:1016D000C4F20100C2F2000BA0F500508BE8230019
:1016E000CBE90355CBE90525CBF81C50DBF83C10C2
:1016F00041B143F6080A00214FF0000C0023C4F268
:10170000020AC7E043F6080ACBF838500695CDE93F
:101710000455CDE902550B95022402A9C4F2020A30
:10172000DAF83C0040F01000CAF83C00DAF83C005F
:1017300000F010000B900B980B95DAF8280040F0A1
:101740000100CAF82800DAF8280000F001000B9028
:101750000B9803944FF4C060029003200496059008
:1017600007200690019806F095FC40F2A02046F272
:10177000B8414FF0006240234FF48066C2F200008F
:10178000C4F20201456380E86E0041F274364FF402
:101790000032C0E90555C561C0E90825C2F200065E
:1017A000326884630B6823F001030B600B6813F04D
:1017B000010F31D148F23F030A684EF22546CFF2BD
:1017C0001003CEF200061A4040F24043C0F6020376
:1017D0001A4340F2FF330A604A6922F007024A6165
:1017E0006FF00F0252FA81F299434AF6AB23CAF620
:1017F000AA235F2AA2FB032388BF41F004011A0930
:101800000FF228739A5C3F23C0E9171203FA02F221
:101810008A600121002227E0016833689B1A052BAA
:101820001CD80B6813F0010FC4D033689B1A052B2A
:1018300014D80B6813F0010FBCD033689B1A052B2A
:101840000CD80B6813F0010FB4D033689B1A052B2A
:1018500004D80B6813F0010FDFD1ABE74EF2254639
:1018600003212022CEF200068265CBF83000C0F8BA
:101870003CB081634EF60C50CEF2000000680020B0
:1018800030702020C7F8F400DBE90651DBF80000D7
:10189000DBE902C3242649F20C62B1F5004FCBF814
:1018A0003C60C66826F40056C660066926F44056B9
:1018B00043EA06030361DBE90436C46843EA0C0328
:1018C00024EA020243EA060343EA010342EA03026E
:1018D000C260426922F4407242EA0502426164D168
:1018E00041F2004240F48061C4F20102914240F0B2
:1018F000C08040F2100149F2F4184FF0190948F283
:101900001F5EC2F20001C0F60008C5F2EB1E0A68B5
:10191000DAF800C0DBF80450DAF80040DAF80030FA
:10192000C3F34236C4F342346D0018F8066018F869
:10193000044022FA06F122FA04F401FB09F104FB47
:1019400009F4B1FBF5F1B4FBF5F4A1FB0E36730914
:10195000642603FB1613611A1944322303EBC101F9
:10196000A1FB0E134FF4F87101EA1311CCF34233CB
:1019700018F8033022FA03F303FB09F3B3FBF5F382
:10198000A3FB0E364FF6F073C7F6FF7303EA560358
:1019900001EB030CDAF80030C3F34233DAF80060ED
:1019A00018F80330C6F34236BEE041F2004240F47C
:1019B0008061C4F20102914240F0C68040F2100101
:1019C00049F2F4184FF0190948F21F5EC2F2000103
:1019D000C0F60008C5F2EB1E0A68DAF800C0DBF8B2
:1019E0000450DAF80040DAF80030C3F34236C4F3AA
:1019F0004234AD0018F8066018F8044022FA06F1E7
:101A000022FA04F401FB09F104FB09F4B1FBF5F13E
:101A1000B4FBF5F4A1FB0E367309642603FB161321
:101A2000611A1944322303EB0111A1FB0E13F021BB
:101A300001EA5311CCF3423318F8033022FA03F3CE
:101A400003FB09F3B3FBF5F3A3FB0E364FF6F0737C
:101A5000C7F6FF7303EA560301EB030CDAF8003014
:101A6000C3F34233DAF8006018F80330C6F34236A5
:101A7000C4E040F2100149F2F4184FF0190948F29D
:101A80001F5EC2F20001C0F60008C5F2EB1E0A6834
:101A9000DAF800C0DBF80450DAF80040DAF8003079
:101AA000C3F38226C4F382246D0018F8066018F888
:101AB000044022FA06F122FA04F401FB09F104FBC6
:101AC00009F4B1FBF5F1B4FBF5F4A1FB0E36730993
:101AD000642603FB1613611A1944322303EBC10178
:101AE000A1FB0E134FF4F87101EA1311CCF382231A
:101AF00018F8033022FA03F303FB09F3B3FBF5F301
:101B0000A3FB0E364FF6F073C7F6FF7303EA5603D6
:101B100001EB030CDAF80030C3F38223DAF800603B
:101B200018F80330C6F3822622FA03F303FB09F305
:101B3000B3FBF5F318F80660F240072602FB09F242
:101B4000B2FBF5F2032568E040F2100149F2F41807
:101B50004FF0190948F21F5EC2F20001C0F60008FA
:101B6000C5F2EB1E0A68DAF800C0DBF80450DAF8B8
:101B70000040DAF80030C3F38226C4F38224AD00BB
:101B800018F8066018F8044022FA06F122FA04F464
:101B900001FB09F104FB09F4B1FBF5F1B4FBF5F429
:101BA000A1FB0E367309642603FB1613611A194450
:101BB000322303EB0111A1FB0E13F02101EA5311B3
:101BC000CCF3822318F8033022FA03F303FB09F362
:101BD000B3FBF5F3A3FB0E364FF6F073C7F6FF73B6
:101BE00003EA560301EB030CDAF80030C3F3822357
:101BF000DAF8006018F80330C6F3822622FA03F3FD
:101C000003FB09F3B3FBF5F318F80660F2400F2667
:101C100002FB09F2B2FBF5F20425A3EB020E48F237
:101C20001F5443F2000A40F20108C5F2EB14C4F25B
:101C3000010AC0F60078A2FB04135909642301FBD2
:101C400013217144A94040F278053231C2F20005F7
:101C5000A1FB0412002406EA5211012641EA0C01FC
:101C60008160016921F490410161416921F02A01FB
:101C70004161C16841F40051C1602020CBF844406B
:101C80004FF40031CBF83C00CBF84000AAF580506F
:101C90000E942C62C5E90A842C6385E8130028465B
:101CA000C5E90344C5E90564EE6104F0D7FE4FF0D1
:101CB0000B090BA92846CDE90B960D9404F0FAFF09
:101CC000CDE902964FF4801B4FF4602902A9284603
:101CD00006960494CDF828B0CDF82490CDE9076499
:101CE000059405F0FBF840F2C005AAF570600E946B
:101CF000C2F200052C62C5E90A842C6328604FF407
:101D00000030C5E901042846C5E90344C5E9056476
:101D1000EE6104F0A3FE4FF00C080BA92846CDE9B4
:101D20000B860D9404F0C6FF08A8CDE9028602A92F
:101D300080E8100A2846CDE90666CDE9044405F09E
:101D4000CDF840F208150121AAF560600E94C2F2A8
:101D50000005C0F600712C62C5E90A142C632860E6
:101D60004FF40030C5E901042846C5E90344C5E93C
:101D70000564EE6104F072FE4FF00D080BA92846D1
:101D8000CDE90B860D9404F095FF02A92846CDE914
:101D9000028606960494CDE9099BCDE90764A9461D
:101DA000059405F09BF840F214254FF080404FF465
:101DB0008041C2F20005C5E90004C5E902412C6179
:101DC000AC61296C51BB43F60800EC630694CDE985
:101DD0000444CDE902440B94C4F202000146806B36
:101DE00040F001008863886B00F001000B900B98B5
:101DF0000B94886A40F001008862886A02A900F0AA
:101E000001000B900B980220039003200290CDE973
:101E100004440696019806F03DF92868022144F230
:101E2000070247F2040440F220482964C4F2000487
:101E3000C4F201088168A446914340F6FF328160F4
:101E4000C4F200020168904213DC40F25824B0F161
:101E5000804FC2F2000421D040F20043C4F20003DC
:101E600098421BD040F60003C4F20003984215D0FC
:101E700018E040F6004340F25824C4F20003C2F2D6
:101E8000000498420AD040F20043C4F20103984291
:101E900004D00023C4F20103984203D1AB6821F0BF
:101EA0007001194341F6FF73C4F2000398420DDC40
:101EB00090421FDCB0F1804F4ED040F20042C4F29D
:101EC0000002904248D040F6000221E043F6FF7243
:101ED000C4F2010290422DDC42F20002C4F2000280
:101EE000904239D00022C4F20102904234D040F234
:101EF00000422DE040F60042C4F2000290422BD096
:101F000041F60002C4F20002904225D041F60042A0
:101F1000C4F2000290421FD022E000BF0000000087
:101F2000000000000102030406070809000610165D
:101F30000006101644F20002C4F2010290420BD0D7
:101F400044F60002C4F20102904205D044F200427D
:101F5000C4F20102904203D12A6921F44071114375
:101F6000AA6921F08001114340F200420160C4F2ED
:101F70000102E968C1626968816240F4806191424E
:101F800004BF696901630121416182688369066A4E
:101F900042F00302826040F2011262F30F0326F066
:101FA000AA02836102622964EA6B012A0CD0022230
:101FB0002A644268836822F07002426023F0800243
:101FC00082600020E8632964386841F27436C2F206
:101FD00000060290029840F2F51000BF3968C9036C
:101FE00000EBE17078B13968C90300EBE17050B1E2
:101FF0003968C90300EBE17028B13968C90300EB07
:10200000E1700028EAD143F200001825C4F2010073
:10201000C4F202050146006840F0400008604DF23D
:10202000006046F20061C4F20001CFF6FF700A467C
:10203000095841F0400111502068C16841F4005135
:10204000C160D8F8000040F48050C8F8000049F2A0
:10205000FC305CF8001041F001014CF80010402009
:10206000C5F80004306800BF3168091A06290BD290
:102070003168091A052907D83168091A052903D8D2
:102080003168091A0629EFD34FF480702860306850
:102090003168091A02290BD23168091A012907D8B7
:1020A0003168091A012903D83168091A0229EFD3C6
:1020B0004FF0807028604FF400402860306800BF07
:1020C0003168091A03290BD23168091A022907D885
:1020D0003168091A022903D83168091A0329EFD394
:1020E00004F006F84FF40040286030683168091A9F
:1020F00003290BD23168091A022907D83168091A55
:10210000022903D83168091A0329EFD348F6D814F5
:102110004FF00040C0F600042860204605F0EAFDBC
:102120004FF400402860386802900298022000BFF7
:102130003968C90300EBE17078B13968C90300EB75
:10214000E17050B13968C90300EBE17028B139681A
:10215000C90300EBE1700028EAD14FF0004028608D
:10216000A01C05F0C7FD4FF40040286038680290BD
:10217000029802203968C90300EBE17078B1396830
:10218000C90300EBE17050B13968C90300EBE1709D
:1021900028B13968C90300EBE1700028EAD14FF09B
:1021A00000402860201D05F0A5FD4FF40040286088
:1021B00038680290029802203968C90300EBE17088
:1021C00078B13968C90300EBE17050B13968C903CF
:1021D00000EBE17028B13968C90300EBE170002819
:1021E000EAD14FF000402860A01D05F083FD4FF4B8
:1021F0000040286038680290029802203968C903BC
:1022000000EBE17078B13968C90300EBE17050B1BF
:102210003968C90300EBE17028B13968C90300EBE4
:10222000E1700028EAD14FF00040286004F1080076
:1022300005F060FD4FF40040286038680290029875
:10224000022000BF3968C90300EBE17078B139683A
:10225000C90300EBE17050B13968C90300EBE170CC
:1022600028B13968C90300EBE1700028EAD14FF0CA
:102270000040286004F10A0005F03CFD4FF40040E6
:102280002860386802900298022000BF3968C903AC
:1022900000EBE17078B13968C90300EBE17050B12F
:1022A0003968C90300EBE17028B13968C90300EB54
:1022B000E1700028EAD14FF00040286004F10C00E2
:1022C00005F018FD4FF4004028603868029002982D
:1022D000022000BF3968C90300EBE17078B13968AA
:1022E000C90300EBE17050B13968C90300EBE1703C
:1022F00028B13968C90300EBE1700028EAD103F086
:10230000F7FE03F0F5FE03F0F3FE03F0F1FE03F039
:10231000EFFE386802900298652000BF3968C90353
:1023200000EBE17078B13968C90300EBE17050B19E
:102330003968C90300EBE17028B13968C90300EBC3
:10234000E1700028EAD141F29C304BF21771C2F2E1
:102350000000C3F65101016003F086FF04F0F0F9BC
:1023600038680290029802203968C90300EBE170D6
:1023700078B13968C90300EBE17050B13968C9031D
:1023800000EBE17028B13968C90300EBE170002867
:10239000EAD103F069FF04F0D3F93868029002989B
:1023A000022000BF3968C90300EBE17078B13968D9
:1023B000C90300EBE17050B13968C90300EBE1706B
:1023C00028B13968C90300EBE1700028EAD103F0B5
:1023D0004BFF04F0B5F9386802900298022000BF64
:1023E0003968C90300EBE17078B13968C90300EBC3
:1023F000E17050B13968C90300EBE17028B1396868
:10240000C90300EBE1700028EAD103F02DFF04F0CE
:1024100097F9386802900298022000BF3968C90312
:1024200000EBE17078B13968C90300EBE17050B19D
:102430003968C90300EBE17028B13968C90300EBC2
:10244000E1700028EAD103F00FFF04F079F9386851
:1024500002900298022000BF3968C90300EBE170C6
:1024600078B13968C90300EBE17050B13968C9032C
:1024700000EBE17028B13968C90300EBE170002876
:10248000EAD103F0F1FE04F05BF93868029002989B
:10249000022000BF3968C90300EBE17078B13968E8
:1024A000C90300EBE17050B13968C90300EBE1707A
:1024B00028B13968C90300EBE1700028EAD103F0C4
:1024C000D3FE04F03DF9386802900298022000BF64
:1024D0003968C90300EBE17078B13968C90300EBD2
:1024E000E17050B13968C90300EBE17028B1396877
:1024F000C90300EBE1700028EAD103F0B5FE04F057
:102500001FF9386802900298022000BF3968C90399
:1025100000EBE17078B13968C90300EBE17050B1AC
:102520003968C90300EBE17028B13968C90300EBD1
:10253000E1700028EAD103F097FE04F001F9386851
:1025400002900298022000BF3968C90300EBE170D5
:1025500078B13968C90300EBE17050B13968C9033B
:1025600000EBE17028B13968C90300EBE170002885
:10257000EAD103F079FE04F0E3F83868029002989B
:10258000022000BF3968C90300EBE17078B13968F7
:10259000C90300EBE17050B13968C90300EBE17089
:1025A00028B13968C90300EBE1700028EAD103F0D3
:1025B0005BFE04F0C5F8386802900298022000BF64
:1025C0003968C90300EBE17078B13968C90300EBE1
:1025D000E17050B13968C90300EBE17028B1396886
:1025E000C90300EBE1700028EAD103F03DFE04F0DE
:1025F000A7F8386802900298022000BF3968C90322
:1026000000EBE17078B13968C90300EBE17050B1BB
:102610003968C90300EBE17028B13968C90300EBE0
:10262000E1700028EAD103F01FFE04F089F8386851
:1026300002900298022000BF3968C90300EBE170E4
:1026400078B13968C90300EBE17050B13968C9034A
:1026500000EBE17028B13968C90300EBE170002894
:10266000EAD103F001FE04F06BF83868029002989A
:10267000022000BF3968C90300EBE17078B1396806
:10268000C90300EBE17050B13968C90300EBE17098
:1026900028B13968C90300EBE1700028EAD103F0E2
:1026A000E3FD04F04DF8386802900298022000BF64
:1026B0003968C90300EBE17078B13968C90300EBF0
:1026C000E17050B13968C90300EBE17028B1396895
:1026D000C90300EBE1700028EAD103F0C5FD04F066
:1026E0002FF8386802900298022000BF3968C903A9
:1026F00000EBE17078B13968C90300EBE17050B1CB
:102700003968C90300EBE17028B13968C90300EBEF
:10271000E1700028EAD103F0A7FD04F011F8386851
:1027200002900298022000BF3968C90300EBE170F3
:1027300078B13968C90300EBE17050B13968C90359
:1027400000EBE17028B13968C90300EBE1700028A3
:10275000EAD103F089FD03F0F3FF38680290029894
:10276000022000BF3968C90300EBE17078B1396815
:10277000C90300EBE17050B13968C90300EBE170A7
:1027800028B13968C90300EBE1700028EAD103F0F1
:102790006BFD03F0D5FF386802900298022000BF5D
:1027A0003968C90300EBE17078B13968C90300EBFF
:1027B000E17050B13968C90300EBE17028B13968A4
:1027C000C90300EBE1700028EAD103F04DFD03F0EE
:1027D000B7FF386802900298022000BF3968C90329
:1027E00000EBE17078B13968C90300EBE17050B1DA
:1027F0003968C90300EBE17028B13968C90300EBFF
:10280000E1700028EAD103F02FFD03F099FF38684A
:1028100002900298022000BF3968C90300EBE17002
:1028200078B13968C90300EBE17050B13968C90368
:1028300000EBE17028B13968C90300EBE1700028B2
:10284000EAD103F011FD03F07BFF38680290029893
:10285000022000BF3968C90300EBE17078B1396824
:10286000C90300EBE17050B13968C90300EBE170B6
:1028700028B13968C90300EBE1700028EAD103F000
:10288000F3FC03F05DFF386802900298022000BF5D
:102890003968C90300EBE17078B13968C90300EB0E
:1028A000E17050B13968C90300EBE17028B13968B3
:1028B000C90300EBE1700028EAD103F0D5FC03F076
:1028C0003FFF386802900298022000BF3968C903B0
:1028D00000EBE17078B13968C90300EBE17050B1E9
:1028E0003968C90300EBE17028B13968C90300EB0E
:1028F000E1700028EAD103F0B7FC03F021FF38684B
:1029000002900298022000BF3968C90300EBE17011
:1029100078B13968C90300EBE17050B13968C90377
:1029200000EBE17028B13968C90300EBE1700028C1
:10293000EAD103F099FC03F003FF38680290029893
:10294000022000BF3968C90300EBE17078B1396833
:10295000C90300EBE17050B13968C90300EBE170C5
:1029600028B13968C90300EBE1700028EAD103F00F
:102970007BFC03F0E5FE386802900298022000BF5D
:102980003968C90300EBE17078B13968C90300EB1D
:10299000E17050B13968C90300EBE17028B13968C2
:1029A000C90300EBE1700028EAD103F05DFC03F0FD
:1029B000C7FE386802900298022000BF3968C90338
:1029C00000EBE17078B13968C90300EBE17050B1F8
:1029D0003968C90300EBE17028B13968C90300EB1D
:1029E000E1700028EAD103F03FFC03F0A9FE38684B
:1029F00002900298022000BF3968C90300EBE17021
:102A000078B13968C90300EBE17050B13968C90386
:102A100000EBE17028B13968C90300EBE1700028D0
:102A2000EAD103F021FC03F08BFE38680290029893
:102A3000022000BF3968C90300EBE17078B1396842
:102A4000C90300EBE17050B13968C90300EBE170D4
:102A500028B13968C90300EBE1700028EAD103F01E
:102A600003FC03F06DFE386802900298022000BF5C
:102A70003968C90300EBE17078B13968C90300EB2C
:102A8000E17050B13968C90300EBE17028B13968D1
:102A9000C90300EBE1700028EAD103F0E5FB03F085
:102AA0004FFE386802900298022000BF3968C903BF
:102AB00000EBE17078B13968C90300EBE17050B107
:102AC0003968C90300EBE17028B13968C90300EB2C
:102AD000E1700028EAD103F0C7FB03F031FE38684B
:102AE00002900298022000BF3968C90300EBE17030
:102AF00078B13968C90300EBE17050B13968C90396
:102B000000EBE17028B13968C90300EBE1700028DF
:102B1000EAD103F0A9FB03F013FE38680290029893
:102B2000022000BF3968C90300EBE17078B1396851
:102B3000C90300EBE17050B13968C90300EBE170E3
:102B400028B13968C90300EBE1700028EAD103F02D
:102B50008BFB03F0F5FD386802900298022000BF5D
:102B60003968C90300EBE17078B13968C90300EB3B
:102B7000E17050B13968C90300EBE17028B13968E0
:102B8000C90300EBE1700028EAD103F06DFB03F00C
:102B9000D7FD386802900298022000BF3968C90347
:102BA00000EBE17078B13968C90300EBE17050B116
:102BB0003968C90300EBE17028B13968C90300EB3B
:102BC000E1700028EAD103F04FFB03F0B9FD38684B
:102BD00002900298022000BF3968C90300EBE1703F
:102BE00078B13968C90300EBE17050B13968C903A5
:102BF00000EBE17028B13968C90300EBE1700028EF
:102C0000EAD103F031FB03F09BFD38680290029893
:102C1000022000BF3968C90300EBE17078B1396860
:102C2000C90300EBE17050B13968C90300EBE170F2
:102C300028B13968C90300EBE1700028EAD103F03C
:102C400013FB03F07DFD386802900298022000BF5C
:102C50003968C90300EBE17078B13968C90300EB4A
:102C6000E17050B13968C90300EBE17028B13968EF
:102C7000C90300EBE1700028EAD103F0F5FA03F094
:102C80005FFD386802900298022000BF3968C903CE
:102C900000EBE17078B13968C90300EBE17050B125
:102CA0003968C90300EBE17028B13968C90300EB4A
:102CB000E1700028EAD103F0D7FA03F041FD38684B
:102CC00002900298022000BF3968C90300EBE1704E
:102CD00078B13968C90300EBE17050B13968C903B4
:102CE00000EBE17028B13968C90300EBE1700028FE
:102CF000EAD103F0B9FA03F023FD38680290029894
:102D0000022000BF3968C90300EBE17078B139686F
:102D1000C90300EBE17050B13968C90300EBE17001
:102D200028B13968C90300EBE1700028EAD103F04B
:102D30009BFA03F005FD386802900298022000BF5C
:102D40003968C90300EBE17078B13968C90300EB59
:102D5000E17050B13968C90300EBE17028B13968FE
:102D6000C90300EBE1700028EAD103F07DFA03F01B
:102D7000E7FC386802900298022000BF3968C90356
:102D800000EBE17078B13968C90300EBE17050B134
:102D90003968C90300EBE17028B13968C90300EB59
:102DA000E1700028EAD103F05FFA03F0C9FC38684B
:102DB00002900298022000BF3968C90300EBE1705D
:102DC00078B13968C90300EBE17050B13968C903C3
:102DD00000EBE17028B13968C90300EBE17000280D
:102DE000EAD103F041FA03F0ABFC38680290029894
:102DF000022000BF3968C90300EBE17078B139687F
:102E0000C90300EBE17050B13968C90300EBE17010
:102E100028B13968C90300EBE1700028EAD103F05A
:102E200023FA03F08DFC386802900298022000BF5C
:102E30003968C90300EBE17078B13968C90300EB68
:102E4000E17050B13968C90300EBE17028B139680D
:102E5000C90300EBE1700028EAD103F005FA03F0A2
:102E60006FFC386802900298022000BF3968C903DD
:102E700000EBE17078B13968C90300EBE17050B143
:102E80003968C90300EBE17028B13968C90300EB68
:102E9000E1700028EAD103F0E7F903F051FC38684B
:102EA00002900298022000BF3968C90300EBE1706C
:102EB00078B13968C90300EBE17050B13968C903D2
:102EC00000EBE17028B13968C90300EBE17000281C
:102ED000EAD103F0C9F903F033FC38680290029894
:102EE000022000BF3968C90300EBE17078B139688E
:102EF000C90300EBE17050B13968C90300EBE17020
:102F000028B13968C90300EBE1700028EAD103F069
:102F1000ABF903F015FC386802900298022000BF5C
:102F20003968C90300EBE17078B13968C90300EB77
:102F3000E17050B13968C90300EBE17028B139681C
:102F4000C90300EBE1700028EAD141F2943041F26C
:102F5000DC25002441F29831C2F20000C2F20005E3
:102F6000C2F200010460288808800121D8F800001E
:102F700040F00100C8F80000D8F8000040F0100050
:102F8000C8F80000D8F8000040F48070C8F80000CD
:102F9000D8F8000040F00400C8F80000D8F800009D
:102FA00040F04000C8F80000D8F8000040F480600D
:102FB000C8F8000058F8140C40F0010048F8140C50
:102FC00041F27830C2F20000017002F095FD41F24A
:102FD000D0300021C2F20000C4F24831016045F651
:102FE000D0304FF07E51288641F2004040F250151B
:102FF000C2F20000C2F20005046041F21840C2F2C1
:103000000000016041F21C40C2F200000160286B28
:103010000138012835D846F20060C4F200000246AB
:10302000006840F001001060106820F47C501060CF
:10303000106840F46060106046F21C60C4F200004A
:10304000016821F00101016050F8101C21F001011C
:1030500040F8101C4462846250F8181C21F00101F1
:1030600040F8181C50F8081C21F0010140F8081C19
:10307000016841F001010160106820F0010010605A
:1030800003E0686B40F480206863286B01280ED150
:10309000022028632968086820F001000860306871
:1030A000496811F0010F40F08280002002E0686B57
:1030B00040F40020686329682A6B05F134004FF45E
:1030C0008027013A022A024638BF01F114024FF468
:1030D0008021136838BF02273B434FF480271360D9
:1030E0002A682B6B013B022B034638BF02F1140305
:1030F0001A6838BF4FF400673A434FF480271A60CC
:103100002A682B6B013B022B034638BF02F11403E4
:103110001A6838BF4FF480673A431A602A682B6BED
:10312000013B022B38BF02F11400026838BF4FF494
:1031300000411143016041F27930C2F20000007891
:10314000012833D140F2780440F2C005C2F20004F5
:10315000C2F200052068816841F0010181602868A1
:10316000816841F001018160D9F80000816841F077
:1031700001018160284603F03FFE484603F03CFE13
:10318000204603F039FEA06B0068016821F01801A9
:103190000160A86B0068016821F018010160D9F88E
:1031A00038000068016821F018010160FEE7296815
:1031B0003268121A0B2A1FD24A6812F0010F3FF42C
:1031C00074AF3268121A0A2A16D84A6812F0010F30
:1031D0003FF46BAF3268121A0A2A0DD84A6812F00F
:1031E000010F3FF462AF3268121A0A2A04D84A6803
:1031F00012F0010FDCD158E7686B40F400306863CF
:103200000520286357E700BF10B540F28814C2F2CA
:10321000000420694D38042888BF10BDDFE800F0A5
:1032200003121E43520041F22C40C2F2000000681B
:1032300005F02CFB9FED4C0B53EC102B05F05CF9CB
:103240000D224DE041F2DC209FED490AC2F2000060
:1032500090ED031A0E2021EE000A0CE041F29430AA
:10326000B4EE001AC2F2000090ED000A0F20B8EE92
:10327000C00A20EE010A41F2A0310122BDEEC01ABF
:10328000BDEEC00A207284F82000C2F2000184ED75
:10329000051A10EE100A0A7041F2A4310422C2F29B
:1032A00000010A6030E041F2DC30C2F20000006848
:1032B00005F0ECFA9FED2C0B53EC102B05F01CF9EC
:1032C00010220DE041F2CC30C2F20000006805F09F
:1032D000DDFA9FED250B53EC102B05F00DF91122B3
:1032E00041F2A03C0123227284F82020C2F2000C9B
:1032F0008CF8003041F2A43C0423C2F2000CCCF85C
:10330000003005F0C9F860610028014648BF41421D
:10331000B0F1FF3F4FEA112284F8211084F82220F7
:103320004FF0800242EA1142C8BF0A0C84F8232001
:1033300003F09AFF40F25010C2F2000000F1340195
:103340000268006B0138022838BF02F114014FF403
:103350008022086838BF01221043086000202061E5
:1033600010BD00BF00BF00BF0000000000408F4044
:1033700083F9224443F20801C4F2010188800868FD
:1033800010F0020F1BD196204FF6FF7C0B6813F054
:10339000020F18D1831E13EA0C0F12D00A6812F024
:1033A000020F12D10A6812F0020F10D1043810EA8D
:1033B0000C0F06D00A6812F0020FE7D008E0962042
:1033C00006E0002004E0013802E0184600E003387F
:1033D0000A6812F0800F1CD04FF6FF7C83B2012BDD
:1033E00017D00A6812F0800F18BF022B11D00A689C
:1033F00012F0800F18BF032B0BD00A6812F0800F59
:1034000007D0043810EA0C0F03D00A6812F0800FBE
:10341000E4D181B048680090009808680090009856
:1034200001B0704780B581B043F2080C4FF6FF7EC3
:10343000C4F2010CACF804E0DCF8001011F0010F4C
:103440001DD19621DCF8002012F0010F1BD18A1E3D
:1034500012EA0E0F15D0DCF8003013F0010F14D172
:10346000DCF8002012F0010F11D1043911EA0E0F1F
:1034700007D0DCF8002012F0010FE3D008E096211D
:1034800006E0002104E0013902E0114600E00339C2
:10349000DCF804200280DCF8000010F0020F25D1D7
:1034A0004FF6FF704A1E02421DD0DCF8003013F0C8
:1034B000020F1AD18A1E024215D0DCF8003013F038
:1034C000020F12D1CA1E02420DD0DCF8003013F0F8
:1034D000020F0AD10439014205D0DCF8002012F0B5
:1034E000020FDFD002E0002100E01146DCF800000E
:1034F00010F0800F1FD04FF6FF708BB2012B1AD047
:10350000DCF8002012F0800F18BF022B13D0DCF87B
:10351000002012F0800F18BF032B0CD0DCF8002025
:1035200012F0800F07D00439014204D0DCF80020EB
:1035300012F0800FE1D1DCF8040000900098DCF874
:1035400000000090009801B080BD00BF70B540F24F
:10355000040640F20004C2F20006C2F20004306821
:1035600021680D1A40F2A3718D4238BF70BDA9B217
:1035700004F0C8FC40F20433326840F6D421C2F2B1
:103580000003C2F200019A4218BF194600283160B8
:1035900021601FD044F64450C5F64170086047F2E0
:1035A0004250C6F26660486047F26520C4F65F701C
:1035B000886046F27650C6F27260C86046F66C705B
:1035C000C0F67750086101F1150020600A200875E7
:1035D000FFF7BCFFB5F5FA6F12D945F24F612068CD
:1035E000C5F24521016044F6464181804F21817139
:1035F00000F1080121605721C171BDE87040A5E7C5
:1036000070BD00BF704700BF2DE9F04F81B04EF292
:10361000100440F2000849F2002740F2040B40F287
:10362000881940F2501ACEF20004C2F20008C0F627
:103630000007C2F2000BC2F20009C2F2000A00BF8A
:10364000D8F8001048226123481CC8F800000A700E
:10365000002200BF8E187370BB189D7865B1B570DD
:10366000DD785DB1F5701D7955B15B7904320430B8
:103670003571002BEED18818013002E0023000E0F5
:103680000330C8F80000FFF761FFDBF80000D8F84E
:103690000010091A89B204F035FC40F20432DBF85C
:1036A0000010C2F200029142114640F6D422C2F24A
:1036B000000208BF11460028CBF80010C8F800101F
:1036C00020D044F64450C5F64170086047F242509D
:1036D000C6F26660486047F26520C4F65F70886095
:1036E00046F27650C6F27260C86046F66C70C0F65C
:1036F0007750086101F11500C8F800000A2008752C
:10370000FFF724FF41F2A03101220020C2F20001A4
:10371000C9F81400FF200A7041F2A43189F80800AA
:1037200089F82000C2F200010A6003F09DFDDAF87A
:103730000010DAF830200AF13400013A022A4FF47E
:10374000802238BF01F11400016838BF0122114303
:103750000160206800900098022000BF2168C90322
:1037600000EBE17000283FF46BAF2168C90300EB68
:10377000E17000283FF464AF2168C90300EBE170F9
:1037800000283FF45DAF2168C90300EBE170002819
:10379000E4D155E7FEE700BFFEE700BFFEE700BF4C
:1037A000704700BF704700BF704700BF41F27430E0
:1037B000C2F20000016801310160704703F09CBD56
:1037C00003F09ABD80B540F2582CC2F2000CDCF830
:1037D00000E0DEF80020DEF80C30DEF8140012F015
:1037E0000F0F4FD003F4907100F00100014364D03B
:1037F000D1071FBF13F48071DCF8441041F00101C0
:10380000CCF84410510707D500281EBFDCF844103F
:1038100041F00201CCF84410910707D500281EBFE3
:10382000DCF8441041F00401CCF84410110707D52E
:1038300000281EBFDCF8440040F00800CCF844002B
:10384000DCF84400002800F01E8103EA0200800634
:1038500040F1E280DCF84000222840F0DD80DCF816
:103860000800B0F5805F40F08080DCF81020DCF8C4
:103870002800DEF80410002A00F0A880C9B220F861
:10388000011BA7E003EA020010F0200F17D0DCF8BC
:103890004000222840F0F780DCF80800B0F5805F97
:1038A00053D1DCF81020DCF82800DEF80410002AE0
:1038B0006BD0C9B220F8011B6BE003EA02000106DD
:1038C0000CD4400658BF80BDDEF80C0020F040004C
:1038D000CEF80C002020CCF83C00D4E0DCF83C0012
:1038E000212840F0D080DCF80810DCF82000B1F589
:1038F000805F0DD101886FF35F21CEF80410DCF8F2
:103900001010002914BF01300230CCF8200005E06F
:10391000411CCCF820100078CEF80400BCF826003A
:103920004FF6FF7101380842ACF8260040F0AB803A
:10393000DEF80C0020F08000CEF80C00DEF80C0061
:1039400040F04000CEF80C0080BDDCF81020DEF81E
:103950000400DCF82810002A01F10102CCF828202C
:1039600018BF00F07F00087015E0DCF81010DEF8DA
:1039700004000029DCF8281001F10102CCF828200D
:1039800018BF00F07F00087026E06FF35F2120F879
:10399000021BCCF82800BCF82E004FF6FF7101384E
:1039A0000842ACF82E006ED1DCF80000C16821F0AE
:1039B0002001C160C16821F48071C160416921F0BA
:1039C000010141612020CCF8400080BD6FF35F21F0
:1039D00020F8021BCCF82800BCF82E004FF6FF712F
:1039E0000138ACF82E000842DCF800E014D1DEF813
:1039F0000C0020F02000CEF80C00DEF80C0020F4C3
:103A00008070CEF80C00DEF8140020F00100CEF833
:103A100014002020CCF84000DEF81400DCF844103C
:103A200000F0400001F0080108432DD0DEF80C0042
:103A300020F49070CEF80C00DEF8140020F00100A5
:103A4000CEF814002020CCF84000DEF8140010F06E
:103A5000400F18D0DEF8140020F04000CEF814001B
:103A6000DCF8340078B148F28901C0F60001416504
:103A7000816B02290CD1052181630068016821F066
:103A80000101016080BD80BD0020CCF8440080BDF4
:103A900080218165BDE8804004F0F6BAF0B581B0C0
:103AA000002040F2A02448F2B5130821009040F213
:103AB0001000C2F20004C1F64E33C2F200000268E8
:103AC000D4E9176037688140A2FB032539420DD045
:103AD0002268136813F0040F08D0136823F004035E
:103AE0001360B160A16D41F00101A1650121814028
:103AF000394209D02268526912F0800F04D0B160B7
:103B0000A16D41F00201A16504218140394209D033
:103B10002268126812F0020F04D0B160A16D41F06A
:103B20000401A1651021814039421AD02068026841
:103B300012F0080F15D0B1600268016812F4802FEE
:103B400006D1C9055EBF016821F00801016001E0EE
:103B5000080343D4616C21B140F2A020C2F20000FE
:103B60008847216E202000FA01F23A4246D02068B0
:103B7000036813F0100F41D0B260A36B0268052BED
:103B80001ED122F016020260426922F080024261D8
:103B9000626CE36C1A431EBF026822F008020260E6
:103BA0003F208840B0600120A06300206063616D09
:103BB000002962D040F2A020C2F2000088475CE0F9
:103BC000016852030ED4C90511D4016821F0100117
:103BD00001600120A0630020606308E0E16C00291F
:103BE000BAD1BEE7080302D4A16C11B906E0216C7A
:103BF00021B140F2A020C2F200008847A06DE0B3DE
:103C0000A06D10F0010F2FD00521A80AA163216833
:103C10000A6822F001020A60009A01328242009290
:103C20001ED80A6812F0010F1AD0009A013282429F
:103C3000009215D80A6812F0010F11D0009A0132D3
:103C4000824200920CD80A6812F0010F08D0009A44
:103C500001328242009203D80A6812F0010FDBD1D0
:103C60000120A06300206063216D31B140F2A020EB
:103C7000C2F20000884701B0F0BD01B0F0BD00BF46
:103C80002DE9F0472DED0C8B40F2081840F2C00AE8
:103C900040F278069FEDEB3A9FEDEB2A41F2B03708
:103CA00041F2AC34C2F20008C2F2000AC2F20006CD
:103CB000C2F20007C2F20004D8F80000B0EE435A86
:103CC00090ED0F0AB8EE400ADAF8000090ED0F1AF6
:103CD000B8EE411A306801EE425AB0EE431AC06B9A
:103CE00000EE421A04EE100A41F2B430B8EE444A33
:103CF000C2F2000087ED005A84ED001A04EE423A49
:103D000080ED003A02F0B0FA41F27930C2F20000E0
:103D10000078012841F0FD8541F27830C2F20000C0
:103D200000780138052801F2F485DFE810F006007C
:103D3000CE0051000D018E00440140F20805C2F290
:103D4000000528880130288080B20A2841F0F481DB
:103D500002F0F6FC41F29C3041F2004141F208428F
:103D600041F20C43B2EE041AC2F20000C2F20001AA
:103D7000C2F20002C2F2000390ED000A41F2D82024
:103D800091ED002A93ED004A92ED005AC2F2000034
:103D900020EE016AB5EEC02A90ED003A24EE064A04
:103DA00026EE055AF1EE10FA40F3CA83B5EEC03A9A
:103DB000F1EE10FAC0F2C48333EE456AB4EEC26A83
:103DC000F1EE10FA80F2F38533EE052A01F057B9CF
:103DD00040F20C05C2F2000528880130288080B22C
:103DE0000A2840F0E98102F0ABFC41F2903041F248
:103DF00094319FED963AC2F20000C2F2000190EDBC
:103E0000001A91ED000A41F27C30C2F20000B8EED7
:103E1000C00AB8EEC11A90ED002A21EE031A20EE76
:103E2000030AB4EEC21AF1EE10FA80F2938141F265
:103E30008030C2F2000090ED002AB4EEC21AF1EE1A
:103E400010FAD8BFB0EE421A86E102F079FC41F2D6
:103E50009C3041F2004141F2084241F20C43B2EE83
:103E6000041AC2F20000C2F20001C2F20002C2F261
:103E7000000390ED000A41F2D82091ED002A93ED65
:103E8000004A92ED005AC2F2000020EE016AB5EE3F
:103E9000C02A90ED003A24EE064A26EE055AF1EECD
:103EA00010FA40F3B980B5EEC03AF1EE10FAC0F264
:103EB000B38033EE456AB4EEC26AF1EE10FA80F2D6
:103EC000A68133EE052A00F0CDBD40F20A09C2F208
:103ED0000009B9F800000130A9F8000080B20A28F2
:103EE00041F03E8302F02CFC41F2903041F29431DB
:103EF0009FED563AC2F20000C2F2000190ED001AA6
:103F000091ED000A41F27C30C2F20000B8EEC02A06
:103F1000B8EEC11A90ED000A22EE032A21EE033A10
:103F2000B4EEC03AF1EE10FA80F21A8341F280301A
:103F3000C2F2000090ED000AB4EEC03AF1EE10FAC1
:103F4000D8BFB0EE403A0DE341F2284094ED000AAC
:103F500041F2DC249FED3E1A9FED3E3A9FED3E5A22
:103F600097ED006AC2F20000C2F2000490ED004A30
:103F700041F2C03020EE012A94ED071AC2F200008F
:103F800006EE052A80ED000A41F2D43064EE030A01
:103F9000B5EEC01AC2F20000F1EE10FAC0ED000A50
:103FA00041F2C430C2F2000080ED002A44DA80F20F
:103FB0004583A06A41E002F0C3FB41F2903741F231
:103FC000943941F27C309FED213AC2F20007C2F2EF
:103FD0000009C2F2000099ED000A97ED001AB8EE50
:103FE000C02AB8EEC11A90ED000A22EE032A21EE93
:103FF000033AB4EEC03AF1EE10FA39DA41F2803009
:10400000C2F2000090ED000AB4EEC03AF1EE10FAF0
:10401000D8BFB0EE403A2DE0B5EEC02AF1EE10FA6E
:1040200040F30081B5EEC03AF1EE10FA80F2FA806A
:1040300033EE042A00F016BD606A03EE100A206217
:10404000FEE200BF0000A5430000253EDB0F49391A
:104050003ACD133F224274423ACD933F610B363B37
:1040600000000044DB0F49BCDB0F493C00000000AE
:10407000B0EE403A41F2843141F29C3241F2883054
:1040800041F28C34B2EE041A33EE426A41F2084334
:1040900041F20C45C2F20001C2F20002C2F200007D
:1040A000C2F20004C2F20003C2F2000592ED000A5F
:1040B00091ED004A90ED002A41F2004241F2D820F1
:1040C00095ED007AD3ED001A81ED006A41F2D4310A
:1040D000C2F20002C2F20000C2F2000136EE443A1F
:1040E00020EE015A94ED004A62EE060A83EE052A9C
:1040F00090ED003A44EE020A92ED002A27EE054ABE
:1041000021EE855AC1ED000AB5EEC02AF1EE10FA93
:1041100010DDB5EEC03AF1EE10FA0BDB33EE456A76
:10412000B4EEC26AF1EE10FA80F2008433EE052A92
:1041300000F037BEB5EEC02AF1EE10FA40F300846D
:10414000B5EEC03AF1EE10FA80F2FA8333EE042AAB
:1041500000F027BEB0EE421A41F2843041F28831BD
:1041600041F29C3231EE400AB2EE044AC2F2000043
:10417000C2F20001C2F2000290ED003A91ED001A85
:1041800092ED002A41F28C3180ED000A41F2D430E8
:10419000C2F20001C2F2000022EE042A30EE433ADD
:1041A00091ED004A21EE001A002183EE022A2980B7
:1041B00004EE021A80ED001A94ED000A41F2DC24AC
:1041C0001FED5D1A41F2C0301FED5D3A97ED004AD8
:1041D000C2F20004C2F2000020EE012A94ED071A98
:1041E00080ED000A41F2C43004EE032AC2F200005E
:1041F000B5EEC01A80ED002AF1EE10FA02DA21DAEB
:10420000A06A00E0606A03EE100A20621CE033EE50
:10421000045AB4EEC25AF1EE10FAC8BF33EE442A83
:1042200000F020BCB5EEC02AF1EE10FA80F2A383B4
:10423000B5EEC03AF1EE10FAC0F29D8333EE442A97
:1042400000F010BC94ED083A41F29C3094ED045A11
:1042500023EE011A1FED7FBA1FED7FDA48F6F01545
:10426000B8EE00CAB0EE089A1FED82AA1FED828A4E
:1042700041F2CC37C2F20000C0F60005C2F20007DE
:1042800090ED004A21EE043A35EE031A21EE0B1AA6
:10429000BDEEC14AB5EEC01A14EE100AF1EE10FAE6
:1042A000B8BF013804EE100AB8EEC44A31EE441A21
:1042B00021EE0D1ABDEEC14A14EE100A00F1800184
:1042C0006FF35F206FF35F2101EE900A05EB810130
:1042D000F8EE611A84ED0B3A91ED004A91ED015A26
:1042E00005EB800131EE611A41F2D43091ED006AA4
:1042F00091ED017AC2F2000074EE040A75EE443AC0
:10430000F1EE462A75EE200A77EE464A73EEA35A7E
:1043100063EE893A35EE045A72EEC72A16EE0C7A2D
:1043200052EE885A47EE0A3A74EEA46A60EE8A0AA0
:1043300045EE813A55EE086A44EE890A23EE817A09
:1043400024EE085A46EE810A06EE487A00EE815ABB
:10435000D0ED000A41F2C83007EE014A05EE016ACD
:10436000C2F2000026EE021A64EE021A04EE001AEF
:1043700046EE401A1FEDC30A80ED001AC7ED001A81
:1043800001F0AEFD94ED040A94ED0B1A31EE000A33
:1043900020EE0B0ABDEEC01AB5EEC00A11EE100AEF
:1043A000F1EE10FAB8BF013801EE100AB8EEC11AEA
:1043B00030EE410A20EE0D0ABDEEC01A11EE100AD1
:1043C00000F180016FF35F206FF35F2105EB800246
:1043D00005EE100A41F2DC3005EB810192ED001A86
:1043E00092ED012AB8EE455AC2F2000091ED003A72
:1043F00091ED014A30EE450A41F2D831B1EE416A01
:1044000072EE412AC2F2000134EE437A73EE030ADF
:1044100036EE426A11EE0C2A77EE071A27EE097A79
:1044200074EE200A56EE081A02EE0A7A20EE8A5A34
:1044300034EE032A32EEA24A01EE807A12EE084AE6
:1044400002EE895A27EE002A04EE005A91ED004A46
:1044500023EE086A01EE482A05EE006A02EE003AF1
:1044600090ED002A06EE001A41F2B83023EE040A5D
:10447000C2F2000061EE040A01EE420A43EE020AB3
:1044800080ED000A41F2BC30C2F20000C0ED000A2B
:1044900001F064FA9FED611A97ED000A41F22C4099
:1044A00041F2B824C2F20000C2F2000420EE011A68
:1044B00080ED001A2068411C002821601CD110EEFC
:1044C000100A04F0E3F99FED560B53EC102B04F0A7
:1044D00013F80022226003F0DFFF40F2000449F2EB
:1044E000FC110246C2F20004C0F600012068FBF78E
:1044F00029FF216808442060FFF728F841F2BC201A
:10450000C2F2000001684A1C0029026014D1002197
:1045100040F20004016041F29431C2F20004C2F2A0
:10452000000120680A6849F20F21C0F60001FBF77C
:1045300009FF216808442060FFF708F801F0E9B995
:10454000B5EEC02AF1EE10FA40F33B82B5EEC03A68
:10455000F1EE10FA80F2358233EE042A00F08FBDBE
:10456000B0EE403A41F2843141F29C3241F288305F
:1045700041F28C35B2EE041A33EE426A41F20C433A
:10458000C2F20001C2F20002C2F20000C2F2000553
:10459000C2F2000392ED000A91ED004A90ED002A6C
:1045A00041F2084295ED005A41F2D82081ED006AAF
:1045B00041F20041C2F20002C2F20000C2F2000168
:1045C00036EE443A20EE017A22EE062A93ED004AB6
:1045D000D2ED000AC3EE071A90ED003A05EE212A4B
:1045E00081ED002AB5EEC02A24EE074A20EE875A54
:1045F000F1EE10FA40F3B181B5EEC03AF1EE10FAE7
:10460000C0F2AB8133EE456AB4EEC26AF1EE10FA45
:1046100080F2E68133EE052A00F044BF2E27863C67
:104620000000000000408F40610B363B000000445A
:10463000DB0F49BCDB0F493C0000000094ED083A59
:1046400041F29C3094ED045A23EE011A1FED0ABA90
:104650001FED0ADA48F6F017B8EE00CAB0EE089A75
:104660001FED0DAA1FED0D8A41F2CC35C2F20000FC
:10467000C0F60007C2F2000590ED004A21EE043AB0
:1046800035EE031A21EE0B1ABDEEC14AB5EEC01A83
:1046900014EE100AF1EE10FAB8BF013804EE100A59
:1046A000B8EEC44A31EE441A21EE0D1ABDEEC14AED
:1046B00014EE100A00F180016FF35F206FF35F21A9
:1046C00002EE900A07EB8101F8EE622A84ED0B3AC4
:1046D00091ED004A91ED015A07EB800131EE621A2B
:1046E00041F2C83091ED006A91ED017AC2F200000A
:1046F00074EE041A75EE444AF1EE463A75EE211A4C
:1047000077EE465A74EEA46A64EE894A35EE045A8E
:1047100073EEC73A16EE0C7A53EE886A47EE0A4AF1
:1047200075EEA57A61EE8A1A46EE814A55EE087A50
:1047300045EE891A24EE817A24EE085A47EE811A52
:1047400006EE487A01EE815A07EE014A05EE016A4B
:1047500026EE021A64EE021A04EE001A46EE401A21
:104760001FED4B0A80ED001AC5ED001A01F0B8FBF1
:1047700094ED040A94ED0B1A31EE000A20EE0B0AB8
:10478000BDEEC01AB5EEC00A11EE100AF1EE10FA35
:10479000B8BF013801EE100AB8EEC11A30EE410A76
:1047A00020EE0D0ABDEEC01A11EE100A00F18001D4
:1047B0006FF35F206FF35F2107EB800205EE100AB5
:1047C00041F2DC3007EB810192ED001A92ED012AF3
:1047D000B8EE455AC2F2000091ED003A91ED014A5F
:1047E00030EE450A41F2D831B1EE416A72EE412A0B
:1047F000C2F2000134EE437A73EE030A36EE426AE7
:1048000011EE0C2A77EE071A27EE097A74EE200AC9
:1048100056EE081A02EE0A7A20EE8A5A34EE032A7D
:1048200032EEA24A01EE807A12EE084A02EE895A6E
:1048300027EE002A04EE005A91ED004A23EE086AA2
:1048400001EE482A05EE006A02EE003A90ED002AD9
:1048500006EE001A41F2B83023EE040AC2F200005C
:1048600061EE040A01EE420A43EE020A80ED000AFC
:1048700041F2BC30C2F20000C0ED000A01F06EF857
:104880001FED9A1A95ED000A41F22C4041F2C02426
:10489000C2F20000C2F2000420EE011A80ED001AFC
:1048A0002068411C002821601CD110EE100A03F082
:1048B000EDFF1FEDA50B53EC102B03F01DFE0022A6
:1048C000226003F0E9FD40F2000449F2FC110246C7
:1048D000C2F20004C0F600012068FBF733FD216836
:1048E00008442060FEF732FE41F2C420C2F200000C
:1048F00001684A1C0029026014D1002140F2000422
:10490000016041F29431C2F20004C2F20001206859
:104910000A6849F20F21C0F60001FBF713FD216878
:1049200008442060FEF712FE00F0F3BF33EE045A95
:10493000B4EEC25AF1EE10FAC8BF33EE442A30E2A8
:10494000B5EEC02AF1EE10FA55DAB5EEC03AF1EE46
:1049500010FA50DB33EE442A23E2B5EEC02AF1EE22
:1049600010FA66DDB5EEC03AF1EE10FA61DA33EE18
:10497000042A00F097BDB5EEC02AF1EE10FA68DA0D
:10498000B5EEC03AF1EE10FA63DA33EE446AB4EEF3
:10499000C26AF1EE10FAFFF64BAB33EE054AB4EE05
:1049A000C24AF1EE10FAC8BF33EE452A5AE033EEA0
:1049B000045AB4EEC25AF1EE10FAC8BF33EE442ADC
:1049C0005DE3B5EEC02AF1EE10FA80F2A581B5EEF6
:1049D000C03AF1EE10FAC0F29F8133EE442A4EE362
:1049E00033EE045AB4EEC25AF1EE10FAC8BF33EEF9
:1049F000442A00F057BDB5EEC02AF1EE10FA80F25D
:104A0000C781B5EEC03AF1EE10FA80F2C18133EE03
:104A1000446AB4EEC26AF1EE10FAFFF697AB33EED9
:104A2000054AB4EEC24AF1EE10FAC8BF33EE452A89
:104A3000B7E1B5EEC02AF1EE10FA80F28B81B5EE47
:104A4000C03AF1EE10FAC0F2858133EE442A00F04C
:104A500029BDB5EE402AB0EE432AF1EE10FA03D19B
:104A60009FEDDE2A80ED002A41F2044041F2DC2471
:104A7000C2F20000C2F2000490ED004A94ED033A45
:104A8000B4EEC42AF1EE10FA09DAB1EE444AB4EEFB
:104A9000C42AF1EE10FAD8BFB0EE442A01E0B0EE1D
:104AA000442A41F2144032EE432A41F21041C2F24C
:104AB000000022EE014A9FEDCA1AC2F2000190EDF9
:104AC000003A81ED002A04EE003A80ED003AB4EE9F
:104AD000C13AF1EE10FA06DA9FEDC21AB4EEC13A0D
:104AE000F1EE10FA03DCB0EE413A80ED001A41F22B
:104AF000184241F2244041F21C419FEDBB5A94ED13
:104B0000066AC2F20002C2F20000C2F2000192ED97
:104B1000001A90ED004A91ED007A26EE055A41F216
:104B20002040C2F2000022EE011A34EE052A03EE04
:104B3000071A80ED001AB4EEC21AF1EE10FA06DA86
:104B400035EE442AB4EEC21AF1EE10FA03DCB0EEF0
:104B5000421A80ED002A94ED072AB5EEC02AF1EE44
:104B600010FA02DA06DAA06A00E0606A03EE100AC0
:104B7000206201E094ED083A23EE022A94ED044A03
:104B80009FED9A5A48F6F012DFED995AF8EE003A86
:104B9000F0EE084ADFED977A22EE002AC0F6000216
:104BA00034EE020A20EE050ABDEEC03AB5EEC00AA8
:104BB00013EE100AF1EE10FA9FED8F3AB8BF0138EC
:104BC00004EE100AB8EEC44A30EE440A20EE030A9E
:104BD000BDEEC03A13EE100A00F180016FF35F20C2
:104BE0006FF35F2100EE900A02EB8101F8EE600A9C
:104BF00084ED0B2A91ED003A91ED014A02EB800120
:104C000030EE600A41F2B83091ED005A91ED016A40
:104C1000C2F2000033EE037A74EE432A34EE077AD0
:104C2000F1EE451A76EE456A32EEA28A62EEA42AC9
:104C300034EE034A71EEC61A15EE236A11EEA78A06
:104C400046EE252A76EEA63A27EE257A48EE002A89
:104C500054EE273A06EEA47A23EE274A03EE807A32
:104C600022EE806A07EE004A05EE676A04EE005AFB
:104C700006EE003A25EE410A63EE010A80ED000AD5
:104C800041F2BC30C2F20000C0ED000A00F066FE46
:104C900041F2C820C2F2000001684A1C00290260EB
:104CA00015D140F2000594ED060A0021C2F200057C
:104CB000016049F2FC112868BDEEC00AC0F600018F
:104CC00010EE102AFBF73EFB296808442860FEF727
:104CD0003DFC41F2CC20C2F2000001684A1C0029D0
:104CE000026015D194ED050A40F200040021C2F2E1
:104CF0000004016049F20F212068BDEEC00AC0F631
:104D0000000110EE102AFBF71DFB2168084420600B
:104D1000FEF71CFC00F0FDBDB5EEC02AF1EE10FA66
:104D200080F2A481B5EEC03AF1EE10FA80F29E81D5
:104D300033EE446AB4EEC26AF1EE10FAFFF60CAC40
:104D400033EE054AB4EEC24AF1EE10FAC8BF33EEB4
:104D5000452A94E1B5EEC02AF1EE10FA80F299836B
:104D6000B5EEC03AF1EE10FA80F2938333EE446A66
:104D7000B4EEC26AF1EE10FAFFF6F9AD33EE054A71
:104D8000B4EEC24AF1EE10FAC8BF33EE452A89E309
:104D9000B5EE402AB0EE432AF1EE10FA03D19FEDB2
:104DA0000F2A80ED002A41F20440C2F2000090ED8B
:104DB000004A41F2DC20C2F20000B4EEC42A90EDB9
:104DC000033AF1EE10FA1DDAB1EE444AB4EEC42A09
:104DD000F1EE10FAD8BFB0EE442A15E00000000052
:104DE000D253FB41D253FBC1776CCC3A610B363BBB
:104DF000DB0F49BCDB0F493C000000443ACD133FB8
:104E00003ACD933FB0EE442A41F2144132EE432AA8
:104E100041F21042C2F2000122EE014A1FED101AC7
:104E2000C2F2000291ED003A82ED002A04EE003A4F
:104E300081ED003AB4EEC13AF1EE10FA06DA1FED58
:104E4000171AB4EEC13AF1EE10FA03DCB0EE413AB3
:104E500081ED001A41F2184341F2244141F21C4213
:104E60001FED1F5A90ED066AC2F20003C2F2000164
:104E7000C2F2000293ED001A91ED004A92ED007A21
:104E800026EE055A41F22041C2F2000122EE011A3B
:104E900034EE052A03EE071A81ED001AB4EEC21AA9
:104EA000F1EE10FA06DA35EE442AB4EEC21AF1EE4B
:104EB00010FA03DCB0EE421A81ED002A90ED072AC9
:104EC000B5EEC02AF1EE10FA02DA06DA816A00E0E5
:104ED000416A03EE101A016201E090ED083A23EEF8
:104EE000022A90ED044A1FED3F5A48F6F0135FED99
:104EF000405AF8EE003AF0EE084A5FED427A22EEB0
:104F0000002AC0F6000334EE020A20EE050ABDEEC8
:104F1000C03AB5EEC00A13EE101AF1EE10FA1FED0A
:104F20004A3AB8BF013904EE101AB8EEC44A30EE5E
:104F3000440A20EE030ABDEEC03A13EE101A01F146
:104F400080026FF35F216FF35F2200EE901A03EB94
:104F50008202F8EE600A80ED0B2A41F2B83092ED41
:104F6000003A92ED014A03EB810230EE600AC2F290
:104F7000000092ED005A92ED016A33EE037A74EE6E
:104F8000432A34EE077AF1EE451A76EE456A32EEA0
:104F9000A28A62EEA42A34EE034A71EEC61A15EE16
:104FA000236A11EEA78A46EE252A76EEA63A27EE68
:104FB000257A48EE002A54EE273A06EEA47A23EE2C
:104FC000274A03EE807A22EE806A07EE004A05EE59
:104FD000676A04EE005A06EE003A25EE410A63EED7
:104FE000010A80ED000A41F2BC30C2F20000C0EDBF
:104FF000000A00F0B3FC41F2D020C2F200000168C8
:105000004A1C0029026010D140F2000400213A68D5
:10501000C2F20004016049F2FC112068C0F60001F0
:10502000FBF790F9216808442060FEF78FFA41F2FF
:10503000D420C2F2000001684A1C0029026011D18C
:1050400040F200040021D9F80020C2F200040160FF
:1050500049F20F212068C0F60001FBF773F92168BF
:1050600008442060FEF772FA00F053BCB5EE402A07
:10507000B0EE432AF1EE10FA03D11FEDA82A80ED1D
:10508000002A41F20440C2F2000090ED004A41F2D1
:10509000DC20C2F20000B4EEC42A90ED033AF1EE37
:1050A00010FA09DAB1EE444AB4EEC42AF1EE10FA6D
:1050B000D8BFB0EE442A01E0B0EE442A41F21440D9
:1050C00032EE432A41F21041C2F2000022EE014AC0
:1050D0001FEDBD1AC2F2000190ED003A81ED002AE9
:1050E00004EE003A80ED003AB4EEC13AF1EE10FA67
:1050F00006DA1FEDC41AB4EEC13AF1EE10FA03DC81
:10510000B0EE413A80ED001A41F2184141F21C40E4
:10511000C2F20001C2F2000091ED000A90ED001A07
:105120000020288041F2D43022EE000AC2F20000B2
:1051300003EE010A80ED000A41F2DC251FEDD11AD1
:1051400094ED000A41F2C0301FEDD33A97ED004ACA
:10515000C2F20005C2F2000020EE012A95ED071A06
:1051600080ED000A41F2C43004EE032AC2F20000CE
:10517000B5EEC01A80ED002AF1EE10FA02DA06DA76
:10518000A86A00E0686A03EE100A286201E095ED63
:10519000083A41F29C3095ED045A23EE011A1FEDB6
:1051A000EDBA1FEDEBDA48F6F017B8EE00CAB0EE34
:1051B000089A1FEDF1AA1FEDF18A41F2D43941F2AC
:1051C000CC34C2F20000C0F60007C2F20009C2F2FD
:1051D000000490ED004A21EE043A35EE031A21EE68
:1051E0000B1ABDEEC14AB5EEC01A14EE100AF1EE6C
:1051F00010FAB8BF013804EE100AB8EEC44A31EE16
:10520000441A21EE0D1ABDEEC14A14EE100A00F147
:1052100080016FF35F206FF35F2101EE900A07EBCF
:105220008101F8EE611A85ED0B3A91ED004A91ED9E
:10523000015A07EB800131EE611A41F2C83091ED5D
:10524000006A91ED017AC2F2000074EE040A75EE74
:10525000443AF1EE462A75EE200A77EE464A73EE9E
:10526000A35A63EE893A35EE045A72EEC72A16EE57
:105270000C7A52EE885A47EE0A3A74EEA46A60EE4F
:105280008A0A45EE813A55EE086A44EE890A23EE11
:10529000817A24EE085A46EE810A06EE487A00EE3C
:1052A000815AD9ED000A07EE014A05EE016A26EEA1
:1052B000021A64EE021A04EE001A46EE401A9FED3E
:1052C000BE0A80ED001AC4ED001A00F009FE95ED4B
:1052D000040A95ED0B1A31EE000A20EE0B0ABDEE22
:1052E000C01AB5EEC00A11EE100AF1EE10FAB8BFFE
:1052F000013801EE100AB8EEC11A30EE410A20EE74
:105300000D0ABDEEC01A11EE100A00F180016FF314
:105310005F206FF35F2107EB800205EE100A41F278
:10532000DC3007EB810192ED001A92ED012AB8EE14
:10533000455AC2F2000091ED003A91ED014A30EE7B
:10534000450A41F2D831B1EE416A72EE412AC2F209
:10535000000134EE437A73EE030A36EE426A11EE30
:105360000C2A77EE071A27EE097A74EE200A56EE19
:10537000081A02EE0A7A20EE8A5A34EE032A32EE36
:10538000A24A01EE807A12EE084A02EE895A27EE0E
:10539000002A04EE005A91ED004A23EE086A01EE5D
:1053A000482A05EE006A02EE003A90ED002A06EE69
:1053B000001A41F2B83023EE040AC2F2000061EE96
:1053C000040A01EE420A43EE020A80ED000A41F2AD
:1053D000BC30C2F20000C0ED000A00F0BFFA9FED41
:1053E000770A94ED001A41F22C40C2F2000021EE3F
:1053F000000A80ED000A41F2A420C2F20000016818
:105400004A1C0029026019D141F2004240F2000416
:105410000021C2F20002C2F20004016049F2FC1154
:1054200092ED000A2068C0F60001BDEEC00A10EE41
:10543000102AFAF787FF216808442060FEF786F8F3
:1054400041F2A824C2F200042068411C0028216017
:105450001CD1D9F8000003F019FA9FED590B53EC59
:10546000102B03F049F80022226003F015F840F2F7
:10547000000449F20F210246C2F20004C0F6000106
:105480002068FAF75FFF216808442060FEF75EF8A5
:105490003FE2B5EE402AB0EE432AF1EE10FA03D116
:1054A0009FED452A80ED002A41F20440C2F200003F
:1054B00090ED004A41F2DC20C2F20000B4EEC42AB2
:1054C00090ED033AF1EE10FA09DAB1EE444AB4EE87
:1054D000C42AF1EE10FAD8BFB0EE442A01E0B0EED3
:1054E000442A41F2144032EE432A41F21041C2F202
:1054F000000022EE014A9FED341AC2F2000190ED45
:10550000003A81ED002A04EE003A80ED003AB4EE54
:10551000C13AF1EE10FA06DA9FED2C1AB4EEC13A58
:10552000F1EE10FA03DCB0EE413A80ED001A41F2E0
:10553000184141F21C40C2F20001C2F2000091ED9C
:10554000000A90ED001A0020A9F8000041F2D430C2
:1055500022EE000AC2F2000003EE010A80ED000A0A
:1055600041F2DC259FEDF21A94ED000A41F2C030C1
:105570009FEDF83A97ED004AC2F20005C2F2000032
:1055800020EE012A95ED071A80ED000A41F2C430A1
:1055900004EE032AC2F20000B5EEC01A80ED002A24
:1055A000F1EE10FA02DA13DAA86A00E0686A03EE94
:1055B000100A28620EE000BF000000002E27863C83
:1055C0000000000000408F40D253FB41D253FBC18A
:1055D00095ED083A41F29C3095ED045A23EE011AFC
:1055E0009FEDD8BA9FEDD8DA48F6F017B8EE00CAAA
:1055F000B0EE089A9FEDD5AA9FEDD58A41F2D43935
:1056000041F2CC34C2F20000C0F60007C2F2000939
:10561000C2F2000490ED004A21EE043A35EE031A7E
:1056200021EE0B1ABDEEC14AB5EEC01A14EE100AF7
:10563000F1EE10FAB8BF013804EE100AB8EEC44A11
:1056400031EE441A21EE0D1ABDEEC14A14EE100AD5
:1056500000F180016FF35F206FF35F2101EE900A8C
:1056600007EB8101F8EE611A85ED0B3A91ED004AE6
:1056700091ED015A07EB800131EE611A41F2C83019
:1056800091ED006A91ED017AC2F2000074EE040A15
:1056900075EE443AF1EE462A75EE200A77EE464A58
:1056A00073EEA35A63EE893A35EE045A72EEC72AB6
:1056B00016EE0C7A52EE885A47EE0A3A74EEA46A55
:1056C00060EE8A0A45EE813A55EE086A44EE890A90
:1056D00023EE817A24EE085A46EE810A06EE487AD5
:1056E00000EE815AD9ED000A07EE014A05EE016A83
:1056F00026EE021A64EE021A04EE001A46EE401A72
:105700009FED8F0A80ED001AC4ED001A00F0E8FB4F
:1057100095ED040A95ED0B1A31EE000A20EE0B0A06
:10572000BDEEC01AB5EEC00A11EE100AF1EE10FA85
:10573000B8BF013801EE100AB8EEC11A30EE410AC6
:1057400020EE0D0ABDEEC01A11EE100A00F1800124
:105750006FF35F206FF35F2107EB800205EE100A05
:1057600041F2DC3007EB810192ED001A92ED012A43
:10577000B8EE455AC2F2000091ED003A91ED014AAF
:1057800030EE450A41F2D831B1EE416A72EE412A5B
:10579000C2F2000134EE437A73EE030A36EE426A37
:1057A00011EE0C2A77EE071A27EE097A74EE200A1A
:1057B00056EE081A02EE0A7A20EE8A5A34EE032ACE
:1057C00032EEA24A01EE807A12EE084A02EE895ABF
:1057D00027EE002A04EE005A91ED004A23EE086AF3
:1057E00001EE482A05EE006A02EE003A90ED002A2A
:1057F00006EE001A41F2B83023EE040AC2F20000AD
:1058000061EE040A01EE420A43EE020A80ED000A4C
:1058100041F2BC30C2F20000C0ED000A00F09EF878
:105820009FED4D0A94ED001A41F22C40C2F20000A7
:1058300021EE000A80ED000A41F2AC20C2F2000025
:1058400001684A1C0029026014D1002140F20004C2
:10585000016041F29031C2F20004C2F200012068FE
:105860000A6849F2FC11C0F60001FAF76BFD2168E5
:1058700008442060FDF76AFE41F2B020C2F2000049
:1058800001684A1C0029026019D141F2004240F22D
:1058900000040021C2F20002C2F20004016049F2D9
:1058A000FC1192ED000A2068C0F60001BDEEC00AAE
:1058B00010EE102AFAF746FD216808442060FDF733
:1058C00045FE41F2B424C2F200042068411C0028C5
:1058D00021601CD1D9F8000002F0D8FF9FED160B13
:1058E00053EC102B02F008FE0022226002F0D4FDDF
:1058F00040F2000449F20F210246C2F20004C0F651
:1059000000012068FAF71EFD216808442060FDF7B9
:105910001DFE30686FF004010160DAF800000160DC
:10592000D8F800000160BDEC0C8BBDE8F08700BF2B
:105930003ACD133F00BF00BF0000000000408F4081
:1059400000000000610B363B00000044DB0F49BC47
:10595000DB0F493C3ACD933F2E27863C9FED5E3AC4
:10596000B0EE602A9FED5D4AB6EE001AF5EEC00A71
:105970000020F1EE10FA10EE032AB0EE603AC8BF34
:10598000012010EE043A22EE015A23EE010AB5EE90
:10599000C05AF1EE10FAB5EEC00AC8BF40F00200DE
:1059A000F1EE10FAC8BF40F00400411E05290BD8E3
:1059B000DFE801F0030F18212A339FED4B4A23EE55
:1059C000040A22EE042A2EE09FED452AB0EE420A98
:1059D00029E09FED440A9FED442A20EE800A23EE41
:1059E000022A20E09FED420A9FED403A20EE800A15
:1059F00022EE032A17E09FED3C0A9FED3A3A22EE91
:105A0000000A20EE832A0EE09FED380A9FED382A27
:105A100023EE000A20EE822A05E09FED344A22EEB2
:105A2000040A23EE042A9FED333A30EE024AB4EE24
:105A3000C34AF1EE10FA07DD80EE040A82EE042A72
:105A400020EE030A22EE032A10B533EE423A00F0AC
:105A5000070033EE403A411E23EE011A0529BCEE41
:105A6000C11A11EE10CAB8EE411A32EE011ABCEE9C
:105A7000C11A11EE10EAB8EE411A30EE010ABCEE7E
:105A8000C00A0BD810EE100A73466246DFE801F038
:105A9000030D1C1115197246634615E041F294126C
:105AA00041F2941341F294100EE0034662467046B0
:105AB0000AE002467346604606E0024663467046C8
:105AC00002E003467246604640F23441C4F20101EE
:105AD0008A604B60086010BDD7B3DD3FD7B3DDBF30
