:020000040800F2
:1000000098190020050300085D28000861280008F1
:1000100065280008692800086D2800080000000015
:10002000000000000000000000000000712800082F
:100030007528000800000000792800087D280008C5
:100040001F0300081F0300081F0300081F03000808
:100050001F0300081F0300081F0300081F030008F8
:100060001F0300081F0300081F0300081F030008E8
:100070001F0300081F0300081F0300081F030008D8
:100080001F0300081F030008213700081F03000892
:100090008D2800081F0300081F0300081F03000825
:1000A0001F0300081F0300081F0300081F030008A8
:1000B0001F0300081F0300081F0300081F03000898
:1000C0001F0300081F0300081F0300081F03000888
:1000D0001F030008613200081F0300081F03000807
:1000E0001F0300081F0300081F0300081F03000868
:1000F0001F0300081F0300081F0300081F03000858
:100100001F0300081F0300081F0300081F03000847
:100110001F0300081F0300081F0300081F03000837
:100120001F0300081F0300081F0300081F03000827
:100130001F03000800000000000000001F0300086B
:100140001F0300081F0300081F0300081F03000807
:100150001F0300081F030008393500081F030008AB
:100160001F0300081F0300081F0300081F030008E7
:100170001F0300081F0300081F0300080000000001
:10018000000000001F030008000000000000000045
:100190001F03000800000000000000001F0300080B
:1001A0000000000000000000000000001F03000825
:1001B0001F0300081F0300081F0300081F03000897
:1001C0001F03000800F002F800F08DF80AA090E884
:1001D000000C82448344AAF10107DA4501D100F002
:1001E00082F8AFF2090EBAE80F0013F0010F18BF42
:1001F000FB1A43F001031847F4670000146800007D
:10020000103A24BF78C878C1FAD8520724BF30C842
:1002100030C144BF04680C60704700000023002414
:1002200000250026103A28BF78C1FBD8520728BF06
:1002300030C148BF0B6070476E2900F03B817029C8
:1002400000F07D826629AFF300806529AFF300805E
:100250006729AFF300806129AFF3008003681B0AB0
:1002600028BF41F08001692900F0E880642900F08E
:10027000E580752900F0E2806F2900F00B82782973
:1002800000F04982E92900F0A581E42900F0A2816B
:10029000F52900F09F81EF2900F00882F82900F08D
:1002A00048820368DB0928BF41F08001632900F020
:1002B000BD83732900F0C283E32900F0CD83F329C5
:1002C00000F0D283002070471FB505F03AFF00F020
:1002D0002FFC04000020002105F062FC401C60603F
:1002E0001FBD10B510BD00F0EBFB1146FFF7ECFF92
:1002F00000F06AFC00F012FC03B4FFF7F2FF03BC4D
:1003000000F058FC0948804709480047FEE7FEE72F
:10031000FEE7FEE7FEE7FEE7FEE7FEE7FEE7FEE7B5
:1003200004480549054A064B704700004D5A00082D
:10033000C501000898130020981900209815002086
:10034000981500200FB41CB5084B06AA7B446946DB
:100350000090059800F0C7F804460020694600F0B8
:10036000D5F820461CBC5DF814FB0000BD01000060
:1003700070477047704770B5044685690068C106CC
:1003800001D5302600E02026C00707D070BDD4E993
:10039000012130469047206A401C20626D1EF6D530
:1003A00070BD70B5044685690078C00707D170BD7F
:1003B000D4E9012120209047206A401C20626D1E54
:1003C000F6D570BD09684A0501D540B27047C90528
:1003D000FCD500B2704709684A0501D5C0B2704724
:1003E000C905FCD580B2704770B50C460546012A98
:1003F00005D02878800600D5EA69002302E00123B1
:1004000005E05B1C934202D2E05C0028F9D1A869A8
:10041000E618C01AA861286A184428622846FFF71F
:10042000AAFF04E0D5E9012114F8010B9047B4427A
:10043000F8D32846FFF7B5FF70BD00002DE9F04165
:100440000646002410687529314616A510D0FFF71E
:10045000B9FF002802DA404213A507E031688A0795
:1004600001D512A502E0490704D511A5012401E038
:10047000FFF7B1FF00210A2206F1240709E0B0FBD3
:10048000F2FCB0FBF2F302FB1C003030785418464B
:10049000491C0028F3D123462A463046BDE8F041E6
:1004A00000F061BA000000002D0000002B000000E9
:1004B0002000000011680268006A530501D5087029
:1004C0000AE0D30501D5088006E0130603D5C2175C
:1004D000C1E9000200E008600120704701694A1C80
:1004E00002610878704700B58FB0CDE90131002175
:1004F000059105497944CDE903101146684600F09D
:1005000029F90FB000BD0000E5FFFFFF0A6802F8FF
:10051000010B0A60704700002DE9FF5F15468A460F
:100520000446DFF8AC80F8440027D8E900103E46C6
:10053000CDE9001010E05AF826106A4602A800F033
:1005400097FA411C07D02178890603D5E26939184A
:1005500091420DD80744761C2078800602D5E069C8
:10056000B84205DDAE42E6DB5AF826000028E2D1AB
:10057000A069C01BA0612046FFF7FDFED8E900106E
:10058000CDE90010002017E05AF828106A4602A8AA
:1005900000F06EFAB0F1FF3F81460BD000250DF15F
:1005A000080B05E0D4E901211BF8050090476D1CFC
:1005B0004D45F7D308F10100B0428046E4DB206AE4
:1005C000384420622046FFF7ECFEBDE8FF9F0000A4
:1005D0003E5C00002DE9F0418046D21D22F007026A
:1005E0000025D2E90002F52915A614D0011E72F1EA
:1005F000000106DA0023D0EB030063EB020211A630
:1006000008E0D8F800108B0701D50FA602E04907D3
:1006100001D50EA601251146002408F1240704E0A7
:1006200000F05CF930323A55641C50EA0102F7D10F
:100630002B46324621464046BDE8F04100F093B9D2
:10064000000000002D0000002B0000002000000032
:1006500030B4002100F1240408E002F00705D208BC
:10066000303542EA4372DB086554491C52EA0305FF
:10067000F3D10468002310A2250708D504F0200454
:100680000C4304D0C46901230CA2641EC46130BCB5
:1006900000F069B910B5044621461068FFF79BFECB
:1006A00002462046BDE810400023D1E7D21D22F0CB
:1006B0000701D1E90023CBE7000000003000000073
:1006C000F0B40D460188090502D5214C7C4402E0B6
:1006D0001F4C7C440E34002100F1240608E002F097
:1006E0000F071209E75D42EA03721B097754491CA0
:1006F00052EA0307F3D102780023120704D5702DC4
:1007000006D009B1022311342246F0BC00F02BB907
:1007100001231034F8E770B504460D4621461068F1
:10072000FFF759FE024629462046BDE870400023E7
:10073000C6E7D21D22F00703D3E90023C0E7036810
:10074000126843F0200303600823C3610023B7E766
:10075000A05A00002DE9F05F894604464FF0000AD8
:10076000DFF874B1FB44C0F820A02046E168884758
:10077000002874D0252806D0D4E901219047206AAA
:10078000401C2062F1E700265F462046E16888476A
:100790002028054607DB312D05D2781910F8200CEA
:1007A00008B10643F1E7B00701D526F00406C4F806
:1007B0001CA00027C4F818A02A2D09D0284605F04F
:1007C000E7F938B304EB8708303DC8F8185019E052
:1007D00059F8041B204604EB87029161E1688847C1
:1007E000012F054618D1E069002820DA26F02006FE
:1007F0001DE0D8F8180000EB800005EB4000303811
:10080000C8F818002046E1688847054605F0C0F999
:100810000028EED1012F0AD02E2D08D12046E16804
:1008200088477F1C0546022F46F02006C4DBA069DE
:10083000002803DA404246F00106A061F00701D02B
:1008400026F010066C2D0BD0682D09D04C2D39D018
:100850006A2D35D0742D35D07A2D33D016E038E09E
:10086000E1682F4620468847B842054609D16C2FDB
:1008700026D04FF48060E16806432046884705464D
:1008800004E06C2F1AD04FF4807006430DB3A5F12D
:100890004100192802D8203546F400664A46294608
:1008A000204626604E46FFF7C7FC80B101280BD0DA
:1008B000F61D26F0070000F1080956E74020E4E79E
:1008C0008020D8E70020D6E706F104094DE7284646
:1008D00052E7206ABDE8F09F305A000030B5B0F111
:1008E0000A0271F100034FEA900E4EEA817EB0EBEE
:1008F0000E0061EB91014FEA101E4EEA017E10EBF3
:100900000E0041EB11114FEA102E4EEA016E10EB72
:100910000E0041EB11214FEA104E4EEA014E10EB52
:100920000E0041EB1141401841F100014FEAD000A7
:1009300040EA41704FEAD1014FEA810444EA9074E1
:1009400010EB800544EB01046D1944EB0404521BC9
:10095000A3414FF0000348BF0A3200D530BD401C10
:1009600041F1000130BD2DE9F0470D469946924610
:10097000044600F124080168880604D5E06921F0E6
:100980001001216000E00120A84201DD471B00E0CA
:100990000027A1697A1902EB0900081AA0612078E2
:1009A000C00602D42046FFF7E6FC002608E0D4E9A2
:1009B00001211AF806009047206A401C761C20622C
:1009C0004E45F4DB2078C0060AD52046FFF7D3FC5D
:1009D00006E0D4E9012130209047206A401C2062C3
:1009E000381EA7F10107F4DC07E0D4E9012118F86B
:1009F00005009047206A401C2062281EA5F10105D1
:100A0000F3DC2046FFF7CDFC2078000602D502205B
:100A1000BDE8F0870120FBE710B5436913B1AFF3E0
:100A2000008001E0FFF7E0FC012010BD127800F12A
:100A300024010A7000224A700122EDE711684FF08C
:100A4000FF32E9E710B5436913B1AFF3008001E06D
:100A5000FFF762FD012010BD126800F1240142621F
:100A6000002282620122EDE711684FF0FF32E9E7D0
:100A70002DE9F04116460C46054600F047F803689C
:100A800093F80101012807D0FF2C12D8185D80B11E
:100A900001202C70BDE8F081D3F8070132462146D1
:100AA00003F20713C7182846BC46BDE8F0410123EE
:100AB00060474FF0FF30EDE700487047100000201E
:100AC0007546FFF7F9FFAE4605006946534620F02C
:100AD0000700854618B020B5FFF722FCBDE820408E
:100AE0004FF000064FF000074FF000084FF0000BEA
:100AF000AC46ACE8C009ACE8C009ACE8C009ACE859
:100B0000C00921F007018D467047000010B500F0C4
:100B10000FF8001D10BD00BF8950000010B504463D
:100B2000AFF300802046BDE81040FFF7E5BB0000B2
:100B3000004870473000002030B44FF0013C50F8BE
:100B4000042B51F8043BCCFA52F4D51A20D1FCB94D
:100B500050F8042B51F8043BCCFA52F4D51A17D1B3
:100B6000B4B950F8042B51F8043BCCFA52F4D51A1E
:100B70000ED16CB950F8042B51F8043BCCFA52F466
:100B8000D51A05D1002CDAD030BC4FF000007047E8
:100B900029BAB1FA81F111F01801D1F12000844095
:100BA000F2D1CA40CB4012F0FF0213F0FF0330BC79
:100BB000D01A704701491820ABBEFEE7260002009C
:100BC00070470000000000002DE9F04F91B041F2A5
:100BD000453143F6080B01204EF60C5240F2080551
:100BE00044F6D3594EF21008C2F20001C4F2020BCF
:100BF000CEF20002C2F20005C1F26209CEF2000894
:100C000008704FF6FF01DBF8F80340F40070CBF8F2
:100C1000F803DBF8F80340F48060CBF8F803DBF866
:100C2000F80340F48070CBF8F8031068084040F2F5
:100C30000031C0F2FA51084310602868A0FB090196
:100C40004FF0FF3000EB91110020B0EB116F0ED18F
:100C50004EF60C52C8F80410F021CEF20002D17505
:100C60000721C8F80800C8F800101168D075049072
:100C700043F60042DBF83C10C4F2000241F480412C
:100C8000CBF83C10DBF83C1001F48041049104994E
:100C90000490DBF8381041F08051CBF83810DBF8C5
:100CA000381001F08051049104990490DBF8381059
:100CB00041F08051CBF83810DBF8381001F080514A
:100CC0000491049904904FF45050115841F440415C
:100CD0001150105800F4404004900498DBF80000D4
:100CE00000F00C00042846D0DBF8000000F00C00F7
:100CF000082804D15BF8040C10F4800F3BD1DBF81A
:100D0000000000F00C000C2804D15BF8040C10F477
:100D1000800F30D15BF8080C40F480304BF8080CA1
:100D200041F24030C2F2000001685BF8082C12F476
:100D3000003F22D10268521A642A00F280805BF8D8
:100D4000082C12F4003F18D10268521A642A76D88F
:100D50005BF8082C12F4003F0FD10268521A642A83
:100D60006DD85BF8082C12F4003F06D10268521AC5
:100D7000642ADAD963E05BF8080CDBF8000000F0C5
:100D80000C0008285BD060210020C4F247210860D5
:100D900041F24030C2F2000002685BF8083C13F0F8
:100DA000007F1FD003689B1A022B48D85BF8083CD1
:100DB00013F0007F16D003689B1A022B3FD85BF814
:100DC000083C13F0007F0DD003689B1A022B36D825
:100DD0005BF8083C13F0007F04D003689B1A022BD9
:100DE000DBD92CE042F60452C2F240224BF8042C2C
:100DF00001220A6001685BF8082C12F0007F1ED106
:100E00000268521A032A1AD25BF8082C12F0007FEB
:100E100015D10268521A022A11D85BF8082C12F078
:100E2000007F0CD10268521A022A08D85BF8082CFD
:100E300012F0007F03D10268521A022ADBD9002087
:100E4000402141F2403401220490C4F20E21C2F24A
:100E50000004DBF8380040F08050CBF83800DBF8B5
:100E6000380000F08050049004980A6047F20400B3
:100E70002368C4F20000076817F4803F20D1276878
:100E8000FF1AB7F57A7F41D8076817F4803F17D16A
:100E90002768FF1AB7F57A7F38D8076817F4803FBC
:100EA0000ED12768FF1AB7F57A7F2FD8076817F495
:100EB000803F05D12768FF1AB7F57A7FDBD925E097
:100EC0004A602168026812F4003F1FD12268521A5A
:100ED000B2F57A7F1AD8026812F4003F16D1226860
:100EE000521AB2F57A7F11D8026812F4003F0DD180
:100EF0002268521AB2F57A7F08D8026812F4003FCD
:100F000004D12268521AB2F57A7FDBD9DBF8F803F4
:100F100000F00F00042809D805208BF8F803DBF84F
:100F2000F80300F00F00052840F0E780DBF8000030
:100F300040F4E050CBF80000DBF8000040F46040E3
:100F4000CBF80000DBF8000020F0F000CBF8000048
:100F50005BF8080C10F0007F00F0CF80DBF8000099
:100F6000022161F30100CBF800002068DBF80010DB
:100F700001F00C01082930D1DBF8F80300F00E0075
:100F8000062809D305208BF8F803DBF8F80300F0F6
:100F90000F00052840F0B180DBF80000052161F367
:100FA0008C200421CBF80000DBF8000061F34F3007
:100FB000CBF80000DBF80000C0F3810142F20040F2
:100FC000C0F2F400032947D0022932D0012904BF1E
:100FD00041F20020C0F27A006DE041F288312268CF
:100FE000121A8A4200F28980DBF8002002F00C021B
:100FF000082AC1D02268121A8A427ED8DBF8002063
:1010000002F00C02082AB7D02268121A8A4274D859
:10101000DBF8002002F00C02082AADD02268121A78
:101020008A426AD8DBF8002002F00C02082AD6D1E6
:10103000A2E75BF8041C5BF8043C01F03F025BF89C
:10104000041C13F4800FC1F3881118D1A1FB000117
:10105000002304F026FD19E05BF8041C5BF8043C57
:1010600001F03F025BF8041C13F4800FC1F38811F8
:1010700014D1A1FB0001002304F013FD15E041F29F
:101080000020C0F27A004843B0FBF2F05BF8041C89
:101090000222C1F3014102EB41010AE041F20020CA
:1010A000C0F27A004843B0FBF2F05BF8041CC1F3D5
:1010B0000271B0FBF1F0DBF800100FF67062C1F3C3
:1010C0000311515CC8402860A0FB09014FF0FF30BC
:1010D00000EB91110020B0EB116F0ED14EF60C52C7
:1010E000C8F80410F021CEF20002D1750721C8F82B
:1010F0000800C8F800101168D0754FF0000A1827D2
:10110000042204AE4FF001090225CDF824A0C4F258
:1011100002073146DBF82800A7F1180440F08000F0
:10112000CBF82800DBF8280000F080000D900D9827
:10113000DBF8280040F00400CBF82800DBF828009A
:1011400000F004000D900D98DBF8280040F001003D
:10115000CBF82800DBF8280000F001000D900D9876
:10116000DBF8280040F00200CBF82800DBF828006C
:1011700000F002000D900D98DBF8280040F0080008
:10118000CBF82800DBF8280000F008000D900D983F
:101190004FF0807038604FF48000C7F800044FF4BF
:1011A0000040386040F61840C4F2020002604FF47C
:1011B0008070CDF8149004902046CDE906AA0895D9
:1011C000039403F007FD4FF400403146CDE90409D4
:1011D0002046CDE9065ACDF8209003F0FBFC042010
:1011E0003146CDE9040907F6E830CDE9065ACDF8D5
:1011F000209003F0EFFC402007F57A74CDF81490AE
:10120000314604902046CDE906AA089503F0E2FC99
:101210004FF480703146CDE9040A2046CDF8209085
:10122000A146029403F0D6FCCDF810A040F2204570
:1012300044F207010227032604ACDBF82800C4F2BD
:10124000010540F48000CBF82800DBF8280000F40A
:101250008000049004984EF60C50CEF20000006816
:101260004EF22540CEF2000080F821A04020C8F8C0
:10127000F800CDE908AACDE906AACDE904AADBF871
:101280003C0040F00200CBF83C00DBF83C0000F0F2
:1012900002000D900D9855F8200C20F45C7040F081
:1012A000400045F8200C41F29410E860C5F808A011
:1012B000C5F810A055F80C0C40F0010045F80C0CD6
:1012C00055F8200C20F0800045F8200C55F8180C3B
:1012D000884345F8180C55F8080C40F0080045F80C
:1012E000080C286820F001002860286855F81C1CAC
:1012F00055F8082C21F4407120F00F0045F81C1C13
:1013000022F0730141F0600145F8081CC5F814A0F3
:10131000286055F8080C20F0040045F8080C55F832
:10132000080C40F4006045F8080C286820F0100014
:101330002860286855F81C1C55F8082C21F44061D9
:1013400020F0F00045F81C1C22F4E64141F4C041B5
:1013500045F8081CC5F818A0286055F8080C20F4BA
:10136000806045F8080C55F8040C40F0080045F87A
:10137000040C286820F480702860286855F81C1C2C
:1013800055F8042C21F4405120F4706045F81C1CE1
:1013900022F0730141F0600145F8041CC5F81CA05F
:1013A000286055F8040C20F0040045F8040C55F8AA
:1013B000040C40F4006045F8040C286820F48050C8
:1013C0002860286855F81C1C55F8042C21F480412D
:1013D00020F4405045F81C1C22F4E64141F4C04181
:1013E00045F8041C41F2881129622860214655F80D
:1013F000040C20F4806045F8040C55F81C0C20F017
:10140000700045F81C0C55F8180C20F0800045F8C9
:10141000180C4FF480406862DBF8280040F00100AF
:10142000CBF82800DBF8280000F001000D900D98A3
:10143000DBF8280040F00200CBF82800DBF8280099
:1014400000F002000D900D98DBF8280040F0040039
:10145000CBF82800DBF8280000F004000D900D9870
:10146000802004900597CDE9066ACDE908760398B7
:1014700003F0B0FB4FF440402146CDE90407484655
:10148000CDE9066ACDE9087603F0A4FB4FF4E070DD
:1014900021464FF00209CDE904071820CDE9066A7C
:1014A00008970996C4F2020000F5FD60019003F070
:1014B00091FBDBF83C0004AF394640F48050CBF898
:1014C0003C00DBF83C0000F4805004900498DBF80A
:1014D000280040F00200CBF82800DBF82800AB46DB
:1014E000052500F00200049004980820CDE90409C5
:1014F000CDE9066ACDF820900995029C204603F0BC
:1015000069FB3020CDF814904FF001093946049062
:101510002046CDE9066ACDE9089503F05BFB42F66B
:10152000E03143F204005BF80120C4F2010012F044
:10153000400F0DD15BF801204FF6BF739A4340F680
:101540001D331A434BF80120016821F004010160AA
:10155000816940F2901743F600454FF400620A2675
:101560002023C2F20007C4F2000521F4006107F154
:10157000180C8161016821F0100101604FF4827143
:101580004FF40070C7E90051C7E902A2C7E904A9F6
:101590008CE80904C7E909AAFE627E6D5EB10026E7
:1015A00000244FF0010E4FF0000B4FF0000C02969C
:1015B0002E4601943AE0002043F60801C4F20201ED
:1015C00038650890CDE90600CDE904000D900A4683
:1015D000896B41F400419163916B01F400410D91DD
:1015E0000D990D90916A41F004019162916A01F0A8
:1015F00004010D910D99022105914FF4E0510491E0
:101600000690032004A9079006200890019804F092
:1016100049F9386A0290D7E909A00190D7E9006139
:10162000D7E902C2D7E904BED7E90603022541EA99
:101630000C0141F240347D65114300F40072C2F2A6
:101640000004D6F8009041EA0B0141EA0E0129F0AE
:10165000400511434FF00109356019434FF4002351
:101660004FF4E005029A1143019A114305223160BB
:10167000042101EA104040F24C1140EA0A00C2F293
:1016800000017060F06920F40060F06143F60040F2
:101690000026C4F20000BE6500F5205081E8450038
:1016A00001F11400C1E9036380E86002C1E9086642
:1016B000C1E90A66C7F8549003F0E6FD40F2204005
:1016C00040F2302A4FF461210C22C4F20100C2F230
:1016D000000A00F53E608AE84300CAE90366CAE9E9
:1016E0000526CAF81C60DAF83C1041B140F2080E39
:1016F00000214FF0000C0023C2F2000EC3E043F6BD
:101700000800CAF838600896CDE90666CDE9046697
:101710000D960225C4F202000146C06B40F0100095
:10172000C863C86B00F010000D900D980D96886A84
:1017300040F001008862886A04A900F001000D9061
:101740000D9805954FF4C06004900320CDF81890D3
:10175000079007200890039804F0A4F840F278203E
:1017600046F2B8414FF0006240234FF48067C2F266
:101770000000C4F20201466380E8CE004FF400325C
:10178000C0E90566C661C0E90826226885630B6862
:1017900023F001030B600B6813F0010F31D140F20D
:1017A000080EC2F2000E48F23F030A68CFF210039F
:1017B0001A4040F24043C0F602031A4340F2FF339E
:1017C0000A604A6922F007024A616FF00F0252FA7A
:1017D00081F299434AF6AB23CAF6AA235F2AA2FBF9
:1017E000032388BF41F004011A090FF6A4439A5C51
:1017F0003F23C0E9171203FA02F28A600121002296
:1018000027E040F2080E0168C2F2000E23689B1A1E
:10181000052B1CD80B6813F0010FC4D023689B1A4A
:10182000052B14D80B6813F0010FBCD023689B1A4A
:10183000052B0CD80B6813F0010FB4D023689B1A4A
:10184000052B04D80B6813F0010FDFD1ABE70321A0
:1018500020228265CAF83000C0F83CA081634EF6B1
:101860000C504EF22543CEF20000CEF20003006889
:10187000002018702020C8F8F400DAE90661DAF8D0
:101880000000DAE902C3242749F20C62B1F5004FE7
:10189000CAF83C70C76827F40057C760076927F487
:1018A000405743EA07030361DAE90437C56843EAAE
:1018B0000C0325EA020243EA070343EA010342EA72
:1018C0000302C260426922F4407242EA06024261A7
:1018D00068D141F2004240F48061C4F201029142B9
:1018E00043F60801C4F2020140F0C480DEF8002093
:1018F000D1F800C0DAF804600D680B6846F6C81924
:101900008B464FF0190A48F21F5EC0F60009C5F277
:10191000EB1EC3F34237C5F34235760019F8077062
:1019200019F8055022FA07F122FA05F501FB0AF130
:1019300005FB0AF5B1FBF6F1B5FBF6F5A1FB0E3799
:101940007B09642703FB1713691A1944322303EB3D
:10195000C101A1FB0E134FF4F87101EA1311CCF38E
:10196000423319F8033022FA03F303FB0AF3B3FB03
:10197000F6F3A3FB0E374FF6F073C7F6FF7303EAD7
:10198000570301EB030CDBF80030C3F34233DBF801
:10199000007040F2204B19F80330C4F2010BC7F37A
:1019A0004237C2E041F2004240F48061C4F20102D9
:1019B000914243F60801C4F2020140F0CB80DEF808
:1019C0000020D1F800C0DAF804600D680B6846F614
:1019D000C8198B464FF0190A48F21F5EC0F600097D
:1019E000C5F2EB1EC3F34237C5F34235B60019F812
:1019F000077019F8055022FA07F122FA05F501FBE4
:101A00000AF105FB0AF5B1FBF6F1B5FBF6F5A1FB12
:101A10000E377B09642703FB1713691A1944322315
:101A200003EB0111A1FB0E13F02101EA5311CCF3DA
:101A3000423319F8033022FA03F303FB0AF3B3FB32
:101A4000F6F3A3FB0E374FF6F073C7F6FF7303EA06
:101A5000570301EB030CDBF80030C3F34233DBF830
:101A6000007040F2204B19F80330C4F2010BC7F3A9
:101A70004237C9E0DEF80020D1F800C0DAF804608F
:101A80000D680B6846F6C8198B464FF0190A48F2E4
:101A90001F5EC0F60009C5F2EB1EC3F38227C5F333
:101AA0008225760019F8077019F8055022FA07F117
:101AB00022FA05F501FB0AF105FB0AF5B1FBF6F187
:101AC000B5FBF6F5A1FB0E377B09642703FB171363
:101AD000691A1944322303EBC101A1FB0E134FF421
:101AE000F87101EA1311CCF3822319F8033022FABA
:101AF00003F303FB0AF3B3FBF6F3A3FB0E374FF636
:101B0000F073C7F6FF7303EA570301EB030CDBF82E
:101B10000030C3F38223DBF8007040F2204B19F849
:101B20000330C4F2010BC7F3822722FA03F303FB4D
:101B30000AF3B3FBF6F319F807704FF00709FA4000
:101B400040F2302702FB0AF2C2F20007B2FBF6F2C3
:101B500003266DE0DEF80020D1F800C0DAF804605A
:101B60000D680B6846F6C8198B464FF0190A48F203
:101B70001F5EC0F60009C5F2EB1EC3F38227C5F352
:101B80008225B60019F8077019F8055022FA07F1F6
:101B900022FA05F501FB0AF105FB0AF5B1FBF6F1A6
:101BA000B5FBF6F5A1FB0E377B09642703FB171382
:101BB000691A1944322303EB0111A1FB0E13F02122
:101BC00001EA5311CCF3822319F8033022FA03F30C
:101BD00003FB0AF3B3FBF6F3A3FB0E374FF6F073E8
:101BE000C7F6FF7303EA570301EB030CDBF8003081
:101BF000C3F38223DBF8007040F2204B19F8033066
:101C0000C4F2010BC7F3822722FA03F303FB0AF3A2
:101C1000B3FBF6F319F807704FF00F09FA4040F2E2
:101C2000302702FB0AF2C2F20007B2FBF6F20426EA
:101C3000A3EB020E48F21F5540F2010AC5F2EB1564
:101C4000C0F6007AA2FB05135909642301FB132196
:101C50007144B14000263231A1FB051240F27005FB
:101C600009EA5211C2F2000541EA0C0181600169E2
:101C700021F490410161416921F02A014161C1686B
:101C800041F40051C16020207E644FF40031F863BC
:101C900038640BF5DF5010962E62C5E90AA62E6354
:101CA000012785E843002846C5E90366C5E90576AE
:101CB000EF6102F0FBFF4FF00B090DA92846CDE9BB
:101CC0000D970F9603F01EF94FF48010CDE904979D
:101CD0000897069604A90C904FF460200B902846B4
:101CE000CDE90976079603F021FA40F2B8050BF525
:101CF000E7501096C2F200052E62C5E90AA62E63CF
:101D000028604FF40030C5E901062846C5E903669E
:101D1000C5E90576EF6102F0C9FF4FF00C090DA986
:101D20002846CDE90D970F9603F0ECF84FF4801A92
:101D30004FF46020CDE904970897069604A9CDF8E2
:101D400030A00B902846CDE90976079603F0EEF90E
:101D500040F2001901210BF5EF501096C2F2000974
:101D6000C0F60071C9F82060C9E90A16C9F83060E8
:101D7000C9F800004FF40030C9E901064846C9E936
:101D80000366C9E90576C9F81C7002F08FFF0D25BE
:101D90000DA94846CDE90D570F9603F0B3F84FF45F
:101DA0006020CDE9045708970696CDF830A004A925
:101DB0000B904846CDE90976079603F0B7F940F253
:101DC000EC1A4FF080404FF48041C2F2000ACAE999
:101DD0000006CAE90261CAF81060CAF81860DAF8A9
:101DE000401061BB43F60800CAF83C600896CDE994
:101DF0000666CDE904660D96C4F202000146806BCA
:101E000040F001008863886B00F001000D900D9890
:101E10000D96886A40F001008862886A04A900F083
:101E200001000D900D980220059003200490CDE94B
:101E300006660897039803F035FDDAF800000221E2
:101E400044F20702CAF840108168914340F6FF321D
:101E50008160C4F200020168904212DC1826B0F1E1
:101E6000804FC4F2020620D040F20043C4F20003C7
:101E700098421AD040F60003C4F20003984214D0EE
:101E800018E040F600431826C4F20003C4F202062C
:101E900098420AD040F20043C4F20103984204D0B1
:101EA0000023C4F20103984204D1DAF8083021F08B
:101EB0007001194341F6FF73C4F2000398420DDC30
:101EC00090421FDCB0F1804F4AD040F20042C4F291
:101ED0000002904244D040F6000221E043F6FF7237
:101EE000C4F20102904229DC42F20002C4F2000274
:101EF000904235D00022C4F20102904230D040F22C
:101F0000004229E040F60042C4F20002904227D08D
:101F100041F60002C4F20002904221D041F6004294
:101F2000C4F2000290421BD01FE000BF000000007E
:101F300000000000010203040607080944F2000241
:101F4000C4F2010290420BD044F60002C4F2010236
:101F5000904205D044F20042C4F20102904204D102
:101F6000DAF8102021F440711143DAF8182021F03A
:101F70008001114340F200420160C4F20102DAF82C
:101F80000C10C162DAF80410816240F48061914261
:101F900004BFDAF81410016301214161826883698A
:101FA000076A42F00302826040F2011262F30F03FB
:101FB00027F0AA0283610262CAF84010DAF83C20D6
:101FC000012A0FD00222CAF840204268836822F01A
:101FD0007002426023F0800282600020CAF83C0058
:101FE000CAF84010D8F800000490049840F2F510A8
:101FF000D8F80010C90300EBE17090B1D8F80010D8
:10200000C90300EBE17060B1D8F80010C90300EB20
:10201000E17030B1D8F80010C90300EBE17000287E
:10202000E6D142F6E0305BF8001041F040014BF899
:10203000001043F60040C4F200000146006840F082
:102040004000086040F23020C2F200000068C16821
:1020500041F40051C160DBF8000040F48050CBF83F
:1020600000005BF8200C40F001004BF8200C4020F1
:10207000C6F80004206800BF2168091A03290BD2A2
:102080002168091A022907D82168091A022903D8E8
:102090002168091A0329EFD34FF40040306020680B
:1020A0002168091A03290BD22168091A022907D8C5
:1020B0002168091A022903D82168091A0329EFD3D4
:1020C00002F090FB4FF40040306020682168091A4C
:1020D00003290BD22168091A022907D82168091A95
:1020E000022903D82168091A0329EFD346F2AC1557
:1020F0004FF00040C0F600053060284603F002FAB9
:102100004FF400403060D8F800000490049802209A
:10211000D8F80010C90300EBE17090B1D8F80010B6
:10212000C90300EBE17060B1D8F80010C90300EBFF
:10213000E17030B1D8F80010C90300EBE17000285D
:10214000E6D14FF000403060A81C03F0DBF94FF4FB
:1021500000403060D8F8000004900498022000BFCE
:10216000D8F80010C90300EBE17090B1D8F8001066
:10217000C90300EBE17060B1D8F80010C90300EBAF
:10218000E17030B1D8F80010C90300EBE17000280D
:10219000E6D14FF000403060281D03F0B3F94FF452
:1021A00000403060D8F8000004900498022000BF7E
:1021B000D8F80010C90300EBE17090B1D8F8001016
:1021C000C90300EBE17060B1D8F80010C90300EB5F
:1021D000E17030B1D8F80010C90300EBE1700028BD
:1021E000E6D14FF000403060A81D03F08BF94FF4AA
:1021F00000403060D8F8000004900498022000BF2E
:10220000D8F80010C90300EBE17090B1D8F80010C5
:10221000C90300EBE17060B1D8F80010C90300EB0E
:10222000E17030B1D8F80010C90300EBE17000286C
:10223000E6D14FF00040306005F1080003F062F98C
:102240004FF400403060D8F8000004900498022059
:10225000D8F80010C90300EBE17090B1D8F8001075
:10226000C90300EBE17060B1D8F80010C90300EBBE
:10227000E17030B1D8F80010C90300EBE17000281C
:10228000E6D14FF00040306005F10A0003F03AF962
:102290004FF400403060D8F8000004900498022009
:1022A000D8F80010C90300EBE17090B1D8F8001025
:1022B000C90300EBE17060B1D8F80010C90300EB6E
:1022C000E17030B1D8F80010C90300EBE1700028CC
:1022D000E6D102F087FA02F085FA02F083FA02F002
:1022E00081FA02F07FFAD8F8000004900498652083
:1022F000D8F80010C90300EBE17090B1D8F80010D5
:10230000C90300EBE17060B1D8F80010C90300EB1D
:10231000E17030B1D8F80010C90300EBE17000287B
:10232000E6D1DBF800004FF07E5140F00100CBF821
:102330000000DBF8000040F01000CBF80000DBF8F4
:10234000000040F48070CBF80000DBF8000040F0A3
:102350000400CBF80000DBF8000040F04000CBF8B0
:102360000000DBF8000040F48060CBF800005BF870
:10237000140C40F001004BF8140C41F26C30C2F226
:102380000000016041F244300321C2F200000170FC
:1023900041F254304BF21771C2F20000C3F6510102
:1023A000016041F2D42046F64051C2F2000001849F
:1023B00041F280300021C2F20000C4F250010160FD
:1023C00041F284304FF08141C2F20000016041F2DD
:1023D000903044F21311C2F20000C3F69B51016029
:1023E00041F2943046F6DB41C2F20000C3F6B06120
:1023F000016041F2883041F26341C2F20000C4F250
:102400001D41016041F28C3045F2D231C2F2000030
:10241000C4F2FB11016041F24530C2F200000078C5
:10242000012833D140F2700440F2B805C2F2000432
:10243000C2F200052068816841F0010181602868CE
:10244000816841F001018160D9F80000816841F0A4
:1024500001018160284602F0F7FD484602F0F4FDD4
:10246000204602F0F1FDA06B0068016821F0180120
:102470000160A86B0068016821F018010160D9F8BB
:1024800038000068016821F018010160FEE700BF14
:10249000000610160006101610B584B040F248145D
:1024A00045F64F01C2F20004C4F2000120688842E0
:1024B00022DC45F24911C4F20001884233D045F2D2
:1024C0005511C4F2000188427CD141F2942145F2B9
:1024D000551041F2603201230190C2F20001C2F2B4
:1024E000000289690091137041F26432C2F2000265
:1024F0001370CDE902014CE045F65001C4F2000131
:10250000884225D045F65601C4F20001884259D1CF
:1025100041F2D4209FED2C0AC2F2000090ED021A85
:1025200045F656001EE041F2942041F2603101224E
:10253000C2F20000C2F2000190ED0A0A45F2491011
:102540000190BCEEC01A8DED001ABCEEC00A17E077
:1025500041F2D4209FED1C0AC2F2000090ED021A55
:1025600045F6500021EE000A41F26031019001224F
:10257000BDEEC01AC2F200018DED001ABDEEC00A18
:102580000A7041F2643102908DED030AC2F200013B
:102590000A7002A802F072FF40F24C10C2F2000072
:1025A00000F134010268006B0138022838BF02F1E3
:1025B00014014FF48022086838BF012210430860DC
:1025C0000020206004B010BD83F9A24543F2080149
:1025D000C4F201018880086810F0020F1BD1962018
:1025E0004FF6FF7C0B6813F0020F18D1831E13EA1D
:1025F0000C0F12D00A6812F0020F12D10A6812F002
:10260000020F10D1043810EA0C0F06D00A6812F03D
:10261000020FE7D008E0962006E0002004E0013831
:1026200002E0184600E003380A6812F0800F1CD060
:102630004FF6FF7C83B2012B17D00A6812F0800F8F
:1026400018BF022B11D00A6812F0800F18BF032B9D
:102650000BD00A6812F0800F07D0043810EA0C0F74
:1026600003D00A6812F0800FE4D181B0486800906E
:10267000009808680090009801B0704780B581B05C
:1026800043F2080C4FF6FF7EC4F2010CACF804E0F4
:10269000DCF8001011F0010F1DD19621DCF80020AC
:1026A00012F0010F1BD18A1E12EA0E0F15D0DCF8B2
:1026B000003013F0010F14D1DCF8002012F0010FEC
:1026C00011D1043911EA0E0F07D0DCF8002012F006
:1026D000010FE3D008E0962106E0002104E0013973
:1026E00002E0114600E00339DCF804200280DCF847
:1026F000000010F0020F25D14FF6FF704A1E024273
:102700001DD0DCF8003013F0020F1AD18A1E0242ED
:1027100015D0DCF8003013F0020F12D1CA1E0242AD
:102720000DD0DCF8003013F0020F0AD10439014259
:1027300005D0DCF8002012F0020FDFD002E000210B
:1027400000E01146DCF8000010F0800F1FD04FF6BB
:10275000FF708BB2012B1AD0DCF8002012F0800F32
:1027600018BF022B13D0DCF8002012F0800F18BF26
:10277000032B0CD0DCF8002012F0800F07D00439B6
:10278000014204D0DCF8002012F0800FE1D1DCF827
:10279000040000900098DCF800000090009801B060
:1027A00080BD00BF70B540F2040640F20004C2F2E2
:1027B0000006C2F20004306821680D1A40F2A371CD
:1027C0008D4238BF70BDA9B202F0A4FF40F2DC23F5
:1027D000326840F6AC21C2F20003C2F200019A4214
:1027E00018BF19460028316021601FD044F64450BC
:1027F000C5F64170086047F24250C6F26660486014
:1028000047F26520C4F65F70886046F27650C6F2E3
:102810007260C86046F66C70C0F67750086101F1CE
:10282000150020600A200875FFF7BCFFB5F5FA6FA8
:1028300012D945F24F612068C5F24521016044F686
:10284000464181804F21817100F1080121605721AB
:10285000C171BDE87040A5E770BD00BF704700BF03
:10286000FEE700BFFEE700BFFEE700BFFEE700BFD8
:10287000704700BF704700BF704700BF41F2403053
:10288000C2F2000001680131016070472DE9F04F8C
:1028900081B02DED028B88B040F24C10C2F20000E6
:1028A000006846694168029116F0010F8768C468A4
:1028B000016903918169019102D14FF0000A48E05A
:1028C000F90724D001218160B8071ED478075ABFC8
:1028D0004FF4805000EA472A4FF4006AF8051AD5F1
:1028E00040F24C104FF48071C2F200000068816029
:1028F000B80527D478055ABF07F400604AEAC00A31
:102900004AF4005AF80308D423E0FFF7C5FD4FF05E
:10291000000AF805E4D4F8031BD540F24C104FF43C
:102920008031C2F2000000688160B8030FD47803E0
:102930004FBF4AF4004A4FF4803000EAD7004AEA19
:10294000000A06E0FFF7A8FDF803E6D401E0FFF770
:10295000A3FD40F24C173007C2F2000707D514F070
:10296000100004D0386810214AF4007AC160700762
:1029700005D514F008001EBF38680821C160B007F3
:1029800040F166813868C16811F0030F00F0608182
:1029900045F2491445F6500541F2683940F2841B6E
:1029A0009FED418A07F13408C4F20004C4F2000527
:1029B000C2F20009C2F2000B396B013901293FD87C
:1029C000014651F80C2F12F0030F3CD0D0F8B03173
:1029D000D0F8B02113F0040F04BF520DC9F8002045
:1029E000D0F8B021D0F8B421D0F8B421D0F8B42177
:1029F000D0F8B8218BF80020D0F8B821120A8BF853
:102A00000120D0F8B821120C8BF80220D0F8B821A0
:102A1000120E8BF80320D0F8BC218BF80420D0F8DC
:102A2000BC21120A8BF80520D0F8BC21120C8BF8BF
:102A30000620D0F8BC01000E8BF80700202005E02E
:102A40004FF4802001E04FF4001041460A68104323
:102A50000860D9F80000B0F5407F27D040F202317D
:102A6000884240F0E980DBF8000045F24F218842BF
:102A70002DDC44F6545188424EDD44F655518842CF
:102A80006FD044F64D71884273D0B0F5A24F40F03C
:102A9000D3809BED010A41F2D420C2F20000B8EECF
:102AA000C00A80ED020AC7E0C3F5483945F64F0178
:102AB000DBF80000C4F20001884214DCA04247D0D9
:102AC00045F25511C4F20001884217D0B4E045F236
:102AD0005411C4F20001884234DD45F25511C4F2AC
:102AE000000188420AD0A84210D045F65601C4F22F
:102AF0000001884240F0A080A81D01E004F10C0014
:102B000040F24811C2F20001086095E040F248101E
:102B1000C2F2000005608FE044F2501188421DD0DF
:102B200044F24131884240F087809BED010A41F236
:102B30008C30C2F20000B8EEC00A20EE080A80ED28
:102B4000000A79E045F25021884207D0A04273D1B3
:102B500040F24810C2F2000004606DE0DBF80400AF
:102B60006AE0DBF80400012831D141F24430012150
:102B700034E0DBF80400012834D141F28830002130
:102B8000C2F20000016040F22040C4F201000146A0
:102B9000006840F001000860086840F0100008601C
:102BA000086840F480700860086840F0040008601D
:102BB000086840F040000860086840F480600860E1
:102BC00051F8140C40F0010041F8140C34E0DBF82B
:102BD0000400022830D141F244300221C2F2000048
:102BE000017029E040F22040C4F201000146006873
:102BF00020F001000860086820F0100008600868F4
:102C000020F480700860086820F0040008600868FC
:102C100020F040000860086820F48060086051F8E7
:102C2000140C40F0010041F8140C41F288300021EE
:102C3000C2F20000016000BFFFF72EFC386B0138C4
:102C4000012805D83868C16811F0030F7FF4B4AECD
:102C500070067DD5039ADDF8089012F0100004D0BC
:102C6000386810214AF4806A0161B00605D512F077
:102C700008001EBF386808210161F00644BF3868AB
:102C80000069B00305D519F010001EBF3868102187
:102C90004160F00305D519F008001EBF386808210F
:102CA0004160300427D55FEA497021D5019A06F4C6
:102CB000807002EA102012F0020F40EA0A0001467A
:102CC00018BF41F0020116F4007F08BF014612F060
:102CD000040F8A4618BF4AF0040A16F4806F08BF32
:102CE0008A4616F4006F18BF12F0700040F092810F
:102CF000386804214160BAF1000F00F09682786BC9
:102D000040F2000846F6D9134322C2F20008C0F68A
:102D1000000340EA0A0078634127D8F80010481CF5
:102D2000C8F800000A7000228E1877709F18BD78CE
:102D300065B1B570FD788DB1F5703D7985B17F795C
:102D4000043204303571002FEED18818013008E0CC
:102D5000DDE90292B0063FF58AAF8EE7023000E06F
:102D6000033040F24C14C8F80000C2F20004FFF730
:102D700019FDD8F80060D4F834C0BCF1FF3F05DD80
:102D8000BCF1000F00F0BF80002204E02D20CCF148
:102D9000000C012230704CF6CD49002503236FF062
:102DA00006074FF00E0A6FF0050B4FF0000E00966D
:102DB000CCF6CC49CEF10E01CEF10F00C8460395FA
:102DC000029200F003000329019101D2012124E0C5
:102DD00003F0030401213D4604EB0509B9F1040F9A
:102DE0000ED0B9F1000F0ED019F1040210D000225C
:102DF0001035C6F6C17251436219082AECD10CE0B5
:102E000042F2107208E04EF20012C0F2F55203E0F6
:102E100041F20002CDF2A542514301284FF47A70ED
:102E2000C14608BF0A204843BCFBF0F0A0FB0814D1
:102E3000E10801EB8101A0EB410028B1009E029A5C
:102E400040F0300006E000BF039D009E029A012D75
:102E500003D13020B05401320125BEF10E0F01D153
:102E600001202FE00198039500F00208CEF10D003B
:102E7000032801D201201FE00AF0020401205D4670
:102E8000611904290BD069B1043110D0002110352B
:102E9000C6F6C171484361190829F1D10CE042F22C
:102EA000107108E04EF20011C0F2F55103E041F25A
:102EB0000001CDF2A5414843B8F1000F039D1CBFAE
:102EC00064214843BCFBF0F0A0FB0914E10801EBCE
:102ED0008101A0EB410018B140F0300003E000BFD9
:102EE000012D03D13020B054013201250EF1020E24
:102EF0000BF1020BAAF1020A02370233BEF1100FE6
:102F00007FF458AF02E0302001223070B01840F258
:102F100000050130C2F2000528600A20B054FFF716
:102F200041FC40F28C1041F2111840F24C17C2F2F1
:102F30000000C0F21108C2F2000701884A1C64298F
:102F40000280CDF81480D7F83490CDF8109039D89D
:102F500002310180386B022857D13868016841F08E
:102F60000101016041F24031C2F200010A68436888
:102F700013F0010F20D138680B689B1A0B2B59D224
:102F8000436813F0010F17D10B689B1A0A2B51D815
:102F9000436813F0010F0FD10B689B1A0A2B49D815
:102FA000436813F0010F07D10B689B1A0A2B41D815
:102FB000436813F0010FDFD0016821F002010160C6
:102FC00001203CE040F22040C4F20100016821F001
:102FD00001010160016821F010010160016821F424
:102FE00080710160016821F004010160016821F035
:102FF00040010160016821F48061016050F8141CF7
:1030000041F0010140F8141CD5E0786B40F48010C9
:10301000786315E010380009052800F21A81DFE80E
:1030200010F006000A010D011001130116014AF00B
:10303000080A0EE1786B40F40030786305203863AD
:1030400045F650013868C4F2000101F53B61884241
:1030500078D100204FF46151C4F20200425822F0AE
:10306000007242504FF6104243F60041CFF6FF7215
:10307000C4F201018B5813F4704F13D18B5823F411
:1030800070438B500A6822F400620A604A6822F496
:1030900000624A608A6822F400628A60CA6822F488
:1030A0000062CA60026822F440020260426A22F4AE
:1030B00070424262826822F440028260426822F4D6
:1030C00000624260C26822F44002C2604FF61442BD
:1030D000CFF6FF728B5813F00F0F13D18B5823F0DC
:1030E0000F038B500A6822F480520A604A6822F467
:1030F00080524A608A6822F480528A60CA6822F448
:103100008052CA60016821F040710160416A21F477
:1031100070214162816821F040718160416821F431
:1031200080514160C16821F04071C1604EF2801051
:103130004FF48011CEF200000160BFF34F8FBFF358
:103140006F8F386801683E4641F4004101600020FD
:1031500046F8340F386302F097F838681021324689
:103160003C46C160396B4FF48027013902294FF486
:1031700080213CBF022100F11402106808430121A4
:10318000106041F26030C2F20000017041F2643020
:10319000C2F20000017006A8CDE9068902F06EF9BE
:1031A0002068216B013902293CBF012700F1140678
:1031B00030683843306040F204042968C2F20004E9
:1031C0002068091A89B202F0A5FA40F2DC232268CD
:1031D00040F6AC21C2F20003C2F200019A4218BFCD
:1031E00019460028216029601FD044F64450C5F6D6
:1031F0004170086047F24250C6F26660486047F28C
:103200006520C4F65F70886046F27650C6F2726040
:10321000C86046F66C70C0F67750086101F1150081
:1032200028600A200875FFF7BDFA08B0BDEC028BD4
:1032300001B0BDE8F08F4AF0100A0AE04AF0200A17
:1032400007E04AF0400A04E04AF0800A01E04AF44C
:10325000807A3868816921F07001816148E500BF9A
:1032600080B540F2302CC2F2000CDCF800E0DEF851
:103270000020DEF80C30DEF8140012F00F0F4FD0F3
:1032800003F4907100F00100014364D0D1071FBF27
:1032900013F48071DCF8441041F00101CCF84410C3
:1032A000510707D500281EBFDCF8441041F0020189
:1032B000CCF84410910707D500281EBFDCF8441055
:1032C00041F00401CCF84410110707D500281EBFB7
:1032D000DCF8440040F00800CCF84400DCF844007E
:1032E000002800F01E8103EA0200800640F1E2801F
:1032F000DCF84000222840F0DD80DCF80800B0F562
:10330000805F40F08080DCF81020DCF82800DEF8D8
:103310000410002A00F0A880C9B220F8011BA7E021
:1033200003EA020010F0200F17D0DCF8400022283A
:1033300040F0F780DCF80800B0F5805F53D1DCF88E
:103340001020DCF82800DEF80410002A6BD0C9B287
:1033500020F8011B6BE003EA020001060CD44006D2
:1033600058BF80BDDEF80C0020F04000CEF80C0005
:103370002020CCF83C00D4E0DCF83C00212840F0D0
:10338000D080DCF80810DCF82000B1F5805F0DD1AA
:1033900001886FF35F21CEF80410DCF810100029CB
:1033A00014BF01300230CCF8200005E0411CCCF8FD
:1033B00020100078CEF80400BCF826004FF6FF710C
:1033C00001380842ACF8260040F0AB80DEF80C0073
:1033D00020F08000CEF80C00DEF80C0040F0400039
:1033E000CEF80C0080BDDCF81020DEF80400DCF81C
:1033F0002810002A01F10102CCF8282018BF00F0A3
:103400007F00087015E0DCF81010DEF804000029D9
:10341000DCF8281001F10102CCF8282018BF00F0D8
:103420007F00087026E06FF35F2120F8021BCCF8C4
:103430002800BCF82E004FF6FF7101380842ACF8A6
:103440002E006ED1DCF80000C16821F02001C160BF
:10345000C16821F48071C160416921F001014161BD
:103460002020CCF8400080BD6FF35F2120F8021BC4
:10347000CCF82800BCF82E004FF6FF710138ACF8EC
:103480002E000842DCF800E014D1DEF80C0020F039
:103490002000CEF80C00DEF80C0020F48070CEF88E
:1034A0000C00DEF8140020F00100CEF814002020FB
:1034B000CCF84000DEF81400DCF8441000F04000C6
:1034C00001F0080108432DD0DEF80C0020F49070C4
:1034D000CEF80C00DEF8140020F00100CEF8140045
:1034E0002020CCF84000DEF8140010F0400F18D077
:1034F000DEF8140020F04000CEF81400DCF83400B0
:1035000078B145F69901C0F600014165816B022949
:103510000CD1052181630068016821F0010101607F
:1035200080BD80BD0020CCF8440080BD8021816535
:10353000BDE8804002F0B0B9F0B581B0002040F2A3
:10354000782448F2B5130821009040F20800C2F236
:103550000004C1F64E33C2F200000268D4E91760DD
:1035600037688140A2FB032539420DD022681368D9
:1035700013F0040F08D0136823F004031360B16044
:10358000A16D41F00101A16501218140394209D0BD
:103590002268526912F0800F04D0B160A16D41F031
:1035A0000201A16504218140394209D022681268D4
:1035B00012F0020F04D0B160A16D41F00401A165C9
:1035C0001021814039421AD02068026812F0080F99
:1035D00015D0B1600268016812F4802F06D1C905C8
:1035E0005EBF016821F00801016001E0080343D4D7
:1035F000616C21B140F27820C2F200008847216E50
:10360000202000FA01F23A4246D02068036813F005
:10361000100F41D0B260A36B0268052B1ED122F0BF
:1036200016020260426922F080024261626CE36C21
:103630001A431EBF026822F0080202603F20884041
:10364000B0600120A06300206063616D002962D03A
:1036500040F27820C2F2000088475CE00168520323
:103660000ED4C90511D4016821F0100101600120B8
:10367000A0630020606308E0E16C0029BAD1BEE7D6
:10368000080302D4A16C11B906E0216C21B140F20B
:103690007820C2F200008847A06DE0B3A06D10F062
:1036A000010F2FD00521A80AA16321680A6822F022
:1036B00001020A60009A0132824200921ED80A6812
:1036C00012F0010F1AD0009A01328242009215D8EE
:1036D0000A6812F0010F11D0009A01328242009262
:1036E0000CD80A6812F0010F08D0009A0132824209
:1036F000009203D80A6812F0010FDBD10120A06309
:1037000000206063216D31B140F27820C2F20000E8
:10371000884701B0F0BD01B0F0BD00BF00BF00BFE1
:103720002DE9F04381B02DED048B40F2700440F29E
:10373000B80540F200169FEDDC3A9FEDDC2A41F21D
:103740009427C2F20004C2F20005C2F20006C2F2DF
:1037500000072068B0EE435A90ED0F0AB8EE400A19
:10376000286890ED0F1AB8EE411A306801EE425AFF
:10377000B0EE431AC06B00EE421A04EE100AB8EE27
:10378000444A87ED001A87ED015A04EE423A87ED6C
:10379000023A01F0E3F841F24530C2F2000000784D
:1037A000012840F08B8241F24430C2F200000078E0
:1037B0000138032800F28282DFE810F004005E0086
:1037C0006900800100F016FF00F06AFB41F27C20E6
:1037D000C2F2000001684A1C002902601CD19FED62
:1037E000B40A97ED091A40F200080021C2F200085D
:1037F00021EE000ABDEEC00A016046F6D011D8F8ED
:10380000000010EE102AC0F60001FCF79BFDD8F86E
:1038100000100844C8F80000FEF7C4FF41F2802001
:10382000C2F2000001684A1C0029026021D141F265
:10383000D4219FEDA00A97ED0A2A40F20007C2F2B8
:103840000001C2F2000791ED061A002121EE000AE4
:1038500020EE020ABDEEC00A016046F6D4113868B7
:1038600010EE102AC0F60001FCF76CFD3968084420
:103870003860FEF797FF21E241F288300021C2F262
:103880000000016000F0B6FE00F00AFB16E200F056
:10389000B1FE41F2803041F2D4289FED870AC2F296
:1038A0000000C2F2000898ED061A90ED002A41F2DD
:1038B0007C30C2F2000021EE003A90ED000A32EEB8
:1038C000031AB4EEC10AF1EE10FA06DA33EE421A28
:1038D000B4EEC10AF1EE10FA03DCB0EE410A80ED5D
:1038E000001A41F2843041F2543998ED073A98EDCC
:1038F000042A9FEDF95A46F2C412F8EE002AF0EEBF
:10390000083ADFEDF64ADFEDF66AC2F20000C2F2D5
:103910000009C0F6000290ED001A99ED004A23EE6E
:10392000011A01EE042A22EE051ABDEEC12AB5EEF7
:10393000C01A12EE100AF1EE10FA9FEDEF2AB8BF8E
:10394000013803EE100AB8EEC33A31EE431A21EE05
:10395000021ABDEEC12A12EE100A00F180016FF3C7
:103960005F206FF35F2107EE100A02EB8101B8EED2
:10397000477A91ED002A91ED013A02EB800131EE98
:10398000471A91ED004A91ED015A32EE026A73EE48
:10399000421AF1EE440A33EE066A71EEA17A75EE30
:1039A000445A61EEA31A33EE023A70EEC50A14EEE1
:1039B000225A50EEA67A45EE241A75EEA52A26EE76
:1039C000246A47EE811A53EE262A05EEA36A21EEF9
:1039D000815A22EE263A02EE816A04EE665A06EE1B
:1039E000013A05EE012A03EE014A24EE408A22EE56
:1039F000009A87ED038A87ED049A00F0CDFCB0EEC3
:103A0000480AF0EE490A00F07DF941F28427C2F23B
:103A100000073868411C002839601CD1D9F8000023
:103A200002F0F4FA9FEDB00B53EC102B02F0F0F91A
:103A300000223A6002F044F940F2000746F6D01145
:103A40000246C2F20007C0F600013868FCF77AFCB3
:103A5000396808443860FEF7A5FE41F28820C2F2BA
:103A6000000001684A1C0029026019D198ED070A7C
:103A700099ED001A40F200070021C2F2000721EE82
:103A8000000ABDEEC00A016046F6D411386810EE97
:103A9000102AC0F60001FCF755FC3968084438606C
:103AA000FEF780FE0AE100BF00007A420000FA3C07
:103AB00000007A44AE47613DDE0A013B41F28830A6
:103AC0000021C2F20000016000F094FD41F280315B
:103AD00041F2D4209FED860AC2F20001C2F200003A
:103AE00090ED061A91ED002A41F27C31C2F20001FC
:103AF00021EE003A91ED000A32EE031AB4EEC10A4B
:103B0000F1EE10FA06DA33EE421AB4EEC10AF1EE23
:103B100010FA03DCB0EE410A81ED001A41F2843262
:103B200041F2543190ED073A90ED042A9FED715A1D
:103B3000F8EE002AF0EE083ADFED704ADFED706A29
:103B4000C2F20002C2F2000192ED001A91ED004AA9
:103B500046F2C412C0F6000223EE011A01EE042A56
:103B600022EE051ABDEEC12AB5EEC01A12EE100AF9
:103B7000F1EE10FA9FED602AB8BF013803EE100A8B
:103B8000B8EEC33A31EE431A21EE021ABDEEC12A55
:103B900012EE100A00F180016FF35F206FF35F21D6
:103BA00007EE100A02EB8101B8EE477A91ED002A88
:103BB00091ED013A02EB800131EE471A91ED004A96
:103BC00091ED015A32EE026A73EE421AF1EE440AA6
:103BD00033EE066A71EEA17A75EE445A61EEA31ACD
:103BE00033EE023A70EEC50A14EE225A50EEA67A6F
:103BF00045EE241A75EEA52A26EE246A47EE811AB0
:103C000053EE262A05EEA36A21EE815A22EE263AC9
:103C100002EE816A04EE665A06EE013A05EE012ACA
:103C200003EE014A24EE408A22EE009A87ED038AD1
:103C300087ED049A00F0B0FBB0EE480AF0EE490AB6
:103C400000F060F841F28C20C2F2000001684A1CCA
:103C50000029026010D140F2000700210022C2F2C8
:103C60000007016046F6D0113868C0F60001FCF785
:103C700069FB396808443860FEF794FD41F29020F2
:103C8000C2F2000001684A1C0029026014D1002120
:103C900040F20007016041F25831C2F20007C2F25F
:103CA000000138680A6846F6D411C0F60001FCF736
:103CB00049FB396808443860FEF774FD20686FF0EE
:103CC000040101602868016030680160BDEC048B6C
:103CD00001B0BDE8F08300BF610B363BDB0F49BC90
:103CE000DB0F493C00BF00BF0000000080842E4174
:103CF000DE0A013B610B363B00000044DB0F49BC90
:103D0000DB0F493C9FED5E3AB0EE602A9FED5D4AC5
:103D1000B6EE001AF5EEC00A0020F1EE10FA10EE31
:103D2000032AB0EE603AC8BF012010EE043A22EE3A
:103D3000015A23EE010AB5EEC05AF1EE10FAB5EEC3
:103D4000C00AC8BF40F00200F1EE10FAC8BF40F050
:103D50000400411E05290BD8DFE801F0030F1821EC
:103D60002A339FED4B4A23EE040A22EE042A2EE06A
:103D70009FED452AB0EE420A29E09FED440A9FEDEF
:103D8000442A20EE800A23EE022A20E09FED420A18
:103D90009FED403A20EE800A22EE032A17E09FEDC5
:103DA0003C0A9FED3A3A22EE000A20EE832A0EE00A
:103DB0009FED380A9FED382A23EE000A20EE822A72
:103DC00005E09FED344A22EE040A23EE042A9FED1B
:103DD000333A30EE024AB4EEC34AF1EE10FA07DD90
:103DE00080EE040A82EE042A20EE030A22EE032A61
:103DF00010B533EE423A00F0070033EE403A411E70
:103E000023EE011A0529BCEEC11A11EE10CAB8EE54
:103E1000411A32EE011ABCEEC11A11EE10EAB8EEE8
:103E2000411A30EE010ABCEEC00A0BD810EE100A9F
:103E300073466246DFE801F0030D1C111519724646
:103E4000634615E041F2941241F2941341F294104A
:103E50000EE00346624670460AE00246734660463C
:103E600006E002466346704602E00346724660463C
:103E700040F23441C4F201010A604B60886010BD19
:103E8000D7B3DD3FD7B3DDBF000000003861A2C368
:103E9000386122C3386122433861A24300A08C45B7
:103EA00070B52DED108B41F2D42C9FEDF10A9FEDF2
:103EB000F12A9FEDF13A46F2C41EC2F2000CC0F6A0
:103EC000000E9CED041A21EE004A31EE022A31EE7A
:103ED000031ABDEEC45AB5EEC04A22EE002A21EE06
:103EE000003ABDEEC21A15EE100AF1EE10FAB5EE68
:103EF000C02ABDEEC35AB8BF0138F1EE10FA11EE78
:103F0000101AB5EEC03A15EE102AB8BF013905EE09
:103F1000100AF1EE10FA01EE101AB8EEC16AB8EE0E
:103F2000C55A9FEDD61AB8BF013A34EE454A32EE73
:103F3000462A05EE102A62EE015AB8EEC52A64EE52
:103F4000014ABDEEE54A33EE422ABDEEE43A13EEF5
:103F5000103A62EE017A14EE101AB8EE004A9FEDA4
:103F6000C83A03F180026FF35F23BDEEE72A01F147
:103F700080006FF35F216FF35F220EEB83040EEB83
:103F800081060DEE101A6FF35F2005EE103A41F234
:103F900070330EEB820294ED006A94ED018A12EE0A
:103FA000104A0EEB8000B8EE45FAD6ED000AB0EEEE
:103FB000082A9FEDF45A96ED01CAB8EE4DDAC2F226
:103FC000000304F18001D2ED001AD2ED016A22460D
:103FD000D0ED01CA74EECF4A75EECD5A41F2C0243D
:103FE0006FF35F216FF35F22F1EE463AF0EE48AADD
:103FF000B1EE60EAF0EE4CDAC2F200040EEB82059C
:104000000EEB810136EEE1BA73EEC88AD0ED003ACC
:1040100056EE04AA50EE84DA41F2C42095ED007AFF
:10402000D1ED002A91ED01AA95ED019A7BEE0B9A54
:104030006BEE02BA3EEE4CEA3CEE60CA38EE468ABF
:1040400041F26C3541F25431C2F2000058EE839ACD
:104050004AEE85BAC2F20005C2F20001B1EE47BADB
:104060003AEE62FA49EEA4BA7BEE498A7FEE0FAAD5
:104070002FEE02BA3CEEE3FA3FEE0FDA2FEE02FA31
:1040800058EE83AA1EEE03DAB0EE49EA0DEE85FA89
:1040900017EE04EA0DEE25FA0EEE05BA7CEEA38AC1
:1040A0003CEE0CEA2BEEA4DA78EE08BA72EEA2DA55
:1040B00039EE479A18EE83EA06EE43DA76EEA18AE5
:1040C0007AEE2D9A0DEE902A41F294223AEE22AA2F
:1040D00058EE83BAF8EE6DDA71EEA18A69EE859A30
:1040E000C2F2000276EEA86A77EEED7A49EE029A05
:1040F000D2ED028A66EE856A0AEEA7BA48EE026A37
:1041000033EEA38A4BEEA46A3CEE888A28EE058A39
:104110000CEE028A2FEE25CA39EE09FA0EEE258A38
:1041200092ED01EA23EE839A1AEE03FA00EEC3CA77
:1041300008EE259A4FEE279A4CEE253A49EE250ACD
:10414000D1ED005A21EE83AA4DEE241A41F27831C6
:1041500022EE83DA06EEA4AA09EEA7DAC2F2000183
:104160006BEE276A92ED00BA0AEE246A47EE436AC4
:104170000DEE277A46EEA72A61EE8B1A26EE0B6A21
:1041800043EE8E1A00EE8E6ADFED7F0AD3ED003A21
:1041900041F2743307EE286A42EEA81AD5ED002AE0
:1041A00094ED007A0025C2F2000366EE204A61EE2B
:1041B000A00A90ED006A1D600D6072EEE42A73EEB5
:1041C000E03AC2ED094AC2ED0A0A05EEA27AF1EE22
:1041D000042A05EEA36AB4EEE27A84ED007A80ED5B
:1041E000006AF1EE10FA09DAF9EE042AB4EEE27A86
:1041F000F1EE10FAD8BFC4ED002A01E0C4ED002AA8
:10420000B1EE047AB4EEC76AF1EE10FA09DAB9EE4B
:10421000047AB4EEC76AF1EE10FAD8BF80ED007AE6
:1042200001E080ED007A9FED596A9CED067ADFEDA2
:10423000582ADFED583A67EE064A27EE226A01EE69
:10424000A36A81ED006A24EEE07A64EEA01AFFEE24
:10425000000AF4EEE01A83ED007AF1EE10FA11DDB7
:10426000F7EE002AF4EEE21AF1EE10FA10DB0BE0A2
:10427000610B363B0000F0C20000F0420000004439
:10428000DB0F493CF7EE000AB0EE607AC3ED000A9E
:10429000DCED040A20EE800AFDEEC00AB5EEC00A8D
:1042A00010EE900AF1EE10FAB8BF013800EE900A55
:1042B000F8EEE00A30EE600A20EE010ABDEEC01A08
:1042C00011EE100A00F180016FF35F206FF35F21A0
:1042D0000EEB800303EE900A0EEB810193ED001AC2
:1042E000D3ED010AF8EE633AD1ED001AD1ED012ABF
:1042F00030EE630AF1EE414A30EEC18A72EEE15AC5
:1043000071EEA16A74EEE04A51EE040A75EEA57AE8
:1043100065EE825A32EEA64A24EE054A40EE855AF0
:1043200054EE837A08EE024A47EE805A72EEA10AF2
:1043300078EE082A25EE802A21EE835A50EE832A51
:1043400001EE432A02EE804A42EE001A04EE005AC1
:1043500005EE001A21EE878A21EE079A01EE468AC1
:1043600001EE869A82ED038A82ED049A00F014F839
:10437000B0EE480AF0EE490ABDEC108BBDE8704083
:10438000C0E400BFDB0F49BCABAA2A3FCDAF663803
:10439000DE0A013B65CF0B3841F2D42041F24C31AB
:1043A0004CF67302C2F20000C2F20001C3F29F4257
:1043B000808CC0F1040000EE100A10F1110FB8EE6D
:1043C000C01A0A6041F2483145F65432C2F2000187
:1043D000C3F6EA220A6041F2503140F63142C2F29D
:1043E0000001C3F6C3320A6029DC9FED752A9FEDF8
:1043F000754A9FED755A9FED756ABBEE003A00BF96
:1044000031EE020AB4EEC30AF1EE10FA19DA31EE17
:10441000040AB4EEC30AF1EE10FA12DA31EE050A1C
:10442000B4EEC30AF1EE10FA0BDA31EE061AB4EE6E
:10443000C31AB0EE410AF1EE10FAE1DB01E0B0EE92
:10444000410AB3EE001AB4EEC10AF1EE10FA02DA34
:10445000B0EE406A26E09FED5E2A9FED5E3A9FED4A
:104460005E4A9FED5E5A00BF30EE026AB4EEC16A4A
:10447000F1EE10FA16DB30EE036AB4EEC16AF1EE2B
:1044800010FA0FDB30EE046AB4EEC16AF1EE10FAF6
:1044900008DB30EE050AB4EEC10AB0EE406AF1EE78
:1044A00010FAE1DAF0B581B02DED048B41F2D0269F
:1044B000BDEEC60A9FED4B2AC2F2000610EE107A3E
:1044C0009FED470AB6F9000039B201EE101A0A1A38
:1044D000B8EEC11A03EE102A21EE008A3A04B8EEB3
:1044E000C30A012A00EE028A02DB814203DC13E0E8
:1044F00092B1814210DAA1EB400041F2D2219FED4E
:104500003A0AC2F20001B1F90010084401EE100AA3
:10451000B8EEC11A01EE008A18EE100A01F076FD1D
:10452000044641F2D2209FED200B0D463780C2F2A7
:104530000000078053EC102B204601F0A0FD9FEDFA
:104540002B9A10B1B0EE498A0BE09FED190B204673
:10455000294653EC102B01F099FD002808BFB0EE5E
:10456000498A18EE100A01F051FD9FED130B53EC30
:10457000102B01F04DFC9FED1E0A28EE000ABDEE47
:10458000C08A01F023FB41F25431C2F200010860FD
:1045900018EE100A40F22C410138C4F20101086003
:1045A000BDEC048B01B0F0BD008067F5FF7F4B4090
:1045B000008067F5FF7F46408DEDB5A0F7C6B03EA1
:1045C00000000042000080420000C04200000043A2
:1045D000000000C2000080C20000C0C2000000C392
:1045E00073C89F34545BEA3A310CC33B0000484225
:1045F0000000B44241F24430C2F200000078C11E13
:10460000022927D30138012800F2CF8041F28C31F2
:1046100041F25430C2F20001C2F2000091ED003AC2
:1046200041F2883190ED000A41F2CC20C2F2000143
:10463000C2F2000091ED001A20EE033A90ED002A3C
:1046400031EE434AB4EEC42AF1EE10FA26DA32EE25
:10465000031A2CE041F28C3141F25430C2F20001D5
:10466000C2F2000091ED003A41F2883190ED000A6B
:1046700041F2CC20C2F20001C2F2000091ED001A1A
:1046800020EE033A90ED002A31EE434AB4EEC42AFC
:10469000F1EE10FA46DA32EE031A4CE033EE014A3C
:1046A000B4EEC42AF1EE10FAC8BF32EE431A41F25A
:1046B000903141F2D42280ED001A41F27030C2F202
:1046C0000001C2F20002C2F2000092ED032A41F2A0
:1046D000943291ED003A41F2C821C2F20002C2F2D6
:1046E000000131EE425A91ED004A92ED006A23EE4C
:1046F000052A9FED3A3A04EE062A05EE004A81EDBE
:10470000004AB4EEC34A80ED002AF1EE10FA4DDA09
:104710009FED333AB4EEC34AF1EE10FAD8BF81ED03
:10472000003A45E033EE014AB4EEC42AF1EE10FA45
:10473000C8BF32EE431A41F2903141F2D42280EDEB
:10474000001A41F27C30C2F20001C2F20002C2F251
:10475000000092ED032A41F2943291ED004A41F2B9
:10476000C821C2F20002C2F2000131EE425A91EDBC
:10477000003A92ED006A9FED192A24EE054A03EEF5
:10478000064A05EE003A81ED003AB4EEC23A80EDF9
:10479000004AF1EE10FA1DDA9FED112AB4EEC23A8A
:1047A000F1EE10FAD8BF81ED002A704781ED003A92
:1047B000B2EE0E0AB4EEC02AF1EE10FA07DABAEE43
:1047C0000E0AB4EEC02AF1EE10FAC8BF704780EDB1
:1047D000000A704781ED002A704700BFD253FB41A9
:1047E000D253FBC170B582B0182646F2B8144FF010
:1047F0000040C4F20206C0F600043060204600F01B
:1048000081FE4EF210054FF400403060CEF20005FC
:1048100028680190019802202968C90300EBE17023
:1048200078B12968C90300EBE17050B12968C90368
:1048300000EBE17028B12968C90300EBE1700028A2
:10484000EAD14FF000403060A01C00F05BFE4FF456
:104850000040306028680190019802202968C9034F
:1048600000EBE17078B12968C90300EBE17050B149
:104870002968C90300EBE17028B12968C90300EB7E
:10488000E1700028EAD14FF000403060201D00F0B8
:1048900039FE4FF4004030602868019001980220F2
:1048A0002968C90300EBE17078B12968C90300EBFE
:1048B000E17050B12968C90300EBE17028B12968A3
:1048C000C90300EBE1700028EAD14FF000403060EE
:1048D000A01D00F017FE4FF40040306028680190E2
:1048E000019802202968C90300EBE17078B12968BA
:1048F000C90300EBE17050B12968C90300EBE17016
:1049000028B12968C90300EBE1700028EAD14FF013
:104910000040306004F1080000F0F4FD4FF4004066
:104920003060286801900198022000BF2968C903FF
:1049300000EBE17078B12968C90300EBE17050B178
:104940002968C90300EBE17028B12968C90300EBAD
:10495000E1700028EAD102B070BD00BF2DE9F04738
:1049600082B040F61849002048F22108ADF8040052
:10497000C4F202094FF48020C9F8000048F2210077
:10498000FDF724FE40F20046C4F20206306820F42F
:10499000406030603068306001A8FDF76FFE41F282
:1049A000D427C2F2000707F1260A5046FDF766FE3B
:1049B000042041F25C319FED7D0A9FED7D1AC9F81C
:1049C0000000C2F20001306820F4406030603068BE
:1049D00040F400603060BDF804006FF3DF3002EE99
:1049E000100AB8EE422A0A880880388022EE000AAF
:1049F00022EE011A811A6FF4804287ED010A87EDD9
:104A0000021A914202DC01F5004104E0B1F5804F49
:104A1000C8BFA1F5004141F2FC229FED662AC2F217
:104A2000000292ED000A82ED001A41F25832C2F201
:104A3000000231EE400A1368B4EEC20A1944F1EEE6
:104A400010FA116004DD9FED5E1A30EE010A0AE0F3
:104A50009FED591AB4EEC10AF1EE10FABCBF9FEDFA
:104A6000571A30EE010A41F2003241F2543541F258
:104A700004334AF6AB2C9FED543AC2F20002C2F264
:104A80000005C2F20003CAF6AA2C117895ED001AAF
:104A900003EB810380EE010A93ED002A83ED000A07
:104AA0004B1C398CA3FB0C54A50841F21C34401A52
:104AB000C2F2000405EB450504EE100A94ED001A5D
:104AC000A3EB450031EE421A9FED3E2A31EE000A7B
:104AD000B8EEC41A107041F2203041F22432C2F212
:104AE000000021EE031A9FED393AC2F2000220EED7
:104AF000024A84ED000A017887ED034A87ED041A23
:104B000020EE030A02EB8102013192ED001A82EDE0
:104B1000000A41F23C32A1FB0C35C2F20002AB08A4
:104B200092ED003A03EB4303A1EB430133EE411A4C
:104B30009FED273A0170002031EE000AADF8060023
:104B40004FF4802020EE021A20EE032A82ED000AA4
:104B500087ED061A87ED072AC9F8000008F1300032
:104B600080B2FDF733FD306820F44060306030687B
:104B700030600DF10600FDF781FD5046FDF77EFD2A
:104B80000420C9F80000306820F4406030603068CC
:104B900040F400603060BDF80600400AB884F88C2C
:104BA000000BF88402B0BDE8F08700BF0000343C81
:104BB000DB0F4939DB0F4940DB0F49C0DB0FC94030
:104BC000DB0FC9C0ABAA2A3E3B819D3D5655953FA0
:104BD000EBC918412DE9F0470C6894FAA4F2B2FA37
:104BE00082F234FA02F352D04FF001084FF0030C76
:104BF0004FF00F0E08FA02F314EA030942D099FAB3
:104C0000A9F34E680568B3FA83FA4FEA4A070CFA2B
:104C100007F406FA07F3A5432B430360E343741E2E
:104C2000012C05D88C688568BC401D402C438460ED
:104C30000C69C568022E04FA07F403EA050343EA87
:104C40000403C3601ED14B69BAF1070F0AD84FEABB
:104C50008A04056AA3400EFA04F425EA04042343F7
:104C600003620FE04FEA1924456A94FAA4F4B4FAF7
:104C700084F4A400A3400EFA04F425EA04042343B8
:104C8000436200BF0C68013234FA02F3B2D14A68C1
:104C9000013A012A88BFBDE8F087C96842686143CC
:104CA000A24311434160BDE8F08700BF10B586B054
:104CB0000446C8B3206C002840F08F80002042F2E8
:104CC00000220590CDE90300CDE90100C4F2010204
:104CD000216891422BD042F20010C4F201008142BF
:104CE00041D042F20000C4F20100814272D143F689
:104CF000300100200090C4F202014A6942F480723F
:104D00004A614A6902F480720092009A00900A682F
:104D100042F004020A60096801F004010091009960
:104D20000321029102213AE0012006B010BD43F6B2
:104D300030010090C4F202014A6942F480624A6183
:104D40004A6902F480620092009A00900A6842F078
:104D500004020A60096801F004010091009903212E
:104D6000029108211BE043F6300100200090C4F2BC
:104D700002014A6942F400724A614A6902F400720F
:104D80000092009A00900A6842F004020A600968E2
:104D900001F0040100910099032102910421019185
:104DA000039040F6000001A9C4F2020000F07AFD71
:104DB0004EF60C500021CEF2000000684EF2124078
:104DC000CEF2000001704EF200104FF48021CEF2BE
:104DD000000001600020E0636064206C10F0100FA0
:104DE0003AD1206C41F202110123C0F600738843CE
:104DF00040F00200206442F20430C4F20100016875
:104E000021F440310160616802681143016020684B
:104E1000416821F4807141602169426842EA0121C0
:104E20004160416821F040714160A16842681143CE
:104E30004160816821F400618160E168826811430A
:104E40008160A16A826822F0706299428260826801
:104E500004D122F040510AE001204FE0114381606B
:104E6000816821F040518160E16A8268114381606C
:104E7000816821F002018160A169826842EA4101F2
:104E80008160226A416882B141F400614EF2000201
:104E90004160CFF6FF72416821F460414160616A70
:104EA00002EB41314268114301E021F400614160AD
:104EB0000022C16ACFF6F07221F47001C162E1698B
:104EC00002EB0151C26A1143C162816821F4007191
:104ED0008160216B826842EA41218160816821F40E
:104EE000806181606169826842EA8121012281607A
:104EF00000206064216C62F3010121640021E16300
:104F000006B010BD70B581B000220092C26B012ABC
:104F100001D102214AE00122C263D1F800E01FFA68
:104F20008EFCBEF10A0F4FEA4C0212FA8EF204D345
:104F300003681E3A03F10C0402E0036803F1100455
:104F400007252668954026EA050525608D6805FA3F
:104F500002F225682A4322604A68062A05D802EB35
:104F6000820203F13401053A0BE002EB82040C2AC1
:104F700087BF03F12C01A4F1410203F13001A4F138
:104F800023021F240D6894400CFA02F225EA04045F
:104F90000C600E6832430A6042F20431C4F201012F
:104FA000A1F54172934204D00021C163084601B0CB
:104FB00070BDBEF1110F10D01222C1F20002964551
:104FC0000BD0BEF1120FEFD10A6822F400020A6082
:104FD0000A6842F480020A60E6E70A6822F4800266
:104FE0000A600A6842F400020A601221C1F200015C
:104FF0008E45D9D140F208014DF68362C2F200011C
:10500000C4F21B320968A1FB0212910C01EB810171
:10501000490001E000990139009100990029C3D0AD
:1050200000990139009100990029BDD000990139FA
:10503000009100990029B7D0009901390091009999
:105040000029E7D1B0E700BF81B000210091C16B1A
:10505000012963D00121C16301688A6812F0010F40
:1050600027D18A684DF68363C4F21B3342F00102F4
:105070008A6040F20802C2F200021268A2FB032317
:105080009A0C02EB420201E0009A013A0092009A67
:105090007AB1009A013A0092009A52B1009A013A0C
:1050A0000092009A2AB1009A013A0092009A002ACE
:1050B000EAD18A6812F0010F30D0026C43F201038A
:1050C00042F2000CC4F2010C9A4342F48052026492
:1050D000026C12F4807F04BF002242640022C2638B
:1050E0006FF004000860486840F080004860DCF819
:1050F000043388684A6800F4401002F4806213F0B8
:105100001F0F09D0614501BF50EA0200886840F4D2
:105110008000886001B07047104301D001B0704733
:10512000886840F48000886001B07047C26B012A33
:1051300002BF02210846704770B50122C263D1F850
:1051400000C01FFA8CFEBCF10A0F4FEA4E0212FAA1
:105150008CF204D303681E3A03F10C0402E00368E6
:1051600003F1100407252668954026EA0505256009
:105170008D6805FA02F225682A43226000249A6BA2
:10518000CFF6F07422F440129A630A699D6B04EB27
:105190000254C2F103022C439C634D689E6B2A4467
:1051A000D4B2A40054FA82F21F2494400EFA02F200
:1051B00026EA04049C639E6B324301269A63C0F284
:1051C0000F06CC699A6822F47022B4429A609A68F9
:1051D00002D122F4401409E022439A609A6822F432
:1051E00040129A600A6A9E6846EA02049C608A69D4
:1051F0005E6846F48064002A08BF26F480645C6020
:105200004A695E6846F48054002A08BF26F4805438
:10521000032D5C6008D0022D09D0012D14BF03F1CD
:10522000200203F1140204E003F11C0201E003F187
:105230001802166840F6FF75AE431660C968166816
:105240003143116042F20431C4F20101A1F541720F
:105250009342BDE8704012D1BCF1110F0BD0122265
:10526000C1F20002944506D0BCF1120F07D10A68C2
:1052700042F4800202E00A6842F400020A6000215F
:10528000C1630846704700BFB0B586B040F24C1409
:10529000C2F20004206B002841D1002546F20040F4
:1052A0000595CDE90355CDE90155C4F2000021680B
:1052B000814234D143F63001009500F5CE30C4F27E
:1052C00002010A6942F000720A610A6902F0007282
:1052D0000092009A00950A6842F001020A604FF4B9
:1052E000C052096801F00101009100990221029168
:1052F00001920391032104910921059101A900F074
:10530000D1FA4EF60C504FF48011CEF20000006836
:105310004EF20010CEF2000080F8145301602368B2
:1053200041F24031C2F20001186820F0020018601A
:105330000A685D68206815F0020F22D00B689B1A7E
:105340000B2B80F08B80436813F0020F18D00B6892
:105350009B1A0A2B00F28280436813F0020F0FD0D1
:105360000B689B1A0A2B79D8436813F0020F07D0F9
:105370000B689B1A0A2B71D8436813F0020FDDD11A
:1053800003461A6842F001021A600A68436813F083
:10539000010F20D120680B689B1A0B2B64D2436845
:1053A00013F0010F17D10B689B1A0A2B5CD84368C6
:1053B00013F0010F0FD10B689B1A0A2B54D84368C6
:1053C00013F0010F07D10B689B1A0A2B4CD84368C6
:1053D00013F0010FDFD0A1690268251D22F08003C0
:1053E000012908BF42F080030360E169026822F0EE
:1053F0004003012908BF42F040030360216A0268AC
:1054000022F02003012908BF42F020030360616AF3
:10541000026842F01003012908BF22F01003036064
:10542000A16A026822F00803012908BF42F00803BC
:105430000360E16A026822F00403012908BF42F018
:10544000040303602ECD1A43636901392A431A43CA
:1054500011430122C161002100200AE0606B052296
:1054600040F40031012004E0606B052240F400317B
:1054700001206163226306B0B0BD00BF40F24C134F
:10548000C2F200031A68196B03F1340C01399368F6
:10549000012909D813F0E05F09D0C3F30163032B9E
:1054A00008D14FF4000026E04FF4802023E04FF4B1
:1054B000001020E002EB031141F26032C2F2000260
:1054C00001F5C07C1278002A1CBF0022C5F2400200
:1054D000C1F8802141F26432C2F200021278002A3F
:1054E00018BF0822C1F884214268C1F88C210068E5
:1054F000C1F888010120DCF800100843CCF8000056
:10550000704700BF40F29011C2F200010A6D012AFB
:1055100008BF7047B0B582B041F240354FF0010C82
:10552000C1F850C0C2F200052C684B6D012B40F051
:10553000E880002800F0E580032301224B6500236A
:105540008B65CA8608638A868B638B87C1E91033B3
:10555000CB87D1F808E00B68BEF5004F02BF1A6890
:1055600042F480421A601A6812F0400F02BF1A68B3
:1055700042F040021A60CA68B2F5006F1AD130F8E2
:10558000022BDA60CA8E013ACA86086307E000BFC0
:1055900030F8022BDA600863CA8E013ACA86CA8ED6
:1055A00012B39A6812F0020FF2D12A68121B952AE0
:1055B000F5D9A6E010F8012B1A73CA8E013ACA86F3
:1055C000086306E010F8012B1A730863CA8E013ACB
:1055D000CA86CA8E42B19A6812F0020FF2D12A68C6
:1055E000121B952AF5D98CE040F2080049F6817229
:1055F000C2F20000C1F25E620068A0FB0202500D20
:105600004FF47A7210FB02F001904868B0F5827F87
:1056100048D1986810F0800F68D02868001B962841
:1056200017D2986810F0800F60D02868001B95286A
:105630000FD8986810F0800F58D02868001B952864
:1056400007D8986810F0800F50D02868001B952864
:10565000DFD95868BEF5004F20F0E000586002D056
:10566000BEF5806F03D1186820F040001860886A8A
:10567000B0F5005F07D1186820F400501860186872
:1056800040F4005018600120486500200865886DCE
:1056900040F02000886520208865BEF1000F2FD1E2
:1056A00027E000BF019808B301980138019098687D
:1056B00010F0800F1AD00198C0B101980138019004
:1056C000986810F0800F11D0019878B101980138D6
:1056D0000190986810F0800F08D0019830B10198BF
:1056E00001380190986810F0800FDBD1BEF1000FF7
:1056F00006D100200090D86800909868009000982B
:10570000886D00200865C1F854C002B0BDE8B04003
:10571000704700BF40F230230246C2F20003D86B4C
:1057200020281CBF02207047002A18BF002901D181
:1057300001207047986B012804BF022070472DE9B3
:10574000F041002001262124D98445F6190558642A
:105750001A629E639984DC6345F64104C0F6000535
:10576000D3F830E0C0F60004CEE9105445F6450504
:10577000C0F60005CEE91450DEF83440D3F800C07E
:10578000012C3BD0DEF85C80CEF83460DEF8385077
:10579000012D30D102260CF10405CEF83860002628
:1057A000CEF85860DEF80060DEF808703468402FEC
:1057B00024F4802434607160114608BF2946B1602A
:1057C00008BF15463F22F560DEF8601002FA01F1CD
:1057D000C8F80810316841F016013160716941F074
:1057E00080017161316841F008013160316841F038
:1057F0000101316002E00021CEF834106FF0400169
:10580000CCF800109863DCF8141041F08001CCF85B
:105810001410BDE8F08100BF0168C06B096811F485
:10582000807F18BF70470021C1840068416921F062
:1058300080014161C16841F04001C160704700BF13
:10584000704700BFC06B01684A69C36B212B0AD146
:1058500012F0800207D00022C284CA6822F0C0027F
:10586000CA602022C2634A69036C222B0ED112F057
:1058700040020BD00022C285CA6822F49072CA602E
:105880004A6922F001024A6120210164416C41F021
:1058900010014164704700BFC06B0021C185C18405
:1058A000704700BF2DE9F04F82B041F60003072298
:1058B00043F6004B4FF0010A00264FF0000CC4F2F3
:1058C0000203C4F2010B984200F13E4303F1FF735F
:1058D00008BF06224FEAB327062F4FF0000738BF54
:1058E0004FEAB322009209E00CF1010C02370436B2
:1058F000BCF1100F04BF02B0BDE8F08F0A680AFACD
:105900000CF812EA080FEFD0D1F804E04EF01002C4
:10591000122A14D106F01C020F2303FA02F44FF6E8
:10592000FC73C7F6FF7303EA5C0505442B6AA343C7
:105930000C6904FA02F21A432A62D1F804E0032344
:1059400004680EF00302BEF1120F03FA07F302FA25
:1059500007F224EA03046FEA030942EA0402026040
:1059600014D80AFA0EF212F0061F0FD08268CB6824
:1059700002EA0902BB401A438260CEF30012436878
:1059800002FA0CF223EA08031A434260C2688B68E9
:1059900002EA0902BB401A43C2605FEACE02A3D505
:1059A000002206F00C050F24019243F64402AC409D
:1059B000C4F202021346126842F480421A601A6866
:1059C00002F4804201922CF00302019B5A444FF6EC
:1059D0000843CFF6FF739E46D358A343009C04FAB6
:1059E00005F52B4342F80E30DBF800204D6842EA03
:1059F000080315F4803F08BF22EA080315F4003FAE
:105A0000CBF80030DBF8042042EA080308BF22EAA2
:105A1000080315F4801FCBF80430DBF8082042EAB5
:105A2000080308BF22EA080343F60C4215F4001FDE
:105A3000C4F20102CBF808301446126842EA0803A7
:105A400008BF22EA080323604EE700BF4EF68850E5
:105A50004FF0000CCEF20000016841F470010160CB
:105A600043F60001C4F202010A6842F001020A6032
:105A7000C1F808C04FF6FF720B68CFF6F6621A4005
:105A80000A6043F21002C2F200424A600A6822F43D
:105A900080220A60C1F80CC04FF0006140F8801C01
:105AA000704753EA020C00F069802DE9F04B4FF08B
:105AB0000006002B1FBFB3FA83F503FA05F424FA9E
:105AC00005F65E4012BF1643B2FA82F502FA05F4FB
:105AD000C5F120051EBF22FA05FC44EA0C0420355E
