:020000040800F2
:10000000B019002005030008352B0008392B000823
:100010003D2B0008412B0008452B00080000000084
:10002000000000000000000000000000492B000854
:100030004D2B000800000000512B0008552B000834
:100040001F0300081F0300081F0300081F03000808
:100050001F0300081F0300081F0300081F030008F8
:100060001F0300081F0300081F0300081F030008E8
:100070001F0300081F0300081F0300081F030008D8
:100080001F0300081F030008293000081F03000891
:10009000652B0008692B00081F0300081F030008D8
:1000A0001F0300081F0300081F0300081F030008A8
:1000B0001F0300081F0300081F0300081F03000898
:1000C0001F0300081F0300081F0300081F03000888
:1000D0001F0300086D2B00081F0300081F03000802
:1000E0001F0300081F0300081F0300081F03000868
:1000F0001F0300081F0300081F0300081F03000858
:100100001F0300081F0300081F0300081F03000847
:100110001F0300081F0300081F0300081F03000837
:100120001F0300081F0300081F0300081F03000827
:100130001F03000800000000000000001F0300086B
:100140001F0300081F0300081F0300081F03000807
:100150001F0300081F030008452E00081F030008A6
:100160001F0300081F0300081F0300081F030008E7
:100170001F0300081F0300081F0300080000000001
:10018000000000001F030008000000000000000045
:100190001F03000800000000000000001F0300080B
:1001A0000000000000000000000000001F03000825
:1001B0001F0300081F0300081F0300081F03000897
:1001C0001F03000800F002F800F08DF80AA090E884
:1001D000000C82448344AAF10107DA4501D100F002
:1001E00082F8AFF2090EBAE80F0013F0010F18BF42
:1001F000FB1A43F001031847545D0000745D0000D2
:10020000103A24BF78C878C1FAD8520724BF30C842
:1002100030C144BF04680C60704700000023002414
:1002200000250026103A28BF78C1FBD8520728BF06
:1002300030C148BF0B6070476E2900F03B817029C8
:1002400000F07D826629AFF300806529AFF300805E
:100250006729AFF300806129AFF3008003681B0AB0
:1002600028BF41F08001692900F0E880642900F08E
:10027000E580752900F0E2806F2900F00B82782973
:1002800000F04982E92900F0A581E42900F0A2816B
:10029000F52900F09F81EF2900F00882F82900F08D
:1002A00048820368DB0928BF41F08001632900F020
:1002B000BD83732900F0C283E32900F0CD83F329C5
:1002C00000F0D283002070471FB505F0F5F900F06B
:1002D0002FFC04000020002105F0D8F9401C6060CC
:1002E0001FBD10B510BD00F0EBFB1146FFF7ECFF92
:1002F00000F068FC00F012FC03B4FFF7F2FF03BC4F
:1003000000F058FC0948804709480047FEE7FEE72F
:10031000FEE7FEE7FEE7FEE7FEE7FEE7FEE7FEE7B5
:1003200004480549054A064B704700003955000846
:10033000C5010008B0130020B0190020B01500203E
:10034000B01500200FB41CB5084B06AA7B446946C3
:100350000090059800F0C7F804460020694600F0B8
:10036000D5F820461CBC5DF814FB0000BD01000060
:1003700070477047704770B5044685690068C106CC
:1003800001D5302600E02026C00707D070BDD4E993
:10039000012130469047206A401C20626D1EF6D530
:1003A00070BD70B5044685690078C00707D170BD7F
:1003B000D4E9012120209047206A401C20626D1E54
:1003C000F6D570BD09684A0501D540B27047C90528
:1003D000FCD500B2704709684A0501D5C0B2704724
:1003E000C905FCD580B2704770B50C460546012A98
:1003F00005D02878800600D5EA69002302E00123B1
:1004000005E05B1C934202D2E05C0028F9D1A869A8
:10041000E618C01AA861286A184428622846FFF71F
:10042000AAFF04E0D5E9012114F8010B9047B4427A
:10043000F8D32846FFF7B5FF70BD00002DE9F04165
:100440000646002410687529314616A510D0FFF71E
:10045000B9FF002802DA404213A507E031688A0795
:1004600001D512A502E0490704D511A5012401E038
:10047000FFF7B1FF00210A2206F1240709E0B0FBD3
:10048000F2FCB0FBF2F302FB1C003030785418464B
:10049000491C0028F3D123462A463046BDE8F041E6
:1004A00000F061BA000000002D0000002B000000E9
:1004B0002000000011680268006A530501D5087029
:1004C0000AE0D30501D5088006E0130603D5C2175C
:1004D000C1E9000200E008600120704701694A1C80
:1004E00002610878704700B58FB0CDE90131002175
:1004F000059105497944CDE903101146684600F09D
:1005000029F90FB000BD0000E5FFFFFF0A6802F8FF
:10051000010B0A60704700002DE9FF5F15468A460F
:100520000446DFF8AC80F8440027D8E900103E46C6
:10053000CDE9001010E05AF826106A4602A800F033
:1005400097FA411C07D02178890603D5E26939184A
:1005500091420DD80744761C2078800602D5E069C8
:10056000B84205DDAE42E6DB5AF826000028E2D1AB
:10057000A069C01BA0612046FFF7FDFED8E900106E
:10058000CDE90010002017E05AF828106A4602A8AA
:1005900000F06EFAB0F1FF3F81460BD000250DF15F
:1005A000080B05E0D4E901211BF8050090476D1CFC
:1005B0004D45F7D308F10100B0428046E4DB206AE4
:1005C000384420622046FFF7ECFEBDE8FF9F0000A4
:1005D000AA5100002DE9F0418046D21D22F0070209
:1005E0000025D2E90002F52915A614D0011E72F1EA
:1005F000000106DA0023D0EB030063EB020211A630
:1006000008E0D8F800108B0701D50FA602E04907D3
:1006100001D50EA601251146002408F1240704E0A7
:1006200000F05CF930323A55641C50EA0102F7D10F
:100630002B46324621464046BDE8F04100F093B9D2
:10064000000000002D0000002B0000002000000032
:1006500030B4002100F1240408E002F00705D208BC
:10066000303542EA4372DB086554491C52EA0305FF
:10067000F3D10468002310A2250708D504F0200454
:100680000C4304D0C46901230CA2641EC46130BCB5
:1006900000F069B910B5044621461068FFF79BFECB
:1006A00002462046BDE810400023D1E7D21D22F0CB
:1006B0000701D1E90023CBE7000000003000000073
:1006C000F0B40D460188090502D5214C7C4402E0B6
:1006D0001F4C7C440E34002100F1240608E002F097
:1006E0000F071209E75D42EA03721B097754491CA0
:1006F00052EA0307F3D102780023120704D5702DC4
:1007000006D009B1022311342246F0BC00F02BB907
:1007100001231034F8E770B504460D4621461068F1
:10072000FFF759FE024629462046BDE870400023E7
:10073000C6E7D21D22F00703D3E90023C0E7036810
:10074000126843F0200303600823C3610023B7E766
:100750000C5000002DE9F05F894604464FF0000A76
:10076000DFF874B1FB44C0F820A02046E168884758
:10077000002874D0252806D0D4E901219047206AAA
:10078000401C2062F1E700265F462046E16888476A
:100790002028054607DB312D05D2781910F8200CEA
:1007A00008B10643F1E7B00701D526F00406C4F806
:1007B0001CA00027C4F818A02A2D09D0284604F050
:1007C0005DFF38B304EB8708303DC8F8185019E0D6
:1007D00059F8041B204604EB87029161E1688847C1
:1007E000012F054618D1E069002820DA26F02006FE
:1007F0001DE0D8F8180000EB800005EB4000303811
:10080000C8F818002046E1688847054604F036FF1E
:100810000028EED1012F0AD02E2D08D12046E16804
:1008200088477F1C0546022F46F02006C4DBA069DE
:10083000002803DA404246F00106A061F00701D02B
:1008400026F010066C2D0BD0682D09D04C2D39D018
:100850006A2D35D0742D35D07A2D33D016E038E09E
:10086000E1682F4620468847B842054609D16C2FDB
:1008700026D04FF48060E16806432046884705464D
:1008800004E06C2F1AD04FF4807006430DB3A5F12D
:100890004100192802D8203546F400664A46294608
:1008A000204626604E46FFF7C7FC80B101280BD0DA
:1008B000F61D26F0070000F1080956E74020E4E79E
:1008C0008020D8E70020D6E706F104094DE7284646
:1008D00052E7206ABDE8F09F9C4F000030B5B0F1B0
:1008E0000A0271F100034FEA900E4EEA817EB0EBEE
:1008F0000E0061EB91014FEA101E4EEA017E10EBF3
:100900000E0041EB11114FEA102E4EEA016E10EB72
:100910000E0041EB11214FEA104E4EEA014E10EB52
:100920000E0041EB1141401841F100014FEAD000A7
:1009300040EA41704FEAD1014FEA810444EA9074E1
:1009400010EB800544EB01046D1944EB0404521BC9
:10095000A3414FF0000348BF0A3200D530BD401C10
:1009600041F1000130BD2DE9F0470D469946924610
:10097000044600F124080168880604D5E06921F0E6
:100980001001216000E00120A84201DD471B00E0CA
:100990000027A1697A1902EB0900081AA0612078E2
:1009A000C00602D42046FFF7E6FC002608E0D4E9A2
:1009B00001211AF806009047206A401C761C20622C
:1009C0004E45F4DB2078C0060AD52046FFF7D3FC5D
:1009D00006E0D4E9012130209047206A401C2062C3
:1009E000381EA7F10107F4DC07E0D4E9012118F86B
:1009F00005009047206A401C2062281EA5F10105D1
:100A0000F3DC2046FFF7CDFC2078000602D502205B
:100A1000BDE8F0870120FBE710B5436913B1AFF3E0
:100A2000008001E0FFF7E0FC012010BD127800F12A
:100A300024010A7000224A700122EDE711684FF08C
:100A4000FF32E9E710B5436913B1AFF3008001E06D
:100A5000FFF762FD012010BD126800F1240142621F
:100A6000002282620122EDE711684FF0FF32E9E7D0
:100A70002DE9F04116460C46054600F047F803689C
:100A800093F80101012807D0FF2C12D8185D80B11E
:100A900001202C70BDE8F081D3F8070132462146D1
:100AA00003F20713C7182846BC46BDE8F0410123EE
:100AB00060474FF0FF30EDE700487047100000201E
:100AC0007546FFF7F9FFAE4605006946534620F02C
:100AD0000700854618B020B5FFF722FCBDE820408E
:100AE0004FF000064FF000074FF000084FF0000BEA
:100AF000AC46ACE8C009ACE8C009ACE8C009ACE859
:100B0000C00921F007018D467047000010B500F0C4
:100B10000FF8001D10BD00BF754B000010B5044656
:100B2000AFF300802046BDE81040FFF7E5BB0000B2
:100B3000004870473000002030B44FF0013C50F8BE
:100B4000042B51F8043BCCFA52F4D51A20D1FCB94D
:100B500050F8042B51F8043BCCFA52F4D51A17D1B3
:100B6000B4B950F8042B51F8043BCCFA52F4D51A1E
:100B70000ED16CB950F8042B51F8043BCCFA52F466
:100B8000D51A05D1002CDAD030BC4FF000007047E8
:100B900029BAB1FA81F111F01801D1F12000844095
:100BA000F2D1CA40CB4012F0FF0213F0FF0330BC79
:100BB000D01A704701491820ABBEFEE7260002009C
:100BC000704700002DE9F04F8FB041F2663143F6D7
:100BD000080701204EF60C5240F20C0944F6D35897
:100BE0004EF21005C2F20001C4F20207CEF200027A
:100BF000C2F20009C1F26208CEF2000508704FF699
:100C0000FF01D7F8F80340F40070C7F8F803D7F8ED
:100C1000F80340F48060C7F8F803D7F8F80340F40D
:100C20008070C7F8F8031068084040F20031C0F245
:100C3000FA5108431060D9F80000A0FB08014FF0FA
:100C4000FF3000EB91110020B0EB116F0BD14EF68D
:100C50000C526960F021CEF20002D1750721A86024
:100C600029601168D075029047F20404F96BC4F250
:100C7000000441F48041F963F96B01F48041029171
:100C800002990290B96B41F08051B963B96B01F0E0
:100C90008051029102990290B96B41F08051B96381
:100CA000B96B01F0805102910299029054F8040C42
:100CB00040F4404044F8040C54F8040C00F4404064
:100CC00002900298386800F00C00042843D038687D
:100CD00000F00C00082804D157F8040C10F4800F21
:100CE00039D1386800F00C000C2804D157F8040CF6
:100CF00010F4800F2FD157F8080C40F4803047F8DB
:100D0000080C41F23830C2F20000016857F8082C94
:100D100012F4003F21D10268521A642A7ED857F893
:100D2000082C12F4003F18D10268521A642A75D8B0
:100D300057F8082C12F4003F0FD10268521A642AA7
:100D40006CD857F8082C12F4003F06D10268521AEA
:100D5000642ADBD962E057F8080C386800F00C0010
:100D600008285BD060210020C4F24721086041F2CE
:100D70003830C2F20000026857F8083C13F0007FD8
:100D80001FD003689B1A022B48D857F8083C13F071
:100D9000007F16D003689B1A022B3FD857F8083CF7
:100DA00013F0007F0DD003689B1A022B36D857F83A
:100DB000083C13F0007F04D003689B1A022BDBD998
:100DC0002CE042F60452C2F2402247F8042C0122E1
:100DD0000A60016857F8082C12F0007F1ED10268E3
:100DE000521A032A1AD257F8082C12F0007F15D194
:100DF0000268521A022A11D857F8082C12F0007F04
:100E00000CD10268521A022A08D857F8082C12F09E
:100E1000007F03D10268521A022ADBD9002041F276
:100E2000383601210290C2F20006B86B40F08050C3
:100E3000B863B86B00F08050029002984020C4F272
:100E40000E2001603268236813F4803F20D133689C
:100E50009B1AB3F57A7F41D8236813F4803F17D1EA
:100E600033689B1AB3F57A7F38D8236813F4803F30
:100E70000ED133689B1AB3F57A7F2FD8236813F409
:100E8000803F05D133689B1AB3F57A7FDBD925E023
:100E900041603068216811F4003F1FD13168091AA0
:100EA000B1F57A7F1AD8216811F4003F16D1316864
:100EB000091AB1F57A7F11D8216811F4003F0DD1DC
:100EC0003168091AB1F57A7F08D8216811F4003F1A
:100ED00004D13168091AB1F57A7FDBD9D7F8F80364
:100EE00000F00F00042809D8052087F8F803D7F888
:100EF000F80300F00F00052840F0D280386840F475
:100F0000E0503860386840F460403860386820F05D
:100F1000F000386057F8080C10F0007F00F0C08037
:100F20003868022161F3010038603068396801F0E7
:100F30000C0108292BD1D7F8F80300F00E00062881
:100F400009D3052087F8F803D7F8F80300F00F005D
:100F5000052840F0A5803868052161F38C20042124
:100F60003860386861F34F3038603868C0F3810109
:100F700042F20040C0F2F400032943D002292ED0EF
:100F8000012904BF41F20020C0F27A0069E041F279
:100F900088313268121A8A4200F282803A6802F07E
:100FA0000C02082AC7D03268121A8A4278D83A68E6
:100FB00002F00C02082ABED03268121A8A426FD898
:100FC0003A6802F00C02082AB5D03268121A8A4236
:100FD00066D83A6802F00C02082ADAD1ABE757F873
:100FE000041C57F8043C01F03F0257F8041C13F4AA
:100FF000800FC1F3881118D1A1FB0001002304F078
:10100000C6FA19E057F8041C57F8043C01F03F02F7
:1010100057F8041C13F4800FC1F3881114D1A1FBFD
:101020000001002304F0B3FA15E041F20020C0F201
:101030007A004843B0FBF2F057F8041C0222C1F3D7
:10104000014102EB41010AE041F20020C0F27A00C6
:101050004843B0FBF2F057F8041CC1F30271B0FB37
:10106000F1F039680FF68062C1F30311515CC8409A
:10107000C9F80000A0FB08014FF0FF3000EB911110
:101080000020B0EB116F0BD14EF60C526960F021CD
:10109000CEF20002D1750721A86029601168D075D1
:1010A0004FF0000918214FF400484FF0040A0124C2
:1010B00002AE4FF0020BCDF81C90C4F20201B86AE8
:1010C00040F08000B862B86A00F080000B900B9886
:1010D000B86A40F00400B862B86A00F004000B90EF
:1010E0000B98B86A40F00100B862B86A00F00100DD
:1010F0000B900B98B86A40F00200B862B86A00F032
:1011000002000B900B98B86A40F00800B862B86A09
:10111000A1F1180700F008000B900B984FF08070B9
:1011200008604FF48000C1F8000440F61840C1F890
:1011300000803146C4F20200C0F800A04FF4807075
:10114000039402903846CDE90499CDF818B0019780
:1011500002F082FD38463146CDE90284CDE904B97A
:10116000069402F079FD1827CDF808A043F6080A86
:101170003146CDE9034BCDE90594C4F20207C4F230
:10118000020A07F6E83002F067FD4020039431467A
:101190000290CDE90499CDF818B007F57A7B58464E
:1011A00002F05AFD4FF480703146CDE902095846ED
:1011B000069402F051FDCDF8089047F2040140F288
:1011C00020430224032602AFDAF82800C4F200010B
:1011D000C4F201030A4640F48000CAF82800DAF895
:1011E000280000F48000029002984EF60C50CEF2D7
:1011F000000000684EF22540CEF2000080F82190F9
:101200004020C5F8F800CDE90699CDE90499CDE96B
:101210000299DAF83C0040F00200CAF83C00DAF823
:101220003C0000F002000B900B9849F2FC3009588A
:1012300021F45C7141F04001115041F29411D960E8
:10124000C3F80890C3F8109053F80C1C41F001014A
:1012500043F80C1C115821F08001115044F2070191
:1012600053F8180C884343F8180C53F8080C40F056
:10127000080043F8080C186820F00100186018688E
:1012800053F81C1C53F8082C21F4407120F00F0077
:1012900043F81C1C22F0730141F0600143F8081C64
:1012A000C3F81490186053F8080C20F0040043F8B9
:1012B000080C53F8080C40F4006043F8080C186858
:1012C00020F010001860186853F81C1C53F8082C04
:1012D00021F4406120F0F00043F81C1C22F4E641A8
:1012E00041F4C04143F8081CC3F81890186053F843
:1012F000080C20F4806043F8080C53F8040C40F00C
:10130000080043F8040C186820F48070186018680E
:1013100053F81C1C53F8042C21F4405120F4706045
:1013200043F81C1C22F0730141F0600143F8041CD7
:10133000C3F81C90186053F8040C20F0040043F824
:10134000040C53F8040C40F4006043F8040C1868D3
:1013500020F480501860186853F81C1C53F8042CB3
:1013600021F4804120F4405043F81C1C22F4E64153
:1013700041F4C04143F8041C41F28811196218601D
:10138000394653F8040C20F4806043F8040C53F8F9
:101390001C0C20F0700043F81C0C53F8180C20F0C3
:1013A000800043F8180C4FF480405862DAF82800A7
:1013B00040F00100CAF82800DAF8280000F0010027
:1013C0000B900B98DAF8280040F00200CAF82800C9
:1013D000DAF8280000F002000B900B98DAF82800E9
:1013E00040F00400CAF82800DAF8280000F00400F1
:1013F0000B900B98802002900394CDE90469CDE90D
:101400000646019802F028FC4FF4404002A981E80A
:1014100051025846394606940224079602F01CFCF5
:101420004FF4E07002A981E8510218203946CDE955
:101430000646C4F2020000F5FD60009002F00CFCCC
:10144000DAF83C0003A902AF05244FF0020840F48B
:101450008050CAF83C00DAF83C0000F4805002905A
:101460000298DAF8280040F00200CAF82800DAF8FA
:10147000280000F00200029002980820029002204A
:1014800081E84102069058463946079402F0E4FB91
:101490003020CDF80C804FF00108394602905846B4
:1014A000CDE90469CDE9068402F0D6FB43F20000E1
:1014B000C4F20100016843F20400C4F2010011F01B
:1014C000400F10D143F200014FF6BF72C4F2010188
:1014D0000B460968914340F61D32114319600168BB
:1014E00021F004010160816940F298174FF4827283
:1014F0004FF400630A242026C2F2000721F40061A1
:101500008161016821F01001016046F200604FF432
:101510000071C4F20000A0F5285087E80502C7E971
:101520000339C7E90581C7E90769C7E90999FC6279
:101530007C6D44B100244FF0000A4FF0000C4FF0D6
:10154000000E009439E0002038650690CDE90400D3
:10155000CDE902000B90DAF8381041F40041CAF8E6
:101560003810DAF8381001F400410B910B990B9008
:10157000DAF8281041F00401CAF82810DAF8281027
:1015800001F004010B910B99022103914FF4E051FA
:1015900002910490032002A905900620069000986D
:1015A00003F0F6FE386A0090D7E9099E97E8051027
:1015B000D7E9033AD7E90581FE69022442EA0C0221
:1015C00041F2383B7C651A4301F40073C2F2000B10
:1015D000046842EA0A0242EA08024FF0010824F0D5
:1015E00040041A430460324340F24C140026009B2E
:1015F000C2F200041A434FF4E00342EA0E02026012
:10160000042202EA11414FF4002241EA090141603B
:10161000C16921F40061C16146F200600521BE6527
:10162000C4F20000A0F5007084E8430004F1140047
:10163000C4E9036280E84801C4E90866C4E90A66AF
:10164000C7F8548002F062FE43F2000040F23829ED
:101650004FF461210C22C4F20100C2F20009A0F58E
:10166000005089E84300C9E90366C9E90526C9F8BD
:101670001C60D9F83C1041B143F6080A00214FF034
:10168000000C0023C4F2020AC5E043F6080AC9F8B8
:1016900038600696CDE90466CDE902660B96022411
:1016A00002A9C4F2020ADAF83C0040F01000CAF8BD
:1016B0003C00DAF83C0000F010000B900B980B9601
:1016C000DAF8280040F00100CAF82800DAF828000B
:1016D00000F001000B900B9803944FF4C06002904F
:1016E0000320CDF81080059007200690019803F0A4
:1016F0004FFE40F2802046F2B8414FF00062402396
:101700004FF48067C2F20000C4F20201466380E831
:10171000CE004FF40032C0E90566C661C0E9082674
:10172000DBF8002084630B6823F001030B600B6877
:1017300013F0010F2DD148F23F030A68CFF21003D6
:101740001A4040F24043C0F602031A4340F2FF330E
:101750000A604A6922F007024A616FF00F0252FAEA
:1017600081F299434AF6AB23CAF6AA235F2AA2FB69
:10177000032388BF41F004011A090FF27C739A5CBD
:101780003F23C0E9171203FA02F28A600121002206
:1017900027E00168DBF800309B1A052B1FD80B6887
:1017A00013F0010FC7D0DBF800309B1A052B16D8B9
:1017B0000B6813F0010FBED0DBF800309B1A052B2D
:1017C0000DD80B6813F0010FB5D0DBF800309B1A71
:1017D000052B04D80B6813F0010FDBD1ABE7032115
:1017E00020228265C9F83000C0F83C9081634EF633
:1017F0000C504EF22543CEF20000CEF200030068FA
:10180000002018702020C5F8F400D9E90661D9F845
:101810000000D9E902C3242749F20C62B1F5004F58
:10182000C9F83C70C76827F40057C760076927F4F8
:10183000405743EA07030361D9E90437C46843EA20
:101840000C0324EA020243EA070343EA010342EAE3
:101850000302C260426922F4407242EA0602426117
:1018600064D141F2004240F48061C4F2010291422D
:1018700040F0C08040F20C0145F6347848F21F5E1B
:10188000C2F20001C0F60008C5F2EB1E0A68DAF8E1
:1018900000C0D9F80460DAF80040DAF800304FF000
:1018A0001909C3F34237C4F34234760018F80770BD
:1018B00018F8044022FA07F122FA04F401FB09F1B6
:1018C00004FB09F4B1FBF6F1B4FBF6F4A1FB0E370F
:1018D0007B09642703FB1713611A1944322303EBB6
:1018E000C101A1FB0E134FF4F87101EA1311CCF3FF
:1018F000423318F8033022FA03F303FB09F3B3FB76
:10190000F6F3A3FB0E374FF6F073C7F6FF7303EA47
:10191000570301EB030CDAF80030C3F34233DAF873
:10192000007018F80330C7F34237BEE041F20042BE
:1019300040F48061C4F20102914240F0CB8040F259
:101940000C0145F6347848F21F5EC2F20001C0F681
:101950000008C5F2EB1E0A68DAF800C0D9F8046086
:10196000DAF80040DAF800304FF01909C3F34237D3
:10197000C4F34234B60018F8077018F8044022FA8D
:1019800007F122FA04F401FB09F104FB09F4B1FBAD
:10199000F6F1B4FBF6F4A1FB0E377B09642703FBD9
:1019A0001713611A1944322303EB0111A1FB0E1323
:1019B000F02101EA5311CCF3423318F8033022FA34
:1019C00003F303FB09F3B3FBF6F3A3FB0E374FF668
:1019D000F073C7F6FF7303EA570301EB030CDAF861
:1019E0000030C3F34233DAF8007018F80330C7F35D
:1019F0004237C9E040F20C0145F6347848F21F5EE8
:101A0000C2F20001C0F60008C5F2EB1E0A68DAF85F
:101A100000C0D9F80460DAF80040DAF800304FF07E
:101A20001909C3F38227C4F38224760018F80770DB
:101A300018F8044022FA07F122FA04F401FB09F134
:101A400004FB09F4B1FBF6F1B4FBF6F4A1FB0E378D
:101A50007B09642703FB1713611A1944322303EB34
:101A6000C101A1FB0E134FF4F87101EA1311CCF37D
:101A7000822318F8033022FA03F303FB09F3B3FBC4
:101A8000F6F3A3FB0E374FF6F073C7F6FF7303EAC6
:101A9000570301EB030CDAF80030C3F38223DAF8C2
:101AA000007018F80330C7F3822722FA03F303FB10
:101AB00009F3B3FBF6F318F807704FF00708FA4084
:101AC00040F2382702FB09F2C2F20007B2FBF6F23D
:101AD00003266DE040F20C0145F6347848F21F5EB3
:101AE000C2F20001C0F60008C5F2EB1E0A68DAF87F
:101AF00000C0D9F80460DAF80040DAF800304FF09E
:101B00001909C3F38227C4F38224B60018F80770BA
:101B100018F8044022FA07F122FA04F401FB09F153
:101B200004FB09F4B1FBF6F1B4FBF6F4A1FB0E37AC
:101B30007B09642703FB1713611A1944322303EB53
:101B40000111A1FB0E13F02101EA5311CCF3822302
:101B500018F8033022FA03F303FB09F3B3FBF6F39F
:101B6000A3FB0E374FF6F073C7F6FF7303EA570374
:101B700001EB030CDAF80030C3F38223DAF80070CB
:101B800018F80330C7F3822722FA03F303FB09F3A3
:101B9000B3FBF6F318F807704FF00F08FA4040F265
:101BA000382702FB09F2C2F20007B2FBF6F2042664
:101BB000A3EB020E48F21F5443F200094FF0010A52
:101BC000C5F2EB14C4F20109A2FB04135909642302
:101BD00001FB13217144B14001263231C0F6007679
:101BE000A1FB041208EA52114FF0000841EA0C016F
:101BF0008160016921F490410161416921F02A016C
:101C00004161C16841F40051C1602020C7F844809F
:101C10004FF40031F863386440F27007A9F5805042
:101C2000CDF83880C2F20007C7F82080C7E90A68FB
:101C3000C7F8308087E803013846C7E90388C7E959
:101C400005A8C7F81CA002F073F80B240BA93846AE
:101C5000CDE90B4ACDF8348002F096F94FF48010AC
:101C6000CDE9024ACDF818A0CDF8108002A90A905B
:101C70004FF4602009903846CDE907A8CDF81480CC
:101C800002F096FA40F2B807A9F57060CDF83880F6
:101C90004FF40039C2F20007C7F82080C7E90A688C
:101CA000C7F8308038604FF4003078603846C7E9B4
:101CB0000288C7E9048AC7E9068A02F039F80C24C9
:101CC0000BA93846CDE90B4ACDF8348002F05CF917
:101CD0004FF48010CDE9024ACDF818A0CDF810805D
:101CE00002A90A904FF4602009903846CDE907A870
:101CF000CDF8148002F05CFA43F2000040F20017C5
:101D0000CDF83880C4F20100C2F20007A0F560608F
:101D1000C7F82080C7E90A68C7F83080C7E900091A
:101D20003846C7E90288C7E9048AC7E9068A01F08C
:101D3000FFFF0D240BA93846CDE90B4ACDF83480BE
:101D400002F022F94FF48010CDE9024ACDF818A034
:101D5000CDF8108002A90A904FF46020099038460F
:101D6000CDE907A8CDF8148002F022FA40F2F4176A
:101D70004FF080404FF48041C2F20007C7E90008ED
:101D8000C7E90281C7F81080C7F81880396C79BBA1
:101D900043F60800C7F83C80CDF81880CDE90488E8
:101DA000CDE90288CDF82C80C4F202000146806B98
:101DB00040F001008863886B00F001000B900B98E5
:101DC000CDF82C80886A40F001008862886A02A9F8
:101DD00000F001000B900B9802200390032002906A
:101DE000CDE90488CDF818A0019803F0D1FA38683D
:101DF000022144F2070247F204043964C4F20004E9
:101E00008168A446914340F6FF328160C4F200022B
:101E10000168904213DC40F23824B0F1804FC2F2E6
:101E2000000421D040F20043C4F2000398421BD0CA
:101E300040F60003C4F20003984215D018E040F6C3
:101E4000004340F23824C4F20003C2F20004984276
:101E50000AD040F20043C4F20103984204D00023A8
:101E6000C4F20103984203D1BB6821F07001194309
:101E700041F6FF73C4F2000398420DDC90421FDC70
:101E8000B0F1804F4ED040F20042C4F200029042C6
:101E900048D040F6000221E043F6FF72C4F201028E
:101EA00090422DDC42F20002C4F20002904239D08E
:101EB0000022C4F20102904234D040F200422DE0F0
:101EC00040F60042C4F2000290422BD041F60002DC
:101ED000C4F20002904225D041F60042C4F2000252
:101EE00090421FD022E000BF000000000000000070
:101EF0000102030406070809000610160006101662
:101F000044F20002C4F2010290420BD044F60002F7
:101F1000C4F20102904205D044F20042C4F2010230
:101F2000904203D13A6921F440711143BA6921F01A
:101F30008001114340F200420160C4F20102F968DD
:101F4000C1627968816240F48061914204BF79691D
:101F500001630121416182688369066A42F00302DC
:101F6000826040F2011262F30F0326F0AA0283613D
:101F700002623964FA6B012A0CD002223A64426888
:101F8000836822F07002426023F0800282600020A9
:101F9000F8633964286840F22046C4F201060290D2
:101FA000029840F2F51000BF2968C90300EBE17008
:101FB00078B12968C90300EBE17050B12968C90301
:101FC00000EBE17028B12968C90300EBE17000283B
:101FD000EAD143F20000C4F201000146006840F07B
:101FE000400008604DF2006046F20061C4F200015A
:101FF000CFF6FF700A46095841F0400111502068A1
:102000001824C4F20204C16841F40051C160306870
:1020100040F48050306049F2FC305CF8001041F030
:1020200001014CF800104020C4F80004DBF8000067
:10203000DBF80010091A06290ED2DBF80010091A85
:10204000052909D8DBF80010091A052904D8DBF89E
:102050000010091A0629EBD34FF480702060DBF8DA
:10206000000000BFDBF80010091A02290ED2DBF8CD
:102070000010091A012909D8DBF80010091A0129F2
:1020800004D8DBF80010091A0229EBD34FF0807056
:1020900020604FF400402060DBF80000DBF8001007
:1020A000091A03290ED2DBF80010091A022909D8EF
:1020B000DBF80010091A022904D8DBF80010091A0D
:1020C0000329EBD301F0D0FB4FF400402060DBF894
:1020D000000000BFDBF80010091A03290ED2DBF85C
:1020E0000010091A022909D8DBF80010091A022980
:1020F00004D8DBF80010091A0329EBD345F218774E
:102100004FF00040C0F600072060384602F070FF34
:102110004FF400402060286802900298022000BF1F
:102120002968C90300EBE17078B12968C90300EBA5
:10213000E17050B12968C90300EBE17028B129684A
:10214000C90300EBE1700028EAD14FF000402060A5
:10215000B81C02F04DFF4FF4004020602868029048
:10216000029802202968C90300EBE17078B1296860
:10217000C90300EBE17050B12968C90300EBE170BD
:1021800028B12968C90300EBE1700028EAD14FF0BB
:1021900000402060381D02F02BFF4FF4004020600B
:1021A00028680290029802202968C90300EBE170B8
:1021B00078B12968C90300EBE17050B12968C903FF
:1021C00000EBE17028B12968C90300EBE170002839
:1021D000EAD14FF000402060B81D02F009FF4FF433
:1021E0000040206028680290029802202968C903F4
:1021F00000EBE17078B12968C90300EBE17050B1E0
:102200002968C90300EBE17028B12968C90300EB14
:10221000E1700028EAD14FF00040206007F108008B
:1022200002F0E6FE4FF40040206028680290029819
:10223000022000BF2968C90300EBE17078B129686A
:10224000C90300EBE17050B12968C90300EBE170EC
:1022500028B12968C90300EBE1700028EAD14FF0EA
:102260000040206007F10A0002F0C2FE4FF4004077
:102270002060286802900298022000BF2968C903E4
:1022800000EBE17078B12968C90300EBE17050B14F
:102290002968C90300EBE17028B12968C90300EB84
:1022A000E1700028EAD14FF00040206007F10C00F7
:1022B00002F09EFE4FF400402060286802900298D1
:1022C000022000BF2968C90300EBE17078B12968DA
:1022D000C90300EBE17050B12968C90300EBE1705C
:1022E00028B12968C90300EBE1700028EAD101F0A8
:1022F000BBFA01F0B9FA01F0B7FA01F0B5FA01F052
:10230000B3FA286802900298652000BF2968C903C3
:1023100000EBE17078B12968C90300EBE17050B1BE
:102320002968C90300EBE17028B12968C90300EBF3
:10233000E1700028EAD1306841F2643149F699121F
:1023400041F2BC2541F268344FF07E5741F2AC3A7D
:1023500040F61849C2F20001C3F69952C2F20005D4
:10236000C2F20004C2F2000AC4F2020940F0010005
:102370003060306840F010003060306840F48070A9
:102380003060306840F004003060306840F0400059
:102390003060306840F48060306056F8140C40F0D3
:1023A000010046F8140C01200026087041F23C3070
:1023B0004BF21771C2F20000C3F65101016041F205
:1023C00088304FF2C351C2F20000C3F6A851016039
:1023D00041F28C30C2F20000026041F29030C2F251
:1023E0000000016041F294300021C2F20000C4F20A
:1023F000400102604CF6CD40C4F24C00C5E9090131
:10240000002046F6DB71CAF80070ADF80860C4F22F
:102410002020C4F2F561206041F2A830C2F2000031
:10242000076041F29C30C2F20000016041F2A0302E
:10243000C2F2000001604FF48020C9F8000048F2A9
:10244000210000F02FFA40F21808C4F20208D8F870
:10245000E80320F44060C8F8E803D8F8E803C8F8B7
:10246000E80302A800F076FA05F1360000F072FAEF
:10247000042041F25432C9F80000C2F20002D8F838
:10248000E80320F44060C8F8E803D8F8E80340F413
:102490000060C8F8E80341F25030BDF80810C2F2FD
:1024A000000006606FF3DF31118041F26432298051
:1024B000C2F200021278012A1FD141F248324CF6D2
:1024C000CD430660C2F20002C3F6CC53136041F262
:1024D00044320023C2F20002C4F2F013136041F24E
:1024E000403247F6DD63C2F20002C4F2BC2313603F
:1024F00041F24C32C2F200021660002241F2634304
:10250000CAF80070C4F2A012C4F21D33226042F671
:10251000BF722A8641F2403240F24C15C2F20002EC
:10252000C2F20005136041F2A8320023C2F2000299
:10253000C4F2F013176041F24432C2F20002136099
:1025400041F248324CF6CD43C2F20002C3F6CC53FE
:1025500013604CF2CB12CFF6FF7212FA81F10160D8
:10256000286B0138012836D846F20060C4F200001A
:102570000246006840F001001060106820F47C50B2
:102580001060106840F46060106046F21C60C4F295
:102590000000016821F00101016050F8101C41F0B9
:1025A000010140F8101C00214162816250F8181CA2
:1025B00021F0010140F8181C50F8081C21F001011D
:1025C00040F8081C016841F001010160106820F02A
:1025D0000100106003E0686B40F480206863286BA2
:1025E00001280FD1022028632968086820F0010023
:1025F0000860DBF80000496811F0010F40F08580A9
:10260000002002E0686B40F40020686329682A6BB0
:1026100005F134004FF4802741F26636C2F200061D
:10262000013A022A024638BF01F114024FF4802118
:10263000136838BF02273B434FF4802713602A6892
:102640002B6B013B022B034638BF02F114031A68BF
:1026500038BF4FF400673A434FF480271A602A6866
:102660002B6B013B022B034638BF02F114031A689F
:1026700038BF4FF480673A431A602A682B6B013BDE
:10268000022B38BF02F11400026838BF4FF400413A
:10269000114301603078012836D140F2700440F2D5
:1026A000B80540F20016C2F20004C2F20005C2F200
:1026B00000062068816841F0010181602868816816
:1026C00041F0010181603068816841F00101816061
:1026D000284601F0FBFC304601F0F8FC204601F0F2
:1026E000F5FCA06B0068016821F018010160A86B7F
:1026F0000068016821F018010160B06B0068016892
:1027000021F01801016000BFFEE72968DBF8002016
:10271000121A0B2A22D24A6812F0010F3FF470AF4E
:10272000DBF80020121A0A2A18D84A6812F0010FA2
:102730003FF466AFDBF80020121A0A2A0ED84A6866
:1027400012F0010F3FF45CAFDBF80020121A0A2AE6
:1027500004D84A6812F0010FD8D151E7686B40F4F1
:10276000003068630520286350E700BF10B582B0D1
:1027700040F2481445F64F01C2F20004C4F20001D1
:102780002068884218DC45F24911C4F200018842F1
:1027900044D045F25511C4F2000188427ED140F286
:1027A0008C1041F2882245F25511C2F20000C2F2AB
:1027B0000002016092694AE045F65001C4F200014E
:1027C000884238D045F65601C4F20001884265D1EE
:1027D00041F2BC209FED320A45F656010122C2F2B9
:1027E000000090ED031A40F28C10C2F2000021EEBE
:1027F000000A0160BDEEC01A80ED011A41F25830A6
:10280000BDEEC00A0091C2F200008DED010A027017
:1028100041F25C30C2F20000027026E040F28C10FF
:1028200041F2882245F24911C2F20000C2F20002D0
:102830000160926A0BE040F28C1041F2503245F692
:102840005001C2F20000C2F2000201601268426050
:1028500041F25830012301920091C2F2000003704E
:1028600041F25C30C2F200000370684601F066FE7F
:1028700040F24C10C2F2000000F134010268006B1B
:102880000138022838BF02F114014FF48022086891
:1028900038BF0122104308600020206002B010BD44
:1028A00083F9A24543F20801C4F201018880086857
:1028B00010F0020F1BD196204FF6FF7C0B6813F02F
:1028C000020F18D1831E13EA0C0F12D00A6812F0FF
:1028D000020F12D10A6812F0020F10D1043810EA68
:1028E0000C0F06D00A6812F0020FE7D008E096201D
:1028F00006E0002004E0013802E0184600E003385A
:102900000A6812F0800F1CD04FF6FF7C83B2012BB7
:1029100017D00A6812F0800F18BF022B11D00A6876
:1029200012F0800F18BF032B0BD00A6812F0800F33
:1029300007D0043810EA0C0F03D00A6812F0800F99
:10294000E4D181B048680090009808680090009831
:1029500001B0704780B581B043F2080C4FF6FF7E9E
:10296000C4F2010CACF804E0DCF8001011F0010F27
:102970001DD19621DCF8002012F0010F1BD18A1E18
:1029800012EA0E0F15D0DCF8003013F0010F14D14D
:10299000DCF8002012F0010F11D1043911EA0E0FFA
:1029A00007D0DCF8002012F0010FE3D008E09621F8
:1029B00006E0002104E0013902E0114600E003399D
:1029C000DCF804200280DCF8000010F0020F25D1B2
:1029D0004FF6FF704A1E02421DD0DCF8003013F0A3
:1029E000020F1AD18A1E024215D0DCF8003013F013
:1029F000020F12D1CA1E02420DD0DCF8003013F0D3
:102A0000020F0AD10439014205D0DCF8002012F08F
:102A1000020FDFD002E0002100E01146DCF80000E8
:102A200010F0800F1FD04FF6FF708BB2012B1AD021
:102A3000DCF8002012F0800F18BF022B13D0DCF856
:102A4000002012F0800F18BF032B0CD0DCF8002000
:102A500012F0800F07D00439014204D0DCF80020C6
:102A600012F0800FE1D1DCF8040000900098DCF84F
:102A700000000090009801B080BD00BF70B540F22A
:102A8000040640F20004C2F20006C2F200043068FC
:102A900021680D1A40F2A3718D4238BF70BDA9B2F2
:102AA00002F0AEFB40F2E423326840F6B421C2F2F9
:102AB0000003C2F200019A4218BF19460028316093
:102AC00021601FD044F64450C5F64170086047F2BB
:102AD0004250C6F26660486047F26520C4F65F70F7
:102AE000886046F27650C6F27260C86046F66C7036
:102AF000C0F67750086101F1150020600A200875C2
:102B0000FFF7BCFFB5F5FA6F12D945F24F612068A7
:102B1000C5F24521016044F6464181804F21817113
:102B200000F1080121605721C171BDE87040A5E79F
:102B300070BD00BF704700BFFEE700BFFEE700BFEB
:102B4000FEE700BFFEE700BF704700BF704700BF51
:102B5000704700BF41F23830C2F200000168013115
:102B60000160704701F02EBD01F02CBD80B540F230
:102B7000382CC2F2000CDCF800E0DEF80020DEF8B1
:102B80000C30DEF8140012F00F0F4FD003F49071E8
:102B900000F00100014364D0D1071FBF13F480711E
:102BA000DCF8441041F00101CCF84410510707D57E
:102BB00000281EBFDCF8441041F00201CCF844109C
:102BC000910707D500281EBFDCF8441041F004012E
:102BD000CCF84410110707D500281EBFDCF84400CC
:102BE00040F00800CCF84400DCF84400002800F075
:102BF0001E8103EA0200800640F1E280DCF840001A
:102C0000222840F0DD80DCF80800B0F5805F40F05D
:102C10008080DCF81020DCF82800DEF80410002AA0
:102C200000F0A880C9B220F8011BA7E003EA020067
:102C300010F0200F17D0DCF84000222840F0F78079
:102C4000DCF80800B0F5805F53D1DCF81020DCF828
:102C50002800DEF80410002A6BD0C9B220F8011B4E
:102C60006BE003EA020001060CD4400658BF80BDA9
:102C7000DEF80C0020F04000CEF80C002020CCF84C
:102C80003C00D4E0DCF83C00212840F0D080DCF8A7
:102C90000810DCF82000B1F5805F0DD101886FF3DA
:102CA0005F21CEF80410DCF81010002914BF0130A9
:102CB0000230CCF8200005E0411CCCF82010007850
:102CC000CEF80400BCF826004FF6FF710138084228
:102CD000ACF8260040F0AB80DEF80C0020F080005D
:102CE000CEF80C00DEF80C0040F04000CEF80C00EE
:102CF00080BDDCF81020DEF80400DCF82810002A83
:102D000001F10102CCF8282018BF00F07F00087004
:102D100015E0DCF81010DEF804000029DCF82810BB
:102D200001F10102CCF8282018BF00F07F000870E4
:102D300026E06FF35F2120F8021BCCF82800BCF8D6
:102D40002E004FF6FF7101380842ACF82E006ED10C
:102D5000DCF80000C16821F02001C160C16821F4E5
:102D60008071C160416921F0010141612020CCF8EE
:102D7000400080BD6FF35F2120F8021BCCF82800D3
:102D8000BCF82E004FF6FF710138ACF82E00084257
:102D9000DCF800E014D1DEF80C0020F02000CEF8C2
:102DA0000C00DEF80C0020F48070CEF80C00DEF889
:102DB000140020F00100CEF814002020CCF84000D0
:102DC000DEF81400DCF8441000F0400001F00801C7
:102DD00008432DD0DEF80C0020F49070CEF80C00E3
:102DE000DEF8140020F00100CEF814002020CCF80A
:102DF0004000DEF8140010F0400F18D0DEF8140088
:102E000020F04000CEF81400DCF8340078B145F230
:102E10008531C0F600014165816B02290CD1052185
:102E200081630068016821F00101016080BD80BDFF
:102E30000020CCF8440080BD80218165BDE8804041
:102E400002F0A0BAF0B581B0002040F2802448F230
:102E5000B5130821009040F20C00C2F20004C1F644
:102E60004E33C2F200000268D4E91760376881402F
:102E7000A2FB032539420DD02268136813F0040F1A
:102E800008D0136823F004031360B160A16D41F012
:102E90000101A16501218140394209D022685269AE
:102EA00012F0800F04D0B160A16D41F00201A16564
:102EB00004218140394209D02268126812F0020FC1
:102EC00004D0B160A16D41F00401A16510218140E1
:102ED00039421AD02068026812F0080F15D0B1608C
:102EE0000268016812F4802F06D1C9055EBF01682F
:102EF00021F00801016001E0080343D4616C21B1B5
:102F000040F28020C2F200008847216E202000FAA3
:102F100001F23A4246D02068036813F0100F41D006
:102F2000B260A36B0268052B1ED122F0160202606C
:102F3000426922F080024261626CE36C1A431EBF58
:102F4000026822F0080202603F208840B060012041
:102F5000A06300206063616D002962D040F2802090
:102F6000C2F2000088475CE0016852030ED4C90534
:102F700011D4016821F0100101600120A06300203C
:102F8000606308E0E16C0029BAD1BEE7080302D40F
:102F9000A16C11B906E0216C21B140F28020C2F28F
:102FA00000008847A06DE0B3A06D10F0010F2FD096
:102FB0000521A80AA16321680A6822F001020A60BB
:102FC000009A0132824200921ED80A6812F0010F64
:102FD0001AD0009A01328242009215D80A6812F083
:102FE000010F11D0009A0132824200920CD80A6877
:102FF00012F0010F08D0009A01328242009203D8E9
:103000000A6812F0010FDBD10120A0630020606389
:10301000216D31B140F28020C2F20000884701B03A
:10302000F0BD01B0F0BD00BFF0B581B040F270045A
:1030300040F2B80540F200169FED663A9FED642A13
:10304000C2F20004C2F20005C2F200062068B0EE2F
:10305000435A90ED0F0AB8EE400A286890ED0F1A17
:10306000B8EE411A306801EE425AB0EE431AC06B16
:1030700000EE421A04EE100A41F28820B8EE444AEB
:10308000C2F2000004EE423A80ED001A80ED015ACF
:1030900080ED023A00F0A4FC41F26630C2F200007A
:1030A0000078012840F0898040F2080741F264313D
:1030B000C2F20001C2F20007388809780130012904
:1030C00038807AD180B20A2858D141F24C3041F28E
:1030D000503141F23C339FED402A41F2483241F2F7
:1030E000403CC2F20000C2F20001C2F20003C2F290
:1030F0000002C2F2000C91ED000A90ED001A41F2BC
:10310000B42041F24431C2F20000C2F20001B8EE34
:10311000C00AB8EEC11A90ED003A93ED004A92ED64
:10312000005A31EE400A91ED001A20EE022A9CED81
:10313000000A32EE433A21EE021A80ED002A41F2F3
:10314000983083EE043AC2F2000003EE051A80EDD7
:10315000001AB4EEC01AF1EE10FA09DAB1EE400A24
:10316000B4EEC01AF1EE10FAD8BF80ED000A01E00B
:1031700080ED000A00F096FA0020388000F000F997
:1031800041F28420C2F2000001684A1C002902605A
:1031900011D1002140F20007016041F2BC21C2F2CE
:1031A0000007C2F2000138680A880CA1FDF7CAF8CE
:1031B000396808443860FFF761FC20686FF004014B
:1031C0000160286801603068016001B0F0BD00BF97
:1031D0000000A53C00002542DB0F493925640D0A9B
:1031E000000000009FED5E3AB0EE602A9FED5D4A60
:1031F000B6EE001AF5EEC00A0020F1EE10FA10EE5D
:10320000032AB0EE603AC8BF012010EE043A22EE65
:10321000015A23EE010AB5EEC05AF1EE10FAB5EEEE
:10322000C00AC8BF40F00200F1EE10FAC8BF40F07B
:103230000400411E05290BD8DFE801F0030F182117
:103240002A339FED4B4A23EE040A22EE042A2EE095
:103250009FED452AB0EE420A29E09FED440A9FED1A
:10326000442A20EE800A23EE022A20E09FED420A43
:103270009FED403A20EE800A22EE032A17E09FEDF0
:103280003C0A9FED3A3A22EE000A20EE832A0EE035
:103290009FED380A9FED382A23EE000A20EE822A9D
:1032A00005E09FED344A22EE040A23EE042A9FED46
:1032B000333A30EE024AB4EEC34AF1EE10FA07DDBB
:1032C00080EE040A82EE042A20EE030A22EE032A8C
:1032D00010B533EE423A00F0070033EE403A411E9B
:1032E00023EE011A0529BCEEC11A11EE10CAB8EE80
:1032F000411A32EE011ABCEEC11A11EE10EAB8EE14
:10330000411A30EE010ABCEEC00A0BD810EE100ACA
:1033100073466246DFE801F0030D1C111519724671
:10332000634615E041F2941241F2941341F2941075
:103330000EE00346624670460AE002467346604667
:1033400006E002466346704602E003467246604667
:1033500040F23441C4F201010A604B60886010BD44
:10336000D7B3DD3FD7B3DDBF000000003861A2C393
:10337000386122C3386122433861A24300A08C45E2
:1033800070B52DED068B41F2882E41F298309FEDFD
:10339000BC1A9FEDBC3AC2F2000EC2F200009EEDD4
:1033A000000A9EED012A20EE014A90ED001A8EEDF2
:1033B000070A02EE034AB5EEC01A8EED084AF1EE96
:1033C00010FA06DA0EDA41F2BC20C2F20000816A7D
:1033D00004E041F2BC20C2F20000416A01EE101A82
:1033E000016205E041F2BC20C2F2000090ED081A33
:1033F00041F2BC2C41F23C309FEDA36A45F23072A1
:10340000F8EE004AF0EE085ADFEDA16A9FEDA18ABE
:1034100041F28C3541F26C3641F29034C2F2000C2C
:10342000C2F20000C0F60002C2F20005C2F20006BD
:10343000C2F200049CED075A90ED003A9CED042A7C
:1034400025EE011A21EE035A32EE051A21EE061A74
:10345000BDEEC12AB5EEC01A12EE100AF1EE10FA56
:103460009FED8A2AB8BF013806EE100AB8EEC66A88
:1034700031EE461A21EE026ABDEEC61A11EE100AAE
:1034800000F180016FF35F206FF35F2102EB800397
:1034900001EE900A41F2943002EB810193ED001AA3
:1034A00093ED017AF8EE611A41F28432C2F2000023
:1034B00041F288338CED0B5A91ED002AD1ED010ACF
:1034C00036EE616A41F28031C2F20002C2F20003BC
:1034D000F1EE412A37EE41AAC2F2000170EEC23A83
:1034E00072EE027A72EEC72A11EE247A33EEA39AB4
:1034F00063EEA53A70EEA74A64EE881A12EEA69A19
:1035000047EE083A4AEE251A49EE063AD3ED005A3C
:1035100030EE827A7AEE0A0A62EE262A41F270339F
:1035200057EE260AC2F2000323EE867AD4ED003A63
:1035300040EE861A01EE667AD1ED000AD0ED006AFF
:1035400041F2783041EE862A07EE062A92ED007AA3
:10355000C2F2000002EE861AD5ED002A22EE046ABD
:1035600061EE041A96ED004A01EE406A42EE001A3E
:10357000CEED091A20EEA20A74EE464AF1EE612A57
:1035800043EE610A8EED0A6A23EEA44AC0ED002ADA
:1035900041F27C3005EEE10AC1ED000A07EE264A51
:1035A00003EE247AC2F20000B1EE043A83ED000A81
:1035B000C0ED004A41F27430F4EEC30A82ED007AA5
:1035C000C2F20000F1EE10FA80ED004A09DAB9EE1D
:1035D000043AF4EEC30AF1EE10FAD8BF81ED003AD6
:1035E00001E081ED003AB1EE043AB4EEC37AF1EEB7
:1035F00010FA09DAB9EE043AB4EEC37AF1EE10FA31
:10360000D8BF82ED003A01E082ED003A9FED223A08
:103610009CED065A9FED217ADFED210A25EE033A53
:1036200025EE075A06EE203A05EE060A83ED000A5B
:1036300033EE043AB7EE004AB4EEC40A80ED003A25
:10364000F1EE10FA06DABFEE004AB4EEC40AF1EE6B
:1036500010FA03DCB0EE440A83ED004A61EE000A82
:1036600022EE000A01EE430A42EE030A8EED030A3F
:10367000CEED040ABDEC068BBDE87040B2E500BF9C
:103680003ACD133F3ACD933F610B363B00000044E7
:10369000DB0F493CDB0F49BC227A933ACDAF66B8C9
:1036A00017B7513841F26430C2F2000000780128A7
:1036B00018BF704741F2A03141F23C3241F2B820CC
:1036C000C2F20001C2F20002C2F2000091ED003A23
:1036D00041F2983192ED000A41F29C3290ED002ABD
:1036E000C2F20001C2F2000291ED001A92ED004A0E
:1036F00023EE003AB5EEC01A20EE044AF1EE10FABD
:103700000EDDB5EEC02AF1EE10FA09DB32EE445AB6
:10371000B4EEC15AF1EE10FA0FDA32EE041A47E0B5
:10372000B5EEC01AF1EE10FA11DDB5EEC02AF1EED9
:1037300010FA0CDA32EE031A3AE032EE034AB4EE33
:10374000C14AF1EE10FAC8BF32EE431A30E0B5EECE
:10375000C01AF1EE10FA07DAB5EEC02AF1EE10FA4F
:1037600002DB32EE431A23E0B5EEC01AF1EE10FA96
:1037700015DAB5EEC02AF1EE10FA10DA32EE435A3D
:10378000B4EEC15AF1EE10FAD4DB32EE043AB4EEE4
:10379000C13AF1EE10FAC8BF32EE441A08E0B5EEB5
:1037A000401AB0EE421AF1EE10FA03D19FED2B1A37
:1037B00080ED001A41F2A83041F2BC21C2F20000B3
:1037C000C2F2000191ED032A41F2A43190ED004ACA
:1037D00041F2AC30C2F20000C2F2000131EE425AB6
:1037E00090ED006A91ED003A9FED1D2A41F26C3098
:1037F00024EE051AC2F2000003EE061A05EE003AA6
:1038000081ED003AB4EEC23A80ED001AF1EE10FA02
:1038100009DA9FED142AB4EEC23AF1EE10FAD8BFDD
:1038200081ED002A01E081ED002A41F26831C2F207
:10383000000191ED000AB4EEC01AF1EE10FA09DAB7
:10384000B1EE400AB4EEC01AF1EE10FAD8BF80ED26
:10385000000A704780ED000A704700BF00000000BA
:10386000E4CB9641E4CB96C170B582B0182645F200
:1038700026744FF00040C4F20206C0F60004306027
:10388000204601F0B5FB4EF210054FF400403060C9
:10389000CEF2000528680190019802202968C9032A
:1038A00000EBE17078B12968C90300EBE17050B119
:1038B0002968C90300EBE17028B12968C90300EB4E
:1038C000E1700028EAD14FF000403060A01C01F008
:1038D0008FFB4FF40040306028680190019802206F
:1038E0002968C90300EBE17078B12968C90300EBCE
:1038F000E17050B12968C90300EBE17028B1296873
:10390000C90300EBE1700028EAD14FF000403060BD
:10391000201D01F06DFB4FF40040306028680190DD
:10392000019802202968C90300EBE17078B1296889
:10393000C90300EBE17050B12968C90300EBE170E5
:1039400028B12968C90300EBE1700028EAD14FF0E3
:1039500000403060A01D01F04BFB4FF40040306090
:1039600028680190019802202968C90300EBE170E2
:1039700078B12968C90300EBE17050B12968C90327
:1039800000EBE17028B12968C90300EBE170002861
:10399000EAD14FF00040306004F1080001F028FB4C
:1039A0004FF400403060286801900198022000BF69
:1039B0002968C90300EBE17078B12968C90300EBFD
:1039C000E17050B12968C90300EBE17028B12968A2
:1039D000C90300EBE1700028EAD102B070BD00BF5E
:1039E0002DE9F04782B040F61849002048F221083E
:1039F000ADF80400C4F202094FF48020C9F80000B9
:103A000048F22100FEF74EFF40F20046C4F20206E3
:103A1000306820F4406030603068306001A8FEF704
:103A200099FF41F2BC27C2F2000707F1360A50465F
:103A3000FEF790FF042041F254319FED7D0A9FED87
:103A40007D1AC9F80000C2F20001306820F440601D
:103A50003060306840F400603060BDF804006FF3FF
:103A6000DF3002EE100AB8EE422A0A880880388059
:103A700022EE000A22EE011A811A6FF4804287EDCD
:103A8000010A87ED021A914202DC01F5004104E0CF
:103A9000B1F5804FC8BFA1F5004141F2F4229FED7E
:103AA000662AC2F2000292ED000A82ED001A41F28B
:103AB0005032C2F2000231EE400A1368B4EEC20A7C
:103AC0001944F1EE10FA116004DD9FED5E1A30EE3C
:103AD000010A0AE09FED591AB4EEC10AF1EE10FA9C
:103AE000BCBF9FED571A30EE010A41F2F82241F2B5
:103AF0003C3541F2FC234AF6AB2C9FED543AC2F21E
:103B00000002C2F20005C2F20003CAF6AA2C117824
:103B100095ED001A03EB810380EE010A93ED002A74
:103B200083ED000A4B1C398EA3FB0C54A50841F20F
:103B30001434401AC2F2000405EB450504EE100AE5
:103B400094ED001AA3EB450031EE421A9FED3E2A98
:103B500031EE000AB8EEC41A107041F2183041F28A
:103B60001C32C2F2000021EE031A9FED393AC2F274
:103B7000000220EE024A84ED000A017887ED034A34
:103B800087ED041A20EE030A02EB8102013192ED67
:103B9000001A82ED000A41F23432A1FB0C35C2F268
:103BA0000002AB0892ED003A03EB4303A1EB4301A3
:103BB00033EE411A9FED273A0170002031EE000AE2
:103BC000ADF806004FF4802020EE021A20EE032A02
:103BD00082ED000A87ED061A87ED072AC9F8000072
:103BE00008F1300080B2FEF75DFE306820F44060DE
:103BF0003060306830600DF10600FEF7ABFE5046D5
:103C0000FEF7A8FE0420C9F80000306820F44060E8
:103C10003060306840F400603060BDF80600400A53
:103C2000B886F88E000BF88602B0BDE8F08700BFBA
:103C30000000343CDB0F4939DB0F4940DB0F49C042
:103C4000DB0FC940DB0FC9C0ABAA2A3E3B819D3DBB
:103C50005655953FEBC918412DE9F0470C6894FA89
:103C6000A4F2B2FA82F234FA02F352D04FF0010811
:103C70004FF0030C4FF00F0E08FA02F314EA030999
:103C800042D099FAA9F34E680568B3FA83FA4FEA6D
:103C90004A070CFA07F406FA07F3A5432B4303601F
:103CA000E343741E012C05D88C688568BC401D4018
:103CB0002C4384600C69C568022E04FA07F403EAF9
:103CC000050343EA0403C3601ED14B69BAF1070F31
:103CD0000AD84FEA8A04056AA3400EFA04F425EADA
:103CE0000404234303620FE04FEA1924456A94FA5F
:103CF000A4F4B4FA84F4A400A3400EFA04F425EA70
:103D000004042343436200BF0C68013234FA02F317
:103D1000B2D14A68013A012A88BFBDE8F087C96874
:103D200042686143A24311434160BDE8F08700BF90
:103D300010B586B00446C8B3206C002840F08F80D0
:103D4000002042F200220590CDE90300CDE90100F8
:103D5000C4F20102216891422BD042F20010C4F259
:103D60000100814241D042F20000C4F201008142D0
:103D700072D143F6300100200090C4F202014A697A
:103D800042F480724A614A6902F480720092009A99
:103D900000900A6842F004020A60096801F0040118
:103DA000009100990321029102213AE0012006B01E
:103DB00010BD43F630010090C4F202014A6942F49A
:103DC00080624A614A6902F480620092009A00901F
:103DD0000A6842F004020A60096801F004010091D7
:103DE00000990321029108211BE043F630010020D5
:103DF0000090C4F202014A6942F400724A614A69C1
:103E000002F400720092009A00900A6842F00402E4
:103E10000A60096801F004010091009903210291F0
:103E200004210191039040F6000001A9C4F20200B0
:103E300001F0AEFA4EF60C500021CEF20000006800
:103E40004EF21240CEF2000001704EF200104FF41C
:103E50008021CEF2000001600020E0636064206CED
:103E600010F0100F3AD1206C41F202110123C0F67C
:103E70000073884340F00200206442F20430C4F230
:103E80000100016821F4403101606168026811435A
:103E900001602068416821F48071416021694268B5
:103EA00042EA01214160416821F040714160A1680E
:103EB000426811434160816821F400618160E168DA
:103EC000826811438160A16A826822F0706299421F
:103ED0008260826804D122F040510AE001204FE064
:103EE00011438160816821F040518160E16A8268FC
:103EF00011438160816821F002018160A1698268BB
:103F000042EA41018160226A416882B141F4006164
:103F10004EF200024160CFF6FF72416821F4604129
:103F20004160616A02EB41314268114301E021F4D2
:103F3000006141600022C16ACFF6F07221F4700185
:103F4000C162E16902EB0151C26A1143C162816839
:103F500021F400718160216B826842EA4121816015
:103F6000816821F4806181606169826842EA81210F
:103F70000122816000206064216C62F301012164F0
:103F80000021E16306B010BD70B581B0002200923F
:103F9000C26B012A01D102214AE00122C263D1F899
:103FA00000E01FFA8EFCBEF10A0F4FEA4C0212FA33
:103FB0008EF204D303681E3A03F10C0402E0036896
:103FC00003F1100407252668954026EA05052560BB
:103FD0008D6805FA02F225682A4322604A68062A9B
:103FE00005D802EB820203F13401053A0BE002EB43
:103FF00082040C2A87BF03F12C01A4F1410203F1D2
:104000003001A4F123021F240D6894400CFA02F23F
:1040100025EA04040C600E6832430A6042F204315F
:10402000C4F20101A1F54172934204D00021C163A1
:10403000084601B070BDBEF1110F10D01222C1F2BE
:10404000000296450BD0BEF1120FEFD10A6822F4A0
:1040500000020A600A6842F480020A60E6E70A6821
:1040600022F480020A600A6842F400020A60122107
:10407000C1F200018E45D9D140F20C014DF68362A8
:10408000C2F20001C4F21B320968A1FB0212910CBA
:1040900001EB8101490001E000990139009100998B
:1040A0000029C3D000990139009100990029BDD0A1
:1040B00000990139009100990029B7D00099013980
:1040C000009100990029E7D1B0E700BF81B000213D
:1040D0000091C16B012963D00121C16301688A6825
:1040E00012F0010F27D18A684DF68363C4F21B33A7
:1040F00042F001028A6040F20C02C2F20002126831
:10410000A2FB03239A0C02EB420201E0009A013A5F
:104110000092009A7AB1009A013A0092009A52B144
:10412000009A013A0092009A2AB1009A013A00924C
:10413000009A002AEAD18A6812F0010F30D0026C8E
:1041400043F2010342F2000CC4F2010C9A4342F420
:1041500080520264026C12F4807F04BF0022426429
:104160000022C2636FF004000860486840F08000DD
:104170004860DCF8043388684A6800F4401002F4B0
:10418000806213F01F0F09D0614501BF50EA0200A1
:10419000886840F48000886001B07047104301D007
:1041A00001B07047886840F48000886001B07047B3
:1041B000C26B012A02BF02210846704770B5012276
:1041C000C263D1F800C01FFA8CFEBCF10A0F4FEA9F
:1041D0004E0212FA8CF204D303681E3A03F10C0467
:1041E00002E0036803F1100407252668954026EADB
:1041F000050525608D6805FA02F225682A432260CC
:1042000000249A6BCFF6F07422F440129A630A6984
:104210009D6B04EB0254C2F103022C439C634D6876
:104220009E6B2A44D4B2A40054FA82F21F24944014
:104230000EFA02F226EA04049C639E6B32430126C6
:104240009A63C0F20F06CC699A6822F47022B442D5
:104250009A609A6802D122F4401409E022439A60DD
:104260009A6822F440129A600A6A9E6846EA02043A
:104270009C608A695E6846F48064002A08BF26F460
:1042800080645C604A695E6846F48054002A08BF16
:1042900026F48054032D5C6008D0022D09D0012D36
:1042A00014BF03F1200203F1140204E003F11C0225
:1042B00001E003F11802166840F6FF75AE43166080
:1042C000C96816683143116042F20431C4F2010139
:1042D000A1F541729342BDE8704012D1BCF1110FBB
:1042E0000BD01222C1F20002944506D0BCF1120F8D
:1042F00007D10A6842F4800202E00A6842F4000230
:104300000A600021C1630846704700BF2DE9F047ED
:1043100086B040F24C16C2F20006306B00285ED127
:10432000002700240597CDE90377CDE90177C4F292
:1043300002043068A4F5CE31884250D143F63000F3
:1043400000974FF0020801AD4FF003094FF0090A42
:10435000C4F20200016941F000710161016901F0DC
:104360000071009100990097016841F0010101601E
:104370002946006800F0010000900098CDF8088000
:104380004FF400600190012003902046CDF810907A
:10439000CDF814A000F0FCFF4FF48050CDF8088059
:1043A0002946019003A880E88006204600F0F0FF2F
:1043B0004EF60C504FF48012CEF2000001684EF21F
:1043C0000011CEF2000181F814730A6000684EF209
:1043D0001540CEF2000007704FF4001008603368FB
:1043E00041F23831C2F20001186820F00200186072
:1043F0000A685F68306817F0020F22D00B689B1ABA
:104400000B2B80F08B80436813F0020F18D00B68E1
:104410009B1A0A2B00F28280436813F0020F0FD020
:104420000B689B1A0A2B79D8436813F0020F07D048
:104430000B689B1A0A2B71D8436813F0020FDDD169
:1044400003461A6842F001021A600A68436813F0D2
:10445000010F20D130680B689B1A0B2B64D2436884
:1044600013F0010F17D10B689B1A0A2B5CD8436815
:1044700013F0010F0FD10B689B1A0A2B54D8436815
:1044800013F0010F07D10B689B1A0A2B4CD8436815
:1044900013F0010FDFD0B1690268371D22F08003ED
:1044A000012908BF42F080030360F169026822F02D
:1044B0004003012908BF42F040030360316A0268EB
:1044C00022F02003012908BF42F020030360716A33
:1044D000026842F01003012908BF22F010030360B4
:1044E000B16A026822F00803012908BF42F00803FC
:1044F0000360F16A026822F00403012908BF42F058
:10450000040303608ECF1A43736901393A431A4397
:1045100011430122C161002100200AE0706B0522D5
:1045200040F40031012004E0706B052240F40031BA
:1045300001207163326306B0BDE8F08740F24C138E
:10454000C2F200031A68196B03F1340C0139936845
:10455000012909D813F0E05F09D0C3F30163032BED
:1045600008D14FF4000026E04FF4802023E04FF400
:10457000001020E002EB031141F25832C2F20002B7
:1045800001F5C07C1278002A1CBF0022C5F260022F
:10459000C1F8802141F25C32C2F200021278002A96
:1045A00018BF0822C1F884214268C1F88C21006834
:1045B000C1F888010120DCF800100843CCF80000A5
:1045C000704700BF2DE9F04F81B02DED028B88B010
:1045D00040F24C10C2F200000068D0F814A041680C
:1045E00002911AF0010F8768C4680169039181691B
:1045F000009101D1002546E0F90724D00121816016
:10460000B8071ED478075ABF4FF4805000EA4725F8
:104610004FF40065F80519D540F24C104FF4807145
:10462000C2F2000000688160B80525D478055ABF41
:1046300007F4006045EAC00545F40055F80307D4C7
:1046400021E0FEF793F80025F805E5D4F8031AD524
:1046500040F24C104FF48031C2F2000000688160DB
:10466000B8030ED478034FBF45F400454FF48030B3
:1046700000EAD700054306E0FEF778F8F803E7D430
:1046800001E0FEF773F840F24C175FEA0A70C2F2DD
:10469000000707D514F0100004D03868102145F445
:1046A0000075C1605FEA4A70019505D514F00800F5
:1046B0001EBF38680821C1605FEA8A7040F18681B8
:1046C0003868C16811F0030F00F0808145F2491489
:1046D00045F6500541F2603940F2841B40F2204615
:1046E0009FED288A07F13408C4F20004C4F20005E3
:1046F000C2F20009C2F2000BC4F20106396B0139A3
:10470000012941D8014651F80C2F12F0030F3ED079
:10471000D0F8B031D0F8B02113F0040F04BF520D1F
:10472000C9F80020D0F8B021D0F8B421D0F8B421D5
:10473000D0F8B421D0F8B8218BF80020D0F8B821F7
:10474000120A8BF80120D0F8B821120C8BF8022045
:10475000D0F8B821120E8BF80320D0F8BC218BF8CA
:104760000420D0F8BC21120A8BF80520D0F8BC2117
:10477000120C8BF80620D0F8BC01000E8BF8070055
:10478000202007E0DB0F49394FF4802001E04FF48F
:10479000001041460A6810430860D9F80000B0F5DF
:1047A000407F1BD040F20331884240F00381DBF8A8
:1047B000000045F24F21884221DD45F25411C4F238
:1047C0000001884242DC45F2502188426DD045F21A
:1047D0004A61884272D0A04232D0EBE045F64F01E8
:1047E000DBF80000C4F20001884235DCA04227D08B
:1047F00045F25511C4F20001884238D0DAE044F2A3
:104800004331884241DD44F24431884265D044F668
:104810004D71884268D045F25301884240F0CA8009
:10482000DBF80400B0F50C0F80F2888010F50C0F57
:1048300040F20000CFF67470D8BFCBF8040081E0DE
:1048400040F24810C2F200000460B3E045F2551196
:10485000C4F2000188420AD0A84210D045F65601A1
:10486000C4F20001884240F0A580A81D01E004F1D7
:104870000C0040F24811C2F2000108609AE040F2D8
:104880004810C2F20000056094E044F250118842E2
:104890004CD044F24131884240F08C809BED010ABB
:1048A00041F29C30C2F2000052E041F25030C2F2BC
:1048B00000000068DBF80410084439E0DBF804006D
:1048C000B0F50C0F47DA10F50C0F40F20000CFF6F0
:1048D0007470D8BFCBF8040041E09BED010A41F2AF
:1048E000A030C2F2000033E041F298300021C2F261
:1048F00000000160DBF80410306801293CD140F071
:1049000001003060306840F010003060306840F4E2
:1049100080703060306840F004003060306840F0F3
:1049200040003060306840F480603BE0DBF8040019
:1049300041F24C31C2F2000108603BE04FF40C0040
:10494000CBF804009BED010A41F24030C2F20000B6
:10495000B8EE400A0BE04FF40C00CBF804009BEDDE
:10496000010A41F29830C2F20000B8EEC00A20EE0F
:10497000080A80ED000A1DE020F001003060306878
:1049800020F010003060306820F4807030603068B3
:1049900020F004003060306820F040003060306863
:1049A00020F48060306056F8140C40F0010046F8A6
:1049B000140C00BFFDF7DAFE386B0138012805D86A
:1049C0003868C16811F0030F7FF498AE5FEA4A605F
:1049D00040F18280039ADDE9013912F0100004D021
:1049E0003868102143F4806301615FEA8A6005D56D
:1049F00012F008001EBF3868082101615FEACA6032
:104A000044BF386800695FEA8A3005D519F01000A4
:104A10001EBF3868102141605FEACA3005D519F021
:104A200008001EBF3868082141605FEA0A4027D5A8
:104A30005FEA497021D5009A0AF4807002EA1020DA
:104A400012F0020F40EA0300014618BF41F00201D4
:104A50001AF4007F08BF014612F0040F0B4618BF7E
:104A600043F004031AF4806F08BF0B461AF4006F7A
:104A700018BF12F0700040F0CA813868042141600C
:104A8000002B00F09A82786B40F200084322C2F2B9
:104A90000008184345F63C7378634127C0F60003CD
:104AA000D8F80010481CC8F800000A70002200BFA7
:104AB0008E1877709F18BD7865B1B570FD789DB17F
:104AC000F5703D7995B17F79043204303571002F4E
:104AD000EED1881801300AE0039ADDE901395FEA76
:104AE0008A603FF585AF89E7023000E0033040F28D
:104AF0004C14C8F80000C2F20004FDF7BFFFD8F85C
:104B00000030D4F834C0BCF1FF3F05DDBCF1000F2C
:104B100000F0BF80002204E02D20CCF1000C012227
:104B200018704CF6CD4900244FF0030A6FF00607C9
:104B30000E266FF0050B4FF000080093CCF6CC4921
:104B4000C8F10E01C8F10F00CE460394029200F0A6
:104B500003000329019101D2012124E00AF003049A
:104B600001213D4604EB0509B9F1040F0ED0B9F15E
:104B7000000F0ED019F1040210D000221035C6F635
:104B8000C17251436219082AECD10CE042F2107252
:104B900008E04EF20012C0F2F55203E041F20002CA
:104BA000CDF2A542514301284FF47A70F14608BF77
:104BB0000A204843BCFBF0F0A0FB0E14E10801EB17
:104BC0008101A0EB410028B1009B029A40F0300027
:104BD00006E000BF039C009B029A012C03D1302009
:104BE000985401320124B8F10E0F01D101202FE0B9
:104BF0000198039400F0020EC8F10D00032801D2C1
:104C000001201FE006F0020401205D46611904291D
:104C10000BD069B1043110D000211035C6F6C17136
:104C2000484361190829F1D10CE042F2107108E003
:104C30004EF20011C0F2F55103E041F20001CDF255
:104C4000A5414843BEF1000F039C1CBF64214843AB
:104C5000BCFBF0F0A0FB0915E90801EB8101A0EB1A
:104C6000410018B140F0300003E000BF012C03D137
:104C7000302098540132012408F102080BF1020B94
:104C8000023E02370AF1020AB8F1100F7FF458AF62
:104C900002E0302001221870981840F200060A2421
:104CA0000130C2F2000630609C54FDF7E7FE40F28E
:104CB00004053168C2F200052868091A89B200F0BB
:104CC0009FFA40F2E4232A6840F6B421C2F20003BE
:104CD000C2F200019A4218BF1946002829603160CB
:104CE0001ED044F64450C5F64170086047F2425069
:104CF000C6F26660486047F26520C4F65F7088605F
:104D000046F27650C6F27260C86046F66C70C0F625
:104D10007750086101F115000C753060FDF7AEFEAB
:104D200040F2941041F2111840F24C17C2F2000008
:104D3000C0F21108C2F2000701884A1C64290280EF
:104D4000CDF814807D6B049539D802310180386B21
:104D5000022857D13868016841F00101016041F231
:104D60003831C2F200010A68436813F0010F20D104
:104D700038680B689B1A0B2B56D2436813F0010F4F
:104D800017D10B689B1A0A2B4ED8436813F0010FFA
:104D90000FD10B689B1A0A2B46D8436813F0010FFA
:104DA00007D10B689B1A0A2B3ED8436813F0010FFA
:104DB000DFD0016821F002010160012039E040F2FA
:104DC0002040C4F20100016821F001010160016886
:104DD00021F010010160016821F480710160016817
:104DE00021F004010160016821F0400101600168C7
:104DF00021F48061016050F8141C41F0010140F879
:104E0000141CDAE0786B40F48010786312E01038FC
:104E10000009052800F2E580DFE800F003D5D8DBC3
:104E2000DEE143F00803DCE0786B40F400307863A7
:104E30000520386345F650013868C4F2000101F5D9
:104E40003B61884240F0808000204FF46151C4F201
:104E50000200425822F0007242504FF6104243F6D0
:104E60000041CFF6FF72C4F201018B5813F4704F6A
:104E700013D18B5823F470438B500A6822F40062DC
:104E80000A604A6822F400624A608A6822F400627A
:104E90008A60CA6822F40062CA60026822F4400292
:104EA0000260426A22F470424262826822F4400246
:104EB0008260426822F400624260C26822F44002CA
:104EC000C2604FF61442CFF6FF728B5813F00F0FEB
:104ED00013D18B5823F00F038B500A6822F48052B1
:104EE0000A604A6822F480524A608A6822F480523A
:104EF0008A60CA6822F48052CA60016821F0407159
:104F00000160416A21F470214162816821F04071A1
:104F10008160416821F480514160C16821F0407195
:104F2000C1604EF280104FF48011CEF2000001609B
:104F30004FF40011BFF34F8FBFF36F8F0160BFF3CA
:104F40004F8FBFF36F8F386801683E4641F40041D0
:104F50000160002046F8340F3863FFF7D7F938684E
:104F6000102132463C46C160396B4FF4802701392D
:104F700002294FF480213CBF022100F11402106885
:104F800008430121106041F25830C2F20000017064
:104F900041F25C30C2F20000017006A8CDE906853E
:104FA000FFF7CCFA2068216B013902293CBF0127A9
:104FB00000F1140630683843306008B0BDEC028B55
:104FC00001B0BDE8F08F43F010030AE043F0200386
:104FD00007E043F0400304E043F0800301E043F4C2
:104FE00080733868816921F07001816145E500BFF7
:104FF00040F29811C2F200010A6D012A08BF704701
:10500000B0B582B041F238354FF0010CC1F850C054
:10501000C2F200052C684B6D012B40F0E88000289F
:1050200000F0E580032301224B6500238B65CA86CF
:1050300008638A868B638B87C1E91033CB87D1F8ED
:1050400008E00B68BEF5004F02BF1A6842F48042C8
:105050001A601A6812F0400F02BF1A6842F040024C
:105060001A60CA68B2F5006F1AD130F8022BDA6004
:10507000CA8E013ACA86086307E000BF30F8022BE7
:10508000DA600863CA8E013ACA86CA8E12B39A6879
:1050900012F0020FF2D12A68121B952AF5D9A6E068
:1050A00010F8012B1A73CA8E013ACA86086306E00B
:1050B00010F8012B1A730863CA8E013ACA86CA8E89
:1050C00042B19A6812F0020FF2D12A68121B952A97
:1050D000F5D98CE040F20C0049F68172C2F2000072
:1050E000C1F25E620068A0FB0202500D4FF47A72BA
:1050F00010FB02F001904868B0F5827F48D19868B3
:1051000010F0800F68D02868001B962817D2986886
:1051100010F0800F60D02868001B95280FD8986881
:1051200010F0800F58D02868001B952807D8986881
:1051300010F0800F50D02868001B9528DFD95868E0
:10514000BEF5004F20F0E000586002D0BEF5806F41
:1051500003D1186820F040001860886AB0F5005F3D
:1051600007D1186820F400501860186840F4005007
:1051700018600120486500200865886D40F0200017
:10518000886520208865BEF1000F2FD127E000BF81
:10519000019808B3019801380190986810F0800FC9
:1051A0001AD00198C0B1019801380190986810F0A8
:1051B000800F11D0019878B101980138019098685A
:1051C00010F0800F08D0019830B10198013801909B
:1051D000986810F0800FDBD1BEF1000F06D10020DF
:1051E0000090D8680090986800900098886D002022
:1051F0000865C1F854C002B0BDE8B040704700BFB8
:1052000040F238230246C2F20003D86B20281CBFAC
:1052100002207047002A18BF002901D101207047E1
:10522000986B012804BF022070472DE9F04100204F
:1052300001262124D98445F2053558641A629E63FB
:105240009984DC6345F22D34C0F60005D3F830E0D4
:10525000C0F60004CEE9105445F23135C0F6000521
:10526000CEE91450DEF83440D3F800C0012C3BD016
:10527000DEF85C80CEF83460DEF83850012D30D195
:1052800002260CF10405CEF838600026CEF85860EE
:10529000DEF80060DEF808703468402F24F48024C3
:1052A00034607160114608BF2946B16008BF1546D9
:1052B0003F22F560DEF8601002FA01F1C8F808102C
:1052C000316841F016013160716941F0800171610E
:1052D000316841F008013160316841F0010131600D
:1052E00002E00021CEF834106FF04001CCF800103D
:1052F0009863DCF8141041F08001CCF81410BDE87C
:10530000F08100BF0168C06B096811F4807F18BF8D
:1053100070470021C1840068416921F0800141612A
:10532000C16841F04001C160704700BF704700BFD5
:10533000C06B01684A69C36B212B0AD112F080024D
:1053400007D00022C284CA6822F0C002CA602022AC
:10535000C2634A69036C222B0ED112F040020BD0BB
:105360000022C285CA6822F49072CA604A6922F09B
:1053700001024A6120210164416C41F01001416445
:10538000704700BFC06B0021C185C184704700BF5A
:105390002DE9F04F82B041F60003072243F6004B9F
:1053A0004FF0010A00264FF0000CC4F20203C4F2D1
:1053B000010B984200F13E4303F1FF7308BF062240
:1053C0004FEAB327062F4FF0000738BF4FEAB3224A
:1053D000009209E00CF1010C02370436BCF1100F09
:1053E00004BF02B0BDE8F08F0A680AFA0CF812EAAE
:1053F000080FEFD0D1F804E04EF01002122A14D1B9
:1054000006F01C020F2303FA02F44FF6FC73C7F6F2
:10541000FF7303EA5C0505442B6AA3430C6904FA95
:1054200002F21A432A62D1F804E0032304680EF062
:105430000302BEF1120F03FA07F302FA07F224EA9D
:1054400003046FEA030942EA0402026014D80AFA6C
:105450000EF212F0061F0FD08268CB6802EA090232
:10546000BB401A438260CEF30012436802FA0CF28A
:1054700023EA08031A434260C2688B6802EA090201
:10548000BB401A43C2605FEACE02A3D5002206F0F9
:105490000C050F24019243F64402AC40C4F2020210
:1054A0001346126842F480421A601A6802F480427D
:1054B00001922CF00302019B5A444FF60843CFF6A9
:1054C000FF739E46D358A343009C04FA05F52B4373
:1054D00042F80E30DBF800204D6842EA080315F46C
:1054E000803F08BF22EA080315F4003FCBF80030E4
:1054F000DBF8042042EA080308BF22EA080315F497
:10550000801FCBF80430DBF8082042EA080308BF0C
:1055100022EA080343F60C4215F4001FC4F201020C
:10552000CBF808301446126842EA080308BF22EAA2
:10553000080323604EE700BF4EF688504FF0000C82
:10554000CEF20000016841F47001016043F60001F1
:10555000C4F202010A6842F001020A60C1F808C000
:105560004FF6FF720B68CFF6F6621A400A6043F2FC
:105570001002C2F200424A600A6822F480220A60E5
:10558000C1F80CC04FF0006140F8801C704753EA2E
:10559000020C00F069802DE9F04B4FF00006002B63
:1055A0001FBFB3FA83F503FA05F424FA05F65E404B
:1055B00012BF1643B2FA82F502FA05F4C5F12005CE
:1055C0001EBF22FA05FC44EA0C04203556EA044CBE
:1055D0004FEA144418BF641C4FF000084FF0000954
:1055E000904271EB030C39D3002919BFB1FA81F74E
:1055F00001FA07F6B0FA80F700FA07F6C7F12007BC
:105600001EBF20FA07FC46EA0C062037B6FBF4FC66
:10561000A7EB0507103F07F01F0BCBF120062CFA74
:1056200006F60CFA0BFB44BFB3460026202FA4BF9E
:105630005E464FF0000B5BEA060C08BF4FF0010B13
:1056400019EB0B0948EB0608ABFB027C06FB02CC0E
:105650000BFB03CCC01B71EB0C01C1E70B460246F0
:1056600041464846BDE8F08B13B54FF000004FF0BF
:105670000001AFF30080BDE81C40704730380A28B5
:1056800001D20120704700207047000010B50029AA
:105690000AD00878002807D005487844FBF74CFA70
:1056A000002801D0002010BD0248784410BD000041
:1056B000D2080000CA080000F1EE100A4FF6FF7190
:1056C000C0F2C03120EA010040F04070E1EE100A63
:1056D000704700000000000000000000303132334D
:1056E0003435363738394142434445464030580016
:1056F0003031323334353637383961626364656648
:1057000040307800040000080000000000000002A3
:105710000001000010000000008000880090009848
:1057200000A000A800B00011661B33245A2CA3323D
:1057300000000000920E493CB10AC93C2BC3163D43
:105740002EFB483D752B7B3D04A9963D80B6AF3DB1
:1057500036BDC83D2FBCE13D73B2FA3D87CF093E4F
:105760008340163EB5AB223EA2102F3ECF6E3B3E8D
:10577000C2C5473E0115543E135C603E7F9A6C3EA5
:10578000CCCF783EC07D823E938E883E229A8E3E5C
:1057900032A0943E86A09A3EE59AA03E128FA63E85
:1057A000D47CAC3EEF63B23E2A44B83E491DBE3EB7
:1057B00015EFC33E53B9C93ECA7BCF3E4136D53EF5
:1057C00080E8DA3E4F92E03E7533E63EBBCBEB3EDF
:1057D000EA5AF13ECBE0F63E275DFC3EE4E7003FAF
:1057E0003D9C033F824B063F9BF5083F6B9A0B3F66
:1057F000DA390E3FCDD3103F2A68133FD9F6153F53
:10580000C07F183FC6021B3FD17F1D3FCBF61F3F15
:105810009967223F25D2243F5636273F1594293FCA
:105820004AEB2B3FDE3B2E3FBB85303FC9C8323FA2
:10583000F304353F233A373F4268393F3B8F3B3FC4
:10584000F9AE3D3F67C73F3F70D8413F01E2433F5C
:1058500003E4453F65DE473F12D1493FF8BB4B3F6C
:10586000029F4D3F207A4F3F3D4D513F4918533FD6
:1058700031DB543FE595563F5348583F6AF2593F54
:105880001A945B3F532D5D3F05BE5E3F2146603F4E
:1058900097C5613F5A3C633F59AA643F880F663FF2
:1058A000D86B673F3CBF683FA7096A3F0C4B6B3F13
:1058B0005E836C3F93B26D3F9ED86E3F73F56F3F32
:1058C0000809713F5213723F4714733FDD0B743F59
:1058D0000BFA743FC6DE753F07BA763FC58B773F3C
:1058E000F853783F9812793F9DC7793F02737A3F0A
:1058F000BE147B3FCDAC7B3F283B7C3FC9BF7C3F88
:10590000AC3A7D3FCCAB7D3F23137E3FB0707E3FF2
:105910006DC47E3F580E7F3F6D4E7F3FAB847F3F0F
:105920000FB17F3F97D37F3F43EC7F3F11FB7F3F1A
:105930000000803F11FB7F3F43EC7F3F97D37F3FC9
:105940000FB17F3FAB847F3F6D4E7F3F580E7F3F4F
:105950006DC47E3FB0707E3F23137E3FCCAB7D3F56
:10596000AC3A7D3FC9BF7C3F283B7C3FCDAC7B3F01
:10597000BE147B3F02737A3F9DC7793F9812793FEF
:10598000F853783FC58B773F07BA763FC6DE753F41
:105990000BFA743FDD0B743F4714733F5213723F91
:1059A0000809713F73F56F3F9ED86E3F93B26D3F0C
:1059B0005E836C3F0C4B6B3FA7096A3F3CBF683F5F
:1059C000D86B673F880F663F59AA643F5A3C633FD4
:1059D00097C5613F2146603F05BE5E3F532D5D3F49
:1059E0001A945B3F6AF2593F5348583FE595563F3A
:1059F00031DB543F4918533F3D4D513F207A4F3FD3
:105A0000029F4D3FF8BB4B3F12D1493F65DE473FF8
:105A100003E4453F01E2433F70D8413F67C73F3F42
:105A2000F9AE3D3F3B8F3B3F4268393F233A373F1A
:105A3000F304353FC9C8323FBB85303FDE3B2E3FC4
:105A40004AEB2B3F1594293F5636273F25D2243F5A
:105A50009967223FCBF61F3FD17F1D3FC6021B3FF8
:105A6000C07F183FD9F6153F2A68133FCDD3103FAA
:105A7000DA390E3F6B9A0B3F9BF5083F824B063F8E
:105A80003D9C033FE4E7003F275DFC3ECBE0F63E54
:105A9000EA5AF13EBBCBEB3E7533E63E4F92E03E19
:105AA00080E8DA3E4136D53ECA7BCF3E53B9C93E87
:105AB00015EFC33E491DBE3E2A44B83EEF63B23ED9
:105AC000D47CAC3E128FA63EE59AA03E86A09A3EBC
:105AD00032A0943E229A8E3E938E883EC07D823EB6
